:020000022000DC
:102C000000800020CDE602000DE702000FE7020081
:102C100000000000000000000000000000000000B4
:102C200000000000000000000000000011E70200AA
:102C3000000000000000000013E7020015E702009A
:102C400021C8020017E70200C5A5020099D40200BE
:102C500017E7020000000000B1CE0200F1C9020037
:102C600017E7020017E7020017E7020017E7020064
:102C700017E7020017E7020017E7020017E7020054
:102C800017E7020041B2020017E7020017E702004F
:102C9000FDB2020017E70200A5E9020017E70200F3
:102CA00017E7020017E70200000000000000000024
:102CB0000000000000000000000000000000000014
:102CC00010B5064C2378002B07D1054B002B02D002
:102CD000044800E000BF0123237010BDD82200206B
:102CE0000000000000410300084B10B5002B03D08A
:102CF0000749084800E000BF07480368002B00D1DF
:102D000010BD064B002BFBD09847F9E700000000F0
:102D1000DC22002000410300C4220020000000004B
:102D2000164B002B00D1144B9D46402292029A1A5A
:102D3000924600218B460F461348144A121A00F09F
:102D400065F80F4B002B00D098470E4B002B00D09E
:102D500098470020002104000D000D48002802D0F3
:102D60000C4800E000BF00F02DF82000290000F022
:102D700059F800F011F8C04600000800008000205B
:102D80000000000000000000D8220020083B0020C6
:102D90000000000000000000084B10B50400002BEC
:102DA00002D0002100E000BF054B1868836A002BA9
:102DB00000D09847200000F031F8C0460000000025
:102DC000F808030070B500260C4D0D4C641BA410D0
:102DD000A64209D100260DF083FD0A4D0A4C641B62
:102DE000A410A64205D170BDB300EB589847013638
:102DF000EEE7B300EB5898470136F2E7BC2200201B
:102E0000BC220020BC220020C02200200300821827
:102E1000934200D1704719700133F9E7FEE7C046CD
:102E200048DF7047F7B5002007F0BAFC8549040079
:102E3000032007F0C9FC8449032007F0C5FC83493F
:102E4000032007F0C1FC002C02D0200008F056F946
:102E500000207F4B0B2118707E4B7F4A18707F4BF0
:102E60001827187004231360536093607C4A10265F
:102E700010707C4A7C4C1160516091607B4A033138
:102E800010707B4A7B4D1160516091607A4A2760D7
:102E9000107006226760A7602E606E60AE60774992
:102EA0000A604A608A607649087076490A604A601A
:102EB0008A60754A1070754A13605360936004F01D
:102EC0005BFB00970196624B1B789A00A05818286C
:102ED0000AD00099013BDBB2A150022B00D900239C
:102EE0005B4A137004F048FB5A4B1B789A00A858B1
:102EF00010280AD00199013BDBB2A950022B00D95E
:102F00000023544A137004F04FFD544B524A1B786F
:102F10009900885804280AD00426013BDBB28E5061
:102F2000022B00D900234D4A137004F03FFE4C4A97
:102F30004C4913789E0070580B2809D00B27013B91
:102F4000DBB27750022B00D90023137005F0AAFBE7
:102F5000464A474913789E0070580E2809D00E271C
:102F6000013BDBB27750022B00D90023137006F02F
:102F7000CFF9414A414913789E007058062809D07C
:102F80000627013BDBB27750022B00D900231370D8
:102F900005F0DEFD3A4A3B4913789E00705806283A
:102FA00009D00627013BDBB27750022B00D9002362
:102FB000137006F02BFC344A344913789E00705885
:102FC000042809D00427013BDBB27750022B00D93B
:102FD0000023137006F00EFE04F07EFB002800D0E4
:102FE00071E704F09DFD002800D06CE704F09AFE24
:102FF000002800D067E705F005FC002800D062E754
:1030000006F042FA002800D05DE705F051FE0028E6
:1030100000D058E706F0AAFC002800D053E706F0DD
:103020008BFE002800D04EE707F000FD002800D0FE
:1030300049E7FFF7F5FE002800D144E708F05EF805
:1030400041E7C046FC0803004F090300690903007B
:103050004825002049290020B03A00204A290020B4
:103060004D290020BC3A002000370020902A002083
:10307000D43A0020A43A0020582A0020C83A002060
:10308000CC2A0020E03A0020582B0020EC3A002007
:10309000A0DF7047A6DF704763DF704730B5AE49E9
:1030A00089B0032007F090FB01220120AB4B524274
:1030B000AB4C1A80AB49AC4B220088700B80FFF7F9
:1030C000E7FF002801D008F019F8A849102204A849
:1030D0000CF090FFA64D04A82900FFF7DDFF0028A3
:1030E00001D008F00BF8A34A2B7821880392A24A5A
:1030F000A24802920222019203320092A04A07F0F3
:1031000069F8002801D007F0F9FF9E4A2B78218842
:1031100003929D4A9D4802920222019292180092C7
:103120009B4A07F057F8002801D007F0E7FF994ABB
:103130002B7821880392984A98480292072201929C
:10314000023A0092964A07F045F8002801D007F0AD
:10315000D5FF944A2B7821880392934A9348029290
:1031600010220192073A0092914A07F033F80028A2
:1031700001D007F0C3FF8F4A2B78218803928E4A33
:103180008E4802920C220192073A00928C4A07F074
:1031900021F8002801D007F0B1FF8A4A2B78218856
:1031A0000392894A894802920122019203320092D5
:1031B000874A07F00FF8002801D007F09FFF854AE3
:1031C0002B7821880392844A84480292102201922B
:1031D0000B3A0092824A06F0FDFF002801D007F06A
:1031E0008DFF804A2B78218803927F4A7F48029284
:1031F000102201920B3A00927D4A06F0EBFF002864
:1032000001D007F07BFF7B4A2B78218803927A4A12
:103210007A48029204220192033A0092784A06F018
:10322000D9FF002801D007F069FF764A2B78218862
:103230000392754A7548029201220192043200926B
:10324000734A06F0C7FF002801D007F057FF714A04
:103250002B7821880392704A7048029204220192CE
:1032600000926F4A06F0B6FF002801D007F046FF33
:103270006C4A2B78218803926B4A6C480292012297
:1032800001920B3200926A4A06F0A4FF002801D096
:1032900007F034FF674A2B7821880392664A674813
:1032A00002920122019204320092654A06F092FFD6
:1032B000002801D007F022FF624A2B782188039270
:1032C000614A6248029202220192013A0092604AE7
:1032D00006F080FF002801D007F010FF5D4A2B7830
:1032E000218803925C4A5D48029210220192073ABB
:1032F00000925B4A06F06EFF002801D007F0FEFE48
:10330000584A2B7821880392574A58480292102233
:1033100001920B3A0092564A06F05CFF002801D059
:1033200007F0ECFE534A21882B780392524A534807
:103330000292102201920B3A0092514A06F04AFF83
:10334000041E01D007F0DAFE4E49032007F03CFAD4
:10335000200009B030BDC046BA0A03004C2000204E
:10336000042400200624002000FFFFFF8D09030035
:103370000A24002034230020B8230020E40A03009C
:1033800001FF000064230020EE230020F30A030065
:1033900002FF00005C230020E7230020FD0A030059
:1033A00003FF00006C230020F0230020040B030027
:1033B00004FF00003C230020BA230020190B030067
:1033C00005FF00000C23002080230020340B0300A5
:1033D00006FF00002423002098230020450B030053
:1033E00007FF00004C230020C7230020590B0300D7
:1033F00008FF000014230020842300206D0B03002D
:1034000009FF000044230020C62300207C0B03009A
:103410000AFF00007423002000240020910B030009
:103420000BFF0000F42200207C2300209B0B0300F4
:103430000CFF0000FC2200207D230020AE0B0300C7
:103440000DFF0000042300207E230020BA0B0300A0
:103450000EFF00001C23002088230020C20B030065
:103460000FFF00002C230020A8230020D50B030011
:1034700010FF000054230020D7230020EE0B030090
:1034800011FF0000070C0300F0B510251627114EA0
:103490008BB006AC00900191029269462A00300080
:1034A00003936F440CF0A6FD2A00002120003D800C
:1034B000FFF7ACFC084B21001B88A7602380012389
:1034C000A3700023A380054BE6601888FFF7E2FD98
:1034D0000BB0F0BDF02300206C2300204C20002016
:1034E000F0B587B06B4601270C4D02AC2870102256
:1034F000002120009E1DDF80FFF788FC084B210083
:103500001B88A77023800023A380064BA660188821
:10351000E560FFF7BFFD07B0F0BDC0467C2300208B
:10352000F42200204C200020F0B5038885B0112B38
:103530002BD0502B3ED0102B14D1BD4E8288BD4BCA
:103540003078BD4C1A8082001359102B1AD03721C5
:10355000BA4A0191012807D934390091B8490120AC
:1035600007F0D8F905B0F0BD032500952368B549EB
:10357000022007F0CFF933780133DBB233709B00C0
:103580001D51EFE703231351ECE70122A84EA94B8D
:1035900030785242A84C1A8082001359102B07D061
:1035A0004521A64A019141390128D6D80425DCE7F6
:1035B0000423E8E7A44AC38812889A421BD1FF205B
:1035C000FFF78EFFA14803887F2B01D97F2303805B
:1035D00004F08CFA964E984C307882001359102BD8
:1035E00007D05A21954A0191052555390128B4D8AB
:1035F000BBE70523C7E7964A12889A421CD1FF20F1
:10360000FFF76EFF934803887F2B01D97F23038048
:1036100004F06CFA864E884C307882001359102BD7
:1036200008D06521854A019106255F39012800D916
:1036300093E79AE70623A6E7874A12889A4214D1AD
:10364000864804F053FA7A4E7B4C30788200135946
:10365000102B08D06D21794A019107256639012880
:1036600000D97AE781E707238DE77D4A11889942DF
:1036700000D177E792889A4200D173E7794A12889D
:103680009A4211D16A4E6C4C307882001359102B3B
:1036900008D07A21694A01910B256F39012800D998
:1036A0005BE762E70B236EE76F4A12889A4214D1F8
:1036B0006E4804F01BFA5E4E5F4C3078820013595E
:1036C000102B08D081215D4A019108257939012804
:1036D00000D942E749E7082355E7654A12889A422C
:1036E00000D13FE7634A12889A4200D13AE7624A22
:1036F00012889A4211D14E4E4F4C307882001359A5
:10370000102B08D091214D4A01910A2587390128B3
:1037100000D922E729E70A2335E7584A12889A4256
:1037200011D1434E444C307882001359102B08D0ED
:103730009721424A019109258E39012800D90CE7C9
:1037400013E709231FE74E4A12889A4200D009E77F
:10375000831D03931F7B022F25D10124494B1B7826
:10376000234220D04849032007F02EF88020000291
:1037700006F03AF88020400206F03CF8C0208002B3
:1037800006F03EF8414E424D307882005359062BE8
:103790004AD0A321294A01910094A04238D928494E
:1037A000200007F0B7F8039B1B7B062B00D0D9E65F
:1037B0000124344B1B78234200D1D3E63549032042
:1037C00007F002F88020000206F00EF88020400288
:1037D00006F010F8C020800206F012F82B4E2C4D97
:1037E000307882005359062B20D0AB21134A019127
:1037F0000094A04200D9B1E62B681249022007F0DC
:1038000089F833780133DBB233709B005C51A9E651
:103810002B680C49380007F07DF833780133DBB2B0
:1038200033709B005C51BEE75451BCE7545199E69C
:10383000492900204C200020A43A00209D090300C3
:10384000BE090300100A030034230020B82300201F
:1038500064230020EE2300205C230020E7230020C7
:103860006C2300203C2300200C2300208023002018
:10387000242300204C230020442300207423002014
:10388000F42200207D2300205A0A0300CC2A0020C5
:10389000E03A00208B0A0300F0B510251627114EE0
:1038A0008BB006AC00900191029269462A0030006C
:1038B00003936F440CF09EFB2A00002120003D8002
:1038C000FFF7A4FA084B21001B88A760238001237F
:1038D000A3700023A380054BE6601888FFF7DAFB8E
:1038E0000BB0F0BD882300201C2300204C200020BA
:1038F00010B504000C2202490CF07CFB200010BD26
:10390000BA2300207FB51025094E04002A0031009B
:1039100068460CF06FFB7F22F37B694613406A46D2
:103920002000D3732A000CF065FB200004B070BDAA
:10393000982300207FB51025094E04002A0031008D
:1039400068460CF057FB7F22F37B694613406A46BA
:103950002000D3732A000CF04DFB200004B070BD92
:10396000C72300207FB51025094E04002A0031002E
:1039700068460CF03FFB7F22F37B694613406A46A2
:103980002000D3732A000CF035FB200004B070BD7A
:10399000F0230020014B18887047C046B823002050
:1039A000014B18887047C046EE230020014B186871
:1039B0007047C04600240020014B18787047C0466D
:1039C0007D230020014B18787047C046C623002095
:1039D0007FB51025094E04002A00310068460CF01E
:1039E00009FB7F22F37B694613406A462000D373AC
:1039F0002A000CF0FFFA200004B070BDA8230020BC
:103A00007FB51025094E04002A00310068460CF0ED
:103A1000F1FA7F22F37B694613406A462000D37394
:103A20002A000CF0E7FA200004B070BDD723002074
:103A30001FB501900291039201A90C2202480CF0DB
:103A4000D9FA05B000BDC046BA230020014B18606A
:103A50007047C04684230020014B18807047C04641
:103A60007E230020014B18807047C046B8230020F9
:103A700007B5072200900191024869460CF0BAFA96
:103A800007BDC046E7230020014B18707047C046B1
:103A9000C62300201FB5029203935A006B46520EB4
:103AA000009001910348DA73694610220CF0A2FAE3
:103AB00005B000BD982300201FB5029203935A0061
:103AC0006B46520E009001910348DA73694610224A
:103AD0000CF090FA05B000BDC72300201FB502927C
:103AE00003935A006B46520E009001910348DA731B
:103AF000694610220CF07EFA05B000BDF0230020CC
:103B000073B503881D2B20D10622037C13409342FA
:103B10001BD10100164C1832113120000CF06AFA4A
:103B2000200004F0E5F8134E134C3078820013594E
:103B3000042B19D03921114A0191012806D93739AE
:103B4000009101200E4906F0E5FE73BD02250095A7
:103B500023680C49280006F0DDFE33780133DBB220
:103B60003370AB401D51F0E702231351EDE7C0461F
:103B70000B2400204A290020B03A00202D0C03001D
:103B8000BE090300100A030078DF70477ADF704730
:103B90007CDF704770470000004870470C2500200C
:103BA00010B5044904480AF08FFD002801D007F041
:103BB000A5FA10BD953B0200FC24002070B59AB018
:103BC0000BAC3C2200212000FFF720F902232370D8
:103BD0000433E370104B012663618023626A03ADF6
:103BE000DB00A67026820021138028002022FFF728
:103BF0000DF9962300215B002B61EE706961074B84
:103C000000912A0020000AF0B9F9002801D007F03D
:103C100075FA1AB070BDC0464E200020CD3D02009E
:103C2000112330B585B001AD2B701A4B1A4C1B68AF
:103C30001A4A1B499BB220000CF018FA20000CF025
:103C400037FA210082B22800FFF7A2FF002801D036
:103C500007F054FA0020FFF797FF002801D007F083
:103C60004DFA02AC082200212000FFF7CFF82023F4
:103C70002380183363800023A3809133FF33200017
:103C8000E380FFF783FF002801D007F037FA05B083
:103C900030BDC046A40000100C250020580C0300C5
:103CA0004E0C03007FB518490422063168460CF01B
:103CB000A1F90023D022154968460AF029FE002800
:103CC00001D007F01BFA01AA012100200AF07AFEB8
:103CD000002801D007F012FA01A80AF08BFE002894
:103CE00001D007F00BFA0A480AF048FE002801D07C
:103CF00007F004FA07480AF04BFE002801D007F04D
:103D0000FDF907B000BDC0464E0C03002C24002076
:103D1000073E0200353E020076DF7047A8DF70479D
:103D200067DF70471FB503880400112B23D004D828
:103D3000022B28D0102B0FD01FBD512B29D0552B73
:103D400001D03A2BF8D1A0881321FFF7E5FF002816
:103D5000F2D007F0D3F9EFE70320194906F034FD5C
:103D6000072009F055FD002801D007F0C7F9A28807
:103D7000144B1A80E0E7027A1349032006F040FD55
:103D800001225242F4E70F4B00211888FFF7C8FFC9
:103D9000DDE78379002BCFD0827B043A022ACBD88F
:103DA000022B0AD16A461370C1236A465B009380D6
:103DB000A0886946FFF7B2FFC9E70123F2E7C046D2
:103DC000C10C03001A250020D70C030010B50028F1
:103DD0000CD0032809D1074906F0F6FC022009F0AF
:103DE00017FD002801D007F089F910BD06F02EF864
:103DF000FBE7C046A40C0300038810B5112B01D0CB
:103E00000AF08EFA10BD10B504000AF0E5FB2000A0
:103E10000AF08CFB200009F0C5FD2000FFF782FFAF
:103E20002000FFF781FB2000FFF7E6FF2000FFF7EF
:103E300067FE10BD10B5040008F086FB20000AF0F4
:103E4000A5FA10BD73B50E2802D00F281CD073BD83
:103E500003201F4906F0B8FC1E4E1F4C307882002C
:103E60001359182B0DD08221490001911B4AFB39AF
:103E7000092501281DD900910120194906F04AFDA4
:103E8000E5E709231351E2E70320164906F09CFCFD
:103E9000104E114C307882001359182B16D0852102
:103EA00049000E4A0191012802D90139FF39E2E7A0
:103EB0000A25009523680C49022006F02BFD337873
:103EC0000133DBB233709B001D51C0E70A23D9E7F1
:103ED000610C03004825002000370020770C030008
:103EE000BE0903008E0C0300100A03008023F7B5FF
:103EF000DB02984200D102E109D880239B0298425C
:103F000026D0C0239B02984200D1B0E0F7BDC02369
:103F1000DB02984200D1E0E0E023DB02984200D1CE
:103F20003DE1A023DB029842F0D1012900D0B0E0AE
:103F300005F09CFA03F0C4FBC54FC64D3878C64E59
:103F400082005359182B00D1F6E0C44A282110E012
:103F5000012918D103F0D6FD03F0B2FBBC4FBD4DD3
:103F60003878BF4E82005359182B00D1E4E0192154
:103F7000BA4A01910096012800D8D1E0B949012040
:103F800006F0C8FCC2E704291ED103F0BBFD03F014
:103F900097FBAF4EAF4C3078B34D82001359182BBE
:103FA00000D10EE11A21AD4A019100950128E5D812
:103FB0002368AE49022006F0ADFC33780133DBB252
:103FC00033709B001D51A1E7072900D0FBE003F0EF
:103FD00099FD03F075FB9E4E9E4C3078A44D8200F7
:103FE0001359182B00D1ECE09C4A1B21DCE703F0AD
:103FF00089FD03F065FB964E964C30789D4D82000E
:104000001359182B00D1DCE0944A1C21CCE703F0B3
:1040100079FD03F055FB8E4E8E4C3078964D820024
:104020001359182B00D1CCE08C4A1D21BCE703F0BA
:1040300069FD03F045FB864E864C30788F4D82003B
:104040001359182B00D1BCE0844A1E21ACE703F0C1
:1040500059FD03F035FB7E4E7E4C3078884D820052
:104060001359182B00D1ACE07C4A1F219CE7022990
:1040700000D04BE703F048FE03F022FB744F754D70
:104080003878804E82005359182B55D0734A24211A
:104090006FE705290FD105F0E9F903F011FB6C4E2C
:1040A0006C4C3078784D82001359182B00D188E081
:1040B0006A4A292178E70C2900D0A2E005F0D6F958
:1040C00003F0FEFA624E634C3078704D8200135953
:1040D000182B76D0614A2A2166E7032900D015E71C
:1040E00004F0D8FD03F0ECFA594E5A4C3078684D84
:1040F00082001359182B64D0584A2F2154E7012904
:104100001CD104F071FB03F0DBFA514F514D3878AC
:10411000604E82005359182B0ED0504A342128E7A4
:104120002B685249022006F0F5FB3B780133DBB2E5
:104130003B709B005E51E9E65651E7E608290ED137
:1041400004F052FB03F0BCFA414E424C3078524D21
:1041500082001359182B34D0404A352124E7062910
:1041600061D104F041FB03F0ABFA394E394C3078A1
:104170004A4D82001359182B23D0384A362113E7B1
:1041800004F032FB03F09CFA314E324C3078444D4F
:1041900082001359182B14D0304A372104E7042920
:1041A00000D0B3E605F0D4FB03F08AFA284E294C80
:1041B00030783C4D82001359182B02D0274A3D21FC
:1041C000F2E61551A2E6062900D110E7082900D130
:1041D0001DE7092900D12AE70A2900D137E70B2971
:1041E00000D093E603F08EFC03F06AFA184E194CE7
:1041F00030782D4D82001359182BE2D0174A202118
:10420000D2E6092900D081E605F030F903F058FA2A
:104210000F4E104C3078254D82001359182BD0D0FA
:104220000E4A2B21C0E60529AAD0072900D06DE649
:1042300004F0DAFA03F044FA054E064C30781C4DCF
:1042400082001359182BBCD0044A3821ACE6C04672
:10425000482500200037002001000500FB0C03006A
:1042600001000200BE09030004000200100A03005E
:104270000700020006000200080002000900020018
:104280000A00020002000300050005000C00050002
:1042900003000600010004000800040006000400FA
:1042A00005000400040007000B00020009000500DF
:1042B00007000400BFF34F8F034A044BDA60BFF3DB
:1042C0004F8FC046FDE7C0460400FA0500ED00E050
:1042D00011DF704713DF704710B50320024906F065
:1042E00073FA002010BDC0466C16030010B5032001
:1042F000024906F069FA002010BDC046A122030061
:1043000010B50320024906F05FFA002010BDC04638
:104310005E22030010B50320034906F055FA01227E
:10432000024B00201A7010BD7E1A03001C250020CD
:1043300010B50449032006F047FAFE20FFF7D0F835
:10434000002010BD4F140300F7B503680400002BD4
:1043500008D016490A004B72190A9172190C1B0EEB
:10436000D1721373124E134D37782179BA00535915
:10437000182B19D07520104A01900091012F06D9F1
:104380000E49743806F0C6FA18232371F7BD2B685E
:104390000B49022006F0BEFA33780133DBB23370EA
:1043A00022799B005A51EFE75151EDE75820002048
:1043B00048250020003700205C100300BE090300E0
:1043C000100A0300F7B503680400002B08D0164953
:1043D0000A004B72190A9172190C1B0ED1721373D9
:1043E000124E134D37782179BA005359182B19D032
:1043F0007420104A01900091012F06D90E4973389C
:1044000006F088FA18232371F7BD2B680B490220A8
:1044100006F080FA33780133DBB2337022799B00E7
:104420005A51EFE75151EDE7582000204825002070
:10443000003700205C100300BE090300100A0300CF
:10444000F7B503680400002B08D016490A004B7228
:10445000190A9172190C1B0ED1721373124E134D5F
:1044600037782179BA005359182B19D07320104A84
:1044700001900091012F06D90E49723806F04AFAD0
:1044800018232371F7BD2B680B49022006F042FA6E
:1044900033780133DBB2337022799B005A51EFE756
:1044A0005151EDE75820002048250020003700201A
:1044B0005C100300BE090300100A0300F7B503688F
:1044C0000400002B08D016490A004B72190A917299
:1044D000190C1B0ED1721373124E134D37782179BC
:1044E000BA005359182B19D07820104A0190009126
:1044F000012F06D90E49773806F00CFA18232371DC
:10450000F7BD2B680B49022006F004FA337801331B
:10451000DBB2337022799B005A51EFE75151EDE73E
:104520005820002048250020003700205C100300A0
:10453000BE090300100A0300F7B503680400002B4E
:1045400008D016490A004B72190A9172190C1B0EF9
:10455000D1721373124E134D37782179BA00535923
:10456000182B19D07720104A01900091012F06D9FD
:104570000E49763806F0CEF918232371F7BD2B6863
:104580000B49022006F0C6F933780133DBB23370F1
:1045900022799B005A51EFE75151EDE75820002056
:1045A00048250020003700205C100300BE090300EE
:1045B000100A0300F7B503680400002B08D0164961
:1045C0000A004B72190A9172190C1B0ED1721373E7
:1045D000124E134D37782179BA005359182B19D040
:1045E0007620104A01900091012F06D90E497538A6
:1045F00006F090F918232371F7BD2B680B490220B0
:1046000006F088F933780133DBB2337022799B00EE
:104610005A51EFE75151EDE758200020482500207E
:10462000003700205C100300BE090300100A0300DD
:10463000F7B504001D49032006F0C6F81C4E1D4DB9
:10464000307882005359062B2CD01B491B4A01910C
:10465000012819D9042101200091194906F05AF9BD
:10466000A17A637A09021943E37A164A1B041943B3
:10467000237B15481B060B4313600C23134913714E
:1046800007F062F80020FEBD042700972B68104950
:10469000022006F03FF933780133DBB233709B0020
:1046A0005F51DDE704235351DAE7C046A31203004C
:1046B000CC2A0020E03A00205E0700005C100300D6
:1046C000BE0903008C2500209C250020CD0C000095
:1046D000100A030010B504000D49032006F074F819
:1046E0000120FEF7FDFEA17A637A09021943E37AFD
:1046F000084A1B041943237B07481B060B4313601E
:104700000B230649137107F01FF8002010BDC046A7
:104710001D1203004C2500205C250020CD0C00005C
:1047200010B5817A437A09021943C37A094A1B04F6
:104730001943037B08481B060B43802113600723A2
:104740000902137107F000F8044A002013680133CE
:10475000136010BD742600207C260020FC3600204B
:104760000D49032010B506F02FF80C49032006F080
:104770002BF806F05BF90028FBD10123D820084A6A
:104780005B42D367074A4002D367FFF7A3FDFFF7F9
:104790009FFDFFF78FFDC046B7250300FE250300F0
:1047A00004E100E008E100E010B50549032006F04F
:1047B0000BF804F06FFA0088FFF74EF9002010BDE7
:1047C000ED15030073B52849032005F0FDFF04F043
:1047D00061FA0400438802882449032006F036F871
:1047E0006388234A13802188224A603BFF3B118063
:1047F000302B26D82049032005F0E6FF23881F4AE6
:104800009A18712A1DD81E4A12889B1A0A2B18DD85
:104810001C49032005F0D8FF1B4806F0E1FF1B4EA2
:104820001B4C307882001359182B1AD019491A4A98
:104830000191012807D9132101200091174906F0A1
:1048400069F8002076BD13250095236814490220DD
:1048500006F060F833780133DBB233709B001D51F2
:10486000EFE713231351ECE76C1F0300B61F03009F
:10487000A6260020A4260020E51F03007BFCFFFFE6
:104880001E250020082003004C260020482500207B
:1048900000370020E20300005C100300BE090300A3
:1048A000100A0300F0B5564989B0032005F08CFFCB
:1048B00003F02AFA002405000726524B1B681B88C8
:1048C000A34246D803F0B2FF04AC022800D07DE03A
:1048D0002000FFF717F8FFF75DF80122C308DBB2ED
:1048E000039307231500FF2103409D408C460023BE
:1048F000013DEDB2591CC9006646814200DD2E0023
:104900004149CF5CE15C0133B94331404E424E41F5
:1049100003997642DBB232409942EBD2002A15D09D
:1049200003203A4905F050FF394E3A4C3078820066
:104930001359182B61D03849384A019101284ED9B2
:10494000052101200091364905F0E4FF002009B05F
:10495000F0BD6B79334A9C46330067466343985CED
:10496000D318A9795A7809021202394302439142B5
:1049700029D16A7EA97E94466746DA78987809023A
:1049800012023943024391421DD119792A7F5B7982
:10499000E87E12021B0202430B439A4213D123000A
:1049A00001203340984003001749E208885C034324
:1049B0008B541D4AA30011681C4A03209950220001
:1049C0001B4905F01DFF0134A4B276E703F02EFF6A
:1049D000012800D17CE72000FEF7ACFF7BE705252E
:1049E000009523681349022005F094FF33780133C2
:1049F000DBB233709B001D51A8E705231351A5E7D7
:104A0000EA1003009C2600203827002055110300DF
:104A10004825002000370020690600005C100300D4
:104A2000BE0903000C370020FC3600204827002078
:104A300028110300100A030010B50549032005F0F2
:104A4000C3FEFEF7BFFF03F0F7FE002010BDC04617
:104A50006D270300F0B5002585B03749032005F028
:104A6000B3FE364C3649236803205A8805F0C8FE49
:104A7000236834499A88032005F0C2FE236832492E
:104A8000DA88032005F0BCFE236830491A89032028
:104A900005F0B6FE23682E499A7A032005F0B0FE91
:104AA000FEF77EFF2A0021682A4E0B8803900293AE
:104AB000029893B2019383420BD3002D2BD0032095
:104AC000254905F081FEFA20FEF70AFD002005B019
:104AD000F0BD072353439C5DF318A44660465C7801
:104AE0008F8824020443A74212D1DC789878CF88BB
:104AF00024020443A7420BD11C795B790F891B0266
:104B000023439F4204D1019B0398984200D0012582
:104B10000132D2B2CCE707224B880E48534304310E
:104B2000C0180BF067FAFF20FEF7DAFC0B490320F0
:104B300005F04AFECAE7C046162803009C2600205E
:104B4000522803007C280300A7280300CD28030077
:104B5000F32803000C370020252903005E290300F9
:104B600010B51349032005F02FFEFEF719FF114B76
:104B70008000C058FEF76AFFFEF712FF072250437D
:104B80000D4BC15C1B185A78987812020A43000436
:104B90000243D8785979000610431A7909020A436A
:104BA000997909041143FEF763FF002010BDC04648
:104BB00083290300482700200C37002010B50A493C
:104BC000032005F001FEFEF7F1FE084C206003F023
:104BD0002DFE2030C0B2FEF783FC2268044903207A
:104BE00005F00EFE002010BDC2290300FC36002097
:104BF000012A0300F0B5E3499FB0032005F0E4FD6E
:104C000002F080FF0478012C56D1DF49032005F023
:104C1000DBFDE02200219200DC48FEF7F7F80021DE
:104C2000DB4D0C22286801800B30FEF7EFF82A6874
:104C30001300D07A127BD97B12020243587B1D7D70
:104C400000040243987B2D02000610431A7C1202D6
:104C50000A43597C09040A43997C09061143DA7C0A
:104C600015435A7D120415439A7D12062A43FEF716
:104C7000DFFEC84EC84D3078820053590E2B3BD012
:104C8000C649C74A0191012806D90B21012000918C
:104C9000C44905F03FFE0CE00B2400942B68C24988
:104CA000022005F037FE33780133DBB233709B000E
:104CB0005C5100201FB0F0BD022C20D10320BB4965
:104CC00005F082FDB34EB44D3078820053590E2B5F
:104CD00012D0B749B24A01910128D6D80B270097C4
:104CE0002B68B149200005F015FE33780133DBB2A3
:104CF00033709B005F51DCE70B235351D9E7032C42
:104D000015D1AC49200005F05FFD05F08FFE0028AD
:104D1000FBD10123D820A84A5B42D367A74A4002AF
:104D2000D367FFF7D7FAFFF7D3FAFFF7C3FA042CDC
:104D300000D049E1FEF734FE0700FEF72BFE3A00F3
:104D400002909F49032005F05BFD029BFCB2072502
:104D50009F4211D3FB20CEE028002B00661C73433A
:104D600060432A000818C9180BF044F9954BB200AB
:104D7000D258A400E250F4B2029B8449581E8442E7
:104D8000EADB002365438F4A4B55A4004D19A3501D
:104D90006B70AB70EB702B716B717D4B80B21B68CD
:104DA0001880FEF75FFE12A8FEF7C4FD129B16A83E
:104DB0000693139B0793149B0493159B1093FEF784
:104DC000A1FD169B1AA80A93179B0B93189B0C9393
:104DD000199B0D93FEF7C6FD1A9B08931B9B099325
:104DE0001C9B0E931D9B0F9301233F2F00D985E041
:104DF0001E00BE40013EF2179446FF18BB406546B8
:104E0000069F5C4227400799E3177A08069F1940DE
:104E1000C807374002433800079F11932F404B08C3
:104E2000390012184B4104990692C9070B43049AA2
:104E30000793109B5208DB071A430A9F109B2740D9
:104E40000B995B08029203937A08E3170A9F1940B3
:104E5000C8073740024338000B9F4B082F403900EA
:104E600012184B410C990A92C9070B430B930C9AE9
:104E70000D9B5208DB071A430D9B04925B080593B8
:104E8000089B119D1C406208089C099B344020002F
:104E900064461D40E9076B08099D0A432C40210028
:104EA00012184B410E990892C9070B4309930F9BA7
:104EB0000E9ADB0754081C430F9B5D08049E059F58
:104EC000189619970B99049A0A98199BFEF7E2FD18
:104ED000029E039F149615970799029A0698159BB0
:104EE000FEF7EAFD1C941D950898099922001D9B68
:104EF000FEF7F4FDFF20FEF7F3FADAE63F221E008C
:104F00003A40964001329340109C5B42DA171440BD
:104F100011920499049A013E19403240E50748086D
:104F200061081400109AF7173A40284315000C9AAC
:104F3000001969411A40944602900391119A0D9903
:104F40001140624654080C9AC807324004431000CE
:104F50000D9A4D083A40110024184D410E9A1199AE
:104F600013400F9A58080E9B114004940595334046
:104F7000CC0720431C000F9B49083B401D00241810
:104F80004D419BE7191303005F1303000C3700200A
:104F90009C260020902A0020D43A00207F050000A3
:104FA0005C100300BE090300100A03008A1303000B
:104FB00083050000FE25030004E100E008E100E0B5
:104FC000BC13030048270020052C00D071E6032005
:104FD000134905F0F9FB0120124E134B3578134CA1
:104FE000AA0018701359182B16D01149114A0191B3
:104FF000854203D9062100910F494AE6062500950E
:1050000023680E49022005F085FC33780133DBB2BA
:1050100033709B001D514CE60623135149E6C046F0
:10502000E513030048250020A826002000370020B3
:10503000E20500005C100300BE090300100A030033
:1050400073B54049032005F0BFFB02F05BFD3E4B0A
:105050003E4E186030783E4C82001359102B4BD0D6
:105060003C493D4A0191012838D902210120009193
:105070003A4905F04FFCD4235B0300938022A02320
:10508000B4209B0252028003022103F0F3FA344E53
:10509000344C3078820013590B2B3ED0A221C9002A
:1050A0002D4A019101282AD90021012000912B4984
:1050B00005F030FC2C4E2D4C3078820013590E2B0D
:1050C0003CD02B49244A0191012829D900210120F3
:1050D0000091224905F01EFC002076BD02250095B6
:1050E00023682449280005F015FC33780133DBB22E
:1050F0003370AB401D51BEE702231351BBE70025BF
:10510000009523681B49022005F004FC3378013325
:10511000DBB233709B001D51CCE700231351C9E76C
:105120000025009523681349022005F0F3FB33782E
:105130000133DBB233709B001D51CDE700231351C7
:10514000CAE7C046A41103009C260020492900207C
:10515000A43A0020090500005C100300BE0903000A
:105160004D290020BC3A0020902A0020D43A00208B
:1051700012050000100A030070B50B2486B06C44C1
:1051800007F072FE200004F06BFF04F0DFFF2378CD
:10519000002B03D05249032005F016FB514A002191
:1051A000514806F0B9FA514A0021514806F0B4FAC4
:1051B000504A0021504806F0AFFAE0220021920048
:1051C0004E48FDF723FE8022002192004C48FDF757
:1051D0001DFE802200214B48FDF718FE1820FEF727
:1051E00053FC192203AB1A8001325A800E329A8086
:1051F000A032DA80A53A1A8124325A810398059A9E
:105200000499FEF715FC404E404C3078820013594B
:10521000062B40D03E493F4A019101282DD900215B
:10522000012000913C4905F075FB3C4E3C4C307828
:1052300082001359062B3FD09721C900354A0191AE
:1052400001282BD9002101200091334905F062FB90
:10525000344E354C307882001359182B3DD03349E9
:105260002C4A019101282AD90321012000912A49C1
:1052700005F050FB002006B070BD002500952368A6
:105280002B49022005F046FB33780133DBB2337043
:105290009B001D51C9E700231351C6E70025009567
:1052A00023682349022005F035FB33780133DBB254
:1052B00033709B001D51CBE700231351C8E7032532
:1052C000009523681A49022005F024FB3378013346
:1052D000DBB233709B001D51CCE703231351C9E7A8
:1052E000B72703004144020050100300C5430200E9
:1052F0004C10030049430200581003000C370020F3
:1053000048270020B8260020582A0020C83A00204C
:10531000B70400005C100300BE090300CC2A002083
:10532000E03A00204825002000370020B9040000A2
:10533000100A030010B50320034905F045FA03F0F5
:10534000D1FC002010BDC046CA1A030010B50749A1
:10535000032005F039FA03F0C5FC012004F000FD3C
:10536000002004F059FD002010BDC046F6200300C7
:1053700010B504000F49032005F026FA012004F0BF
:10538000EFFC012004F048FDA17A637A0902194379
:10539000E37A094A1B041943237B08481B060B4385
:1053A000A02113600E238902137106F0CDF90020AD
:1053B00010BDC046B5200300442600204C26002026
:1053C00070B52849032005F0FFF9274E2749328898
:1053D000032005F015FA264D26492A88032005F0FA
:1053E0000FFA254C25492288032005F009FA03F01D
:1053F00079FC5E223388FF3293420BD80320204988
:1054000005F0E2F9022004F0ABFC022004F004FDF8
:10541000002070BDC8225200934205D903201949CB
:1054200005F0D2F90320EEE72B88174A934205D8FE
:105430000320164905F0C8F90420E4E7144A154989
:10544000934204D822889B1A0A2B05DC12490320B8
:1054500005F0BAF90520D6E71049032005F0B4F9A4
:10546000D6E7C0460E1B0300A6260020521B0300F1
:10547000A42600207F1B03001E250020AB1B030079
:10548000D61B0300151C030083030000531C0300FC
:10549000F7030000911C0300CE1C0300121D030043
:1054A00010B504000F49032005F08EF9012004F027
:1054B00057FC052004F0B0FCA17A637A0902194375
:1054C000E37A094A1B041943237B08481B060B4354
:1054D000A02113600E238902137106F035F9002014
:1054E00010BDC046742003003C2600204C2600203E
:1054F00073B54249032005F067F903F0CBFB0500C3
:10550000438802883E49032005F0A0F92A883D4BD4
:105510003D4E1A806B883D4C1A009B3AFF3A202A78
:1055200013D83B49032005F04FF92B88394A9A18C4
:10553000C92A2AD80320384905F046F93078820074
:10554000A358182B51D1132313E0CC2252009342BD
:1055500011D80320314905F037F9052004F000FC8B
:10556000002004F059FC31788A00A358182B21D16F
:105570001423A35029E0BC22FF329342F3D9032025
:10558000274905F021F90620E8E7264A934205D885
:105590000320254905F018F90720DFE7234A934245
:1055A000E1D92349032005F00FF9012004F0D8FBCD
:1055B0000220D6E71F48204A0190012907D914216B
:1055C000009101201D4905F0A5F9002076BD1425A4
:1055D000009523681A49022005F09CF933780133BD
:1055E000DBB233709B00E550EFE71649124A019198
:1055F000012801D91321E3E71325E9E7121E03006F
:10560000B61F03001E25002048250020003700207B
:10561000E51F0300DFFCFFFF082003005C1E030002
:10562000A41E03001F030000EB1E0300EB03000099
:105630002C1F0300AB0300005C100300BE09030035
:10564000100A0300AD03000073B52C49032005F0D8
:10565000BBF82B4806F0C4F82A49032005F0B4F83B
:10566000042004F07DFB002004F0D6FB264E274CDE
:10567000307882001359042B2CD0D7218900244A7A
:105680000191012818D901202249009005F042F922
:10569000214E224C307882001359182B2BD02049F0
:1056A0001B4A0191012818D916210120009119499E
:1056B00005F030F9002076BD0125009523681949D1
:1056C000022005F027F933785B19DBB233709B00B9
:1056D0001D51DDE701231351DAE7162500952368F4
:1056E0001049022005F016F933780133DBB233702C
:1056F0009B001D51DEE716231351DBE71F26030035
:105700004C260020682603004A290020B03A0020D9
:105710005C100300BE09030048250020003700206C
:105720005D030000100A030073B52649032005F04D
:105730004BF8FF2003F080F8234B244E1D78244CB7
:10574000002D19D00320234905F03EF8307882005F
:10575000A358182B0DD02049204A01910F250F2165
:10576000012820D9009101201D4905F0D3F800201F
:1057700076BD0F23A350FAE71A49032005F024F859
:10578000022004F0EDFA280004F046FB3078820095
:10579000A358182B14D01449104A0191012801D99B
:1057A0001621DFE71625009523681049022005F031
:1057B000B1F833780133DBB233709B00E550D6E7A4
:1057C0001623D7E7072503001C25002048250020C5
:1057D000003700204B250300EE0200005C100300A0
:1057E000BE0903007A250300F3020000100A03003B
:1057F000F7B549490600032004F0E6FF474C0423AF
:1058000022004749032005F0C3F86278237812028A
:105810001A43A378434D1B041A43E378424C1B06FA
:105820001343424A934250D14149032004F0CCFF34
:10583000B17A737A09021943F37A3E4A1B04194379
:10584000337B3D481B060B43F02113600E23C90236
:10585000137105F079FF394F394E3878820093592A
:10586000042B2CD03749384A0191012818D900213E
:1058700001200091354905F04DF828788200A358A1
:10588000182B1FD03249304A0191102610210128CF
:1058900033D9009101202D4905F03CF80020FEBDD0
:1058A0000023009333682B49022005F033F80022CF
:1058B0003B780133DBB23B709B009A51DDE700235C
:1058C0009351DAE71023A350E8E72349032004F0BB
:1058D0007BFF032004F044FA002004F09DFA2878AE
:1058E0008200A358182B15D0CE218900164A0191A9
:1058F000012801D91621CCE7162600962368154900
:10590000022005F007F82B780133DBB22B709B00E7
:10591000E650C3E71623D6E7D7230300302500203F
:105920001E24030048250020003700200013AABBD6
:105930002B240300342600204C2600204A29002076
:10594000B03A0020320300005C100300BE090300DF
:1059500033030000100A03004F24030073B53249DB
:10596000032004F031FF3149032004F02DFF012012
:1059700004F0F6F9FA211E20890004F0F7F904F08A
:10598000E5FB2B4803F030FF8020C00103F032FF1D
:10599000A020400203F034FF264E274C30788200CE
:1059A0001359062B2CD02549254A0191012819D9D4
:1059B000002101200091234904F0ACFF224E234C2A
:1059C0003078820013590B2B2BD021491C4A0191AE
:1059D000012818D90021012000911A4904F09AFFEA
:1059E000002076BD0025009523681A49022004F0A6
:1059F00091FF33780133DBB233709B001D51DDE73B
:105A000000231351DAE7002500952368114902208D
:105A100004F080FF33780133DBB233709B001D51FB
:105A2000DEE700231351DBE7032703004B270300C6
:105A3000CD0C0000CC2A0020E03A0020CA02000071
:105A40005C100300BE0903004D290020BC3A002071
:105A5000CD020000100A0300F7B526490400032018
:105A600004F0B2FE2449032004F0AEFE072004F047
:105A700077F90220012104F079F9204E204D307889
:105A800082005359042B32D01E491F4A019101282C
:105A90001FD90021012000911C4904F03BFF1C4A42
:105AA00000211C4805F038FEA17A637A09021943E7
:105AB000E37A194A1B041943237B18481B060B433E
:105AC000802113600E234902137105F03DFE002072
:105AD000FEBD002700972B681149022004F01AFF31
:105AE00033780133DBB233709B005F51D7E700237B
:105AF0005351D4E7A2260300E1260300582B0020CF
:105B0000EC3A0020AE0200005C100300BE09030066
:105B1000BD440200541003002C2600204C26002017
:105B2000100A030073B51C49032004F04DFE1B4C02
:105B30001B4BE0222360052392001A490320A36037
:105B4000A28004F05DFE200003F084FC164E174C8A
:105B50003078820013590E2B1AD01549154A01913D
:105B6000012807D9072101200091134904F0D2FE32
:105B7000002076BD0725009523681049022004F017
:105B8000C9FE33780133DBB233709B001D51EFE760
:105B900007231351ECE7C0463815030024250020E5
:105BA0000C3700207A150300902A0020D43A0020F8
:105BB000C70700005C100300BE090300100A0300C1
:105BC00070B5294986B0032004F0FEFD5A235B22FC
:105BD000264C52422370E370254B62701B68A27002
:105BE0001B88244D23711B0A637180235B42A371C0
:105BF0008333E37102A82C60FDF77AFE20000C22AB
:105C000002A908300AF0F6F91B482B68036000234C
:105C100083601433838003F01DFC184E184C3078D9
:105C2000820013590E2B1BD01649174A01910128E7
:105C300008D9072101200091144904F06BFE0020CF
:105C400006B070BD0725009523681149022004F0B5
:105C500061FE33780133DBB233709B001D51EEE7F8
:105C600007231351EBE7C0468F14030030250020B3
:105C70009C260020A026002024250020902A002019
:105C8000D43A0020B90700005C100300BE090300ED
:105C9000100A030073B50320134904F095FD134E59
:105CA000134C307882001359102B1AD01149124A24
:105CB0000191012807D90221012000910F4904F028
:105CC00029FE002076BD0225009523680C49280096
:105CD00004F020FE33780133DBB23370AB401D514A
:105CE000EFE702231351ECE7DF11030049290020FD
:105CF000A43A00204C0500005C100300BE0903001C
:105D0000100A030073B51949032004F05DFD18481B
:105D1000184B0360002383601433838003F09AFBE5
:105D2000154E164C3078820013590E2B1AD0144998
:105D3000144A0191012807D9032101200091124939
:105D400004F0E8FD002076BD0325009523680F4987
:105D5000022004F0DFFD33780133DBB233709B00A7
:105D60001D51EFE703231351ECE7C0461214030063
:105D70002425002030250020902A0020D43A00203D
:105D8000220500005C100300BE090300100A030096
:105D900073B50320144904F017FD144E144C3078E9
:105DA00082001359182B1BD09221C900114A01916E
:105DB000012807D90221012000910F4904F0AAFD12
:105DC000002076BD0225009523680C49280004F0C8
:105DD000A1FD33780133DBB23370AB401D51EFE7E7
:105DE00002231351ECE7C0465C1203004825002053
:105DF000003700205C100300BE090300100A0300F6
:105E000073B51B49032004F0DFFC1A49032004F09A
:105E1000DBFC1948194B0360002383600433838043
:105E200003F018FB164E174C3078820013590E2BD6
:105E30001AD01549154A0191012807D903210120DB
:105E40000091134904F066FD002076BD03250095FE
:105E500023681049022004F05DFD33780133DBB282
:105E600033709B001D51EFE703231351ECE7C0464D
:105E70008C240300D4240300242500203025002096
:105E8000902A0020D43A00201D0300005C1003007B
:105E9000BE090300100A030073B51B49032004F078
:105EA00093FC1A49032004F08FFC1948194B036036
:105EB000002383600433838003F0CCFA164E174C22
:105EC0003078820013590E2B1BD0C4218900144A4C
:105ED0000191012807D9072101200091114904F0FF
:105EE00019FD002076BD0725009523680E49022084
:105EF00004F010FD33780133DBB233709B001D5189
:105F0000EFE707231351ECE75E230300A62303000A
:105F10002425002054200020902A0020D43A00207C
:105F20005C100300BE090300100A030073B5164994
:105F3000032004F049FC0320144904F045FC144EEE
:105F4000144C3078820013590E2B1AD01249134A80
:105F50000191012807D90B2101200091104904F07B
:105F6000D9FC002076BD0B25009523680D49022041
:105F700004F0D0FC33780133DBB233709B001D5149
:105F8000EFE70B231351ECE7E62203002D23030078
:105F9000902A0020D43A0020030300005C10030084
:105FA000BE090300100A030073B50320134904F06F
:105FB0000BFC134E134C3078820013590E2B1AD061
:105FC0001149124A0191012807D9002101200091AD
:105FD0000F4904F09FFC002076BD00250095236842
:105FE0000C49022004F096FC33780133DBB23370A5
:105FF0009B001D51EFE700231351ECE7341A030017
:10600000902A0020D43A0020FB0200005C1003001C
:10601000BE090300100A030073B5234A1368013355
:106020001360022B25DD214E214C3078820013595C
:10603000182B1BD0A62189001E4A0191012807D9DF
:106040000D21012000911C4904F064FC002076BD64
:106050000D25009523681949022004F05BFC337874
:106060000133DBB233709B001D51EFE70D23135159
:10607000ECE7A223A022DB00D205D3581B06E5D40F
:10608000817A437A09021943C37A0D4A1B041943E2
:10609000037B0C481B060B4380211360012309027C
:1060A000137105F051FBD1E7B426002048250020EC
:1060B000003700205C100300BE090300100A030033
:1060C000842500209C25002010B50B49032004F0F6
:1060D0007BFB04F0ABFC0028FBD10123D820074A4E
:1060E0005B42D367064A4002D367FEF7F3F8FEF738
:1060F000EFF8FEF7DFF8C046FE25030004E100E0FC
:1061000008E100E010B5174CA0222368D205013346
:106110002360A223DB00D3581B061DD4817A437A67
:1061200009021943C37A104A1B041943037B0F4821
:106130001B060B4313600C230D49137105F004FB80
:1061400023681D2B0CDD01220A4B1A700A4B1B78A9
:10615000002B05D0FFF7B8FF0023064A2360137019
:10616000002010BDB0260020942500209C25002092
:10617000CD0C0000212500202025002010B5174C53
:10618000A0222368D20501332360A223DB00D35869
:106190005B061DD4817A437A09021943C37A104AF7
:1061A0001B041943037B0F481B060B4313600B238F
:1061B0000D49137105F0C8FA23681D2B0CDD01226F
:1061C0000A4B1A700A4B1B78002B05D0FFF77CFF97
:1061D0000023064A23601370002010BDAC26002067
:1061E000542500205C250020CD0C00002025002037
:1061F0002125002073B51F49032004F0E5FA02F0C1
:1062000015FB1D490200032004F0FAFA02F00EFB10
:106210002030C0B2FDF764F902F008FB011E03D183
:1062200080221648FCF7F2FD154E164C307882009D
:106230001359182B1AD01449144A0191012807D96F
:10624000062101200091124904F064FB002076BD74
:106250000625009523680F49022004F05BFB337884
:106260000133DBB233709B001D51EFE7062313515E
:10627000ECE7C0467A100300BB100300B8260020EC
:1062800048250020003700204A0700005C1003006A
:10629000BE090300100A030073B52149032004F06E
:1062A00093FA02F0F7FC0400438802881D4903209A
:1062B00004F0CCFA63881C4A138021881B4A9B3B5C
:1062C000FF3B1180202B18D81949032004F07CFAD9
:1062D000184805F085FA184E184C3078820013598A
:1062E000182B1AD01649174A0191012807D91321F2
:1062F00001200091144904F00DFB002076BD132508
:10630000009523681149022004F004FB337801331F
:10631000DBB233709B001D51EFE713231351ECE701
:106320002A200300B61F0300A6260020A426002072
:10633000E51F03004C2600204825002000370020E0
:106340002D0400005C100300BE090300100A0300C6
:1063500073B53D49032004F037FA01F0D5FC040081
:106360008279437912021A433849032004F048FA2B
:10637000A27E637E12021A433549032004F040FADC
:10638000227FE37E12021A433249032004F038FAD6
:10639000A37E627E1B021343227FE17E12020A4328
:1063A0001B049B182C4A93422AD12C49032004F049
:1063B0000BFA2B4805F014FA2A4E2B4C3078820049
:1063C0001359042B2CD02949294A0191012819D9A4
:1063D00001202849009004F09DFA274E274C307880
:1063E00082001359182B2CD0D4218900204A019106
:1063F000012818D91221012000911E4904F08AFABF
:10640000002076BD0125009523681D49022004F077
:1064100081FA33785B19DBB233709B001D51DCE7E6
:1064200001231351D9E7122500952368144902204E
:1064300004F070FA33780133DBB233709B001D51E6
:10644000DEE712231351DBE77A210300C2210300A8
:10645000EC210300112203000013AABB3622030023
:106460004C2600204A290020B03A00204F030000AB
:106470005C100300BE0903004825002000370020FF
:10648000100A030073B54849032004F09DF9474BF7
:10649000474D59781A78090211439A782B601204F3
:1064A0001143DA7812060A4342498A425ED1E02259
:1064B000DC799979240292000C43944256D15A799E
:1064C000197912020A4303203B4904F099F92A681A
:1064D000537911791B020B43384909680B805079B5
:1064E000137900021843FDF7BDFA2B685A7A187A1F
:1064F00012020243987A197B00040243D87A5D7C29
:10650000000610435A7B2D0212020A43997B0904AC
:106510000A43D97B090611431A7C15439A7C12045D
:106520001543DA7C12062A43FDF782FA2448254BEC
:10653000848003600523836002F08CFF224E234C8D
:106540003078820013590E2B0DD02149214A019138
:1065500003250321012818D9009101201E4904F0C8
:10656000D9F9002076BD03231351FAE71B4E1C4CCA
:10657000307882001359182B14D01A49154A01910A
:10658000012801D90421E7E704250095236816496D
:10659000022004F0BFF933780133DBB233709B0083
:1065A0001D51DEE70423DFE7CA1403003025002075
:1065B000A02600205AA5A55A0B1503009C260020F2
:1065C000242500200C370020902A0020D43A0020F7
:1065D000340500005C100300BE09030048250020BC
:1065E0000037002036050000100A030073B51D496E
:1065F000032004F0E9F81C49032004F0E5F8182012
:1066000002F01AF9F0238022A0209B0300931202CB
:10661000164B8002012102F02DF8154E154C3078F2
:1066200082001359062B1AD0B7218900124A019112
:10663000012806D901201149009004F06BF90020CF
:1066400076BD0125009523680D49022004F062F90A
:1066500033785B19DBB233709B001D51EFE70123E8
:106660001351ECE7C51903000C1A0300CD8C000090
:10667000CC2A0020E03A00205C100300BE09030091
:10668000100A030010B51949032004F09DF8184CB6
:1066900018492288032004F0B3F8174B17491A88C9
:1066A000032004F0ADF8164B16491A88032004F0B5
:1066B000A7F802F017FBCC2322885B009A420BD884
:1066C0001149032004F080F8072003F049FB022061
:1066D00003F0A2FB002010BD0C49032004F074F865
:1066E000012003F03DFB0420F2E7C0463D1D0300FE
:1066F000A6260020521B0300A42600207F1B0300B7
:106700001E250020AB1B0300811D0300CA1D0300D2
:1067100073B51749032004F057F88020000202F0F7
:10672000DBFA144E144C307882001359062B1BD020
:10673000DF218900114A0191012807D90021012098
:1067400000910F4904F0E6F8002076BD0025009581
:1067500023680C49022004F0DDF833780133DBB202
:1067600033709B001D51EFE700231351ECE7C04647
:1067700037210300582A0020C83A00205C1003008B
:10678000BE090300100A030070B500251B4B1C490D
:10679000040003201D6004F017F81A49032004F0D8
:1067A00013F803F049FC03F07BFCFDF77BFA164A73
:1067B0002900164804F0B0FF154A2900154804F0D6
:1067C000ABFFA223A022DB00D205D3581B0612D4B4
:1067D000A17A637A09021943E37A0F4A1B04194329
:1067E000237B0E481B060B43802113600123090203
:1067F000137104F0A9FF002070BDC046FC360020D4
:10680000FC080300D1270300B54502004410030033
:1068100039450200481003007C2500209C250020FB
:10682000F0B58BB008920122099314AB1F88079131
:10683000FB08DBB20293072311003B4099400B0099
:10684000013BDBB2039300231D001C0006AE069043
:10685000019604922821FF2006AA52180199D25CC1
:10686000C95C84469143159AD1545A1CD200BA424D
:1068700001DD039A94466246114014D008208446F4
:10688000DA00D2B29444604602AEF073F07B8446E4
:106890000498014202D014000135EDB20132D2B2A7
:1068A00049086245F4D10133029ADBB29A42D1D24F
:1068B0000020854202D024026519A8B20BB0F0BDB9
:1068C000F0B585B00292039307220EAB1C8801231A
:1068D0002240934000220191013BE1080090C9B29F
:1068E000DBB20AAEFF27551CE800BC46A04200DD23
:1068F0009C466F46B05CBA5C824310006246104012
:1069000004D1EAB29142EDD205B0F0BD0120FBE71F
:10691000F0B587B00492032205930CAB1C880127C5
:1069200000239446E408114D02900391E4B2DE0086
:10693000F6B2A34217D8002002AAD25C01920199B4
:1069400032180141D2B2394004D0A95C0131C9B238
:10695000022906D80130A9540828F0D10133DBB24E
:10696000E5E76146F6E707B0F0BDC046B82600206F
:10697000F0B50023072501268B4200D3F0BD074A5E
:10698000D25C022A07D91A0034002A409440DF085A
:10699000C25DA243C2550133DBB2EDE7B826002049
:1069A000F0B587B005930CAB1D880391ED08EBB2F1
:1069B00000930023049219001A0002900098DE0050
:1069C000F6B2834213D8002402A8C05C019001985B
:1069D000012520413719FFB2284202D03A00491957
:1069E000C9B20134082CF2D10133DBB2E6E7002052
:1069F000814202D01202511888B207B0F0BD0000E7
:106A0000F0B5B049A3B0032003F0DEFEAE4804F0B9
:106A1000E7FEAE4EAE4C307882001359042B00D105
:106A2000C8E0AC49AC4A0191012800D8B4E001208B
:106A3000AA49009003F06EFF01F0F8FE06AD0228AF
:106A400000D0BAE00AA8FCF75DFF002412AE3000C7
:106A500016AFFCF757FF3800A65DFCF7B9FFE35D02
:106A600033402B550134102CF0D1FCF793FF060076
:106A70000EAC102200212000FCF7C8F9984F10221C
:106A80003900684604350594049609F0B3FA0ECD32
:106A90000698FFF7C5FE10223900050068460496E7
:106AA00009F0A8FA0A980B990C9A0D9BFFF708FFBA
:106AB000002800D09AE001F0B9FE011E00D0BCE031
:106AC00080228848FCF7A2F9ECB260426041C0B273
:106AD00000F05EFF002C45D08349032003F074FED4
:106AE000119B0E980F99109AFCF7D6FEFCF764FFE5
:106AF000C30737D57D49012C00D0B2E007232D0A0A
:106B0000ADB25D437A4B5D19AA79092A00D9A7E095
:106B10000C267849032003F073FEAB79764C73435F
:106B2000185902F061FEAB797343E318586802F01C
:106B300061FEAB795E43A419A06802F061FE6F4E5E
:106B40006F4C307882001359062B00D1A5E06D49B7
:106B5000614A0191012800D891E001205F4900902D
:106B600003F0D8FE5E4800F0C1FF674E674C3078F6
:106B700082001359102B00D1A0E06549564A0191BB
:106B8000012800D88CE00C2101200091534903F02A
:106B9000C1FE002023B0F0BD0125009523685D49AA
:106BA000022003F0B7FE33785B19DBB233709B0031
:106BB0001D5141E7012313513EE701F037FE012843
:106BC00000D13FE70AA8FCF7B5FE00241AAE30005A
:106BD0001EAFFCF7AFFE3800A65DFCF711FFE35DCA
:106BE00033402B550134102CF0D13EE74A4B4B4F2C
:106BF00018788200D3590B2B1CD04949364A019191
:106C0000012806D9082101200091344903F082FEB1
:106C100051E7082300933B683E49022003F07AFEC7
:106C20003D4B3D4A1B780133DBB2137008229B00B9
:106C3000DA5140E70823D3513DE700966168A26826
:106C4000E3680E98FFF764FE20003100FFF790FE26
:106C5000043400960E980ECCFFF7A2FE050033E731
:106C60003049032003F0B0FD8020000202F0BCFD9B
:106C70008020400202F0BEFDC02080025DE70125B9
:106C8000009523682349022003F044FE33785B1902
:106C9000DBB233709B001D5164E70123135161E7A0
:106CA0000C25009523681B49022003F033FE33783E
:106CB0000133DBB233709B001D516AE70C23135183
:106CC00067E7C046E51703000C2600204A2900208C
:106CD000B03A0020740600005C100300BE090300F7
:106CE00038270020B82600202A180300781803004F
:106CF0000C370020D9180300302A0300CC2A0020CA
:106D0000E03A0020BB06000049290020A43A0020F8
:106D1000C2060000100A03004D290020BC3A0020E2
:106D20008E060000111903001FB501F07FFD022837
:106D300046D16846FCF7E6FD6B4600201B7883428F
:106D40003CD16B465B78834238D16B469B7883425B
:106D500034D16B46DB78834230D16B461B7983425A
:106D60002CD16B465B79834228D16B469B79834259
:106D700024D16B46DB79834220D16B461B7A834258
:106D80001CD16B465B7A834218D16B469B7A834257
:106D900014D16B46DB7A834210D16B461B7B834256
:106DA0000CD16B465B7B834208D16B469B7B834255
:106DB00004D16B46D87B43425841C0B205B000BDF8
:106DC00001F034FD0128B4D06846FCF7B3FDB3E709
:106DD000F0B5724989B00500032003F0F5FCFFF718
:106DE000A3FF041E00D19DE003206D4903F0ECFCDD
:106DF0006C4E6D4C307882001359182B00D18EE008
:106E00006A496B4A0191012806D905210091694917
:106E1000012003F07FFD0CE00527009723686649F9
:106E2000022003F077FD33780133DBB233709B002F
:106E30001F5105AC2000FCF75BFD63896788E6887D
:106E4000039301F0F3FC012800D08DE0002F00D067
:106E500084E03C27192400F0A1FD584B1A78002A41
:106E600003D00022152714241A70554804F0B8FCEA
:106E7000544804F0B5FCAA7A6B7A12021A43EB7AF2
:106E8000514E1B041A432B7B1B061343336005230F
:106E90003371FA239B005C43E217630CD10319435F
:106EA000FA23E003FA2200245B00C018614192003B
:106EB000002307F063FF32000100414804F044FC66
:106EC000AA7A6B7A12021A43EB7A404C1B041A43DB
:106ED0002B7B1B061343236006232371FA239B009D
:106EE0007B43DD175A0CE9031143FA22D803002330
:106EF000520080185941FA220023920007F03EFF09
:106F0000220001002F4804F01FFC00231900304A22
:106F100099540133102BFBD1002009B0F0BD05239B
:106F2000135186E72B4F2C4E387882009359042B4F
:106F300012D02A491E4A01910094012800D966E71F
:106F400033681D49022003F0E5FC3B780133DBB2D6
:106F50003B709B009C516CE794516AE720490320E9
:106F600003F032FC248876E701F060FC02280AD1A5
:106F7000039B002B00D16CE71A49013003F024FC7D
:106F80002489039F67E7002E00D162E7164903209A
:106F900003F01AFC3700A4885DE7C046AE16030074
:106FA000F51603004825002000370020D106000018
:106FB0005C100300BE090300100A0300A82600208D
:106FC0000C260020D425002004260020CC250020FB
:106FD000382700204A290020B03A0020D3060000BC
:106FE000341703006C170300AD170300F0B55C49BC
:106FF00089B00400032003F0E7FBFFF795FE051EB0
:1070000000D16DE05749032003F0DEFB564805AD83
:1070100004F0E6FB554804F0E3FB2800FCF768FCAD
:107020006B896F88EE88039301F000FC012800D083
:107030007CE0002F00D073E03C271923A17A627A0C
:1070400009021143E27AFA2512041143227B484EC9
:1070500012060A4332600522AD006B433271DA1723
:10706000D1035A0C1143FA22D8030023520080188E
:107070005941FA220023920007F080FE32000100FD
:10708000394804F061FBA27A637A12021A43E37A68
:10709000384E1B041A43237B7D431B061343336086
:1070A0000623EA173371D1036B0C1943FA2300242A
:1070B000FA225B00E803C01861419200002307F048
:1070C0005DFE32000100294804F03EFB0023190058
:1070D000294A99540133102BFBD1002009B0F0BD8F
:1070E000264F274E387882009359042B16D0254915
:1070F000254A01910095012804D92449012003F073
:1071000009FC83E733682249022003F003FC3B7843
:107110000133DBB23B709B009D5177E7955175E7DA
:107120001C49032003F050FB2B8887E701F07EFB0E
:1071300002280AD1039B002B00D17DE716490130BC
:1071400003F042FB2B89039F78E7002E00D173E701
:107150001249032003F038FB3700AB886EE7C046C6
:1071600075190300F51603000C260020D425002015
:10717000FC250020C4250020382700204A290020B3
:10718000B03A0020090600005C100300BE090300AD
:10719000100A0300341703006C170300AD17030037
:1071A000F0B5724989B00400032003F00DFBFFF72E
:1071B000BBFD051E00D18CE06D49032003F004FBEC
:1071C00005AD2800FCF794FB6B896F88EE8803936C
:1071D00001F02CFB012800D0A1E0002F00D098E0A6
:1071E0003C271923A17A627A09021143E27AFA252F
:1071F00012041143227B5F4E12060A4332600522BD
:10720000AD006B433271DA17D1035A0C1143FA22E5
:10721000D8030023520080185941FA22002392001B
:1072200007F0ACFD32000100534804F08DFAA27A59
:10723000637A12021A43E37A504E1B041A43237BEB
:107240007D431B06134333600623EA173371D103D2
:107250006B0CFA22194300235200E80380185941AD
:10726000FA220023920007F089FD32000100444811
:1072700004F06AFAA17A637A09021943E37A414A6F
:107280001B041943237B40481B060B4380211360DA
:1072900007230902137104F057FA00231C003B4A2C
:1072A0009C540133102BFBD1394E3A4D307882007B
:1072B0005359102B58D0A021C900374A019100948E
:1072C000012845D93549012003F024FB002009B0ED
:1072D000F0BD334F334E387882009359042B16D0CB
:1072E00031492D4A01910095012804D92B490120EB
:1072F00003F010FB64E733682C49022003F00AFB1B
:107300003B780133DBB23B709B009D5158E79551B0
:1073100056E72749032003F057FA2B8862E701F06C
:1073200085FA02280AD1039B002B00D158E7214996
:10733000013003F049FA2B89039F53E7002E00D157
:107340004EE71D49032003F03FFA3700AB8849E7B9
:107350002B681649022003F0DDFA33780133DBB2E3
:1073600033709B005C51B1E75451AFE7E212030068
:10737000F5160300F42500200C260020BC25002073
:10738000D42500206C2600207C26002038270020F1
:1073900049290020A43A00205C100300BE09030024
:1073A0004A290020B03A0020C4040000100A03005B
:1073B000341703006C170300AD170300F0B5494FF5
:1073C00087B03900032003F0FFF94749032003F099
:1073D000FBF93900032003F0F7F9FCF7DDFB434923
:1073E0000200032003F00CFA9622414952000320C8
:1073F00003F006FADC223F499200032003F000FA72
:10740000A0223D49032003F0FBF93C4B03AD1B6870
:107410003B491A88032003F0F3F92800FCF768FAC7
:10742000EB886C8800936B890193002C56D02E88D2
:1074300032003449032003F0E3F9220032490320EB
:1074400003F0DEF9019B002B01D01C002E893200D5
:107450002E49032003F0D4F922002D49032003F024
:10746000CFF9009B002B01D01C00AE8832002949C7
:10747000032003F0C5F922002749032003F0C0F9D7
:1074800005222649032003F0BBF9052224490320E5
:1074900003F0B6F9234A2449032003F0B1F9234A43
:1074A0002349032003F0ACF9F8222249920003207B
:1074B00003F0A6F9204A2149032003F0A1F9204A4C
:1074C0002049032003F09CF93900032003F07CF9E4
:1074D0003900032003F078F907B0F0BD3C241926E9
:1074E000A6E7C046A82A0300F02A0300392B0300B0
:1074F000552B0300912B0300C62B03009C26002074
:10750000F92B0300182C0300452C0300742C0300F6
:10751000AA2C0300E22C03000F2D03003E2D0300D4
:10752000842D0300C9260000CC2D0300BAE800001A
:10753000FC2D0300272E0300C1070000552E030079
:1075400045170000802E030010B50320034903F007
:107550003BF9FFF733FF002010BDC0462D16030096
:1075600010B50320034903F02FF9FFF727FF002090
:1075700010BDC046AB150300F0B54B4C010AA1701D
:10758000010CA279E170010E2171617912020A43A6
:10759000E17985B009040A43217A03000906114301
:1075A000424A25788A1803920A0060700398904234
:1075B00007D100953E4A3F49022003F075F90125A5
:1075C0005FE05078561A8446674690780002384348
:1075D000D7783F040743107900063843834246D1E9
:1075E0001078A84241D18020A17A627A0902114321
:1075F000E27A400212041143227B12060A43190068
:10760000FCF774FCA279637912021A43E3791B0434
:107610001A43237A1B0613439B199A795D79120248
:107620002A43DD792D042A431D7A2D06154320D1E6
:10763000A278637812021A43E3781F491B041A43A5
:10764000237903201B061343194A03F0FFF8A2799C
:10765000637912021A43E3791B041A43237A1B0647
:1076600013439B195B7A23700BE01628BBD00A32B8
:107670009CE72000A847051E06D01049012003F012
:10768000A3F8280005B0F0BDA279637912021A436D
:10769000E3791B041A43237A1B0613439B195B7A75
:1076A000162BE0D1EDE7C046582000208A020000EA
:1076B0001B0D0300740D03002A0D03005B0D030076
:1076C000044A13005072020A9A72020C000EDA7217
:1076D0001873704758200020074B08491A78002378
:1076E00098004058182805D10133DBB29A42F7D2EE
:1076F000002070470120FCE74825002000370020CB
:1077000010B50320024903F05FF8002010BDC04609
:107710002630030010B50320024903F055F800207D
:1077200010BDC0466830030010B50320024903F0C5
:107730004BF8002010BDC046BF31030010B5032038
:10774000024903F041F8002010BDC0468C2F030011
:1077500010B50320024903F037F8002010BDC046E1
:10776000C42F030010B50320024903F02DF80020B8
:1077700010BDC046632F030010B50849032003F075
:1077800023F80749074B0A004B72190A9172190C2A
:107790001B0E0020D172137310BDC0463A2F030098
:1077A000652000208C3A002010B50B49032003F01F
:1077B0000BF80A4A0A48937A517A1B020B43D17A92
:1077C000043009040B43117B07220906194308F012
:1077D00011FC002010BDC04634310300652000209C
:1077E0008C3A002010B50A49032002F0EDFF094948
:1077F00000208A7A4B7A12021A43CB7A1B041A436E
:107800000B7B1B0613431A88034B5A8010BDC046DE
:1078100062310300652000208C3A002010B50A492F
:10782000032002F0D1FF094900208A7A4B7A120224
:107830001A43CB7A1B041A430B7B1B0613431A888B
:10784000034B1A8010BDC046F02F030065200020B6
:107850008C3A002010B50320034902F0B5FF02F076
:10786000B5FB002010BDC046A430030073B51C4911
:10787000032002F0A9FFFCF7D3F9FCF79FF9FCF70E
:107880008FF902F0ACFB02F0B3FB0320154902F0C4
:107890009BFF02F0ACFB144E144C3078820013595D
:1078A000102B19D0D021124A0191012806D90120AC
:1078B0001049009003F02EF8002076BD01250095B8
:1078C00023680D49022003F025F833785B19DBB2F9
:1078D00033709B001D51EFE701231351ECE7C046C5
:1078E000D73003000331030049290020A43A0020C7
:1078F0001F310300BE090300100A030030B52149FF
:1079000085B0032002F060FF1F4D1022AB7A6C7A25
:107910001B022343EC7A6846240423432C7B240671
:107920001C43210008F066FB2B78042B1BD1E47B61
:107930007B331C4000F07AFF022817D180231C43C0
:107940006B46DC73039B00980199029AFBF79CFD40
:107950000E4B1B78002B06D100F068FF02280AD1DD
:107960000420FBF7BDFD002005B030BD00F05EFF38
:107970000128E5D1E2E700F059FF0128F0D003200B
:10798000EFE7C0469331030065200020482900201E
:10799000014B18707047C04648290020014B1878E9
:1079A0007047C04648290020F0B54B4C010AA17031
:1079B000010CA279E170010E2171617912020A4372
:1079C000E179030009040A43217A85B009061143CD
:1079D0000F000A008C372578607003970398904257
:1079E00007D100953D4A3E49022002F05DFF012586
:1079F0005FE05078561A8446674690780002384314
:107A0000D7783F040743107900063843834246D1B4
:107A10001078A84241D18020A17A627A09021143EC
:107A2000E27A800212041143227B12060A431900F3
:107A3000FCF75CFAA279637912021A43E3791B041A
:107A40001A43237A1B0613439B199A795D79120214
:107A50002A43DD792D042A431D7A2D06154320D1B2
:107A6000A278637812021A43E3781E491B041A4372
:107A7000237903201B061343184A02F0E7FEA2797C
:107A8000637912021A43E3791B041A43237A1B0613
:107A900013439B195B7A23700BE00728BBD00A3293
:107AA0009CE72000A847051E06D00F49012002F0E0
:107AB0008BFE280005B0F0BDA279637912021A434B
:107AC000E3791B041A43237A1B0613439B195B7A41
:107AD000072BE0D1EDE7C04665200020A72E03006C
:107AE000740D03002A0D03005B0D0300044A13000C
:107AF0005072020A9A72020C000EDA721873704702
:107B000065200020054A937A507A1B020343D07AFD
:107B100000040343107B00061843704765200020D3
:107B2000074B08491A78002398004058102805D1BF
:107B30000133DBB29A42F7D2002070470120FCE704
:107B400049290020A43A002010B50320024902F080
:107B50003BFE002010BDC0462632030010B505498B
:107B6000032002F031FE0320034902F02DFE002025
:107B700010BDC046DE3203002033030010B50320E1
:107B8000034902F021FE02F01FFB002010BDC04699
:107B9000A032030010B50320034902F015FE02F0E5
:107BA00003FB002010BDC04661320300F0B54B4C12
:107BB000010AA170010CA279E170010E21716179B5
:107BC00012020A43E179030009040A43217A85B0CD
:107BD000090611430F000A002837257860700397C3
:107BE0000398904207D100953D4A3E49022002F099
:107BF0005BFE01255FE05078561A84466746907810
:107C000000023843D7783F04074310790006384311
:107C1000834246D11078A84241D1C020A17A627A2D
:107C200009021143E27A800212041143227B1206F8
:107C30000A431900FCF75AF9A279637912021A4330
:107C4000E3791B041A43237A1B0613439B199A7981
:107C50005D7912022A43DD792D042A431D7A2D060F
:107C6000154320D1A278637812021A43E3781E49A3
:107C70001B041A43237903201B061343184A02F0FE
:107C8000E5FDA279637912021A43E3791B041A43D2
:107C9000237A1B0613439B195B7A23700BE004289D
:107CA000BBD00A329CE72000A847051E06D00F492A
:107CB000012002F089FD280005B0F0BDA2796379AA
:107CC00012021A43E3791B041A43237A1B06134357
:107CD0009B195B7A042BE0D1EDE7C04672200020AF
:107CE000F0310300740D03002A0D03005B0D030047
:107CF000044A13005072020A9A72020C000EDA72E1
:107D00001873704772200020054A937A507A1B023C
:107D10000343D07A00040343107B000618437047E6
:107D200072200020074B08491A7800239800405819
:107D3000042805D10133DBB29A42F7D20020704704
:107D40000120FCE74A290020B03A0020002801D198
:107D5000014B18707047C046522A002010B50649E2
:107D6000032002F031FD0122044B032004491A7064
:107D700002F02AFD002010BD383503004C290020F8
:107D80007A35030010B50649032002F01DFD0222DA
:107D9000044B032004491A7002F016FD002010BDA8
:107DA000B53403004C290020FD34030010B505490B
:107DB000032002F009FD0320034902F005FD002025
:107DC00010BDC04676360300C436030010B5054921
:107DD000032002F0F9FC0320034902F0F5FC002027
:107DE00010BDC04678340300C436030010B500242B
:107DF0000749032002F0E8FC064803F0F1FC064BBB
:107E0000064903201C7002F0DFFC200010BDC046B4
:107E10002A380300602900204C290020C4360300C2
:107E200070B505000F49032002F0CEFC0E4C200077
:107E300003F0D6FCA97A6B7A09021943EB7A0B4A54
:107E40001B0419432B7B20001B060B4313600723E5
:107E50001371074B196803F077FC0122054B0020D2
:107E60001A7070BDAC35030060290020582900202D
:107E7000842000204C2900200122064B10B5064921
:107E800006481A7003F08CFD002801D003F036F983
:107E900010BDC046522A002070380300A0200020E8
:107EA00070B504002249032002F08EFC214803F043
:107EB00097FC214D280003F093FCA17A637A090214
:107EC0001943E37A1D4A1B041943237B28001B0630
:107ED0000B43136006231371194B196803F034FC2C
:107EE000184D280003F07CFCA17A637A090219433B
:107EF000E37A154A1B041943237B28001B060B4316
:107F0000136007231371114B196803F01DFC012244
:107F10000F4B1A70FBF750FD830702D50520FBF7C6
:107F2000DFFA0C49032002F04FFC002070BDC04670
:107F300032360300B8290020F0290020D82900207B
:107F40008C2000206029002050290020842000205F
:107F50004C2900207A350300F7B527490400032097
:107F600002F032FC254D26492A88032002F048FC05
:107F7000244B2A881B689A4215D3A17A637A090296
:107F80001943E37A204A1B041943237B1F481B062D
:107F90000B431360042313711D4B196803F0D4FBCA
:107FA00000202880FEBD1B4803F01AFC1A4E1B4C13
:107FB0003078820013590B2B1BD0CE214900184A70
:107FC0000191012807D99A39FF39009101201549FB
:107FD00002F0A0FCE4E7032700972368124902207F
:107FE00002F098FC33780133DBB233709B001F51F1
:107FF000D6E703231351D3E7F6360300282A0020DF
:1080000036370300B8200020B0290020B82900200E
:10801000BC200020882900204D290020BC3A0020E7
:108020006F370300BE090300100A0300F7B50368A9
:108030000400002B08D016490A004B72190A9172ED
:10804000190C1B0ED1721373124E134D3778217910
:10805000BA0053590B2B19D0AD20104A0190009152
:10806000012F06D90E49AC3802F054FC0B232371C2
:10807000F7BD2B680B49022002F04CFC337801332A
:10808000DBB2337022799B005A51EFE75151EDE793
:10809000902000204D290020BC3A00206F370300BB
:1080A000BE090300100A0300F7B503680400002BA3
:1080B00008D016490A004B72190A9172190C1B0E4E
:1080C000D1721373124E134D37782179BA00535978
:1080D0000B2B19D0AC20104A01900091012F06D92A
:1080E0000E49AB3802F016FC0B232371F7BD2B6849
:1080F0000B49022002F00EFC33780133DBB23370FF
:1081000022799B005A51EFE75151EDE79020002072
:108110004D290020BC3A00206F370300BE09030040
:10812000100A0300F7B503680400002B08D01649B5
:108130000A004B72190A9172190C1B0ED17213733B
:10814000124E134D37782179BA0053590B2B19D0A1
:10815000AB20104A01900091012F06D90E49AA3890
:1081600002F0D8FB0B232371F7BD2B680B490220CB
:1081700002F0D0FB33780133DBB2337022799B00FD
:108180005A51EFE75151EDE7902000204D29002092
:10819000BC3A00206F370300BE090300100A030039
:1081A000F7B503680400002B08D016490A004B728B
:1081B000190A9172190C1B0ED1721373124E134DC2
:1081C00037782179BA0053590B2B19D0AA20104ABD
:1081D00001900091012F06D90E49A93802F09AFBAF
:1081E0000B232371F7BD2B680B49022002F092FB91
:1081F00033780133DBB2337022799B005A51EFE7B9
:108200005151EDE7902000204D290020BC3A00207C
:108210006F370300BE090300100A0300094B0A4927
:108220001A68FA239B00C046C046C046C046C046F6
:10823000C046C046C0468A4200D0C046013BF2D18B
:108240007047C0464C2100200024F400F0B551498D
:1082500091B0032002F0B8FA002104AC4E4B10227A
:1082600020001970FAF7D2FD05230493013B6360E7
:10827000CC235B04A3600323484D23730822484B9F
:108280002100280003F070FB002801D002F036FF27
:108290000D23444A1370FFF7EFFDFFF7BFFF424B7A
:1082A0001B78002B55D1414A12784A2A5BD1220013
:1082B0003F49C1C9C1C2C1C9C1C2C1C9C1C2C1C985
:1082C000C1C206222100280003F09AFB2A23354A66
:1082D0001370FFF7D1FDFFF7A1FF334B1B78002B85
:1082E0003CD1324A3348117801221143417002A92E
:1082F0000C002F483030C0C8C0C4280003F080FBF9
:108300002D4A00212D4803F007FA2D4A00212D485F
:1083100003F002FA2C4A00212C4803F0FDF92C4A04
:1083200000212C4803F0F8F92B4E2C4C30788200B9
:1083300013590B2B2AD05421FF31294A01910128CE
:1083400016D901202749009002F0E4FA002011B06C
:10835000F0BD2549032002F037FA9EE722490320A9
:1083600002F032FAB7E72149032002F02DFAC7E7FD
:108370000125009523681E49022002F0CBFA3378CC
:108380005B19DBB233709B001D51DFE701231351F2
:10839000DCE7C0468E3703004C290020A0200020D7
:1083A0002C2A00204B290020522A0020102A0020CD
:1083B000703303007F200020A1810200703403008D
:1083C0002581020074340300A98002006C3403008C
:1083D0002D800200683403004D290020BC3A0020A3
:1083E0006F370300BE090300CE370300E1370300F7
:1083F000100A03000C2370B52C4E04003370FFF7F5
:108400003BFDFFF70BFF2A4D2B78002B44D1294B66
:108410001B785B073AD516233370FFF72DFDFFF766
:10842000FDFE2B78002B3CD1234D280003F0D8F91A
:10843000A17A637A09021943E37A204A1B0419439B
:10844000237B28001B060B431360042313711C4B72
:10845000196803F079F91B4D280003F0C1F9A17ADE
:10846000637A09021943E37A174A1B041943237BF1
:1084700028001B060B43136005231371134B196867
:1084800003F062F9124A1388013313801149032063
:1084900002F09AF9002070BD0F49032002F094F910
:1084A000AFE70D49032002F08FF9B8E74B29002010
:1084B000522A0020102A0020B8290020A8290020D4
:1084C000BC2000208829002080290020882000204E
:1084D000282A0020F8350300CE3703000C2370B59E
:1084E000134D2B70FFF7C8FCFFF798FE114C237853
:1084F000002B12D1104B1B785B070CD516232B7069
:10850000FFF7BAFCFFF78AFE2378002B0AD10B4A4B
:10851000138801331380002070BD0949032002F045
:1085200053F9E1E70649032002F04EF9EAE7C046B5
:108530004B290020522A0020102A0020282A00203F
:10854000CE3703000C2370B51D4E05003370FFF7C6
:1085500093FCFFF763FE1B4C2378002B25D11A4BAD
:108560001B785B071FD516233370FFF785FCFFF7D9
:1085700055FE2378002B1DD1144C200003F030F958
:10858000A97A6B7A09021943EB7A114A1B04194341
:108590002B7B20001B060B431360062313710D4B2E
:1085A000196803F0D1F8002070BD0B49032002F0D8
:1085B0000BF9CEE70849032002F006F9D7E7C046D9
:1085C0004B290020522A0020102A0020F0290020E8
:1085D000E02900208C200020CE3703000C2370B54A
:1085E0001D4E05003370FFF747FCFFF717FE1B4CCD
:1085F0002378002B25D11A4B1B785B071FD5162338
:108600003370FFF739FCFFF709FE2378002B1DD1EB
:10861000144C200003F0E4F8A97A6B7A090219439C
:10862000EB7A114A1B0419432B7B20001B060B43DA
:108630001360062313710D4B196803F085F80020B1
:1086400070BD0B49032002F0BFF8CEE708490320B4
:1086500002F0BAF8D7E7C0464B290020522A002082
:10866000102A0020F0290020E82900208C2000207A
:10867000CE37030010B5064C20600648016006495D
:108680000A60064A1360064B029A1A6010BDC04683
:108690008C200020B8200020BC2000208820002052
:1086A00084200020F0B54B4C010AA170010CA27986
:1086B000E170010E2171617912020A43E179030030
:1086C00009040A43217A85B0090611430F000A0004
:1086D0008C372578607003970398904207D10095F6
