:020000022000DC
:102C0000008000201DCC02005DCC02005FCC0200E1
:102C100000000000000000000000000000000000B4
:102C200000000000000000000000000061CC020075
:102C3000000000000000000063CC020065CC020030
:102C400079AE020067CC0200858B0200E9B9020070
:102C500067CC02000000000001B4020049B002008D
:102C600067CC020067CC020067CC020067CC020090
:102C700067CC020067CC020067CC020067CC020080
:102C800067CC02009998020067CC020067CC020072
:102C90005599020067CC0200F5CE020067CC020015
:102CA00067CC020067CC02000000000000000000BA
:102CB0000000000000000000000000000000000014
:102CC00010B5064C2378002B07D1054B002B02D002
:102CD000044800E000BF0123237010BD98220020AB
:102CE0000000000054120300084B10B5002B03D065
:102CF0000749084800E000BF07480368002B00D1DF
:102D000010BD064B002BFBD09847F9E700000000F0
:102D10009C220020541203008422002000000000A6
:102D2000164B002B00D1144B9D46402292029A1A5A
:102D3000924600218B460F461348144A121A00F09F
:102D400065F80F4B002B00D098470E4B002B00D09E
:102D500098470020002104000D000D48002802D0F3
:102D60000C4800E000BF00F02DF82000290000F022
:102D700059F800F011F8C04600000800008000205B
:102D80000000000000000000982200208839002088
:102D90000000000000000000084B10B50400002BEC
:102DA00002D0002100E000BF054B1868836A002BA9
:102DB00000D09847200000F031F8C0460000000025
:102DC00034DE020070B500260C4D0D4C641BA410BF
:102DD000A64209D100260BF021F80A4D0A4C641BCB
:102DE000A410A64205D170BDB300EB589847013638
:102DF000EEE7B300EB5898470136F2E77C2200205B
:102E00007C2200207C2200208022002003008218E7
:102E1000934200D1704719700133F9E7FEE7C046CD
:102E200048DF7047F7B5002005F09AFF76490400A7
:102E3000032005F0A9FF7549032005F0A5FF74499B
:102E4000032005F0A1FF002C02D0200006F082FC38
:102E5000002004226F4B092718706F4B1026187042
:102E60006E4B6F4C18706F4B6F4D1A605A609A60C2
:102E70006E4B073218706E4B27601A605A609A606A
:102E80006C4B033218706C4B67601A605A609A6022
:102E90006A4BA760187006232E606E60AE60684AA9
:102EA000136053609360674A1070674A1360536001
:102EB000936003F005FA00970196564B1B789A0031
:102EC000A05809280AD00099013BDBB2A150022B7F
:102ED00000D900234F4A137003F0F2F94E4B1B78D0
:102EE0009A00A85810280AD00199013BDBB2A950DA
:102EF000022B00D90023484A137003F0FDFB474B17
:102F0000484A1B789900885804280AD00426013BB7
:102F1000DBB28E50022B00D90023404A137003F01D
:102F2000C9FC424A424913789E0070580B2809D0C8
:102F30000B27013BDBB27750022B00D90023137023
:102F400004F014FA3B4A3C4913789E0070580E284E
:102F500009D00E27013BDBB27750022B00D90023AA
:102F6000137004F0E5FF354A354913789E00705818
:102F7000062809D00627013BDBB27750022B00D987
:102F80000023137004F026FC2E4A2F4913789E006C
:102F90007058062809D00627013BDBB27750022B78
:102FA00000D90023137005F03FFA03F015FA00284A
:102FB00083D103F039FC002800D07EE703F012FD36
:102FC000002800D079E704F05DFA002800D074E70B
:102FD00005F046F8002800D06FE704F087FC0028D1
:102FE00000D06AE705F09EFA002800D065E706F0F9
:102FF00049F8002800D060E7FFF712FF002800D151
:103000005BE706F0A7FB58E738DE02008BDE020024
:10301000A5DE0200002500204128002042280020D3
:103020008C3500203C390020303900204528002014
:103030004839002084290020603900204E290020D2
:1030400054390020C02900206C390020A0DF7047CF
:10305000A6DF704763DF704730B5AE4989B0032003
:1030600005F092FE01220120AB4B5242AB4C1A807C
:10307000AB49AC4B220088700B80FFF7E7FF0028BC
:1030800001D006F067FBA849102204A80AF050FA04
:10309000A64D04A82900FFF7DDFF002801D006F0A7
:1030A00059FBA34A2B7821880392A24AA248029294
:1030B0000222019203320092A04A05F05DFB002833
:1030C00001D006F047FB9E4A2B78218803929D4A47
:1030D0009D48029202220192921800929B4A05F0AA
:1030E0004BFB002801D006F035FB994A2B7821884C
:1030F0000392984A9848029207220192023A00925B
:10310000964A05F039FB002801D006F023FB944ACB
:103110002B7821880392934A9348029210220192BD
:10312000073A0092914A05F027FB002801D006F0EB
:1031300011FB8F4A2B78218803928E4A8E48029287
:103140000C220192073A00928C4A05F015FB0028E8
:1031500001D006F0FFFA8A4A2B7821880392894A27
:10316000894802920122019203320092874A05F0B7
:1031700003FB002801D006F0EDFA854A2B78218860
:103180000392844A84480292102201920B3A0092E0
:10319000824A05F0F1FA002801D006F0DBFA804AF5
:1031A0002B78218803927F4A7F4802921022019255
:1031B0000B3A00927D4A05F0DFFA002801D006F0B4
:1031C000C9FA7B4A2B78218803927A4A7A4802927C
:1031D00004220192033A0092784A05F0CDFA0028C1
:1031E00001D006F0B7FA764A2B7821880392754A07
:1031F000754802920122019204320092734A05F04E
:10320000BBFA002801D006F0A5FA714A2B78218874
:103210000392704A704802920422019200926F4A0F
:1032200005F0AAFA002801D006F094FA6C4A2B782F
:10323000218803926B4A6C480292012201920B3260
:1032400000926A4A05F098FA002801D006F082FA46
:10325000674A2B7821880392664A674802920122C6
:10326000019204320092654A05F086FA002801D0E6
:1032700006F070FA624A2B7821880392614A62480C
:10328000029202220192013A0092604A05F074FA19
:10329000002801D006F05EFA5D4A2B78218803925F
:1032A0005C4A5D48029210220192073A00925B4A02
:1032B00005F062FA002801D006F04CFA584A2B7843
:1032C00021880392574A58480292102201920B3AE1
:1032D0000092564A05F050FA002801D006F03AFA5A
:1032E000534A21882B780392524A53480292102263
:1032F00001920B3A0092514A05F03EFA041E01D0A9
:1033000006F028FA4E49032005F03EFD200009B0E2
:1033100030BDC046E3E502004C200020C42300205D
:10332000C623002000FFFFFFC9DE0200CA230020E1
:10333000F4220020782300200DE6020001FF0000A7
:1033400024230020AE2300201CE6020002FF000020
:103350001C230020A723002026E6020003FF000014
:103360002C230020B02300202DE6020004FF0000E3
:10337000FC2200207A23002042E6020005FF000024
:10338000CC220020402300205DE6020006FF000062
:10339000E4220020582300206EE6020007FF000010
:1033A0000C2300208723002082E6020008FF000093
:1033B000D42200204423002096E6020009FF0000EA
:1033C0000423002086230020A5E602000AFF000057
:1033D00034230020C0230020BAE602000BFF0000C7
:1033E000B42200203C230020C4E602000CFF0000B1
:1033F000BC2200203D230020D7E602000DFF000084
:10340000C42200203E230020E3E602000EFF00005D
:10341000DC22002048230020EBE602000FFF000022
:10342000EC22002068230020FEE6020010FF0000CE
:10343000142300209723002017E7020011FF00004B
:1034400030E70200F0B510251627114E8BB006AC00
:1034500000900191029269462A00300003936F4464
:103460000AF066F82A00002120003D80FFF7CEFC1C
:10347000084B21001B88A76023800123A370002331
:10348000A380054BE6601888FFF7E2FD0BB0F0BDA6
:10349000B02300202C2300204C200020F0B587B062
:1034A0006B4601270C4D02AC287010220021200031
:1034B0009E1DDF80FFF7AAFC084B21001B88A77028
:1034C00023800023A380064BA6601888E560FFF7E1
:1034D000BFFD07B0F0BDC0463C230020B422002051
:1034E0004C200020F0B5038885B00500112B2BD0AF
:1034F00003D8102B0AD005B0F0BD502B4AD0532B67
:10350000F9D1A249042005F03FFCF4E78288A04BE2
:103510000420A0491A8005F037FC9F4E9F4C30785C
:1035200082001359102B0CD037219D4A019103259D
:10353000343901281FD900919A49012005F0CAFCAD
:10354000D9E703231351D6E70122914B52420420BD
:1035500095491A8005F018FC8F4E904C3078820007
:103560001359102B14D045218D4A0191012801D9FE
:103570004139E0E70425009523688C49022005F0D5
:10358000A9FC33780133DBB233709B001D51B2E7E5
:103590000423D7E78649042005F0F6FB854AEB882B
:1035A0001288AC1D9A4220D1227B8349042005F069
:1035B00007FCFF20FFF772FF804803887F2B01D9AB
:1035C0007F23038003F016F9734E744C3078820029
:1035D0001359102B07D05A21714A019105255539ED
:1035E0000128A8D8C7E70523ACE7754A12889A4294
:1035F00021D1227B7349042005F0E2FBFF20FFF775
:103600004DFF714803887F2B01D97F23038003F08E
:10361000F1F8614E614C307882001359102B08D0BC
:1036200065215F4A019106255F39012800D982E7AB
:10363000A1E7062386E7654A12889A4219D1227BC0
:103640006349042005F0BCFB624803F0D3F8524EF6
:10365000524C307882001359102B08D06D21504AFB
:10366000019107256639012800D964E783E707231C
:1036700068E7594A1188994205D1227B57490420AD
:1036800005F09EFB37E792889A4202D1227B54498B
:10369000F5E7544A12889A4216D1227B04205249F7
:1036A00005F08EFB3C4E3D4C307882001359102BB8
:1036B00008D07A213A4A01910B256F39012800D9A7
:1036C00039E758E70B233DE7484A12889A4219D157
:1036D000227B4749042005F073FB464803F08AF833
:1036E0002D4E2E4C307882001359102B08D081219A
:1036F0002B4A019108257939012800D91BE73AE7BF
:1037000008231FE73C4A12889A4202D1227B3B4998
:10371000B5E73B4A12889A4202D1227B3949AEE78B
:10372000394A12889A4216D1227B0420374905F083
:1037300047FB194E194C307882001359102B08D0D2
:103740009121174A01910A258739012800D9F2E60B
:1037500011E70A23F6E62E4A12889A425CD1227BB0
:1037600004202C4905F02CFB0B4E0C4C30788200C9
:103770001359102B08D09721094A019109258E3938
:10378000012800D9D7E6F6E60923DBE6BCE502000E
:103790004C200020D9DE02004128002030390020D2
:1037A00004DF020025DF0200C1DF020077DF020034
:1037B000EFDF0200F42200201CE00200782300204A
:1037C000242300206DE00200AE2300201C230020F3
:1037D000B9E00200A72300202C23002002E1020010
:1037E00059E10200FC220020AFE10200CC220020BF
:1037F0000CE2020040230020E42200205FE20200ED
:103800000C230020B5E20200042300200BE3020099
:103810003423002062E30200494A12889A4272D19E
:10382000227B4849042005F0CBFA237B0393022B2B
:1038300025D10125444B1B782B4220D0434903203E
:1038400005F0A2FA8020000204F0DCFD8020400296
:1038500004F0DEFDC020800204F0E0FD3C4F3D4E50
:10386000387882009359062B49D0A3213A4A019116
:103870000095A84237D93949280005F02BFB237B56
:10388000062B00D037E601242F4B1B78234200D1B2
:1038900031E63349032005F077FA8020000204F076
:1038A000B1FD8020400204F0B3FDC020800204F08E
:1038B000B5FD274E274D307882005359062B20D076
:1038C000AB21254A01910094A04200D934E62B682F
:1038D0002449022005F0FEFA33780133DBB233705D
:1038E0009B005C5107E633681E49039805F0F2FA25
:1038F0003B780133DBB23B709B009D51BFE7955194
:10390000BDE75451F7E5184A12889A4202D1227B4A
:103910001649B4E6164A12889A4202D1227B15490A
:10392000ADE6154A12889A4202D1227B1349A6E6D7
:10393000134A12889A4200D0DDE5227B11499EE6A7
:10394000B4220020AEE302003D23002003E4020085
:10395000C02900206C39002004DF020025DF0200AE
:1039600034E4020077DF0200BC22002063E402009E
:10397000DC220020B1E40200EC22002006E5020077
:103980001423002061E50200F0B510251627114E22
:103990008BB006AC00900191029269462A0030007B
:1039A00003936F4409F0C4FD2A00002120003D80EC
:1039B000FFF72CFA084B21001B88A7602380012306
:1039C000A3700023A380054BE6601888FFF740FB37
:1039D0000BB0F0BD48230020DC2200204C2000204A
:1039E00010B504000C22024909F0A2FD200010BD10
:1039F0007A2300207FB51025094E04002A003100EB
:103A0000684609F095FD7F22F37B694613406A46BC
:103A10002000D3732A0009F08BFD200004B070BD94
:103A2000582300207FB51025094E04002A003100DC
:103A3000684609F07DFD7F22F37B694613406A46A4
:103A40002000D3732A0009F073FD200004B070BD7C
:103A5000872300207FB51025094E04002A0031007D
:103A6000684609F065FD7F22F37B694613406A468C
:103A70002000D3732A0009F05BFD200004B070BD64
:103A8000B0230020014B18887047C04678230020DF
:103A9000014B18887047C046AE230020014B1868C0
:103AA0007047C046C0230020014B18787047C046BD
:103AB0003D230020014B18787047C0468623002024
:103AC0007FB51025094E04002A003100684609F030
:103AD0002FFD7F22F37B694613406A462000D37393
:103AE0002A0009F025FD200004B070BD68230020E5
:103AF0007FB51025094E04002A003100684609F000
:103B000017FD7F22F37B694613406A462000D3737A
:103B10002A0009F00DFD200004B070BD972300209D
:103B20001FB501900291039201A90C22024809F0ED
:103B3000FFFC05B000BDC0467A230020014B186091
:103B40007047C04644230020014B18807047C04690
:103B50003E230020014B18807047C0467823002088
:103B600007B50722009001910248694609F0E0FC80
:103B700007BDC046A7230020014B18707047C04600
:103B8000862300201FB5029203935A006B46520E03
:103B9000009001910348DA736946102209F0C8FCCD
:103BA00005B000BD582300201FB5029203935A00B0
:103BB0006B46520E009001910348DA736946102259
:103BC00009F0B6FC05B000BD872300201FB50292A6
:103BD00003935A006B46520E009001910348DA732A
:103BE0006946102209F0A4FC05B000BDB0230020F6
:103BF000F0B5038885B004001D2B70D10622037C2C
:103C0000134093426BD1027A3E49042005F0D8F864
:103C1000A17BA37A627A0391617B04200291217BCC
:103C200027000191E17A11370091374905F090F9A9
:103C30000F223649A256042005F0C2F8227C3449EE
:103C40005207920F042005F0BBF83249042005F01A
:103C50009BF8314E237C3100DB083A00042005F04C
:103C6000C3F92E4D1E223900280009F061FCBA79F3
:103C70007B7912021A432A49042005F0A1F8BA7E82
:103C80007B7E12021A432749042005F099F83A7FF7
:103C9000FB7E12021A432449042005F091F82349BF
:103CA000042005F071F8220010231A32310004209C
:103CB00005F09AF9280002F07BFE1D4E1D4C30786D
:103CC00082001359042B1AD039211B4A0191012873
:103CD00007D9373900910120184905F0FBF805B0E4
:103CE000F0BD0225009523681549280005F0F2F87B
:103CF00033780133DBB23370AB401D51EFE7022361
:103D00001351ECE756E7020078E7020099E702005A
:103D1000AFE70200C9E70200DCE70200CB23002086
:103D2000EAE7020006E802001DE8020034E80200AB
:103D3000422800203C39002047E8020025DF02002D
:103D400077DF020078DF70477ADF70477CDF7047EB
:103D50007047000000487047CC24002010B504498B
:103D6000044808F059FF002801D005F0F3FC10BD0D
:103D7000513D0200BC24002070B59AB00BAC3C222F
:103D800000212000FFF742F8022323700433E37080
:103D9000104B012663618023626A03ADDB00A670CD
:103DA00026820021138028002022FFF72FF8962377
:103DB00000215B002B61EE706961074B00912A00C6
:103DC000200008F083FB002801D005F0C3FC1AB0E6
:103DD00070BDC0464E2000209D3F0200112330B52B
:103DE00085B001AD2B701A4B1A4C1B681A4A1B493F
:103DF0009BB2200009F0D8FB200009F0F7FB21005E
:103E000082B22800FFF7A2FF002801D005F0A2FC33
:103E10000020FFF797FF002801D005F09BFC02ACC3
:103E2000082200212000FEF7F1FF20232380183311
:103E300063800023A3809133FF332000E380FFF7EA
:103E400083FF002801D005F085FC05B030BDC046D9
:103E5000A4000010CC24002072E8020068E80200F0
:103E60007FB5184904220631684609F061FB00233A
:103E7000D0221549684608F0F3FF002801D005F06C
:103E800069FC01AA0121002009F044F8002801D0B2
:103E900005F060FC01A809F055F8002801D005F0F4
:103EA00059FC0A4809F012F8002801D005F052FC2C
:103EB000074809F015F8002801D005F04BFC07B0C1
:103EC00000BDC04668E80200EC230020D73F020096
:103ED0000540020076DF7047A8DF704767DF704754
:103EE0001FB503880400112B27D004D8022B2ED035
:103EF000102B13D01FBD512B2FD0552B25D03A2B73
:103F0000F8D12149042004F03FFFA0881321FFF7D6
:103F1000E1FF0028EED005F01DFCEBE703201B4974
:103F200004F032FF072007F01BFF002801D005F046
:103F300011FCA288164B1A80DCE7027A154903208F
:103F400004F03EFF01225242F4E71349DAE7104B36
:103F500000211888FFF7C2FFDBE78379002BC9D067
:103F6000827B043A022AC5D8022B0AD16A46137012
:103F7000C1236A465B009380A0886946FFF7ACFFC7
:103F8000C7E70123F2E7C0461EE90200E4E80200A9
:103F9000DA240020FAE8020040E9020010B5002807
:103FA0000CD0032809D1074904F0EEFE022007F0E7
:103FB000D7FE002801D005F0CDFB10BD04F0C8FAF3
:103FC000FBE7C046C7E80200038810B5112B01D0FB
:103FD00008F04EFC10BD10B5040008F0A5FD20004F
:103FE00008F04CFD200007F085FF2000FFF778FF68
:103FF0002000FFF777FA2000FFF7E6FF2000FFF729
:10400000F7FD10BD10B5040006F0CAFD200008F051
:1040100065FC10BD73B50E2802D00F2808D073BD03
:104020002A49032004F0B0FE0120FFF737FAF6E733
:104030000320274904F0A8FE264E274C3078820042
:104040001359062B2DD085214900244A01910128BE
:1040500019D90739FF3900910120214904F03AFFAD
:10406000204E214C307882001359092B2AD00C2184
:10407000FF311A4A0191012816D9012018490090F0
:1040800004F028FFCBE70425009523681749022098
:1040900004F020FF33780133DBB233709B001D51F5
:1040A000DEE704231351DBE70125009523680F4960
:1040B000022004F00FFF33785B19DBB233709B00F2
:1040C0001D51ACE701231351A9E7C0467BE802006C
:1040D0009AE80200C02900206C390020B0E80200F4
:1040E00025DF0200002500208C35002077DF02004C
:1040F0008023F7B5DB02984200D107E109D880237D
:104100009B02984220D0C0239B02984200D1AAE093
:10411000F7BDA023DB02984200D1B6E0C023DB024A
:104120009842F5D10329F3D103F0D2FB02F048F90C
:10413000B24EB34C3078B34D82001359092B00D1E5
:1041400017E1B14A2F212BE0012918D102F05EFBC3
:1041500002F036F9A94FAA4D3878AC4E8200535977
:10416000092B00D1AEE01921A74A01910096012840
:1041700000D89BE0A649012004F0ACFEC8E7042962
:104180001ED102F043FB02F01BF99C4E9C4C307890
:10419000A04D82001359092B00D1EAE01A219A4A56
:1041A000019100950128E5D823689B49022004F07D
:1041B00091FE33780133DBB233709B001D51A7E7CA
:1041C000072900D0D7E002F021FB02F0F9F88B4E6E
:1041D0008B4C3078914D82001359092B00D1C8E0E7
:1041E000894A1B21DCE702F011FB02F0E9F8834E5B
:1041F000834C30788A4D82001359092B00D1B8E0E6
:10420000814A1C21CCE702F001FB02F0D9F87B4E79
:104210007B4C3078834D82001359092B00D1A8E0E4
:10422000794A1D21BCE702F0F1FA02F0C9F8734E99
:10423000734C30787C4D82001359092B00D198E0E3
:10424000714A1E21ACE702F0E1FA02F0B9F86B4EB8
:104250006B4C3078754D82001359092B00D188E0E2
:10426000694A1F219CE7022900D051E702F0ACFB0C
:1042700002F0A6F8614F624D38786D4E82005359B6
:10428000092B1FD0604A24216FE701291CD103F0BC
:10429000D9FE02F095F8594F594D3878654E820095
:1042A0005359092B0ED0584A28215EE72B685A49EA
:1042B000022004F00FFE3B780133DBB23B709B0021
:1042C0005E5125E7565123E705290ED103F0BAFECA
:1042D00002F076F8494E4A4C3078574D8200135917
:1042E000092B46D0484A29215AE70C2961D103F00D
:1042F000A9FE02F065F8414E414C30784F4D8200E6
:104300001359092B35D0404A2A2149E708290ED1F3
:1043100003F0AAF802F054F8384E394C3078484D82
:1043200082001359092B24D0374A342138E7062953
:104330000ED103F099F802F043F8304E304C30784B
:10434000404D82001359092B13D02F4A352127E7FE
:10435000052940D103F088F802F032F8274E284CA6
:104360003078394D82001359092B02D0264A362164
:1043700016E71551CCE6062900D134E7082900D10B
:1043800041E7092900D14EE70A2900D15BE70B2953
:1043900000D0BDE602F03AFA02F012F8174E184CBF
:1043A00030782A4D82001359092BE2D0164A202179
:1043B000F6E6092900D0ABE603F044FE02F000F86F
:1043C0000E4E0F4C3078224D82001359092BD0D05D
:1043D0000D4A2B21E4E6072900D099E603F044F8C2
:1043E00001F0EEFF054E064C30781A4D820013594D
:1043F000092BBED0044A3721D2E6C0460025002052
:104400008C3500200300060062E902000100020072
:1044100025DF02000400020077DF0200070002002F
:104420000600020008000200090002000A00020063
:104430000200030001000500050005000C00050056
:104440000800040006000400050004000B00020040
:10445000090005000700040011DF704713DF7047F3
:1044600010B50320024904F08FFC002010BDC046A7
:1044700066ED020010B50449032004F085FCFE201F
:10448000FFF70CF8002010BDF4EE0200F7B503684A
:104490000400002B08D016490A004B72190A9172C9
:1044A000190C1B0ED1721373124E134D37782179EC
:1044B000BA005359092B19D06C20104A0190009171
:1044C000012F06D90E496B3804F004FD092323712E
:1044D000F7BD2B680B49022004F0FCFC3378013354
:1044E000DBB2337022799B005A51EFE75151EDE76F
:1044F00052200020002500208C3500200CEB02000B
:1045000025DF020077DF0200F7B503680400002B07
:1045100008D016490A004B72190A9172190C1B0E29
:10452000D1721373124E134D37782179BA00535953
:10453000092B19D06B20104A01900091012F06D948
:104540000E496A3804F0C6FC09232371F7BD2B68B5
:104550000B49022004F0BEFC33780133DBB2337028
:1045600022799B005A51EFE75151EDE7522000208C
:10457000002500208C3500200CEB020025DF020016
:1045800077DF0200F7B503680400002B08D0164956
:104590000A004B72190A9172190C1B0ED172137317
:1045A000124E134D37782179BA005359092B19D07F
:1045B0006A20104A01900091012F06D90E496938EE
:1045C00004F088FC09232371F7BD2B680B490220F6
:1045D00004F080FC33780133DBB2337022799B0026
:1045E0005A51EFE75151EDE75220002000250020FD
:1045F0008C3500200CEB020025DF020077DF020083
:1046000010B50549032004F0BFFB03F061F90088F1
:10461000FFF79AFA002010BD92F0020010B5817ADF
:10462000437A09021943C37A094A1B041943037BDD
:1046300008481B060B4380211360062309021371EF
:1046400005F0AEFB044A002013680133136010BD6F
:104650007C2500208425002088350020F0B568499D
:1046600089B0032004F090FB02F0AEF904008279D7
:10467000437912021A436349042004F0A1FBA27E8D
:10468000637E12021A436049042004F099FB227FE2
:10469000E37E12021A435D49042004F091FB5C4959
:1046A000042004F071FB2200102309325949042030
:1046B00004F09AFC00250726574B1B681B88AB4269
:1046C00047D802F0F3FE04AC022800D07EE02000C0
:1046D000FFF790F9FFF7D6F90122C308DBB2039385
:1046E00007231500FF2103409D408C460023013D18
:1046F000EDB2591CC9006646814200DD2E004749D3
:10470000CF5CE15C0133B94331404E424E410399E5
:104710007642DBB232409942EBD2002A16D0032017
:104720003F4904F031FB3F4E3F4C30788200135933
:10473000092B62D0E82189003C4A019101284ED919
:104740000421012000913A4904F0C4FB002009B083
:10475000F0BD6379374A9C46330067466B43985CEB
:10476000D318A1795A7809021202394302439142BF
:1047700029D1627EA17E94466746DA78987809024C
:1047800012023943024391421DD11979227F5B798C
:10479000E07E12021B0202430B439A4213D12B000C
:1047A00001203340984003001C49EA08885C034319
:1047B0008B54214AAB001168204A032099502A00EB
:1047C0001F4904F0FDFA0135ADB275E702F06EFE47
:1047D000012800D17BE72000FFF724F97AE70425C0
:1047E000009523681749022004F074FB33780133E5
:1047F000DBB233709B001D51A8E704231351A5E7DA
:104800009AEB0200D8EB020003EC020029EC020054
:104810004FEC0200DCE70200A42500202D2600203A
:104820009EEC0200002500208C3500200CEB0200DD
:1048300025DF020098350020883500204026002022
:1048400071EC020077DF020010B50549032004F087
:104850009BFAFFF72FF902F02FFE002010BDC04693
:10486000E8F40200F0B5002585B03749032004F0D4
:104870008BFA364C3649236803205A8804F0A0FA94
:10488000236834499A88032004F09AFA236832494D
:10489000DA88032004F094FA236830491A89032047
:1048A00004F08EFA23682E499A7A032004F088FADD
:1048B000FFF7EEF82A0021682A4E0B880390029336
:1048C000029893B2019383420BD3002D2BD0032087
:1048D000254904F059FAFA20FEF7E0FD002005B062
:1048E000F0BD072353439C5DF318A44660465C78F3
:1048F0008F8824020443A74212D1DC789878CF88AD
:1049000024020443A7420BD11C795B790F891B0257
:1049100023439F4204D1019B0398984200D0012574
:104920000132D2B2CCE707224B880E485343043100
:10493000C01808F0FDFDFF20FEF7B0FD0B49032075
:1049400004F022FACAE7C04691F50200A42500202F
:10495000CDF50200F7F5020022F6020048F602004B
:104960006EF6020098350020A0F60200D9F602008B
:1049700010B51349032004F007FAFFF789F8114B2B
:104980008000C058FFF7DAF8FFF782F8072250439B
:104990000D4BC15C1B185A78987812020A43000428
:1049A0000243D8785979000610431A7909020A435C
:1049B000997909041143FFF7D3F8002010BDC046D0
:1049C000FEF60200402600209835002010B5074969
:1049D000032004F0D9F9FFF761F8054B02001860D5
:1049E0000449032004F0ECF9002010BD3DF702005B
:1049F000883500207CF7020073B53A49032004F0A3
:104A0000C3F901F003FF384B384E18603078384C4A
:104A100082001359102B40D091218900354A019111
:104A200001282CD9022101200091334904F052FAC7
:104A3000324E334C3078820013590B2B3ED0314923
:104A40002C4A019101282BD90021012000912A49EB
:104A500004F040FA2C4E2D4C3078820013590E2B66
:104A60003DD092218900234A0191012829D90021B2
:104A700001200091204904F02DFA002076BD022586
:104A8000009523682249280004F024FA3378013382
:104A9000DBB23370AB401D51CAE702231351C7E7A5
:104AA0000025009523681A49022004F013FA337890
:104AB0000133DBB233709B001D51CBE70023135150
:104AC000C8E70025009523681149022004F002FA86
:104AD00033780133DBB233709B001D51CDE70023E7
:104AE0001351CAE7EDEC0200A42500204128002064
:104AF000303900200CEB020025DF020045280020A1
:104B00004839002046020000842900206039002036
:104B100077DF020073B54849032004F035F9474CAC
:104B2000142322004649042004F05EFA62782378B8
:104B300012021A43A378434E1B041A43E3783460ED
:104B40001B061343404A93425BD1E023E579A279E7
:104B50002D029B0015439D4253D1627923791202A5
:104B60001A433A49032004F02BF93268537911793A
:104B70001B020B43364909680B80507913790002F8
:104B80001843FEF7E7FF33685A7A187A1202024395
:104B9000987A197B00040243D87A5C7C00061043A3
:104BA0005A7B240212020A43997B09040A43D97BE7
:104BB000090611431A7C14439A7C12041443DA7CCC
:104BC00012062243FEF7ACFF2248234B8580036088
:104BD0000523836003F02AFA204E214C30788200AE
:104BE00013590E2B25D09B211E4A890001910128C3
:104BF00011D90321012000911B4904F06BF9002019
:104C000076BD1A4E1A4C307882001359092B10D0F9
:104C1000144A1849EAE7032500952368164902203B
:104C200004F058F933780133DBB233709B001D5127
:104C3000E5E703231351E2E76FEF0200E8240020C9
:104C4000DCE70200A82500205AA5A55AB0EF020013
:104C5000A4250020DC240020983500208429002091
:104C6000603900200CEB020025DF02000025002047
:104C70008C3500206E02000077DF0200F0B5C549D8
:104C80009FB0032004F080F801F0C0FD0478012CEF
:104C900054D1C149032004F077F8E02200219200AA
:104CA000BE48FEF7B3F80021BD4D0C2228680180F4
:104CB0000B30FEF7ABF82A681300D07A127BD97B51
:104CC00012020243587B1D7D00040243987B2D0293
:104CD000000610431A7C12020A43597C09040A4355
:104CE000997C09061143DA7C15435A7D1204154359
:104CF0009A7D12062A43FEF713FFAA4EAA4D30787A
:104D0000820053590E2B3BD0A849A94A0191012892
:104D100006D90B2101200091A64904F0DBF82CE014
:104D20000B2400942B68A449022004F0D3F83378B4
:104D30000133DBB233709B005C511EE0022C22D1A8
:104D400003209E4904F020F8964E974D307882005B
:104D500053590E2B14D09A49954A01910128D8D85D
:104D60000B2700972B689449200004F0B3F83378A0
:104D70000133DBB233709B005F5100201FB0F0BDE8
:104D80000B235351F9E7032C1CD18E49200003F06B
:104D9000FBFF04F077F90028FBD10123D8208A4AD1
:104DA0005B42D367894A4002D367FFF757FBFFF79F
:104DB00053FBBFF34F8F864A864BDA60BFF34F8FAA
:104DC000C046FDE7042C00D04EE1FEF761FE07006F
:104DD000FEF758FE3A0002907F49032003F0F0FFEF
:104DE000029BFCB207259F4211D3FB20CEE0280096
:104DF0002B00661C734360432A000818C91808F08A
:104E000097FB764BB200D258A400E250F4B2029B5A
:104E10006249581E8442EADB002365436F4A4B55C2
:104E2000A4004D19A3506B70AB70EB702B716B71BC
:104E30005B4B80B21B681880FEF78CFE12A8FEF751
:104E4000F1FD129B16A80693139B0793149B0493E2
:104E5000159B1093FEF7CEFD169B1AA80A93179B7D
:104E60000B93189B0C93199B0D93FEF7F3FD1A9B64
:104E700008931B9B09931C9B0E931D9B0F9301236F
:104E80003F2F00D9ACE01E00BE40013EF217944611
:104E9000FF18BB406546069F5C4227400799E31711
:104EA0007A08069F1940C807374002433800079F19
:104EB00011932F404B08390012184B410499069268
:104EC000C9070B43049A0793109B5208DB071A4348
:104ED0000A9F109B27400B995B08029203937A0864
:104EE000E3170A9F1940C8073740024338000B9F59
:104EF0004B082F40390012184B410C990A92C907F0
:104F00000B430B930C9A0D9B5208DB071A430D9B26
:104F100004925B080593089B119D1C406208089C45
:104F2000099B3440200064461D40E9076B08099D39
:104F30000A432C40210012184B410E990892C907D0
:104F40000B4309930F9B0E9ADB0754081C430F9BDE
:104F50005D08049E059F189619970B99049A0A9864
:104F6000199BFEF70FFE029E039F14961597079953
:104F7000029A0698159BFEF717FE1C941D9508983B
:104F8000099922001D9BFEF721FEFF20FEF786FAFD
:104F9000F3E6C0469DED0200E3ED020098350020E7
:104FA000A42500208429002060390020B7020000D9
:104FB0000CEB020025DF020077DF02000EEE02009C
:104FC000BB02000040EE020004E100E008E100E066
:104FD0000400FA0500ED00E061EE0200402600202A
:104FE0003F221E003A40964001329340109C5B42A3
:104FF000DA17144011920499049A013E1940324084
:10500000E507480861081400109AF7173A4028434A
:1050100015000C9A001969411A40944602900391B8
:10502000119A0D991140624654080C9AC8073240F3
:10503000044310000D9A4D083A40110024184D41C8
:105040000E9A119913400F9A58080E9B1140049420
:1050500005953340CC0720431C000F9B49083B407B
:105060001D0024184D4174E7052C00D085E603206F
:105070000B4903F089FE01200A4E0B4B37780B4D8C
:10508000BA0018705359092B08D00949094A0191EF
:105090000094874200D845E607493EE654516CE645
:1050A0008AEE020000250020AC2500208C3500206F
:1050B0001A0300000CEB020025DF020073B503F0B9
:1050C00017FB474A0021474804F052FE464A002198
:1050D000464804F04DFE464A0021464804F048FE8A
:1050E000E022002192004448FDF790FE802200213A
:1050F00092004248FDF78AFE802200214048FDF7D9
:1051000085FE1820FEF738FD3E4E3F4C3078820079
:105110001359062B3FD0862189003C4A0191012872
:105120002BD9002101200091394903F0D3FE394EDB
:10513000394C307882001359062B3DD03749334A19
:10514000019101282AD9002101200091304903F062
:10515000C1FE334E334C307882001359092B3CD0BA
:1051600031492A4A0191012829D9022101200091BF
:10517000274903F0AFFE002076BD00250095236887
:105180002A49022003F0A6FE33780133DBB23370E4
:105190009B001D51CBE700231351C8E70025009564
:1051A00023682249022003F095FE33780133DBB2F5
:1051B00033709B001D51CCE700231351C9E7022532
:1051C000009523681949280003F084FE33780133E1
:1051D000DBB23370AB401D51CDE702231351CAE758
:1051E0008545020004EB02000945020000EB0200C5
:1051F0008D44020008EB0200983500204026002074
:10520000AD2500204E290020543900200CEB02006F
:1052100025DF0200C02900206C390020190200009F
:10522000002500208C3500201A02000077DF0200E4
:1052300073B51C49032003F0A7FD1B4C1B4BE02258
:105240002360052392001A490320A360A28003F083
:10525000B7FD200002F0EAFE164E174C30788200AF
:1052600013590E2B1AD01549154A0191012807D957
:10527000072101200091134903F02CFE002076BD88
:105280000725009523681049022003F023FE337898
:105290000133DBB233709B001D51EFE7072313513D
:1052A000ECE7C046DDEF0200DC240020983500204A
:1052B0001FF002008429002060390020A2040000B1
:1052C0000CEB020025DF020077DF020070B52949F0
:1052D00086B0032003F058FD5A235B22264C52422D
:1052E0002370E370254B62701B68A2701B88244DED
:1052F00023711B0A637180235B42A3718333E371C3
:1053000002A82C60FEF76CFB20000C2202A90830DA
:1053100008F00EF91B482B680360002383601433E8
:10532000838002F083FE184E184C307882001359A7
:105330000E2B1BD01649174A0191012808D90721C5
:1053400001200091144903F0C5FD002006B070BD96
:105350000725009523681149022003F0BBFD33782F
:105360000133DBB233709B001D51EEE7072313516D
:10537000EBE7C04634EF0200E8240020A42500201B
:10538000A8250020DC24002084290020603900208A
:10539000940400000CEB020025DF020077DF02001E
:1053A00073B50320144903F0EFFC144E144C30780D
:1053B00082001359102B1BD0A1218900114A0191A1
:1053C000012807D90221012000910F4903F082FD35
:1053D000002076BD0225009523680C49280003F0C3
:1053E00079FD33780133DBB23370AB401D51EFE709
:1053F00002231351ECE7C04628ED020041280020AB
:10540000303900200CEB020025DF020077DF0200BC
:1054100073B51949032003F0B7FC1848184B036013
:10542000002383601433838002F000FE154E164C77
:105430003078820013590E2B1AD01449144A019166
:10544000012807D9032101200091124903F042FDF0
:10545000002076BD0325009523680F49022003F044
:1054600039FD33780133DBB233709B001D51EFE718
:1054700003231351ECE7C046B7EE0200DC24002002
:10548000E824002084290020603900205A0200000E
:105490000CEB020025DF020077DF020073B51F4925
:1054A000032003F071FC02F001F81D490200032003
:1054B00003F086FC01F0FAFF2030C0B2FDF7EEFFEA
:1054C00001F0F4FF011E03D180221648FDF79EFC77
:1054D000154E164C307882001359092B1BD09021A1
:1054E000C900134A0191012807D905210120009123
:1054F000104903F0EFFC002076BD052500952368D8
:105500000D49022003F0E6FC33780133DBB233703F
:105510009B001D51EFE705231351ECE72AEB020036
:105520006BEB0200AD250020002500208C3500200B
:105530000CEB020025DF020077DF0200002213B52A
:105540000D4B0E4903201A6003F01EFC0C4903208A
:1055500003F01AFC03F098F86B46DC1D200003F002
:10556000A7F8FEF77DFC2378002B03D00549032024
:1055700003F00AFC002016BD8835002038DE02004A
:1055800032F5020077F50200F0B58DB00B9316AB43
:105590001B880A920493DB08DBB205930723049A65
:1055A000099113400122110099400B000024013B96
:1055B000DBB20890069302940394079212AB1F5D2E
:1055C00008AB1E5D04993500179BBD43621C1D5539
:1055D000D200FF238A4200DD069B1D4028D02A000E
:1055E0001B490420009403F03FFC3B0032001949A2
:1055F000042003F00BFC0026E700FFB2079B1D42CE
:1056000012D0029822000130C3B2B8190293C3B27B
:10561000039311493300042003F0F8FB039B029A23
:105620000E49042003F0F2FB01366D08082EE5D187
:105630000134059BE4B2A342C0D20020029B834206
:1056400004D0039B1802029BC01880B20DB0F0BDBD
:10565000A9F7020002F8020058F8020094F80200CC
:10566000F0B585B00292039307220EAB1C8801238C
:105670002240934000220191013BE1080090C9B211
:10568000DBB20AAEFF27551CE800BC46A04200DD95
:105690009C466F46B05CBA5C824310006246104084
:1056A00004D1EAB29142EDD205B0F0BD0120FBE792
:1056B000F0B587B00492042205930CAB1C88012737
:1056C00000239446E408114D02900391E4B2DE00F9
:1056D000F6B2A34217D8002002AAD25C0192019927
:1056E00032180141D2B2394004D0A95C0131C9B2AB
:1056F000032906D80130A9540828F0D10133DBB2C0
:10570000E5E76146F6E707B0F0BDC046AD250020ED
:10571000F0B50023072501268B4200D3F0BD074AD0
:10572000D25C032A07D91A0034002A409440DF08CB
:10573000C25DA243C2550133DBB2EDE7AD250020C7
:10574000F0B587B005930CAB1D880391ED08EBB263
:1057500000930023049219001A0002900098DE00C2
:10576000F6B2834213D8002402A8C05C01900198CD
:10577000012520413719FFB2284202D03A004919C9
:10578000C9B20134082CF2D10133DBB2E6E70020C4
:10579000814202D01202511888B207B0F0BD000059
:1057A000F0B5BA49A5B0032003F0EEFAB84804F00A
:1057B00043FBB84EB84C307882001359042B00D10B
:1057C000DAE0B649B64A0191012800D8C6E00120C6
:1057D000B449009003F07EFBB349042003F0D4FAEF
:1057E000B24E10233200B249042003F0FDFB01F059
:1057F0005DFE08AD022800D0C1E00CA8FEF7FAF863
:10580000002414AF3800FEF7F5F8E35D18AF380058
:105810000793FEF755F9E35D079A13402B550134C2
:10582000102CEED1FEF72EF9070010AC102200214B
:105830002000FDF7EBFA043510223100684605948C
:10584000049707F075FE0ECD0898FFF79DFE102215
:10585000310005006846049707F06AFE0C980D9920
:105860000E9A0F9BFFF7FCFE002800D0A2E001F08B
:105870001DFE011E00D0C4E080228E48FDF7C6FA4E
:105880000420ECB22A008C4903F09AFA604260418D
:10589000C0B200F025FF002C45D08849032003F05A
:1058A00073FA139B10981199129AFEF76DF8FEF790
:1058B000FBF8C30737D58249012C00D0B5E0072398
:1058C0002D0AADB25D437F4B5D19AA79092A00D933
:1058D000AAE00C267C49032003F072FAAB797B4CDA
:1058E0007343185902F08EFDAB797343E31858687F
:1058F00002F08EFDAB795E43A419A06802F08EFD24
:10590000734E744C307882001359062B00D1A8E0F6
:105910007149634A0191012800D894E0012061494E
:10592000009003F0D7FA614800F064FF6B4E6C4CB6
:10593000307882001359102B00D1A3E0FE2189009A
:10594000574A0191012800D88EE00C2101200091D6
:10595000544903F0BFFA002025B0F0BD01250095A1
:1059600023686049022003F0B5FA33785B19DBB293
:1059700033709B001D512FE7012313512CE701F0D9
:1059800095FD012800D138E70CA8FEF74BF800245C
:105990001CAF3800FEF746F8E35D20AF38000793F0
:1059A000FEF7A6F8E35D079A13402B550134102C3F
:1059B000EED137E74C4B4D4E1878820093590B2BA4
:1059C0001CD04B49364A0191012806D908210120F3
:1059D0000091344903F07EFA49E7082300933368C5
:1059E0004049022003F076FA3F4B3F4A1B780133CF
:1059F000DBB2137008229B009A5138E708239351B9
:105A000035E700976168A268E3681098FFF750FED9
:105A100020003900FFF77CFE0434009710980ECC6C
:105A2000FFF78EFE05002BE73249032003F0ACF9A7
:105A30008020000202F0E6FC8020400202F0E8FC38
:105A4000C02080025AE701250095236825490220DD
:105A500003F040FA33785B19DBB233709B001D51C1
:105A600061E7012313515EE70C25009523681D496A
:105A7000022003F02FFA33780133DBB233709B003E
:105A80001D5168E70C23135165E7C046C0F20200C0
:105A900054250020422800203C390020AB030000A0
:105AA0000CEB020025DF020005F302002D2600208A
:105AB000DCE70200AD2500201FF302004DF30200D9
:105AC0009BF3020098350020FCF30200ECF8020082
:105AD000C02900206C390020F1030000412800207B
:105AE0003039002077DF02004528002048390020A7
:105AF000C503000034F402001FB501F0D7FC0228F2
:105B000046D16846FDF776FF6B4600201B7883423E
:105B10003CD16B465B78834238D16B469B7883429D
:105B200034D16B46DB78834230D16B461B7983429C
:105B30002CD16B465B79834228D16B469B7983429B
:105B400024D16B46DB79834220D16B461B7A83429A
:105B50001CD16B465B7A834218D16B469B7A834299
:105B600014D16B46DB7A834210D16B461B7B834298
:105B70000CD16B465B7B834208D16B469B7B834297
:105B800004D16B46D87B43425841C0B205B000BD3A
:105B900001F08CFC0128B4D06846FDF743FFB3E761
:105BA000F0B5784989B00400032003F0EDF8FFF761
:105BB000A3FF051E00D1AAE00320734903F0E4F817
:105BC000724E734D307882005359092B00D19BE0FF
:105BD0007049714A0191012806D9042100916F4949
:105BE000012003F077F90CE0042700972B686C493B
:105BF000022003F06FF933780133DBB233709B007E
:105C00005F5105AD2800FDF7EBFE6B896F88EE88CC
:105C1000039301F04BFC012800D09AE0002F00D044
:105C200091E03C27192500F061FD5E4B1A78002AAF
:105C300003D000223C270F251A70FA26B600330045
:105C40006B43DA17D1035A0C1143FA22D80300230D
:105C5000520080185941FA227E439200002307F037
:105C60003DFBF217730CD103FA2219430023039072
:105C70005200F00380185941FA220023920007F0E5
:105C80002DFB06002B00039A4749042003F0BEF8C1
:105C90003B0032004549042003F0B8F8444F380077
:105CA00004F0CAF8434D280004F0C6F8A17A637ADC
:105CB00009021943E37A404A1B041943237B380045
:105CC0001B060B43136004230399137104F068F857
:105CD000A17A637A09021943E37A384A1B0419430B
:105CE000237B28001B060B4313600523310013712F
:105CF00004F056F800231900314A99540133102B4F
:105D0000FBD1002009B0F0BD0423535179E72D4F9A
:105D10002D4E387882009359042B12D02B491E4AFD
:105D200001910095012800D959E733681C490220E8
:105D300003F0D0F83B780133DBB23B709B009D5100
:105D40005FE795515DE72249032003F01DF82D8898
:105D500069E701F0ABFB02280AD1039B002B00D1BD
:105D60005FE71C49013003F00FF82D89039F5AE7C4
:105D7000002E00D155E71849032003F005F837003D
:105D8000AD8850E711F1020058F102000025002013
:105D90008C350020070400000CEB020025DF020018
:105DA00077DF0200AC25002048F2020083F20200F7
:105DB000542500201C2500204C25002014250020FF
:105DC0002D260020422800203C3900200904000034
:105DD00097F10200CFF1020010F20200F0B5644921
:105DE00089B00400032002F0CFFFFFF785FE051EF7
:105DF00000D17BE05F49032002F0C6FF5E4805AD9D
:105E000004F01AF85D4804F017F82800FDF7E8FDE3
:105E10006B896F88EE88039301F048FB012800D05E
:105E20008BE0002F00D082E03C2719230293FA2553
:105E3000029BAD006B43DE175A0CF1031143FA22AB
:105E4000D8030023520080185941FA227D43920062
:105E5000002307F043FAEA176B0CD103FA22194327
:105E6000002306005200E80380185941FA2200235B
:105E7000920007F033FA0500029B320040490420EB
:105E800002F0C4FF3B002A003E49042002F0BEFF9E
:105E9000A17A637A09021943E37A3B4A1B04194346
:105EA000237B35481B060B43136004233100137119
:105EB00003F076FFA17A637A09021943E37A334A41
:105EC0001B041943237B2D481B060B43136005233A
:105ED0002900137103F064FF002319002C4A995420
:105EE0000133102BFBD1002009B0F0BD294F2A4E01
:105EF000387882009359042B17D0D0218900274A83
:105F000001910095012804D92549012002F0E2FF02
:105F100074E733682349022002F0DCFF3B78013349
:105F2000DBB23B709B009D5168E7955166E71E49C7
:105F3000032002F029FF2B8878E701F0B7FA022846
:105F40000BD1039B002B00D16EE71849013002F002
:105F50001BFF2B89039F029369E7002E00D163E7A3
:105F60001349032002F010FFAB88370002935EE76D
:105F700098F4020058F10200542500201C2500204E
:105F800048F2020083F20200442500200C25002084
:105F90002D260020422800203C3900200CEB020076
:105FA00025DF020077DF020097F10200CFF1020047
:105FB00010F20200F7B547490400032002F0E4FEA6
:105FC000FFF79AFD051E56D04349032002F0DCFE80
:105FD000A17A637A09021943E37A404A1B04194300
:105FE000237B3F481B060B43C8211360042309038E
:105FF000137103F0D5FEA17A637A09021943E37A9B
:10600000384A1B041943237B37481B060B43F021F6
:10601000136005234903137103F0C2FEA17A637A6A
:1060200009021943E37A314A1B041943237B3048A0
:106030001B060B438021136006230902137103F032
:10604000AFFE00231C002B4A9C540133102BFBD1C4
:10605000294E2A4D307882005359102B37D02849C9
:10606000284A01910094012825D92749012002F0EE
:1060700031FF0020FEBD254F254E38788200935910
:10608000042B16D023491F4A01910095012804D9F9
:106090001D49012002F01EFF9AE733681E490220C5
:1060A00002F018FF3B780133DBB23B709B009D513F
:1060B0008EE795518CE72B681749022002F00AFF02
:1060C00033780133DBB233709B005C51D1E754511C
:1060D000CFE7C04666ED020058F102003C250020E3
:1060E00054250020042500201C25002074250020B4
:1060F000842500202D260020412800203039002052
:106100003B0200000CEB020025DF020042280020C9
:106110003C3900202502000077DF0200F0B5404E38
:1061200087B03100032002F02FFE3E49032002F029
:106130002BFE3100032002F027FEFDF70BFE3A494B
:106140000200032002F03CFE962238495200032050
:1061500002F036FEDC2236499200032002F030FEC7
:10616000A0223449032002F02BFE334B03AD1B6801
:1061700032491A88032002F023FE2800FDF730FC84
:10618000EB886C880193002C47D02F883A002C496B
:10619000032002F015FE22002A49032002F010FE1F
:1061A000019B002B01D01C00AF883A002649032038
:1061B00002F006FE22002549032002F001FE05221E
:1061C0002349032002F0FCFD05222249032002F0AE
:1061D000F7FD214A2149032002F0F2FD204A21491E
:1061E000032002F0EDFDF8221F499200032002F087
:1061F000E7FD1E4A1E49032002F0E2FD1D4A1E492A
:10620000032002F0DDFD3100032002F0BDFD31006E
:10621000032002F0B9FD07B0F0BD3C241927B5E713
:1062200064F90200ACF90200F5F9020011FA02006B
:106230004DFA020082FA0200A4250020B5FA0200FD
:10624000D4FA020001FB020030FB02005DFB0200F9
:106250008CFB0200D2FB0200C92600001AFC0200DF
:10626000BAE800004AFC020075FC0200C107000009
:10627000A3FC020045170000CEFC020010B503206D
:10628000034902F081FDFFF749FF002010BDC04621
:10629000D2F0020010B50749032002F075FD04207A
:1062A0001223054A054902F09FFEFFF737FF002041
:1062B00010BDC04650F0020098350020DCE7020017
:1062C000F0B53B4C010AA170010CA279E170010EFE
:1062D0002171617912020A43E179030009040A433A
:1062E000217A85B0090611430F000A001937FF37DC
:1062F0002578607003970398824207D100952D4A54
:106300002D49032002F0B0FD01253DE05078561ADA
:1063100084466746907800023843D7783F040743A5
:1063200010790006384383423FD11078A8423CD10F
:106330008020A17A627A09021143E27A40021204B3
:106340001143227B12060A431900FDF7D1FEA27900
:10635000637912021A43E37920001B041A43237A5B
:106360001B0613439B199A79597912021143DA7962
:106370001B7A12040A431B0613439847051E06D0D6
:106380000E49042002F000FD280005B0F0BDA279FE
:10639000637912021A43E3791B041A43237A1B061A
:1063A00013439B195B7A2370EEE70A32A3E7C046DA
:1063B000522000209BE90200AAE9020082E90200C3
:1063C000044A13005072020A9A72020C000EDA722A
:1063D0001873704752200020074B08491A78002391
:1063E00098004058092805D10133DBB29A42F7D210
:1063F000002070470120FCE7002500208C3500209C
:1064000010B50320024902F0BFFC002010BDC046B9
:106410009FFE020010B50320024902F0B5FC0020E7
:1064200010BDC046E1FE020010B50320024902F093
:10643000ABFC002010BDC046F700030010B50320E0
:10644000024902F0A1FC002010BDC046DAFD0200A6
:1064500010B50320024902F097FC002010BDC04691
:1064600012FE020010B50320024902F08DFC00204C
:1064700010BDC046B1FD020010B50849032002F06E
:1064800083FC0749074B0A004B72190A9172190CD9
:106490001B0E0020D172137310BDC04688FD020090
:1064A0005F2000201839002010B51549032002F0A4
:1064B0006BFC144A144C937A517A1B020B43D17A29
:1064C000201D09040B43117B07220906194307F01D
:1064D0002FF8A2880D49042002F072FCE2880C49D2
:1064E000042002F06DFC22890A49042002F068FCB5
:1064F000A27A0949042002F063FC002010BDC046C6
:10650000ADFF02005F20002018390020DBFF0200F1
:1065100002000300240003004600030010B50C49EC
:10652000032002F031FC0B4904208A7A4B7A1202D4
:106530001A43CB7A1B041A430B7B07491B061343F0
:106540001A88064B5A8002F03BFC002010BDC04662
:10655000740003005F200020A5000300183900200C
:1065600010B50C49032002F00FFC0B4904208A7A75
:106570004B7A12021A43CB7A1B041A430B7B07494E
:106580001B0613431A88064B1A8002F019FC0020E0
:1065900010BDC0463EFE02005F20002074FE0200D7
:1065A0001839002010B50320034902F0EDFB02F07A
:1065B00035F8002010BDC0461DFF020073B51C4910
:1065C000032002F0E1FBFDF709FCFDF7D5FBFDF729
:1065D000C5FB02F02CF802F033F80320154902F055
:1065E000D3FB02F02CF8144E144C3078820013596F
:1065F000102B19D0D021124A0191012806D901206F
:106600001049009002F066FC002076BD012500953F
:1066100023680D49022002F05DFC33785B19DBB280
:1066200033709B001D51EFE701231351ECE7C04687
:1066300050FF02007CFF020041280020303900207A
:1066400098FF020025DF020077DF020030B5214904
:1066500085B0032002F098FB1F4D1022AB7A6C7AB4
:106660001B022343EC7A6846240423432C7B240634
:106670001C43210006F05CFF2B78042B1BD1E47B2C
:106680007B331C4000F012FF022817D180231C43EB
:106690006B46DC73039B00980199029AFCF7D2FECB
:1066A0000E4B1B78002B06D100F000FF02280AD108
:1066B0000420FCF7F3FE002005B030BD00F0F6FE2C
:1066C0000128E5D1E2E700F0F1FE0128F0D0032037
:1066D000EFE7C046CB0003005F20002040280020E9
:1066E000014B18707047C04640280020014B1878B5
:1066F0007047C04640280020F0B53A4C010AA1700E
:10670000010CA279E170010E2171617912020A4334
:10671000E179030009040A43217A85B0090611438F
:106720000F000A008C372578607003970398824227
:1067300007D100952C4A2D49032002F095FB012535
:106740003DE05078561A84466746907800023843F8
:10675000D7783F04074310790006384383423FD17E
:106760001078A8423CD18020A17A627A09021143B4
:10677000E27A800212041143227B12060A431900B6
:10678000FDF7B6FCA279637912021A43E37920007F
:106790001B041A43237A1B0613439B199A795979D0
:1067A00012021143DA791B7A12040A431B061343BF
:1067B0009847051E06D00E49042002F0E5FA28008D
:1067C00005B0F0BDA279637912021A43E3791B0484
:1067D0001A43237A1B0613439B195B7A2370EEE757
:1067E0000A32A3E75F200020F5FC0200AAE90200BC
:1067F00082E90200044A13005072020A9A72020CE3
:10680000000EDA72187370475F200020054A937AF1
:10681000507A1B020343D07A00040343107B000626
:10682000184370475F200020074B08491A7800235F
:1068300098004058102805D10133DBB29A42F7D2B4
:10684000002070470120FCE741280020303900205B
:1068500010B50320024902F097FA002010BDC0468F
:106860005E01030010B50549032002F08DFA0320F4
:10687000034902F089FA002010BDC0461602030049
:106880005802030010B50320034902F07DFA01F01D
:106890006DFF002010BDC046D801030010B50320D5
:1068A000034902F071FA01F051FF002010BDC0460B
:1068B00099010300F0B53A4C010AA170010CA279CC
:1068C000E170010E2171617912020A43E17903003E
:1068D00009040A43217A85B0090611430F000A0012
:1068E00028372578607003970398824207D1009576
:1068F0002C4A2D49032002F0B7FA01253DE05078DB
:10690000561A84466746907800023843D7783F0489
:10691000074310790006384383423FD11078A842DC
:106920003CD1C020A17A627A09021143E27A800246
:1069300012041143227B12060A431900FDF7D8FB0B
:10694000A279637912021A43E37920001B041A43E7
:10695000237A1B0613439B199A7959791202114322
:10696000DA791B7A12040A431B0613439847051E63
:1069700006D00E49042002F007FA280005B0F0BD49
:10698000A279637912021A43E3791B041A43237A2A
:106990001B0613439B195B7A2370EEE70A32A3E7C9
:1069A0006C20002028010300AAE9020082E902000D
:1069B000044A13005072020A9A72020C000EDA7234
:1069C000187370476C200020054A937A507A1B0296
:1069D0000343D07A00040343107B0006184370473A
:1069E0006C200020074B08491A7800239800405873
:1069F000042805D10133DBB29A42F7D20020704758
:106A00000120FCE7422800203C39002010B506494F
:106A1000032002F0B9F90122044B032004491A7043
:106A200002F0B2F9002010BD7004030044280020D9
:106A3000B204030010B50649032002F0A5F90222B2
:106A4000044B032004491A7002F09EF9002010BD87
:106A5000ED030300442800203504030010B5054968
:106A6000032002F091F90320034902F08DF9002080
:106A700010BDC046E60603003407030010B5054903
:106A8000032002F081F90320034902F07DF9002080
:106A900010BDC046B00303003407030010B5002446
:106AA0000749032002F070F9064803F0C5F9064BC8
:106AB000064903201C7002F067F9200010BDC04693
:106AC0009A080300582800204428002034070300B7
:106AD00070B505000F49032002F056F90E4C200056
:106AE00003F0AAF9A97A6B7A09021943EB7A0B4AE7
:106AF0001B0419432B7B20001B060B43F021136062
:106B000007238903137103F04BF90122044B002082
:106B10001A7070BDE404030058280020502800209B
:106B2000442800200122064B10B5064906481A7079
:106B300003F062FA002801D002F00CFE10BDC0463E
:106B40004A2900204C0903008C20002070B5040065
:106B50002249032002F018F9214803F06DF9214D74
:106B6000280003F069F9A17A637A09021943E37AEC
:106B70001D4A1B041943237B28001B060B43A0213D
:106B8000136006230903137103F00AF9174D280057
:106B900003F052F9A17A637A09021943E37A144A9D
:106BA0001B041943237B28001B060B43F0211360B1
:106BB00007238903137103F0F3F801220D4B1A70B8
:106BC000FCF772FF830702D50520FCF767FC0A4932
:106BD000032002F0D9F8002070BDC046A2060300D1
:106BE000B0280020E8280020D028002058280020C5
:106BF0004828002044280020B2040300F7B52649A5
:106C00000400032002F0C0F8244D25492A880320FF
:106C100002F0D6F82B88002B15D0A17A637A0902EE
:106C20001943E37A1F4A1B041943237B1E481B06A2
:106C30000B438021136004230902137103F0B0F8A1
:106C400000202880FEBD194803F0F6F8184E194CB4
:106C50003078820013590B2B1BD08821FF31164A44
:106C60000191012807D98539FF3900910120134985
:106C700002F030F9E4E70327009723681049022067
:106C800002F028F933780133DBB233709B001F51D7
:106C9000D6E703231351D3E766070300202900201A
:106CA000A6070300A8280020B02800208028002084
:106CB0004528002048390020DF07030025DF0200B7
:106CC00077DF0200F7B503680400002B08D01649EF
:106CD0000A004B72190A9172190C1B0ED1721373B0
:106CE000124E134D37782179BA0053590B2B19D016
:106CF0009820104A01900091012F06D90E4997382B
:106D000002F0E8F80B232371F7BD2B680B49022032
:106D100002F0E0F833780133DBB2337022799B0064
:106D20005A51EFE75151EDE77D2000204528002022
:106D300048390020DF07030025DF020077DF02006B
:106D4000F7B503680400002B08D016490A004B72FF
:106D5000190A9172190C1B0ED1721373124E134D36
:106D600037782179BA0053590B2B19D09720104A44
:106D700001900091012F06D90E49963802F0AAF829
:106D80000B232371F7BD2B680B49022002F0A2F8F8
:106D900033780133DBB2337022799B005A51EFE72D
:106DA0005151EDE77D200020452800204839002082
:106DB000DF07030025DF020077DF0200F7B5036875
:106DC0000400002B08D016490A004B72190A917270
:106DD000190C1B0ED1721373124E134D3778217993
:106DE000BA0053590B2B19D09620104A01900091EC
:106DF000012F06D90E49953802F06CF80B23237148
:106E0000F7BD2B680B49022002F064F83378013398
:106E1000DBB2337022799B005A51EFE75151EDE715
:106E20007D2000204528002048390020DF0703008E
:106E300025DF020077DF0200F7B503680400002BAE
:106E400008D016490A004B72190A9172190C1B0ED0
:106E5000D1721373124E134D37782179BA005359FA
:106E60000B2B19D09520104A01900091012F06D9C3
:106E70000E49943802F02EF80B232371F7BD2B68CE
:106E80000B49022002F026F833780133DBB233706D
:106E900022799B005A51EFE75151EDE77D20002008
:106EA0004528002048390020DF07030025DF0200C5
:106EB00077DF020010B5041E05D002000849042047
:106EC00001F07EFF10BD0749042001F05DFF064B75
:106ED00006491A78042001F073FF054B1C70F1E796
:106EE000DE0803001109030008290020300903000F
:106EF0004A290020094B0A491A68FA239B00C04618
:106F0000C046C046C046C046C046C046C0468A428B
:106F100000D0C046013BF2D17047C0460C21002092
:106F20000024F400F0B5514991B0032001F02CFF8A
:106F3000002104AC4E4B102220001970FBF766FFB5
:106F400005230493013B6360CC235B04A36003230C
:106F5000484D23730822484B2100280003F030F8E5
:106F6000002801D002F0F6FB0D23444A1370FFF70E
:106F7000D9FDFFF7BFFF424B1B78002B55D1414A8B
:106F800012784A2A5BD122003F49C1C9C1C2C1C996
:106F9000C1C2C1C9C1C2C1C9C1C2062221002800E3
:106FA00003F05AF82A23354A1370FFF7BBFDFFF7A9
:106FB000A1FF334B1B78002B3CD1324A3348117868
:106FC00001221143417002A90C002F483030C0C883
:106FD000C0C4280003F040F82D4A00212D4802F0DB
:106FE000C7FE2D4A00212D4802F0C2FE2C4A002186
:106FF0002C4802F0BDFE2C4A00212C4802F0B8FEBD
:107000002B4E2C4C3078820013590B2B2AD09F2109
:107010004900294A0191012816D9012027490090E9
:1070200001F058FF002011B0F0BD2549032001F008
:10703000ABFE9EE72249032001F0A6FEB7E72149F7
:10704000032001F0A1FEC7E70125009523681E4932
:10705000022001F03FFF33785B19DBB233709B00F5
:107060001D51DFE701231351DCE7C046FE07030093
:10707000442800208C2000202429002043280020C0
:107080004A29002008290020A802030079200020B6
:10709000396E0200A8030300BD6D0200AC030300BB
:1070A000416D0200A4030300C56C0200A0030300AD
:1070B0004528002048390020DF07030025DF0200B3
:1070C0003E0803005108030077DF020070B52F4926
:1070D0000400032001F058FE0C232D4E3370FFF7FF
:1070E00021FDFFF707FF2B4D2B78002B44D12A4BB6
:1070F0001B785B073AD516233370FFF713FDFFF7B4
:10710000F9FE2B78002B3CD1244D280002F094FE90
:10711000A17A637A09021943E37A214A1B041943CD
:10712000237B28001B060B438021136004230902E4
:10713000137102F035FE1B4D280002F07DFEA17A8E
:10714000637A09021943E37A174A1B041943237B24
:1071500028001B060B4380211360052309021371CD
:1071600002F01EFE114A13880133138010490320D8
:1071700001F00AFE002070BD0E49032001F004FE5C
:10718000AFE70C49032001F0FFFDB8E7C805030095
:10719000432800204A29002008290020B028002088
:1071A000A028002080280020782800202029002006
:1071B000170603003E08030070B51649032001F0CE
:1071C000E3FD0C23144D2B70FFF7ACFCFFF792FE90
:1071D000124C2378002B12D1114B1B785B070CD576
:1071E00016232B70FFF79EFCFFF784FE2378002BFD
:1071F0000AD10C4A138801331380002070BD0A495C
:10720000032001F0C1FDE1E70749032001F0BCFDC7
:10721000EAE7C04651060300432800204A2900201F
:1072200008290020202900203E08030070B52049CD
:107230000500032001F0A8FD0C231E4E3370FFF75C
:1072400071FCFFF757FE1C4C2378002B25D11B4BFC
:107250001B785B071FD516233370FFF763FCFFF71E
:1072600049FE2378002B1DD1154C200002F0E4FDCF
:10727000A97A6B7A09021943EB7A124A1B04194363
:107280002B7B20001B060B43A02113600623090360
:10729000137102F085FD002070BD0B49032001F041
:1072A00073FDCEE70849032001F06EFDD7E7C04625
:1072B0007F050300432800204A29002008290020D8
:1072C000E8280020D82800203E08030070B5204997
:1072D0000500032001F058FD0C231E4E3370FFF70C
:1072E00021FCFFF707FE1C4C2378002B25D11B4BFC
:1072F0001B785B071FD516233370FFF713FCFFF7CE
:10730000F9FD2378002B1DD1154C200002F094FDCF
:10731000A97A6B7A09021943EB7A124A1B041943C2
:107320002B7B20001B060B43A021136006230903BF
:10733000137102F035FD002070BD0B49032001F0F0
:1073400023FDCEE70849032001F01EFDD7E7C04624
:1073500030050300432800204A2900200829002086
:10736000E8280020E02800203E080300F0B53A4C51
:10737000010AA170010CA279E170010E21716179FD
:1073800012020A43E179030009040A43217A85B015
:10739000090611430F000A008C37257860700397A7
:1073A0000398824207D100952C4A2D49032001F011
:1073B0005BFD01253DE05078561A8446674690787B
:1073C00000023843D7783F0407431079000638435A
:1073D00083423FD11078A8423CD18020A17A627AC2
:1073E00009021143E27AC00212041143227B120601
:1073F0000A431900FCF77CFEA279637912021A4352
:10740000E37920001B041A43237A1B0613439B19BC
:107410009A79597912021143DA791B7A12040A43D4
:107420001B0613439847051E06D00E49042001F0A1
:10743000ABFC280005B0F0BDA279637912021A43B3
:10744000E3791B041A43237A1B0613439B195B7AC7
:107450002370EEE70A32A3E77D200020000303003B
:10746000AAE9020082E90200054A937A507A1B02D7
:107470000343D07A00040343107B0006184370478F
:107480007D200020074B08491A78002398004058B7
:107490000B2805D10133DBB29A42F7D200207047A6
:1074A0000120FCE74528002048390020014B1878CE
:1074B0007047C046442800201722F0B5194B1A4CDB
:1074C00087B01A70587002A923000A00383361CBC4
:1074D00061C2164D1B68280013600023022202F0CF
:1074E000BBFD2A22124B1A70FFF71CFBFFF702FDAF
:1074F000104B1B78002B10D10F4A10481178012235
:107500001143417020006C464830C0C8C0C4694671
:10751000280002F0A1FD07B0F0BD0949032001F0E9
:1075200033FCE3E748290020A80203008C20002058
:10753000432800204A290020082900207B20002021
:107540003E08030010B50849032001F01DFC07495F
:10755000074B0A004B72190A9172190C1B0E00207E
:10756000D172137310BDC046120A0300A42000207C
:107570004C29002010B504000E49032001F004FC42
:10758000A17A637A09021943E37A0B4A1B0419436F
:10759000237B0A481B060B43F02113600223490397
:1075A000137102F0FDFB172003F066FE03F012FDDD
:1075B000002010BD7A0A030058290020602900200D
:1075C00010B504000D49032001F0DEFBA17A637AB7
:1075D00009021943E37A0A4A1B041943237B094829
:1075E0001B060B43F021136002234903137102F0C1
:1075F000D7FB03F0EFFC002010BDC046E1090300FB
:107600005029002060290020F7B503680400002BF2
:1076100008D016490A004B72190A9172190C1B0EF8
:10762000D1721373124E134D37782179BA00535922
:10763000062B19D03020104A01900091012F06D955
:107640000E492F3801F046FC06232371F7BD2B6845
:107650000B49022001F03EFC33780133DBB233707A
:1076600022799B005A51EFE75151EDE7A420002009
:107670004E29002054390020C809030025DF0200EC
:1076800077DF02007FB52149032001F07DFB002157
:107690001F4A204802F06CFB032303A81E49037015
:1076A00003F06AFC002801D002F054F81B4803F0F4
:1076B00081FC01211A4803F093FC002801D002F05C
:1076C00049F8184E184C307882001359062B1AD0FE
:1076D0009921164A0191012807D9012014490090E7
:1076E00001F0F8FB002004B070BD0125009523686F
:1076F0001049022001F0EEFB33785B19DBB23370E6
:107700009B001D51EEE701231351EBE7460A0300EE
:1077100009760200C409030039770200B420002072
:107720004C2900204E29002054390020C8090300AC
:1077300025DF020077DF020073B504780500002C16
:107740001FD12B899C421DD3172003F09DFD0121E1
:10775000194803F045FC002801D001F0FBFF174E4B
:10776000174C307882001359062B22D04821154A35
:10777000019101280FD9453900910120124901F0EA
:10778000A9FB73BD6A6863009A5E1049032001F08B
:1077900017FB0134D5E70325009523680C49022027
:1077A00001F098FB33780133DBB233709B001D513D
:1077B000E7E703231351E4E74C2900204E2900207A
:1077C00054390020C809030025DF02006C090300BA
:1077D00077DF0200F0B53A4C010AA170010CA279E2
:1077E000E170010E2171617912020A43E17903000F
:1077F00009040A43217A85B0090611430F000A00E3
:1078000028372578607003970398824207D1009546
:107810002C4A2D49032001F027FB01253DE050783B
:10782000561A84466746907800023843D7783F045A
:10783000074310790006384383423FD11078A842AD
:107840003CD1C020A17A627A09021143E27AC002D7
:1078500012041143227B12060A431900FCF748FC6C
:10786000A279637912021A43E37920001B041A43B8
:10787000237A1B0613439B199A79597912021143F3
:10788000DA791B7A12040A431B0613439847051E34
:1078900006D00E49042001F077FA280005B0F0BDAB
:1078A000A279637912021A43E3791B041A43237AFB
:1078B0001B0613439B195B7A2370EEE70A32A3E79A
:1078C000A420002091090300AAE9020082E9020035
:1078D000054A937A507A1B020343D07A000403438B
:1078E000107B000618437047A4200020074B08496E
:1078F0001A78002398004058062805D10133DBB2DE
:107900009A42F7D2002070470120FCE74E29002060
:107910005439002028DF704710B50320024901F0D8
:1079200033FA002010BDC046E10B030010B5032060
:10793000024901F029FA002010BDC046CB0C03001B
:1079400010B50320024901F01FFA002010BDC04607
:10795000FB0C030010B50320024901F015FA0020CA
:1079600010BDC0463E0C030010B50320024901F0D3
:107970000BFA002010BDC0466D0C030010B50320AB
:10798000024901F001FA002010BDC046530B03006C
:1079900010B50949032001F0F7F9084B00241868D5
:1079A000FFF7B8FF0C23064A064907481460137115
:1079B00002F0F6F9200010BDB50B0300B829002035
:1079C00088290020CD0C000090290020F7B503681D
:1079D0000400002B08D016490A004B72190A917254
:1079E000190C1B0ED1721373124E134D3778217977
:1079F000BA0053590E2B19D03820104A019000912B
:107A0000012F06D90E49373801F064FA0E2323718D
:107A1000F7BD2B680B49022001F05CFA3378013383
:107A2000DBB2337022799B005A51EFE75151EDE7F9
:107A3000BC20002084290020603900203C0B03007A
:107A400025DF020077DF0200F0B5414A414D1268A0
:107A50002B6885B0934226D33F4E404C307882004D
:107A600013590E2B1CD0842149003D4A0191012855
:107A700008D9FF39009101203A4901F02BFA002082
:107A800005B0F0BD0925009523683749022001F0B3
:107A900021FA33780133DBB233709B001D51EEE7DE
:107AA00009231351EBE7827A447A12022243C47A03
:107AB000013324042243047B9B0024061443A28840
:107AC000181F216893423BD9032309181A4003A8C1
:107AD00005F02EFD0121254A254B99501100053A4C
:107AE000FF3A170098580028FCD02248039E0268ED
:107AF0001660DE59002EFCD000265E508026F6006F
:107B000099590029FCD004322B6802601A4A0133CB
:107B10002B601300104E5472220A9A723078220C95
:107B2000240E1C730D4CDA72820013590E2B0CD0EC
:107B30008C2149000A4A0191012804D9113998E79A
:107B400009180422C3E708259DE70823A9E7C046D2
:107B5000B4290020B02900208429002060390020A9
:107B60003C0B030025DF020077DF02000405000064
:107B700000E0014080290020BC200020F0B54A4AE6
:107B80004A4D12682B6887B0934227D3484E494C20
:107B90003078820013590E2B1DD0D021464A019116
:107BA00001280AD9CB3900910120444901F092F90A
:107BB00000232B60002007B0F0BD05270097236845
:107BC0003F49022001F086F933780133DBB233708C
:107BD0009B001F51ECE705231351E9E7827A447AB1
:107BE00012022243C47A374924042243047B012031
:107BF00024061443344A505003910539FF390F00CD
:107C00005658002EFCD0314E316808680590D05986
:107C10000028FCD00027039817508027FF00D05978
:107C20000028FCD0043131600133A2889B00191F69
:107C30002068934224D9032340181A4005A905F06F
:107C400077FC2B68224A01332B601300184E5472C4
:107C5000220A9A723078220C240E1C73154CDA72A8
:107C6000820013590E2B1CD0E121134A01910128E7
:107C700009D9DD3900910120104901F02BF999E76C
:107C800040180422DAE70425009523680C490220F5
:107C900001F020F933780133DBB233709B001D51C2
:107CA00088E70423135185E7B4290020B029002078
:107CB00084290020603900203C0B030025DF0200EE
:107CC00077DF02000405000000E001408029002069
:107CD000BC200020F7B5837A447A1B022343C47A80
:107CE000254924042343047B032024061C43A28843
:107CF00001F066F8214A224E13005472220A9A7249
:107D00003078220CDA721F4D220E1A7382005359FA
:107D10000E2B2CD0F7211C4A0191012819D9EF39DB
:107D200000910120194901F0D5F8194B1A68194B37
:107D30001B685343A26892009B18174A1360A188DE
:107D4000164A8B08890715D100201360144B186060
:107D5000FEBD082700972B681249022001F0BAF8EF
:107D600033780133DBB233709B005F51DDE70823CA
:107D70005351DAE70133E7E79B0C0300BC200020F6
:107D800084290020603900203C0B030025DF02001D
:107D9000BC290020B829002080290020B429002017
:107DA000B029002077DF0200F7B5837A447A1B02FE
:107DB0002343C47A254924042343047B0320240657
:107DC0001C43A28800F0FCFFA188214A8B08890788
:107DD00029D113601F4A204E13005472220A9A724E
:107DE0003078220CDA721D4D220E1A73820053591C
:107DF0000E2B28D0C1211A4A0191012815D9BD396D
:107E000000910120174901F065F80020164B1A680F
:107E1000164B1B685343A26892009B18144A1360C8
:107E2000144B1860FEBD0133D3E7042700972B687D
:107E30001149022001F04EF833780133DBB2337080
:107E40009B005F51E1E704235351DEE7100C030070
:107E5000B4290020BC2000208429002060390020A3
:107E60003C0B030025DF0200BC290020B8290020BC
:107E700080290020B029002077DF020073B51C495B
:107E8000032000F081FF80235B051A6919491A4815
:107E90000A605B691949013B0B605343184A002192
:107EA0001360184A01F064FF174E184C30788200B6
:107EB00013590E2B19D0A721154A0191012806D973
:107EC00001201449009001F005F8002076BD01253D
:107ED000009523681049022000F0FCFF33785B19FD
:107EE000DBB233709B001D51EFE701231351ECE728
:107EF000830B0300BC290020380B0300B8290020A5
:107F000080290020CD7902008429002060390020DA
:107F10003C0B030025DF020077DF020010B50320D1
:107F2000024900F031FF002010BDC046530B030092
:107F3000F0B53A4C010AA170010CA279E170010E72
:107F40002171617912020A43E179030009040A43AD
:107F5000217A85B0090611430F000A00823725787F
:107F6000607003970398824207D100952C4A2D49EF
:107F7000032000F079FF01253DE05078561A844631
:107F80006746907800023843D7783F04074310795A
:107F90000006384383423FD11078A8423CD1A0204C
:107FA000A17A627A09021143E27AC00212041143F3
:107FB000227B12060A431900FCF79AF8A27963792A
:107FC00012021A43E37920001B041A43237A1B068A
:107FD00013439B199A79597912021143DA791B7A62
:107FE00012040A431B0613439847051E06D00E4988
:107FF000042000F0C9FE280005B0F0BDA279637925
:1080000012021A43E3791B041A43237A1B06134313
:108010009B195B7A2370EEE70A32A3E7BC200020AD
:10802000AC0A0300AAE9020082E90200044A130034
:108030005072020A9A72020C000EDA7218737047BC
:10804000BC200020054A937A507A1B020343D07A61
:1080500000040343107B000618437047BC20002037
:10806000074B08491A780023980040580E2805D17C
:108070000133DBB29A42F7D2002070470120FCE7BF
:10808000842900206039002010B50549032000F044
:108090007BFE0320034900F077FE002010BDC046A0
:1080A000A40E0300D40E030010B5817A437A0902AE
:1080B0001943C37A134A1B041943037B04001B06AC
:1080C0000B431360022313710F4B1048196801F022
:1080D00067FEA17A637A09021943E37A0C4A1B040A
:1080E0001943237B0B481B060B43136003231371B7
:1080F000094B196801F054FE182003F0BDF8002068
:1081000010BDC046242A0020E02000202C2A002098
:10811000CC290020D4290020D820002010B5074900
:10812000032000F031FE064801F086FE054801F00C
:1081300083FE182003F0A8F8002010BD7A0E03007B
:108140002C2A0020D429002010B5182003F09CF818
:10815000002010BDF8B52F490400032000F014FEE4
:108160002D4F2121386804F043FF2C4902000420E0
:1081700000F026FE2A4E2121306804F039FF2949FB
:108180000200042000F01CFE274D2121286804F085
:108190002FFF26490200042000F012FEA17A637A24
:1081A00009021943E37A224A1B041943237B21481D
:1081B0001B060B43136002233968137101F0F0FDB5
:1081C000A17A637A09021943E37A1B4A1B04194313
:1081D000237B1A481B060B4313600323316813717A
:1081E00001F0DEFDA17A637A09021943E37A144AA9
:1081F0001B041943237B13481B060B431360042302
:108200002968137101F0CCFD182003F035F8002027
:10821000F8BDC046CA0D0300E0200020F50D0300A4
:10822000D8200020210E0300DC2000204D0E03008A
:108230001C2A00202C2A0020C4290020D429002038
:10824000F4290020FC29002010B50A49032000F081
:108250009BFD094A0021094801F08AFD084A0021D6
:10826000084801F085FD084A0021084801F080FD1A
:10827000002010BDA00D0300898302009C0D0300A7
:108280000D8302007C0D030091820200800D03002B
:10829000F7B503680400002B08D016490A004B729A
:1082A000190A9172190C1B0ED1721373124E134DD1
:1082B00037782179BA005359062B19D03720104A44
:1082C00001900091012F06D90E49363800F002FEC8
:1082D00006232371F7BD2B680B49022000F0FAFD3D
:1082E00033780133DBB2337022799B005A51EFE7C8
:1082F0005151EDE7C9200020C02900206C39002031
:10830000840D030025DF020077DF0200F7B5036864
:108310000400002B08D016490A004B72190A91720A
:10832000190C1B0ED1721373124E134D377821792D
:10833000BA005359062B19D03620104A01900091EB
:10834000012F06D90E49353800F0C4FD06232371EC
:10835000F7BD2B680B49022000F0BCFD33780133D8
:10836000DBB2337022799B005A51EFE75151EDE7B0
:10837000C9200020C02900206C390020840D030092
:1083800025DF020077DF0200F7B503680400002B49
:1083900008D016490A004B72190A9172190C1B0E6B
:1083A000D1721373124E134D37782179BA00535995
:1083B000062B19D03520104A01900091012F06D9C3
:1083C0000E49343800F086FD06232371F7BD2B6873
:1083D0000B49022000F07EFD33780133DBB23370AD
:1083E00022799B005A51EFE75151EDE7C920002057
:1083F000C02900206C390020840D030025DF020015
:1084000077DF0200014B18607047C046E020002073
:10841000014B18607047C046D8200020014B1860FF
:108420007047C046DC200020F0B53A4C010AA1702C
:10843000010CA279E170010E2171617912020A43E7
:10844000E179030009040A43217A85B00906114342
:108450000F000A0046372578607003970398824220
:1084600007D100952C4A2D49032000F0FDFC012581
:108470003DE05078561A84466746907800023843AB
:10848000D7783F04074310790006384383423FD131
:108490001078A8423CD1E020A17A627A0902114307
:1084A000E27AC00212041143227B12060A43190029
:1084B000FBF71EFEA279637912021A43E3792000CA
:1084C0001B041A43237A1B0613439B199A79597983
:1084D00012021143DA791B7A12040A431B06134372
:1084E0009847051E06D00E49042000F04DFC2800D8
:1084F00005B0F0BDA279637912021A43E3791B0437
:108500001A43237A1B0613439B195B7A2370EEE709
:108510000A32A3E7C92000202A0D0300AAE90200BD
:1085200082E90200074B08491A7800239800405856
:10853000062805D10133DBB29A42F7D200207047FA
:108540000120FCE7C02900206C3900203CDF704787
:1085500010B5002003F004FC002801D001F0FAF867
:1085600003F0B6FC002801D001F0F4F8FFF7EEFFAD
:10857000002801D001F0EEF810BD76DF70478ADFE9
:1085800070478BDF704710B501F0E4F810BD0000B4
:1085900073B5144E144C3078820013590B2B1DD038
:1085A000BB21124A019101280AD9B9390091012051
:1085B0000F4900F08FFC0F49032000F0E5FB73BD6D
:1085C0000225009523680C49280000F083FC3378CD
:1085D0000133DBB23370AB401D51ECE70223135182
:1085E000E9E7C0464528002048390020150F030060
:1085F00025DF02002D0F030077DF020010B503789E
:10860000002B08D1044B3B211888FFF7B6FF002848
:1086100001D001F09FF810BD7839002010B503207B
:1086200004F010F8002801D001F094F810BD10B546
:10863000FAF712FD002801D001F08CF810BD704748
:1086400010B588B001AC1C2200212000FAF7DEFB37
:10865000A02292026260F02200231203A260032291
:1086600001932374064B20006361064B2273A361C0
:1086700004F0CCF9002801D001F06CF808B010BD6E
:10868000FD85020087850200002310B5064A0521FA
:10869000180001F01BFB002801D001F05BF8034932
:1086A000032000F071FB10BD4C2A0020410F030095
:1086B00037B504000C4A0D49032003F05FFB002886
:1086C00001D001F047F86B46DD1D2900002003F0C2
:1086D00055FC002801D001F03DF82B78023B5A42AE
