:020000022000DC
:102C00000080002019E9020059E902005BE9020096
:102C100000000000000000000000000000000000B4
:102C20000000000000000000000000005DE902005C
:102C300000000000000000005FE9020061E90200FE
:102C40006DCA020063E9020015A80200E5D6020081
:102C500063E9020000000000FDD002003DCC02004C
:102C600063E9020063E9020063E9020063E902002C
:102C700063E9020063E9020063E9020063E902001C
:102C800063E902008DB4020063E9020063E9020017
:102C900049B5020063E90200F1EB020063E90200BA
:102CA00063E9020063E90200000000000000000088
:102CB0000000000000000000000000000000000014
:102CC00010B5064C2378002B07D1054B002B02D002
:102CD000044800E000BF0123237010BDD82200206B
:102CE000000000000C440300084B10B5002B03D07B
:102CF0000749084800E000BF07480368002B00D1DF
:102D000010BD064B002BFBD09847F9E700000000F0
:102D1000DC2200200C440300C4220020000000003C
:102D2000164B002B00D1144B9D46402292029A1A5A
:102D3000924600218B460F461348144A121A00F09F
:102D400065F80F4B002B00D098470E4B002B00D09E
:102D500098470020002104000D000D48002802D0F3
:102D60000C4800E000BF00F02DF82000290000F022
:102D700059F800F011F8C04600000800008000205B
:102D80000000000000000000D8220020083B0020C6
:102D90000000000000000000084B10B50400002BEC
:102DA00002D0002100E000BF054B1868836A002BA9
:102DB00000D09847200000F031F8C0460000000025
:102DC000440B030070B500260C4D0D4C641BA41081
:102DD000A64209D100260DF0A9FE0A4D0A4C641B3B
:102DE000A410A64205D170BDB300EB589847013638
:102DF000EEE7B300EB5898470136F2E7BC2200201B
:102E0000BC220020BC220020C02200200300821827
:102E1000934200D1704719700133F9E7FEE7C046CD
:102E200048DF7047F7B5002007F0E2FD8549040050
:102E3000032007F0F1FD8449032007F0EDFD8349ED
:102E4000032007F0E9FD002C02D0200008F07CFAF6
:102E500000207F4B0B2118707E4B7F4A18707F4BF0
:102E60001927187004231360536093607C4A10265E
:102E700010707C4A7C4C1160516091607B4A033138
:102E800010707B4A7B4D1160516091607A4A2760D7
:102E9000107006226760A7602E606E60AE60774992
:102EA0000A604A608A607649087076490A604A601A
:102EB0008A60754A1070754A13605360936004F01D
:102EC000D3FB00970196624B1B789A00A0581928F3
:102ED0000AD00099013BDBB2A150022B00D900239C
:102EE0005B4A137004F0C0FB5A4B1B789A00A85839
:102EF00010280AD00199013BDBB2A950022B00D95E
:102F00000023544A137004F0C7FD544B524A1B78F7
:102F10009900885804280AD00426013BDBB28E5061
:102F2000022B00D900234D4A137004F0B7FE4C4A1F
:102F30004C4913789E0070580B2809D00B27013B91
:102F4000DBB27750022B00D90023137005F02CFC64
:102F5000464A474913789E0070580E2809D00E271C
:102F6000013BDBB27750022B00D90023137006F02F
:102F700051FA414A414913789E007058062809D0F9
:102F80000627013BDBB27750022B00D900231370D8
:102F900005F060FE3A4A3B4913789E0070580628B7
:102FA00009D00627013BDBB27750022B00D9002362
:102FB000137006F0ADFC344A344913789E00705803
:102FC000042809D00427013BDBB27750022B00D93B
:102FD0000023137006F090FE04F0F6FB002800D0EA
:102FE00071E704F015FE002800D06CE704F012FF32
:102FF000002800D067E705F087FC002800D062E7D2
:1030000006F0C4FA002800D05DE705F0D3FE0028E2
:1030100000D058E706F02CFD002800D053E706F05A
:103020000DFF002800D04EE707F028FE002800D052
:1030300049E7FFF7F5FE002800D144E708F084F9DE
:1030400041E7C046480B03009B0B0300B50B030090
:103050004825002049290020B03A00204A290020B4
:103060004D290020BC3A002000370020902A002083
:10307000D43A0020A43A0020582A0020C83A002060
:10308000CC2A0020E03A0020582B0020EC3A002007
:10309000A0DF7047A6DF704763DF704730B5AE49E9
:1030A00089B0032007F0B8FC01220120AB4B52424B
:1030B000AB4C1A80AB49AC4B220088700B80FFF7F9
:1030C000E7FF002801D008F03FF9A849102204A822
:1030D0000DF0B6F8A64D04A82900FFF7DDFF002883
:1030E00001D008F031F9A34A2B7821880392A24A33
:1030F000A24802920222019203320092A04A07F0F3
:1031000091F9002801D008F01FF99E4A2B782188F8
:1031100003929D4A9D4802920222019292180092C7
:103120009B4A07F07FF9002801D008F00DF9994A71
:103130002B7821880392984A98480292072201929C
:10314000023A0092964A07F06DF9002801D008F083
:10315000FBF8944A2B7821880392934A9348029271
:1031600010220192073A0092914A07F05BF9002879
:1031700001D008F0E9F88F4A2B78218803928E4A13
:103180008E4802920C220192073A00928C4A07F074
:1031900049F9002801D008F0D7F88A4A2B7821880D
:1031A0000392894A894802920122019203320092D5
:1031B000874A07F037F9002801D008F0C5F8854A9A
:1031C0002B7821880392844A84480292102201922B
:1031D0000B3A0092824A07F025F9002801D008F046
:1031E000B3F8804A2B78218803927F4A7F48029265
:1031F000102201920B3A00927D4A07F013F9002841
:1032000001D008F0A1F87B4A2B78218803927A4AF2
:103210007A48029204220192033A0092784A07F017
:1032200001F9002801D008F08FF8764A2B78218820
:103230000392754A7548029201220192043200926B
:10324000734A07F0EFF8002801D008F07DF8714AC2
:103250002B7821880392704A7048029204220192CE
:1032600000926F4A07F0DEF8002801D008F06CF8F1
:103270006C4A2B78218803926B4A6C480292012297
:1032800001920B3200926A4A07F0CCF8002801D074
:1032900008F05AF8674A2B7821880392664A6748F3
:1032A00002920122019204320092654A07F0BAF8B4
:1032B000002801D008F048F8624A2B782188039250
:1032C000614A6248029202220192013A0092604AE7
:1032D00007F0A8F8002801D008F036F85D4A2B78EE
:1032E000218803925C4A5D48029210220192073ABB
:1032F00000925B4A07F096F8002801D008F024F805
:10330000584A2B7821880392574A58480292102233
:1033100001920B3A0092564A07F084F8002801D037
:1033200008F012F8534A21882B780392524A5348E6
:103330000292102201920B3A0092514A07F072F861
:10334000041E01D008F000F84E49032007F064FB8A
:10335000200009B030BDC046060D03004C200020FF
:10336000042400200624002000FFFFFFD90B0300E7
:103370000A24002034230020B8230020300D03004D
:1033800001FF000064230020EE2300203F0D030016
:1033900002FF00005C230020E7230020490D03000A
:1033A00003FF00006C230020F0230020500D0300D9
:1033B00004FF00003C230020BA230020650D030019
:1033C00005FF00000C23002080230020800D030057
:1033D00006FF00002423002098230020910D030005
:1033E00007FF00004C230020C7230020A50D030089
:1033F00008FF00001423002084230020B90D0300DF
:1034000009FF000044230020C6230020C80D03004C
:103410000AFF00007423002000240020DD0D0300BB
:103420000BFF0000F42200207C230020E70D0300A6
:103430000CFF0000FC2200207D230020FA0D030079
:103440000DFF0000042300207E230020060E030051
:103450000EFF00001C230020882300200E0E030016
:103460000FFF00002C230020A8230020210E0300C2
:1034700010FF000054230020D72300203A0E030041
:1034800011FF0000530E0300F0B510251627114E52
:103490008BB006AC00900191029269462A00300080
:1034A00003936F440CF0CCFE2A00002120003D80E5
:1034B000FFF7ACFC084B21001B88A7602380012389
:1034C000A3700023A380054BE6601888FFF7E2FD98
:1034D0000BB0F0BDF02300206C2300204C20002016
:1034E000F0B587B06B4601270C4D02AC2870102256
:1034F000002120009E1DDF80FFF788FC084B210083
:103500001B88A77023800023A380064BA660188821
:10351000E560FFF7BFFD07B0F0BDC0467C2300208B
:10352000F42200204C200020F0B5038885B0112B38
:103530002BD0502B3ED0102B14D1BD4E8288BD4BCA
:103540003078BD4C1A8082001359102B1AD03721C5
:10355000BA4A0191012807D934390091B8490120AC
:1035600007F000FB05B0F0BD032500952368B549C1
:10357000022007F0F7FA33780133DBB233709B0097
:103580001D51EFE703231351ECE70122A84EA94B8D
:1035900030785242A84C1A8082001359102B07D061
:1035A0004521A64A019141390128D6D80425DCE7F6
:1035B0000423E8E7A44AC38812889A421BD1FF205B
:1035C000FFF78EFFA14803887F2B01D97F2303805B
:1035D00004F004FB964E984C307882001359102B5F
:1035E00007D05A21954A0191052555390128B4D8AB
:1035F000BBE70523C7E7964A12889A421CD1FF20F1
:10360000FFF76EFF934803887F2B01D97F23038048
:1036100004F0E4FA864E884C307882001359102B5F
:1036200008D06521854A019106255F39012800D916
:1036300093E79AE70623A6E7874A12889A4214D1AD
:10364000864804F0CBFA7A4E7B4C307882001359CE
:10365000102B08D06D21794A019107256639012880
:1036600000D97AE781E707238DE77D4A11889942DF
:1036700000D177E792889A4200D173E7794A12889D
:103680009A4211D16A4E6C4C307882001359102B3B
:1036900008D07A21694A01910B256F39012800D998
:1036A0005BE762E70B236EE76F4A12889A4214D1F8
:1036B0006E4804F093FA5E4E5F4C307882001359E6
:1036C000102B08D081215D4A019108257939012804
:1036D00000D942E749E7082355E7654A12889A422C
:1036E00000D13FE7634A12889A4200D13AE7624A22
:1036F00012889A4211D14E4E4F4C307882001359A5
:10370000102B08D091214D4A01910A2587390128B3
:1037100000D922E729E70A2335E7584A12889A4256
:1037200011D1434E444C307882001359102B08D0ED
:103730009721424A019109258E39012800D90CE7C9
:1037400013E709231FE74E4A12889A4200D009E77F
:10375000831D03931F7B022F25D10124494B1B7826
:10376000234220D04849032007F056F98020000268
:1037700006F0BCF88020400206F0BEF8C0208002AF
:1037800006F0C0F8414E424D307882005359062B66
:103790004AD0A321294A01910094A04238D928494E
:1037A000200007F0DFF9039B1B7B062B00D0D9E636
:1037B0000124344B1B78234200D1D3E63549032042
:1037C00007F02AF98020000206F090F880204002DD
:1037D00006F092F8C020800206F094F82B4E2C4D93
:1037E000307882005359062B20D0AB21134A019127
:1037F0000094A04200D9B1E62B681249022007F0DC
:10380000B1F933780133DBB233709B005C51A9E628
:103810002B680C49380007F0A5F933780133DBB287
:1038200033709B005C51BEE75451BCE7545199E69C
:10383000492900204C200020A43A0020E90B030075
:103840000A0C03005C0C030034230020B823002082
:1038500064230020EE2300205C230020E7230020C7
:103860006C2300203C2300200C2300208023002018
:10387000242300204C230020442300207423002014
:10388000F42200207D230020A60C0300CC2A002077
:10389000E03A0020D70C0300F0B510251627114E92
:1038A0008BB006AC00900191029269462A0030006C
:1038B00003936F440CF0C4FC2A00002120003D80DB
:1038C000FFF7A4FA084B21001B88A760238001237F
:1038D000A3700023A380054BE6601888FFF7DAFB8E
:1038E0000BB0F0BD882300201C2300204C200020BA
:1038F00010B504000C2202490CF0A2FC200010BDFF
:10390000BA2300207FB51025094E04002A0031009B
:1039100068460CF095FC7F22F37B694613406A46AB
:103920002000D3732A000CF08BFC200004B070BD83
:10393000982300207FB51025094E04002A0031008D
:1039400068460CF07DFC7F22F37B694613406A4693
:103950002000D3732A000CF073FC200004B070BD6B
:10396000C72300207FB51025094E04002A0031002E
:1039700068460CF065FC7F22F37B694613406A467B
:103980002000D3732A000CF05BFC200004B070BD53
:10399000F0230020014B18887047C046B823002050
:1039A000014B18887047C046EE230020014B186871
:1039B0007047C04600240020014B18787047C0466D
:1039C0007D230020014B18787047C046C623002095
:1039D0007FB51025094E04002A00310068460CF01E
:1039E0002FFC7F22F37B694613406A462000D37385
:1039F0002A000CF025FC200004B070BDA823002094
:103A00007FB51025094E04002A00310068460CF0ED
:103A100017FC7F22F37B694613406A462000D3736C
:103A20002A000CF00DFC200004B070BDD72300204C
:103A30001FB501900291039201A90C2202480CF0DB
:103A4000FFFB05B000BDC046BA230020014B186043
:103A50007047C04684230020014B18807047C04641
:103A60007E230020014B18807047C046B8230020F9
:103A700007B5072200900191024869460CF0E0FB6F
:103A800007BDC046E7230020014B18707047C046B1
:103A9000C62300201FB5029203935A006B46520EB4
:103AA000009001910348DA73694610220CF0C8FBBC
:103AB00005B000BD982300201FB5029203935A0061
:103AC0006B46520E009001910348DA73694610224A
:103AD0000CF0B6FB05B000BDC72300201FB5029255
:103AE00003935A006B46520E009001910348DA731B
:103AF000694610220CF0A4FB05B000BDF0230020A5
:103B0000014B18707047C0467D23002073B50388B1
:103B10001D2B20D10622037C134093421BD10100B0
:103B2000164C1832113120000CF08AFB200004F0F2
:103B300057F9134E134C307882001359042B19D0C7
:103B40003921114A0191012806D937390091012004
:103B50000E4907F007F873BD0225009523680C494C
:103B6000280006F0FFFF33780133DBB23370AB403F
:103B70001D51F0E702231351EDE7C0460B2400204E
:103B80004A290020B03A0020790E03000A0C0300F5
:103B90005C0C030078DF70477ADF70477CDF70478A
:103BA00070470000004870470C25002010B50449FC
:103BB00004480AF0AFFE002801D007F0C5FB10BD95
:103BC000A13B0200FC24002070B59AB00BAC3C2253
:103BD00000212000FFF71AF9022323700433E37059
:103BE000104B012663618023626A03ADDB00A6707F
:103BF00026820021138028002022FFF707F9962350
:103C000000215B002B61EE706961074B00912A0077
:103C100020000AF0D9FA002801D007F095FB1AB06D
:103C200070BDC0464E200020D93D0200112330B5A2
:103C300085B001AD2B701A4B1A4C1B681A4A1B49F0
:103C40009BB220000CF038FB20000CF057FB210049
:103C500082B22800FFF7A2FF002801D007F074FB12
:103C60000020FFF797FF002801D007F06DFB02ACA2
:103C7000082200212000FFF7C9F8202323801833F1
:103C800063800023A3809133FF332000E380FFF79C
:103C900083FF002801D007F057FB05B030BDC046B8
:103CA000A40000100C250020A40E03009A0E0300AF
:103CB0007FB518490422063168460CF0C1FA00238A
:103CC000D022154968460AF049FF002801D007F0C4
:103CD0003BFB01AA012100200AF09AFF002801D035
:103CE00007F032FB01A80AF0ABFF002801D007F073
:103CF0002BFB0A480AF068FF002801D007F024FBDC
:103D000007480AF06BFF002801D007F01DFB07B041
:103D100000BDC0469A0E03002C240020133E020072
:103D2000413E020076DF7047A8DF704767DF7047CB
:103D30001FB503880400112B23D004D8022B28D0F0
:103D4000102B0FD01FBD512B29D0552B01D03A2B52
:103D5000F8D1A0881321FFF7E5FF0028F2D007F083
:103D6000F3FAEFE70320194906F056FE072009F0A1
:103D700075FE002801D007F0E7FAA288144B1A80DC
:103D8000E0E7027A1349032006F062FE0122524264
:103D9000F4E70F4B00211888FFF7C8FFDDE78379B0
:103DA000002BCFD0827B043A022ACBD8022B0AD137
:103DB0006A461370C1236A465B009380A0886946F7
:103DC000FFF7B2FFC9E70123F2E7C0460D0F03007A
:103DD0001A250020230F030010B500280CD003285B
:103DE00009D1074906F018FE022009F037FE002825
:103DF00001D007F0A9FA10BD06F0AAF8FBE7C0460B
:103E0000F00E0300038810B5112B01D00AF0AEFBB1
:103E100010BD10B504000AF005FD20000AF0ACFC4E
:103E2000200009F0E5FE2000FFF782FF2000FFF7E9
:103E30007BFB2000FFF7E6FF2000FFF767FE10BDC9
:103E400010B5040008F0A6FC20000AF0C5FB10BD68
:103E500073B50E2802D00F281CD073BD03201F4954
:103E600006F0DAFD1E4E1F4C307882001359192BD4
:103E70000DD08221490001911B4AFB3909250128F7
:103E80001DD900910120194906F06CFEE5E70923D0
:103E90001351E2E70320164906F0BEFD104E114C07
:103EA000307882001359192B16D0852149000E4A0B
:103EB0000191012802D90139FF39E2E70A2500956D
:103EC00023680C49022006F04DFE33780133DBB243
:103ED00033709B001D51C0E70A23D9E7AD0E0300E4
:103EE0004825002000370020C30E03000A0C030001
:103EF000DA0E03005C0C03008023F7B5DB02984266
:103F000000D102E109D880239B02984226D0C02329
:103F10009B02984200D1B0E0F7BDC023DB0298427B
:103F200000D1E0E0E023DB02984200D13DE1A02394
:103F3000DB029842F0D1012900D0B0E005F018FB77
:103F400003F036FCC54FC64D3878C64E8200535933
:103F5000192B00D1F6E0C44A282110E0012918D11C
:103F600003F048FE03F024FCBC4FBD4D3878BF4E33
:103F700082005359192B00D1E4E01921BA4A01916A
:103F80000096012800D8D1E0B949012006F0EAFDE9
:103F9000C2E704291ED103F02DFE03F009FCAF4E49
:103FA000AF4C3078B34D82001359192B00D10EE17C
:103FB0001A21AD4A019100950128E5D82368AE4940
:103FC000022006F0CFFD33780133DBB233709B0063
:103FD0001D51A1E7072900D0FBE003F00BFE03F021
:103FE000E7FB9E4E9E4C3078A44D82001359192B4E
:103FF00000D1ECE09C4A1B21DCE703F0FBFD03F061
:10400000D7FB964E964C30789D4D82001359192B54
:1040100000D1DCE0944A1C21CCE703F0EBFD03F077
:10402000C7FB8E4E8E4C3078964D82001359192B5B
:1040300000D1CCE08C4A1D21BCE703F0DBFD03F08E
:10404000B7FB864E864C30788F4D82001359192B62
:1040500000D1BCE0844A1E21ACE703F0CBFD03F0A5
:10406000A7FB7E4E7E4C3078884D82001359192B69
:1040700000D1ACE07C4A1F219CE7022900D04BE72D
:1040800003F0BAFE03F094FB744F754D3878804E00
:1040900082005359192B55D0734A24216FE7052903
:1040A0000FD105F065FA03F083FB6C4E6C4C307851
:1040B000784D82001359192B00D188E06A4A2921D2
:1040C00078E70C2900D0A2E005F052FA03F070FB6B
:1040D000624E634C3078704D82001359192B76D0A4
:1040E000614A2A2166E7032900D015E704F054FE4F
:1040F00003F05EFB594E5A4C3078684D82001359DC
:10410000192B64D0584A2F2154E701291CD104F0FF
:10411000EDFB03F04DFB514F514D3878604E82005E
:104120005359192B0ED0504A342128E72B68524995
:10413000022006F017FD3B780133DBB23B709B0099
:104140005E51E9E65651E7E608290ED104F0CEFBB0
:1041500003F02EFB414E424C3078524D82001359F1
:10416000192B34D0404A352124E7062961D104F0C7
:10417000BDFB03F01DFB394E394C30784A4D8200AF
:104180001359192B23D0384A362113E704F0AEFB1C
:1041900003F00EFB314E324C3078444D82001359FF
:1041A000192B14D0304A372104E7042900D0B3E694
:1041B00005F050FC03F0FCFA284E294C30783C4DB9
:1041C00082001359192B02D0274A3D21F2E61551DE
:1041D000A2E6062900D110E7082900D11DE7092928
:1041E00000D12AE70A2900D137E70B2900D093E64E
:1041F00003F000FD03F0DCFA184E194C30782D4D19
:1042000082001359192BE2D0174A2021D2E609293E
:1042100000D081E605F0ACF903F0CAFA0F4E104C5D
:104220003078254D82001359192BD0D00E4A2B21FE
:10423000C0E60529AAD0072900D06DE604F056FB98
:1042400003F0B6FA054E064C30781C4D8200135927
:10425000192BBCD0044A3821ACE6C04648250020C2
:104260000037002001000500470F03000100020095
:104270000A0C0300040002005C0C030007000200AB
:104280000600020008000200090002000A00020005
:1042900002000300050005000C00050003000600F5
:1042A00001000400080004000600040005000400EA
:1042B000040007000B0002000900050007000400CD
:1042C000BFF34F8F034A044BDA60BFF34F8FC046F2
:1042D000FDE7C0460400FA0500ED00E011DF70477D
:1042E00013DF704710B50320024906F095FB00204C
:1042F00010BDC0463919030010B50320024906F06D
:104300008BFB002010BDC0466E25030010B50320B6
:10431000024906F081FB002010BDC0462B2503009A
:1043200010B50320034906F077FB0122024B002061
:104330001A7010BD4B1D03001C25002010B5044948
:10434000032006F069FBFE20FFF7CAF8002010BD2D
:104350001C170300F7B503680400002B08D01649AA
:104360000A004B72190A9172190C1B0ED172137349
:10437000124E134D37782179BA005359192B19D0A1
:10438000AA20104A01900091012F06D90E49A938A0
:1043900006F0E8FB19232371F7BD2B680B490220B7
:1043A00006F0E0FB33780133DBB2337022799B00F7
:1043B0005A51EFE75151EDE75820002048250020E1
:1043C00000370020D01203000A0C03005C0C03002D
:1043D000F7B503680400002B08D016490A004B7299
:1043E000190A9172190C1B0ED1721373124E134DD0
:1043F00037782179BA005359192B19D0A920104ABE
:1044000001900091012F06D90E49A83806F0AAFBA9
:1044100019232371F7BD2B680B49022006F0A2FB7C
:1044200033780133DBB2337022799B005A51EFE7C6
:104430005151EDE75820002048250020003700208A
:10444000D01203000A0C03005C0C0300F7B50368EC
:104450000400002B08D016490A004B72190A917209
:10446000190C1B0ED1721373124E134D377821792C
:10447000BA005359192B19D0A820104A0190009165
:10448000012F06D90E49A73806F06CFB19232371BA
:10449000F7BD2B680B49022006F064FB337801332B
:1044A000DBB2337022799B005A51EFE75151EDE7AF
:1044B000582000204825002000370020D01203009B
:1044C0000A0C03005C0C0300F7B503680400002B22
:1044D00008D016490A004B72190A9172190C1B0E6A
:1044E000D1721373124E134D37782179BA00535994
:1044F000192B19D0AD20104A01900091012F06D937
:104500000E49AC3806F02EFB19232371F7BD2B683A
:104510000B49022006F026FB33780133DBB23370FF
:1045200022799B005A51EFE75151EDE758200020C6
:104530004825002000370020D01203000A0C030099
:104540005C0C0300F7B503680400002B08D0164983
:104550000A004B72190A9172190C1B0ED172137357
:10456000124E134D37782179BA005359192B19D0AF
:10457000AC20104A01900091012F06D90E49AB38AA
:1045800006F0F0FA19232371F7BD2B680B490220BE
:1045900006F0E8FA33780133DBB2337022799B00FE
:1045A0005A51EFE75151EDE75820002048250020EF
:1045B00000370020D01203000A0C03005C0C03003B
:1045C000F7B503680400002B08D016490A004B72A7
:1045D000190A9172190C1B0ED1721373124E134DDE
:1045E00037782179BA005359192B19D0AB20104ACA
:1045F00001900091012F06D90E49AA3806F0B2FAAF
:1046000019232371F7BD2B680B49022006F0AAFA83
:1046100033780133DBB2337022799B005A51EFE7D4
:104620005151EDE758200020482500200037002098
:10463000D01203000A0C03005C0C0300F7B5040061
:104640001D49032006F0E8F91C4E1D4D307882000C
:104650005359062B2DD0FD21C9001A4A019101287A
:1046600019D9042101200091174906F07BFAA17A9B
:10467000637A09021943E37A144A1B041943237B22
:1046800013481B060B4313600D231249137107F0E7
:1046900081F90020FEBD042700972B680E490220F7
:1046A00006F060FA33780133DBB233709B005F5160
:1046B000DDE704235351DAE717150300CC2A002065
:1046C000E03A0020D01203000A0C03008C250020E1
:1046D0009C250020CD0C00005C0C030010B50400EC
:1046E0000D49032006F098F90120FEF7F9FEA17AA2
:1046F000637A09021943E37A084A1B041943237BAE
:1047000007481B060B4313600C230649137107F07F
:1047100041F9002010BDC046911403004C25002033
:104720005C250020CD0C000010B5817A437A090287
:104730001943C37A094A1B041943037B08481B0623
:104740000B438021136007230902137107F022F93C
:10475000044A002013680133136010BD7426002042
:104760007C260020FC3600200D49032010B506F001
:1047700053F90C49032006F04FF906F07FFA0028A0
:10478000FBD10123D820084A5B42D367074A400285
:10479000D367FFF7A5FDFFF7A1FDFFF791FDC04629
:1047A00086160300BE16030004E100E008E100E005
:1047B0000D49032010B506F02FF90C49032006F02F
:1047C0002BF906F05BFA0028FBD10123D820084A18
:1047D0005B42D367074A4002D367FFF781FDFFF7CB
:1047E0007DFDFFF76DFDC04684280300BE16030063
:1047F00004E100E008E100E010B50549032006F0FF
:104800000BF904F0C9FA0088FFF726F9002010BD63
:10481000BA18030073B52849032006F0FDF804F028
:10482000BBFA0400438802882449032006F036F9C5
:104830006388234A13802188224A603BFF3B118012
:10484000302B26D82049032006F0E6F823881F4A9B
:104850009A18712A1DD81E4A12889B1A0A2B18DD35
:104860001C49032006F0D8F81B4807F0DFF81B4E60
:104870001B4C307882001359192B1AD019491A4A47
:104880000191012807D9142101200091174906F050
:1048900069F9002076BD142500952368144902208B
:1048A00006F060F933780133DBB233709B001D51A1
:1048B000EFE714231351ECE73922030083220300AE
:1048C000A6260020A4260020B22203007BFCFFFFC6
:1048D0001E250020D52203004C260020482500205C
:1048E000003700208F040000D01203000A0C0300E0
:1048F0005C0C0300F0B5564989B0032006F08CF833
:1049000003F07AFA002405000726524B1B681B8827
:10491000A34246D804F00CF804AC022800D07DE095
:104920002000FEF7EFFFFFF735F80122C308DBB2E6
:10493000039307231500FF2103409D408C4600236D
:10494000013DEDB2591CC9006646814200DD2E00D2
:104950004149CF5CE15C0133B94331404E424E41A5
:1049600003997642DBB232409942EBD2002A15D04D
:1049700003203A4906F050F8394E3A4C307882001C
:104980001359192B61D03849384A019101284ED961
:10499000052101200091364906F0E4F8002009B015
:1049A000F0BD6B79334A9C46330067466343985C9D
:1049B000D318A9795A780902120239430243914265
:1049C00029D16A7EA97E94466746DA7898780902EA
:1049D00012023943024391421DD119792A7F5B7932
:1049E000E87E12021B0202430B439A4213D12300BA
:1049F00001203340984003001749E208885C0343D4
:104A00008B541D4AA30011681C4A032099502200B0
:104A10001B4906F01DF80134A4B276E703F088FFC5
:104A2000012800D17CE72000FEF784FF7BE7052505
:104A3000009523681349022006F094F83378013377
:104A4000DBB233709B001D51A8E705231351A5E786
:104A50005E1303009C26002038270020C9130300A2
:104A60004825002000370020F3060000D012030084
:104A70000A0C03000C370020FC36002048270020D9
:104A80009C1303005C0C030010B50549032005F0DE
:104A9000C3FFFEF797FF03F051FF002010BDC04693
:104AA000192A0300F0B5002585B03749032005F029
:104AB000B3FF364C3649236803205A8805F0C8FFF7
:104AC000236834499A88032005F0C2FF23683249DD
:104AD000DA88032005F0BCFF236830491A890320D7
:104AE00005F0B6FF23682E499A7A032005F0B0FF3F
:104AF000FEF756FF2A0021682A4E0B880390029386
:104B0000029893B2019383420BD3002D2BD0032044
:104B1000254905F081FFFA20FEF7E2FC002005B0F0
:104B2000F0BD072353439C5DF318A44660465C78B0
:104B30008F8824020443A74212D1DC789878CF886A
:104B400024020443A7420BD11C795B790F891B0215
:104B500023439F4204D1019B0398984200D0012532
:104B60000132D2B2CCE707224B880E4853430431BE
:104B7000C0180BF065FBFF20FEF7B2FC0B490320C9
:104B800005F04AFFCAE7C046C22A03009C2600205F
:104B9000FE2A0300282B0300532B0300792B03006C
:104BA0009F2B03000C370020D12B03000A2C03009D
:104BB00010B51349032005F02FFFFEF7F1FE114B4E
:104BC0008000C058FEF742FFFEF7EAFE072250437E
:104BD0000D4BC15C1B185A78987812020A430004E6
:104BE0000243D8785979000610431A7909020A431A
:104BF000997909041143FEF73BFF002010BDC04620
:104C00002F2C0300482700200C37002010B50A493C
:104C1000032005F001FFFEF7C9FE084C206003F0F9
:104C200087FE2030C0B2FEF75BFC226804490320F7
:104C300005F00EFF002010BD6E2C0300FC36002096
:104C4000AD2C0300F0B5E3499FB0032005F0E4FE6E
:104C500002F0D0FF0478012C56D1DF49032005F083
:104C6000DBFEE02200219200DC48FEF7CFF80021B5
:104C7000DB4D0C22286801800B30FEF7C7F82A684C
:104C80001300D07A127BD97B12020243587B1D7D20
:104C900000040243987B2D02000610431A7C120286
:104CA0000A43597C09040A43997C09061143DA7CBA
:104CB00015435A7D120415439A7D12062A43FEF7C6
:104CC000B7FEC84EC84D3078820053590E2B3BD0EA
:104CD000C649C74A0191012806D90B21012000913C
:104CE000C44905F03FFF0CE00B2400942B68C24937
:104CF000022005F037FF33780133DBB233709B00BD
:104D00005C5100201FB0F0BD022C20D10320BB4914
:104D100005F082FEB34EB44D3078820053590E2B0D
:104D200012D0B749B24A01910128D6D80B27009773
:104D30002B68B149200005F015FF33780133DBB251
:104D400033709B005F51DCE70B235351D9E7032CF1
:104D500015D1AC49200005F05FFE05F08FFF00285B
:104D6000FBD10123D820A84A5B42D367A74A40025F
:104D7000D367FFF7B5FAFFF7B1FAFFF7A1FA042CF2
:104D800000D049E1FEF70CFE0700FEF703FE3A00F3
:104D900002909F49032005F05BFE029BFCB20725B1
:104DA0009F4211D3FB20CEE028002B00661C7343EA
:104DB00060432A000818C9180BF042FA954BB2005C
:104DC000D258A400E250F4B2029B8449581E844297
:104DD000EADB002365438F4A4B55A4004D19A350CD
:104DE0006B70AB70EB702B716B717D4B80B21B687D
:104DF0001880FEF737FE12A8FEF79CFD129B16A83E
:104E00000693139B0793149B0493159B1093FEF733
:104E100079FD169B1AA80A93179B0B93189B0C936A
:104E2000199B0D93FEF79EFD1A9B08931B9B0993FC
:104E30001C9B0E931D9B0F9301233F2F00D985E0F0
:104E40001E00BE40013EF2179446FF18BB40654667
:104E5000069F5C4227400799E3177A08069F19408E
:104E6000C807374002433800079F11932F404B0873
:104E7000390012184B4104990692C9070B43049A52
:104E80000793109B5208DB071A430A9F109B274089
:104E90000B995B08029203937A08E3170A9F194063
:104EA000C8073740024338000B9F4B082F4039009A
:104EB00012184B410C990A92C9070B430B930C9A99
:104EC0000D9B5208DB071A430D9B04925B08059368
:104ED000089B119D1C406208089C099B34402000DF
:104EE00064461D40E9076B08099D0A432C402100D8
:104EF00012184B410E990892C9070B4309930F9B57
:104F00000E9ADB0754081C430F9B5D08049E059F07
:104F1000189619970B99049A0A98199BFEF7BAFDEF
:104F2000029E039F149615970799029A0698159B5F
:104F3000FEF7C2FD1C941D950898099922001D9B3F
:104F4000FEF7CCFDFF20FEF7CBFADAE63F221E008B
:104F50003A40964001329340109C5B42DA1714406D
:104F600011920499049A013E19403240E50748081D
:104F700061081400109AF7173A40284315000C9A5C
:104F8000001969411A40944602900391119A0D99B3
:104F90001140624654080C9AC8073240044310007E
:104FA0000D9A4D083A40110024184D410E9A11995E
:104FB00013400F9A58080E9B1140049405953340F6
:104FC000CC0720431C000F9B49083B401D002418C0
:104FD0004D419BE78D150300D31503000C370020CE
:104FE0009C260020902A0020D43A002009060000C8
:104FF000D01203000A0C03005C0C0300FE15030032
:105000000D060000BE16030004E100E008E100E028
:105010003016030048270020052C00D071E603203D
:10502000134905F0F9FC0120124E134B3578134C4F
:10503000AA0018701359192B16D01149114A019161
:10504000854203D9062100910F494AE606250095BD
:1050500023680E49022005F085FD33780133DBB269
:1050600033709B001D514CE60623135149E6C046A0
:105070005916030048250020A826002000370020EC
:105080006C060000D01203000A0C03005C0C030045
:1050900073B53F49032005F0BFFC02F0ABFD3D4B6B
:1050A0003D4E186030783D4C82001359102B4AD089
:1050B0003B493C4A0191012837D902210120009146
:1050C000394905F04FFDD4235B0300938022A023D0
:1050D000B4209B0252028003022103F04DFB334EA9
:1050E000334C3078820013590B2B3DD031492D4A77
:1050F000019101282AD90021012000912A4905F0B7
:1051000031FD2D4E2D4C3078820013590E2B3CD0A2
:105110002B49244A0191012829D90021012000911D
:10512000214905F01FFD002076BD0225009523686A
:105130002449280005F016FD33780133DBB23370C3
:10514000AB401D51BFE702231351BCE7002500957A
:1051500023681C49022005F005FD33780133DBB2DA
:1051600033709B001D51CCE700231351C9E7002584
:10517000009523681349022005F0F4FC33780133CD
:10518000DBB233709B001D51CDE700231351CAE7FA
:10519000181403009C26002049290020A43A00206E
:1051A00093050000D01203000A0C03004D290020D3
:1051B000BC3A00209A050000902A0020D43A002032
:1051C0009C0500005C0C030070B50B2486B06C4499
:1051D00007F070FF200004F0F5FF05F087F8237852
:1051E000002B03D05349032005F016FC524A00213E
:1051F000524806F0B7FB524A0021524806F0B2FB73
:10520000514A0021514806F0ADFBE02200219200F6
:105210004F48FDF7FBFD8022002192004D48FDF72D
:10522000F5FD802200214C48FDF7F0FD1220FEF72D
:105230002BFC0320FEF764FC192203AB1A80013219
:105240005A800E329A80A032DA80A53A1A8124322E
:105250005A810398059A0499FEF7EAFB3F4E404CA9
:10526000307882001359062B3FD03E493E4A0191C7
:1052700001282CD90021012000913C4905F072FC45
:105280003B4E3C4C307882001359062B3ED03A49B5
:10529000354A019101282BD9002101200091334981
:1052A00005F060FC354E364C307882001359192BCE
:1052B0003DD034492C4A019101282AD903210120EB
:1052C00000912A4905F04EFC002006B070BD002573
:1052D000009523682C49022005F044FC3378013303
:1052E000DBB233709B001D51CAE700231351C7E79F
:1052F0000025009523682449022005F033FC33780B
:105300000133DBB233709B001D51CBE700231351F7
:10531000C8E70325009523681B49022005F022FCFD
:1053200033780133DBB233709B001D51CCE703238C
:105330001351C9E7632A03004D440200C41203005D
:10534000D1430200C012030055430200CC120300F7
:105350000C37002048270020B8260020582A0020BB
:10536000C83A002041050000D01203000A0C0300D7
:10537000CC2A0020E03A0020420500004825002009
:1053800000370020430500005C0C030010B503202B
:10539000034905F041FB03F027FD002010BDC04686
:1053A000971D030010B50749032005F035FB03F0F6
:1053B0001BFD012004F056FD002004F0AFFD00208D
:1053C00010BDC046C323030010B5134904000320D9
:1053D00005F022FB012004F045FD012004F09EFDB4
:1053E0008021A0220D4B4902D205D150A17A637AC7
:1053F00009021943E37A0A4A1B041943237B09482B
:105400001B060B43A02113600F238902137106F0C2
:10541000C1FA002010BDC046822303000C05000025
:10542000442600204C26002070B52849032005F0B2
:10543000F3FA274E27493288032005F009FB264D51
:1054400026492A88032005F003FB254C254922889C
:10545000032005F0FDFA03F0C7FC5E223388FF321B
:1054600093420BD80320204905F0D6FA022004F01D
:10547000F9FC022004F052FD002070BDC822520049
:10548000934205D90320194905F0C6FA0320EEE737
:105490002B88174A934205D80320164905F0BCFA19
:1054A0000420E4E7144A1549934204D822889B1A41
:1054B0000A2B05DC1249032005F0AEFA0520D6E7D9
:1054C0001049032005F0A8FAD6E7C046DB1D03000B
:1054D000A62600201F1E0300A42600204C1E030049
:1054E0001E250020781E0300A31E0300E21E0300F9
:1054F00083030000201F0300F70300005E1F03006A
:105500009B1F0300DF1F030010B513490400032095
:1055100005F082FA012004F0A5FC052004F0FEFC51
:105520008021A123A0224902DB00D205D150A17A1B
:10553000637A09021943E37A084A1B041943237B5F
:1055400007481B060B43A02113600F238902137128
:1055500006F020FA002010BD412303003C26002065
:105560004C26002073B54349032005F055FA03F09B
:1055700013FC0500438802883F49032005F08EFA9A
:105580002A883E4B3E4E1A806B883E4C1A009B3A4E
:10559000FF3A202A13D83C49032005F03DFA2B8816
:1055A0003A4A9A18C92A2AD80320394905F034FA08
:1055B00030788200A358192B51D1142313E0CC2248
:1055C0005200934211D80320324905F025FA0520F4
:1055D00004F048FC002004F0A1FC31788A00A358B4
:1055E000192B21D11523A35029E0BC22FF3293426D
:1055F000F3D90320284905F00FFA0620E8E7274AE7
:10560000934205D80320264905F006FA0720DFE774
:10561000244A9342E1D92449032005F0FDF90120F1
:1056200004F020FC0220D6E72048214A01900129FD
:1056300007D91521009101201E4905F093FA002099
:1056400076BD1525009523681B49022005F08AFACE
:1056500033780133DBB233709B00E550EFE78B21E9
:10566000C900134A0191012801D91421E2E7142548
:10567000E8E7C046DF200300832203001E25002048
:105680004825002000370020B2220300DFFCFFFF86
:10569000D522030029210300712103001F0300000C
:1056A000B8210300EB030000F921030056040000B9
:1056B000D01203000A0C03005C0C030073B52C49E4
:1056C000032005F0A9F92B4806F0B0F92A49032078
:1056D00005F0A2F9042004F0C5FB002004F01EFC34
:1056E000264E274C307882001359042B2BD02549A5
:1056F000254A0191012818D901202449009005F07C
:1057000031FA234E234C307882001359192B2BD0B9
:1057100021491D4A0191012818D917210120009122
:105720001A4905F01FFA002076BD0125009523686F
:105730001A49022005F016FA33785B19DBB2337090
:105740009B001D51DDE701231351DAE71725009572
:1057500023681249022005F005FA33780133DBB2E1
:1057600033709B001D51DEE717231351DBE7C04662
:10577000CB2803004C260020142903004A290020CE
:10578000B03A00201E040000D01203000A0C0300EF
:1057900048250020003700201F0400005C0C030097
:1057A00073B52749032005F037F9FF2003F0C6F849
:1057B000244B254E1D78254C002D1AD0032024495A
:1057C00005F02AF930788200A358192B0ED0EC216D
:1057D000890001911F4A10211025012820D900912C
:1057E00001201D4905F0BEF9002076BD1023A3500D
:1057F000FAE71A49032005F00FF9022004F032FB02
:10580000280004F08BFB30788200A358192B14D0A9
:105810001349104A0191012801D91721DFE7172503
:10582000009523680F49022005F09CF93378013375
:10583000DBB233709B00E550D6E71723D7E7C046AD
:10584000D42703001C250020482500200037002015
:1058500018280300D01203000A0C03004728030095
:10586000B50300005C0C0300F7B5494906000320AE
:1058700005F0D2F8474C042322004749032005F0E5
:10588000AFF96278237812021A43A378434D1B04C0
:105890001A43E378424C1B061343424A934251D1C8
:1058A0004149032005F0B8F8B17A737A0902194327
:1058B000F37A3E4A1B041943337B3D481B060B43D6
:1058C000F02113600F23C902137106F063F8394FFA
:1058D000394E387882009359042B2DD0FD21890050
:1058E000364A0191012818D900210120009134493C
:1058F00005F038F928788200A358192B1FD03149B8
:105900002E4A019111261121012832D9009101203E
:105910002B4905F027F90020FEBD002300933368D2
:105920002949022005F01EF900223B780133DBB241
:105930003B709B009A51DDE700239351DAE7112376
:10594000A350E8E72149032005F066F8032004F09E
:1059500089FA002004F0E2FA28788200A358192B73
:1059600014D01B49154A0191012801D91721CDE70F
:105970001726009623681449022005F0F3F82B78C7
:105980000133DBB22B709B00E650C4E71723D7E747
:10599000A426030030250020EB2603004825002024
:1059A000003700200013AABBF8260300342600208D
:1059B0004C2600204A290020B03A0020D0120300D3
:1059C0000A0C0300F50300005C0C03001C27030015
:1059D000FA030000F7B527490400032005F01CF87E
:1059E0002549032005F018F8072004F03BFA0220AF
:1059F000012104F03DFA214E214D307882005359A7
:105A0000042B33D0DC2189001E4A019101281FD9C3
:105A10000021012000911C4905F0A4F81B4A002137
:105A20001B4805F09FFFA17A637A09021943E37AC4
:105A3000184A1B041943237B17481B060B4380217C
:105A400013600F234902137105F0A4FF0020FEBD6F
:105A5000002700972B681149022005F083F833785E
:105A60000133DBB233709B005F51D7E70023535102
:105A7000D4E7C0464E2903008D290300582B00208F
:105A8000EC3A0020D01203000A0C0300C9440200C3
:105A9000C81203002C2600204C2600205C0C0300BA
:105AA00073B53349032004F0B7FF3249032004F0F3
:105AB000B3FF012004F0D6F9FA211E20890004F07A
:105AC000D7F904F06BFC2C4803F010FF8020C001D4
:105AD00003F012FFA020400203F014FF274E284CD1
:105AE000307882001359062B2DD0E3218900254AF6
:105AF0000191012819D9002101200091224905F0C6
:105B000031F8224E224C3078820013590B2B2BD0C7
:105B100020491C4A0191012818D900210120009137
:105B2000194905F01FF8002076BD0025009523686F
:105B30001949022005F016F833780133DBB23370CF
:105B40009B001D51DDE700231351DAE70025009586
:105B500023681149022005F005F833780133DBB2E0
:105B600033709B001D51DEE700231351DBE7C04675
:105B7000AF290300F729030033130000CC2A0020CB
:105B8000E03A0020D01203000A0C03004D29002047
:105B9000BC3A00208F0300005C0C030073B51C4965
:105BA000032004F039FF1B4C1B4BE022236005232C
:105BB00092001A490320A360A28004F049FF20004C
:105BC00003F0CAFC164E174C3078820013590E2B86
:105BD0001BD086210901144A0191012807D9072108
:105BE00001200091114904F0BDFF002076BD07257A
:105BF000009523680E49022004F0B4FF3378013386
:105C0000DBB233709B001D51EFE707231351ECE724
:105C100005180300242500200C3700204718030036
:105C2000902A0020D43A0020D01203000A0C03006E
:105C30005C0C030070B5294986B0032004F0ECFE2B
:105C40005A235B22264C52422370E370254B62702C
:105C50001B68A2701B88244D23711B0A637180236B
:105C60005B42A3718333E37102A82C60FDF740FE11
:105C700020000C2202A908300AF0E2FA1B482B6827
:105C80000360002383601433838003F065FC184EA7
:105C9000184C3078820013590E2B1BD01649174A26
:105CA0000191012808D9072101200091144904F02D
:105CB00059FF002006B070BD0725009523681149E3
:105CC000022004F04FFF33780133DBB233709B00C6
:105CD0001D51EEE707231351EBE7C0465C170300A5
:105CE000302500209C260020A0260020242500200E
:105CF000902A0020D43A002052080000D01203005D
:105D00000A0C03005C0C030073B50320134904F074
:105D100083FE134E134C307882001359102B1AD087
:105D20001149124A0191012807D90221012000914D
:105D30000F4904F017FF002076BD02250095236867
:105D40000C49280004F00EFF33780133DBB23370C6
:105D5000AB401D51EFE702231351ECE7531403004E
:105D600049290020A43A0020D6050000D0120300E3
:105D70000A0C03005C0C030073B51949032004F0FE
:105D80004BFE1848184B0360002383601433838054
:105D900003F0E2FB154E164C3078820013590E2B9F
:105DA0001AD01449144A0191012807D9032101206E
:105DB0000091124904F0D6FE002076BD032500951F
:105DC00023680F49022004F0CDFE33780133DBB2A3
:105DD00033709B001D51EFE703231351ECE7C046DE
:105DE000DF1603002425002030250020902A002003
:105DF000D43A0020AC050000D01203000A0C0300C6
:105E00005C0C030073B50320134904F005FE134E28
:105E1000134C307882001359192B1AD01149124AA9
:105E20000191012807D90221012000910F4904F0B6
:105E300099FE002076BD0225009523680C492800B4
:105E400004F090FE33780133DBB23370AB401D5168
:105E5000EFE702231351ECE7D0140300482500209C
:105E60000037002019050000D01203000A0C0300BF
:105E70005C0C030073B51B49032004F0CDFD1A49E7
:105E8000032004F0C9FD1948194B03600023836007
:105E90000433838003F060FB164E174C3078820089
:105EA00013590E2B1AD01549154A0191012807D90B
:105EB000032101200091134904F054FE002076BD17
:105EC0000325009523681049022004F04BFE337827
:105ED0000133DBB233709B001D51EFE703231351F5
:105EE000ECE7C04659270300A12703002425002022
:105EF00030250020902A0020D43A0020DF03000043
:105F0000D01203000A0C03005C0C030073B51B499C
:105F1000032004F081FD1A49032004F07DFD194897
:105F2000194B0360002383600433838003F014FB68
:105F3000164E174C3078820013590E2B1AD0154983
:105F4000154A0191012807D9072101200091134921
:105F500004F008FE002076BD07250095236810494F
:105F6000022004F0FFFD33780133DBB233709B0075
:105F70001D51EFE707231351ECE7C0462B26030022
:105F8000732603002425002054200020902A00209E
:105F9000D43A0020D2030000D01203000A0C030000
:105FA0005C0C030073B51649032004F035FD032093
:105FB000144904F031FD144E144C3078820013590A
:105FC0000E2B1AD01249134A0191012807D90B212F
:105FD00001200091104904F0C5FD002076BD0B257D
:105FE000009523680D49022004F0BCFD337801338D
:105FF000DBB233709B001D51EFE70B231351ECE72D
:10600000B3250300FA250300902A0020D43A00208B
:10601000C5030000D01203000A0C03005C0C03004F
:1060200073B50320134904F0F7FC134E134C30787A
:10603000820013590E2B1AD01149124A01910128DE
:1060400007D90021012000910F4904F08BFD0020A9
:1060500076BD0025009523680C49022004F082FDDE
:1060600033780133DBB233709B001D51EFE700231F
:106070001351ECE7011D0300902A0020D43A0020C0
:10608000BD030000D01203000A0C03005C0C0300E7
:1060900073B5234A136801331360022B24DD214EAC
:1060A000214C307882001359192B1AD01F49204AED
:1060B0000191012807D90E21012000911D4904F00A
:1060C00051FD002076BD0E25009523681A49022057
:1060D00004F048FD33780133DBB233709B001D516F
:1060E000EFE70E231351ECE7A223A022DB00D20539
:1060F000D3581B06E5D4817A437A09021943C37A3F
:106100000E4A1B041943037B0D481B060B438021D9
:10611000136001230902137105F03CFCD1E7C0466E
:10612000B426002048250020003700205A03000034
:10613000D01203000A0C03005C0C0300842500202D
:106140009C25002010B50B49032004F065FC04F0E9
:1061500095FD0028FBD10123D820074A5B42D36775
:10616000064A4002D367FEF7BBF8FEF7B7F8FEF722
:10617000A7F8C046BE16030004E100E008E100E015
:1061800010B5174CA0222368D20501332360A22347
:10619000DB00D3581B061DD4817A437A09021943C8
:1061A000C37A104A1B041943037B0F481B060B4399
:1061B00013600D230D49137105F0ECFB23681D2BB3
:1061C0000CDD01220A4B1A700A4B1B78002B05D0FC
:1061D000FFF7B8FF0023064A23601370002010BDAC
:1061E000B0260020942500209C250020CD0C000026
:1061F000212500202025002010B5174CA02223685F
:10620000D20501332360A223DB00D3585B061DD4E3
:10621000817A437A09021943C37A104A1B0419434D
:10622000037B0F481B060B4313600C230D491371AE
:1062300005F0B0FB23681D2B0CDD01220A4B1A7000
:106240000A4B1B78002B05D0FFF77CFF0023064A82
:1062500023601370002010BDAC26002054250020C0
:106260005C250020CD0C00002025002021250020E9
:1062700073B51F49032004F0CFFB02F059FB1D4901
:106280000200032004F0E4FB02F052FB2030C0B215
:10629000FDF726F902F04CFB011E03D180221648BF
:1062A000FCF7B4FD154E164C307882001359192BAB
:1062B0001AD01449144A0191012807D90621012056
:1062C0000091124904F04EFC002076BD0625009591
:1062D00023680F49022004F045FC33780133DBB218
:1062E00033709B001D51EFE706231351ECE7C046C6
:1062F000EE1203002F130300B826002048250020CB
:1063000000370020D4070000D01203000A0C03005D
:106310005C0C030073B52149032004F07DFB02F0FF
:106320003BFD0400438802881D49032004F0B6FBAE
:1063300063881C4A138021881B4A9B3BFF3B1180CA
:10634000202B18D81949032004F066FB184805F0E3
:106350006DFB184E184C307882001359192B1AD047
:106360001649174A0191012807D9142101200091EB
:10637000144904F0F7FB002076BD1425009523682E
:106380001149022004F0EEFB33780133DBB23370A5
:106390009B001D51EFE714231351ECE7F722030094
:1063A00083220300A6260020A4260020B222030098
:1063B0004C2600204825002000370020DC04000087
:1063C000D01203000A0C03005C0C030073B53D49B6
:1063D000032004F021FB01F00FFD040082794379D2
:1063E00012021A433849032004F032FBA27E637E76
:1063F00012021A433549032004F02AFB227FE37E70
:1064000012021A433249032004F022FBA37E627E6B
:106410001B021343227FE17E12020A431B049B18D6
:106420002C4A934229D12C49032004F0F5FA2B4839
:1064300005F0FCFA2A4E2B4C307882001359042BBD
:106440002BD02949294A0191012818D9012028492E
:10645000009004F087FB274E274C307882001359B8
:10646000192B2BD02549214A0191012818D9132134
:10647000012000911E4904F075FB002076BD012526
:10648000009523681E49022004F06CFB33785B19E9
:10649000DBB233709B001D51DDE701231351DAE7B6
:1064A0001325009523681649022004F05BFB33781E
:1064B0000133DBB233709B001D51DEE71323135110
:1064C000DBE7C046472403008F240300B924030000
:1064D000DE2403000013AABB032503004C26002082
:1064E0004A290020B03A002011040000D012030015
:1064F0000A0C030048250020003700201204000089
:106500005C0C030073B54949032004F085FA484B3D
:10651000484D59781A78090211439A782B60120471
:106520001143DA7812060A4343498A425ED1E022D7
:10653000DC799979240292000C43944256D15A791D
:10654000197912020A4303203C4904F081FA2A68AF
:10655000537911791B020B43394909680B80507933
:10656000137900021843FDF77DFA2B685A7A187ADE
:1065700012020243987A197B00040243D87A5D7CA8
:10658000000610435A7B2D0212020A43997B09042C
:106590000A43D97B090611431A7C15439A7C1204DD
:1065A0001543DA7C12062A43FDF742FA2548264BAA
:1065B000848003600523836002F0CEFF234E244CC9
:1065C0003078820013590E2B0DD02249224A0191B6
:1065D00003250321012819D9009101201F4904F046
:1065E000C1FA002076BD03231351FAE71C4E1D4C5F
:1065F000307882001359192B15D0B821C900164ADA
:106600000191012801D90421E6E7042500952368BA
:106610001549022004F0A6FA33780133DBB2337057
:106620009B001D51DDE70423DEE7C04697170300FA
:1066300030250020A02600205AA5A55AD81703000F
:106640009C260020242500200C370020902A0020C2
:10665000D43A0020BE050000D01203000A0C03004B
:1066600048250020003700205C0C030073B51D494D
:10667000032004F0D1F91C49032004F0CDF91520C2
:1066800002F05CF9F0238022A0209B030093120209
:10669000164B8002012102F06FF8154E154C307830
:1066A00082001359062B19D01349144A019101286D
:1066B00006D901201249009004F054FA002076BD5A
:1066C0000125009523680F49022004F04BFA337826
:1066D0005B19DBB233709B001D51EFE701231351AF
:1066E000ECE7C046921C0300D91C0300CD8C0000CF
:1066F000CC2A0020E03A00209E030000D0120300C4
:106700000A0C03005C0C030010B51949032004F0C7
:1067100083F9184C18492288032004F099F9174B83
:1067200017491A88032004F093F9164B16491A8862
:10673000032004F08DF902F057FBCC2322885B0084
:106740009A420BD81149032004F066F9072003F0A0
:1067500089FB022003F0E2FB002010BD0C4903205E
:1067600004F05AF9012003F07DFB0420F2E7C04653
:106770000A200300A62600201F1E0300A4260020D6
:106780004C1E03001E250020781E03004E2003002F
:106790009720030073B51649032004F03DF98020CB
:1067A000000202F01BFB134E134C30788200135989
:1067B000062B1AD01149124A0191012807D900214C
:1067C000012000910F4904F0CDF9002076BD00258D
:1067D000009523680C49022004F0C4F93378013392
:1067E000DBB233709B001D51EFE700231351ECE740
:1067F00004240300582A0020C83A0020270400007F
:10680000D01203000A0C03005C0C030073B50025D2
:10681000304B3149040003201D6004F0FDF82F497E
:10682000032004F0F9F803F0B9FC03F0EBFCFDF7EA
:106830003FFA2B4A29002B4805F094F82A4A2900F0
:106840002A4805F08FF8A223A022DB00D205D358F6
:106850001B0612D4A17A637A09021943E37A244A07
:106860001B041943237B23481B060B438021136021
:1068700001230902137105F08DF8A223A022DB0089
:10688000D205D3581B0311D41B4E1C4C3078820008
:106890001359192B1AD01A491A4A0191012807D9FC
:1068A0000E2101200091184904F05CF9002076BD0A
:1068B0000E25009523681549022004F053F933781A
:1068C0000133DBB233709B001D51EFE70E231351F0
:1068D000ECE7C046FC360020480B03007D2A03008D
:1068E000C1450200B812030045450200BC12030076
:1068F0007C2500209C250020482500200037002012
:106900004D030000D01203000A0C03005C0C0300CE
:10691000F0B58BB008920122099314AB1F88079140
:10692000FB08DBB20293072311003B4099400B00A8
:10693000013BDBB2039300231D001C0006AE069052
:10694000019604922821FF2006AA52180199D25CD0
:10695000C95C84469143159AD1545A1CD200BA425C
:1069600001DD039A94466246114014D00820844603
:10697000DA00D2B29444604602AEF073F07B8446F3
:106980000498014202D014000135EDB20132D2B2B6
:1069900049086245F4D10133029ADBB29A42D1D25E
:1069A0000020854202D024026519A8B20BB0F0BDC8
:1069B000F0B585B00292039307220EAB1C88012329
:1069C0002240934000220191013BE1080090C9B2AE
:1069D000DBB20AAEFF27551CE800BC46A04200DD32
:1069E0009C466F46B05CBA5C824310006246104021
:1069F00004D1EAB29142EDD205B0F0BD0120FBE72F
:106A0000F0B587B00492032205930CAB1C880127D4
:106A100000239446E408114D02900391E4B2DE0095
:106A2000F6B2A34217D8002002AAD25C01920199C3
:106A300032180141D2B2394004D0A95C0131C9B247
:106A4000022906D80130A9540828F0D10133DBB25D
:106A5000E5E76146F6E707B0F0BDC046B82600207E
:106A6000F0B50023072501268B4200D3F0BD074A6D
:106A7000D25C022A07D91A0034002A409440DF0869
:106A8000C25DA243C2550133DBB2EDE7B826002058
:106A9000F0B587B005930CAB1D880391ED08EBB200
:106AA00000930023049219001A0002900098DE005F
:106AB000F6B2834213D8002402A8C05C019001986A
:106AC000012520413719FFB2284202D03A00491966
:106AD000C9B20134082CF2D10133DBB2E6E7002061
:106AE000814202D01202511888B207B0F0BD0000F6
:106AF000F0B5B049A3B0032003F08EFFAE4804F018
:106B000095FFAE4EAE4C307882001359042B00D165
:106B1000C8E0AC49AC4A0191012800D8B4E001209A
:106B2000AA49009004F01EF801F002FF06AD022809
:106B300000D0BAE00AA8FCF7E5FE002412AE30004F
:106B400016AFFCF7DFFE3800A65DFCF741FFE35D02
:106B500033402B550134102CF0D1FCF71BFF0600FD
:106B60000EAC102200212000FCF750F9984F1022A3
:106B70003900684604350594049609F061FB0ECD92
:106B80000698FFF7C5FE10223900050068460496F6
:106B900009F056FB0A980B990C9A0D9BFFF708FF1A
:106BA000002800D09AE001F0C3FE011E00D0BDE035
:106BB00080228848FCF72AF9ECB260426041C0B2FA
:106BC00000F05EFF002C45D08349032003F024FF32
:106BD000119B0E980F99109AFCF75EFEFCF7ECFEE5
:106BE000C30737D57D49012C00D0B3E007232D0A18
:106BF000ADB25D437A4B5D19AA79092A00D9A8E0A4
:106C00000C267849032003F023FFAB79764C7343BD
:106C1000185902F06BFEAB797343E318586802F021
:106C20006BFEAB795E43A419A06802F06BFE6F4E59
:106C30006F4C307882001359062B00D1A6E06D49C5
:106C4000614A0191012800D892E001205F4900903B
:106C500003F088FF5E4800F0C1FF674E674C307854
:106C600082001359102B00D1A1E06549564A0191C9
:106C7000012800D88DE00C2101200091534903F038
:106C800071FF002023B0F0BD0125009523685D4908
:106C9000022003F067FF33785B19DBB233709B008F
:106CA0001D5141E7012313513EE701F041FE012848
:106CB00000D13FE70AA8FCF73DFE00241AAE3000E1
:106CC0001EAFFCF737FE3800A65DFCF799FEE35DCA
:106CD00033402B550134102CF0D13EE74A4B4B4F3B
:106CE00018788200D3590B2B1DD0E321C900364AF6
:106CF0000191012806D9082101200091334903F0B0
:106D000031FF50E7082300933B683E49022003F01F
:106D100029FF3D4B3C4A1B780133DBB2137008223C
:106D20009B00DA513FE70823D3513CE700966168A6
:106D3000A268E3680E98FFF763FE20003100FFF7BA
:106D40008FFE043400960E980ECCFFF7A1FE0500CE
:106D500032E72F49032003F05FFE8020000202F09B
:106D6000C5FD8020400202F0C7FDC02080025CE724
:106D70000125009523682349022003F0F3FE3378B0
:106D80005B19DBB233709B001D5163E70123135184
:106D900060E70C25009523681A49022003F0E2FE03
:106DA00033780133DBB233709B001D5169E70C234C
:106DB000135166E7B21A03000C2600204A2900206E
:106DC000B03A0020FE060000D01203000A0C0300B7
:106DD00038270020B8260020F71A0300451B0300BF
:106DE0000C370020A61B0300DC2C0300CC2A00205B
:106DF000E03A00204507000049290020A43A00207D
:106E00004C0700005C0C03004D290020BC3A002018
:106E1000DE1B03001FB501F08BFD022846D168463A
:106E2000FCF770FD6B4600201B7883423CD16B461B
:106E30005B78834238D16B469B78834234D16B4672
:106E4000DB78834230D16B461B7983422CD16B4671
:106E50005B79834228D16B469B79834224D16B4670
:106E6000DB79834220D16B461B7A83421CD16B466F
:106E70005B7A834218D16B469B7A834214D16B466E
:106E8000DB7A834210D16B461B7B83420CD16B466D
:106E90005B7B834208D16B469B7B834204D16B466C
:106EA000D87B43425841C0B205B000BD01F040FD5F
:106EB0000128B4D06846FCF73DFDB3E7F0B5724950
:106EC00089B00500032003F0A7FDFFF7A3FF041E10
:106ED00000D19DE003206D4903F09EFD6C4E6D4C8A
:106EE000307882001359192B00D18EE06A496B4A21
:106EF0000191012806D9052100916949012003F07B
:106F000031FE0CE00527009723686649022003F054
:106F100029FE33780133DBB233709B001F5105AC7F
:106F20002000FCF7E5FC63896788E688039301F09D
:106F3000FFFC012800D08DE0002F00D084E03C272A
:106F4000192400F0A3FD584B1A78002A03D0002220
:106F50003C270F241A70554804F068FD544804F08B
:106F600065FDAA7A6B7A12021A43EB7A514E1B0422
:106F70001A432B7B1B061343336005233371FA231B
:106F80009B005C43E217630CD1031943FA23E0032F
:106F9000FA2200245B00C01861419200002308F02F
:106FA00013F832000100414804F0F4FCAA7A6B7A2D
:106FB00012021A43EB7A404C1B041A432B7B1B062C
:106FC0001343236006232371FA239B007B43DD17C1
:106FD0005A0CE9031143FA22D80300235200801807
:106FE0005941FA220023920007F0EEFF220001002F
:106FF0002F4804F0CFFC00231900304A9954013384
:10700000102BFBD1002009B0F0BD0523135186E7FA
:107010002B4F2C4E387882009359042B12D02A49DA
:107020001E4A01910094012800D966E733681D4982
:10703000022003F097FD3B780133DBB23B709B00ED
:107040009C516CE794516AE72049032003F0E4FC6B
:10705000248876E701F06CFC02280AD1039B002B00
:1070600000D16CE71A49013003F0D6FC2489039F54
:1070700067E7002E00D162E71649032003F0CCFC3D
:107080003700A4885DE7C0467B190300C2190300DE
:1070900048250020003700205B070000D0120300C5
:1070A0000A0C03005C0C0300A82600200C2600201C
:1070B000D425002004260020CC25002038270020DD
:1070C0004A290020B03A00205D070000011A0300A1
:1070D000391A03007A1A0300F0B55C4989B004003C
:1070E000032003F099FCFFF795FE051E00D16DE02B
:1070F0005749032003F090FC564805AD04F096FC78
:10710000554804F093FC2800FCF7F2FB6B896F886C
:10711000EE88039301F00CFC012800D07CE0002FE6
:1071200000D073E03C271923A17A627A0902114347
:10713000E27AFA2512041143227B484E12060A43D2
:1071400032600522AD006B433271DA17D1035A0C5D
:107150001143FA22D8030023520080185941FA2221
:107160000023920007F030FF32000100394804F09C
:1071700011FCA27A637A12021A43E37A384E1B0496
:107180001A43237B7D431B06134333600623EA1710
:107190003371D1036B0C1943FA230024FA225B00EC
:1071A000E803C01861419200002307F00DFF320090
:1071B0000100294804F0EEFB00231900294A9954E4
:1071C0000133102BFBD1002009B0F0BD264F274E14
:1071D000387882009359042B16D02549254A01910D
:1071E0000095012804D92449012003F0BBFC83E762
:1071F00033682249022003F0B5FC3B780133DBB24F
:107200003B709B009D5177E7955175E71C49032022
:1072100003F002FC2B8887E701F08AFB02280AD1E1
:10722000039B002B00D17DE71649013003F0F4FBEE
:107230002B89039F78E7002E00D173E712490320C2
:1072400003F0EAFB3700AB886EE7C046421C030040
:10725000C21903000C260020D4250020FC250020A4
:10726000C4250020382700204A290020B03A0020F9
:1072700093060000D01203000A0C03005C0C03000C
:10728000011A0300391A03007A1A0300F0B5724993
:1072900089B00400032003F0BFFBFFF7BBFD051E10
:1072A00000D18BE06D49032003F0B6FB05AD28004B
:1072B000FCF71EFB6B896F88EE88039301F038FBA7
:1072C000012800D0A0E0002F00D097E03C27192330
:1072D000A17A627A09021143E27AFA251204114373
:1072E000227B5F4E12060A4332600522AD006B43DB
:1072F0003271DA17D1035A0C1143FA22D803002352
:10730000520080185941FA220023920007F05CFED7
:1073100032000100534804F03DFBA27A637A120266
:107320001A43E37A504E1B041A43237B7D431B060A
:10733000134333600623EA173371D1036B0CFA222F
:10734000194300235200E80380185941FA22002310
:10735000920007F039FE32000100444804F01AFBA5
:10736000A17A637A09021943E37A414A1B0419435B
:10737000237B40481B060B4380211360072309022F
:10738000137104F007FB00231C003B4A9C5401339B
:10739000102BFBD1394E3A4D307882005359102BC7
:1073A00057D03849384A01910094012845D93749C6
:1073B000012003F0D7FB002009B0F0BD344F354E5B
:1073C000387882009359042B16D033492E4A019104
:1073D0000095012804D92D49012003F0C3FB65E77E
:1073E00033682E49022003F0BDFB3B780133DBB24A
:1073F0003B709B009D5159E7955157E72849032061
:1074000003F00AFB2B8863E701F092FA02280AD105
:10741000039B002B00D159E72249013003F0FCFA0D
:107420002B89039F54E7002E00D14FE71E4903200C
:1074300003F0F2FA3700AB884AE72B6817490220BD
:1074400003F090FB33780133DBB233709B005C5167
:10745000B1E75451AFE7C04656150300C219030007
:10746000F42500200C260020BC250020D425002077
:107470006C2600207C260020382700204929002087
:10748000A43A00208A050000D01203000A0C030071
:107490004A290020B03A00204E0500005C0C030091
:1074A000011A0300391A03007A1A0300F0B5494F94
:1074B00087B03900032003F0AFFA4749032003F0F7
:1074C000ABFA3900032003F0A7FAFCF76BFB434942
:1074D0000200032003F0BCFA962241495200032027
:1074E00003F0B6FADC223F499200032003F0B0FA21
:1074F000A0223D49032003F0ABFA3C4B03AD1B68CF
:107500003B491A88032003F0A3FA2800FCF7F0F99E
:10751000EB886C8800936B890193002C56D02E88E1
:1075200032003449032003F093FA22003249032049
:1075300003F08EFA019B002B01D01C002E89320033
:107540002E49032003F084FA22002D49032003F082
:107550007FFA009B002B01D01C00AE883200294925
:10756000032003F075FA22002749032003F070FA84
:1075700005222649032003F06BFA05222449032043
:1075800003F066FA234A2449032003F061FA234AF0
:107590002349032003F05CFAF822224992000320D9
:1075A00003F056FA204A2149032003F051FA204AF9
:1075B0002049032003F04CFA3900032003F02CFA91
:1075C0003900032003F028FA07B0F0BD3C24192647
:1075D000A6E7C046542D03009C2D0300E52D0300B3
:1075E000012E03003D2E0300722E03009C26002076
:1075F000A52E0300C42E0300F12E0300202F03004C
:10760000562F03008E2F0300BB2F0300EA2F030029
:1076100030300300C926000078300300BAE80000CB
:10762000A8300300D3300300C1070000013103007C
:10763000451700002C31030010B50320034903F067
:10764000EBF9FFF733FF002010BDC046FA18030026
:1076500010B50320034903F0DFF9FFF727FF0020EF
:1076600010BDC04678180300F0B54B4C010AA1705C
:10767000010CA279E170010E2171617912020A43B5
:10768000E17985B009040A43217A03000906114310
:10769000424A25788A1803920A0060700398904243
:1076A00007D100953E4A3F49022003F025FA012503
:1076B0005FE05078561A8446674690780002384357
:1076C000D7783F040743107900063843834246D1F8
:1076D0001078A84241D18020A17A627A0902114330
:1076E000E27A400212041143227B12060A43190077
:1076F000FCF702FCA279637912021A43E3791B04B6
:107700001A43237A1B0613439B199A795D79120257
:107710002A43DD792D042A431D7A2D06154320D1F5
:10772000A278637812021A43E3781F491B041A43B4
:10773000237903201B061343194A03F0AFF9A279FA
:10774000637912021A43E3791B041A43237A1B0656
:1077500013439B195B7A23700BE01628BBD00A32C7
:107760009CE72000A847051E06D01049012003F021
:1077700053F9280005B0F0BDA279637912021A43CB
:10778000E3791B041A43237A1B0613439B195B7A84
:10779000162BE0D1EDE7C04658200020B2020000D1
:1077A000670F0300C00F0300760F0300A70F03004D
:1077B000044A13005072020A9A72020C000EDA7226
:1077C0001873704758200020074B08491A78002387
:1077D00098004058192805D10133DBB29A42F7D2FC
:1077E000002070470120FCE74825002000370020DA
:1077F00010B50320024903F00FF9002010BDC04668
:10780000D232030010B50320024903F005F900202D
:1078100010BDC0461433030010B50320024903F025
:10782000FBF8002010BDC0466B34030010B50320E8
:10783000024903F0F1F8002010BDC04638320300C1
:1078400010B50320024903F0E7F8002010BDC04640
:107850007032030010B50320024903F0DDF8002068
:1078600010BDC0460F32030010B50849032003F0D5
:10787000D3F80749074B0A004B72190A9172190C89
:107880001B0E0020D172137310BDC046E6310300F9
:10789000652000208C3A002010B50B49032003F02E
:1078A000BBF80A4A0A48937A517A1B020B43D17AF1
:1078B000043009040B43117B07220906194308F021
:1078C000BFFC002010BDC046E0330300652000204F
:1078D0008C3A002010B50A49032003F09DF80949AD
:1078E00000208A7A4B7A12021A43CB7A1B041A437D
:1078F0000B7B1B0613431A88034B5A8010BDC046EE
:107900000E340300652000208C3A002010B50A498F
:10791000032003F081F8094900208A7A4B7A120289
:107920001A43CB7A1B041A430B7B1B0613431A889A
:10793000034B1A8010BDC0469C3203006520002016
:107940008C3A002010B50320034903F065F802F0DB
:10795000EFFB002010BDC0465033030073B51C4937
:10796000032003F059F8FCF761F9FCF72DF9FCF757
:107970001DF902F0E6FB02F0EDFB0320154903F0D0
:107980004BF802F0E6FB144E144C30788200135989
:10799000102B19D0D021124A0191012806D90120BB
:1079A0001049009003F0DEF8002076BD0125009517
:1079B00023680D49022003F0D5F833785B19DBB258
:1079C00033709B001D51EFE701231351ECE7C046D4
:1079D00083330300AF33030049290020A43A002079
:1079E000CB3303000A0C03005C0C030030B52149C3
:1079F00085B0032003F010F81F4D1022AB7A6C7A8B
:107A00001B022343EC7A6846240423432C7B240680
:107A10001C43210008F014FC2B78042B1BD1E47BC1
:107A20007B331C4000F084FF022817D180231C43C5
:107A30006B46DC73039B00980199029AFBF724FDC7
:107A40000E4B1B78002B06D100F072FF02280AD1E2
:107A50000420FBF745FD002005B030BD00F068FFB5
:107A60000128E5D1E2E700F063FF0128F0D0032010
:107A7000EFE7C0463F34030065200020482900207E
:107A8000014B18707047C04648290020014B1878F8
:107A90007047C04648290020F0B54B4C010AA17040
:107AA000010CA279E170010E2171617912020A4381
:107AB000E179030009040A43217A85B009061143DC
:107AC0000F000A008C372578607003970398904266
:107AD00007D100953D4A3E49022003F00DF80125EB
:107AE0005FE05078561A8446674690780002384323
:107AF000D7783F040743107900063843834246D1C4
:107B00001078A84241D18020A17A627A09021143FB
:107B1000E27A800212041143227B12060A43190002
:107B2000FCF7EAF9A279637912021A43E3791B049C
:107B30001A43237A1B0613439B199A795D79120223
:107B40002A43DD792D042A431D7A2D06154320D1C1
:107B5000A278637812021A43E3781E491B041A4381
:107B6000237903201B061343184A02F097FFA279DA
:107B7000637912021A43E3791B041A43237A1B0622
:107B800013439B195B7A23700BE00728BBD00A32A2
:107B90009CE72000A847051E06D00F49012002F0EF
:107BA0003BFF280005B0F0BDA279637912021A43A9
:107BB000E3791B041A43237A1B0613439B195B7A50
:107BC000072BE0D1EDE7C0466520002053310300CC
:107BD000C00F0300760F0300A70F0300044A130031
:107BE0005072020A9A72020C000EDA721873704711
:107BF00065200020054A937A507A1B020343D07A0D
:107C000000040343107B00061843704765200020E2
:107C1000074B08491A78002398004058102805D1CE
:107C20000133DBB29A42F7D2002070470120FCE713
:107C300049290020A43A002010B50320024902F08F
:107C4000EBFE002010BDC046D234030010B505493C
:107C5000032002F0E1FE0320034902F0DDFE0020D4
:107C600010BDC0468A350300CC35030010B5032093
:107C7000034902F0D1FE02F0CFFB002010BDC04648
:107C80004C35030010B50320034902F0C5FE02F095
:107C9000B3FB002010BDC0460D350300F0B54B4CC2
:107CA000010AA170010CA279E170010E21716179C4
:107CB00012020A43E179030009040A43217A85B0DC
:107CC000090611430F000A002837257860700397D2
:107CD0000398904207D100953D4A3E49022002F0A8
:107CE0000BFF01255FE05078561A8446674690786E
:107CF00000023843D7783F04074310790006384321
:107D0000834246D11078A84241D1C020A17A627A3C
:107D100009021143E27A800212041143227B120607
:107D20000A431900FCF7E8F8A279637912021A43B2
:107D3000E3791B041A43237A1B0613439B199A7990
:107D40005D7912022A43DD792D042A431D7A2D061E
:107D5000154320D1A278637812021A43E3781E49B2
:107D60001B041A43237903201B061343184A02F00D
:107D700095FEA279637912021A43E3791B041A4330
:107D8000237A1B0613439B195B7A23700BE00428AC
:107D9000BBD00A329CE72000A847051E06D00F4939
:107DA000012002F039FE280005B0F0BDA279637908
:107DB00012021A43E3791B041A43237A1B06134366
:107DC0009B195B7A042BE0D1EDE7C04672200020BE
:107DD0009C340300C00F0300760F0300A70F0300BD
:107DE000044A13005072020A9A72020C000EDA72F0
:107DF0001873704772200020054A937A507A1B024C
:107E00000343D07A00040343107B000618437047F5
:107E100072200020074B08491A7800239800405828
:107E2000042805D10133DBB29A42F7D20020704713
:107E30000120FCE74A290020B03A0020002801D1A7
:107E4000014B18707047C046522A002010B50649F1
:107E5000032002F0E1FD0122044B032004491A70C3
:107E600002F0DAFD002010BDE43703004C290020A9
:107E70002638030010B50649032002F0CDFD02228A
:107E8000044B032004491A7002F0C6FD002010BD07
:107E9000613703004C290020A937030010B50549BC
:107EA000032002F0B9FD0320034902F0B5FD0020D4
:107EB00010BDC046223903007039030010B50549D2
:107EC000032002F0A9FD0320034902F0A5FD0020D4
:107ED00010BDC046243703007039030010B50024DC
:107EE0000749032002F098FD064803F09FFD064B6A
:107EF000064903201C7002F08FFD200010BDC04613
:107F0000353B0300602900204C2900207039030014
:107F100070B505000F49032002F07EFD0E4C2000D5
:107F200003F084FDA97A6B7A09021943EB7A0B4AB4
:107F30001B0419432B7B20001B060B4313600723F4
:107F40001371074B196803F025FD0122054B002032
:107F50001A7070BD5838030060290020582900208D
:107F6000842000204C2900200122064B10B5064930
:107F700006481A7003F03AFE002801D003F0E4F935
:107F800010BDC046522A00207C3B0300A0200020E8
:107F900070B504002249032002F03EFD214803F0A1
:107FA00045FD214D280003F041FDA17A637A0902C5
:107FB0001943E37A1D4A1B041943237B28001B063F
:107FC0000B43136006231371194B196803F0E2FC8D
:107FD000184D280003F02AFDA17A637A090219439B
:107FE000E37A154A1B041943237B28001B060B4325
:107FF000136007231371114B196803F0CBFC0122A6
:108000000F4B1A70FBF7D8FC830702D50520FBF74E
:1080100067FA0C49032002F0FFFC002070BDC04647
:10802000DE380300B8290020F0290020D8290020DC
:108030008C2000206029002050290020842000206E
:108040004C29002026380300F7B5274904000320F7
:1080500002F0E2FC254D26492A88032002F0F8FCB4
:10806000244B2A881B689A4215D3A17A637A0902A5
:108070001943E37A204A1B041943237B1F481B063C
:108080000B431360042313711D4B196803F082FC2A
:1080900000202880FEBD1B4803F0C8FC1A4E1B4C74
:1080A0003078820013590B2B1BD0D1214900184A7C
:1080B0000191012807D9A039FF3900910120154904
:1080C00002F050FDE4E703270097236812490220DD
:1080D00002F048FD33780133DBB233709B001F514F
:1080E000D6E703231351D3E7A2390300282A00203F
:1080F000E2390300B8200020B0290020B829002070
:10810000BC200020882900204D290020BC3A0020F6
:108110001B3A03000A0C03005C0C0300F7B503686C
:108120000400002B08D016490A004B72190A9172FC
:10813000190C1B0ED1721373124E134D377821791F
:10814000BA0053590B2B19D0AD20104A0190009161
:10815000012F06D90E49AC3802F004FD0B23237120
:10816000F7BD2B680B49022002F0FCFC3378013389
:10817000DBB2337022799B005A51EFE75151EDE7A2
:10818000902000204D290020BC3A00201B3A03001B
:108190000A0C03005C0C0300F7B503680400002B15
:1081A00008D016490A004B72190A9172190C1B0E5D
:1081B000D1721373124E134D37782179BA00535987
:1081C0000B2B19D0AC20104A01900091012F06D939
:1081D0000E49AB3802F0C6FC0B232371F7BD2B68A8
:1081E0000B49022002F0BEFC33780133DBB233705E
:1081F00022799B005A51EFE75151EDE79020002082
:108200004D290020BC3A00201B3A03000A0C030051
:108210005C0C0300F7B503680400002B08D0164976
:108220000A004B72190A9172190C1B0ED17213734A
:10823000124E134D37782179BA0053590B2B19D0B0
:10824000AB20104A01900091012F06D90E49AA389F
:1082500002F088FC0B232371F7BD2B680B49022029
:1082600002F080FC33780133DBB2337022799B005B
:108270005A51EFE75151EDE7902000204D290020A1
:10828000BC3A00201B3A03000A0C03005C0C0300FC
:10829000F7B503680400002B08D016490A004B729A
:1082A000190A9172190C1B0ED1721373124E134DD1
:1082B00037782179BA0053590B2B19D0AA20104ACC
:1082C00001900091012F06D90E49A93802F04AFC0D
:1082D0000B232371F7BD2B680B49022002F042FCEF
:1082E00033780133DBB2337022799B005A51EFE7C8
:1082F0005151EDE7902000204D290020BC3A00208C
:108300001B3A03000A0C03005C0C0300094B0A49EA
:108310001A68FA239B00C046C046C046C046C04605
:10832000C046C046C0468A4200D0C046013BF2D19A
:108330007047C0464C2100200024F400F0B5544999
:1083400091B0032002F068FB002104AC514B1022D5
:1083500020001970FAF75AFD05230493013B63606E
:10836000CC235B04A36003234B4D237308224B4BA8
:108370002100280003F01EFC002801D002F0E4FFD9
:108380000D23474F3B70FFF7EFFDFFF7BFFF454B56
:108390001B78002B0BD1444B1B784A2B0CD0434944
:1083A0002A2B0AD04249032002F036FB31E0414932
:1083B000032002F031FBE8E73F49032002F02CFBE9
:1083C00023003E4A43CA43C343CA43C343CA43C3C9
:1083D00043CA43C3002306222100280003F036FCD1
:1083E0002A233B70FFF7C0FDFFF790FF2D4B1B7852
:1083F000002B37D12C4A32481178012211434170A9
:1084000002A90C002D483030C0C8C0C4280003F0B9
:108410001DFC2C4A00212C4803F0A4FA2B4A002111
:108420002B4803F09FFA2B4A00212B4803F09AFABD
:108430002A4A00212A4803F095FA2A4E2A4C30781D
:10844000820013590B2B20D05A21FF31274A01916A
:1084500001280CD901202649009002F083FB00205E
:1084600011B0F0BD1349032002F0D6FABCE7012594
:10847000009523681F49022002F074FB33785B19D2
:10848000DBB233709B001D51E9E701231351E6E78E
:108490003A3A03004C290020A02000202C2A00207A
:1084A0004B290020522A0020102A00208D3A030078
:1084B000EC3A03007A3A0300BD3A03001C3603008D
:1084C0007F200020918202001C37030015820200E9
:1084D0002037030099810200183703001D81020034
:1084E000143703004D290020BC3A00201B3A03003A
:1084F0000A0C03005C0C03000C2370B52C4E040026
:108500003370FFF731FDFFF701FF2A4D2B78002B69
:1085100044D1294B1B785B073AD516233370FFF7FC
:1085200023FDFFF7F3FE2B78002B3CD1234D2800D1
:1085300003F07CFAA17A637A09021943E37A204AAC
:108540001B041943237B28001B060B4313600423E1
:1085500013711C4B196803F01DFA1B4D280003F022
:1085600065FAA17A637A09021943E37A174A1B0470
:108570001943237B28001B060B431360052313714B
:10858000134B196803F006FA124A1388013313805B
:108590001149032002F040FA002070BD0F4903206A
:1085A00002F03AFAAFE70D49032002F035FAB8E7D6
:1085B0004B290020522A0020102A0020B829002030
:1085C000A8290020BC200020882900208029002024
:1085D00088200020282A0020A43803007A3A0300CB
:1085E0000C2370B5134D2B70FFF7BEFCFFF78EFE0A
:1085F000114C2378002B12D1104B1B785B070CD544
:1086000016232B70FFF7B0FCFFF780FE2378002BBA
:108610000AD10B4A138801331380002070BD094929
:10862000032002F0F9F9E1E70649032002F0F4F92A
:10863000EAE7C0464B290020522A0020102A0020D9
:10864000282A00207A3A03000C2370B51D4E05003D
:108650003370FFF789FCFFF759FE1B4C2378002B82
:1086600025D11A4B1B785B071FD516233370FFF7F4
:108670007BFCFFF74BFE2378002B1DD1144C200010
:1086800003F0D4F9A97A6B7A09021943EB7A114AFB
:108690001B0419432B7B20001B060B43136006238E
:1086A00013710D4B196803F075F9002070BD0B496B
:1086B000032002F0B1F9CEE70849032002F0ACF93B
:1086C000D7E7C0464B290020522A0020102A00205C
:1086D000F0290020E02900208C2000207A3A0300B5
