:020000022000DC
:102C00000080002035CC020075CC020077CC020099
:102C100000000000000000000000000000000000B4
:102C200000000000000000000000000079CC02005D
:102C300000000000000000007BCC02007DCC020000
:102C400091AE02007FCC02009D8B020001BA02000F
:102C50007FCC02000000000019B4020061B0020045
:102C60007FCC02007FCC02007FCC02007FCC020030
:102C70007FCC02007FCC02007FCC02007FCC020020
:102C80007FCC0200B19802007FCC02007FCC020012
:102C90006D9902007FCC02000DCF02007FCC0200B4
:102CA0007FCC02007FCC020000000000000000008A
:102CB0000000000000000000000000000000000014
:102CC00010B5064C2378002B07D1054B002B02D002
:102CD000044800E000BF0123237010BD98220020AB
:102CE000000000006C120300084B10B5002B03D04D
:102CF0000749084800E000BF07480368002B00D1DF
:102D000010BD064B002BFBD09847F9E700000000F0
:102D10009C2200206C12030084220020000000008E
:102D2000164B002B00D1144B9D46402292029A1A5A
:102D3000924600218B460F461348144A121A00F09F
:102D400065F80F4B002B00D098470E4B002B00D09E
:102D500098470020002104000D000D48002802D0F3
:102D60000C4800E000BF00F02DF82000290000F022
:102D700059F800F011F8C04600000800008000205B
:102D80000000000000000000982200208839002088
:102D90000000000000000000084B10B50400002BEC
:102DA00002D0002100E000BF054B1868836A002BA9
:102DB00000D09847200000F031F8C0460000000025
:102DC0004CDE020070B500260C4D0D4C641BA410A7
:102DD000A64209D100260BF02DF80A4D0A4C641BBF
:102DE000A410A64205D170BDB300EB589847013638
:102DF000EEE7B300EB5898470136F2E77C2200205B
:102E00007C2200207C2200208022002003008218E7
:102E1000934200D1704719700133F9E7FEE7C046CD
:102E200048DF7047F7B5002005F0A6FF764904009B
:102E3000032005F0B5FF7549032005F0B1FF744983
:102E4000032005F0ADFF002C02D0200006F08EFC20
:102E5000002004226F4B092718706F4B1026187042
:102E60006E4B6F4C18706F4B6F4D1A605A609A60C2
:102E70006E4B073218706E4B27601A605A609A606A
:102E80006C4B033218706C4B67601A605A609A6022
:102E90006A4BA760187006232E606E60AE60684AA9
:102EA000136053609360674A1070674A1360536001
:102EB000936003F011FA00970196564B1B789A0025
:102EC000A05809280AD00099013BDBB2A150022B7F
:102ED00000D900234F4A137003F0FEF94E4B1B78C4
:102EE0009A00A85810280AD00199013BDBB2A950DA
:102EF000022B00D90023484A137003F009FC474B0A
:102F0000484A1B789900885804280AD00426013BB7
:102F1000DBB28E50022B00D90023404A137003F01D
:102F2000D5FC424A424913789E0070580B2809D0BC
:102F30000B27013BDBB27750022B00D90023137023
:102F400004F020FA3B4A3C4913789E0070580E2842
:102F500009D00E27013BDBB27750022B00D90023AA
:102F6000137004F0F1FF354A354913789E0070580C
:102F7000062809D00627013BDBB27750022B00D987
:102F80000023137004F032FC2E4A2F4913789E0060
:102F90007058062809D00627013BDBB27750022B78
:102FA00000D90023137005F04BFA03F021FA002832
:102FB00083D103F045FC002800D07EE703F01EFD1E
:102FC000002800D079E704F069FA002800D074E7FF
:102FD00005F052F8002800D06FE704F093FC0028B9
:102FE00000D06AE705F0AAFA002800D065E706F0ED
:102FF00055F8002800D060E7FFF712FF002800D145
:103000005BE706F0B3FB58E750DE0200A3DE0200E8
:10301000BDDE0200002500204128002042280020BB
:103020008C3500203C390020303900204528002014
:103030004839002084290020603900204E290020D2
:1030400054390020C02900206C390020A0DF7047CF
:10305000A6DF704763DF704730B5AE4989B0032003
:1030600005F09EFE01220120AB4B5242AB4C1A8070
:10307000AB49AC4B220088700B80FFF7E7FF0028BC
:1030800001D006F073FBA849102204A80AF05CFAEC
:10309000A64D04A82900FFF7DDFF002801D006F0A7
:1030A00065FBA34A2B7821880392A24AA248029288
:1030B0000222019203320092A04A05F069FB002827
:1030C00001D006F053FB9E4A2B78218803929D4A3B
:1030D0009D48029202220192921800929B4A05F0AA
:1030E00057FB002801D006F041FB994A2B78218834
:1030F0000392984A9848029207220192023A00925B
:10310000964A05F045FB002801D006F02FFB944AB3
:103110002B7821880392934A9348029210220192BD
:10312000073A0092914A05F033FB002801D006F0DF
:103130001DFB8F4A2B78218803928E4A8E4802927B
:103140000C220192073A00928C4A05F021FB0028DC
:1031500001D006F00BFB8A4A2B7821880392894A1A
:10316000894802920122019203320092874A05F0B7
:103170000FFB002801D006F0F9FA854A2B78218848
:103180000392844A84480292102201920B3A0092E0
:10319000824A05F0FDFA002801D006F0E7FA804ADD
:1031A0002B78218803927F4A7F4802921022019255
:1031B0000B3A00927D4A05F0EBFA002801D006F0A8
:1031C000D5FA7B4A2B78218803927A4A7A48029270
:1031D00004220192033A0092784A05F0D9FA0028B5
:1031E00001D006F0C3FA764A2B7821880392754AFB
:1031F000754802920122019204320092734A05F04E
:10320000C7FA002801D006F0B1FA714A2B7821885C
:103210000392704A704802920422019200926F4A0F
:1032200005F0B6FA002801D006F0A0FA6C4A2B7817
:10323000218803926B4A6C480292012201920B3260
:1032400000926A4A05F0A4FA002801D006F08EFA2E
:10325000674A2B7821880392664A674802920122C6
:10326000019204320092654A05F092FA002801D0DA
:1032700006F07CFA624A2B7821880392614A624800
:10328000029202220192013A0092604A05F080FA0D
:10329000002801D006F06AFA5D4A2B782188039253
:1032A0005C4A5D48029210220192073A00925B4A02
:1032B00005F06EFA002801D006F058FA584A2B782B
:1032C00021880392574A58480292102201920B3AE1
:1032D0000092564A05F05CFA002801D006F046FA42
:1032E000534A21882B780392524A53480292102263
:1032F00001920B3A0092514A05F04AFA041E01D09D
:1033000006F034FA4E49032005F04AFD200009B0CA
:1033100030BDC046FBE502004C200020C423002045
:10332000C623002000FFFFFFE1DE0200CA230020C9
:10333000F42200207823002025E6020001FF00008F
:1033400024230020AE23002034E6020002FF000008
:103350001C230020A72300203EE6020003FF0000FC
:103360002C230020B023002045E6020004FF0000CB
:10337000FC2200207A2300205AE6020005FF00000C
:10338000CC2200204023002075E6020006FF00004A
:10339000E42200205823002086E6020007FF0000F8
:1033A0000C230020872300209AE6020008FF00007B
:1033B000D422002044230020AEE6020009FF0000D2
:1033C0000423002086230020BDE602000AFF00003F
:1033D00034230020C0230020D2E602000BFF0000AF
:1033E000B42200203C230020DCE602000CFF000099
:1033F000BC2200203D230020EFE602000DFF00006C
:10340000C42200203E230020FBE602000EFF000045
:10341000DC2200204823002003E702000FFF000009
:10342000EC2200206823002016E7020010FF0000B5
:1034300014230020972300202FE7020011FF000033
:1034400048E70200F0B510251627114E8BB006ACE8
:1034500000900191029269462A00300003936F4464
:103460000AF072F82A00002120003D80FFF7CEFC10
:10347000084B21001B88A76023800123A370002331
:10348000A380054BE6601888FFF7E2FD0BB0F0BDA6
:10349000B02300202C2300204C200020F0B587B062
:1034A0006B4601270C4D02AC287010220021200031
:1034B0009E1DDF80FFF7AAFC084B21001B88A77028
:1034C00023800023A380064BA6601888E560FFF7E1
:1034D000BFFD07B0F0BDC0463C230020B422002051
:1034E0004C200020F0B5038885B00500112B2BD0AF
:1034F00003D8102B0AD005B0F0BD502B4AD0532B67
:10350000F9D1A249042005F04BFCF4E78288A04BD6
:103510000420A0491A8005F043FC9F4E9F4C307850
:1035200082001359102B0CD037219D4A019103259D
:10353000343901281FD900919A49012005F0D6FCA1
:10354000D9E703231351D6E70122914B52420420BD
:1035500095491A8005F024FC8F4E904C30788200FB
:103560001359102B14D045218D4A0191012801D9FE
:103570004139E0E70425009523688C49022005F0D5
:10358000B5FC33780133DBB233709B001D51B2E7D9
:103590000423D7E78649042005F002FC854AEB881E
:1035A0001288AC1D9A4220D1227B8349042005F069
:1035B00013FCFF20FFF772FF804803887F2B01D99F
:1035C0007F23038003F022F9734E744C307882001D
:1035D0001359102B07D05A21714A019105255539ED
:1035E0000128A8D8C7E70523ACE7754A12889A4294
:1035F00021D1227B7349042005F0EEFBFF20FFF769
:103600004DFF714803887F2B01D97F23038003F08E
:10361000FDF8614E614C307882001359102B08D0B0
:1036200065215F4A019106255F39012800D982E7AB
:10363000A1E7062386E7654A12889A4219D1227BC0
:103640006349042005F0C8FB624803F0DFF8524EDE
:10365000524C307882001359102B08D06D21504AFB
:10366000019107256639012800D964E783E707231C
:1036700068E7594A1188994205D1227B57490420AD
:1036800005F0AAFB37E792889A4202D1227B54497F
:10369000F5E7544A12889A4216D1227B04205249F7
:1036A00005F09AFB3C4E3D4C307882001359102BAC
:1036B00008D07A213A4A01910B256F39012800D9A7
:1036C00039E758E70B233DE7484A12889A4219D157
:1036D000227B4749042005F07FFB464803F096F81B
:1036E0002D4E2E4C307882001359102B08D081219A
:1036F0002B4A019108257939012800D91BE73AE7BF
:1037000008231FE73C4A12889A4202D1227B3B4998
:10371000B5E73B4A12889A4202D1227B3949AEE78B
:10372000394A12889A4216D1227B0420374905F083
:1037300053FB194E194C307882001359102B08D0C6
:103740009121174A01910A258739012800D9F2E60B
:1037500011E70A23F6E62E4A12889A425CD1227BB0
:1037600004202C4905F038FB0B4E0C4C30788200BD
:103770001359102B08D09721094A019109258E3938
:10378000012800D9D7E6F6E60923DBE6D4E50200F6
:103790004C200020F1DE02004128002030390020BA
:1037A0001CDF02003DDF0200D9DF02008FDF0200D4
:1037B00007E00200F422002034E002007823002019
:1037C0002423002085E00200AE2300201C230020DB
:1037D000D1E00200A72300202C2300201AE10200E0
:1037E00071E10200FC220020C7E10200CC2200208F
:1037F00024E2020040230020E422002077E20200BD
:103800000C230020CDE202000423002023E3020069
:10381000342300207AE30200494A12889A4272D186
:10382000227B4849042005F0D7FA237B0393022B1F
:1038300025D10125444B1B782B4220D0434903203E
:1038400005F0AEFA8020000204F0E8FD802040027E
:1038500004F0EAFDC020800204F0ECFD3C4F3D4E38
:10386000387882009359062B49D0A3213A4A019116
:103870000095A84237D93949280005F037FB237B4A
:10388000062B00D037E601242F4B1B78234200D1B2
:1038900031E63349032005F083FA8020000204F06A
:1038A000BDFD8020400204F0BFFDC020800204F076
:1038B000C1FD274E274D307882005359062B20D06A
:1038C000AB21254A01910094A04200D934E62B682F
:1038D0002449022005F00AFB33780133DBB2337050
:1038E0009B005C5107E633681E49039805F0FEFA19
:1038F0003B780133DBB23B709B009D51BFE7955194
:10390000BDE75451F7E5184A12889A4202D1227B4A
:103910001649B4E6164A12889A4202D1227B15490A
:10392000ADE6154A12889A4202D1227B1349A6E6D7
:10393000134A12889A4200D0DDE5227B11499EE6A7
:10394000B4220020C6E302003D2300201BE4020055
:10395000C02900206C3900201CDF02003DDF02007E
:103960004CE402008FDF0200BC2200207BE4020056
:10397000DC220020C9E40200EC2200201EE5020047
:103980001423002079E50200F0B510251627114E0A
:103990008BB006AC00900191029269462A0030007B
:1039A00003936F4409F0D0FD2A00002120003D80E0
:1039B000FFF72CFA084B21001B88A7602380012306
:1039C000A3700023A380054BE6601888FFF740FB37
:1039D0000BB0F0BD48230020DC2200204C2000204A
:1039E00010B504000C22024909F0AEFD200010BD04
:1039F0007A2300207FB51025094E04002A003100EB
:103A0000684609F0A1FD7F22F37B694613406A46B0
:103A10002000D3732A0009F097FD200004B070BD88
:103A2000582300207FB51025094E04002A003100DC
:103A3000684609F089FD7F22F37B694613406A4698
:103A40002000D3732A0009F07FFD200004B070BD70
:103A5000872300207FB51025094E04002A0031007D
:103A6000684609F071FD7F22F37B694613406A4680
:103A70002000D3732A0009F067FD200004B070BD58
:103A8000B0230020014B18887047C04678230020DF
:103A9000014B18887047C046AE230020014B1868C0
:103AA0007047C046C0230020014B18787047C046BD
:103AB0003D230020014B18787047C0468623002024
:103AC0007FB51025094E04002A003100684609F030
:103AD0003BFD7F22F37B694613406A462000D37387
:103AE0002A0009F031FD200004B070BD68230020D9
:103AF0007FB51025094E04002A003100684609F000
:103B000023FD7F22F37B694613406A462000D3736E
:103B10002A0009F019FD200004B070BD9723002091
:103B20001FB501900291039201A90C22024809F0ED
:103B30000BFD05B000BDC0467A230020014B186084
:103B40007047C04644230020014B18807047C04690
:103B50003E230020014B18807047C0467823002088
:103B600007B50722009001910248694609F0ECFC74
:103B700007BDC046A7230020014B18707047C04600
:103B8000862300201FB5029203935A006B46520E03
:103B9000009001910348DA736946102209F0D4FCC1
:103BA00005B000BD582300201FB5029203935A00B0
:103BB0006B46520E009001910348DA736946102259
:103BC00009F0C2FC05B000BD872300201FB502929A
:103BD00003935A006B46520E009001910348DA732A
:103BE0006946102209F0B0FC05B000BDB0230020EA
:103BF000F0B5038885B004001D2B70D10622037C2C
:103C0000134093426BD1027A3E49042005F0E4F858
:103C1000A17BA37A627A0391617B04200291217BCC
:103C200027000191E17A11370091374905F09CF99D
:103C30000F223649A256042005F0CEF8227C3449E2
:103C40005207920F042005F0C7F83249042005F00E
:103C5000A7F8314E237C3100DB083A00042005F040
:103C6000CFF92E4D1E223900280009F06DFCBA79DB
:103C70007B7912021A432A49042005F0ADF8BA7E76
:103C80007B7E12021A432749042005F0A5F83A7FEB
:103C9000FB7E12021A432449042005F09DF82349B3
:103CA000042005F07DF8220010231A323100042090
:103CB00005F0A6F9280002F087FE1D4E1D4C307855
:103CC00082001359042B1AD039211B4A0191012873
:103CD00007D9373900910120184905F007F905B0D7
:103CE000F0BD0225009523681549280005F0FEF86F
:103CF00033780133DBB23370AB401D51EFE7022361
:103D00001351ECE76EE7020090E70200B1E7020012
:103D1000C7E70200E1E70200F4E70200CB2300203E
:103D200002E802001EE8020035E802004CE802004A
:103D3000422800203C3900205FE802003DDF0200FD
:103D40008FDF020078DF70477ADF70477CDF7047D3
:103D50007047000000487047CC24002010B504498B
:103D6000044808F065FF002801D005F0FFFC10BDF5
:103D7000513D0200BC24002070B59AB00BAC3C222F
:103D800000212000FFF742F8022323700433E37080
:103D9000104B012663618023626A03ADDB00A670CD
:103DA00026820021138028002022FFF72FF8962377
:103DB00000215B002B61EE706961074B00912A00C6
:103DC000200008F08FFB002801D005F0CFFC1AB0CE
:103DD00070BDC0464E2000209D3F0200112330B52B
:103DE00085B001AD2B701A4B1A4C1B681A4A1B493F
:103DF0009BB2200009F0E4FB200009F003FC210045
:103E000082B22800FFF7A2FF002801D005F0AEFC27
:103E10000020FFF797FF002801D005F0A7FC02ACB7
:103E2000082200212000FEF7F1FF20232380183311
:103E300063800023A3809133FF332000E380FFF7EA
:103E400083FF002801D005F091FC05B030BDC046CD
:103E5000A4000010CC2400208AE8020080E80200C0
:103E60007FB5184904220631684609F06DFB00232E
:103E7000D0221549684608F0FFFF002801D005F060
:103E800075FC01AA0121002009F050F8002801D09A
:103E900005F06CFC01A809F061F8002801D005F0DC
:103EA00065FC0A4809F01EF8002801D005F05EFC08
:103EB000074809F021F8002801D005F057FC07B0A9
:103EC00000BDC04680E80200EC230020D73F02007E
:103ED0000540020076DF7047A8DF704767DF704754
:103EE0001FB503880400112B27D004D8022B2ED035
:103EF000102B13D01FBD512B2FD0552B25D03A2B73
:103F0000F8D12149042004F04BFFA0881321FFF7CA
:103F1000E1FF0028EED005F029FCEBE703201B4968
:103F200004F03EFF072007F027FF002801D005F02E
:103F30001DFCA288164B1A80DCE7027A1549032083
:103F400004F04AFF01225242F4E71349DAE7104B2A
:103F500000211888FFF7C2FFDBE78379002BC9D067
:103F6000827B043A022AC5D8022B0AD16A46137012
:103F7000C1236A465B009380A0886946FFF7ACFFC7
:103F8000C7E70123F2E7C04636E90200FCE8020079
:103F9000DA24002012E9020058E9020010B50028D6
:103FA0000CD0032809D1074904F0FAFE022007F0DB
:103FB000E3FE002801D005F0D9FB10BD04F0D4FACF
:103FC000FBE7C046DFE80200038810B5112B01D0E3
:103FD00008F05AFC10BD10B5040008F0B1FD200037
:103FE00008F058FD200007F091FF2000FFF778FF50
:103FF0002000FFF777FA2000FFF7E6FF2000FFF729
:10400000F7FD10BD10B5040006F0D6FD200008F045
:1040100071FC10BD73B50E2802D00F2808D073BDF7
:104020002A49032004F0BCFE0120FFF737FAF6E727
:104030000320274904F0B4FE264E274C3078820036
:104040001359062B2DD085214900244A01910128BE
:1040500019D90739FF3900910120214904F046FFA1
:10406000204E214C307882001359092B2AD00C2184
:10407000FF311A4A0191012816D9012018490090F0
:1040800004F034FFCBE7042500952368174902208C
:1040900004F02CFF33780133DBB233709B001D51E9
:1040A000DEE704231351DBE70125009523680F4960
:1040B000022004F01BFF33785B19DBB233709B00E6
:1040C0001D51ACE701231351A9E7C04693E8020054
:1040D000B2E80200C02900206C390020C8E80200C4
:1040E0003DDF0200002500208C3500208FDF02001C
:1040F0008023F7B5DB02984200D107E109D880237D
:104100009B02984220D0C0239B02984200D1AAE093
:10411000F7BDA023DB02984200D1B6E0C023DB024A
:104120009842F5D10329F3D103F0DEFB02F054F9F4
:10413000B24EB34C3078B34D82001359092B00D1E5
:1041400017E1B14A2F212BE0012918D102F06AFBB7
:1041500002F042F9A94FAA4D3878AC4E820053596B
:10416000092B00D1AEE01921A74A01910096012840
:1041700000D89BE0A649012004F0B8FEC8E7042956
:104180001ED102F04FFB02F027F99C4E9C4C307878
:10419000A04D82001359092B00D1EAE01A219A4A56
:1041A000019100950128E5D823689B49022004F07D
:1041B0009DFE33780133DBB233709B001D51A7E7BE
:1041C000072900D0D7E002F02DFB02F005F98B4E55
:1041D0008B4C3078914D82001359092B00D1C8E0E7
:1041E000894A1B21DCE702F01DFB02F0F5F8834E43
:1041F000834C30788A4D82001359092B00D1B8E0E6
:10420000814A1C21CCE702F00DFB02F0E5F87B4E61
:104210007B4C3078834D82001359092B00D1A8E0E4
:10422000794A1D21BCE702F0FDFA02F0D5F8734E81
:10423000734C30787C4D82001359092B00D198E0E3
:10424000714A1E21ACE702F0EDFA02F0C5F86B4EA0
:104250006B4C3078754D82001359092B00D188E0E2
:10426000694A1F219CE7022900D051E702F0B8FB00
:1042700002F0B2F8614F624D38786D4E82005359AA
:10428000092B1FD0604A24216FE701291CD103F0BC
:10429000E5FE02F0A1F8594F594D3878654E82007D
:1042A0005359092B0ED0584A28215EE72B685A49EA
:1042B000022004F01BFE3B780133DBB23B709B0015
:1042C0005E5125E7565123E705290ED103F0C6FEBE
:1042D00002F082F8494E4A4C3078574D820013590B
:1042E000092B46D0484A29215AE70C2961D103F00D
:1042F000B5FE02F071F8414E414C30784F4D8200CE
:104300001359092B35D0404A2A2149E708290ED1F3
:1043100003F0B6F802F060F8384E394C3078484D6A
:1043200082001359092B24D0374A342138E7062953
:104330000ED103F0A5F802F04FF8304E304C307833
:10434000404D82001359092B13D02F4A352127E7FE
:10435000052940D103F094F802F03EF8274E284C8E
:104360003078394D82001359092B02D0264A362164
:1043700016E71551CCE6062900D134E7082900D10B
:1043800041E7092900D14EE70A2900D15BE70B2953
:1043900000D0BDE602F046FA02F01EF8174E184CA7
:1043A00030782A4D82001359092BE2D0164A202179
:1043B000F6E6092900D0ABE603F050FE02F00CF857
:1043C0000E4E0F4C3078224D82001359092BD0D05D
:1043D0000D4A2B21E4E6072900D099E603F050F8B6
:1043E00001F0FAFF054E064C30781A4D8200135941
:1043F000092BBED0044A3721D2E6C0460025002052
:104400008C350020030006007AE90200010002005A
:104410003DDF0200040002008FDF020007000200FF
:104420000600020008000200090002000A00020063
:104430000200030001000500050005000C00050056
:104440000800040006000400050004000B00020040
:10445000090005000700040011DF704713DF7047F3
:1044600010B50320024904F09BFC002010BDC0469B
:104470007EED020010B50449032004F091FCFE20FB
:10448000FFF70CF8002010BD0CEF0200F7B5036831
:104490000400002B08D016490A004B72190A9172C9
:1044A000190C1B0ED1721373124E134D37782179EC
:1044B000BA005359092B19D06C20104A0190009171
:1044C000012F06D90E496B3804F010FD0923237122
:1044D000F7BD2B680B49022004F008FD3378013347
:1044E000DBB2337022799B005A51EFE75151EDE76F
:1044F00052200020002500208C35002024EB0200F3
:104500003DDF02008FDF0200F7B503680400002BD7
:1045100008D016490A004B72190A9172190C1B0E29
:10452000D1721373124E134D37782179BA00535953
:10453000092B19D06B20104A01900091012F06D948
:104540000E496A3804F0D2FC09232371F7BD2B68A9
:104550000B49022004F0CAFC33780133DBB233701C
:1045600022799B005A51EFE75151EDE7522000208C
:10457000002500208C35002024EB02003DDF0200E6
:104580008FDF0200F7B503680400002B08D016493E
:104590000A004B72190A9172190C1B0ED172137317
:1045A000124E134D37782179BA005359092B19D07F
:1045B0006A20104A01900091012F06D90E496938EE
:1045C00004F094FC09232371F7BD2B680B490220EA
:1045D00004F08CFC33780133DBB2337022799B001A
:1045E0005A51EFE75151EDE75220002000250020FD
:1045F0008C35002024EB02003DDF02008FDF02003B
:1046000010B50549032004F0CBFB03F06DF90088D9
:10461000FFF79AFA002010BDAAF0020010B5817AC7
:10462000437A09021943C37A094A1B041943037BDD
:1046300008481B060B4380211360062309021371EF
:1046400005F0BAFB044A002013680133136010BD63
:104650007C2500208425002088350020F0B568499D
:1046600089B0032004F09CFB02F0BAF904008279BF
:10467000437912021A436349042004F0ADFBA27E81
:10468000637E12021A436049042004F0A5FB227FD6
:10469000E37E12021A435D49042004F09DFB5C494D
:1046A000042004F07DFB2200102309325949042024
:1046B00004F0A6FC00250726574B1B681B88AB425D
:1046C00046D802F0FFFE04AC022800D07DE02000B6
:1046D000FFF790F9FFF7D6F90122C308DBB2039385
:1046E00007231500FF2103409D408C460023013D18
:1046F000EDB2591CC9006646814200DD2E004749D3
:10470000CF5CE15C0133B94331404E424E410399E5
:104710007642DBB232409942EBD2002A15D0032018
:104720003F4904F03DFB3F4E3F4C30788200135927
:10473000092B61D03D493E4A019101284ED90421FF
:10474000012000913B4904F0D1FB002009B0F0BDED
:104750006379394A9C46330067466B43985CD318AB
:10476000A1795A780902120239430243914229D1B0
:10477000627EA17E94466746DA7898780902120232
:104780003943024391421DD11979227F5B79E07E42
:1047900012021B0202430B439A4213D12B00012049
:1047A0003340984003001D49EA08885C03438B545A
:1047B000224AAB001168224A032099502A0021495D
:1047C00004F00AFB0135ADB276E702F07BFE01286A
:1047D00000D17CE72000FFF725F97BE70425009551
:1047E00023681949022004F081FB33780133DBB2DE
:1047F00033709B001D51A8E704231351A5E7C04661
:10480000B2EB0200F0EB02001BEC020041EC0200F4
:1048100067EC0200F4E70200A42500202D2600200A
:10482000B6EC0200002500208C350020A10300001A
:1048300024EB02003DDF020098350020883500207F
:104840004026002089EC02008FDF020010B50549E8
:10485000032004F0A5FAFFF72DF902F039FE00203D
:1048600010BDC04600F50200F0B5002585B03749FF
:10487000032004F095FA364C3649236803205A8801
:1048800004F0AAFA236834499A88032004F0A4FAB1
:1048900023683249DA88032004F09EFA23683049FD
:1048A0001A89032004F098FA23682E499A7A032083
:1048B00004F092FAFFF7ECF82A0021682A4E0B88E0
:1048C00003900293029893B2019383420BD3002D7D
:1048D0002BD00320254904F063FAFA20FEF7DEFD11
:1048E000002005B0F0BD072353439C5DF318A44698
:1048F00060465C788F8824020443A74212D1DC789A
:104900009878CF8824020443A7420BD11C795B79A5
:104910000F891B0223439F4204D1019B03989842B5
:1049200000D001250132D2B2CCE707224B880E48D5
:1049300053430431C01808F007FEFF20FEF7AEFD18
:104940000B49032004F02CFACAE7C046A9F502007F
:10495000A4250020E5F502000FF602003AF6020059
:1049600060F6020086F6020098350020B8F60200D4
:10497000F1F6020010B51349032004F011FAFFF715
:1049800087F8114B8000C058FFF7D8F8FFF780F880
:10499000072250430D4BC15C1B185A7898781202BD
:1049A0000A4300040243D8785979000610431A7963
:1049B00009020A43997909041143FFF7D1F800204D
:1049C00010BDC04616F70200402600209835002092
:1049D00010B50A49032004F0E3F9FFF75FF8084C2B
:1049E000206002F06FFD2030C0B2FEF757FD226854
:1049F0000449032004F0F0F9002010BD55F702002F
:104A00008835002094F7020073B53A49032004F07A
:104A1000C7F901F007FF384B384E18603078384C32
:104A200082001359102B40D091218900354A019101
:104A300001282CD9022101200091334904F056FAB3
:104A4000324E334C3078820013590B2B3ED0314913
:104A50002C4A019101282BD90021012000912A49DB
:104A600004F044FA2C4E2D4C3078820013590E2B52
:104A70003DD092218900234A0191012829D90021A2
:104A800001200091204904F031FA002076BD022572
:104A9000009523682249280004F028FA337801336E
:104AA000DBB23370AB401D51CAE702231351C7E795
:104AB0000025009523681A49022004F017FA33787C
:104AC0000133DBB233709B001D51CBE70023135140
:104AD000C8E70025009523681149022004F006FA72
:104AE00033780133DBB233709B001D51CDE70023D7
:104AF0001351CAE705ED0200A4250020412800203B
:104B00003039002024EB02003DDF02004528002060
:104B10004839002046020000842900206039002026
:104B20008FDF020073B54849032004F039F9474C80
:104B3000142322004649042004F062FA62782378A4
:104B400012021A43A378434E1B041A43E3783460DD
:104B50001B061343404A93425BD1E023E579A279D7
:104B60002D029B0015439D4253D162792379120295
:104B70001A433A49032004F02FF932685379117926
:104B80001B020B43364909680B80507913790002E8
:104B90001843FEF7DFFF33685A7A187A120202438D
:104BA000987A197B00040243D87A5C7C0006104393
:104BB0005A7B240212020A43997B09040A43D97BD7
:104BC000090611431A7C14439A7C12041443DA7CBC
:104BD00012062243FEF7A4FF2248234B8580036080
:104BE0000523836003F02EFA204E214C307882009A
:104BF00013590E2B25D09B211E4A890001910128B3
:104C000011D90321012000911B4904F06FF9002004
:104C100076BD1A4E1A4C307882001359092B10D0E9
:104C2000144A1849EAE7032500952368164902202B
:104C300004F05CF933780133DBB233709B001D5113
:104C4000E5E703231351E2E787EF0200E8240020A1
:104C5000F4E70200A82500205AA5A55AC8EF0200D3
:104C6000A4250020DC240020983500208429002081
:104C70006039002024EB02003DDF02000025002007
:104C80008C3500206E0200008FDF0200F0B5C549B0
:104C90009FB0032004F084F801F0C4FD0478012CD7
:104CA00054D1C149032004F07BF8E0220021920096
:104CB000BE48FEF7ABF80021BD4D0C2228680180EC
:104CC0000B30FEF7A3F82A681300D07A127BD97B49
:104CD00012020243587B1D7D00040243987B2D0283
:104CE000000610431A7C12020A43597C09040A4345
:104CF000997C09061143DA7C15435A7D1204154349
:104D00009A7D12062A43FEF70BFFAA4EAA4D307871
:104D1000820053590E2B3BD0A849A94A0191012882
:104D200006D90B2101200091A64904F0DFF82CE000
:104D30000B2400942B68A449022004F0D7F83378A0
:104D40000133DBB233709B005C511EE0022C22D198
:104D500003209E4904F024F8964E974D3078820047
:104D600053590E2B14D09A49954A01910128D8D84D
:104D70000B2700972B689449200004F0B7F833788C
:104D80000133DBB233709B005F5100201FB0F0BDD8
:104D90000B235351F9E7032C1CD18E49200003F05B
:104DA000FFFF04F07BF90028FBD10123D8208A4AB9
:104DB0005B42D367894A4002D367FFF74FFBFFF797
:104DC0004BFBBFF34F8F864A864BDA60BFF34F8FA2
:104DD000C046FDE7042C00D04EE1FEF759FE070067
:104DE000FEF750FE3A0002907F49032003F0F4FFE3
:104DF000029BFCB207259F4211D3FB20CEE0280086
:104E00002B00661C734360432A000818C91808F079
:104E10009BFB764BB200D258A400E250F4B2029B46
:104E20006249581E8442EADB002365436F4A4B55B2
:104E3000A4004D19A3506B70AB70EB702B716B71AC
:104E40005B4B80B21B681880FEF784FE12A8FEF749
:104E5000E9FD129B16A80693139B0793149B0493DA
:104E6000159B1093FEF7C6FD169B1AA80A93179B75
:104E70000B93189B0C93199B0D93FEF7EBFD1A9B5C
:104E800008931B9B09931C9B0E931D9B0F9301235F
:104E90003F2F00D9ACE01E00BE40013EF217944601
:104EA000FF18BB406546069F5C4227400799E31701
:104EB0007A08069F1940C807374002433800079F09
:104EC00011932F404B08390012184B410499069258
:104ED000C9070B43049A0793109B5208DB071A4338
:104EE0000A9F109B27400B995B08029203937A0854
:104EF000E3170A9F1940C8073740024338000B9F49
:104F00004B082F40390012184B410C990A92C907DF
:104F10000B430B930C9A0D9B5208DB071A430D9B16
:104F200004925B080593089B119D1C406208089C35
:104F3000099B3440200064461D40E9076B08099D29
:104F40000A432C40210012184B410E990892C907C0
:104F50000B4309930F9B0E9ADB0754081C430F9BCE
:104F60005D08049E059F189619970B99049A0A9854
:104F7000199BFEF707FE029E039F1496159707994B
:104F8000029A0698159BFEF70FFE1C941D95089833
:104F9000099922001D9BFEF719FEFF20FEF77EFAFD
:104FA000F3E6C046B5ED0200FBED020098350020A7
:104FB000A42500208429002060390020B7020000C9
:104FC00024EB02003DDF02008FDF020026EE02002C
:104FD000BB02000058EE020004E100E008E100E03E
:104FE0000400FA0500ED00E079EE02004026002002
:104FF0003F221E003A40964001329340109C5B4293
:10500000DA17144011920499049A013E1940324073
:10501000E507480861081400109AF7173A4028433A
:1050200015000C9A001969411A40944602900391A8
:10503000119A0D991140624654080C9AC8073240E3
:10504000044310000D9A4D083A40110024184D41B8
:105050000E9A119913400F9A58080E9B1140049410
:1050600005953340CC0720431C000F9B49083B406B
:105070001D0024184D4174E7052C00D085E603205F
:105080000B4903F08DFE01200A4E0B4B37780B4D78
:10509000BA0018705359092B08D00949094A0191DF
:1050A0000094874200D845E607493EE654516CE635
:1050B000A2EE020000250020AC2500208C35002047
:1050C0001A03000024EB02003DDF020073B503F079
:1050D0001BFB474A0021474804F056FE464A002180
:1050E000464804F051FE464A0021464804F04CFE72
:1050F000E022002192004448FDF788FE8022002132
:1051000092004248FDF782FE802200214048FDF7D0
:105110007DFE1820FEF730FD3E4E3F4C3078820079
:105120001359062B3FD0862189003C4A0191012862
:105130002BD9002101200091394903F0D7FE394EC7
:10514000394C307882001359062B3DD03749334A09
:10515000019101282AD9002101200091304903F052
:10516000C5FE334E334C307882001359092B3CD0A6
:1051700031492A4A0191012829D9022101200091AF
:10518000274903F0B3FE002076BD00250095236873
:105190002A49022003F0AAFE33780133DBB23370D0
:1051A0009B001D51CBE700231351C8E70025009554
:1051B00023682249022003F099FE33780133DBB2E1
:1051C00033709B001D51CCE700231351C9E7022522
:1051D000009523681949280003F088FE33780133CD
:1051E000DBB23370AB401D51CDE702231351CAE748
:1051F000854502001CEB02000945020018EB020085
:105200008D44020020EB020098350020402600204B
:10521000AD2500204E2900205439002024EB020047
:105220003DDF0200C02900206C3900201902000077
:10523000002500208C3500201A0200008FDF0200BC
:1052400073B51C49032003F0ABFD1B4C1B4BE02244
:105250002360052392001A490320A360A28003F073
:10526000BBFD200002F0EEFE164E174C3078820097
:1052700013590E2B1AD01549154A0191012807D947
:10528000072101200091134903F030FE002076BD74
:105290000725009523681049022003F027FE337884
:1052A0000133DBB233709B001D51EFE7072313512D
:1052B000ECE7C046F5EF0200DC2400209835002022
:1052C00037F002008429002060390020A304000088
:1052D00024EB02003DDF02008FDF020070B5294998
:1052E00086B0032003F05CFD5A235B22264C524219
:1052F0002370E370254B62701B68A2701B88244DDD
:1053000023711B0A637180235B42A3718333E371B2
:1053100002A82C60FEF764FB20000C2202A90830D2
:1053200008F012F91B482B680360002383601433D4
:10533000838002F087FE184E184C30788200135993
:105340000E2B1BD01649174A0191012808D90721B5
:1053500001200091144903F0C9FD002006B070BD82
:105360000725009523681149022003F0BFFD33781B
:105370000133DBB233709B001D51EEE7072313515D
:10538000EBE7C0464CEF0200E8240020A4250020F3
:10539000A8250020DC24002084290020603900207A
:1053A0009504000024EB02003DDF02008FDF0200C5
:1053B00073B50320144903F0F3FC144E144C3078F9
:1053C00082001359102B1BD0A1218900114A019191
:1053D000012807D90221012000910F4903F086FD21
:1053E000002076BD0225009523680C49280003F0B3
:1053F0007DFD33780133DBB23370AB401D51EFE7F5
:1054000002231351ECE7C04640ED02004128002082
:105410003039002024EB02003DDF02008FDF020064
:1054200073B51949032003F0BBFC1848184B0360FF
:10543000002383601433838002F004FE154E164C63
:105440003078820013590E2B1AD01449144A019156
:10545000012807D9032101200091124903F046FDDC
:10546000002076BD0325009523680F49022003F034
:105470003DFD33780133DBB233709B001D51EFE704
:1054800003231351ECE7C046CFEE0200DC240020DA
:10549000E824002084290020603900205A020000FE
:1054A00024EB02003DDF02008FDF020073B51F49CD
:1054B000032003F075FC02F005F81D4902000320EB
:1054C00003F08AFC01F0FEFF2030C0B2FDF7E6FFDA
:1054D00001F0F8FF011E03D180221648FDF796FC6B
:1054E000154E164C307882001359092B1AD01449E6
:1054F000144A0191012807D9052101200091124980
:1055000003F0F4FC002076BD0525009523680F49C3
:10551000022003F0EBFC33780133DBB233709B00E5
:105520001D51EFE705231351ECE7C04642EB0200A3
:1055300083EB0200AD250020002500208C350020E3
:105540008104000024EB02003DDF02008FDF020037
:10555000002213B50D4B0E4903201A6003F020FC06
:105560000C49032003F01CFC03F09AF86B46DC1D89
:10557000200003F0A9F8FEF773FC2378002B03D07A
:105580000549032003F00CFC002016BD88350020DF
:1055900050DE02004AF502008FF50200F0B58DB032
:1055A0000B9316AB1B880A920493DB08DBB20593BE
:1055B0000723049A099113400122110099400B001E
:1055C0000024013BDBB208900693029403940792F7
:1055D00012AB1F5D08AB1E5D04993500179BBD43E0
:1055E000621C1D55D200FF238A4200DD069B1D4030
:1055F00028D02A001B490420009403F041FC3B0002
:1056000032001949042003F00DFC0026E700FFB228
:10561000079B1D4212D0029822000130C3B2B81974
:105620000293C3B2039311493300042003F0FAFB41
:10563000039B029A0E49042003F0F4FB01366D0827
:10564000082EE5D10134059BE4B2A342C0D200206C
:10565000029B834204D0039B1802029BC01880B2B5
:105660000DB0F0BDC1F702001AF8020070F8020098
:10567000ACF80200F0B585B00292039307220EAB9E
:105680001C8801232240934000220191013BE10844
:105690000090C9B2DBB20AAEFF27551CE800BC4639
:1056A000A04200DD9C466F46B05CBA5C82431000AD
:1056B0006246104004D1EAB29142EDD205B0F0BD8D
:1056C0000120FBE7F0B587B00492042205930CABF0
:1056D0001C88012700239446E408114D0290039191
:1056E000E4B2DE00F6B2A34217D8002002AAD25CD0
:1056F0000192019932180141D2B2394004D0A95C1B
:105700000131C9B2032906D80130A9540828F0D1C3
:105710000133DBB2E5E76146F6E707B0F0BDC0460E
:10572000AD250020F0B50023072501268B4200D3CC
:10573000F0BD074AD25C032A07D91A0034002A4078
:105740009440DF08C25DA243C2550133DBB2EDE7EE
:10575000AD250020F0B587B005930CAB1D880391F3
:10576000ED08EBB200930023049219001A00029096
:105770000098DE00F6B2834213D8002402A8C05C71
:1057800001900198012520413719FFB2284202D02B
:105790003A004919C9B20134082CF2D10133DBB205
:1057A000E6E70020814202D01202511888B207B009
:1057B000F0BD0000F0B5BA49A5B0032003F0F0FA3F
:1057C000B84804F045FBB84EB84C30788200135905
:1057D000042B00D1DAE0EB218900B54A01910128C0
:1057E00000D8C5E00120B349009003F07FFBB24927
:1057F000042003F0D5FAB14E10233200B049042042
:1058000003F0FEFB01F05EFE08AD022800D0C0E010
:105810000CA8FEF7EFF8002414AF3800FEF7EAF802
:10582000E35D18AF38000793FEF74AF9E35D079A86
:1058300013402B550134102CEED1FEF723F907004D
:1058400010AC102200212000FDF7E0FA04351022F0
:10585000310068460594049707F076FE0ECD08984F
:10586000FFF79CFE1022310005006846049707F000
:105870006BFE0C980D990E9A0F9BFFF7FBFE00280C
:1058800000D0A1E001F01EFE011E00D0C3E0802286
:105890008C48FDF7BBFA0420ECB22A008A4903F0D9
:1058A0009BFA60426041C0B200F026FF002C45D058
:1058B0008649032003F074FA139B10981199129AE9
:1058C000FEF762F8FEF7F0F8C30737D58049012CE0
:1058D00000D0B4E007232D0AADB25D437D4B5D19C6
:1058E000AA79092A00D9A9E00C267B49032003F0F4
:1058F00073FAAB79794C7343185902F08FFDAB7989
:105900007343E318586802F08FFDAB795E43A41926
:10591000A06802F08FFD724E724C307882001359ED
:10592000062B00D1A7E07049614A0191012800D8F7
:1059300093E001205F49009003F0D8FA5F4800F03F
:1059400065FF6A4E6A4C307882001359102B00D1E3
:10595000A2E06849564A0191012800D88EE00C2146
:1059600001200091534903F0C1FA002025B0F0BD99
:105970000125009523686049022003F0B7FA3378C7
:105980005B19DBB233709B001D5130E701231351CB
:105990002DE701F097FD012800D139E70CA8FEF7AB
:1059A00041F800241CAF3800FEF73CF8E35D20AF5F
:1059B00038000793FEF79CF8E35D079A13402B55D8
:1059C0000134102CEED138E74C4B4D4E1878820044
:1059D00093590B2B1CD04B49354A0191012806D90C
:1059E000082101200091334903F080FA4AE7082397
:1059F000009333684049022003F078FA3F4B3F4A56
:105A00001B780133DBB2137008229B009A5139E7EF
:105A10000823935136E700976168A268E3681098FD
:105A2000FFF750FE20003900FFF77CFE043400979A
:105A300010980ECCFFF78EFE05002CE732490320AC
:105A400003F0AEF98020000202F0E8FC8020400262
:105A500002F0EAFCC02080025BE701250095236884
:105A60002549022003F042FA33785B19DBB2337028
:105A70009B001D5162E7012313515FE70C25009540
:105A800023681D49022003F031FA33780133DBB279
:105A900033709B001D5168E70C23135165E7C04626
:105AA000D8F2020054250020422800203C39002072
:105AB00024EB02003DDF02001DF302002D26002032
:105AC000F4E70200AD25002037F3020065F3020081
:105AD000B3F302009835002014F4020004F9020028
:105AE000C02900206C390020F2030000412800206A
:105AF00030390020F90300008FDF02004528002024
:105B000048390020C60300004CF402001FB501F024
:105B1000D9FC022846D16846FDF76CFF6B46002091
:105B20001B7883423CD16B465B78834238D16B460D
:105B30009B78834234D16B46DB78834230D16B460D
:105B40001B7983422CD16B465B79834228D16B460B
:105B50009B79834224D16B46DB79834220D16B460B
:105B60001B7A83421CD16B465B7A834218D16B4609
:105B70009B7A834214D16B46DB7A834210D16B4609
:105B80001B7B83420CD16B465B7B834208D16B4607
:105B90009B7B834204D16B46D87B43425841C0B2C1
:105BA00005B000BD01F08EFC0128B4D06846FDF7B9
:105BB00039FFB3E7F0B5794989B00400032003F059
:105BC000EFF8FFF7A3FF051E00D1ABE003207449F7
:105BD00003F0E6F8734E744D307882005359092B68
:105BE00000D19CE08121C900704A0191012806D9A9
:105BF000042100916E49012003F078F90CE004279C
:105C000000972B686B49022003F070F93378013359
:105C1000DBB233709B005F5105AD2800FDF7E0FE5D
:105C20006B896F88EE88039301F04CFC012800D04B
:105C30009AE0002F00D091E03C27192500F062FD8A
:105C40005D4B1A78002A03D000223C270F251A70DA
:105C5000FA26B60033006B43DA17D1035A0C11430E
:105C6000FA22D8030023520080185941FA227E43B9
:105C70009200002307F03EFBF217730CD103FA22C7
:105C80001943002303905200F00380185941FA226F
:105C90000023920007F02EFB06002B00039A4749D1
:105CA000042003F0BFF83B0032004549042003F014
:105CB000B9F8444F380004F0CBF8434D280004F005
:105CC000C7F8A17A637A09021943E37A3F4A1B04B1
:105CD0001943237B38001B060B43136004230399ED
:105CE000137104F069F8A17A637A09021943E37A1F
:105CF000374A1B041943237B28001B060B43136000
:105D000005233100137104F057F800231900314ABC
:105D100099540133102BFBD1002009B0F0BD0423AE
:105D2000535179E72C4F2D4E387882009359042B2C
:105D300012D02B491D4A01910095012800D959E73D
:105D400033681C49022003F0D1F83B780133DBB201
:105D50003B709B009D515FE795515DE72149032012
:105D600003F01EF82D8869E701F0ACFB02280AD188
:105D7000039B002B00D15FE71B49013003F010F8B3
:105D80002D89039F5AE7002E00D155E717490320BC
:105D900003F006F83700AD8850E7C04629F102004D
:105DA00070F10200002500208C35002024EB020059
:105DB0003DDF02008FDF0200AC25002060F2020010
:105DC0009BF20200542500201C2500204C250020B9
:105DD000142500202D260020422800203C390020D8
:105DE0000A040000AFF10200E7F1020028F202000D
:105DF000F0B5644989B00400032002F0D1FFFFF739
:105E000085FE051E00D17BE05F49032002F0C8FF3C
:105E10005E4805AD04F01CF85D4804F019F8280050
:105E2000FDF7DEFD6B896F88EE88039301F04AFB76
:105E3000012800D08AE0002F00D081E03C27192300
:105E40000293FA25029BAD006B43DE175A0CF10357
:105E50001143FA22D8030023520080185941FA2234
:105E60007D439200002307F045FAEA176B0CD1033B
:105E7000FA221943002306005200E8038018594112
:105E8000FA220023920007F035FA0500029B320047
:105E90004049042002F0C6FF3B002A003E4904208E
:105EA00002F0C0FFA17A637A09021943E37A3B4A00
:105EB0001B041943237B35481B060B431360042343
:105EC0003100137103F078FFA17A637A0902194354
:105ED000E37A334A1B041943237B2D481B060B43EB
:105EE000136005232900137103F066FF00231900D6
:105EF0002C4A99540133102BFBD1002009B0F0BD7E
:105F0000294F2A4E387882009359042B16D02849FD
:105F1000284A01910095012804D92749012002F05F
:105F2000E5FF75E733682549022002F0DFFF3B7883
:105F30000133DBB23B709B009D5169E7955167E7E8
:105F40001F49032002F02CFF2B8879E701F0BAFAF1
:105F500002280BD1039B002B00D16FE719490130B8
:105F600002F01EFF2B89039F02936AE7002E00D1E7
:105F700064E71549032002F013FFAB883700029352
:105F80005FE7C046B0F4020070F102005425002023
:105F90001C25002060F202009BF202004425002034
:105FA0000C2500202D260020422800203C3900200E
:105FB0004103000024EB02003DDF02008FDF0200FE
:105FC000AFF10200E7F1020028F20200F7B54749FD
:105FD0000400032002F0E4FEFFF798FD051E56D0F2
:105FE0004349032002F0DCFEA17A637A09021943D7
:105FF000E37A404A1B041943237B3F481B060B43AB
:10600000C821136004230903137103F0D5FEA17A9C
:10601000637A09021943E37A384A1B041943237B44
:1060200037481B060B43F021136005234903137106
:1060300003F0C2FEA17A637A09021943E37A314A76
:106040001B041943237B30481B060B43802113603C
:1060500006230902137103F0AFFE00231C002B4A34
:106060009C540133102BFBD1294E2A4D30788200ED
:106070005359102B37D02849284A01910094012800
:1060800025D92749012002F031FF0020FEBD254F10
:10609000254E387882009359042B16D023491F4A85
:1060A00001910095012804D91D49012002F01EFF2D
:1060B0009AE733681E49022002F018FF3B7801334B
:1060C000DBB23B709B009D518EE795518CE72B68AE
:1060D0001749022002F00AFF33780133DBB2337034
:1060E0009B005C51D1E75451CFE7C0467EED0200E2
:1060F00070F102003C2500205425002004250020DA
:106100001C25002074250020842500202D26002039
:1061100041280020303900203B02000024EB02001F
:106120003DDF0200422800203C390020250200000B
:106130008FDF0200F0B5404E87B03100032002F03F
:106140002FFE3E49032002F02BFE3100032002F017
:1061500027FEFDF7FFFD3A490200032002F03CFE56
:10616000962238495200032002F036FEDC223649DE
:106170009200032002F030FEA0223449032002F0F6
:106180002BFE334B03AD1B6832491A88032002F003
:1061900023FE2800FDF724FCEB886C880193002C7B
:1061A00047D02F883A002C49032002F015FE220028
:1061B0002A49032002F010FE019B002B01D01C0095
:1061C000AF883A002649032002F006FE2200254946
:1061D000032002F001FE05222349032002F0FCFD0A
:1061E00005222249032002F0F7FD214A214903201C
:1061F00002F0F2FD204A2149032002F0EDFDF822D1
:106200001F499200032002F0E7FD1E4A1E490320A9
:1062100002F0E2FD1D4A1E49032002F0DDFD3100BF
:10622000032002F0BDFD3100032002F0B9FD07B0EC
:10623000F0BD3C241927B5E77CF90200C4F902003F
:106240000DFA020029FA020065FA02009AFA020029
:10625000A4250020CDFA0200ECFA020019FB02008E
:1062600048FB020075FB0200A4FB0200EAFB0200EF
:10627000C926000032FC0200BAE8000062FC0200FD
:106280008DFC0200C1070000BBFC020045170000A6
:10629000E6FC020010B50320034902F081FDFFF780
:1062A00049FF002010BDC046EAF0020010B50749C2
:1062B000032002F075FD04201223054A054902F06F
:1062C0009FFEFFF737FF002010BDC04668F00200B8
:1062D00098350020F4E70200F0B53B4C010AA170AC
:1062E000010CA279E170010E2171617912020A4359
:1062F000E179030009040A43217A85B009061143B4
:106300000F000A001937FF3725786070039703984C
:10631000824207D100952D4A2D49032002F0B0FD9D
:1063200001253DE05078561A844667469078000271
:106330003843D7783F040743107900063843834237
:106340003FD11078A8423CD18020A17A627A09021C
:106350001143E27A400212041143227B12060A43DF
:106360001900FDF7C5FEA279637912021A43E37999
:1063700020001B041A43237A1B0613439B199A79A6
:10638000597912021143DA791B7A12040A431B0667
:1063900013439847051E06D00E49042002F000FD65
:1063A000280005B0F0BDA279637912021A43E3799F
:1063B0001B041A43237A1B0613439B195B7A237031
:1063C000EEE70A32A3E7C04652200020B3E90200FC
:1063D000C2E902009AE90200044A13005072020A5C
:1063E0009A72020C000EDA72187370475220002065
:1063F000074B08491A78002398004058092805D10E
:106400000133DBB29A42F7D2002070470120FCE74B
:10641000002500208C35002010B50320024902F031
:10642000BFFC002010BDC046B7FE020010B503201F
:10643000024902F0B5FC002010BDC046F9FE020082
:1064400010B50320024902F0ABFC002010BDC0468D
:106450000F01030010B50320024902F0A1FC002047
:1064600010BDC046F2FD020010B50320024902F043
:1064700097FC002010BDC0462AFE020010B5032084
:10648000024902F08DFC002010BDC046C9FD02008B
:1064900010B50849032002F083FC0749074B0A00A6
:1064A0004B72190A9172190C1B0E0020D1721373D2
:1064B00010BDC046A0FD02005F200020183900205A
:1064C00010B51549032002F06BFC144A144C937A62
:1064D000517A1B020B43D17A201D09040B43117B17
:1064E00007220906194307F02FF8A2880D49042056
:1064F00002F072FCE2880C49042002F06DFC228953
:106500000A49042002F068FCA27A0949042002F03A
:1065100063FC002010BDC046C5FF02005F200020C4
:1065200018390020F3FF02001A0003003C000300AA
:106530005E00030010B50C49032002F031FC0B494A
:1065400004208A7A4B7A12021A43CB7A1B041A432C
:106550000B7B07491B0613431A88064B5A8002F02F
:106560003BFC002010BDC0468C0003005F200020D3
:10657000BD0003001839002010B50C49032002F0BB
:106580000FFC0B4904208A7A4B7A12021A43CB7A09
:106590001B041A430B7B07491B0613431A88064B3F
:1065A0001A8002F019FC002010BDC04656FE020001
:1065B0005F2000208CFE02001839002010B5032057
:1065C000034902F0EDFB02F035F8002010BDC04693
:1065D00035FF020073B51C49032002F0E1FBFDF713
:1065E000FDFBFDF7C9FBFDF7B9FB02F02CF802F04B
:1065F00033F80320154902F0D3FB02F02CF8144EB7
:10660000144C307882001359102B19D0D021124A23
:106610000191012806D901201049009002F066FC82
:10662000002076BD0125009523680D49022002F067
:106630005DFC33785B19DBB233709B001D51EFE7D3
:1066400001231351ECE7C04668FF020094FF0200EB
:106650004128002030390020B0FF02003DDF020059
:106660008FDF020030B5214985B0032002F098FB8E
:106670001F4D1022AB7A6C7A1B022343EC7A6846DA
:10668000240423432C7B24061C43210006F05CFFDA
:106690002B78042B1BD1E47B7B331C4000F012FFD2
:1066A000022817D180231C436B46DC73039B0098A0
:1066B0000199029AFCF7C6FE0E4B1B78002B06D1FF
:1066C00000F000FF02280AD10420FCF7E7FE0020BA
:1066D00005B030BD00F0F6FE0128E5D1E2E700F09C
:1066E000F1FE0128F0D00320EFE7C046E3000300ED
:1066F0005F20002040280020014B18707047C046E2
:1067000040280020014B18787047C04640280020E0
:10671000F0B53A4C010AA170010CA279E170010EAA
:106720002171617912020A43E179030009040A43E5
:10673000217A85B0090611430F000A008C372578AD
:10674000607003970398824207D100952C4A2D4927
:10675000032002F095FB01253DE05078561A84464F
:106760006746907800023843D7783F040743107992
:106770000006384383423FD11078A8423CD18020A4
:10678000A17A627A09021143E27A8002120411436B
:10679000227B12060A431900FDF7AAFCA27963794D
:1067A00012021A43E37920001B041A43237A1B06C2
:1067B00013439B199A79597912021143DA791B7A9A
:1067C00012040A431B0613439847051E06D00E49C0
:1067D000042002F0E5FA280005B0F0BDA279637943
:1067E00012021A43E3791B041A43237A1B0613434C
:1067F0009B195B7A2370EEE70A32A3E75F20002043
:106800000DFD0200C2E902009AE90200044A1300E9
:106810005072020A9A72020C000EDA7218737047F4
:106820005F200020054A937A507A1B020343D07AF6
:1068300000040343107B0006184370475F200020CC
:10684000074B08491A78002398004058102805D1B2
:106850000133DBB29A42F7D2002070470120FCE7F7
:10686000412800203039002010B50320024902F0F1
:1068700097FA002010BDC0467601030010B5054907
:10688000032002F08DFA0320034902F089FA002068
:1068900010BDC0462E0203007002030010B5032095
:1068A000034902F07DFA01F06DFF002010BDC046E3
:1068B000F001030010B50320034902F071FA01F062
:1068C00051FF002010BDC046B1010300F0B53A4CA5
:1068D000010AA170010CA279E170010E21716179A8
:1068E00012020A43E179030009040A43217A85B0C0
:1068F000090611430F000A002837257860700397B6
:106900000398824207D100952C4A2D49032002F0BA
:10691000B7FA01253DE05078561A844667469078CC
:1069200000023843D7783F04074310790006384304
:1069300083423FD11078A8423CD1C020A17A627A2C
:1069400009021143E27A800212041143227B1206EB
:106950000A431900FDF7CCFBA279637912021A43AE
:10696000E37920001B041A43237A1B0613439B1967
:106970009A79597912021143DA791B7A12040A437F
:106980001B0613439847051E06D00E49042002F04B
:1069900007FA280005B0F0BDA279637912021A4304
:1069A000E3791B041A43237A1B0613439B195B7A72
:1069B0002370EEE70A32A3E76C20002040010300B9
:1069C000C2E902009AE90200044A13005072020A66
:1069D0009A72020C000EDA72187370476C20002055
:1069E000054A937A507A1B020343D07A000403438A
:1069F000107B0006184370476C200020074B0849A5
:106A00001A78002398004058042805D10133DBB2DE
:106A10009A42F7D2002070470120FCE7422800206C
:106A20003C39002010B50649032002F0B9F90122D3
:106A3000044B032004491A7002F0B2F9002010BD83
:106A40008804030044280020CA04030010B5064946
:106A5000032002F0A5F90222044B032004491A7016
:106A600002F09EF9002010BD050403004428002018
:106A70004D04030010B50549032002F091F90320ED
:106A8000034902F08DF9002010BDC046FE06030048
:106A90004C07030010B50549032002F081F90320DB
:106AA000034902F07DF9002010BDC046C803030071
:106AB0004C07030010B500240749032002F070F9C9
:106AC000064803F0C5F9064B064903201C7002F086
:106AD00067F9200010BDC046B20803005828002006
:106AE000442800204C07030070B505000F4903201F
:106AF00002F056F90E4C200003F0AAF9A97A6B7A3D
:106B000009021943EB7A0B4A1B0419432B7B200023
:106B10001B060B43F021136007238903137103F055
:106B20004BF90122044B00201A7070BDFC040300D5
:106B30005828002050280020442800200122064B1D
:106B400010B5064906481A7003F062FA002801D011
:106B500002F00CFE10BDC0464A2900206409030063
:106B60008C20002070B504002249032002F018F99F
:106B7000214803F06DF9214D280003F069F9A17A4D
:106B8000637A09021943E37A1D4A1B041943237BE4
:106B900028001B060B43A021136006230903137171
:106BA00003F00AF9174D280003F052F9A17A637A2D
:106BB00009021943E37A144A1B041943237B280072
:106BC0001B060B43F021136007238903137103F0A5
:106BD000F3F801220D4B1A70FCF766FF830702D50C
:106BE0000520FCF75BFC0A49032002F0D9F80020DD
:106BF00070BDC046BA060300B0280020E828002077
:106C0000D0280020582800204828002044280020B0
:106C1000CA040300F7B526490400032002F0C0F8B7
:106C2000244D25492A88032002F0D6F82B88002B12
:106C300015D0A17A637A09021943E37A1F4A1B042B
:106C40001943237B1E481B060B438021136004233A
:106C50000902137103F0B0F800202880FEBD194826
:106C600003F0F6F8184E194C3078820013590B2BAC
:106C70001BD08821FF31164A0191012807D9853997
:106C8000FF3900910120134902F030F9E4E70327AE
:106C9000009723681049022002F028F93378013365
:106CA000DBB233709B001F51D6E703231351D3E7A8
:106CB0007E07030020290020BE070300A82800202B
:106CC000B0280020802800204528002048390020D6
:106CD000F70703003DDF02008FDF0200F7B503680E
:106CE0000400002B08D016490A004B72190A917251
:106CF000190C1B0ED1721373124E134D3778217974
:106D0000BA0053590B2B19D09820104A01900091CA
:106D1000012F06D90E49973802F0E8F80B232371AA
:106D2000F7BD2B680B49022002F0E0F833780133FD
:106D3000DBB2337022799B005A51EFE75151EDE7F6
:106D40007D2000204528002048390020F707030057
:106D50003DDF02008FDF0200F7B503680400002B5F
:106D600008D016490A004B72190A9172190C1B0EB1
:106D7000D1721373124E134D37782179BA005359DB
:106D80000B2B19D09720104A01900091012F06D9A2
:106D90000E49963802F0AAF80B232371F7BD2B6831
:106DA0000B49022002F0A2F833780133DBB23370D2
:106DB00022799B005A51EFE75151EDE77D200020E9
:106DC0004528002048390020F70703003DDF020076
:106DD0008FDF0200F7B503680400002B08D01649C6
:106DE0000A004B72190A9172190C1B0ED17213739F
:106DF000124E134D37782179BA0053590B2B19D005
:106E00009620104A01900091012F06D90E4995381D
:106E100002F06CF80B232371F7BD2B680B4902209D
:106E200002F064F833780133DBB2337022799B00CF
:106E30005A51EFE75151EDE77D2000204528002011
:106E400048390020F70703003DDF02008FDF020012
:106E5000F7B503680400002B08D016490A004B72EE
:106E6000190A9172190C1B0ED1721373124E134D25
:106E700037782179BA0053590B2B19D09520104A35
:106E800001900091012F06D90E49943802F02EF896
:106E90000B232371F7BD2B680B49022002F026F863
:106EA00033780133DBB2337022799B005A51EFE71C
:106EB0005151EDE77D200020452800204839002071
:106EC000F70703003DDF02008FDF020010B5041E4C
:106ED00005D002000849042001F07EFF10BD0749DB
:106EE000042001F05DFF064B06491A78042001F0EA
:106EF00073FF054B1C70F1E7F60803002909030036
:106F000008290020480903004A290020094B0A49A2
:106F10001A68FA239B00C046C046C046C046C04619
:106F2000C046C046C0468A4200D0C046013BF2D1AE
:106F30007047C0460C2100200024F400F0B55149F0
:106F400091B0032001F02CFF002104AC4E4B102225
:106F500020001970FBF75AFF05230493013B63607F
:106F6000CC235B04A3600323484D23730822484BC2
:106F70002100280003F030F8002801D002F0F6FBD1
:106F80000D23444A1370FFF7D9FDFFF7BFFF424BB3
:106F90001B78002B55D1414A12784A2A5BD1220036
:106FA0003F49C1C9C1C2C1C9C1C2C1C9C1C2C1C9A8
:106FB000C1C206222100280003F05AF82A23354ACC
:106FC0001370FFF7BBFDFFF7A1FF334B1B78002BBE
:106FD0003CD1324A3348117801221143417002A951
:106FE0000C002F483030C0C8C0C4280003F040F85F
:106FF0002D4A00212D4802F0C7FE2D4A00212D48C0
:1070000002F0C2FE2C4A00212C4802F0BDFE2C4AA0
:1070100000212C4802F0B8FE2B4E2C4C3078820018
:1070200013590B2B2AD09F214900294A019101288D
:1070300016D901202749009001F058FF002011B017
:10704000F0BD2549032001F0ABFE9EE72249032055
:1070500001F0A6FEB7E72149032001F0A1FEC7E732
:107060000125009523681E49022001F03FFF337877
:107070005B19DBB233709B001D51DFE70123135115
:10708000DCE7C04616080300442800208C200020BE
:1070900024290020432800204A2900200829002014
:1070A000C002030079200020516E0200C0030300DB
:1070B000D56D0200C4030300596D0200BC03030038
:1070C000DD6C0200B8030300452800204839002089
:1070D000F70703003DDF02005608030069080300BC
:1070E0008FDF020070B52F490400032001F058FE25
:1070F0000C232D4E3370FFF721FDFFF707FF2B4DBB
:107100002B78002B44D12A4B1B785B073AD51623EA
:107110003370FFF713FDFFF7F9FE2B78002B3CD1FE
:10712000244D280002F094FEA17A637A09021943E3
:10713000E37A214A1B041943237B28001B060B43D7
:107140008021136004230902137102F035FE1B4DE8
:10715000280002F07DFEA17A637A09021943E37ADE
:10716000174A1B041943237B28001B060B4380216D
:10717000136005230902137102F01EFE114A1388E1
:10718000013313801049032001F00AFE002070BD76
:107190000E49032001F004FEAFE70C49032001F083
:1071A000FFFDB8E7E0050300432800204A2900203E
:1071B00008290020B0280020A028002080280020D6
:1071C00078280020202900202F06030056080300FD
:1071D00070B51649032001F0E3FD0C23144D2B700C
:1071E000FFF7ACFCFFF792FE124C2378002B12D174
:1071F000114B1B785B070CD516232B70FFF79EFCF9
:10720000FFF784FE2378002B0AD10C4A1388013340
:107210001380002070BD0A49032001F0C1FDE1E7A1
:107220000749032001F0BCFDEAE7C04669060300F8
:10723000432800204A290020082900202029002076
:107240005608030070B520490500032001F0A8FD91
:107250000C231E4E3370FFF771FCFFF757FE1C4CDA
:107260002378002B25D11B4B1B785B071FD51623DA
:107270003370FFF763FCFFF749FE2378002B1DD125
:10728000154C200002F0E4FDA97A6B7A090219433B
:10729000EB7A124A1B0419432B7B20001B060B437D
:1072A000A021136006230903137102F085FD00205D
:1072B00070BD0B49032001F073FDCEE708490320A0
:1072C00001F06EFDD7E7C046970503004328002074
:1072D0004A29002008290020E8280020D82800207A
:1072E0005608030070B520490500032001F058FD41
:1072F0000C231E4E3370FFF721FCFFF707FE1C4CDA
:107300002378002B25D11B4B1B785B071FD5162339
:107310003370FFF713FCFFF7F9FD2378002B1DD125
:10732000154C200002F094FDA97A6B7A09021943EA
:10733000EB7A124A1B0419432B7B20001B060B43DC
:10734000A021136006230903137102F035FD00200C
:1073500070BD0B49032001F023FDCEE7084903204F
:1073600001F01EFDD7E7C046480503004328002072
:107370004A29002008290020E8280020E0280020D1
:1073800056080300F0B53A4C010AA170010CA2792D
:10739000E170010E2171617912020A43E179030063
:1073A00009040A43217A85B0090611430F000A0037
:1073B0008C372578607003970398824207D1009537
:1073C0002C4A2D49032001F05BFD01253DE050785A
:1073D000561A84466746907800023843D7783F04AF
:1073E000074310790006384383423FD11078A84202
:1073F0003CD18020A17A627A09021143E27AC0026C
:1074000012041143227B12060A431900FCF770FE96
:10741000A279637912021A43E37920001B041A430C
:10742000237A1B0613439B199A7959791202114347
:10743000DA791B7A12040A431B0613439847051E88
:1074400006D00E49042001F0ABFC280005B0F0BDC9
:10745000A279637912021A43E3791B041A43237A4F
:107460001B0613439B195B7A2370EEE70A32A3E7EE
:107470007D20002018030300C2E902009AE90200FF
:10748000054A937A507A1B020343D07A00040343DF
:10749000107B0006184370477D200020074B0849E9
:1074A0001A780023980040580B2805D10133DBB22D
:1074B0009A42F7D2002070470120FCE745280020BF
:1074C00048390020014B18787047C04644280020F6
:1074D0001722F0B5194B1A4C87B01A70587002A9D0
:1074E00023000A00383361CB61C2164D1B682800A7
:1074F00013600023022202F0BBFD2A22124B1A70F5
:10750000FFF71CFBFFF702FD104B1B78002B10D17F
:107510000F4A1048117801221143417020006C4637
:107520004830C0C8C0C46946280002F0A1FD07B0B9
:10753000F0BD0949032001F033FCE3E748290020AE
:10754000C00203008C200020432800204A2900208C
:10755000082900207B2000205608030010B50849A8
:10756000032001F01DFC0749074B0A004B72190A62
:107570009172190C1B0E0020D172137310BDC046FE
:107580002A0A0300A42000204C29002010B5040082
:107590000E49032001F004FCA17A637A0902194321
:1075A000E37A0B4A1B041943237B0A481B060B434F
:1075B000F021136002234903137102F0FDFB172031
:1075C00003F066FE03F012FD002010BD920A0300D6
:1075D000582900206029002010B504000D4903201F
:1075E00001F0DEFBA17A637A09021943E37A0A4AC1
:1075F0001B041943237B09481B060B43F02113602E
:1076000002234903137102F0D7FB03F0EFFC0020C3
:1076100010BDC046F9090300502900206029002050
:10762000F7B503680400002B08D016490A004B7216
:10763000190A9172190C1B0ED1721373124E134D4D
:1076400037782179BA005359062B19D03020104AC7
:1076500001900091012F06D90E492F3801F046FC08
:1076600006232371F7BD2B680B49022001F03EFC75
:1076700033780133DBB2337022799B005A51EFE744
:107680005151EDE7A42000204E290020543900205C
:10769000E00903003DDF02008FDF02007FB52149D2
:1076A000032001F07DFB00211F4A204802F06CFB03
:1076B000032303A81E49037003F06AFC002801D0CD
:1076C00002F054F81B4803F081FC01211A4803F032
:1076D00093FC002801D002F049F8184E184C30787D
:1076E00082001359062B1AD09921164A01910128BC
:1076F00007D901201449009001F0F8FB002004B0E4
:1077000070BD0125009523681049022001F0EEFBB1
:1077100033785B19DBB233709B001D51EEE7012318
:107720001351EBE75E0A030021760200DC09030037
:1077300051770200B42000204C2900204E2900205F
:1077400054390020E00903003DDF02008FDF020012
:1077500073B504780500002C1FD12B899C421DD3E2
:10776000172003F09DFD0121194803F045FC002876
:1077700001D001F0FBFF174E174C307882001359EF
:10778000062B22D04821154A019101280FD94539ED
:1077900000910120124901F0A9FB73BD6A686300E2
:1077A0009A5E1049032001F017FB0134D5E7032549
:1077B000009523680C49022001F098FB33780133CF
:1077C000DBB233709B001D51E7E703231351E4E75D
:1077D0004C2900204E29002054390020E0090300E4
:1077E0003DDF0200840903008FDF0200F0B53A4C50
:1077F000010AA170010CA279E170010E2171617979
:1078000012020A43E179030009040A43217A85B090
:10781000090611430F000A00283725786070039786
:107820000398824207D100952C4A2D49032001F08C
:1078300027FB01253DE05078561A8446674690782C
:1078400000023843D7783F040743107900063843D5
:1078500083423FD11078A8423CD1C020A17A627AFD
:1078600009021143E27AC00212041143227B12067C
:107870000A431900FCF73CFCA279637912021A430F
:10788000E37920001B041A43237A1B0613439B1938
:107890009A79597912021143DA791B7A12040A4350
:1078A0001B0613439847051E06D00E49042001F01D
:1078B00077FA280005B0F0BDA279637912021A4365
:1078C000E3791B041A43237A1B0613439B195B7A43
:1078D0002370EEE70A32A3E7A4200020A9090300E1
:1078E000C2E902009AE90200054A937A507A1B0223
:1078F0000343D07A00040343107B0006184370470B
:10790000A4200020074B08491A780023980040580B
:10791000062805D10133DBB29A42F7D20020704726
:107920000120FCE74E2900205439002028DF704751
:1079300010B50320024901F033FA002010BDC04603
:10794000F90B030010B50320024901F029FA0020C9
:1079500010BDC046E30C030010B50320024901F03E
:107960001FFA002010BDC046130D030010B5032000
:10797000024901F015FA002010BDC046560C030064
:1079800010B50320024901F00BFA002010BDC046DB
:10799000850C030010B50320024901F001FA002014
:1079A00010BDC0466B0B030010B50949032001F060
:1079B000F7F9084B00241868FFF7B8FF0C23064AB4
:1079C000064907481460137102F0F6F9200010BD53
:1079D000CD0B0300B829002088290020CD0C000021
:1079E00090290020F7B503680400002B08D0164941
:1079F0000A004B72190A9172190C1B0ED172137383
:107A0000124E134D37782179BA0053590E2B19D0E5
:107A10003820104A01900091012F06D90E493738BD
:107A200001F064FA0E232371F7BD2B680B49022085
:107A300001F05CFA33780133DBB2337022799B00BA
:107A40005A51EFE75151EDE7BC2000208429002076
:107A500060390020540B03003DDF02008FDF02007D
:107A6000F0B5414A414D12682B6885B0934226D348
:107A70003F4E404C3078820013590E2B1CD084218D
:107A800049003D4A0191012808D9FF3900910120A0
:107A90003A4901F02BFA002005B0F0BD0925009508
:107AA00023683749022001F021FA33780133DBB231
:107AB00033709B001D51EEE709231351EBE7827AE7
:107AC000447A12022243C47A013324042243047B01
:107AD0009B0024061443A288181F216893423BD9B7
:107AE000032309181A4003A805F02EFD0121254A99
:107AF000254B99501100053AFF3A17009858002875
:107B0000FCD02248039E02681660DE59002EFCD08D
:107B100000265E508026F60099590029FCD00432D8
:107B20002B6802601A4A01332B601300104E547206
:107B3000220A9A723078220C240E1C730D4CDA72D1
:107B4000820013590E2B0CD08C2149000A4A019156
:107B5000012804D9113998E709180422C3E7082538
:107B60009DE70823A9E7C046B4290020B0290020DA
:107B70008429002060390020540B03003DDF0200FF
:107B80008FDF02000405000000E001408029002092
:107B9000BC200020F0B54A4A4A4D12682B6887B0D5
:107BA000934227D3484E494C3078820013590E2B0C
:107BB0001DD0D021464A019101280AD9CB39009124
:107BC0000120444901F092F900232B60002007B006
:107BD000F0BD0527009723683F49022001F086F990
:107BE00033780133DBB233709B001F51ECE7052380
:107BF0001351E9E7827A447A12022243C47A374960
:107C000024042243047B012024061443344A5050A8
:107C100003910539FF390F005658002EFCD0314E24
:107C2000316808680590D0590028FCD000270398D7
:107C300017508027FF00D0590028FCD00431316054
:107C40000133A2889B00191F2068934224D9032383
:107C500040181A4005A905F077FC2B68224A013329
:107C60002B601300184E5472220A9A723078220C3C
:107C7000240E1C73154CDA72820013590E2B1CD083
:107C8000E121134A0191012809D9DD390091012030
:107C9000104901F02BF999E740180422DAE704258E
:107CA000009523680C49022001F020F93378013354
:107CB000DBB233709B001D5188E70423135185E725
:107CC000B4290020B0290020842900206039002038
:107CD000540B03003DDF02008FDF020004050000AB
:107CE00000E0014080290020BC200020F7B5837A05
:107CF000447A1B022343C47A254924042343047B8A
:107D0000032024061C43A28801F066F8214A224E73
:107D100013005472220A9A723078220CDA721F4DC4
:107D2000220E1A73820053590E2B2CD0F7211C4AB5
:107D30000191012819D9EF3900910120194901F069
:107D4000D5F8194B1A68194B1B685343A268920067
:107D50009B18174A1360A188164A8B08890715D10A
:107D600000201360144B1860FEBD082700972B6895
:107D70001249022001F0BAF833780133DBB23370D4
:107D80009B005F51DDE708235351DAE70133E7E752
:107D9000B30C0300BC20002084290020603900209F
:107DA000540B03003DDF0200BC290020B82900204D
:107DB00080290020B4290020B02900208FDF020094
:107DC000F7B5837A447A1B022343C47A25492404F5
:107DD0002343047B032024061C43A28800F0FCFFFD
:107DE000A188214A8B08890729D113601F4A204E98
:107DF00013005472220A9A723078220CDA721D4DE6
:107E0000220E1A73820053590E2B28D0C1211A4A10
:107E10000191012815D9BD3900910120174901F0C0
:107E200065F80020164B1A68164B1B685343A2686E
:107E300092009B18144A1360144B1860FEBD013366
:107E4000D3E7042700972B681149022001F04EF870
:107E500033780133DBB233709B005F51E1E70423D9
:107E60005351DEE7280C0300B4290020BC20002079
:107E70008429002060390020540B03003DDF0200FC
:107E8000BC290020B829002080290020B02900202A
:107E90008FDF020073B51C49032000F081FF8023AF
:107EA0005B051A6919491A480A605B691949013B5F
:107EB0000B605343184A00211360184A01F064FF15
:107EC000174E184C3078820013590E2B19D0A72169
:107ED000154A0191012806D901201449009001F0AA
:107EE00005F8002076BD0125009523681049022081
:107EF00000F0FCFF33785B19DBB233709B001D513F
:107F0000EFE701231351ECE79B0B0300BC29002092
:107F1000500B0300B829002080290020E5790200D9
:107F20008429002060390020540B03003DDF02004B
:107F30008FDF020010B50320024900F031FF00205E
:107F400010BDC0466B0B0300F0B53A4C010AA1709E
:107F5000010CA279E170010E2171617912020A43CC
:107F6000E179030009040A43217A85B00906114327
:107F70000F000A00823725786070039703988242C9
:107F800007D100952C4A2D49032000F079FF0125E7
:107F90003DE05078561A8446674690780002384390
:107FA000D7783F04074310790006384383423FD116
:107FB0001078A8423CD1A020A17A627A090211432C
:107FC000E27AC00212041143227B12060A4319000E
:107FD000FCF78EF8A279637912021A43E379200044
:107FE0001B041A43237A1B0613439B199A79597968
:107FF00012021143DA791B7A12040A431B06134357
:108000009847051E06D00E49042000F0C9FE28003E
:1080100005B0F0BDA279637912021A43E3791B041B
:108020001A43237A1B0613439B195B7A2370EEE7EE
:108030000A32A3E7BC200020C40A0300C2E9020000
:108040009AE90200044A13005072020A9A72020C62
:10805000000EDA7218737047BC200020054A937A2C
:10806000507A1B020343D07A00040343107B0006BE
:1080700018437047BC200020074B08491A7800239A
:10808000980040580E2805D10133DBB29A42F7D24E
:10809000002070470120FCE784290020603900207F
:1080A00010B50549032000F07BFE0320034900F0D2
:1080B00077FE002010BDC046BC0E0300EC0E03008E
:1080C00010B5817A437A09021943C37A134A1B0413
:1080D0001943037B04001B060B4313600223137137
:1080E0000F4B1048196801F067FEA17A637A090204
:1080F0001943E37A0C4A1B041943237B0B481B06E4
:108100000B43136003231371094B196801F054FEEC
:10811000182003F0BDF8002010BDC046242A00201E
:10812000E02000202C2A0020CC290020D429002087
:10813000D820002010B50749032000F031FE064882
:1081400001F086FE054801F083FE182003F0A8F830
:10815000002010BD920E03002C2A0020D4290020FC
:1081600010B5182003F09CF8002010BDF8B52F4979
:108170000400032000F014FE2D4F2121386804F084
:1081800043FF2C490200042000F026FE2A4E212144
:10819000306804F039FF29490200042000F01CFE79
:1081A000274D2121286804F02FFF264902000420D2
:1081B00000F012FEA17A637A09021943E37A224A97
:1081C0001B041943237B21481B060B431360022326
:1081D0003968137101F0F0FDA17A637A090219433D
:1081E000E37A1B4A1B041943237B1A481B060B43E3
:1081F000136003233168137101F0DEFDA17A637A05
:1082000009021943E37A144A1B041943237B1348D8
:108210001B060B43136004232968137101F0CCFD86
:10822000182003F035F80020F8BDC046E20D030029
:10823000E02000200D0E0300D8200020390E03009E
:10824000DC200020650E03001C2A00202C2A0020C0
:10825000C4290020D4290020F4290020FC29002072
:1082600010B50A49032000F09BFD094A0021094886
:1082700001F08AFD084A0021084801F085FD084AFE
:108280000021084801F080FD002010BDB80D03005A
:10829000A1830200B40D030025830200940D0300A6
:1082A000A9820200980D0300F7B503680400002BB3
:1082B00008D016490A004B72190A9172190C1B0E4C
:1082C000D1721373124E134D37782179BA00535976
:1082D000062B19D03720104A01900091012F06D9A2
:1082E0000E49363800F002FE06232371F7BD2B68D5
:1082F0000B49022000F0FAFD33780133DBB2337012
:1083000022799B005A51EFE75151EDE7C920002037
:10831000C02900206C3900209C0D03003DDF0200C5
:108320008FDF0200F7B503680400002B08D0164960
:108330000A004B72190A9172190C1B0ED172137339
:10834000124E134D37782179BA005359062B19D0A4
:108350003620104A01900091012F06D90E49353878
:1083600000F0C4FD06232371F7BD2B680B490220E2
:1083700000F0BCFD33780133DBB2337022799B000F
:108380005A51EFE75151EDE7C9200020C0290020E4
:108390006C3900209C0D03003DDF02008FDF0200DE
:1083A000F7B503680400002B08D016490A004B7289
:1083B000190A9172190C1B0ED1721373124E134DC0
:1083C00037782179BA005359062B19D03520104A35
:1083D00001900091012F06D90E49343800F086FD36
:1083E00006232371F7BD2B680B49022000F07EFDA8
:1083F00033780133DBB2337022799B005A51EFE7B7
:108400005151EDE7C9200020C02900206C3900201F
:108410009C0D03003DDF02008FDF0200014B18605E
:108420007047C046E0200020014B18607047C046EE
:10843000D8200020014B18607047C046DC20002087
:10844000F0B53A4C010AA170010CA279E170010E5D
:108450002171617912020A43E179030009040A4398
:10846000217A85B0090611430F000A0046372578A6
:10847000607003970398824207D100952C4A2D49DA
:10848000032000F0FDFC01253DE05078561A84469B
:108490006746907800023843D7783F040743107945
:1084A0000006384383423FD11078A8423CD1E020F7
:1084B000A17A627A09021143E27AC00212041143DE
:1084C000227B12060A431900FBF712FEA279637998
:1084D00012021A43E37920001B041A43237A1B0675
:1084E00013439B199A79597912021143DA791B7A4D
:1084F00012040A431B0613439847051E06D00E4973
:10850000042000F04DFC280005B0F0BDA27963798D
:1085100012021A43E3791B041A43237A1B061343FE
:108520009B195B7A2370EEE70A32A3E7C92000208B
:10853000420D0300C2E902009AE90200074B084914
:108540001A78002398004058062805D10133DBB281
:108550009A42F7D2002070470120FCE7C029002092
:108560006C3900203CDF704710B5002003F004FC9C
:10857000002801D001F0FAF803F0B6FC002801D081
:1085800001F0F4F8FFF7EEFF002801D001F0EEF85B
:1085900010BD76DF70478ADF70478BDF704710B5FC
:1085A00001F0E4F810BD000073B5144E144C30789F
:1085B000820013590B2B1DD0BB21124A01910128B7
:1085C0000AD9B939009101200F4900F08FFC0F49F9
:1085D000032000F0E5FB73BD0225009523680C49DC
:1085E000280000F083FC33780133DBB23370AB40FA
:1085F0001D51ECE702231351E9E7C046452800204E
:10860000483900202D0F03003DDF0200450F030015
:108610008FDF020010B50378002B08D1044B3B21FB
:108620001888FFF7B6FF002801D001F09FF810BDB1
:108630007839002010B5032004F010F8002801D08C
:1086400001F094F810BD10B5FAF706FD002801D02E
:1086500001F08CF810BD704710B588B001AC1C2239
:1086600000212000FAF7D2FBA02292026260F022E1
:1086700000231203A260032201932374064B2000FF
:108680006361064B2273A36104F0CCF9002801D08A
:1086900001F06CF808B010BD158602009F8502003D
:1086A000002310B5064A0521180001F01BFB002825
:1086B00001D001F05BF80349032000F071FB10BD0D
:1086C0004C2A0020590F030037B504000C4A0D490D
:1086D000032003F05FFB002801D001F047F86B4650
