:020000022000DC
:102C000000800020C1E8020001E9020003E902009F
:102C100000000000000000000000000000000000B4
:102C200000000000000000000000000005E90200B4
:102C3000000000000000000007E9020009E90200AE
:102C400015CA02000BE90200B9A702008DD60200E6
:102C50000BE9020000000000A5D00200E5CB020055
:102C60000BE902000BE902000BE902000BE902008C
:102C70000BE902000BE902000BE902000BE902007C
:102C80000BE9020035B402000BE902000BE9020077
:102C9000F1B402000BE9020099EB02000BE902001B
:102CA0000BE902000BE90200000000000000000038
:102CB0000000000000000000000000000000000014
:102CC00010B5064C2378002B07D1054B002B02D002
:102CD000044800E000BF0123237010BDD82200206B
:102CE00000000000B4430300084B10B5002B03D0D4
:102CF0000749084800E000BF07480368002B00D1DF
:102D000010BD064B002BFBD09847F9E700000000F0
:102D1000DC220020B4430300C42200200000000095
:102D2000164B002B00D1144B9D46402292029A1A5A
:102D3000924600218B460F461348144A121A00F09F
:102D400065F80F4B002B00D098470E4B002B00D09E
:102D500098470020002104000D000D48002802D0F3
:102D60000C4800E000BF00F02DF82000290000F022
:102D700059F800F011F8C04600000800008000205B
:102D80000000000000000000D8220020083B0020C6
:102D90000000000000000000084B10B50400002BEC
:102DA00002D0002100E000BF054B1868836A002BA9
:102DB00000D09847200000F031F8C0460000000025
:102DC000EC0A030070B500260C4D0D4C641BA410DA
:102DD000A64209D100260DF07DFE0A4D0A4C641B67
:102DE000A410A64205D170BDB300EB589847013638
:102DF000EEE7B300EB5898470136F2E7BC2200201B
:102E0000BC220020BC220020C02200200300821827
:102E1000934200D1704719700133F9E7FEE7C046CD
:102E200048DF7047F7B5002007F0B4FD854904007E
:102E3000032007F0C3FD8449032007F0BFFD834949
:102E4000032007F0BBFD002C02D0200008F050FA50
:102E500000207F4B0B2118707E4B7F4A18707F4BF0
:102E60001927187004231360536093607C4A10265E
:102E700010707C4A7C4C1160516091607B4A033138
:102E800010707B4A7B4D1160516091607A4A2760D7
:102E9000107006226760A7602E606E60AE60774992
:102EA0000A604A608A607649087076490A604A601A
:102EB0008A60754A1070754A13605360936004F01D
:102EC000C3FB00970196624B1B789A00A058192803
:102ED0000AD00099013BDBB2A150022B00D900239C
:102EE0005B4A137004F0B0FB5A4B1B789A00A85849
:102EF00010280AD00199013BDBB2A950022B00D95E
:102F00000023544A137004F0B7FD544B524A1B7807
:102F10009900885804280AD00426013BDBB28E5061
:102F2000022B00D900234D4A137004F0A7FE4C4A2F
:102F30004C4913789E0070580B2809D00B27013B91
:102F4000DBB27750022B00D90023137005F01CFC74
:102F5000464A474913789E0070580E2809D00E271C
:102F6000013BDBB27750022B00D90023137006F02F
:102F700041FA414A414913789E007058062809D009
:102F80000627013BDBB27750022B00D900231370D8
:102F900005F050FE3A4A3B4913789E0070580628C7
:102FA00009D00627013BDBB27750022B00D9002362
:102FB000137006F09DFC344A344913789E00705813
:102FC000042809D00427013BDBB27750022B00D93B
:102FD0000023137006F080FE04F0E6FB002800D00A
:102FE00071E704F005FE002800D06CE704F002FF52
:102FF000002800D067E705F077FC002800D062E7E2
:1030000006F0B4FA002800D05DE705F0C3FE002802
:1030100000D058E706F01CFD002800D053E706F06A
:10302000FDFE002800D04EE707F0FAFD002800D092
:1030300049E7FFF7F5FE002800D144E708F058F90A
:1030400041E7C046F00A0300430B03005D0B030099
:103050004825002049290020B03A00204A290020B4
:103060004D290020BC3A002000370020902A002083
:10307000D43A0020A43A0020582A0020C83A002060
:10308000CC2A0020E03A0020582B0020EC3A002007
:10309000A0DF7047A6DF704763DF704730B5AE49E9
:1030A00089B0032007F08AFC01220120AB4B524279
:1030B000AB4C1A80AB49AC4B220088700B80FFF7F9
:1030C000E7FF002801D008F013F9A849102204A84E
:1030D0000DF08AF8A64D04A82900FFF7DDFF0028AF
:1030E00001D008F005F9A34A2B7821880392A24A5F
:1030F000A24802920222019203320092A04A07F0F3
:1031000063F9002801D008F0F3F89E4A2B78218853
:1031100003929D4A9D4802920222019292180092C7
:103120009B4A07F051F9002801D008F0E1F8994ACC
:103130002B7821880392984A98480292072201929C
:10314000023A0092964A07F03FF9002801D008F0B1
:10315000CFF8944A2B7821880392934A934802929D
:1031600010220192073A0092914A07F02DF90028A7
:1031700001D008F0BDF88F4A2B78218803928E4A3F
:103180008E4802920C220192073A00928C4A07F074
:103190001BF9002801D008F0ABF88A4A2B78218867
:1031A0000392894A894802920122019203320092D5
:1031B000874A07F009F9002801D008F099F8854AF4
:1031C0002B7821880392844A84480292102201922B
:1031D0000B3A0092824A07F0F7F8002801D008F075
:1031E00087F8804A2B78218803927F4A7F48029291
:1031F000102201920B3A00927D4A07F0E5F8002870
:1032000001D008F075F87B4A2B78218803927A4A1E
:103210007A48029204220192033A0092784A07F017
:10322000D3F8002801D008F063F8764A2B7821887B
:103230000392754A7548029201220192043200926B
:10324000734A07F0C1F8002801D008F051F8714A1C
:103250002B7821880392704A7048029204220192CE
:1032600000926F4A07F0B0F8002801D008F040F84B
:103270006C4A2B78218803926B4A6C480292012297
:1032800001920B3200926A4A07F09EF8002801D0A2
:1032900008F02EF8674A2B7821880392664A67481F
:1032A00002920122019204320092654A07F08CF8E2
:1032B000002801D008F01CF8624A2B78218803927C
:1032C000614A6248029202220192013A0092604AE7
:1032D00007F07AF8002801D008F00AF85D4A2B7848
:1032E000218803925C4A5D48029210220192073ABB
:1032F00000925B4A07F068F8002801D007F0F8FF59
:10330000584A2B7821880392574A58480292102233
:1033100001920B3A0092564A07F056F8002801D065
:1033200007F0E6FF534A21882B780392524A53480C
:103330000292102201920B3A0092514A07F044F88F
:10334000041E01D007F0D4FF4E49032007F036FBDE
:10335000200009B030BDC046AE0C03004C20002058
:10336000042400200624002000FFFFFF810B03003F
:103370000A24002034230020B8230020D80C0300A6
:1033800001FF000064230020EE230020E70C03006F
:1033900002FF00005C230020E7230020F10C030063
:1033A00003FF00006C230020F0230020F80C030032
:1033B00004FF00003C230020BA2300200D0D030071
:1033C00005FF00000C23002080230020280D0300AF
:1033D00006FF00002423002098230020390D03005D
:1033E00007FF00004C230020C72300204D0D0300E1
:1033F00008FF00001423002084230020610D030037
:1034000009FF000044230020C6230020700D0300A4
:103410000AFF00007423002000240020850D030013
:103420000BFF0000F42200207C2300208F0D0300FE
:103430000CFF0000FC2200207D230020A20D0300D1
:103440000DFF0000042300207E230020AE0D0300AA
:103450000EFF00001C23002088230020B60D03006F
:103460000FFF00002C230020A8230020C90D03001B
:1034700010FF000054230020D7230020E20D03009A
:1034800011FF0000FB0D0300F0B510251627114EAB
:103490008BB006AC00900191029269462A00300080
:1034A00003936F440CF0A0FE2A00002120003D8011
:1034B000FFF7ACFC084B21001B88A7602380012389
:1034C000A3700023A380054BE6601888FFF7E2FD98
:1034D0000BB0F0BDF02300206C2300204C20002016
:1034E000F0B587B06B4601270C4D02AC2870102256
:1034F000002120009E1DDF80FFF788FC084B210083
:103500001B88A77023800023A380064BA660188821
:10351000E560FFF7BFFD07B0F0BDC0467C2300208B
:10352000F42200204C200020F0B5038885B0112B38
:103530002BD0502B3ED0102B14D1BD4E8288BD4BCA
:103540003078BD4C1A8082001359102B1AD03721C5
:10355000BA4A0191012807D934390091B8490120AC
:1035600007F0D2FA05B0F0BD032500952368B549F0
:10357000022007F0C9FA33780133DBB233709B00C5
:103580001D51EFE703231351ECE70122A84EA94B8D
:1035900030785242A84C1A8082001359102B07D061
:1035A0004521A64A019141390128D6D80425DCE7F6
:1035B0000423E8E7A44AC38812889A421BD1FF205B
:1035C000FFF78EFFA14803887F2B01D97F2303805B
:1035D00004F0F4FA964E984C307882001359102B70
:1035E00007D05A21954A0191052555390128B4D8AB
:1035F000BBE70523C7E7964A12889A421CD1FF20F1
:10360000FFF76EFF934803887F2B01D97F23038048
:1036100004F0D4FA864E884C307882001359102B6F
:1036200008D06521854A019106255F39012800D916
:1036300093E79AE70623A6E7874A12889A4214D1AD
:10364000864804F0BBFA7A4E7B4C307882001359DE
:10365000102B08D06D21794A019107256639012880
:1036600000D97AE781E707238DE77D4A11889942DF
:1036700000D177E792889A4200D173E7794A12889D
:103680009A4211D16A4E6C4C307882001359102B3B
:1036900008D07A21694A01910B256F39012800D998
:1036A0005BE762E70B236EE76F4A12889A4214D1F8
:1036B0006E4804F083FA5E4E5F4C307882001359F6
:1036C000102B08D081215D4A019108257939012804
:1036D00000D942E749E7082355E7654A12889A422C
:1036E00000D13FE7634A12889A4200D13AE7624A22
:1036F00012889A4211D14E4E4F4C307882001359A5
:10370000102B08D091214D4A01910A2587390128B3
:1037100000D922E729E70A2335E7584A12889A4256
:1037200011D1434E444C307882001359102B08D0ED
:103730009721424A019109258E39012800D90CE7C9
:1037400013E709231FE74E4A12889A4200D009E77F
:10375000831D03931F7B022F25D10124494B1B7826
:10376000234220D04849032007F028F98020000296
:1037700006F0ACF88020400206F0AEF8C0208002CF
:1037800006F0B0F8414E424D307882005359062B76
:103790004AD0A321294A01910094A04238D928494E
:1037A000200007F0B1F9039B1B7B062B00D0D9E664
:1037B0000124344B1B78234200D1D3E63549032042
:1037C00007F0FCF88020000206F080F8802040021C
:1037D00006F082F8C020800206F084F82B4E2C4DB3
:1037E000307882005359062B20D0AB21134A019127
:1037F0000094A04200D9B1E62B681249022007F0DC
:1038000083F933780133DBB233709B005C51A9E656
:103810002B680C49380007F077F933780133DBB2B5
:1038200033709B005C51BEE75451BCE7545199E69C
:10383000492900204C200020A43A0020910B0300CD
:10384000B20B0300040C030034230020B823002033
:1038500064230020EE2300205C230020E7230020C7
:103860006C2300203C2300200C2300208023002018
:10387000242300204C230020442300207423002014
:10388000F42200207D2300204E0C0300CC2A0020CF
:10389000E03A00207F0C0300F0B510251627114EEA
:1038A0008BB006AC00900191029269462A0030006C
:1038B00003936F440CF098FC2A00002120003D8007
:1038C000FFF7A4FA084B21001B88A760238001237F
:1038D000A3700023A380054BE6601888FFF7DAFB8E
:1038E0000BB0F0BD882300201C2300204C200020BA
:1038F00010B504000C2202490CF076FC200010BD2B
:10390000BA2300207FB51025094E04002A0031009B
:1039100068460CF069FC7F22F37B694613406A46D7
:103920002000D3732A000CF05FFC200004B070BDAF
:10393000982300207FB51025094E04002A0031008D
:1039400068460CF051FC7F22F37B694613406A46BF
:103950002000D3732A000CF047FC200004B070BD97
:10396000C72300207FB51025094E04002A0031002E
:1039700068460CF039FC7F22F37B694613406A46A7
:103980002000D3732A000CF02FFC200004B070BD7F
:10399000F0230020014B18887047C046B823002050
:1039A000014B18887047C046EE230020014B186871
:1039B0007047C04600240020014B18787047C0466D
:1039C0007D230020014B18787047C046C623002095
:1039D0007FB51025094E04002A00310068460CF01E
:1039E00003FC7F22F37B694613406A462000D373B1
:1039F0002A000CF0F9FB200004B070BDA8230020C1
:103A00007FB51025094E04002A00310068460CF0ED
:103A1000EBFB7F22F37B694613406A462000D37399
:103A20002A000CF0E1FB200004B070BDD723002079
:103A30001FB501900291039201A90C2202480CF0DB
:103A4000D3FB05B000BDC046BA230020014B18606F
:103A50007047C04684230020014B18807047C04641
:103A60007E230020014B18807047C046B8230020F9
:103A700007B5072200900191024869460CF0B4FB9B
:103A800007BDC046E7230020014B18707047C046B1
:103A9000C62300201FB5029203935A006B46520EB4
:103AA000009001910348DA73694610220CF09CFBE8
:103AB00005B000BD982300201FB5029203935A0061
:103AC0006B46520E009001910348DA73694610224A
:103AD0000CF08AFB05B000BDC72300201FB5029281
:103AE00003935A006B46520E009001910348DA731B
:103AF000694610220CF078FB05B000BDF0230020D1
:103B0000014B18707047C0467D23002073B50388B1
:103B10001D2B20D10622037C134093421BD10100B0
:103B2000164C1832113120000CF05EFB200004F01E
:103B300047F9134E134C307882001359042B19D0D7
:103B40003921114A0191012806D937390091012004
:103B50000E4906F0D9FF73BD0225009523680C4974
:103B6000280006F0D1FF33780133DBB23370AB406D
:103B70001D51F0E702231351EDE7C0460B2400204E
:103B80004A290020B03A0020210E0300B20B0300A6
:103B9000040C030078DF70477ADF70477CDF7047E2
:103BA00070470000004870470C25002010B50449FC
:103BB00004480AF083FE002801D007F099FB10BDED
:103BC000A13B0200FC24002070B59AB00BAC3C2253
:103BD00000212000FFF71AF9022323700433E37059
:103BE000104B012663618023626A03ADDB00A6707F
:103BF00026820021138028002022FFF707F9962350
:103C000000215B002B61EE706961074B00912A0077
:103C100020000AF0ADFA002801D007F069FB1AB0C5
:103C200070BDC0464E200020D93D0200112330B5A2
:103C300085B001AD2B701A4B1A4C1B681A4A1B49F0
:103C40009BB220000CF00CFB20000CF02BFB2100A1
:103C500082B22800FFF7A2FF002801D007F048FB3E
:103C60000020FFF797FF002801D007F041FB02ACCE
:103C7000082200212000FFF7C9F8202323801833F1
:103C800063800023A3809133FF332000E380FFF79C
:103C900083FF002801D007F02BFB05B030BDC046E4
:103CA000A40000100C2500204C0E0300420E03005F
:103CB0007FB518490422063168460CF095FA0023B6
:103CC000D022154968460AF01DFF002801D007F0F0
:103CD0000FFB01AA012100200AF06EFF002801D08D
:103CE00007F006FB01A80AF07FFF002801D007F0CB
:103CF000FFFA0A480AF03CFF002801D007F0F8FA62
:103D000007480AF03FFF002801D007F0F1FA07B09A
:103D100000BDC046420E03002C240020133E0200CA
:103D2000413E020076DF7047A8DF704767DF7047CB
:103D30001FB503880400112B23D004D8022B28D0F0
:103D4000102B0FD01FBD512B29D0552B01D03A2B52
:103D5000F8D1A0881321FFF7E5FF0028F2D007F083
:103D6000C7FAEFE70320194906F028FE072009F0FB
:103D700049FE002801D007F0BBFAA288144B1A8034
:103D8000E0E7027A1349032006F034FE0122524292
:103D9000F4E70F4B00211888FFF7C8FFDDE78379B0
:103DA000002BCFD0827B043A022ACBD8022B0AD137
:103DB0006A461370C1236A465B009380A0886946F7
:103DC000FFF7B2FFC9E70123F2E7C046B50E0300D3
:103DD0001A250020CB0E030010B500280CD00328B4
:103DE00009D1074906F0EAFD022009F00BFE002880
:103DF00001D007F07DFA10BD06F09AF8FBE7C04647
:103E0000980E0300038810B5112B01D00AF082FB35
:103E100010BD10B504000AF0D9FC20000AF080FCA7
:103E2000200009F0B9FE2000FFF782FF2000FFF715
:103E30007BFB2000FFF7E6FF2000FFF767FE10BDC9
:103E400010B5040008F07AFC20000AF099FB10BDC0
:103E500073B50E2802D00F281CD073BD03201F4954
:103E600006F0ACFD1E4E1F4C307882001359192B02
:103E70000DD08221490001911B4AFB3909250128F7
:103E80001DD900910120194906F03EFEE5E70923FE
:103E90001351E2E70320164906F090FD104E114C35
:103EA000307882001359192B16D0852149000E4A0B
:103EB0000191012802D90139FF39E2E70A2500956D
:103EC00023680C49022006F01FFE33780133DBB271
:103ED00033709B001D51C0E70A23D9E7550E03003C
:103EE00048250020003700206B0E0300B20B0300B2
:103EF000820E0300040C03008023F7B5DB02984216
:103F000000D102E109D880239B02984226D0C02329
:103F10009B02984200D1B0E0F7BDC023DB0298427B
:103F200000D1E0E0E023DB02984200D13DE1A02394
:103F3000DB029842F0D1012900D0B0E005F008FB87
:103F400003F026FCC54FC64D3878C64E8200535943
:103F5000192B00D1F6E0C44A282110E0012918D11C
:103F600003F038FE03F014FCBC4FBD4D3878BF4E53
:103F700082005359192B00D1E4E01921BA4A01916A
:103F80000096012800D8D1E0B949012006F0BCFD17
:103F9000C2E704291ED103F01DFE03F0F9FBAF4E6A
:103FA000AF4C3078B34D82001359192B00D10EE17C
:103FB0001A21AD4A019100950128E5D82368AE4940
:103FC000022006F0A1FD33780133DBB233709B0091
:103FD0001D51A1E7072900D0FBE003F0FBFD03F032
:103FE000D7FB9E4E9E4C3078A44D82001359192B5E
:103FF00000D1ECE09C4A1B21DCE703F0EBFD03F071
:10400000C7FB964E964C30789D4D82001359192B64
:1040100000D1DCE0944A1C21CCE703F0DBFD03F087
:10402000B7FB8E4E8E4C3078964D82001359192B6B
:1040300000D1CCE08C4A1D21BCE703F0CBFD03F09E
:10404000A7FB864E864C30788F4D82001359192B72
:1040500000D1BCE0844A1E21ACE703F0BBFD03F0B5
:1040600097FB7E4E7E4C3078884D82001359192B79
:1040700000D1ACE07C4A1F219CE7022900D04BE72D
:1040800003F0AAFE03F084FB744F754D3878804E20
:1040900082005359192B55D0734A24216FE7052903
:1040A0000FD105F055FA03F073FB6C4E6C4C307871
:1040B000784D82001359192B00D188E06A4A2921D2
:1040C00078E70C2900D0A2E005F042FA03F060FB8B
:1040D000624E634C3078704D82001359192B76D0A4
:1040E000614A2A2166E7032900D015E704F044FE5F
:1040F00003F04EFB594E5A4C3078684D82001359EC
:10410000192B64D0584A2F2154E701291CD104F0FF
:10411000DDFB03F03DFB514F514D3878604E82007E
:104120005359192B0ED0504A342128E72B68524995
:10413000022006F0E9FC3B780133DBB23B709B00C8
:104140005E51E9E65651E7E608290ED104F0BEFBC0
:1041500003F01EFB414E424C3078524D8200135901
:10416000192B34D0404A352124E7062961D104F0C7
:10417000ADFB03F00DFB394E394C30784A4D8200CF
:104180001359192B23D0384A362113E704F09EFB2C
:1041900003F0FEFA314E324C3078444D8200135910
:1041A000192B14D0304A372104E7042900D0B3E694
:1041B00005F040FC03F0ECFA284E294C30783C4DD9
:1041C00082001359192B02D0274A3D21F2E61551DE
:1041D000A2E6062900D110E7082900D11DE7092928
:1041E00000D12AE70A2900D137E70B2900D093E64E
:1041F00003F0F0FC03F0CCFA184E194C30782D4D3A
:1042000082001359192BE2D0174A2021D2E609293E
:1042100000D081E605F09CF903F0BAFA0F4E104C7D
:104220003078254D82001359192BD0D00E4A2B21FE
:10423000C0E60529AAD0072900D06DE604F046FBA8
:1042400003F0A6FA054E064C30781C4D8200135937
:10425000192BBCD0044A3821ACE6C04648250020C2
:104260000037002001000500EF0E030001000200EE
:10427000B20B030004000200040C0300070002005C
:104280000600020008000200090002000A00020005
:1042900002000300050005000C00050003000600F5
:1042A00001000400080004000600040005000400EA
:1042B000040007000B0002000900050007000400CD
:1042C000BFF34F8F034A044BDA60BFF34F8FC046F2
:1042D000FDE7C0460400FA0500ED00E011DF70477D
:1042E00013DF704710B50320024906F067FB00207A
:1042F00010BDC046E118030010B50320024906F0C6
:104300005DFB002010BDC0461625030010B503203C
:10431000024906F053FB002010BDC046D324030021
:1043200010B50320034906F049FB0122024B00208F
:104330001A7010BDF31C03001C25002010B50449A1
:10434000032006F03BFBFE20FFF7CAF8002010BD5B
:10435000C4160300F7B503680400002B08D0164903
:104360000A004B72190A9172190C1B0ED172137349
:10437000124E134D37782179BA005359192B19D0A1
:10438000AA20104A01900091012F06D90E49A938A0
:1043900006F0BAFB19232371F7BD2B680B490220E5
:1043A00006F0B2FB33780133DBB2337022799B0025
:1043B0005A51EFE75151EDE75820002048250020E1
:1043C0000037002078120300B20B0300040C030036
:1043D000F7B503680400002B08D016490A004B7299
:1043E000190A9172190C1B0ED1721373124E134DD0
:1043F00037782179BA005359192B19D0A920104ABE
:1044000001900091012F06D90E49A83806F07CFBD7
:1044100019232371F7BD2B680B49022006F074FBAA
:1044200033780133DBB2337022799B005A51EFE7C6
:104430005151EDE75820002048250020003700208A
:1044400078120300B20B0300040C0300F7B50368F5
:104450000400002B08D016490A004B72190A917209
:10446000190C1B0ED1721373124E134D377821792C
:10447000BA005359192B19D0A820104A0190009165
:10448000012F06D90E49A73806F03EFB19232371E8
:10449000F7BD2B680B49022006F036FB3378013359
:1044A000DBB2337022799B005A51EFE75151EDE7AF
:1044B00058200020482500200037002078120300F3
:1044C000B20B0300040C0300F7B503680400002BD3
:1044D00008D016490A004B72190A9172190C1B0E6A
:1044E000D1721373124E134D37782179BA00535994
:1044F000192B19D0AD20104A01900091012F06D937
:104500000E49AC3806F000FB19232371F7BD2B6868
:104510000B49022006F0F8FA33780133DBB233702E
:1045200022799B005A51EFE75151EDE758200020C6
:10453000482500200037002078120300B20B03004A
:10454000040C0300F7B503680400002B08D01649DB
:104550000A004B72190A9172190C1B0ED172137357
:10456000124E134D37782179BA005359192B19D0AF
:10457000AC20104A01900091012F06D90E49AB38AA
:1045800006F0C2FA19232371F7BD2B680B490220EC
:1045900006F0BAFA33780133DBB2337022799B002C
:1045A0005A51EFE75151EDE75820002048250020EF
:1045B0000037002078120300B20B0300040C030044
:1045C000F7B503680400002B08D016490A004B72A7
:1045D000190A9172190C1B0ED1721373124E134DDE
:1045E00037782179BA005359192B19D0AB20104ACA
:1045F00001900091012F06D90E49AA3806F084FADD
:1046000019232371F7BD2B680B49022006F07CFAB1
:1046100033780133DBB2337022799B005A51EFE7D4
:104620005151EDE758200020482500200037002098
:1046300078120300B20B0300040C0300F7B504006A
:104640001D49032006F0BAF91C4E1D4D307882003A
:104650005359062B2CD01B491B4A0191012819D90B
:10466000042101200091194906F04EFAA17A637ADB
:1046700009021943E37A164A1B041943237B1548A0
:104680001B060B4313600D231349137107F056F9F2
:104690000020FEBD042700972B681049022006F079
:1046A00033FA33780133DBB233709B005F51DDE7BF
:1046B00004235351DAE7C046BF140300CC2A00207C
:1046C000E03A0020E407000078120300B20B030078
:1046D0008C2500209C250020CD0C0000040C03003C
:1046E00010B504000D49032006F068F90120FEF71B
:1046F000F7FEA17A637A09021943E37A084A1B0498
:104700001943237B07481B060B4313600C23064900
:10471000137107F013F9002010BDC04639140300CF
:104720004C2500205C250020CD0C000010B5817ABE
:10473000437A09021943C37A094A1B041943037BCC
:1047400008481B060B4380211360072309021371DD
:1047500007F0F4F8044A002013680133136010BD19
:10476000742600207C260020FC3600200D49032002
:1047700010B506F023F90C49032006F01FF906F0E6
:104780004FFA0028FBD10123D820084A5B42D367A7
:10479000074A4002D367FFF7A3FDFFF79FFDFFF72E
:1047A0008FFDC0462E1603006616030004E100E0EC
:1047B00008E100E00D49032010B506F0FFF80C49B0
:1047C000032006F0FBF806F02BFA0028FBD10123AA
:1047D000D820084A5B42D367074A4002D367FFF7F5
:1047E0007FFDFFF77BFDFFF76BFDC0462C28030024
:1047F0006616030004E100E008E100E010B5054999
:10480000032006F0DBF804F0B7FA0088FFF724F97C
:10481000002010BD6218030073B52849032006F07C
:10482000CDF804F0A9FA0400438802882449032043
:1048300006F006F96388234A13802188224A603BE8
:10484000FF3B1180302B26D82049032006F0B6F814
:1048500023881F4A9A18712A1DD81E4A12889B1A4B
:104860000A2B18DD1C49032006F0A8F81B4807F0A6
:10487000B1F81B4E1B4C307882001359192B1AD0FB
:1048800019491A4A0191012807D9142101200091E0
:10489000174906F039F9002076BD142500952368E4
:1048A0001449022006F030F933780133DBB233705B
:1048B0009B001D51EFE714231351ECE7E1210300A6
:1048C0002B220300A6260020A42600205A22030043
:1048D0007BFCFFFF1E2500207D2203004C260020CC
:1048E00048250020003700208D04000078120300C6
:1048F000B20B0300040C0300F0B5564989B0032045
:1049000006F05CF803F068FA002405000726524B15
:104910001B681B88A34246D803F0FAFF04AC0228A8
:1049200000D07DE02000FEF7EDFFFFF733F8012215
:10493000C308DBB2039307231500FF2103409D400A
:104940008C460023013DEDB2591CC90066468142E8
:1049500000DD2E004149CF5CE15C0133B9433140B9
:104960004E424E4103997642DBB232409942EBD23D
:10497000002A15D003203A4906F020F8394E3A4C67
:10498000307882001359192B61D03849384A019187
:1049900001284ED9052101200091364906F0B4F8CE
:1049A000002009B0F0BD6B79334A9C46330067465E
:1049B0006343985CD318A9795A78090212023943E3
:1049C0000243914229D16A7EA97E94466746DA78ED
:1049D0009878090212023943024391421DD1197994
:1049E0002A7F5B79E87E12021B0202430B439A4244
:1049F00013D1230001203340984003001749E208F7
:104A0000885C03438B541D4AA30011681C4A032091
:104A1000995022001B4905F0EDFF0134A4B276E75E
:104A200003F076FF012800D17CE72000FEF782FF2B
:104A30007BE70525009523681349022006F064F8FA
:104A400033780133DBB233709B001D51A8E7052397
:104A50001351A5E7061303009C26002038270020E9
:104A6000711303004825002000370020EF060000E6
:104A700078120300B20B03000C370020FC36002034
:104A80004827002044130300040C030010B5054917
:104A9000032005F093FFFEF795FF03F03FFF002092
:104AA00010BDC046C1290300F0B5002585B03749C7
:104AB000032005F083FF364C3649236803205A88CB
:104AC00005F098FF236834499A88032005F092FF87
:104AD00023683249DA88032005F08CFF23683049C7
:104AE0001A89032005F086FF23682E499A7A03204D
:104AF00005F080FFFEF754FF2A0021682A4E0B883C
:104B000003900293029893B2019383420BD3002D3A
:104B10002BD00320254905F051FFFA20FEF7E0FCD9
:104B2000002005B0F0BD072353439C5DF318A44655
:104B300060465C788F8824020443A74212D1DC7857
:104B40009878CF8824020443A7420BD11C795B7963
:104B50000F891B0223439F4204D1019B0398984273
:104B600000D001250132D2B2CCE707224B880E4893
:104B700053430431C0180BF037FBFF20FEF7B0FCA5
:104B80000B49032005F01AFFCAE7C0466A2A030052
:104B90009C260020A62A0300D02A0300FB2A03003B
:104BA000212B0300472B03000C370020792B030037
:104BB000B22B030010B51349032005F0FFFEFEF7EA
:104BC000EFFE114B8000C058FEF740FFFEF7E8FEF5
:104BD000072250430D4BC15C1B185A78987812027B
:104BE0000A4300040243D8785979000610431A7921
:104BF00009020A43997909041143FEF739FF00209D
:104C000010BDC046D72B0300482700200C370020DA
:104C100010B50A49032005F0D1FEFEF7C7FE084C87
:104C2000206003F075FE2030C0B2FEF759FC226808
:104C30000449032005F0DEFE002010BD162C030001
:104C4000FC360020552C0300F0B5E3499FB003204B
:104C500005F0B4FE02F0BEFF0478012C56D1DF4906
:104C6000032005F0ABFEE02200219200DC48FEF7B5
:104C7000CDF80021DB4D0C22286801800B30FEF7B7
:104C8000C5F82A681300D07A127BD97B120202433E
:104C9000587B1D7D00040243987B2D0200061043C3
:104CA0001A7C12020A43597C09040A43997C0906BA
:104CB0001143DA7C15435A7D120415439A7D12067E
:104CC0002A43FEF7B5FEC84EC84D307882005359CE
:104CD0000E2B3BD0C649C74A0191012806D90B21AA
:104CE00001200091C44905F00FFF0CE00B24009453
:104CF0002B68C249022005F007FF33780133DBB28D
:104D000033709B005C5100201FB0F0BD022C20D1FD
:104D10000320BB4905F052FEB34EB44D30788200FB
:104D200053590E2B12D0B749B24A01910128D6D857
:104D30000B2700972B68B149200005F0E5FE33787A
:104D40000133DBB233709B005F51DCE70B2353511F
:104D5000D9E7032C15D1AC49200005F02FFE05F052
:104D60005FFF0028FBD10123D820A84A5B42D3670C
:104D7000A74A4002D367FFF7B3FAFFF7AFFAFFF78E
:104D80009FFA042C00D049E1FEF70AFE0700FEF767
:104D900001FE3A0002909F49032005F02BFE029B82
:104DA000FCB207259F4211D3FB20CEE028002B0048
:104DB000661C734360432A000818C9180BF014FAE4
:104DC000954BB200D258A400E250F4B2029B844941
:104DD000581E8442EADB002365438F4A4B55A400EA
:104DE0004D19A3506B70AB70EB702B716B717D4BD9
:104DF00080B21B681880FEF735FE12A8FEF79AFDF8
:104E0000129B16A80693139B0793149B0493159B60
:104E10001093FEF777FD169B1AA80A93179B0B9326
:104E2000189B0C93199B0D93FEF79CFD1A9B0893FE
:104E30001B9B09931C9B0E931D9B0F9301233F2FDC
:104E400000D985E01E00BE40013EF2179446FF18CF
:104E5000BB406546069F5C4227400799E3177A08E6
:104E6000069F1940C807374002433800079F119337
:104E70002F404B08390012184B4104990692C9077C
:104E80000B43049A0793109B5208DB071A430A9FAF
:104E9000109B27400B995B08029203937A08E31753
:104EA0000A9F1940C8073740024338000B9F4B0840
:104EB0002F40390012184B410C990A92C9070B4335
:104EC0000B930C9A0D9B5208DB071A430D9B04921F
:104ED0005B080593089B119D1C406208089C099B78
:104EE0003440200064461D40E9076B08099D0A43D1
:104EF0002C40210012184B410E990892C9070B4310
:104F000009930F9B0E9ADB0754081C430F9B5D0807
:104F1000049E059F189619970B99049A0A98199B55
:104F2000FEF7B8FD029E039F149615970799029A03
:104F30000698159BFEF7C0FD1C941D9508980999CD
:104F400022001D9BFEF7CAFDFF20FEF7C9FADAE634
:104F50003F221E003A40964001329340109C5B4233
:104F6000DA17144011920499049A013E1940324014
:104F7000E507480861081400109AF7173A402843DB
:104F800015000C9A001969411A4094460290039149
:104F9000119A0D991140624654080C9AC807324084
:104FA000044310000D9A4D083A40110024184D4159
:104FB0000E9A119913400F9A58080E9B11400494B1
:104FC00005953340CC0720431C000F9B49083B400C
:104FD0001D0024184D419BE7351503007B15030088
:104FE0000C3700209C260020902A0020D43A002074
:104FF0000506000078120300B20B0300040C030046
:10500000A6150300090600006616030004E100E08F
:1050100008E100E0D815030048270020052C00D047
:1050200071E60320134905F0C9FC0120124E134B11
:105030003578134CAA0018701359192B17D0CD21AD
:10504000C900104A0191854203D9062100910E49F9
:1050500049E60625009523680C49022005F054FD19
:1050600033780133DBB233709B001D514BE60623CE
:10507000135148E60116030048250020A826002009
:105080000037002078120300B20B0300040C030069
:1050900073B54049032005F091FC02F09BFD3E4BA7
:1050A0003E4E186030783E4C82001359102B4BD086
:1050B0003C493D4A0191012838D902210120009143
:1050C0003A4905F021FDD4235B0300938022A023FD
:1050D000B4209B0252028003022103F03DFB344EB8
:1050E000344C3078820013590B2B3ED032492E4A73
:1050F000019101282BD90021012000912B4905F0B5
:1051000003FD2E4E2E4C3078820013590E2B3DD0CD
:10511000B321C900244A0191012829D90021012085
:105120000091224905F0F0FC002076BD0225009593
:1051300023682449280005F0E7FC33780133DBB20B
:105140003370AB401D51BEE702231351BBE700256E
:10515000009523681B49022005F0D6FC3378013303
:10516000DBB233709B001D51CBE700231351C8E71E
:105170000025009523681349022005F0C5FC33780B
:105180000133DBB233709B001D51CDE70023135177
:10519000CAE7C046C01303009C260020492900200E
:1051A000A43A00208F05000078120300B20B030020
:1051B0004D290020BC3A002096050000902A0020CE
:1051C000D43A0020040C030070B50B2486B06C4464
:1051D00007F044FF200004F0E5FF05F069F82378AC
:1051E000002B03D05349032005F0E8FB524A00216D
:1051F000524806F08BFB524A0021524806F086FBCB
:10520000514A0021514806F081FBE0220021920022
:105210004F48FDF7FBFD8022002192004D48FDF72D
:10522000F5FD802200214C48FDF7F0FD1220FEF72D
:105230002BFC0320FEF764FC192203AB1A80013219
:105240005A800E329A80A032DA80A53A1A8124322E
:105250005A810398059A0499FEF7EAFB3F4E404CA9
:10526000307882001359062B3FD03E493E4A0191C7
:1052700001282CD90021012000913C4905F044FC73
:105280003B4E3C4C307882001359062B3ED03A49B5
:10529000354A019101282BD9002101200091334981
:1052A00005F032FC354E364C307882001359192BFC
:1052B0003DD034492C4A019101282AD903210120EB
:1052C00000912A4905F020FC002006B070BD0025A1
:1052D000009523682C49022005F016FC3378013331
:1052E000DBB233709B001D51CAE700231351C7E79F
:1052F0000025009523682449022005F005FC337839
:105300000133DBB233709B001D51CBE700231351F7
:10531000C8E70325009523681B49022005F0F4FB2C
:1053200033780133DBB233709B001D51CCE703238C
:105330001351C9E70B2A03004D4402006C1203000D
:10534000D1430200681203005543020074120300A7
:105350000C37002048270020B8260020582A0020BB
:10536000C83A00203D05000078120300B20B03008C
:10537000CC2A0020E03A00203E050000482500200D
:10538000003700203F050000040C030010B5032087
:10539000034905F013FB03F017FD002010BDC046C4
:1053A0003F1D030010B50749032005F007FB03F07C
:1053B0000BFD012004F046FD002004F09FFD0020BD
:1053C00010BDC0466B23030010B504000F49032035
:1053D00005F0F4FA012004F035FD012004F08EFD03
:1053E000A17A637A09021943E37A094A1B04194333
:1053F000237B08481B060B43A02113600F2389025F
:10540000137106F09BFA002010BDC0462A2303004A
:10541000442600204C26002070B52849032005F0C2
:10542000CDFA274E27493288032005F0E3FA264DAE
:1054300026492A88032005F0DDFA254C25492288D3
:10544000032005F0D7FA03F0BFFC5E223388FF3259
:1054500093420BD80320204905F0B0FA022004F053
:10546000F1FC022004F04AFD002070BDC822520069
:10547000934205D90320194905F0A0FA0320EEE76D
:105480002B88174A934205D80320164905F096FA4F
:105490000420E4E7144A1549934204D822889B1A51
:1054A0000A2B05DC1249032005F088FA0520D6E70F
:1054B0001049032005F082FAD6E7C046831D030099
:1054C000A6260020C71D0300A4260020F41D03000B
:1054D0001E250020201E03004B1E03008A1E030011
:1054E00083030000C81E0300F7030000061F03002B
:1054F000431F0300871F030010B504000F4903205A
:1055000005F05CFA012004F09DFC052004F0F6FC97
:10551000A17A637A09021943E37A094A1B04194301
:10552000237B08481B060B43A02113600F2389022D
:10553000137106F003FA002010BDC046E9220300F3
:105540003C2600204C26002073B54349032005F07B
:1055500035FA03F011FC0500438802883F49032017
:1055600005F06EFA2A883E4B3E4E1A806B883E4C00
:105570001A009B3AFF3A202A13D83C49032005F031
:105580001DFA2B883A4A9A18C92A2AD80320394981
:1055900005F014FA30788200A358192B51D1142346
:1055A00013E0CC225200934211D80320324905F077
:1055B00005FA052004F046FC002004F09FFC317839
:1055C0008A00A358192B21D11523A35029E0BC220E
:1055D000FF329342F3D90320284905F0EFF9062062
:1055E000E8E7274A934205D80320264905F0E6F963
:1055F0000720DFE7244A9342E1D92449032005F03C
:10560000DDF9012004F01EFC0220D6E72048214AE3
:105610000190012907D91521009101201E4905F0AB
:1056200073FA002076BD1525009523681B490220DA
:1056300005F06AFA33780133DBB233709B00E55032
:10564000EFE78B21C900134A0191012801D91421E8
:10565000E2E71425E8E7C046872003002B22030079
:105660001E25002048250020003700205A22030074
:10567000DFFCFFFF7D220300D1200300192103007E
:105680001F03000060210300EB030000A1210300C1
:105690005604000078120300B20B0300040C030050
:1056A00073B52C49032005F089F92B4806F092F9CF
:1056B0002A49032005F082F9042004F0C3FB0020EE
:1056C00004F01CFC264E274C307882001359042B22
:1056D0002BD02549254A0191012818D901202449B8
:1056E000009005F011FA234E234C307882001359B4
:1056F000192B2BD021491D4A0191012818D91721B6
:10570000012000911A4905F0FFF9002076BD01251E
:10571000009523681A49022005F0F6F933785B19E1
:10572000DBB233709B001D51DDE701231351DAE733
:105730001725009523681249022005F0E5F9337812
:105740000133DBB233709B001D51DEE71723135189
:10575000DBE7C046732803004C260020BC2803006A
:105760004A290020B03A00201E04000078120300ED
:10577000B20B030048250020003700201F04000062
:10578000040C030073B52749032005F017F9FF2027
:1057900003F0C4F8244B254E1D78254C002D1AD05B
:1057A0000320244905F00AF930788200A358192B08
:1057B0000ED0EC21890001911F4A102110250128EB
:1057C00020D9009101201D4905F09EF9002076BDE9
:1057D0001023A350FAE71A49032005F0EFF802203E
:1057E00004F030FB280004F089FB30788200A358D5
:1057F000192B14D01349104A0191012801D91721FE
:10580000DFE71725009523680F49022005F07CF992
:1058100033780133DBB233709B00E550D6E71723B2
:10582000D7E7C0467C2703001C2500204825002020
:1058300000370020C027030078120300B20B0300DA
:10584000EF270300B5030000040C0300F7B5494936
:105850000600032005F0B2F8474C04232200474914
:10586000032005F08FF96278237812021A43A37897
:10587000434D1B041A43E378424C1B061343424A30
:10588000934251D14149032005F098F8B17A737AD7
:1058900009021943F37A3E4A1B041943337B3D48FE
:1058A0001B060B43F02113600F23C902137106F08E
:1058B00045F8394F394E387882009359042B2DD052
:1058C000FD218900364A0191012818D900210120C3
:1058D0000091344905F018F928788200A358192B53
:1058E0001FD031492E4A019111261121012832D9A8
:1058F000009101202B4905F007F90020FEBD00238F
:10590000009333682949022005F0FEF800223B7815
:105910000133DBB23B709B009A51DDE700239351CA
:10592000DAE71123A350E8E72149032005F046F800
:10593000032004F087FA002004F0E0FA28788200BF
:10594000A358192B14D01B49154A0191012801D9DC
:105950001721CDE71726009623681449022005F089
:10596000D3F82B780133DBB22B709B00E650C4E7F1
:105970001723D7E74C260300302500209326030089
:1059800048250020003700200013AABBA0260300F2
:10599000342600204C2600204A290020B03A00205E
:1059A00078120300B20B0300F5030000040C03009F
:1059B000C4260300FA030000F7B5274904000320BA
:1059C00004F0FCFF2549032004F0F8FF072004F051
:1059D00039FA0220012104F03BFA214E214D3078A2
:1059E00082005359042B33D0DC2189001E4A0191D7
:1059F00001281FD90021012000911C4905F084F8DD
:105A00001B4A00211B4805F081FFA17A637A090235
:105A10001943E37A184A1B041943237B17481B06D2
:105A20000B43802113600F234902137105F086FF99
:105A30000020FEBD002700972B681149022005F0C9
:105A400063F833780133DBB233709B005F51D7E7E3
:105A500000235351D4E7C046F6280300352903003C
:105A6000582B0020EC3A002078120300B20B030000
:105A7000C9440200701203002C2600204C2600208E
:105A8000040C030073B53349032004F097FF324937
:105A9000032004F093FF012004F0D4F9FA211E2022
:105AA000890004F0D5F904F04BFC2C4803F00EFFFC
:105AB0008020C00103F010FFA020400203F012FF7D
:105AC000274E284C307882001359062B2DD0E32125
:105AD0008900254A0191012819D90021012000914E
:105AE000224905F011F8224E224C307882001359D9
:105AF0000B2B2BD020491C4A0191012818D90021D9
:105B000001200091194904F0FFFF002076BD002517
:105B1000009523681949022004F0F6FF3378013319
:105B2000DBB233709B001D51DDE700231351DAE730
:105B30000025009523681149022004F0E5FF337821
:105B40000133DBB233709B001D51DEE7002313519C
:105B5000DBE7C046572903009F29030033130000E9
:105B6000CC2A0020E03A002078120300B20B030098
:105B70004D290020BC3A00208F030000040C0300D4
:105B800073B51C49032004F019FF1B4C1B4BE0228A
:105B90002360052392001A490320A360A28004F029
:105BA00029FF200003F0C8FC164E174C3078820005
:105BB00013590E2B1AD01549154A0191012807D9FE
:105BC000072101200091134904F09EFF002076BDBB
:105BD0000725009523681049022004F095FF3378CB
:105BE0000133DBB233709B001D51EFE707231351E4
:105BF000ECE7C046AD170300242500200C37002039
:105C0000EF170300902A0020D43A00205C0800001F
:105C100078120300B20B0300040C030070B529498D
:105C200086B0032004F0CAFE5A235B22264C52425F
:105C30002370E370254B62701B68A2701B88244D93
:105C400023711B0A637180235B42A3718333E37169
:105C500002A82C60FDF74CFE20000C2202A908309F
:105C60000AF0C2FA1B482B680360002383601433D8
:105C7000838003F061FC184E184C30788200135971
:105C80000E2B1BD01649174A0191012808D907216C
:105C900001200091144904F037FF002006B070BDC8
:105CA0000725009523681149022004F02DFF337861
:105CB0000133DBB233709B001D51EEE70723135114
:105CC000EBE7C04604170300302500209C26002087
:105CD000A026002024250020902A0020D43A00206D
:105CE0004E08000078120300B20B0300040C0300FE
:105CF00073B50320134904F061FE134E134C307842
:105D000082001359102B1AD01149124A019101280F
:105D100007D90221012000910F4904F0F5FE00206F
:105D200076BD0225009523680C49280004F0ECFE9E
:105D300033780133DBB23370AB401D51EFE7022300
:105D40001351ECE7FB13030049290020A43A00207B
:105D5000D205000078120300B20B0300040C03000C
:105D600073B51949032004F029FE1848184B036045
:105D7000002383601433838003F0DEFB154E164C42
:105D80003078820013590E2B1BD0B521C900134A5D
:105D90000191012807D9032101200091104904F045
:105DA000B3FE002076BD0325009523680D4902202F
:105DB00004F0AAFE33780133DBB233709B001D512F
:105DC000EFE703231351ECE7871603002425002097
:105DD00030250020902A0020D43A002078120300B9
:105DE000B20B0300040C030073B50320134904F045
:105DF000E5FD134E134C307882001359192B1AD03D
:105E00001149124A0191012807D90221012000916C
:105E10000F4904F079FE002076BD02250095236825
:105E20000C49280004F070FE33780133DBB2337084
:105E3000AB401D51EFE702231351ECE77814030048
:105E400048250020003700201505000078120300C7
:105E5000B20B0300040C030073B51B49032004F0CC
:105E6000ADFD1A49032004F0A9FD1948194B036040
:105E7000002383600433838003F05EFB164E174CCF
:105E80003078820013590E2B1AD01549154A01910A
:105E9000012807D9032101200091134904F034FEA1
:105EA000002076BD0325009523681049022004F0E8
:105EB0002BFE33780133DBB233709B001D51EFE7CB
:105EC00003231351ECE7C0460127030049270300D1
:105ED0002425002030250020902A0020D43A0020DC
:105EE000DF03000078120300B20B0300040C030070
:105EF00073B51B49032004F061FD1A49032004F027
:105F00005DFD1948194B03600023836004338380CF
:105F100003F012FB164E174C3078820013590E2BEB
:105F20001AD01549154A0191012807D907210120E6
:105F30000091134904F0E8FD002076BD0725009587
:105F400023681049022004F0DFFD33780133DBB20F
:105F500033709B001D51EFE707231351ECE7C04658
:105F6000D32503001B2603002425002054200020F5
:105F7000902A0020D43A0020D203000078120300B7
:105F8000B20B0300040C030073B51649032004F0A0
:105F900015FD0320144904F011FD144E144C307803
:105FA000820013590E2B1AD01249134A019101286D
:105FB00007D90B2101200091104904F0A5FD002014
:105FC00076BD0B25009523680D49022004F09CFD49
:105FD00033780133DBB233709B001D51EFE70B23A5
:105FE0001351ECE75B250300A2250300902A002053
:105FF000D43A0020C503000078120300B20B03005E
:10600000040C030073B50320134904F0D7FC134EAE
:10601000134C3078820013590E2B1AD01149124AB2
:106020000191012807D90021012000910F4904F0B6
:106030006BFD002076BD0025009523680C490220E9
:1060400004F062FD33780133DBB233709B001D51E5
:10605000EFE700231351ECE7A91C0300902A00206E
:10606000D43A0020BD03000078120300B20B0300F5
:10607000040C030073B5234A136801331360022B29
:1060800024DD214E214C307882001359192B1AD06F
:106090001F49204A0191012807D90E2101200091B2
:1060A0001D4904F031FD002076BD0E2500952368C2
:1060B0001A49022004F028FD33780133DBB2337033
:1060C0009B001D51EFE70E231351ECE7A223A02202
:1060D000DB00D205D3581B06E5D4817A437A090246
:1060E0001943C37A0E4A1B041943037B0D481B0650
:1060F0000B438021136001230902137105F01EFC7C
:10610000D1E7C046B42600204825002000370020F3
:106110005A03000078120300B20B0300040C0300C2
:10612000842500209C25002010B50B49032004F095
:1061300045FC04F075FD0028FBD10123D820074A57
:106140005B42D367064A4002D367FEF7C9F8FEF701
:10615000C5F8FEF7B5F8C0466616030004E100E096
:1061600008E100E010B5174CA0222368D2050133E6
:106170002360A223DB00D3581B061DD4817A437A07
:1061800009021943C37A104A1B041943037B0F48C1
:106190001B060B4313600D230D49137105F0CEFB55
:1061A00023681D2B0CDD01220A4B1A700A4B1B7849
:1061B000002B05D0FFF7B8FF0023064A23601370B9
:1061C000002010BDB0260020942500209C25002032
:1061D000CD0C0000212500202025002010B5174CF3
:1061E000A0222368D20501332360A223DB00D35809
:1061F0005B061DD4817A437A09021943C37A104A97
:106200001B041943037B0F481B060B4313600C232D
:106210000D49137105F092FB23681D2B0CDD012243
:106220000A4B1A700A4B1B78002B05D0FFF77CFF36
:106230000023064A23601370002010BDAC26002006
:10624000542500205C250020CD0C000020250020D6
:106250002125002073B51F49032004F0AFFB02F095
:1062600057FB1D490200032004F0C4FB02F050FB61
:106270002030C0B2FDF734F902F04AFB011E03D111
:1062800080221648FCF7C2FD154E164C307882006D
:106290001359192B1BD0FA21C900134A0191012867
:1062A00007D9062101200091104904F02DFC00209F
:1062B00076BD0625009523680D49022004F024FCD4
:1062C00033780133DBB233709B001D51EFE70623B7
:1062D0001351ECE796120300D7120300B8260020F2
:1062E000482500200037002078120300B20B03007D
:1062F000040C030073B52249032004F05FFB02F095
:106300003BFD0400438802881E49032004F098FBEB
:1063100063881D4A138021881C4A9B3BFF3B1180E8
:10632000202B19D81A49032004F048FB194805F01E
:1063300051FB194E194C307882001359192B1BD080
:106340009B21C900164A0191012807D91421012077
:106350000091144904F0D8FB002076BD1425009567
:1063600023681149022004F0CFFB33780133DBB2FC
:1063700033709B001D51EFE714231351ECE7C04627
:106380009F2203002B220300A6260020A426002023
:106390005A2203004C260020482500200037002008
:1063A00078120300B20B0300040C030073B53D49DF
:1063B000032004F003FB01F00FFD04008279437910
:1063C00012021A433849032004F014FBA27E637EB4
:1063D00012021A433549032004F00CFB227FE37EAE
:1063E00012021A433249032004F004FBA37E627EAA
:1063F0001B021343227FE17E12020A431B049B18F7
:106400002C4A934229D12C49032004F0D7FA2B4877
:1064100005F0E0FA2A4E2B4C307882001359042BF9
:106420002BD02949294A0191012818D9012028494E
:10643000009004F069FB274E274C307882001359F6
:10644000192B2BD02549214A0191012818D9132154
:10645000012000911E4904F057FB002076BD012564
:10646000009523681E49022004F04EFB33785B1927
:10647000DBB233709B001D51DDE701231351DAE7D6
:106480001325009523681649022004F03DFB33785C
:106490000133DBB233709B001D51DEE71323135130
:1064A000DBE7C046EF230300372403006124030029
:1064B000862403000013AABBAB2403004C26002053
:1064C0004A290020B03A002011040000781203008D
:1064D000B20B030048250020003700201204000002
:1064E000040C030073B54849032004F067FA474BD6
:1064F000474D59781A78090211439A782B60120493
:106500001143DA7812060A4342498A425ED1E022F8
:10651000DC799979240292000C43944256D15A793D
:10652000197912020A4303203B4904F063FA2A68EE
:10653000537911791B020B43384909680B80507954
:10654000137900021843FDF78DFA2B685A7A187AEE
:1065500012020243987A197B00040243D87A5D7CC8
:10656000000610435A7B2D0212020A43997B09044C
:106570000A43D97B090611431A7C15439A7C1204FD
:106580001543DA7C12062A43FDF752FA2448254BBC
:10659000848003600523836002F0CEFF224E234CEB
:1065A0003078820013590E2B0DD02149214A0191D8
:1065B00003250321012818D9009101201E4904F068
:1065C000A3FA002076BD03231351FAE71B4E1C4C9F
:1065D000307882001359192B14D01A49154A0191A9
:1065E000012801D90421E7E704250095236816490D
:1065F000022004F089FA33780133DBB233709B0058
:106600001D51DEE70423DFE73F170300302500209C
:10661000A02600205AA5A55A801703009C2600201A
:10662000242500200C370020902A0020D43A002096
:10663000BA05000078120300B20B030048250020C1
:1066400000370020BC050000040C030073B51D4991
:10665000032004F0B3F91C49032004F0AFF915201E
:1066600002F05CF9F0238022A0209B030093120229
:10667000164B8002012102F06FF8154E154C307850
:1066800082001359062B19D01349144A019101288D
:1066900006D901201249009004F036FA002076BD98
:1066A0000125009523680F49022004F02DFA337864
:1066B0005B19DBB233709B001D51EFE701231351CF
:1066C000ECE7C0463A1C0300811C0300CD8C00009F
:1066D000CC2A0020E03A00209E030000781203003C
:1066E000B20B0300040C030010B51949032004F099
:1066F00065F9184C18492288032004F07BF9174BE0
:1067000017491A88032004F075F9164B16491A88A0
:10671000032004F06FF902F057FBCC2322885B00C2
:106720009A420BD81149032004F048F9072003F0DE
:1067300089FB022003F0E2FB002010BD0C4903207E
:1067400004F03CF9012003F07DFB0420F2E7C04691
:10675000B21F0300A6260020C71D0300A4260020A8
:10676000F41D03001E250020201E0300F61F030059
:106770003F20030073B51649032004F01FF9802061
:10678000000202F01BFB134E134C307882001359A9
:10679000062B1AD01149124A0191012807D900216C
:1067A000012000910F4904F0AFF9002076BD0025CB
:1067B000009523680C49022004F0A6F933780133D0
:1067C000DBB233709B001D51EFE700231351ECE760
:1067D000AC230300582A0020C83A002027040000F8
:1067E00078120300B20B0300040C030073B50025FC
:1067F000304B3149040003201D6004F0DFF82F49BD
:10680000032004F0DBF803F0B9FC03F0EBFCFDF728
:106810004FFA2B4A29002B4805F078F82A4A29001C
:106820002A4805F073F8A223A022DB00D205D35832
:106830001B0612D4A17A637A09021943E37A244A27
:106840001B041943237B23481B060B438021136041
:1068500001230902137105F071F8A223A022DB00C5
:10686000D205D3581B0311D41B4E1C4C3078820028
:106870001359192B1AD01A491A4A0191012807D91C
:106880000E2101200091184904F03EF9002076BD48
:106890000E25009523681549022004F035F9337858
:1068A0000133DBB233709B001D51EFE70E23135110
:1068B000ECE7C046FC360020F00A0300252A03005E
:1068C000C145020060120300454502006412030046
:1068D0007C2500209C250020482500200037002032
:1068E0004D03000078120300B20B0300040C0300F8
:1068F000F0B58BB008920122099314AB1F88079161
:10690000FB08DBB20293072311003B4099400B00C8
:10691000013BDBB2039300231D001C0006AE069072
:10692000019604922821FF2006AA52180199D25CF0
:10693000C95C84469143159AD1545A1CD200BA427C
:1069400001DD039A94466246114014D00820844623
:10695000DA00D2B29444604602AEF073F07B844613
:106960000498014202D014000135EDB20132D2B2D6
:1069700049086245F4D10133029ADBB29A42D1D27E
:106980000020854202D024026519A8B20BB0F0BDE8
:10699000F0B585B00292039307220EAB1C88012349
:1069A0002240934000220191013BE1080090C9B2CE
:1069B000DBB20AAEFF27551CE800BC46A04200DD52
:1069C0009C466F46B05CBA5C824310006246104041
:1069D00004D1EAB29142EDD205B0F0BD0120FBE74F
:1069E000F0B587B00492032205930CAB1C880127F5
:1069F00000239446E408114D02900391E4B2DE00B6
:106A0000F6B2A34217D8002002AAD25C01920199E3
:106A100032180141D2B2394004D0A95C0131C9B267
:106A2000022906D80130A9540828F0D10133DBB27D
:106A3000E5E76146F6E707B0F0BDC046B82600209E
:106A4000F0B50023072501268B4200D3F0BD074A8D
:106A5000D25C022A07D91A0034002A409440DF0889
:106A6000C25DA243C2550133DBB2EDE7B826002078
:106A7000F0B587B005930CAB1D880391ED08EBB220
:106A800000930023049219001A0002900098DE007F
:106A9000F6B2834213D8002402A8C05C019001988A
:106AA000012520413719FFB2284202D03A00491986
:106AB000C9B20134082CF2D10133DBB2E6E7002081
:106AC000814202D01202511888B207B0F0BD000016
:106AD000F0B5B049A3B0032003F070FFAE4804F056
:106AE00079FFAE4EAE4C307882001359042B00D1A2
:106AF000C9E0AC49AC4A0191012800D8B5E00120B9
:106B0000AA49009004F000F801F002FF06AD022847
:106B100000D0BBE00AA8FCF7F5FE002412AE30005E
:106B200016AFFCF7EFFE3800A65DFCF751FFE35D02
:106B300033402B550134102CF0D1FCF72BFF06000D
:106B40000EAC102200212000FCF760F9984F1022B3
:106B50003900684604350594049609F045FB0ECDCE
:106B60000698FFF7C5FE1022390005006846049616
:106B700009F03AFB0A980B990C9A0D9BFFF708FF56
:106B8000002800D09BE001F0C3FE011E00D0BDE054
:106B900080228848FCF73AF9ECB260426041C0B20A
:106BA00000F05EFF002C45D08349032003F006FF70
:106BB000119B0E980F99109AFCF76EFEFCF7FCFEE5
:106BC000C30737D57D49012C00D0B3E007232D0A38
:106BD000ADB25D437A4B5D19AA79092A00D9A8E0C4
:106BE0000C267849032003F005FFAB79764C7343FC
:106BF000185902F06BFEAB797343E318586802F042
:106C00006BFEAB795E43A419A06802F06BFE6F4E79
:106C10006F4C307882001359062B00D1A6E06D49E5
:106C2000614A0191012800D892E001205F4900905B
:106C300003F06AFF5E4800F0C1FF674E674C307892
:106C400082001359102B00D1A1E0E921C900564A56
:106C50000191012800D88CE00C21012000915349BA
:106C600003F052FF002023B0F0BD012500952368FA
:106C70005B49022003F048FF33785B19DBB23370C5
:106C80009B001D5140E7012313513DE701F040FEF9
:106C9000012800D13EE70AA8FCF74CFE00241AAEFA
:106CA00030001EAFFCF746FE3800A65DFCF7A8FEDC
:106CB000E35D33402B550134102CF0D13DE7494BB7
:106CC000494F18788200D3590B2B1CD04749364ABC
:106CD0000191012806D9082101200091334903F0D0
:106CE00013FF50E7082300933B683D49022003F05F
:106CF0000BFF3C4B3B4A1B780133DBB2137008227D
:106D00009B00DA513FE70823D3513CE700966168C6
:106D1000A268E3680E98FFF763FE20003100FFF7DA
:106D20008FFE043400960E980ECCFFF7A1FE0500EE
:106D300032E72F49032003F041FE8020000202F0D9
:106D4000C5FD8020400202F0C7FDC02080025CE744
:106D50000125009523682249022003F0D5FE3378EF
:106D60005B19DBB233709B001D5163E701231351A4
:106D700060E70C25009523681949022003F0C4FE42
:106D800033780133DBB233709B001D516AE70C236B
:106D9000135167E75A1A03000C2600204A290020E5
:106DA000B03A0020FA06000078120300B20B03008C
:106DB00038270020B82600209F1A0300ED1A030090
:106DC0000C3700204E1B0300842C0300CC2A00202B
:106DD000E03A00204107000049290020A43A0020A1
:106DE000040C03004D290020BC3A002014070000C9
:106DF000861B03001FB501F08BFD022846D16846B3
:106E0000FCF780FD6B4600201B7883423CD16B462B
:106E10005B78834238D16B469B78834234D16B4692
:106E2000DB78834230D16B461B7983422CD16B4691
:106E30005B79834228D16B469B79834224D16B4690
:106E4000DB79834220D16B461B7A83421CD16B468F
:106E50005B7A834218D16B469B7A834214D16B468E
:106E6000DB7A834210D16B461B7B83420CD16B468D
:106E70005B7B834208D16B469B7B834204D16B468C
:106E8000D87B43425841C0B205B000BD01F040FD7F
:106E90000128B4D06846FCF74DFDB3E7F0B5724960
:106EA00089B00500032003F089FDFFF7A3FF041E4E
:106EB00000D19DE003206D4903F080FD6C4E6D4CC8
:106EC000307882001359192B00D18EE06A496B4A41
:106ED0000191012806D9052100916949012003F09B
:106EE00013FE0CE00527009723686649022003F093
:106EF0000BFE33780133DBB233709B001F5105ACBE
:106F00002000FCF7F5FC63896788E688039301F0AD
:106F1000FFFC012800D08DE0002F00D084E03C274A
:106F2000192400F0A3FD584B1A78002A03D0002240
:106F30003C270F241A70554804F04CFD544804F0C7
:106F400049FDAA7A6B7A12021A43EB7A514E1B045E
:106F50001A432B7B1B061343336005233371FA233B
:106F60009B005C43E217630CD1031943FA23E0034F
:106F7000FA2200245B00C01861419200002307F050
:106F8000F7FF32000100414804F0D8FCAA7A6B7A7E
:106F900012021A43EB7A404C1B041A432B7B1B064C
:106FA0001343236006232371FA239B007B43DD17E1
:106FB0005A0CE9031143FA22D80300235200801827
:106FC0005941FA220023920007F0D2FF220001006B
:106FD0002F4804F0B3FC00231900304A99540133C0
:106FE000102BFBD1002009B0F0BD0523135186E71B
:106FF0002B4F2C4E387882009359042B12D02A49FB
:107000001E4A01910094012800D966E733681D49A2
:10701000022003F079FD3B780133DBB23B709B002B
:107020009C516CE794516AE72049032003F0C6FCA9
:10703000248876E701F06CFC02280AD1039B002B20
:1070400000D16CE71A49013003F0B8FC2489039F92
:1070500067E7002E00D162E71649032003F0AEFC7B
:107060003700A4885DE7C046231903006A190300AE
:107070004825002000370020570700007812030041
:10708000B20B0300040C0300A82600200C260020ED
:10709000D425002004260020CC25002038270020FD
:1070A0004A290020B03A002059070000A91903001E
:1070B000E1190300221A0300F0B55C4989B004000D
:1070C000032003F07BFCFFF795FE051E00D16DE069
:1070D0005749032003F072FC564805AD04F07AFCD2
:1070E000554804F077FC2800FCF702FC6B896F8898
:1070F000EE88039301F00CFC012800D07CE0002F07
:1071000000D073E03C271923A17A627A0902114367
:10711000E27AFA2512041143227B484E12060A43F2
:1071200032600522AD006B433271DA17D1035A0C7D
:107130001143FA22D8030023520080185941FA2241
:107140000023920007F014FF32000100394804F0D8
:10715000F5FBA27A637A12021A43E37A384E1B04D3
:107160001A43237B7D431B06134333600623EA1730
:107170003371D1036B0C1943FA230024FA225B000C
:10718000E803C01861419200002307F0F1FE3200CD
:107190000100294804F0D2FB00231900294A995420
:1071A0000133102BFBD1002009B0F0BD264F274E34
:1071B000387882009359042B16D02549254A01912D
:1071C0000095012804D92449012003F09DFC83E7A0
:1071D00033682249022003F097FC3B780133DBB28D
:1071E0003B709B009D5177E7955175E71C49032043
:1071F00003F0E4FB2B8887E701F08AFB02280AD121
:10720000039B002B00D17DE71649013003F0D6FB2C
:107210002B89039F78E7002E00D173E712490320E2
:1072200003F0CCFB3700AB886EE7C046EA1B0300D7
:107230006A1903000C260020D4250020FC2500201C
:10724000C4250020382700204A290020B03A002019
:107250008F06000078120300B20B0300040C030039
:10726000A9190300E1190300221A0300F0B57249BD
:1072700089B00400032003F0A1FBFFF7BBFD051E4E
:1072800000D18BE06D49032003F098FB05AD280089
:10729000FCF72EFB6B896F88EE88039301F038FBB7
:1072A000012800D0A0E0002F00D097E03C27192350
:1072B000A17A627A09021143E27AFA251204114393
:1072C000227B5F4E12060A4332600522AD006B43FB
:1072D0003271DA17D1035A0C1143FA22D803002372
:1072E000520080185941FA220023920007F040FE14
:1072F00032000100534804F021FBA27A637A1202A3
:107300001A43E37A504E1B041A43237B7D431B062A
:10731000134333600623EA173371D1036B0CFA224F
:10732000194300235200E80380185941FA22002330
:10733000920007F01DFE32000100444804F0FEFAFE
:10734000A17A637A09021943E37A414A1B0419437B
:10735000237B40481B060B4380211360072309024F
:10736000137104F0EBFA00231C003B4A9C540133D8
:10737000102BFBD1394E3A4D307882005359102BE7
:1073800057D03849384A01910094012845D93749E6
:10739000012003F0B9FB002009B0F0BD344F354E99
:1073A000387882009359042B16D033492E4A019124
:1073B0000095012804D92D49012003F0A5FB65E7BC
:1073C00033682E49022003F09FFB3B780133DBB288
:1073D0003B709B009D5159E7955157E72849032081
:1073E00003F0ECFA2B8863E701F092FA02280AD145
:1073F000039B002B00D159E72249013003F0DEFA4C
:107400002B89039F54E7002E00D14FE71E4903202C
:1074100003F0D4FA3700AB884AE72B6817490220FB
:1074200003F072FB33780133DBB233709B005C51A5
:10743000B1E75451AFE7C046FE1403006A190300D8
:10744000F42500200C260020BC250020D425002097
:107450006C2600207C2600203827002049290020A7
:10746000A43A00208605000078120300B20B030046
:107470004A290020B03A00204A050000040C03000D
:10748000A9190300E1190300221A0300F0B5494FBE
:1074900087B03900032003F091FA4749032003F035
:1074A0008DFA3900032003F089FAFCF77BFB43498E
:1074B0000200032003F09EFA962241495200032065
:1074C00003F098FADC223F499200032003F092FA7D
:1074D000A0223D49032003F08DFA3C4B03AD1B680D
:1074E0003B491A88032003F085FA2800FCF700FACC
:1074F000EB886C8800936B890193002C56D02E8802
:1075000032003449032003F075FA22003249032087
:1075100003F070FA019B002B01D01C002E89320071
:107520002E49032003F066FA22002D49032003F0C0
:1075300061FA009B002B01D01C00AE883200294963
:10754000032003F057FA22002749032003F052FAE0
:1075500005222649032003F04DFA05222449032081
:1075600003F048FA234A2449032003F043FA234A4C
:107570002349032003F03EFAF82222499200032017
:1075800003F038FA204A2149032003F033FA204A55
:107590002049032003F02EFA3900032003F00EFAED
:1075A0003900032003F00AFA07B0F0BD3C24192685
:1075B000A6E7C046FC2C0300442D03008D2D0300DC
:1075C000A92D0300E52D03001A2E03009C260020A0
:1075D0004D2E03006C2E0300992E0300C82E0300CD
:1075E000FE2E0300362F0300632F0300922F0300AB
:1075F000D82F0300C926000020300300BAE800009D
:10760000503003007B300300C1070000A9300300A5
:1076100045170000D430030010B50320034903F0E0
:10762000CDF9FFF733FF002010BDC046A2180300BC
:1076300010B50320034903F0C1F9FFF727FF00202D
:1076400010BDC04620180300F0B54B4C010AA170D4
:10765000010CA279E170010E2171617912020A43D5
:10766000E17985B009040A43217A03000906114330
:10767000424A25788A1803920A0060700398904263
:1076800007D100953E4A3F49022003F007FA012541
:107690005FE05078561A8446674690780002384377
:1076A000D7783F040743107900063843834246D118
:1076B0001078A84241D18020A17A627A0902114350
:1076C000E27A400212041143227B12060A43190097
:1076D000FCF712FCA279637912021A43E3791B04C6
:1076E0001A43237A1B0613439B199A795D79120278
:1076F0002A43DD792D042A431D7A2D06154320D116
:10770000A278637812021A43E3781F491B041A43D4
:10771000237903201B061343194A03F091F9A27938
:10772000637912021A43E3791B041A43237A1B0676
:1077300013439B195B7A23700BE01628BBD00A32E7
:107740009CE72000A847051E06D01049012003F041
:1077500035F9280005B0F0BDA279637912021A4309
:10776000E3791B041A43237A1B0613439B195B7AA4
:10777000162BE0D1EDE7C04658200020B2020000F1
:107780000F0F0300680F03001E0F03004F0F0300CD
:10779000044A13005072020A9A72020C000EDA7246
:1077A0001873704758200020074B08491A780023A7
:1077B00098004058192805D10133DBB29A42F7D21C
:1077C000002070470120FCE74825002000370020FA
:1077D00010B50320024903F0F1F8002010BDC046A7
:1077E0007A32030010B50320024903F0E7F80020C5
:1077F00010BDC046BC32030010B50320024903F09F
:10780000DDF8002010BDC0461334030010B503207E
:10781000024903F0D3F8002010BDC046E031030058
:1078200010B50320024903F0C9F8002010BDC0467E
:107830001832030010B50320024903F0BFF80020FE
:1078400010BDC046B731030010B50849032003F04E
:10785000B5F80749074B0A004B72190A9172190CC7
:107860001B0E0020D172137310BDC0468E31030071
:10787000652000208C3A002010B50B49032003F04E
:107880009DF80A4A0A48937A517A1B020B43D17A2F
:10789000043009040B43117B07220906194308F041
:1078A000A3FC002010BDC0468833030065200020E3
:1078B0008C3A002010B50A49032003F07FF80949EB
:1078C00000208A7A4B7A12021A43CB7A1B041A439D
:1078D0000B7B1B0613431A88034B5A8010BDC0460E
:1078E000B6330300652000208C3A002010B50A4909
:1078F000032003F063F8094900208A7A4B7A1202C8
:107900001A43CB7A1B041A430B7B1B0613431A88BA
:10791000034B1A8010BDC04644320300652000208E
:107920008C3A002010B50320034903F047F802F019
:10793000EFFB002010BDC046F832030073B51C49B0
:10794000032003F03BF8FCF771F9FCF73DF9FCF775
:107950002DF902F0E6FB02F0EDFB0320154903F0E0
:107960002DF802F0E6FB144E144C307882001359C7
:10797000102B19D0D021124A0191012806D90120DB
:107980001049009003F0C0F8002076BD0125009555
:1079900023680D49022003F0B7F833785B19DBB296
:1079A00033709B001D51EFE701231351ECE7C046F4
:1079B0002B3303005733030049290020A43A002049
:1079C00073330300B20B0300040C030030B52149EC
:1079D00085B0032002F0F2FF1F4D1022AB7A6C7AC3
:1079E0001B022343EC7A6846240423432C7B2406A1
:1079F0001C43210008F0F8FB2B78042B1BD1E47BFF
:107A00007B331C4000F084FF022817D180231C43E5
:107A10006B46DC73039B00980199029AFBF734FDD7
:107A20000E4B1B78002B06D100F072FF02280AD102
:107A30000420FBF755FD002005B030BD00F068FFC5
:107A40000128E5D1E2E700F063FF0128F0D0032030
:107A5000EFE7C046E73303006520002048290020F7
:107A6000014B18707047C04648290020014B187818
:107A70007047C04648290020F0B54B4C010AA17060
:107A8000010CA279E170010E2171617912020A43A1
:107A9000E179030009040A43217A85B009061143FC
:107AA0000F000A008C372578607003970398904286
:107AB00007D100953D4A3E49022002F0EFFF012523
:107AC0005FE05078561A8446674690780002384343
:107AD000D7783F040743107900063843834246D1E4
:107AE0001078A84241D18020A17A627A090211431C
:107AF000E27A800212041143227B12060A43190023
:107B0000FCF7FAF9A279637912021A43E3791B04AC
:107B10001A43237A1B0613439B199A795D79120243
:107B20002A43DD792D042A431D7A2D06154320D1E1
:107B3000A278637812021A43E3781E491B041A43A1
:107B4000237903201B061343184A02F079FFA27918
:107B5000637912021A43E3791B041A43237A1B0642
:107B600013439B195B7A23700BE00728BBD00A32C2
:107B70009CE72000A847051E06D00F49012002F00F
:107B80001DFF280005B0F0BDA279637912021A43E7
:107B9000E3791B041A43237A1B0613439B195B7A70
:107BA000072BE0D1EDE7C04665200020FB30030045
:107BB000680F03001E0F03004F0F0300044A130059
:107BC0005072020A9A72020C000EDA721873704731
:107BD00065200020054A937A507A1B020343D07A2D
:107BE00000040343107B0006184370476520002003
:107BF000074B08491A78002398004058102805D1EF
:107C00000133DBB29A42F7D2002070470120FCE733
:107C100049290020A43A002010B50320024902F0AF
:107C2000CDFE002010BDC0467A34030010B50549D2
:107C3000032002F0C3FE0320034902F0BFFE002030
:107C400010BDC046323503007435030010B5032063
:107C5000034902F0B3FE02F0B1FB002010BDC046A4
:107C6000F434030010B50320034902F0A7FE02F02C
:107C700095FB002010BDC046B5340300F0B54B4C59
:107C8000010AA170010CA279E170010E21716179E4
:107C900012020A43E179030009040A43217A85B0FC
:107CA000090611430F000A002837257860700397F2
:107CB0000398904207D100953D4A3E49022002F0C8
:107CC000EDFE01255FE05078561A844667469078AD
:107CD00000023843D7783F04074310790006384341
:107CE000834246D11078A84241D1C020A17A627A5D
:107CF00009021143E27A800212041143227B120628
:107D00000A431900FCF7F8F8A279637912021A43C2
:107D1000E3791B041A43237A1B0613439B199A79B0
:107D20005D7912022A43DD792D042A431D7A2D063E
:107D3000154320D1A278637812021A43E3781E49D2
:107D40001B041A43237903201B061343184A02F02D
:107D500077FEA279637912021A43E3791B041A436E
:107D6000237A1B0613439B195B7A23700BE00428CC
:107D7000BBD00A329CE72000A847051E06D00F4959
:107D8000012002F01BFE280005B0F0BDA279637946
:107D900012021A43E3791B041A43237A1B06134386
:107DA0009B195B7A042BE0D1EDE7C04672200020DE
:107DB00044340300680F03001E0F03004F0F03003D
:107DC000044A13005072020A9A72020C000EDA7210
:107DD0001873704772200020054A937A507A1B026C
:107DE0000343D07A00040343107B00061843704716
:107DF00072200020074B08491A7800239800405849
:107E0000042805D10133DBB29A42F7D20020704733
:107E10000120FCE74A290020B03A0020002801D1C7
:107E2000014B18707047C046522A002010B5064911
:107E3000032002F0C3FD0122044B032004491A7001
:107E400002F0BCFD002010BD8C3703004C2900203F
:107E5000CE37030010B50649032002F0AFFD022221
:107E6000044B032004491A7002F0A8FD002010BD45
:107E7000093703004C2900205137030010B505498C
:107E8000032002F09BFD0320034902F097FD002030
:107E900010BDC046CA3803001839030010B50549A3
:107EA000032002F08BFD0320034902F087FD002030
:107EB00010BDC046CC3603001839030010B50024AD
:107EC0000749032002F07AFD064803F083FD064BC4
:107ED000064903201C7002F071FD200010BDC04651
:107EE000DD3A0300602900204C29002018390300E6
:107EF00070B505000F49032002F060FD0E4C200014
:107F000003F068FDA97A6B7A09021943EB7A0B4AF0
:107F10001B0419432B7B20001B060B431360072314
:107F20001371074B196803F009FD0122054B00206E
:107F30001A7070BD00380300602900205829002005
:107F4000842000204C2900200122064B10B5064950
:107F500006481A7003F01EFE002801D003F0C8F98D
:107F600010BDC046522A0020243B0300A020002060
:107F700070B504002249032002F020FD214803F0DF
:107F800029FD214D280003F025FDA17A637A09021D
:107F90001943E37A1D4A1B041943237B28001B065F
:107FA0000B43136006231371194B196803F0C6FCC9
:107FB000184D280003F00EFDA17A637A09021943D7
:107FC000E37A154A1B041943237B28001B060B4345
:107FD000136007231371114B196803F0AFFC0122E2
:107FE0000F4B1A70FBF7E8FC830702D50520FBF75F
:107FF00077FA0C49032002F0E1FC002070BDC04676
:1080000086380300B8290020F0290020D829002054
:108010008C2000206029002050290020842000208E
:108020004C290020CE370300F7B527490400032070
:1080300002F0C4FC254D26492A88032002F0DAFC10
:10804000244B2A881B689A4215D3A17A637A0902C5
:108050001943E37A204A1B041943237B1F481B065C
:108060000B431360042313711D4B196803F066FC66
:1080700000202880FEBD1B4803F0ACFC1A4E1B4CB0
:108080003078820013590B2B1BD0D1214900184A9C
:108090000191012807D9A039FF3900910120154924
:1080A00002F032FDE4E7032700972368124902201B
:1080B00002F02AFD33780133DBB233709B001F518D
:1080C000D6E703231351D3E74A390300282A0020B7
:1080D0008A390300B8200020B0290020B8290020E8
:1080E000BC200020882900204D290020BC3A002017
:1080F000C3390300B20B0300040C0300F7B5036897
:108100000400002B08D016490A004B72190A91721C
:10811000190C1B0ED1721373124E134D377821793F
:10812000BA0053590B2B19D0AD20104A0190009181
:10813000012F06D90E49AC3802F0E6FC0B2323715F
:10814000F7BD2B680B49022002F0DEFC33780133C7
:10815000DBB2337022799B005A51EFE75151EDE7C2
:10816000902000204D290020BC3A0020C339030094
:10817000B20B0300040C0300F7B503680400002BE6
:1081800008D016490A004B72190A9172190C1B0E7D
:10819000D1721373124E134D37782179BA005359A7
:1081A0000B2B19D0AC20104A01900091012F06D959
:1081B0000E49AB3802F0A8FC0B232371F7BD2B68E6
:1081C0000B49022002F0A0FC33780133DBB233709C
:1081D00022799B005A51EFE75151EDE790200020A2
:1081E0004D290020BC3A0020C3390300B20B030024
:1081F000040C0300F7B503680400002B08D01649EF
:108200000A004B72190A9172190C1B0ED17213736A
:10821000124E134D37782179BA0053590B2B19D0D0
:10822000AB20104A01900091012F06D90E49AA38BF
:1082300002F06AFC0B232371F7BD2B680B49022067
:1082400002F062FC33780133DBB2337022799B0099
:108250005A51EFE75151EDE7902000204D290020C1
:10826000BC3A0020C3390300B20B0300040C030026
:10827000F7B503680400002B08D016490A004B72BA
:10828000190A9172190C1B0ED1721373124E134DF1
:1082900037782179BA0053590B2B19D0AA20104AEC
:1082A00001900091012F06D90E49A93802F02CFC4B
:1082B0000B232371F7BD2B680B49022002F024FC2D
:1082C00033780133DBB2337022799B005A51EFE7E8
:1082D0005151EDE7902000204D290020BC3A0020AC
:1082E000C3390300B20B0300040C0300094B0A4915
:1082F0001A68FA239B00C046C046C046C046C04626
:10830000C046C046C0468A4200D0C046013BF2D1BA
:108310007047C0464C2100200024F400F0B55449B9
:1083200091B0032002F04AFB002104AC514B102213
:1083300020001970FAF76AFD05230493013B63607E
:10834000CC235B04A36003234B4D237308224B4BC8
:108350002100280003F002FC002801D002F0C8FF31
:108360000D23474F3B70FFF7EFFDFFF7BFFF454B76
:108370001B78002B0BD1444B1B784A2B0CD0434964
:108380002A2B0AD04249032002F018FB31E0414970
:10839000032002F013FBE8E73F49032002F00EFB45
:1083A00023003E4A43CA43C343CA43C343CA43C3E9
:1083B00043CA43C3002306222100280003F01AFC0D
:1083C0002A233B70FFF7C0FDFFF790FF2D4B1B7872
:1083D000002B37D12C4A32481178012211434170C9
:1083E00002A90C002D483030C0C8C0C4280003F0DA
:1083F00001FC2C4A00212C4803F088FA2B4A00216A
:108400002B4803F083FA2B4A00212B4803F07EFA15
:108410002A4A00212A4803F079FA2A4E2A4C307859
:10842000820013590B2B20D05A21FF31274A01918A
:1084300001280CD901202649009002F065FB00209C
:1084400011B0F0BD1349032002F0B8FABCE70125D2
:10845000009523681F49022002F056FB33785B1910
:10846000DBB233709B001D51E9E701231351E6E7AE
:10847000E23903004C290020A02000202C2A0020F3
:108480004B290020522A0020102A0020353A0300F0
:10849000943A0300223A0300653A0300C43503000E
:1084A0007F20002071820200C4360300F5810200A3
:1084B000C836030079810200C0360300FD80020047
:1084C000BC3603004D290020BC3A0020C33903000C
:1084D000B20B0300040C03000C2370B52C4E0400F7
:1084E0003370FFF731FDFFF701FF2A4D2B78002B8A
:1084F00044D1294B1B785B073AD516233370FFF71D
:1085000023FDFFF7F3FE2B78002B3CD1234D2800F1
:1085100003F060FAA17A637A09021943E37A204AE8
:108520001B041943237B28001B060B431360042301
:1085300013711C4B196803F001FA1B4D280003F05E
:1085400049FAA17A637A09021943E37A174A1B04AC
:108550001943237B28001B060B431360052313716B
:10856000134B196803F0EAF9124A13880133138098
:108570001149032002F022FA002070BD0F490320A8
:1085800002F01CFAAFE70D49032002F017FAB8E732
:108590004B290020522A0020102A0020B829002050
:1085A000A8290020BC200020882900208029002044
:1085B00088200020282A00204C380300223A03009B
:1085C0000C2370B5134D2B70FFF7BEFCFFF78EFE2A
:1085D000114C2378002B12D1104B1B785B070CD564
:1085E00016232B70FFF7B0FCFFF780FE2378002BDB
:1085F0000AD10B4A138801331380002070BD09494A
:10860000032002F0DBF9E1E70649032002F0D6F986
:10861000EAE7C0464B290020522A0020102A0020F9
:10862000282A0020223A03000C2370B51D4E0500B5
:108630003370FFF789FCFFF759FE1B4C2378002BA2
:1086400025D11A4B1B785B071FD516233370FFF714
:108650007BFCFFF74BFE2378002B1DD1144C200030
:1086600003F0B8F9A97A6B7A09021943EB7A114A37
:108670001B0419432B7B20001B060B4313600623AE
:1086800013710D4B196803F059F9002070BD0B49A7
:10869000032002F093F9CEE70849032002F08EF997
:1086A000D7E7C0464B290020522A0020102A00207C
:1086B000F0290020E02900208C200020223A03002D
:1086C0000C2370B51D4E05003370FFF73DFCFFF71E
:1086D0000DFE1B4C2378002B25D11A4B1B785B0712
