:020000022000DC
:102C000000800020EDB302002DB402002FB40200BA
:102C100000000000000000000000000000000000B4
:102C200000000000000000000000000031B40200BD
:102C3000000000000000000033B4020035B40200C0
:102C40004996020037B4020055730200B9A1020090
:102C500037B4020000000000D19B02001998020066
:102C600037B4020037B4020037B4020037B40200B0
:102C700037B4020037B4020037B4020037B40200A0
:102C800037B402006980020037B4020037B4020092
:102C90002581020037B40200C5B6020037B4020035
:102CA00037B4020037B4020000000000000000004A
:102CB0000000000000000000000000000000000014
:102CC00010B5064C2378002B07D1054B002B02D002
:102CD000044800E000BF0123237010BDC022002083
:102CE00000000000B4F70200084B10B5002B03D021
:102CF0000749084800E000BF07480368002B00D1DF
:102D000010BD064B002BFBD09847F9E700000000F0
:102D1000C4220020B4F70200AC2200200000000012
:102D2000164B002B00D1144B9D46402292029A1A5A
:102D3000924600218B460F461348144A121A00F09F
:102D400065F80F4B002B00D098470E4B002B00D09E
:102D500098470020002104000D000D48002802D0F3
:102D60000C4800E000BF00F02DF82000290000F022
:102D700059F800F011F8C04600000800008000205B
:102D80000000000000000000C0220020C438002025
:102D90000000000000000000084B10B50400002BEC
:102DA00002D0002100E000BF054B1868836A002BA9
:102DB00000D09847200000F031F8C0460000000025
:102DC00004C6020070B500260C4D0D4C641BA41007
:102DD000A64209D1002609F009FC0A4D0A4C641BE1
:102DE000A410A64205D170BDB300EB589847013638
:102DF000EEE7B300EB5898470136F2E7A422002033
:102E0000A4220020A4220020A8220020030082186F
:102E1000934200D1704719700133F9E7FEE7C046CD
:102E200048DF7047F8B5002004F082FB3949040000
:102E3000032004F091FB3849032004F08DFB37494F
:102E4000032004F089FB002C02D0200005F06AF872
:102E5000002002F031FA324F3868082803D00823E6
:102E60003B6002F029FA2F4E3068102803D010235F
:102E7000336002F0FFFB2C4D2868042803D00423A4
:102E80002B6002F0C1FC294B18680B2804D00B23DF
:102E9000264A136003F0DCF8254B18680E2804D08E
:102EA0000E23234A136003F0F3FC224B1868062814
:102EB00004D006231F4A136003F072FA1E4C2068E8
:102EC000062803D00623236003F0D2FE3B68082BBC
:102ED000C1D13368102BBED12B68042BBBD1134B4F
:102EE0001B680B2BB7D1124B1B680E2BB3D1114BA8
:102EF0001B68062BAFD12368062BACD104F0AAFCCB
:102F00000028A8D1FFF78CFF0028A4D005F00AF80C
:102F1000A1E7C04608C602005BC6020075C60200F3
:102F2000602000207420002088200020A0200020A5
:102F3000E8200020CC200020FC200020A0DF7047EB
:102F4000A6DF704763DF704730B5AE4989B0032014
:102F500004F002FB01220120AB4B5242AB4C1A8021
:102F6000AB49AC4B220088700B80FFF7E7FF0028CD
:102F700001D004F0D7FFA849102204A808F0C0FE31
:102F8000A64D04A82900FFF7DDFF002801D004F0BA
:102F9000C9FFA34A2B7821880392A24AA248029231
:102FA0000222019203320092A04A03F0CDFF0028D2
:102FB00001D004F0B7FF9E4A2B78218803929D4AE6
:102FC0009D48029202220192921800929B4A03F0BD
:102FD000BBFF002801D004F0A5FF994A2B78218877
:102FE0000392984A9848029207220192023A00926C
:102FF000964A03F0A9FF002801D004F093FF944AF9
:103000002B7821880392934A9348029210220192CE
:10301000073A0092914A03F097FF002801D004F08C
:1030200081FF8F4A2B78218803928E4A8E48029224
:103030000C220192073A00928C4A03F085FF002887
:1030400001D004F06FFF8A4A2B7821880392894AC5
:10305000894802920122019203320092874A03F0CA
:1030600073FF002801D004F05DFF854A2B7821888A
:103070000392844A84480292102201920B3A0092F1
:10308000824A03F061FF002801D004F04BFF804A20
:103090002B78218803927F4A7F4802921022019266
:1030A0000B3A00927D4A03F04FFF002801D004F054
:1030B00039FF7B4A2B78218803927A4A7A48029218
:1030C00004220192033A0092784A03F03DFF00285F
:1030D00001D004F027FF764A2B7821880392754AA5
:1030E000754802920122019204320092734A03F061
:1030F0002BFF002801D004F015FF714A2B7821889E
:103100000392704A704802920422019200926F4A20
:1031100003F01AFF002801D004F004FF6C4A2B785A
:10312000218803926B4A6C480292012201920B3271
:1031300000926A4A03F008FF002801D004F0F2FE72
:10314000674A2B7821880392664A674802920122D7
:10315000019204320092654A03F0F6FE002801D085
:1031600004F0E0FE624A2B7821880392614A6248AB
:10317000029202220192013A0092604A03F0E4FEB8
:10318000002801D004F0CEFE5D4A2B7821880392FE
:103190005C4A5D48029210220192073A00925B4A13
:1031A00003F0D2FE002801D004F0BCFE584A2B7870
:1031B00021880392574A58480292102201920B3AF2
:1031C0000092564A03F0C0FE002801D004F0AAFE87
:1031D000534A21882B780392524A53480292102274
:1031E00001920B3A0092514A03F0AEFE041E01D048
:1031F00004F098FE4E49032004F0AEF9200009B017
:1032000030BDC046F6CC02004C200020EC2300204C
:10321000EE23002000FFFFFF99C60200F2230020EA
:103220001C230020A023002020CD020001FF00006D
:103230004C230020D62300202FCD020002FF0000E7
:1032400044230020CF23002039CD020003FF0000DB
:1032500054230020D823002040CD020004FF0000AA
:1032600024230020A223002055CD020005FF0000EA
:10327000F42200206823002070CD020006FF000029
:103280000C2300208023002081CD020007FF0000D6
:1032900034230020AF23002095CD020008FF00005A
:1032A000FC2200206C230020A9CD020009FF0000B1
:1032B0002C230020AE230020B8CD02000AFF00001E
:1032C0005C230020E8230020CDCD02000BFF00008E
:1032D000DC22002064230020D7CD02000CFF000078
:1032E000E422002065230020EACD02000DFF00004B
:1032F000EC22002066230020F6CD02000EFF000025
:103300000423002070230020FECD02000FFF0000E8
:10331000142300209023002011CE020010FF000093
:103320003C230020BF2300202ACE020011FF000012
:1033300043CE0200F0B510251627114E8BB006AC17
:1033400000900191029269462A00300003936F4475
:1033500008F0D6FC2A00002120003D80FFF756FD32
:10336000084B21001B88A76023800123A370002342
:10337000A380054BE6601888FFF7E2FD0BB0F0BDB7
:10338000D8230020542300204C200020F0B587B023
:103390006B4601270C4D02AC287010220021200042
:1033A0009E1DDF80FFF732FD084B21001B88A770B0
:1033B00023800023A380064BA6601888E560FFF7F2
:1033C000BFFD07B0F0BDC04664230020DC22002012
:1033D0004C20002070B503880500112B17D002D8AF
:1033E000102B09D070BD502B1BD0532BFAD1824922
:1033F000042004F0B1F8F5E78288804B804904206E
:103400001A8004F0A9F803227E4B1A60EAE7012231
:103410007A4B52427C4904201A8004F09DF8042221
:10342000F2E77A49042004F097F8794AEB88128889
:10343000AC1D9A4211D1227B7649042004F0A8F8F1
:10344000FF20FFF7A3FF744803887F2B01D97F2358
:10345000038002F08DF90522D6E7704A12889A425D
:1034600011D1227B6E49042004F092F8FF20FFF76F
:103470008DFF6C4803887F2B01D97F23038002F0E6
:1034800077F90622C0E7684A12889A4209D1227B5E
:103490006649042004F07CF8654802F069F90722C7
:1034A000B2E7644A1188994205D1227B624904201F
:1034B00004F06EF896E792889A4202D1227B5F4927
:1034C000F5E75F4A12889A4206D1227B5D490420C3
:1034D00004F05EF80B2297E75B4A12889A4209D102
:1034E000227B5A49042004F053F8594802F040F96D
:1034F000082289E7574A12889A4202D1227B56490C
:10350000D5E7564A12889A4202D1227B5449CEE727
:10351000544A12889A4206D1227B5349042004F06F
:1035200037F80A2270E7514A12889A4206D1227B64
:103530004F49042004F02CF8092265E74D4A12880F
:103540009A423BD1227B4C49042004F021F8237B92
:10355000022B16D10125494B1B782B4211D048492B
:10356000032003F0F9FF8020000203F06FFB8020AE
:10357000400203F071FBC020800203F073FB414B5B
:103580001D60237B062B00D02CE701243B4B1B78CE
:10359000234200D126E73C49032003F0DDFF8020D1
:1035A000000203F053FB8020400203F055FBC020D3
:1035B000800203F057FB334B1C6013E7334A128839
:1035C0009A4202D1227B324971E7324A12889A42EA
:1035D00002D1227B30496AE7304A12889A4202D1EE
:1035E000227B2F4963E72F4A12889A4200D0F9E6DE
:1035F000227B2D495BE7C046CFCC02004C20002047
:10360000A9C6020074200020D4C6020002C702002E
:103610001C2300202FC70200A02300204C230020E1
:1036200080C70200D623002044230020CCC702001C
:10363000CF2300205423002015C802006CC80200CC
:1036400024230020C2C80200F42200201FC9020067
:10365000682300200C23002072C9020034230020BC
:10366000C8C902002C2300201ECA02005C230020CF
:1036700075CA0200DC220020C1CA020065230020B6
:1036800016CB0200FC20002047CB0200E4220020E1
:1036900076CB020004230020C4CB020014230020B8
:1036A00019CC02003C23002074CC0200F0B5102598
:1036B0001627114E8BB006AC00900191029269461C
:1036C0002A00300003936F4408F01AFB2A000021FF
:1036D00020003D80FFF79AFB084B21001B88A76064
:1036E00023800123A3700023A380054BE660188884
:1036F000FFF726FC0BB0F0BD702300200423002050
:103700004C20002010B504000C22024908F0F8FA01
:10371000200010BDA22300207FB51025094E040013
:103720002A003100684608F0EBFA7F22F37B6946F5
:1037300013406A462000D3732A0008F0E1FA200003
:1037400004B070BD802300207FB51025094E040011
:103750002A003100684608F0D3FA7F22F37B6946DD
:1037600013406A462000D3732A0008F0C9FA2000EB
:1037700004B070BDAF2300207FB51025094E0400B2
:103780002A003100684608F0BBFA7F22F37B6946C5
:1037900013406A462000D3732A0008F0B1FA2000D3
:1037A00004B070BDD8230020014B18887047C04674
:1037B000A0230020014B18887047C046D623002064
:1037C000014B18687047C046E8230020014B187869
:1037D0007047C04665230020014B18787047C046EB
:1037E000AE2300207FB51025094E04002A003100C9
:1037F000684608F085FA7F22F37B694613406A46E3
:103800002000D3732A0008F07BFA200004B070BDBA
:10381000902300207FB51025094E04002A003100B6
:10382000684608F06DFA7F22F37B694613406A46CA
:103830002000D3732A0008F063FA200004B070BDA2
:10384000BF2300201FB501900291039201A90C2211
:10385000024808F055FA05B000BDC046A22300207A
:10386000014B18607047C0466C230020014B188044
:103870007047C04666230020014B18807047C04641
:10388000A023002007B50722009001910248694655
:1038900008F036FA07BDC046CF230020014B187050
:1038A0007047C046AE2300201FB5029203935A0012
:1038B0006B46520E009001910348DA73694610225C
:1038C00008F01EFA05B000BD802300201FB502924B
:1038D00003935A006B46520E009001910348DA732D
:1038E0006946102208F00CFA05B000BDAF23002095
:1038F0001FB5029203935A006B46520E009001913D
:103900000348DA736946102208F0FAF905B000BDE1
:10391000D8230020F0B5038885B004001D2B61D1A9
:103920000622037C134093425CD1027A2E49042084
:1039300003F02EFEA17BA37A0391617B627A029150
:10394000217B04200191E17A27000091274903F0AF
:10395000E7FE0F222649A256042003F019FE227C1E
:1039600024495207920F042003F012FE224904203A
:1039700003F0F2FD214E237C1137DB083A003100C1
:10398000042003F019FF1E4D1E223900280008F004
:10399000B7F9BA797B7912021A431A49042003F065
:1039A000F7FDBA7E7B7E12021A431749042003F00A
:1039B000EFFD3A7FFB7E12021A431449042003F004
:1039C000E7FD1349042003F0C7FD220010231A323B
:1039D0003100042003F0F0FE280001F093FF0222E2
:1039E0000C4B1A6005B0F0BD69CE02008BCE020010
:1039F000ACCE0200C2CE0200DCCE0200EFCE02004E
:103A0000F3230020FDCE020019CF020030CF0200C8
:103A100047CF02008820002078DF70477ADF7047A8
:103A20007CDF70477047000000487047F424002096
:103A300010B50449044807F0D7FC002801D004F071
:103A400071FA10BD253A0200E424002070B59AB046
:103A50000BAC3C2200212000FFF7D8F90223237091
:103A60000433E370104B012663618023626A03AD67
:103A7000DB00A67026820021138028002022FFF799
:103A8000C5F9962300215B002B61EE706961074B3D
:103A900000912A00200007F001F9002801D004F06D
:103AA00041FA1AB070BDC0464E200020713C0200A1
:103AB000112330B585B001AD2B701A4B1A4C1B6821
:103AC0001A4A1B499BB2200008F056F9200008F062
:103AD00075F9210082B22800FFF7A2FF002801D06B
:103AE00004F020FA0020FFF797FF002801D004F02F
:103AF00019FA02AC082200212000FFF787F92023E1
:103B00002380183363800023A3809133FF33200088
:103B1000E380FFF783FF002801D004F003FA05B02B
:103B200030BDC046A4000010F424002064CF020081
:103B30005ACF02007FB5184904220631684608F0C2
:103B4000DFF80023D0221549684607F071FD0028F0
:103B500001D004F0E7F901AA0121002007F0C2FD1D
:103B6000002801D004F0DEF901A807F0D3FD0028F9
:103B700001D004F0D7F90A4807F090FD002801D0E1
:103B800004F0D0F9074807F093FD002801D004F0B5
:103B9000C9F907B000BDC0465ACF02001424002066
:103BA000AB3C0200D93C020076DF7047A8DF7047CB
:103BB00067DF70471FB503880400112B27D004D896
:103BC000022B2ED0102B13D01FBD512B2FD0552BD5
:103BD00025D03A2BF8D12149042003F0BDFCA08860
:103BE0001321FFF7E1FF0028EED004F09BF9EBE78B
:103BF00003201B4903F0B0FC072006F099FC0028C5
:103C000001D004F08FF9A288164B1A80DCE7027A03
:103C10001549032003F0BCFC01225242F4E713498A
:103C2000DAE7104B00211888FFF7C2FFDBE7837942
:103C3000002BC9D0827B043A022AC5D8022B0AD1B4
:103C40006A461370C1236A465B009380A088694668
:103C5000FFF7ACFFC7E70123F2E7C046F9CF020048
:103C6000BFCF020002250020D5CF02001BD00200EA
:103C700010B500280CD0032809D1074903F06CFCCB
:103C8000022006F055FC002801D004F04BF910BDCD
:103C900003F06EF8FBE7C046A2CF0200038810B520
:103CA000112B01D007F0CCF910BD10B5040007F0BE
:103CB00023FB200007F0CAFA200006F003FD2000D5
:103CC000FFF778FF2000FFF785FB2000FFF7E6FFF6
:103CD0002000FFF71FFE10BD10B5040005F048FBE3
:103CE000200007F0E3F910BD10B50E2802D00F2810
:103CF00008D010BD0749032003F02EFC0120FFF778
:103D000045FBF6E70449032003F026FC0422034B9D
:103D10001A60EEE76DCF02008CCF0200FC2000207D
:103D2000802310B5DB02984200D17CE008D88023C4
:103D30009B02984214D0C0239B02984252D010BDDF
:103D4000A023DB02984255D0C023DB029842F6D173
:103D50000329F4D102F0A2FB01F02CFB424A06E059
:103D6000012907D101F010FD01F024FB3F4A404B2F
:103D70001A60E4E7042905D101F006FD01F01AFB01
:103D80003C4AF4E7072905D101F0FEFC01F012FBE3
:103D9000394AECE7062905D101F0F6FC01F00AFBEF
:103DA000364AE4E7082905D101F0EEFC01F002FBF8
:103DB000334ADCE7092905D101F0E6FC01F0FAFA03
:103DC000304AD4E70A2905D101F0DEFC01F0F2FA0D
:103DD0002D4ACCE70B29B2D101F0D6FC01F0EAFA6A
:103DE0002A4AC4E70229AAD101F098FD01F0E2FABB
:103DF000274ABCE7052905D102F0D4FD01F0DAFA23
:103E0000244AB4E70C2905D102F0CCFD01F0D2FA26
:103E1000214AACE7092900D091E702F0C3FD01F087
:103E2000C9FA1E4AA3E7082905D102F08FF901F06B
:103E3000C1FA1B4A9BE7062905D102F087F901F078
:103E4000B9FA184A93E7052905D102F07FF901F084
:103E5000B1FA154A8BE7072900D070E702F076F92E
:103E600001F0A8FA114A82E70300060001000200EF
:103E7000602000200400020007000200060002008B
:103E800008000200090002000A0002000B00020004
:103E900002000300050005000C00050009000500F4
:103EA00008000400060004000500040007000400E8
:103EB00011DF704713DF70470368002B08D00749F4
:103EC0000A004B72190A9172190C1B0ED1721373EE
:103ED0000279034B1A6008230371704752200020B7
:103EE000602000200368002B08D007490A004B72AD
:103EF000190A9172190C1B0ED17213730279034BBC
:103F00001A600823037170475220002060200020AF
:103F10000368002B08D007490A004B72190A9172F6
:103F2000190C1B0ED17213730279034B1A6008230C
:103F300003717047522000206020002010B503203C
:103F4000024903F009FB002010BDC046F0D3020077
:103F500010B50320034903F0FFFA0222024B0020B0
:103F60001A6010BDB2D302007420002010B50449BD
:103F7000032003F0F1FAFE20FFF708FA002010BD3D
:103F800041D5020010B50B49032003F0E5FA02F019
:103F9000EBF809490200032003F0FAFA02F0E4F812
:103FA0002030C0B2FFF7F2F90422044B00201A605F
:103FB00010BDC046B4D10200F5D10200602000203F
:103FC00010B50C49032003F0C7FA0B4C0B4BE02251
:103FD0002360052392000A490320A360A28003F016
:103FE000D7FA200002F0D2FC0722064B00201A600C
:103FF00010BDC0462AD60200042500201C35002032
:104000006CD60200E82000207FB51849032003F099
:10401000A3FA5A235B22164C52422370E370154BCD
:1040200062701B68A2701B88134E23711B0A637198
:1040300080235B42A3718333E37168463460FFF7EA
:1040400061FB20000C226946083007F059FE0B483E
:1040500033680025036014238560838002F096FC9A
:1040600007222800064B1A6004B070BD81D50200FB
:1040700010250020C8250020CC2500200425002084
:10408000E820002010B50549032003F065FA02F08E
:1040900005FA0088FFF7EAFB002010BDDFD602001A
:1040A00010B5817A437A09021943C37A094A1B047D
:1040B0001943037B08481B060B438021136005232B
:1040C0000902137104F054FA044A00201368013302
:1040D000136010BDA0250020A82500201835002061
:1040E000F0B5584987B0032003F036FA01F016FC0A
:1040F00004008279437912021A435349042003F0E1
:1041000047FAA27E637E12021A435049042003F04C
:104110003FFA227FE37E12021A434D49042003F046
:1041200037FA4C49042003F017FA22001023093211
:104130004949042003F040FB00250726474B1B6834
:104140001B88AB4237D802F00FF8022800D06FE08E
:1041500002A8FFF7E1FAFFF727FB0121C308DBB252
:10416000019307230C0003409C40FF2300229C4640
:10417000013C3B4FE4B2531CDB006546834200DD4B
:10418000250002ABBE5C9B5C0132B3431D406B4219
:104190006B415B421940019BD2B29342EBD20029A2
:1041A00006D03049032003F0D7F903222E4B1A60C2
:1041B000002007B0F0BD63792C4A9C463300674667
:1041C0006B43985CD318A1795A78090212023943DB
:1041D0000243914229D1627EA17E94466746DA78F5
:1041E0009878090212023943024391421DD119798C
:1041F000227F5B79E07E12021B0202430B439A424C
:1042000013D12B0001203340984003001449EA08E1
:10421000885C03438B54164AAB001168154A03208F
:1042200099502A00144903F0B3F90135ADB285E77E
:1042300001F09AFF012800D18AE702A8FFF784FA6B
:1042400089E7C04624D2020062D202008DD2020069
:10425000B3D20200D9D20200EFCE0200C82500205E
:10426000D125002028D30200602000201C3500202A
:1042700018350020E4250020FBD2020010B50549C6
:10428000032003F069F9FFF7A7FA01F073FF00209C
:1042900010BDC04635DB0200F0B5002585B03749BA
:1042A000032003F059F9364C3649236803205A8815
:1042B00003F06EF9236834499A88032003F068F903
:1042C00023683249DA88032003F062F92368304911
:1042D0001A89032003F05CF923682E499A7A032097
:1042E00003F056F9FFF766FA2A0021682A4E0B8878
:1042F00003900293029893B2019383420BD3002D53
:104300002BD00320254903F027F9FA20FFF73EF8C8
:10431000002005B0F0BD072353439C5DF318A4466D
:1043200060465C788F8824020443A74212D1DC786F
:104330009878CF8824020443A7420BD11C795B797B
:104340000F891B0223439F4204D1019B039898428B
:1043500000D001250132D2B2CCE707224B880E48AB
:1043600053430431C01807F0CBFCFF20FFF70EF8D1
:104370000B49032003F0F0F8CAE7C046DEDB020079
:10438000C82500201ADC020044DC02006FDC0200B9
:1043900095DC0200BBDC02001C350020EDDC0200D5
:1043A00026DD020010B51349032003F0D5F8FFF70E
:1043B00001FA114B8000C058FFF752FAFFF7FAF9E3
:1043C000072250430D4BC15C1B185A789878120293
:1043D0000A4300040243D8785979000610431A7939
:1043E00009020A43997909041143FFF74BFA0020A7
:1043F00010BDC0464BDD0200E42500201C35002026
:1044000010B50749032003F0A7F8FFF7D9F9054BCA
:10441000020018600449032003F0BAF8002010BD20
:104420008ADD020018350020C9DD020010B50D49F3
:10443000032003F091F801F0A7F9022200240A4BAF
:1044400018600A4B0A481A600A4B84601C600A4BC9
:1044500003601423838002F099FA0322074B2000A3
:104460001A6010BD77D30200C825002074200020F8
:1044700004250020A020002010250020E820002096
:10448000F0B5D0499DB0032003F066F801F07CF947
:104490000078012837D1CC49023003F05DF8E022E2
:1044A00000219200C948FEF7B1FC0021C84C0C2243
:1044B000206801800B30FEF7A9FC22681300D07A37
:1044C000127BD97B12020243587B1C7D00040243FD
:1044D000987B2402000610431A7C12020A43597C7E
:1044E00009040A43997C09061143DA7C14435A7D76
:1044F000120414439A7D12062243FFF7A3F90B22FC
:10450000B44B1A600AE1022804D1B349013003F028
:1045100023F8F4E703281BD1B04903F01DF803F09A
:1045200099F90028FBD10123D820AD4A5B42D3671B
:10453000AC4A4002D367FFF7BDFCFFF7B9FCBFF3FD
:104540004F8FA94AA94BDA60BFF34F8FC046FDE7F2
:10455000042800D029E1FFF72DF90700FFF724F91F
:104560003A000090A249032003F012F8009BFCB22D
:1045700007259F4211D3FB20CEE028002B00661CAC
:10458000734360432A000818C91807F0B9FB994B18
:10459000B200D258A400E250F4B2009B8B49581EDE
:1045A0008442EADB00236543924A4B55A4004D192F
:1045B000A3506B70AB70EB702B716B71844B80B23E
:1045C0001B681880FFF758F910A8FFF7BDF8109B7B
:1045D00014A80493119B0593129B0293139B0A93B7
:1045E000FFF79AF8149B18A80693159B0793169B40
:1045F0000B93179B0C93FFF7BFF8189B0893199B1D
:1046000009931A9B0D931B9B0E9301233F2F00D9F7
:1046100087E01E00BE40013EF2179446FF18BB40E3
:104620006546049F5C4227400599E3177A08049F7A
:104630001940C807374002433800059F0F932F40A9
:104640004B08390012184B4102990492C9070B43D9
:10465000029A05930A9B5208DB071A43069F0A9B9E
:10466000274007995B08009201937A08E317069F99
:104670001940C807374002433800079F4B082F40B6
:10468000390012184B410B990692C9070B43079347
:104690000B9A0C9B5208DB071A430C9B02925B0897
:1046A0000393089B0F9D1C406208089C099B3440A3
:1046B000200064461D40E9076B08099D0A432C4011
:1046C000210012184B410D990892C9070B43099319
:1046D0000E9B0D9ADB0754081C430E9B5D08029E3F
:1046E000039F169617970799029A0698179BFFF74C
:1046F000DBF8009E019F129613970599009A049883
:10470000139BFFF7E3F81A941B9508980999220068
:104710001B9BFFF7EDF8FF20FEF738FE00201DB0D1
:10472000F0BD3F221E003A409640013293400A9C61
:104730005B42DA1714400F920299029A013E194027
:104740003240E5074808610814000A9AF7173A4012
:10475000284315000B9A001969411A4094460090AD
:1047600001910F9A0C991140624654080B9AC807A0
:104770003240044310000C9A4D083A4011002418AE
:104780004D410D9A0F9913400E9A58080D9B1140F8
:10479000029403953340CC0720431C000E9B49082C
:1047A0003B401D0024184D4199E70528B6D1124918
:1047B000023802F0D1FE0122104B1A700332104B66
:1047C0009FE6C04627D402006DD402001C350020AD
:1047D000C8250020E820002098D40200CAD4020096
:1047E00004E100E008E100E00400FA0500ED00E06B
:1047F000EBD40200E425002014D50200D0250020CF
:1048000060200020002213B5224B234903201A60A8
:1048100002F0A2FE2149032002F09EFE02F01CFBE2
:104820006B46DC1D200002F02BFB02F049FBFFF77A
:1048300081F92378002B03D01949032002F08CFE64
:10484000184A0021184803F07BFE184A0021184836
:1048500003F076FE174A0021174803F071FEE022AC
:10486000002192001548FEF7D1FA80220021920023
:104870001348FEF7CBFA1820FFF710F800200122AA
:10488000104B1860104B1860104B1860104B1A60DA
:1048900016BDC0461835002008C602007FDB0200A6
:1048A000C4DB0200B93E0200ACD10200E53E0200CA
:1048B000A8D10200113F0200B0D102001C35002037
:1048C000E425002074200020CC200020FC200020C3
:1048D0006020002070B53449032002F03DFE334CC7
:1048E000142322003249042002F066FF6278237804
:1048F00012021A43A3782F4E1B041A43E378346044
:104900001B0613432C4A93424BD1E023E579A2794D
:104910002D029B0015439D4243D1627923791202F7
:104920001A432649032002F033FE32685379117985
:104930001B020B43224909680B805079137900024E
:104940001843FEF799FF33685A7A187A1202024325
:10495000987A197B00040243D87A5C7C00061043E5
:104960005A7B240212020A43997B09040A43D97B29
:10497000090611431A7C14439A7C12041443DA7C0E
:1049800012062243FEF75EFF0E480F4B8580036040
:104990000523836001F0FAFF03220C4B00201A600C
:1049A00070BD02220A4BF9E7BCD502001025002099
:1049B000EFCE0200CC2500205AA5A55AFDD5020055
:1049C000C8250020042500201C350020E8200020F8
:1049D00060200020F0B58DB00B9316AB1B880A92B7
:1049E0000493DB08DBB205930723049A0991134073
:1049F0000122110099400B000024013BDBB208901A
:104A0000069302940394079212AB1F5D08AB1E5DE0
:104A100004993500179BBD43621C1D55D200FF232E
:104A20008A4200DD069B1D4028D02A001B49042035
:104A3000009402F001FE3B0032001949042002F00C
:104A4000CDFD0026E700FFB2079B1D4212D0029861
:104A500022000130C3B2B8190293C3B203931149C3
:104A60003300042002F0BAFD039B029A0E49042091
:104A700002F0B4FD01366D08082EE5D10134059B26
:104A8000E4B2A342C0D20020029B834204D0039B25
:104A90001802029BC01880B20DB0F0BDF6DD020016
:104AA0004FDE0200A5DE0200E1DE0200F0B55B4948
:104AB000A1B0032002F050FD594803F0A5FD0122EA
:104AC000584B594904201A6002F046FD574E1023F6
:104AD00032005749042002F06FFE01F045FB08AD9B
:104AE0000024022800D072E010AF3800FEF714FE58
:104AF000E35D14AF38000793FEF774FEE35D079A99
:104B000013402B550134102CEED1FEF74DFE04005E
:104B10000CAF102200213800FEF778F9043510227E
:104B2000310068460494059707F0EAF80ECD08981E
:104B3000FFF750FF04000200E5B204203D4902F0F7
:104B400027FD68426841C0B200F088FD002D35D0D5
:104B50003949032002F000FD0822384B04371A605F
:104B60000C980ECFFEF7A2FDFEF730FEC30725D549
:104B70003349012D43D10723240AA4B25C43314BAE
:104B80001C19A279092A39D80C272F49032002F0D1
:104B9000FFFCA3792D4D7B43585902F057F8A379B8
:104BA0007B43EB18586802F057F8A3795F43ED197F
:104BB000A86802F057F80122254B1A60300000F077
:104BC000D7FD0C220020234B1A6021B0F0BD01F06C
:104BD000CBFA012800D187E718AF3800FEF7B4FD03
:104BE000E35D1CAF38000793FEF714FEE35D079A00
:104BF00013402B550134102CEED186E716490320C3
:104C000002F0AAFC8020000202F020F8802040027E
:104C100002F022F8C0208002CBE7C0460DD9020086
:104C2000782500208820002052D90200D1250020BC
:104C3000EFCE02006CD902009AD90200A020002019
:104C4000E8D902001C35002049DA020038DF0200F2
:104C5000FC2000207420002081DA02001FB501F042
:104C600083FA022846D16846FEF756FD6B460020BF
:104C70001B7883423CD16B465B78834238D16B46CC
:104C80009B78834234D16B46DB78834230D16B46CC
:104C90001B7983422CD16B465B79834228D16B46CA
:104CA0009B79834224D16B46DB79834220D16B46CA
:104CB0001B7A83421CD16B465B7A834218D16B46C8
:104CC0009B7A834214D16B46DB7A834210D16B46C8
:104CD0001B7B83420CD16B465B7B834208D16B46C6
:104CE0009B7B834204D16B46D87B43425841C0B280
:104CF00005B000BD01F038FA0128B4D06846FEF7CF
:104D000023FDB3E7F0B55B4987B00400032002F050
:104D100023FCFFF7A3FF002800D189E056490320B8
:104D200002F01AFC0322554B1A6003AD2800FEF76F
:104D3000E9FC6B896F88EE88019301F015FA012870
:104D400000D07EE0002F00D075E03C27192500F050
:104D50008BFC4B4B1A78002A03D000223C270F25EE
:104D60001A70FA26B60033006B43DA17D1035A0CD7
:104D70001143FA22D8030023520080185941FA2225
:104D80007E439200002306F091FEF217730CD103CC
:104D9000FA221943002301905200F0038018594170
:104DA000FA220023920006F081FE06002B00019AF1
:104DB0003449042002F012FC3B0032003249042046
:104DC00002F00CFC314F380003F01EFC304D28007F
:104DD00003F01AFCA17A637A09021943E37A2D4A97
:104DE0001B041943237B38001B060B43136003236A
:104DF0000199137103F0BCFBA17A637A090219438C
:104E0000E37A254A1B041943237B28001B060B4326
:104E1000136004233100137103F0AAFB002319006F
:104E20001E4A99540133102BFBD1002007B0F0BD6E
:104E30001B4B186079E71B49032002F08DFB2D887E
:104E400085E701F091F902280AD1019B002B00D1DE
:104E50007BE71549013002F07FFB2D89019F76E742
:104E6000002E00D171E71149032002F075FB3700D5
:104E7000AD886CE75ED70200A5D702006020002055
:104E8000D025002095D80200D0D802007825002037
:104E9000402500207025002038250020D125002045
:104EA00088200020E4D702001CD802005DD8020050
:104EB000F0B5554987B00400032002F04DFBFFF721
:104EC000CDFE002800D17AE05049032002F044FBD7
:104ED0004F4803AD03F098FB4E4803F095FB2800C4
:104EE000FEF710FC6B896F88EE88019301F03CF9A6
:104EF000012800D06CE0002F64D13C2719230093D7
:104F0000FA25009BAD006B43DE175A0CF1031143E9
:104F1000FA22D8030023520080185941FA227D4317
:104F20009200002306F0C2FDEA176B0CD103FA22AF
:104F30001943002306005200E80380185941FA2261
:104F40000023920006F0B2FD0500009B32003249BA
:104F5000042002F043FB3B002A003049042002F009
:104F60003DFBA17A637A09021943E37A2C4A1B04B8
:104F70001943237B26481B060B4313600323310090
:104F8000137103F0F5FAA17A637A09021943E37AFF
:104F9000244A1B041943237B1E481B060B43136042
:104FA00004232900137103F0E3FA002319001E4AB9
:104FB00099540133102BFBD1002007B0F0BD1B4BDF
:104FC000186085E71A49032002F0C6FA2B8896E795
:104FD00001F0CAF802280BD1019B002B00D18CE70D
:104FE0001449013002F0B8FA2B89019F009387E73A
:104FF000002E00D181E71049032002F0ADFAAB8802
:10500000370000937CE7C046E5DA0200A5D702002E
:10501000782500204025002095D80200D0D8020035
:105020006825002030250020D12500208820002080
:10503000E4D702001CD802005DD8020010B52A494E
:105040000400032002F088FAFFF708FE002847D08A
:105050002649032002F080FAA17A637A09021943F3
:10506000E37A234A1B041943237B22481B060B4384
:10507000C821136003230903137103F079FAA17A9D
:10508000637A09021943E37A1B4A1B041943237B01
:105090001A481B060B43F0211360042349031371C4
:1050A00003F066FAA17A637A09021943E37A144A93
:1050B0001B041943237B13481B060B4380211360F9
:1050C00005230902137103F053FA00231A000E4955
:1050D0005A540133102BFBD10C4B00201A6010BD29
:1050E0000B4B1860B8E7C046F0D30200A5D702000A
:1050F000602500207825002028250020402500205C
:1051000098250020A8250020D1250020E820002097
:1051100088200020F0B5404E87B03100032002F017
:105120001BFA3E49032002F017FA3100032002F077
:1051300013FAFEF779FC3A490200032002F028FA3C
:10514000962238495200032002F022FADC22364926
:105150009200032002F01CFAA0223449032002F03E
:1051600017FA334B03AD1B6832491A88032002F04B
:105170000FFA2800FEF7C6FAEB886C880193002C22
:1051800047D02F883A002C49032002F001FA220070
:105190002A49032002F0FCF9019B002B01D01C00DE
:1051A000AF883A002649032002F0F2F9220025498F
:1051B000032002F0EDF905222349032002F0E8F96B
:1051C00005222249032002F0E3F9214A2149032064
:1051D00002F0DEF9204A2149032002F0D9F9F82231
:1051E0001F499200032002F0D3F91E4A1E490320F2
:1051F00002F0CEF91D4A1E49032002F0C9F9310020
:10520000032002F0A9F93100032002F0A5F907B04C
:10521000F0BD3C241927B5E7B0DF0200F8DF02003B
:1052200041E002005DE0020099E00200CEE00200F1
:10523000C825002001E1020020E102004DE102004A
:105240007CE10200A9E10200D8E102001EE20200B6
:10525000C926000066E20200BAE8000096E20200F9
:10526000C1E20200C1070000EFE2020045170000A2
:105270001AE3020010B50320034902F06DF9FFF7AD
:1052800049FF002010BDC0461FD7020010B50749D6
:10529000032002F061F904201223054A054902F0B7
:1052A0008BFAFFF737FF002010BDC0469DD60200E5
:1052B0001C350020EFCE0200F0B53A4C010AA17077
:1052C000010CA279E170010E2171617912020A4389
:1052D000E17985B009040A43217A030009061143E4
:1052E0004A1DFF3203920A002578607003988242BB
:1052F00007D100952C4A2D49032002F09DF9012584
:105300003DE05078561A844667469078000238434C
:10531000D7783F04074310790006384383423FD1D2
:105320001078A8423CD18020A17A627A0902114308
:10533000E27A400212041143227B12060A4319004A
:10534000FEF7EEFCA279637912021A43E37920009A
:105350001B041A43237A1B0613439B199A79597924
:1053600012021143DA791B7A12040A431B06134313
:105370009847051E06D00E49042002F0EDF82800DB
:1053800005B0F0BDA279637912021A43E3791B04D8
:105390001A43237A1B0613439B195B7A2370EEE7AB
:1053A0000A32A3E75220002056D0020065D0020046
:1053B0003DD00200044A13005072020A9A72020C95
:1053C000000EDA72187370475220002010B50320C7
:1053D000024902F0C1F8002010BDC046EBE4020013
:1053E00010B50320024902F0B7F8002010BDC046F6
:1053F0002DE5020010B50320024902F0ADF80020AF
:1054000010BDC0462EE7020010B50320024902F08D
:10541000A3F8002010BDC04626E4020010B503200A
:10542000024902F099F8002010BDC0465EE4020077
:1054300010B50320024902F08FF8002010BDC046CD
:10544000FDE3020010B50849032002F085F8074982
:10545000074B0A004B72190A9172190C1B0E00209F
:10546000D172137310BDC046D4E302006420002043
:105470009C38002010B51549032002F06DF8144A3D
:10548000144C937A517A1B020B43D17A201D0904E4
:105490000B43117B07220906194306F031FCA28851
:1054A0000D49042002F074F8E2880C49042002F04F
:1054B0006FF822890A49042002F06AF8A27A0949A1
:1054C000042002F065F8002010BDC046E4E50200AB
:1054D000642000209C38002012E6020039E6020019
:1054E0005BE602007DE6020010B50C49032002F0E5
:1054F00033F80B4904208A7A4B7A12021A43CB7A8A
:105500001B041A430B7B07491B0613431A88064BDF
:105510005A8002F03DF8002010BDC046ABE6020004
:1055200064200020DCE602009C38002010B50C4905
:10553000032002F011F80B4904208A7A4B7A1202F8
:105540001A43CB7A1B041A430B7B07491B061343F0
:105550001A88064B1A8002F01BF8002010BDC046C6
:105560008AE4020064200020C0E402009C3800208D
:1055700010B50320034901F0EFFF01F037FC0020D4
:1055800010BDC04669E5020010B50C49032001F0CA
:10559000E3FFFEF78DFAFEF759FAFEF749FA01F03C
:1055A0002EFC01F035FC0320054901F0D5FF01F088
:1055B0002EFC0122034B00201A6010BD9CE5020066
:1055C000C8E502007420002030B5214985B00320D1
:1055D00001F0C2FF1F4D1022AB7A6C7A1B022343ED
:1055E000EC7A6846240423432C7B24061C432100C8
:1055F00006F086FB2B78042B1BD1E47B7B331C400D
:1056000000F0B2FD022817D180231C436B46DC73E7
:10561000039B00980199029AFDF78CFE0E4B1B78B4
:10562000002B06D100F0A0FD02280AD10420FDF7CE
:10563000ADFE002005B030BD00F096FD0128E5D19B
:10564000E2E700F091FD0128F0D00320EFE7C0462B
:1056500002E7020064200020E4270020014B1870BC
:105660007047C046E4270020014B18787047C046B9
:10567000E4270020F0B53A4C010AA170010CA27990
:10568000E170010E2171617912020A43E179030090
:1056900009040A43217A85B0090611430F000A0064
:1056A0008C372578607003970398824207D1009564
:1056B0002C4A2D49032001F0BFFF01253DE0507821
:1056C000561A84466746907800023843D7783F04DC
:1056D000074310790006384383423FD11078A8422F
:1056E0003CD18020A17A627A09021143E27A8002D9
:1056F00012041143227B12060A431900FEF710FB25
:10570000A279637912021A43E37920001B041A4339
:10571000237A1B0613439B199A7959791202114374
:10572000DA791B7A12040A431B0613439847051EB5
:1057300006D00E49042001F00FFF280005B0F0BD8F
:10574000A279637912021A43E3791B041A43237A7C
:105750001B0613439B195B7A2370EEE70A32A3E71B
:105760006420002041E3020065D002003DD0020029
:10577000044A13005072020A9A72020C000EDA7286
:105780001873704764200020054A937A507A1B02F0
:105790000343D07A00040343107B0006184370478C
:1057A0006420002010B50320024901F0D5FE00203E
:1057B00010BDC04695E7020010B50549032001F071
:1057C000CBFE0320034901F0C7FE002010BDC046F8
:1057D0004DE802008FE8020010B50320034901F0F4
:1057E000BBFE01F0ABFB002010BDC0460FE802007D
:1057F00010B50320034901F0AFFE01F08FFB00203C
:1058000010BDC046D0E70200F0B53A4C010AA170C5
:10581000010CA279E170010E2171617912020A4333
:10582000E179030009040A43217A85B0090611438E
:105830000F000A002837257860700397039882428A
:1058400007D100952C4A2D49032001F0F5FE0125D2
:105850003DE05078561A84466746907800023843F7
:10586000D7783F04074310790006384383423FD17D
:105870001078A8423CD1C020A17A627A0902114373
:10588000E27A800212041143227B12060A431900B5
:10589000FEF746FAA279637912021A43E3792000EF
:1058A0001B041A43237A1B0613439B199A795979CF
:1058B00012021143DA791B7A12040A431B061343BE
:1058C0009847051E06D00E49042001F045FE280029
:1058D00005B0F0BDA279637912021A43E3791B0483
:1058E0001A43237A1B0613439B195B7A2370EEE756
:1058F0000A32A3E7782000205FE7020065D00200AB
:105900003DD00200044A13005072020A9A72020C3F
:10591000000EDA721873704778200020054A937AD7
:10592000507A1B020343D07A00040343107B000625
:1059300018437047782000200368002B08D00749DF
:105940000A004B72190A9172190C1B0ED172137353
:105950000279034B1A600B230371704790200020DB
:10596000A02000200368002B08D007490A004B72D2
:10597000190A9172190C1B0ED17213730279034B21
:105980001A600B230371704790200020A020002094
:105990000368002B08D007490A004B72190A91725C
:1059A000190C1B0ED17213730279034B1A600B236F
:1059B0000371704790200020A02000200368002B76
:1059C00008D007490A004B72190A9172190C1B0E74
:1059D000D17213730279034B1A600B230371704762
:1059E00090200020A020002010B50649032001F0DF
:1059F000B3FD0122044B032004491A7001F0ACFDF1
:105A0000002010BD9CEA0200E6270020DEEA02002A
:105A100010B50649032001F09FFD0222044B03202C
:105A200004491A7001F098FD002010BD19EA020027
:105A3000E627002061EA020010B50549032001F0C5
:105A40008BFD0320034901F087FD002010BDC046F7
:105A5000C6EC020014ED020010B50549032001F068
:105A60007BFD0320034901F077FD002010BDC046F7
:105A7000DCE9020014ED020010B500240749032000
:105A800001F06AFD064802F0BFFD064B06490320FF
:105A90001C7001F061FD200010BDC0465BEE0200ED
:105AA000F0270020E627002014ED020070B5040066
:105AB0001E49032001F050FD1D4802F0A5FD1D4DBB
:105AC000280002F0A1FDA17A637A09021943E37A62
:105AD000194A1B041943237B28001B060B43A021F2
:105AE000136006230903137102F042FD134D2800D1
:105AF00002F08AFDA17A637A09021943E37A104A17
:105B00001B041943237B28001B060B43F021136061
:105B100007230903137102F02BFD0122094B0A49E7
:105B200003201A7001F018FD002070BD82EC020005
:105B3000482800208028002068280020F027002026
:105B4000E8270020E6270020DEEA02000122064BBB
:105B500010B5064906481A7002F036FE002801D03A
:105B600002F0E0F910BDC046E22800200CEF020070
:105B7000A420002070B515490500032001F0ECFCBD
:105B8000134C14492288032001F002FD2388012BC5
:105B900015D9A97A6B7A09021943EB7A0E4A1B04CC
:105BA00019432B7B0D481B060B43802113600423F4
:105BB0004902137102F0DCFC0020208070BD08480F
:105BC00002F022FD0322074B1A60F5E746ED0200C2
:105BD000B828002086ED0200402800204828002038
:105BE00018280020A020002010B5041E05D00200B7
:105BF0000849042001F0CCFC10BD0749042001F045
:105C0000ABFC064B06491A78042001F0C1FC054B99
:105C10001C70F1E79FEE0200D2EE0200A0280020E7
:105C2000F1EE0200E2280020094B0A491A68FA2323
:105C30009B00C046C046C046C046C046C046C0469F
:105C4000C0468A4200D0C046013BF2D17047C046F0
:105C5000342100200024F400F0B541498FB0032026
:105C600001F07AFC002102AC3E4B1022200019709A
:105C7000FDF7CCF805230293013B6360CC235B0462
:105C8000A3600323384D23730822384B21002800DA
:105C900002F07EFD002801D002F044F90D23344AC1
:105CA0001370FFF753FFFFF7BFFF324B1B78002B3A
:105CB00046D1314A12784A2A4CD122002F49C1C913
:105CC000C1C2C1C9C1C2C1C9C1C2C1C9C1C2062202
:105CD0002100280002F0A8FD2A23254A1370FFF7AF
:105CE00035FFFFF7A1FF234B1B78002B2DD1224A54
:105CF0006C46117801222248114341701F486946C1
:105D00003030C0C8C0C4280002F08EFD1D4A0021FA
:105D10001D4802F015FC1D4A00211D4802F010FC30
:105D20001C4A00211C4802F00BFC1C4A00211C48A4
:105D300002F006FC012200201A4B1A600FB0F0BDE1
:105D40001949032001F008FCADE71749032001F0D1
:105D500003FCC6E71549032001F0FEFBD6E7C04669
:105D6000BFED0200E6270020A4200020BC28002070
:105D7000E5270020E2280020A0280020E0E802001B
:105D80008C20002039590200D4E902006559020034
:105D9000D8E9020091590200D0E90200BD59020081
:105DA000CCE90200A0200020FFED020012EE02006C
:105DB00070B52F490400032001F0CEFB0C232D4EBB
:105DC0003370FFF7C3FEFFF72FFF2B4D2B78002B0F
:105DD00044D12A4B1B785B073AD516233370FFF763
:105DE000B5FEFFF721FF2B78002B3CD1244D280076
:105DF00002F00AFCA17A637A09021943E37A214A84
:105E00001B041943237B28001B060B4380211360CE
:105E100004234902137102F0ABFB1B4D280002F072
:105E2000F3FBA17A637A09021943E37A174A1B0448
:105E30001943237B28001B060B43A0211360052375
:105E40008902137102F094FB114A13880133138005
:105E50001049032001F080FB002070BD0E49032093
:105E600001F07AFBAFE70C49032001F075FBB8E7BE
:105E7000A8EB0200E5270020E2280020A02800204F
:105E8000482800203828002018280020102800204A
:105E9000B8280020F7EB0200FFED020070B51649AC
:105EA000032001F059FB0C23144D2B70FFF74EFE1D
:105EB000FFF7BAFE124C2378002B12D1114B1B783E
:105EC0005B070CD516232B70FFF740FEFFF7ACFEE7
:105ED0002378002B0AD10C4A138801331380002049
:105EE00070BD0A49032001F037FBE1E707490320B1
:105EF00001F032FBEAE7C04631EC0200E527002062
:105F0000E2280020A0280020B8280020FFED020091
:105F100070B520490500032001F01EFB0C231E4E26
:105F20003370FFF713FEFFF77FFE1C4C2378002B26
:105F300025D11B4B1B785B071FD516233370FFF74A
:105F400005FEFFF771FE2378002B1DD1154C2000B4
:105F500002F05AFBA97A6B7A09021943EB7A124ACA
:105F60001B0419432B7B20001B060B43A02113604D
:105F700006230903137102F0FBFA002070BD0B49E0
:105F8000032001F0E9FACEE70849032001F0E4FA22
:105F9000D7E7C0465FEB0200E5270020E22800209B
:105FA000A02800208028002070280020FFED02009B
:105FB00070B520490500032001F0CEFA0C231E4ED7
:105FC0003370FFF7C3FDFFF72FFE1C4C2378002B27
:105FD00025D11B4B1B785B071FD516233370FFF7AA
:105FE000B5FDFFF721FE2378002B1DD1154C2000B5
:105FF00002F00AFBA97A6B7A09021943EB7A124A7A
:106000001B0419432B7B20001B060B43A0211360AC
:1060100006230903137102F0ABFA002070BD0B498F
:10602000032001F099FACEE70849032001F094FA21
:10603000D7E7C04610EB0200E5270020E228002049
:10604000A02800208028002078280020FFED0200F2
:10605000F0B53A4C010AA170010CA279E170010E71
:106060002171617912020A43E179030009040A43AC
:10607000217A85B0090611430F000A00823725787E
:10608000607003970398824207D100952C4A2D49EE
:10609000032001F0D1FA01253DE05078561A8446DC
:1060A0006746907800023843D7783F040743107959
:1060B0000006384383423FD11078A8423CD180206B
:1060C000A17A627A09021143E27AC00212041143F2
:1060D000227B12060A431900FDF722FEA27963799A
:1060E00012021A43E37920001B041A43237A1B0689
:1060F00013439B199A79597912021143DA791B7A61
:1061000012040A431B0613439847051E06D00E4986
:10611000042001F021FA280005B0F0BDA2796379CE
:1061200012021A43E3791B041A43237A1B06134312
:106130009B195B7A2370EEE70A32A3E790200020D8
:1061400038E9020065D002003DD00200054A937A8A
:10615000507A1B020343D07A00040343107B0006ED
:106160001843704790200020014B18787047C046B4
:10617000E62700201722F0B5194B1A4C87B01A7089
:10618000587002A923000A00383361CB61C2164D52
:106190001B68280013600023022202F045FB2A221C
:1061A000124B1A70FFF7D2FCFFF73EFD104B1B7825
:1061B000002B10D10F4A1048117801221143417071
:1061C00020006C464830C0C8C0C46946280002F0B0
:1061D0002BFB07B0F0BD0949032001F0BDF9E3E74F
:1061E000E0280020E0E80200A4200020E5270020AD
:1061F000E2280020A02800208E200020FFED0200D1
:106200000368002B08D007490A004B72190A9172E3
:10621000190C1B0ED17213730279034B1A600623FB
:1062200003717047BC200020CC20002010B5084925
:10623000032001F091F90749074B0A004B72190A34
:106240009172190C1B0E0020D172137310BDC04641
:10625000B9EF0200BC200020E428002010B50400A3
:106260000E49032001F078F9A17A637A09021943F3
:10627000E37A0B4A1B041943237B0A481B060B4392
:10628000F021136002234903137102F071F9172002
:1062900003F0DAFB03F086FA002010BD21F00200C3
:1062A000F0280020F828002010B504000D49032034
:1062B00001F052F9A17A637A09021943E37A0A4A92
:1062C0001B041943237B09481B060B43F021136071
:1062D00002234903137102F04BF903F063FA002023
:1062E00010BDC04688EF0200E8280020F8280020F2
:1062F00007B51149032001F02FF900210F4A10487A
:1063000002F01EF9032301A80E49037003F01CFAE2
:10631000002801D001F006FE0B4803F033FA0121FA
:106320000A4803F045FA002801D001F0FBFD0122E4
:10633000074B00201A600EBDEDEF02000162020063
:1063400084EF020055630200D0200020E4280020E2
:10635000CC20002070B504780500002C10D12B89CA
:106360009C420ED3172003F077FB0121094803F06C
:106370001FFA002801D001F0D5FD0322064B1A6058
:1063800070BD6A6863009A5E0449032001F000F959
:106390000134E4E7E4280020CC2000202CEF0200A8
:1063A000F0B53A4C010AA170010CA279E170010E1E
:1063B0002171617912020A43E179030009040A4359
:1063C000217A85B0090611430F000A002837257885
:1063D000607003970398824207D100952C4A2D499B
:1063E000032001F029F901253DE05078561A844632
:1063F0006746907800023843D7783F040743107906
:106400000006384383423FD11078A8423CD1C020D7
:10641000A17A627A09021143E27AC002120411439E
:10642000227B12060A431900FDF77AFCA2796379F0
:1064300012021A43E37920001B041A43237A1B0635
:1064400013439B199A79597912021143DA791B7A0D
:1064500012040A431B0613439847051E06D00E4933
:10646000042001F079F8280005B0F0BDA279637925
:1064700012021A43E3791B041A43237A1B061343BF
:106480009B195B7A2370EEE70A32A3E7BC20002059
:1064900051EF020065D002003DD00200054A937A18
:1064A000507A1B020343D07A00040343107B00069A
:1064B00018437047BC20002028DF70470368002B7A
:1064C00008D007490A004B72190A9172190C1B0E69
:1064D000D17213730279034B1A600E230371704754
:1064E000D8200020E820002010B50320024901F048
:1064F00033F8002010BDC04672F1020010B5032031
:10650000024901F029F8002010BDC0465CF20200EB
:1065100010B50320024901F01FF8002010BDC0464D
:106520008CF2020010B50320024901F015F800209A
:1065300010BDC046CFF1020010B50320024901F0A2
:106540000BF8002010BDC046FEF1020010B503207C
:10655000024901F001F8002010BDC046E4F002003D
:1065600010B50949032000F0F7FF084B0024186814
:10657000FFF7A2FF0C23064A06490748146013716F
:1065800001F0F6FF200010BD46F102004C2900206A
:106590001C290020CD0C000024290020F7B5274D30
:1065A000274A2B681268934204D30922254B002006
:1065B0001A60FEBD827A447A12022243C47A013301
:1065C00024042243047B9B0024061443A288181F42
:1065D000216893422ED9032309181A4001A805F017
:1065E0008FFB0121184A194B99501100053AFF3AC7
:1065F000170098580028FCD01548019E02681660C4
:10660000DE59002EFCD000265E508026F6009959F7
:106610000029FCD004322B6802600E4A01332B6043
:1066200013005472220A9A72220C240EDA721C731E
:106630000822BBE709180422D0E7C04644290020FD
:1066400048290020E82000200405000000E0014067
:1066500018290020D8200020F0B52A4A2A4D1268B7
:106660002B6885B0934207D30522284B1A6000237C
:106670002B60002005B0F0BD827A447A12022243DA
:10668000C47A234924042243047B012024061443B2
:10669000204A505001910539FF390F005658002EFD
:1066A000FCD01D4E316808680390D0590028FCD0FA
:1066B0000027019817508027FF00D0590028FCD0F0
:1066C000043131600133A2889B00191F2068934276
:1066D00015D9032340181A4003A905F011FB2B68B4
:1066E0000E4A01332B6013005472220A9A72220C54
:1066F000DA720422240E1C73044B1A60B9E74018A6
:106700000422E9E74829002044290020E82000204D
:106710000405000000E0014018290020D8200020D6
:1067200010B5837A447A1B022343C47A15492404A2
:106730002343047B032024061C43A28800F028FF87
:10674000114A13005472220A9A72220CDA72220E33
:106750001A7308220D4B1A600D4B1A680D4B1B68FB
:106760005343A26892009B180B4A1360A1880B4AFE
:106770008B08890704D100201360094B186010BDF5
:106780000133F8E72CF20200D8200020E820002096
:10679000502900204C2900201829002048290020D9
:1067A0004429002010B5837A447A1B022343C47A1B
:1067B000154924042343047B032024061C43A28898
:1067C00000F0E6FEA188114A8B0889071AD11360F0
:1067D0000F4A002013005472220A9A72220CDA72B5
:1067E000220E1A7304220B4B1A600B4B1A680B4BC8
:1067F0001B685343A26892009B18094A1360094B17
:10680000186010BD0133E2E7A1F102004829002021
:10681000D8200020E8200020502900204C2900200A
:10682000182900204429002010B50D49032000F04C
:1068300093FE80235B051A690A490B480A605B696D
:106840000A49013B0B605343094A00211360094A7E
:1068500001F076FE0122084B00201A6010BDC046F0
:1068600014F1020050290020E0F002004C29002021
:1068700018290020BD640200E820002010B5032084
:10688000024900F069FE002010BDC046E4F002009D
:10689000F0B53A4C010AA170010CA279E170010E29
:1068A0002171617912020A43E179030009040A4364
:1068B000217A85B0090611430F000A008237257836
:1068C000607003970398824207D100952C4A2D49A6
:1068D000032000F0B1FE01253DE05078561A8446B1
:1068E0006746907800023843D7783F040743107911
:1068F0000006384383423FD11078A8423CD1A02003
:10690000A17A627A09021143E27AC00212041143A9
:10691000227B12060A431900FDF702FAA279637975
:1069200012021A43E37920001B041A43237A1B0640
:1069300013439B199A79597912021143DA791B7A18
:1069400012040A431B0613439847051E06D00E493E
:10695000042000F001FE280005B0F0BDA2796379A3
:1069600012021A43E3791B041A43237A1B061343CA
:106970009B195B7A2370EEE70A32A3E7D820002048
:1069800053F0020065D002003DD00200044A13001B
:106990005072020A9A72020C000EDA721873704773
:1069A000D8200020054A937A507A1B020343D07AFC
:1069B00000040343107B000618437047D8200020D2
:1069C0000368002B08D007490A004B72190A91721C
:1069D000190C1B0ED17213730279034B1A60062334
:1069E00003717047EC200020FC2000200368002B7E
:1069F00008D007490A004B72190A9172190C1B0E34
:106A0000D17213730279034B1A6006230371704726
:106A1000EC200020FC2000200368002B08D0074950
:106A20000A004B72190A9172190C1B0ED172137362
:106A30000279034B1A60062303717047EC20002093
:106A4000FC20002010B50549032000F085FD03203F
:106A5000034900F081FD002010BDC0461CF4020077
:106A60004CF4020010B5817A437A09021943C37AC3
:106A7000134A1B041943037B04001B060B431360DA
:106A8000022313710F4B1048196801F071FDA17AB0
:106A9000637A09021943E37A0C4A1B041943237BE6
:106AA0000B481B060B43136003231371094B196832
:106AB00001F05EFD182002F0C7FF002010BDC046A7
:106AC000B429002008210020BC2900205C290020D6
:106AD000642900200021002010B50749032000F0A0
:106AE0003BFD064801F090FD054801F08DFD1820A2
:106AF00002F0B2FF002010BDF2F30200BC2900201A
:106B00006429002010B5182002F0A6FF002010BD57
:106B1000F8B52F490400032000F01EFD2D4F212160
:106B2000386804F04DFE2C490200042000F030FDCE
:106B30002A4E2121306804F043FE29490200042036
:106B400000F026FD274D2121286804F039FE264952
:106B50000200042000F01CFDA17A637A09021943A7
:106B6000E37A224A1B041943237B21481B060B436B
:106B7000136002233968137101F0FAFCA17A637A79
:106B800009021943E37A1B4A1B041943237B1A4861
:106B90001B060B43136003233168137101F0E8FCFB
:106BA000A17A637A09021943E37A144A1B04194350
:106BB000237B13481B060B431360042329681371BE
:106BC00001F0D6FC182002F03FFF0020F8BDC046BF
:106BD00042F30200082100206DF302000021002092
:106BE00099F3020004210020C5F30200AC29002023
:106BF000BC29002054290020642900208429002079
:106C00008C29002010B50A49032000F0A5FC094A90
:106C10000021094801F094FC084A0021084801F0CD
:106C20008FFC084A0021084801F08AFC002010BDB2
:106C300018F30200C169020014F30200ED690200BA
:106C40000CF30200196A020010F30200014B1860F5
:106C50007047C04608210020014B18607047C046AD
:106C600000210020014B18607047C046042100201D
:106C7000F0B53A4C010AA170010CA279E170010E45
:106C80002171617912020A43E179030009040A4380
:106C9000217A85B0090611430F000A00463725788E
:106CA000607003970398824207D100952C4A2D49C2
:106CB000032000F0C1FC01253DE05078561A8446BF
:106CC0006746907800023843D7783F04074310792D
:106CD0000006384383423FD11078A8423CD1E020DF
:106CE000A17A627A09021143E27AC00212041143C6
:106CF000227B12060A431900FDF712F8A279637984
:106D000012021A43E37920001B041A43237A1B065C
:106D100013439B199A79597912021143DA791B7A34
:106D200012040A431B0613439847051E06D00E495A
:106D3000042000F011FC280005B0F0BDA2796379B1
:106D400012021A43E3791B041A43237A1B061343E6
:106D50009B195B7A2370EEE70A32A3E7EC20002050
:106D6000BBF2020065D002003DD002003CDF70475C
:106D700010B5002003F0DCFB002801D001F0D2F8B0
:106D800003F08EFC002801D001F0CCF8FFF7EEFFF5
:106D9000002801D001F0C6F810BD76DF70478ADF09
:106DA00070478BDF704710B501F0BCF810BD0000D4
:106DB000022210B5034B044903201A6000F0CCFBFB
:106DC00010BDC046A02000208DF4020010B503784D
:106DD000002B08D1044B3B211888FFF7DEFF002869
:106DE00001D001F09FF810BDB438002010B5032089
:106DF00004F010F8002801D001F094F810BD10B58F
:106E0000FCF7A2F8002801D001F08CF810BD704703
:106E100010B588B001AC1C2200212000FBF7F6FF62
:106E2000A02292026260F02200231203A2600322D9
:106E300001932374064B20006361064B2273A36108
:106E400004F0CCF9002801D001F06CF808B010BDB6
:106E5000CD6D0200A76D0200002310B5064A052182
:106E6000180001F01BFB002801D001F05BF803497A
:106E7000032000F071FB10BDDC290020A1F402000A
:106E800037B504000C4A0D49032003F05FFB0028CE
:106E900001D001F047F86B46DD1D2900002003F00A
:106EA00055FC002801D001F03DF82B78023B5A42F6
:106EB0005341237037BDC046E93C0200CD0C0000B1
:106EC00007B5002103226846FBF7A0FF694617209B
:106ED00002F064FD002801D001F024F86946182072
:106EE00002F05CFD002801D001F01CF804220949E1
:106EF00001A804F005FF084A01A9022002F0B6FD2E
:106F0000002801D001F00EF80121022002F014FE49
:106F100007BDC04689F40200B16D020010B5FFF74D
:106F200040FF0548FFF73BFF082302009A4301D0CA
:106F300000F0F8FF10BDC0460C21002010B5FFF78F
:106F400030FF10BDA2DF7047F0B599B007931EABBC
:106F50001C781FAB1B8811AF05900691049200218D
:106F60001C223800039309AEFBF750FF14220021C6
:106F70000CA8FBF74BFF0AAD032200213000FBF702
:106F800045FF032200212800FBF740FF01210223D7
:106F90000A00B3700E331A4323000B408B4072700B
:106FA000327062080A40D200A00813430840E20889
:106FB00080000A402409120103430C40134364017A
:106FC0001C4330233C701C4200D07E616B461B7F0B
:106FD0000BA98B706B461B8A01220B8010231800B3
:106FE0000424AB781043053293432343AB706B46C4
:106FF0009B890CAA93816B469B8928701381209BE7
:1070000068700C91136111A9219B06985560FFF7D8
:1070100099FF0500039B049A0193059B0449009383
:107020000300200000F03EFB280019B0F0BDC04670
:10703000C3F402001FB501236A461370034B10729C
:107040000191684606CB904705B000BD542A002048
:10705000F8B51C230679424C7343E318DB7E050028
:1070600094460820002B7AD10868431C0CD00123D9
:10707000A1278340A020FF00C005C35103270B6850
:10708000C133FF339B001F504B685A1C06D0A02011
:107090000027C133FF339B00C0051F5028688F694C
:1070A000304BC750087D4B7D2F6803432E483B5023
:1070B0002B682E484A680F681A502D481F500B7DC8
:1070C000012B21D18B685A1C06D0A0200027C13388
:1070D000FF339B00C0051F50C868431C0CD0012320
:1070E000A1278340A020FF00C005C3510327CB6820
:1070F000C133FF339B001F50A1202B68CA688F68E3
:10710000C0001A5008301F501C2362467343E01819
:1071100042600A69E2506346002B11D000222B68BE
:10712000097FFC331A622B68FC339A64C1232868F8
:10713000104A9B00C2502B68180B40B202F09CFB17
:10714000A02304212A68DB00D1501C230020012247
:107150007343E318D87518769875DA769876F8BD83
:10716000542A0020240500006C05000014050000CE
:107170000C05000080000200F0B5037985B0019392
:10718000A02300220168DB00CA50019B1C325A4335
:107190002D4B9B185B68002B0CD0C2232B4A016837
:1071A0009B00CA5001220368DB03DB0E9A401300E8
:1071B000274AD367A126274B01689C46264FF60035
:1071C000CA59CB58012402938B5965460393A223D5
:1071D0006442DB00CB584C51CC510168A220C00066
:1071E0008C510C50511C06D0A0210220C132FF321C
:1071F0009200C9055050029A013207D0A021022006
:10720000029AC905C132FF32920050505A1C06D072
:10721000A0220221C133FF339B00D2059950039B6A
:10722000013307D0A0220221039BD205C133FF33D3
:107230009B0099501C22019B5A43034B9B18002230
:10724000DA765A6005B0F0BD542A002084020200AC
:1072500004E100E0140500000C0500001C23F7B554
:10726000067917005E43334A9619B57D1122002D29
:107270005DD1B1600121B582B77502680679FC3233
:10728000156202687343916001680A00FC3215625E
:10729000284AD3189A8A9F68BA5C944664469A8AA8
:1072A000013292B29A82244A8C50596801922A0083
:1072B00000293CD19A7D00928022520019009D8ABB
:1072C000009C1431A5421DD2016802E09D8A9542BE
:1072D00004D00D00FC352D6A002DF7D01D009C8ACE
:1072E00014359442EAD00A000024FC3214622A8841
:1072F000BA5C944664462A88013292B22A80019A86
:107300008C50D9E7802309885B000F22994208D06E
:1073100003681900FC310A6A002AFCD00122DA60F5
:1073200000221C235E43034B9C190023A37510000D
:10733000FEBDC046542A00201C0500001C23027913
:107340005A43034B9B18987D431E9841C0B2704727
:10735000542A0020C12330B54D4C9B00E25885B023
:107360004C4D92054CD5AA6A002A49D000238122AF
:10737000AB62C22392009B00E250474B9A7E002AE8
:1073800001D101326260022269460A709021C9006F
:1073900062586846625069460392DA7D0A72DA687A
:1073A00001920022DA751A7606CB90472B6A002BE1
:1073B0000FD00022384B988A997D2A6288425BD28E
:1073C0009A8A9968895C9A8A013292B29A82334B7E
:1073D000E150AB6C002B11D00023AB642E4B9A7E96
:1073E000002A01D001222260DA7D002A06D0002284
:1073F000587EDA75C0B2D968FFF71CFE05B030BD03
:10740000E3585B07D2D5EB68002BCFD0A322224BE9
:10741000D200D97D002914D1E960A2585A7ED97DC5
:107420009142C3D11A7E002A16D0DA751A69D9683A
:10743000DA600022587E1A76C0B25A76FFF7FAFD5B
:10744000B4E70021E960597ED868A25842545A7EB8
:107450000132D2B25A76E1E79A7E002A01D1013296
:1074600062608121C22289009200A1500022587ED0
:10747000DA75C0B2D968E1E70029AAD0684601727E
:107480009968027001919A7506CB9047A1E7C046B2
:1074900000200040FC200040542A00201C05000071
:1074A000F7B56B46DD1D00230F00060028002B708A
:1074B00001F0EEF9114AB41C13683B6097685168FB
:1074C000136879180131581CC91AA14211D200243D
:1074D000A14209D029260A493B40023389029B0078
:1074E0003143D31810605960287801F0EFF920007B
:1074F000FEBD361816600124F6E7C046702A00204B
:1075000003F5020010B5012000F002FC10BD0000E0
:10751000FF22054B9A6000221A605A608222D20034
:107520009850024A99507047702A002014040000B5
:1075300070B50600002000F0EBFB041E09D100F03E
:1075400023FC050000F024FC320001002800FFF7B6
:10755000DFFF200070BD0000F7B50C4C06000F00E7
:10756000002001A9A568FFF79BFF00280CD0072188
:10757000019B0E402B40F60006390233BF02314317
:107580009B003943E3185960F7BDC046702A0020BC
:10759000F0B5114E85B004000F00012003A901923F
:1075A000B568FFF77DFF002814D00723039A1C401D
:1075B000E4003A331C4313002B4002330132BF0274
:1075C0009B001540F318274302355F60AD00019B17
:1075D0007619736005B0F0BD702A0020F0B5154E25
:1075E00085B005000F00022003A900920193B46842
:1075F000FFF756FF00281BD00723039A1D40ED001C
:107600007A331D43130023400233BF029B00F3185B
:107610002F435F60531C2340023302329B000099CA
:107620001440F31802345960A400019B36197360AA
:1076300005B0F0BD702A0020F0B5194E85B00500E8
:107640000F00032003A900920193B468FFF728FFFD
:10765000002822D00723039A1D40ED00BA331D43B2
:10766000130023400233BF029B00F3182F435F60D7
:10767000531C2340023300999B00F3185960931C5C
:107680002340023303329B0001991440F318023463
:107690005960A4000A9B3619736005B0F0BDC0465E
:1076A000702A0020F0B51D4E85B005000F000420A3
:1076B00003A900920193B468FFF7F2FE00282AD0D4
:1076C00007231D400223039AFF33ED001D431300DF
:1076D00023400233BF029B00F3182F435F60531C0B
:1076E0002340023300999B00F3185960931C2340F8
:1076F000023301999B00F3185960D31C23400233D5
:1077000004329B000A991440F31802345960A40013
:107710000B9B3619736005B0F0BDC046702A00207F
:10772000F0B5244D85B006000F00062003A9009295
:107730000193AC68FFF7B4FE002838D007231E4041
:107740008223F600FF331E43039BBF021A00224030
:1077500002329200AA18374357605A1C2240023264
:1077600000999200AA1851609A1C22400232019995
:107770009200AA185160DA1C224002320A99920043
:10778000AA1851601A1D224002320B999200AA18C1
:1077900051605A1D063322401C40023202349200CE
:1077A0000C99A4000D9BAA182D1951606B6005B0AF
:1077B000F0BDC046702A0020F0B585B00090D81CFE
:1077C0001E4C80100191013003A916001D00A7680E
:1077D000FFF766FE002825D007230221009A1A40F1
:1077E000D3001943039BAA0511431A003A40981C81
:1077F000023201333B409200A218023351609B00D9
:10780000019AE3185A60A368039038405F1C3F1A3E
:1078100003308000BF002018AF4205D32A0031009A
:1078200004F06EFA05B0F0BD3A00310004F068FAD9
:107830002000EA1B92B2F1190C30F1E7702A002007
:10784000034B58681B68C01A43425841C0B2704786
:10785000702A0020F0B58FB0FFF7F2FF0300002080
:10786000834200D07FE00322544E7768B368791CCE
:1078700004933B4002339B00F3185D682B001340D8
:107880003ED0022B00D070E04B1C0593049B059A60
:1078900019400231890071184B680693AB0D0793AC
:1078A0002B049B0D9C46049B934301339B00AA0D24
:1078B0009A4232D9002B00D17AE00499059ADCB2C1
:1078C000AB0D0A40191B330003329200B218C9B243
:1078D0000C3302930092394B394A039101949C581E
:1078E00000216346A806069A400FA047AB0D9842B8
:1078F00026D1C11C059B8908CC18304B5C602CE05C
:10790000AF0D2D04AD0D7F19049B7F183B40023352
:107910009B00F318791C5D68B0E70021AB0D019363
:10792000049A059BA806134003339B00F3180093A9
:10793000234B03910291F458400F6346069AD4E713
:10794000204B80051D40049B000C3B401F001B4B3F
:107950000237BF000543DF197D60FFF771FF0300A9
:1079600001205840C0B20FB0F0BD0024AB0AAF05F3
:1079700005933F0F08AB0819BC420CD3CC198221E8
:10798000A806C90000977558400F059A0021A8471E
:107990000028B2D1E1E7A2009446049A01341040D5
:1079A0000230064A80001018624640689850E2E7AC
:1079B0006A46147F320019000C328AE7702A0020D0
:1079C000140400003F00FFFF0378012B01D1014A9E
:1079D000137070478A2E002070B506000D00140049
:1079E000002817D004220C49280004F089F98021CE
:1079F0002368281D043323603368084A490004F0D3
:107A000089F90023984203DB2368181820600123BA
:107A1000180070BD2060FAE734F5020039F5020065
:107A2000F0B51C000023584FCBB03800079116006A
:107A30000993FFF783FC051E02D000204BB0F0BD78
:107A4000099A0AAB9918079809AAFFF7C5FF0028F9
:107A5000F3D0509B062B16D8180003F09DFE04337C
:107A60003F4C5B6C7F00300004F0A8F905000998DA
:107A70002B18FF2B05D80AAB18182A00310004F088
:107A80003FF9002DD9DB099B5D1980232C1D099539
:107A90005B009C42D1D80AAB581904223B4904F040
:107AA0002FF93B4D22000AA92800099404F028F977
:107AB000E2B229003800FFF7D1FB030058425841D9
:107AC000C0B2BBE7802109980AAB4900091A32000D
:107AD0001818236804F01EF90500D2E780210998E0
:107AE0000AAB4900091A181863683200009323682A
:107AF00004F010F9F0E7802109980AAB4900091A4F
:107B00001818A3683200019363680093236804F097
:107B100001F9E1E7802109980AAB4900091A181810
:107B2000E36832000293A3680193636800932368BB
:107B300004F0F0F8D0E7802109980AAB4900091A4F
:107B40001818236932000393E3680293A368019332
:107B500063680093236804F0DDF8BDE7802109988D
:107B60000AAB4900091A18186369320004932369A3
:107B70000393E3680293A368019363680093236807
:107B800004F0C8F8A8E7C0461C21002034F5020024
:107B90008B2E0020F0B51C000023C9B007930B000A
:107BA00016005A1E93410A225B421A4055480D00A6
:107BB0000292FFF7C3FB002875D1002C19D1079A58
:107BC00008AB9918280007AAFFF706FF00286AD01B
:107BD000300004F0F3F80500C22800D9C225079A46
:107BE00008AB981831002A0004F08AF8079B5D1949
:107BF0000795519A202794464F9B63440493079B13
:107C0000029908AAD21831335B1808A9CB1801933E
:107C1000029BD3180393039B9A4247D11D00019BFB
:107C200001330093019B11330593049BA34240D879
:107C3000009B2F70013B6F70AF701F70009B03356E
:107C400001330093009A059B9342EED10D23019AD4
:107C500007981374033B5374039B433030331F70F6
:107C6000029B0422C01808AB07902749181804F09B
:107C700047F8079B254E1D1D2A0008A930000795CF
:107C800004F03EF8EAB21F4D31002800FFF7E6FA93
:107C9000002808D12800FFF751FB002803D1049BDE
:107CA00007909C42ABD3200049B0F0BD1770013261
:107CB000B1E74F9BA34220D94E9B1E5D3111CAB242
:107CC00013003733092900DC073B2B700F233340A7
:107CD0001A003732092B01D830331A006A70AF709E
:107CE00003F0EEFF682280194378934300D12E26DB
:107CF000009B0134013B1E70A0E74F9B509AE31A92
:107D0000D65CDBE71C21002034F502008B2E00201E
:107D1000F0B5184E89B033780500002B04D0164B0F
:107D200000201B78AB4222D06A46144B6C4683CBB2
:107D300083C283CB83C203CB03C20F23104F0093B4
:107D400001330193083B0393380002330293FFF79A
:107D500013FA0022954200D10A4A21003800FFF7A9
:107D600077F9002803D101233370034B1D7009B04C
:107D7000F0BDC046892E0020882E002014F5020098
:107D80001C210020C979020000487047217A0200B6
:107D900000487047957B020070B500240125174B01
:107DA0001B78A34200D870BD2900154AE30016686D
:107DB000144AF6183078136881400B421AD08B436E
:107DC000136001F0FBFE290032780F4B91401B68D5
:107DD0000B40010091408B420CD17368002B09D0FD
:107DE000717801394E427141091A484241411000EF
:107DF000C9B298470134E4B2D1E7C0468B2F0020C6
:107E0000B82F0020B42F0020B02F0020F8B5124E5C
:107E10000700300000F0F8FB002817D10124BC4017
:107E20000E4D2B68234214D1380001F0C7FE0C4BD5
:107E30001A6800280BD022431A602B6800221C43CA
:107E4000084B300019682C6000F092FBF8BDA2438B
:107E5000F2E7A3432B60F9E7902F0020B42F002016
:107E6000B02F00208C2F002073B505000C001600E9
:107E70000720042A1DD901F087FD002815D0164BD4
:107E8000164A1D60164B1C70164B013C1E600023E9
:107E900003261360144AE4B21360FF2C0AD1134A7C
:107EA0000021134800F04CFB03E001F03FFD0028E7
:107EB000E5D076BD002201A9E300EB180E708A70B0
:107EC000CA709A7818784A700A4A01F0CFFD013CCE
:107ED000E4B20028E1D0ECE7B82F0020B02F00205A
:107EE0008B2F00208C2F0020B42F0020997D0200C2
:107EF00040F502000D7E020010B50024074B1B78F0
:107F00009C4201D3002010BD054BE2001B680121FB
:107F1000D05C01F011FE0134F0E7C0468B2F002049
:107F2000B82F00201FB5002101AA906003481180DE
:107F3000516000F005F805B000BDC04601400000EA
:107F400010B509490120FFF707FBFFF7DBFAFFF740
:107F500081FC0028FBD1BFF34F8F044A044BDA6049
:107F6000BFF34F8FC046FDE744F502000400FA0559
:107F700000ED00E030B509494C788A78631CDBB22B
:107F80009A4200D100230D7800229D4204D0037054
:107F9000182060434A681218100030BDC02F00201E
:107FA000F0B5002785B002ABDD1D009028000191DF
:107FB0002F7000F06DFC02AB9E1D3000FFF7DAFF62
:107FC0000424B84208D06B463C001B790370009B28
:107FD00032784360064B5A70287800F077FC002C0A
:107FE00003D18022034B52035A60200005B0F0BD3C
:107FF000C02F0020FCE100E0084B09491A682F233C
:10800000C046C046C046C046C046C046C046C04640
:108010008A4200D0C046013BF2D170473421002093
:108020000024F40080220C4B920270B5DA678023A2
:10803000D2220125094C5B029200A350403AA35082
:108040006560FFF7D9FFA5600024054B1C60FFF7B2
:10805000D3FF044B1C7070BD04E100E00010014030
:10806000D82F0020C92F002070B50024234B5C645A
:108070009C64DC641C655C609C60214B1B68A342B3
:1080800032D0204A20498D58204A1268AD1A2D025C
:108090002D0A1A68AA4214D8AD1AA4181A7CDE69EF
:1080A000002A0CD000221A74194A1268002A1ED025
:1080B000996958699047002801D0FFF733FF002ED7
:1080C00013D1144B144A197813788B4204D101331D
:1080D000DBB2022B0FD013701378104A9B009C5018
:1080E00080220F4B52035A6070BD3300D1E75A69AA
:1080F00098699047E3E70023EDE7C046FC10014094
:10810000DC2F00200405000000100140D82F0020C3
:10811000BC2F0020D42F0020D52F0020CC2F0020F2
:10812000FCE100E0F0B5C349C34A0B68C3488BB01B
:1081300002931478037800229C4200D1B7E0013307
:10814000DBB2022B00D1B0E003700378BC4A9B0085
:108150009A58029B9B181B021B0A0B600123019378
:10816000B84B002019780091B749096803915978F4
:1081700009915968049100999B788C4601210593D7
:10818000AC4B07901B6806900893B04B1F78039B7D
:10819000099CA44500D08CE00699002901D0AB4988
:1081A0000F700799002902D0A249089C0C60A649CB
:1081B000002800D00B60019B002B00D0A1E0039AA7
:1081C0000B6800249B1A5A1E9341DBB201930026D0
:1081D00035009D4B1B6803939C4B039A1B780693B9
:1081E000944B1B680293002C00D0B3E0009B9C458D
:1081F00000D0D0E0002D02D06146924B1970924B16
:10820000002E00D01A601B68039A9A4202D1019A8C
:10821000002A45D0002B00D108E11B688C4A8D4C08
:108220000393A558029B8C4EEB1A1B021B0A0333C7
:10823000009333780192002B12D18023C13A5B0264
:10824000FF3AA350403AA350C02180220127834B1C
:10825000920249005A501A602760FFF7CDFE37702E
:10826000039B009A934200D21300A821029AC900EE
:108270009B181B021B0A6350019AA258521B120240
:10828000120A5D1B2D0203322D0AAA4208D9019B56
:10829000E3586350FFF7B0FE8022714B92025A60A0
:1082A00000226A4B1A700BB0F0BD02704DE70192CC
:1082B00056E7654618246C43049D2C196546013524
:1082C000EDB2AC46059DAC4501D10025AC46257804
:1082D000022D0AD0032D00D05AE7002B00D157E71A
:1082E00000201874DB690800F7E765681E001C00B1
:1082F000002C00D14CE7A54200D1B5E02600E4698E
:10830000F6E70B6800210C0008000E00002B05D1D9
:10831000002900D15BE74C4A136058E71D6895427D
:1083200006D9002901D048490B60AA1A1A604EE705
:10833000521B4019DD681E60DF69002D07D0DC612B
:108340001C0002999D6009180902090A59603B0046
:108350000199DBE72300E469596802980791081A3C
:1083600040490002000A9F6888423DD838181860CA
:10837000002159609960013119740021D9618A4244
:1083800006D018681168884244D8081A1060DA616B
:108390001A00012627E71821009B5943049B59180E
:1083A000009B0133DBB200930098059B834201D10F
:1083B0000023009301250B78AB4200D016E74B68F1
:1083C0001D7C002D00D011E788685860C86898604F
:1083D0000869D860496999610699002902D05D60F1
:1083E0000D00B9E70125B7E702990798091A0902B4
:1083F000090AB94202D27F1A1F60B9E70021196049
:10840000B6E7C01BCF690791002F0DD11860DF615F
:10841000CB61E8E6110007920F688742F1D33F1A5B
:108420000F600F000799F1E73900F5E7FFF7FAFD54
:1084300036E7C046D82F0020D52F0020D42F0020AB
:10844000CC2F0020C02F0020DC2F0020C82F0020C0
:108450000405000000100140C92F002000E100E0E9
:10846000FCE100E0FEFF7F00B5420AD1DB690800B5
:10847000002B06D108480F0081600800079108937F
:1084800006912C68ED69F561002D00D180E62E681B
:1084900034192C607CE6C04600100140F7B5032477
:1084A00001900E0015001F0014400720002C32D14F
:1084B000002A30D0FFF7B6FD174B80201F60174B06
:1084C000C0225D60C525FF211C705C709E70144B3E
:1084D00040031C60134B52001C70134BAD001C700A
:1084E000124B98505A598A431100C0220A435A51DC
:1084F000A122186001990E48D2008150043D5A59BA
:108500000C491140C02212020A435A510A4BC25868
:1085100020000A4B1A60FEBDBC2F0020C02F002097
:10852000DC2F0020D42F0020D52F002000E100E018
:1085300000100140FF00FFFF04050000D82F0020BD
:1085400010B50A4B5C680823002C0CD0013B002AB4
:1085500009D0002807D000680133047C002C02D128
:10856000230041744261180010BDC046C02F002096
:10857000F0B5214F87B07B68050001910392082474
:10858000002B35D0002833D0013C042930D9436971
:108590000134002B2CD0427C00230291012A00D010
:1085A000029304AAD61D3000337000F071F904ABB9
:1085B000981DFFF7DFFC0424002810D001230024BD
:1085C00003700E4A0E4B4560D3588360019BC36015
:1085D000029B0361039B436104AB9B797B70307802
:1085E00000F074F9002C03D18022064B52035A602C
:1085F000200007B0F0BDC046C02F00200010014091
:1086000004050000FCE100E010B5094B5A6808239E
:10861000002A0AD0002808D04269002A05D0002389
:1086200002210374FFF7BCFC0300180010BDC04614
:10863000C02F0020030010B5DA6808001268002A75
:1086400004D0DA68DB6851681B68984710BD0023C6
:10865000C0B288724B727047F0B5057AC368EDB24C
:108660009B68EA009B185C7985B001A964084C708E
:108670001C684C601C798C7001249F795E792742BC
:1086800029D0264227D1C7682D193F7BBD4222DA67
:10869000C5680832AD687708AD186D79E540AF421E
:1086A00019D1C3689B689A1813688B601379CB70D3
:1086B000537923401D006B426B4102330B70037AE8
:1086C00092791B192240DBB252010372103001F083
:1086D0000BFD05B0F0BD012500222E400E708A6012
