:020000022000DC
:102C00000080002025B0020065B0020067B002001D
:102C100000000000000000000000000000000000B4
:102C200000000000000000000000000069B0020089
:102C300000000000000000006BB002006DB0020058
:102C4000819202006FB002008D6F0200F19D0200C0
:102C50006FB00200000000000998020051940200C9
:102C60006FB002006FB002006FB002006FB00200E0
:102C70006FB002006FB002006FB002006FB00200D0
:102C80006FB00200A17C02006FB002006FB00200C2
:102C90005D7D02006FB00200FDB202006FB0020065
:102CA0006FB002006FB002000000000000000000E2
:102CB0000000000000000000000000000000000014
:102CC00010B5064C2378002B07D1054B002B02D002
:102CD000044800E000BF0123237010BDC42200207F
:102CE0000000000074F00200084B10B5002B03D068
:102CF0000749084800E000BF07480368002B00D1DF
:102D000010BD064B002BFBD09847F9E700000000F0
:102D1000C822002074F00200B02200200000000051
:102D2000164B002B00D1144B9D46402292029A1A5A
:102D3000924600218B460F461348144A121A00F09F
:102D400065F80F4B002B00D098470E4B002B00D09E
:102D500098470020002104000D000D48002802D0F3
:102D60000C4800E000BF00F02DF82000290000F022
:102D700059F800F011F8C04600000800008000205B
:102D80000000000000000000C42200202C380020B9
:102D90000000000000000000084B10B50400002BEC
:102DA00002D0002100E000BF054B1868836A002BA9
:102DB00000D09847200000F031F8C0460000000025
:102DC0003CC2020070B500260C4D0D4C641BA410D3
:102DD000A64209D1002609F025FA0A4D0A4C641BC7
:102DE000A410A64205D170BDB300EB589847013638
:102DF000EEE7B300EB5898470136F2E7A82200202F
:102E0000A8220020A8220020AC2200200300821863
:102E1000934200D1704719700133F9E7FEE7C046CD
:102E200048DF7047F8B5002004F09EF939490400E6
:102E3000032004F0ADF93849032004F0A9F937491B
:102E4000032004F0A5F9002C02D0200004F086FE37
:102E5000002002F0A1F9324F3868082803D0082377
:102E60003B6002F099F92F4E3068102803D01023F0
:102E7000336002F065FB2C4D2868042803D004233E
:102E80002B6002F027FC294B18680A2804D00A237B
:102E9000264A136002F032FF254B18680E2804D032
:102EA0000E23234A136003F00FFB224B18680628F9
:102EB00004D006231F4A136003F08EF81E4C2068CE
:102EC000062803D00623236003F0EEFC3B68082BA2
:102ED000C1D13368102BBED12B68042BBBD1134B4F
:102EE0001B680A2BB7D1124B1B680E2BB3D1114BA9
:102EF0001B68062BAFD12368062BACD104F0C6FAB1
:102F00000028A8D1FFF78CFF0028A4D004F026FEEB
:102F1000A1E7C04640C2020093C20200ADC2020057
:102F2000602000207420002088200020A4200020A1
:102F3000EC200020D020002000210020A0DF7047DE
:102F4000A6DF704763DF704730B5AE4989B0032014
:102F500004F01EF901220120AB4B5242AB4C1A8007
:102F6000AB49AC4B220088700B80FFF7E7FF0028CD
:102F700001D004F0F3FDA849102204A808F0DCFCFD
:102F8000A64D04A82900FFF7DDFF002801D004F0BA
:102F9000E5FDA34A2B7821880392A24AA248029217
:102FA0000222019203320092A04A03F0E9FD0028B8
:102FB00001D004F0D3FD9E4A2B78218803929D4ACC
:102FC0009D48029202220192921800929B4A03F0BD
:102FD000D7FD002801D004F0C1FD994A2B78218843
:102FE0000392984A9848029207220192023A00926C
:102FF000964A03F0C5FD002801D004F0AFFD944AC5
:103000002B7821880392934A9348029210220192CE
:10301000073A0092914A03F0B3FD002801D004F072
:103020009DFD8F4A2B78218803928E4A8E4802920A
:1030300008220192033A00928C4A03F0A1FD002875
:1030400001D004F08BFD8A4A2B7821880392894AAB
:10305000894802920122019203320092874A03F0CA
:103060008FFD002801D004F079FD854A2B78218856
:103070000392844A84480292102201920B3A0092F1
:10308000824A03F07DFD002801D004F067FD804AEC
:103090002B78218803927F4A7F4802921022019266
:1030A0000B3A00927D4A03F06BFD002801D004F03A
:1030B00055FD7B4A2B78218803927A4A7A480292FE
:1030C00004220192033A0092784A03F059FD002845
:1030D00001D004F043FD764A2B7821880392754A8B
:1030E000754802920122019204320092734A03F061
:1030F00047FD002801D004F031FD714A2B7821886A
:103100000392704A704802920422019200926F4A20
:1031100003F036FD002801D004F020FD6C4A2B7826
:10312000218803926B4A6C480292012201920B3271
:1031300000926A4A03F024FD002801D004F00EFD3D
:10314000674A2B7821880392664A674802920122D7
:10315000019204320092654A03F012FD002801D06A
:1031600004F0FCFC624A2B7821880392614A624891
:10317000029202220192013A0092604A03F000FD9D
:10318000002801D004F0EAFC5D4A2B7821880392E4
:103190005C4A5D48029210220192073A00925B4A13
:1031A00003F0EEFC002801D004F0D8FC584A2B783C
:1031B00021880392574A58480292102201920B3AF2
:1031C0000092564A03F0DCFC002801D004F0C6FC53
:1031D000534A21882B780392524A53480292102274
:1031E00001920B3A0092514A03F0CAFC041E01D02E
:1031F00004F0B4FC4E49032003F0CAFF200009B0DC
:1032000030BDC0462EC902004C200020EC23002017
:10321000EE23002000FFFFFFD1C20200F2230020B6
:1032200020230020A423002058C9020001FF000031
:1032300050230020D623002067C9020002FF0000AF
:1032400048230020CF23002071C9020003FF0000A3
:1032500058230020D823002078C9020004FF000072
:1032600028230020A62300208DC9020005FF0000AE
:10327000F82200206C230020A8C9020006FF0000ED
:103280001023002084230020B9C9020007FF00009A
:1032900038230020AF230020CDC9020008FF000022
:1032A0000023002070230020E1C9020009FF000074
:1032B00030230020AE230020F0C902000AFF0000E6
:1032C00060230020E823002005CA02000BFF000055
:1032D000E0220020682300200FCA02000CFF00003B
:1032E000E82200206923002022CA02000DFF00000E
:1032F000F02200206A2300202ECA02000EFF0000E8
:10330000082300207423002036CA02000FFF0000AB
:10331000182300209423002049CA020010FF000057
:1033200040230020BF23002062CA020011FF0000DA
:103330007BCA0200F0B510251627114E8BB006ACE3
:1033400000900191029269462A00300003936F4475
:1033500008F0F2FA2A00002120003D80FFF756FD18
:10336000084B21001B88A76023800123A370002342
:10337000A380054BE6601888FFF7E2FD0BB0F0BDB7
:10338000D8230020582300204C200020F0B587B01F
:103390006B4601270C4D02AC287010220021200042
:1033A0009E1DDF80FFF732FD084B21001B88A770B0
:1033B00023800023A380064BA6601888E560FFF7F2
:1033C000BFFD07B0F0BDC04668230020E02200200A
:1033D0004C20002070B503880500112B17D002D8AF
:1033E000102B09D070BD502B1BD0532BFAD1824922
:1033F000042003F0CDFEF5E78288804B804904204D
:103400001A8003F0C5FE03227E4B1A60EAE7012210
:103410007A4B52427C4904201A8003F0B9FE042200
:10342000F2E77A49042003F0B3FE794AEB88128868
:10343000AC1D9A4211D1227B7649042003F0C4FED0
:10344000FF20FFF7A3FF744803887F2B01D97F2358
:10345000038002F0F3F80522D6E7704A12889A42F8
:1034600011D1227B6E49042003F0AEFEFF20FFF74E
:103470008DFF6C4803887F2B01D97F23038002F0E6
:10348000DDF80622C0E7684A12889A4209D1227BF9
:103490006649042003F098FE654802F0CFF8072241
:1034A000B2E7644A1188994205D1227B624904201F
:1034B00003F08AFE96E792889A4202D1227B5F4906
:1034C000F5E75F4A12889A4206D1227B5D490420C3
:1034D00003F07AFE0B2297E75B4A12889A4209D1E1
:1034E000227B5A49042003F06FFE594802F0A6F8E7
:1034F000082289E7574A12889A4202D1227B56490C
:10350000D5E7564A12889A4202D1227B5449CEE727
:10351000544A12889A4206D1227B5349042003F070
:1035200053FE0A2270E7514A12889A4206D1227B42
:103530004F49042003F048FE092265E74D4A1288EE
:103540009A423BD1227B4C49042003F03DFE237B71
:10355000022B16D10125494B1B782B4211D048492B
:10356000032003F015FE8020000203F08BF9802079
:10357000400203F08DF9C020800203F08FF9414B27
:103580001D60237B062B00D02CE701243B4B1B78CE
:10359000234200D126E73C49032003F0F9FD8020B7
:1035A000000203F06FF98020400203F071F9C0209F
:1035B000800203F073F9334B1C6013E7334A12881F
:1035C0009A4202D1227B324971E7324A12889A42EA
:1035D00002D1227B30496AE7304A12889A4202D1EE
:1035E000227B2F4963E72F4A12889A4200D0F9E6DE
:1035F000227B2D495BE7C04607C902004C20002012
:10360000E1C20200742000200CC302003AC3020091
:103610002023002067C30200A423002050230020A1
:10362000B8C30200D62300204823002004C40200AF
:10363000CF230020582300204DC40200A4C4020060
:1036400028230020FAC40200F822002057C50200F7
:103650006C23002010230020AAC50200382300207C
:1036600000C602003023002056C60200602300205E
:10367000ADC60200E0220020F9C602006923002046
:103680004EC70200002100207FC70200E822002070
:10369000AEC7020008230020FCC702001823002048
:1036A00051C8020040230020ACC80200F0B510252C
:1036B0001627114E8BB006AC00900191029269461C
:1036C0002A00300003936F4408F036F92A000021E5
:1036D00020003D80FFF79AFB084B21001B88A76064
:1036E00023800123A3700023A380054BE660188884
:1036F000FFF726FC0BB0F0BD742300200823002048
:103700004C20002010B504000822024908F014F9EA
:10371000200010BDA62300207FB51025094E04000F
:103720002A003100684608F007F97F22F37B6946DA
:1037300013406A462000D3732A0008F0FDF82000E9
:1037400004B070BD842300207FB51025094E04000D
:103750002A003100684608F0EFF87F22F37B6946C3
:1037600013406A462000D3732A0008F0E5F82000D1
:1037700004B070BDAF2300207FB51025094E0400B2
:103780002A003100684608F0D7F87F22F37B6946AB
:1037900013406A462000D3732A0008F0CDF82000B9
:1037A00004B070BDD8230020014B18887047C04674
:1037B000A4230020014B18887047C046D623002060
:1037C000014B18687047C046E8230020014B187869
:1037D0007047C04669230020014B18787047C046E7
:1037E000AE2300207FB51025094E04002A003100C9
:1037F000684608F0A1F87F22F37B694613406A46C9
:103800002000D3732A0008F097F8200004B070BDA0
:10381000942300207FB51025094E04002A003100B2
:10382000684608F089F87F22F37B694613406A46B0
:103830002000D3732A0008F07FF8200004B070BD88
:10384000BF23002007B50822009001910248694675
:1038500008F072F807BDC046A6230020014B18608F
:103860007047C04670230020014B18807047C04647
:103870006A230020014B18807047C046A423002013
:1038800007B50722009001910248694608F054F8F4
:1038900007BDC046CF230020014B18707047C046BB
:1038A000AE2300201FB5029203935A006B46520EBE
:1038B000009001910348DA736946102208F03CF841
:1038C00005B000BD842300201FB5029203935A0067
:1038D0006B46520E009001910348DA73694610223C
:1038E00008F02AF805B000BDAF2300201FB50292F2
:1038F00003935A006B46520E009001910348DA730D
:103900006946102208F018F805B000BDD823002041
:10391000F0B5038885B004001D2B61D10622037C1D
:10392000134093425CD1027A2E49042003F04CFCF0
:10393000A17BA37A0391617B627A0291217B0420AF
:103940000191E17A27000091274903F005FD0F223C
:103950002649A256042003F037FC227C2449520752
:10396000920F042003F030FC2249042003F010FCE5
:10397000214E237C1137DB083A003100042003F08C
:1039800037FD1E4D1E223900280007F0D5FFBA79F9
:103990007B7912021A431A49042003F015FCBA7EFF
:1039A0007B7E12021A431749042003F00DFC3A7F74
:1039B000FB7E12021A431449042003F005FC13494C
:1039C000042003F0E5FB220010231A32310004200A
:1039D00003F00EFD280001F0FBFE02220C4B1A60E2
:1039E00005B0F0BDA1CA0200C3CA0200E4CA0200C9
:1039F000FACA020014CB020027CB0200F3230020F6
:103A000035CB020051CB020068CB02007FCB020015
:103A10008820002078DF70477ADF70477CDF7047AE
:103A20007047000000487047F424002010B5044996
:103A3000044807F0F5FA002801D004F08FF810BD13
:103A4000213A0200E424002070B59AB00BAC3C226D
:103A500000212000FFF7DAF9022323700433E3701A
:103A6000104B012663618023626A03ADDB00A67000
:103A700026820021138028002022FFF7C7F9962311
:103A800000215B002B61EE706961074B00912A00F9
:103A9000200006F01FFF002801D004F05FF81AB0E4
:103AA00070BDC0464E2000206D3C0200112330B591
:103AB00085B001AD2B701A4B1A4C1B681A4A1B4972
:103AC0009BB2200007F074FF200007F093FF210055
:103AD00082B22800FFF7A2FF002801D004F03EF8D0
:103AE0000020FFF797FF002801D004F037F802AC60
:103AF000082200212000FFF789F9202323801833B2
:103B000063800023A3809133FF332000E380FFF71D
:103B100083FF002801D004F021F805B030BDC04675
:103B2000A4000010F42400209CCB020092CB0200E1
:103B30007FB5184904220631684607F0FDFE0023D0
:103B4000D0221549684607F08FFB002801D004F009
:103B500005F801AA0121002007F0E0FB002801D0B0
:103B600003F0FCFF01A807F0F1FB002801D003F0EF
:103B7000F5FF0A4807F0AEFB002801D003F0EEFF86
:103B8000074807F0B1FB002801D003F0E7FF07B0BA
:103B900000BDC04692CB020014240020A73C0200C6
:103BA000D53C020076DF7047A8DF704767DF7047BB
:103BB0001FB503880400112B27D004D8022B2ED068
:103BC000102B13D01FBD512B2FD0552B25D03A2BA6
:103BD000F8D12149042003F0DBFAA0881321FFF774
:103BE000E1FF0028EED003F0B9FFEBE703201B490B
:103BF00003F0CEFA072006F0B7FA002801D003F050
:103C0000ADFFA288164B1A80DCE7027A1549032023
:103C100003F0DAFA01225242F4E71349DAE7104BD3
:103C200000211888FFF7C2FFDBE78379002BC9D09A
:103C3000827B043A022AC5D8022B0AD16A46137045
:103C4000C1236A465B009380A0886946FFF7ACFFFA
:103C5000C7E70123F2E7C04631CC0200F7CB0200F0
:103C6000022500200DCC020053CC020010B5002824
:103C70000CD0032809D1074903F08AFA022006F084
:103C800073FA002801D003F069FF10BD02F08CFE2A
:103C9000FBE7C046DACB0200038810B5112B01D038
:103CA00006F0EAFF10BD10B5040007F041F920004E
:103CB00007F0E8F8200006F021FB2000FFF778FF6E
:103CC0002000FFF787FB2000FFF7E6FF2000FFF74B
:103CD0001FFE10BD10B5040005F066F9200007F0C6
:103CE00001F810BD10B50E2802D00F2808D010BD65
:103CF0000749032003F04CFA0120FFF747FBF6E7E2
:103D00000449032003F044FA0422034B1A60EEE74F
:103D1000A5CB0200C4CB020000210020802310B5F7
:103D2000DB02984200D17CE008D880239B029842B5
:103D300014D0C0239B02984252D010BDA023DB02B6
:103D4000984255D0C023DB029842F6D10329F4D122
:103D500002F0C0F901F09EFA364A06E0012907D1C7
:103D600001F078FC01F096FA334A344B1A60E4E72C
:103D7000042905D101F06EFC01F08CFA304AF4E719
:103D8000072905D101F066FC01F084FA2D4AECE721
:103D9000062905D101F05EFC01F07CFA2A4AE4E72D
:103DA000082905D101F056FC01F074FA274ADCE736
:103DB000092905D101F04EFC01F06CFA244AD4E740
:103DC0000A2905D101F046FC01F064FA214ACCE74A
:103DD0000B29B2D101F03EFC01F05CFA1E4AC4E7A7
:103DE0000229AAD101F000FD01F054FA1B4ABCE7F8
:103DF000052905D102F0F2FB01F04CFA184AB4E7AC
:103E00000C2905D102F0EAFB01F044FA154AACE7AF
:103E1000092900D091E702F0E1FB01F03BFA124AD8
:103E2000A3E7032900D088E701F0F2FF01F032FA9E
:103E30000E4A9AE7030006000100020060200020FD
:103E40000400020007000200060002000800020051
:103E5000090002000A0002000B0002000200030039
:103E6000050005000C000500090005000300040022
:103E700011DF704713DF70470368002B08D0074934
:103E80000A004B72190A9172190C1B0ED17213732E
:103E90000279034B1A6008230371704752200020F7
:103EA000602000200368002B08D007490A004B72ED
:103EB000190A9172190C1B0ED17213730279034BFC
:103EC0001A600823037170475220002060200020F0
:103ED0000368002B08D007490A004B72190A917237
:103EE000190C1B0ED17213730279034B1A6008234D
:103EF00003717047522000206020002010B503207D
:103F0000024903F045F9002010BDC04698CF0200D9
:103F100010B50320034903F03BF90422024B0020B3
:103F20001A6010BD87D202006020002010B5032067
:103F3000034903F02DF90222024B00201A6010BD44
:103F40005ACF02007420002010B50449032003F06A
:103F50001FF9FE20FFF71AFA002010BDE9D0020079
:103F600010B50C49032003F013F90B4C0B4BE02266
:103F70002360042392000A490320A360A28003F077
:103F800023F9200002F01EFB0722064B00201A60D6
:103F900010BDC046D2D10200042500208834002084
:103FA00014D20200EC20002073B51849032003F05E
:103FB000EFF85A235B22164C52422370E370154BE4
:103FC00062701B68A2701B88134E23711B0A6371F9
:103FD00080235B42A3718333E37168463460FFF74B
:103FE00091FB200008226946083007F0A5FC0B4829
:103FF00033680025036010238560838002F0E2FAB5
:104000000722074B28001A6076BDC04629D102005E
:1040100010250020C4250020C825002004250020EC
:10402000EC20002010B50549032003F0B1F802F0A0
:1040300051F80088FFF718FC002010BDC3D2020021
:1040400010B5817A437A09021943C37A094A1B04DD
:104050001943037B08481B060B438021136005238B
:104060000902137104F0A0F8044A00201368013318
:10407000136010BD9C250020A4250020843400205E
:10408000F0B5554987B0032003F082F801F0ACFB8E
:1040900004008279437912021A435049042003F044
:1040A00093F8A27E637E12021A434D49042003F066
:1040B0008BF8227FE37E12021A434A49042003F060
:1040C00083F84949042003F063F8220010230932E1
:1040D0004649042003F08CF900250726444B1B6851
:1040E0001B88AB4237D801F0A1FE002800D16FE059
:1040F00002A8FFF711FBFFF757FB0121C308DBB252
:10410000019307230C0003409C40FF2300229C46A0
:10411000013C384FE4B2531CDB006546834200DDAE
:10412000250002ABBE5C9B5C0132B3431D406B4279
:104130006B415B421940019BD2B29342EBD2002902
:1041400006D02D49032003F023F803222B4B1A60DD
:10415000002007B0F0BD6379294A9C4633006746CA
:104160006B43985CD318A1795A780902120239433B
:104170000243914229D1627EA17E94466746DA7855
:104180009878090212023943024391421DD11979EC
:10419000227F5B79E07E12021B0202430B439A42AC
:1041A00013D12B0001203340984003001149EA0845
:1041B000885C03438B54134AAB001168124A0320F6
:1041C00099502A00114902F0FFFF0135ADB285E791
:1041D00002A8FFF7B9FA8EE7CCCD02000ACE0200A2
:1041E00035CE02005BCE020081CE020027CB02005A
:1041F000C4250020CE250020D0CE02006020002063
:104200008834002084340020E0250020A3CE020062
:1042100010B50849032002F0BBFFFFF7DDFA064B9B
:104220001870180001F0E8FD0522044B00201A6008
:1042300010BDC04668D60200CD250020A420002075
:10424000F0B5002585B03749032002F0A1FF364CB8
:104250003649236803205A8802F0B6FF23683449A0
:104260009A88032002F0B0FF23683249DA880320DD
:1042700002F0AAFF236830491A89032002F0A4FF44
:1042800023682E499A7A032002F09EFFFFF792FAE4
:104290002A0021682A4E0B8803900293029893B259
:1042A000019383420BD3002D2BD00320254902F02C
:1042B0006FFFFA20FFF76AF8002005B0F0BD072372
:1042C00053439C5DF318A44660465C788F882402B3
:1042D0000443A74212D1DC789878CF8824020443A3
:1042E000A7420BD11C795B790F891B0223439F42A4
:1042F00004D1019B0398984200D001250132D2B22B
:10430000CCE707224B880E4853430431C01807F00E
:1043100013FBFF20FFF73AF80B49032002F038FFA8
:10432000CAE7C04611D70200C42500204DD70200BD
:1043300077D70200A2D70200C8D70200EED702004A
:104340008834002020D8020059D8020010B5134943
:10435000032002F01DFFFFF72DFA114B8000C0581B
:10436000FFF77CFAFFF726FA072250430D4BC15C9A
:104370001B185A78987812020A4300040243D8782E
:104380005979000610431A7909020A4399790904F8
:104390001143FFF775FA002010BDC0467ED8020019
:1043A000E02500208834002010B50749032002F0E2
:1043B000EFFEFFF705FA054B0200186004490320E1
:1043C00002F002FF002010BDBDD80200843400209E
:1043D000FCD8020010B50D49032002F0D9FE01F00F
:1043E00039F9022200240A4B18600A4B0A481A6065
:1043F0000A4B84601C600A4B03601023838002F028
:10440000E1F80322074B20001A6010BD1FCF020005
:10441000C42500207420002004250020A4200020B2
:1044200010250020EC200020F0B5CB499DB00320E2
:1044300002F0AEFE01F00EF9007801282DD1C74937
:10444000023002F0A5FEE02200219200C448FEF7EF
:10445000DDFC0021C34C0822206801800B30FEF7F0
:10446000D5FC22681300D07A127BD97B120202435A
:10447000587B00040243987B000610431A7C12020A
:104480000A43597C09040A43997C09061143FFF742
:10449000D9F90B22B44B1A600AE1022804D1B349BE
:1044A000013002F075FEF4E703281BD1B04902F099
:1044B0006FFE02F0EBFF0028FBD10123D820AD4AAC
:1044C0005B42D367AC4A4002D367FFF7D3FCFFF7E8
:1044D000CFFCBFF34F8FA94AA94BDA60BFF34F8FD0
:1044E000C046FDE7042800D029E1FFF763F9070083
:1044F000FFF75AF93A000090A249032002F064FE47
:10450000009BFCB207259F4211D3FB20CEE0280080
:104510002B00661C734360432A000818C91807F073
:104520000BFA994BB200D258A400E250F4B2009BAF
:104530008B49581E8442EADB00236543924A4B555F
:10454000A4004D19A3506B70AB70EB702B716B71A5
:10455000844B80B21B681880FFF78CF910A8FFF716
:10456000F3F8109B14A80493119B0593129B0293DC
:10457000139B0A93FFF7D0F8149B18A80693159B7A
:104580000793169B0B93179B0C93FFF7F5F8189B5B
:104590000893199B09931A9B0D931B9B0E93012360
:1045A0003F2F00D987E01E00BE40013EF21794461F
:1045B000FF18BB406546049F5C4227400599E317FE
:1045C0007A08049F1940C807374002433800059F06
:1045D0000F932F404B08390012184B410299049257
:1045E000C9070B43029A05930A9B5208DB071A433B
:1045F000069F0A9B274007995B08009201937A085F
:10460000E317069F1940C807374002433800079F49
:104610004B082F40390012184B410B990692C907DD
:104620000B4307930B9A0C9B5208DB071A430C9B16
:1046300002925B080393089B0F9D1C406208089C34
:10464000099B3440200064461D40E9076B08099D22
:104650000A432C40210012184B410D990892C907BA
:104660000B4309930E9B0D9ADB0754081C430E9BCA
:104670005D08029E039F169617970799029A06985F
:10468000179BFFF70FF9009E019F1296139705994C
:10469000009A0498139BFFF717F91A941B95089832
:1046A000099922001B9BFFF721F9FF20FEF76EFE00
:1046B00000201DB0F0BD3F221E003A40964001325E
:1046C00093400A9C5B42DA1714400F920299029AB7
:1046D000013E19403240E5074808610814000A9A73
:1046E000F7173A40284315000B9A001969411A4000
:1046F0009446009001910F9A0C991140624654081B
:104700000B9AC8073240044310000C9A4D083A40F7
:10471000110024184D410D9A0F9913400E9A580814
:104720000D9B1140029403953340CC0720431C009D
:104730000E9B49083B401D0024184D4199E7052870
:10474000B6D11249023802F023FD0122104B1A7033
:104750000332104B9FE6C046CFCF020015D00200B7
:1047600088340020C4250020EC20002040D0020026
:1047700072D0020004E100E008E100E00400FA0564
:1047800000ED00E093D00200E0250020BCD0020044
:10479000CC25002060200020002213B5224B2349A5
:1047A00003201A6002F0F4FC2149032002F0F0FC1F
:1047B00002F06EF96B46DC1D200002F07DF902F07C
:1047C0009BF9FFF7B5F92378002B03D01949032093
:1047D00002F0DEFC184A0021184803F0CDFC184A0C
:1047E0000021184803F0C8FC174A0021174803F0BD
:1047F000C3FCE022002192001548FEF707FB80224F
:10480000002192001348FEF701FB1820FFF744F83F
:1048100000200122104B1860104B1860104B1860DC
:10482000104B1A6016BDC0468434002040C20200FE
:10483000B2D60200F7D60200793E0200C4CD0200D3
:10484000A53E0200C0CD0200D13E0200C8CD02004C
:1048500088340020E025002074200020D020002093
:10486000002100206020002070B52F49032002F0B5
:104870008FFC2E4C102322002D49042002F0B8FD9D
:104880006278237812021A43A3782A4E1B041A4333
:10489000E37834601B061343274A934241D1E02357
:1048A000E579A2792D029B0015439D4239D16279A9
:1048B000237912021A432149032002F085FC326851
:1048C000537911791B020B431D4909680B805079FC
:1048D000137900021843FEF7CDFF33685A7A187A2D
:1048E00012020243987A197B00040243D87A000628
:1048F00010435A7B12020A43997B09040A43D97B6D
:1049000009061143FEF79EFF0E480F4B858003609A
:104910000423836001F056FE03220C4B00201A6032
:1049200070BD02220A4BF9E764D102001025002075
:1049300027CB0200C82500205AA5A55AA5D1020000
:10494000C42500200425002088340020EC2000200D
:1049500060200020F0B58DB00B9316AB1B880A9237
:104960000493DB08DBB205930723049A09911340F3
:104970000122110099400B000024013BDBB208909A
:10498000069302940394079212AB1F5D08AB1E5D61
:1049900004993500179BBD43621C1D55D200FF23AF
:1049A0008A4200DD069B1D4028D02A001B490420B6
:1049B000009402F05DFC3B0032001949042002F033
:1049C00029FC0026E700FFB2079B1D4212D0029887
:1049D00022000130C3B2B8190293C3B20393114944
:1049E0003300042002F016FC039B029A0E490420B7
:1049F00002F010FC01366D08082EE5D10134059B4C
:104A0000E4B2A342C0D20020029B834204D0039BA5
:104A10001802029BC01880B20DB0F0BD29D9020067
:104A200082D90200D8D9020014DA0200F0B5574941
:104A3000A1B0032002F0ACFB554803F001FC0122B9
:104A4000544B554904201A6002F0A2FB534E102328
:104A500032005349042002F0CBFC01F0E7F908AD25
:104A6000002800D170E0002410AF3800FEF754FE9B
:104A7000E35D14AF38000793FEF7B4FEE35D079AD9
:104A800013402B550134102CEED1FEF78DFE04009F
:104A90000CAF102200213800FEF7B8F904351022BF
:104AA000310068460494059706F046FF0ECD08983D
:104AB000FFF750FF04000200E5B20420394902F07C
:104AC00083FB68426841C0B200F02EFD002D32D059
:104AD00035490320043702F05BFB0ECF0C98FEF73C
:104AE000E5FDFEF773FEC30725D53049012D3FD103
:104AF0000723240AA4B25C432D4B1C19A279092A6E
:104B000035D80C272B49032002F05EFBA3792A4DF0
:104B10007B43585901F0B6FEA3797B43EB185868E4
:104B200001F0B6FEA3795F43ED19A86801F0B6FE67
:104B30000122224B1A60300000F080FD0C22002080
:104B40001F4B1A6021B0F0BD040018AF3800FEF70B
:104B5000FBFDE35D1CAF38000793FEF75BFEE35DF2
:104B6000079A13402B550134102CEED18DE71549CF
:104B7000032002F00DFB8020000201F083FE802064
:104B8000400201F085FEC0208002CFE740D4020041
:104B9000742500208820002085D40200CE25002026
:104BA00027CB02009FD40200CDD402001BD5020007
:104BB000883400207CD502006CDA0200002100203D
:104BC00074200020B4D502001FB501F02FF9002891
:104BD00046D06846FEF7A0FD6B4600201B78834256
:104BE0003CD16B465B78834238D16B469B788342DD
:104BF00034D16B46DB78834230D16B461B798342DC
:104C00002CD16B465B79834228D16B469B798342DA
:104C100024D16B46DB79834220D16B461B7A8342D9
:104C20001CD16B465B7A834218D16B469B7A8342D8
:104C300014D16B46DB7A834210D16B461B7B8342D7
:104C40000CD16B465B7B834208D16B469B7B8342D6
:104C500004D16B46D87B43425841C0B205B000BD79
:104C60006846FEF771FDB7E7F0B54F4985B004001F
:104C7000032002F08DFAFFF7A7FF002800D187E09C
:104C80004A49032002F084FA0322494B1A6002A821
:104C9000FEF738FD02AB5D88DF8801F0C7F8002819
:104CA00000D178E0002D00D17BE002AB1E8800F03F
:104CB00041FC404B1A78002A03D00F2500222E0019
:104CC0001A70FA27BF003B007343DA17D1035A0C5E
:104CD0001143FA22D8030023520080185941FA22C6
:104CE0006F439200002306F0FDFCFA177B0CD10302
:104CF000FA221943002301905200F8038018594109
:104D0000FA220023920006F0EDFC07003300019A1E
:104D10002949042002F07EFA2B003A00274904209A
:104D200002F078FA264E300003F08AFA254D28006A
:104D300003F086FAA17A637A09021943E37A224AD8
:104D40001B041943237B30001B060B431360032312
:104D50000199137103F028FAA17A637A09021943C1
:104D6000E37A1A4A1B041943237B28001B060B43D2
:104D7000136004233900137103F016FA002319009D
:104D8000134A99540133102BFBD1002005B0F0BD1C
:104D9000104B18607BE7002F03D002AB9E883D00CC
:104DA00085E73C25192682E742D3020089D3020019
:104DB00060200020CC250020C8D3020003D40200CC
:104DC000742500203C2500206C250020342500207F
:104DD000CE25002088200020F0B5474985B004008A
:104DE000032002F0D5F9FFF7EFFE002800D177E0AD
:104DF0004249032002F0CCF9414803F021FA41482E
:104E000003F01EFA02A8FEF77DFC02AB5D88DE8887
:104E100001F00CF8002866D0002D00D169E002AB4B
:104E20001F88FA26B60033007B43DA17D1035A0CE9
:104E30001143FA22D8030023520080185941FA2264
:104E40006E439200002306F04DFCF217730CD10361
:104E5000FA221943002301905200F00380185941AF
:104E6000FA220023920006F03DFC06003B00019A66
:104E70002549042002F0CEF92B00320023490420FA
:104E800002F0C8F9A17A637A09021943E37A204A49
:104E90001B041943237B1A481B060B43136003238F
:104EA0000199137103F080F9A17A637A0902194319
:104EB000E37A184A1B041943237B12481B060B4351
:104EC000136004233100137103F06EF900231900FD
:104ED000114A99540133102BFBD1002005B0F0BDCD
:104EE0000E4B186088E7002E03D002AB9F88350078
:104EF00097E73C25192794E718D6020089D30200CA
:104F0000742500203C250020C8D3020003D40200F1
:104F1000642500202C250020CE250020882000209C
:104F200010B52A490400032002F032F9FFF74CFEC5
:104F3000002847D02649032002F02AF9A17A637A93
:104F400009021943E37A234A1B041943237B2248AD
:104F50001B060B43C821136003230903137103F0DD
:104F600023F9A17A637A09021943E37A1B4A1B04E5
:104F70001943237B1A481B060B43F02113600423BB
:104F80004903137103F010F9A17A637A09021943F6
:104F9000E37A144A1B041943237B13481B060B4373
:104FA0008021136005230902137103F0FDF800232B
:104FB0001A000E495A540133102BFBD10C4B002020
:104FC0001A6010BD0B4B1860B8E7C04698CF0200BE
:104FD00089D302005C2500207425002024250020B0
:104FE0003C25002094250020A4250020CE2500206B
:104FF000EC20002088200020F7B53E4D032029003A
:1050000002F0C6F83C49032002F0C2F82900032050
:1050100002F0BEF8FEF706FD38490200032002F058
:10502000D3F8962236495200032002F0CDF8354AD3
:105030003549032002F0C8F880223449032002F0E9
:10504000C3F8334B33491B6803201A8802F0BCF8BD
:105050006846FEF757FB6B465C88DF88002C46D01D
:105060001E8832002C49032002F0AEF822002B49A2
:10507000032002F0A9F8002F02D06B463C009E8866
:1050800032002749032002F09FF82200254903201F
:1050900002F09AF805222449032002F095F805222F
:1050A0002249032002F090F8214A2249032002F00D
:1050B0008BF8214A2149032002F086F8F822204982
:1050C0009200032002F080F81E4A1F49032002F0DC
:1050D0007BF81E4A1E49032002F076F829000320BF
:1050E00002F056F82900032002F052F8F7BD3C24E4
:1050F0001926B6E7E4DA02002CDB020075DB0200B9
:1051000091DB02003A050000CDDB020002DC020068
:10511000C425002035DC020054DC020081DC0200E2
:10512000B0DC0200DDDC02000CDD020052DD02001A
:10513000C92600009ADD0200BAE80000CADD0200BC
:10514000F5DD0200C107000023DE02004517000064
:105150004EDE020010B50320034902F019F8FFF7F4
:105160004BFF002010BDC04603D3020010B5074915
:10517000032002F00DF804201223054A054902F02D
:1051800037F9FFF739FF002010BDC04645D20200B5
:105190008834002027CB0200F0B53A4C010AA170F8
:1051A000010CA279E170010E2171617912020A43AA
:1051B000E179030009040A43217A85B00906114305
:1051C0000F000A00E6372578607003970398824243
:1051D00007D100952C4A2D49032002F049F80125FA
:1051E0003DE05078561A844667469078000238436E
:1051F000D7783F04074310790006384383423FD1F4
:105200001078A8423CD18020A17A627A0902114329
:10521000E27A400212041143227B12060A4319006B
:10522000FEF77CFDA279637912021A43E37920002C
:105230001B041A43237A1B0613439B199A79597945
:1052400012021143DA791B7A12040A431B06134334
:105250009847051E06D00E49042001F099FF28004A
:1052600005B0F0BDA279637912021A43E3791B04F9
:105270001A43237A1B0613439B195B7A2370EEE7CC
:105280000A32A3E7522000208ECC02009DCC0200FF
:1052900075CC0200044A13005072020A9A72020C82
:1052A000000EDA72187370475220002010B50320E8
:1052B000024901F06DFF002010BDC0461FE0020052
:1052C00010B50320024901F063FF002010BDC04665
:1052D00061E0020010B50320024901F059FF0020EF
:1052E00010BDC04662E2020010B50320024901F081
:1052F0004FFF002010BDC0465ADF020010B503204A
:10530000024901F045FF002010BDC04692DF0200B7
:1053100010B50320024901F03BFF002010BDC0463C
:1053200031DF020010B50849032001F031FF0749C1
:10533000074B0A004B72190A9172190C1B0E0020C0
:10534000D172137310BDC04608DF02006420002034
:105350000838002010B51549032001F019FF144A40
:10536000144C937A517A1B020B43D17A201D090405
:105370000B43117B07220906194306F0DDFAA288C8
:105380000D49042001F020FFE2880C49042001F0BF
:105390001BFF22890A49042001F016FFA27A09495D
:1053A000042001F011FF002010BDC04618E10200EA
:1053B000642000200838002046E102006DE1020070
:1053C0008FE10200B1E1020010B50C49032001F0A9
:1053D000DFFE0B4904208A7A4B7A12021A43CB7AF9
:1053E0001B041A430B7B07491B0613431A88064B01
:1053F0005A8001F0E9FE002010BDC046DFE1020046
:105400006420002010E202000838002010B50C498A
:10541000032001F0BDFE0B4904208A7A4B7A120268
:105420001A43CB7A1B041A430B7B07491B06134311
:105430001A88064B1A8001F0C7FE002010BDC04636
:10544000BEDF020064200020F4DF020008380020E4
:1054500010B50320034901F09BFE01F0E3FA0020A0
:1054600010BDC0469DE0020010B50C49032001F0BC
:105470008FFEFEF71BFBFEF7E7FAFEF7D7FA01F007
:10548000DAFA01F0E1FA0320054901F081FE01F0AA
:10549000DAFA0122034B00201A6010BDD0E00200AE
:1054A000FCE002007420002030B51C4985B00320C8
:1054B00001F06EFE1A4D1022AB7A6C7A1B02234368
:1054C000EC7A6846240423432C7B24061C432100E9
:1054D00006F032FA2B78042B1BD1E47B7B331C4083
:1054E00000F0A4FC002801D080231C436B46DC7331
:1054F000039B00980199029AFDF71CFF094B1B784A
:10550000002B06D100F092FC002805D00420FDF706
:105510003DFF002005B030BD0320F8E736E2020071
:1055200064200020E0270020014B18707047C0461F
:10553000E0270020014B18787047C046E027002084
:10554000F0B53A4C010AA170010CA279E170010E8C
:105550002171617912020A43E179030009040A43C7
:10556000217A85B0090611430F000A008C3725788F
:10557000607003970398824207D100952C4A2D4909
:10558000032001F075FE01253DE05078561A84464F
:105590006746907800023843D7783F040743107974
:1055A0000006384383423FD11078A8423CD1802086
:1055B000A17A627A09021143E27A8002120411434D
:1055C000227B12060A431900FEF7A8FBA279637931
:1055D00012021A43E37920001B041A43237A1B06A4
:1055E00013439B199A79597912021143DA791B7A7C
:1055F00012040A431B0613439847051E06D00E49A2
:10560000042001F0C5FD280005B0F0BDA279637942
:1056100012021A43E3791B041A43237A1B0613432D
:105620009B195B7A2370EEE70A32A3E7642000201F
:1056300075DE02009DCC020075CC0200044A130006
:105640005072020A9A72020C000EDA7218737047D6
:1056500064200020054A937A507A1B020343D07AD3
:1056600000040343107B00061843704764200020A9
:1056700010B50320024901F08BFD002010BDC0468B
:10568000C9E2020010B50549032001F081FD0320A5
:10569000034901F07DFD002010BDC04681E30200FA
:1056A000C3E3020010B50320034901F071FD01F0CE
:1056B00061FA002010BDC04643E3020010B503208C
:1056C000034901F065FD01F045FA002010BDC04618
:1056D00004E30200F0B53A4C010AA170010CA27972
:1056E000E170010E2171617912020A43E179030030
:1056F00009040A43217A85B0090611430F000A0004
:1057000028372578607003970398824207D1009567
:105710002C4A2D49032001F0ABFD01253DE05078D6
:10572000561A84466746907800023843D7783F047B
:10573000074310790006384383423FD11078A842CE
:105740003CD1C020A17A627A09021143E27A800238
:1057500012041143227B12060A431900FEF7DEFAF7
:10576000A279637912021A43E37920001B041A43D9
:10577000237A1B0613439B199A7959791202114314
:10578000DA791B7A12040A431B0613439847051E55
:1057900006D00E49042001F0FBFC280005B0F0BD46
:1057A000A279637912021A43E3791B041A43237A1C
:1057B0001B0613439B195B7A2370EEE70A32A3E7BB
:1057C0007820002093E202009DCC020075CC0200FC
:1057D000044A13005072020A9A72020C000EDA7226
:1057E0001873704778200020054A937A507A1B027C
:1057F0000343D07A00040343107B0006184370472C
:10580000782000200368002B08D007490A004B725B
:10581000190A9172190C1B0ED17213730279034B82
:105820001A600A230371704794200020A4200020EE
:1058300010B50320034901F0ABFC0020024B1870A7
:1058400010BDC04638E60200E227002010B5032054
:10585000024901F09DFC002010BDC046F6E50200A3
:1058600010B50320024901F093FC002010BDC04692
:1058700004E502000122064B10B5064906481A70DD
:1058800002F0BEFD002801D002F068F910BDC0464C
:105890004F280020CCE70200A820002010B5041EED
:1058A00005D002000849042001F08EFC10BD074914
:1058B000042001F06DFC064B06491A78042001F023
:1058C00083FC054B1C70F1E75DE7020090E70200E6
:1058D0000C280020AFE702004F280020094B0A499E
:1058E0001A68FA239B00C046C046C046C046C04660
:1058F000C046C046C0468A4200D0C046013BF2D1F5
:105900007047C046382100200024F400F0B5032081
:1059100087B0234901F03CFC2249234C8A7A4B7A18
:1059200012021A43CB7A1B041A430B7B1B06134348
:1059300019781E4A117017211D4A11701B7802A98F
:1059400053700B00220061CA61C31A4D126828000F
:105950001A600023022202F083FD2A22164B1A70DD
:10596000FFF788FFFFF7BAFF144B1E78002E11D106
:105970000122134B13491B78103413434B706B46B1
:10598000694681CC81C33300280002F069FD3000F4
:1059900007B0F0BD0C49032001F0FAFBE2E7C04676
:1059A0007CE602009420002014E402004828002035
:1059B0004D280020A8200020E12700204F280020AB
:1059C0000C28002092200020C1E60200F0B53A49E0
:1059D0008FB0032001F0DCFB002102AC374B10221A
:1059E00020001970FDF712FA05230293013B636052
:1059F000CC235B04A3600323314D23730822314B76
:105A00002100280002F0E0FC002801D002F0A6F8F6
:105A10000D232D4A1370FFF72DFFFFF75FFF2B4B70
:105A20001B78002B38D12A4A12784A2A3ED121000D
:105A3000284A1832C1CAC1C1C1CAC1C1C1CAC1C183
:105A4000C1CAC1C106222100280002F009FD2A2393
:105A50001D4A1370FFF70EFFFFF740FF1B4B1B782B
:105A6000002B1ED11A4A6C46117801221A481143A4
:105A70004170184869464830C0C8C0C4280002F0C8
:105A8000EFFC164A0021164802F076FB01220020A6
:105A9000144B1A600FB0F0BD1349032001F078FBDE
:105AA000BBE71149032001F073FBD5E70F49032041
:105AB00001F06EFBE5E7C046D4E60200E2270020D5
:105AC000A820002024280020E12700204F280020C3
:105AD0000C28002014E402008C200020055802004D
:105AE00000E50200A4200020C1E6020014E7020045
:105AF00070B529490500032001F04AFB0C23274E0D
:105B00003370FFF7B7FEFFF7E9FE254C2378002B33
:105B100038D1244B1B785B0732D516233370FFF73F
:105B2000A9FEFFF7DBFE2378002B30D11E4C2000AE
:105B300002F086FBA97A6B7A09021943EB7A1B4AB9
:105B40001B0419432B7B20001B060B43A021136071
:105B50000423C902137102F027FBFDF737FE144C32
:105B6000830705D52378002B02D10520FDF70EFC15
:105B70002378002B02D103220E4B1A6001232370DD
:105B8000002070BD0C49032001F002FBBBE70A496D
:105B9000032001F0FDFAC4E7BAE50200E127002086
:105BA0004F2800200C280020EC270020E4270020AC
:105BB000E2270020A4200020C1E60200F0B5032067
:105BC00087B01D4901F0E4FA17221C4B1C4C1A70D7
:105BD0001C4A02A912785A7023000A00503361CB84
:105BE00061C2194D1B68280013600023022202F0D5
:105BF00037FC2A22154B1A70FFF73CFEFFF76EFEAA
:105C0000134B1E78002E11D10122124B12491B7822
:105C1000603413434B706B46694681CC81C33300BB
:105C2000280002F01DFC300007B0F0BD0B49032036
:105C300001F0AEFAE2E7C0467EE502004B28002004
:105C400014E4020048280020A8200020E1270020BA
:105C50004F2800200C28002090200020C1E60200E0
:105C6000F0B5032087B01C4901F092FA17221B4BB4
:105C70001B4C1A70D9325A7002A923000A006833EB
:105C800061CB61C2174D1B682800136000230222FC
:105C900002F0E6FB2A22144B1A70FFF7EBFDFFF728
:105CA0001DFE124B1E78002E11D10122104B1149FE
:105CB0001B78783413434B706B46694681CC81C3A3
:105CC0003300280002F0CCFB300007B0F0BD0A49D9
:105CD000032001F05DFAE2E741E5020049280020D7
:105CE00014E40200A8200020E12700204F28002013
:105CF0000C2800208E200020C1E60200F0B53A4CAE
:105D0000010AA170010CA279E170010E2171617983
:105D100012020A43E179030009040A43217A85B09B
:105D2000090611430F000A00503725786070039769
:105D30000398824207D100952C4A2D49032001F097
:105D400097FA01253DE05078561A844667469078C8
:105D500000023843D7783F040743107900063843E0
:105D600083423FD11078A8423CD18020A17A627A48
:105D700009021143E27AC00212041143227B120687
:105D80000A431900FDF7CAFFA279637912021A4388
:105D9000E37920001B041A43237A1B0613439B1943
:105DA0009A79597912021143DA791B7A12040A435B
:105DB0001B0613439847051E06D00E49042001F028
:105DC000E7F9280005B0F0BDA279637912021A4301
:105DD000E3791B041A43237A1B0613439B195B7A4E
:105DE0002370EEE70A32A3E7942000209CE402002F
:105DF0009DCC020075CC0200044A13005072020AC6
:105E00009A72020C000EDA72187370479420002008
:105E1000054A937A507A1B020343D07A0004034365
:105E2000107B00061843704794200020014B18781F
:105E30007047C046E22700200368002B08D00749BE
:105E40000A004B72190A9172190C1B0ED17213734E
:105E50000279034B1A60062303717047C0200020AB
:105E6000D020002010B50849032001F091F907491E
:105E7000074B0A004B72190A9172190C1B0E002075
:105E8000D172137310BDC04679E80200C020002013
:105E90005028002010B504000E49032001F078F9C5
:105EA000A17A637A09021943E37A0B4A1B04194366
:105EB000237B0A481B060B43F0211360022349038E
:105EC000137102F071F9172003F0DAFB03F086FA80
:105ED000002010BDE1E802005C28002064280020BA
:105EE00010B504000D49032001F052F9A17A637A3C
:105EF00009021943E37A0A4A1B041943237B094820
:105F00001B060B43F021136002234903137102F0B7
:105F10004BF903F063FA002010BDC04648E80200C8
:105F2000542800206428002007B51149032001F0FF
:105F30002FF900210F4A104802F01EF9032301A88F
:105F40000E49037003F01CFA002801D001F006FE90
:105F50000B4803F033FA01210A4803F045FA002800
:105F600001D001F0FBFD0122074B00201A600EBD9D
:105F7000ADE80200395E020044E802008D5F0200D5
:105F8000D420002050280020D020002070B50478B4
:105F90000500002C10D12B899C420ED3172003F052
:105FA00077FB0121094803F01FFA002801D001F016
:105FB000D5FD0322064B1A6070BD6A6863009A5EC5
:105FC0000449032001F000F90134E4E750280020DF
:105FD000D0200020ECE70200F0B53A4C010AA17095
:105FE000010CA279E170010E2171617912020A435C
:105FF000E179030009040A43217A85B009061143B7
:106000000F000A00283725786070039703988242B2
:1060100007D100952C4A2D49032001F029F90125CB
:106020003DE05078561A844667469078000238431F
:10603000D7783F04074310790006384383423FD1A5
:106040001078A8423CD1C020A17A627A090211439B
:10605000E27AC00212041143227B12060A4319009D
:10606000FDF75CFEA279637912021A43E3792000FE
:106070001B041A43237A1B0613439B199A795979F7
:1060800012021143DA791B7A12040A431B061343E6
:106090009847051E06D00E49042001F079F8280023
:1060A00005B0F0BDA279637912021A43E3791B04AB
:1060B0001A43237A1B0613439B195B7A2370EEE77E
:1060C0000A32A3E7C020002011E802009DCC0200A4
:1060D00075CC0200054A937A507A1B020343D07AAA
:1060E00000040343107B000618437047C0200020C3
:1060F00028DF70470368002B08D007490A004B725D
:10610000190A9172190C1B0ED17213730279034B89
:106110001A600E2303717047DC200020EC20002061
:1061200010B50320024901F033F8002010BDC0462D
:1061300032EA020010B50320024901F029F80020DC
:1061400010BDC0461CEB020010B50320024901F04F
:106150001FF8002010BDC0464CEB020010B5032014
:10616000024901F015F8002010BDC0468FEA020078
:1061700010B50320024901F00BF8002010BDC04605
:10618000BEEA020010B50320024901F001F8002028
:1061900010BDC046A4E9020010B50949032000F073
:1061A000F7FF084B00241868FFF7A2FF0C23064AEC
:1061B000064907481460137101F0F6FF200010BD76
:1061C00006EA0200B828002088280020CD0C000034
:1061D00090280020F7B5274D274A2B681268934274
:1061E00004D30922254B00201A60FEBD827A447A2E
:1061F00012022243C47A013324042243047B9B000D
:1062000024061443A288181F216893422ED9032321
:1062100009181A4001A805F08FFB0121184A194BF3
:1062200099501100053AFF3A170098580028FCD001
:106230001548019E02681660DE59002EFCD000262B
:106240005E508026F60099590029FCD004322B6854
:1062500002600E4A01332B6013005472220A9A72B4
:10626000220C240EDA721C730822BBE709180422E0
:10627000D0E7C046B0280020B4280020EC20002041
:106280000405000000E0014084280020DC200020FC
:10629000F0B52A4A2A4D12682B6885B0934207D37D
:1062A0000522284B1A6000232B60002005B0F0BDAA
:1062B000827A447A12022243C47A23492404224374
:1062C000047B012024061443204A505001910539D3
:1062D000FF390F005658002EFCD01D4E316808685B
:1062E0000390D0590028FCD0002701981750802730
:1062F000FF00D0590028FCD0043131600133A2885E
:106300009B00191F2068934215D9032340181A4097
:1063100003A905F011FB2B680E4A01332B60130013
:106320005472220A9A72220CDA720422240E1C730E
:10633000044B1A60B9E740180422E9E7B4280020AA
:10634000B0280020EC2000200405000000E00140FF
:1063500084280020DC20002010B5837A447A1B02B8
:106360002343C47A154924042343047B03202406D1
:106370001C43A28800F028FF114A13005472220A1D
:106380009A72220CDA72220E1A7308220D4B1A60CE
:106390000D4B1A680D4B1B685343A26892009B1863
:1063A0000B4A1360A1880B4A8B08890704D100208F
:1063B0001360094B186010BD0133F8E7ECEA0200E6
:1063C000DC200020EC200020BC280020B828002081
:1063D00084280020B4280020B028002010B5837A3B
:1063E000447A1B022343C47A154924042343047BC3
:1063F000032024061C43A28800F0E6FEA188114A6F
:106400008B0889071AD113600F4A002013005472B9
:10641000220A9A72220CDA72220E1A7304220B4B91
:106420001A600B4B1A680B4B1B685343A26892000F
:106430009B18094A1360094B186010BD0133E2E74D
:1064400061EA0200B4280020DC200020EC200020BB
:10645000BC280020B828002084280020B028002074
:1064600010B50D49032000F093FE80235B051A69E7
:106470000A490B480A605B690A49013B0B605343B8
:10648000094A00211360094A01F076FE0122084BF7
:1064900000201A6010BDC046D4E90200BC280020CC
:1064A000A0E90200B828002084280020F56002003E
:1064B000EC20002010B50320024900F069FE002006
:1064C00010BDC046A4E90200F0B53A4C010AA17023
:1064D000010CA279E170010E2171617912020A4367
:1064E000E179030009040A43217A85B009061143C2
:1064F0000F000A0082372578607003970398824264
:1065000007D100952C4A2D49032000F0B1FE01254A
:106510003DE05078561A844667469078000238432A
:10652000D7783F04074310790006384383423FD1B0
:106530001078A8423CD1A020A17A627A09021143C6
:10654000E27AC00212041143227B12060A431900A8
:10655000FDF7E4FBA279637912021A43E379200084
:106560001B041A43237A1B0613439B199A79597902
:1065700012021143DA791B7A12040A431B061343F1
:106580009847051E06D00E49042000F001FE2800A1
:1065900005B0F0BDA279637912021A43E3791B04B6
:1065A0001A43237A1B0613439B195B7A2370EEE789
:1065B0000A32A3E7DC20002013E902009DCC020090
:1065C00075CC0200044A13005072020A9A72020C3F
:1065D000000EDA7218737047DC200020054A937AA7
:1065E000507A1B020343D07A00040343107B000659
:1065F00018437047DC2000200368002B08D00749AF
:106600000A004B72190A9172190C1B0ED172137386
:106610000279034B1A60062303717047F0200020B3
:10662000002100200368002B08D007490A004B72A4
:10663000190A9172190C1B0ED17213730279034B54
:106640001A60062303717047F0200020002100200B
:106650000368002B08D007490A004B72190A91728F
:10666000190C1B0ED17213730279034B1A600623A7
:1066700003717047F02000200021002010B505496B
:10668000032000F085FD0320034900F081FD002078
:1066900010BDC046DCEC02000CED020010B5817AA2
:1066A000437A09021943C37A134A1B041943037B33
:1066B00004001B060B431360022313710F4B104899
:1066C000196801F071FDA17A637A09021943E37A2E
:1066D0000C4A1B041943237B0B481B060B43136016
:1066E00003231371094B196801F05EFD182002F0B5
:1066F000C7FF002010BDC046202900200C2100202B
:1067000028290020C8280020D028002004210020AB
:1067100010B50749032000F03BFD064801F090FD4D
:10672000054801F08DFD182002F0B2FF002010BDD9
:10673000B2EC020028290020D028002010B5182033
:1067400002F0A6FF002010BDF8B52F490400032079
:1067500000F01EFD2D4F2121386804F04DFE2C491C
:106760000200042000F030FD2A4E2121306804F0A0
:1067700043FE29490200042000F026FD274D212177
:10678000286804F039FE26490200042000F01CFDB0
:10679000A17A637A09021943E37A224A1B04194356
:1067A000237B21481B060B431360022339681371B6
:1067B00001F0FAFCA17A637A09021943E37A1B4AD1
:1067C0001B041943237B1A481B060B431360032346
:1067D0003168137101F0E8FCA17A637A0902194368
:1067E000E37A144A1B041943237B13481B060B430B
:1067F000136004232968137101F0D6FC182002F0FD
:106800003FFF0020F8BDC04602EC02000C21002032
:106810002DEC02000421002059EC02000821002088
:1068200085EC02001829002028290020C02800201B
:10683000D0280020F0280020F828002010B50A49B0
:10684000032000F0A5FC094A0021094801F094FC4E
:10685000084A0021084801F08FFC084A0021084836
:1068600001F08AFC002010BDD8EB0200F96502009F
:10687000D4EB020025660200CCEB02005166020058
:10688000D0EB0200014B18607047C0460C2100207D
:10689000014B18607047C04604210020014B18606E
:1068A0007047C04608210020F0B53A4C010AA1709B
:1068B000010CA279E170010E2171617912020A4383
:1068C000E179030009040A43217A85B009061143DE
:1068D0000F000A00463725786070039703988242BC
:1068E00007D100952C4A2D49032000F0C1FC012559
:1068F0003DE05078561A8446674690780002384347
:10690000D7783F04074310790006384383423FD1CC
:106910001078A8423CD1E020A17A627A09021143A2
:10692000E27AC00212041143227B12060A431900C4
:10693000FDF7F4F9A279637912021A43E379200092
:106940001B041A43237A1B0613439B199A7959791E
:1069500012021143DA791B7A12040A431B0613430D
:106960009847051E06D00E49042000F011FC2800AF
:1069700005B0F0BDA279637912021A43E3791B04D2
:106980001A43237A1B0613439B195B7A2370EEE7A5
:106990000A32A3E7F02000207BEB02009DCC02002E
:1069A00075CC02003CDF704710B5002003F0DCFB23
:1069B000002801D001F0D2F803F08EFC002801D0AD
:1069C00001F0CCF8FFF7EEFF002801D001F0C6F887
:1069D00010BD76DF70478ADF70478BDF704710B5D8
:1069E00001F0BCF810BD0000022210B5034B0449B1
:1069F00003201A6000F0CCFB10BDC046A42000208C
:106A00004DED020010B50378002B08D1044B3B215B
:106A10001888FFF7DEFF002801D001F09FF810BDB5
:106A20001C38002010B5032004F010F8002801D015
:106A300001F094F810BD10B5FCF786FA002801D0DB
:106A400001F08CF810BD704710B588B001AC1C2265
:106A500000212000FCF7DAF9A02292026260F02205
:106A600000231203A260032201932374064B20002B
:106A70006361064B2273A36104F0CCF9002801D0B6
:106A800001F06CF808B010BD056A0200DF69020071
:106A9000002310B5064A0521180001F01BFB002851
:106AA00001D001F05BF80349032000F071FB10BD39
:106AB0004829002061ED020037B504000C4A0D4959
:106AC000032003F05FFB002801D001F047F86B467C
:106AD000DD1D2900002003F055FC002801D001F045
:106AE0003DF82B78023B5A425341237037BDC046D4
:106AF000E53C0200CD0C000007B5002103226846EA
:106B0000FCF784F96946172002F064FD002801D0E3
:106B100001F024F86946182002F05CFD002801D03D
:106B200001F01CF80422094901A804F005FF084AF5
:106B300001A9022002F0B6FD002801D001F00EF8F4
:106B40000121022002F014FE07BDC04649ED0200FB
:106B5000E969020010B5FFF740FF0548FFF73BFF6A
:106B6000082302009A4301D000F0F8FF10BDC04690
:106B70001021002010B5FFF730FF10BDA2DF7047D5
:106B8000F0B599B007931EAB1C781FAB1B8811AFF3
:106B900005900691049200211C223800039309AE4F
:106BA000FCF734F9142200210CA8FCF72FF90AADE8
:106BB000032200213000FCF729F9032200212800DC
:106BC000FCF724F9012102230A00B3700E331A43A3
:106BD00023000B408B407270327062080A40D20072
:106BE000A00813430840E20880000A40240912016B
:106BF00003430C40134364011C4330233C701C428C
:106C000000D07E616B461B7F0BA98B706B461B8A85
:106C100001220B80102318000424AB7810430532A6
:106C200093432343AB706B469B890CAA93816B46BD
:106C30009B8928701381209B68700C91136111A9A6
:106C4000219B06985560FFF799FF0500039B049A66
:106C50000193059B044900930300200000F03EFBD4
:106C6000280019B0F0BDC04683ED02001FB5012316
:106C70006A461370034B10720191684606CB904729
:106C800005B000BDC0290020F8B51C230679424C90
:106C90007343E318DB7E050094460820002B7AD16D
:106CA0000868431C0CD00123A1278340A020FF00CB
:106CB000C005C35103270B68C133FF339B001F502E
:106CC0004B685A1C06D0A0200027C133FF339B001D
:106CD000C0051F5028688F69304BC750087D4B7D19
:106CE0002F6803432E483B502B682E484A680F6894
:106CF0001A502D481F500B7D012B21D18B685A1C37
:106D000006D0A0200027C133FF339B00C0051F50D1
:106D1000C868431C0CD00123A1278340A020FF009A
:106D2000C005C3510327CB68C133FF339B001F50FD
:106D3000A1202B68CA688F68C0001A5008301F5005
:106D40001C2362467343E01842600A69E2506346BE
:106D5000002B11D000222B68097FFC331A622B68AC
:106D6000FC339A64C1232868104A9B00C2502B68E8
:106D7000180B40B202F09CFBA02304212A68DB0020
:106D8000D1501C23002001227343E318D8751876D4
:106D90009875DA769876F8BDC029002024050000A1
:106DA0006C050000140500000C05000080000200C6
:106DB000F0B5037985B00193A02300220168DB00C0
:106DC000CA50019B1C325A432D4B9B185B68002B09
:106DD0000CD0C2232B4A01689B00CA5001220368D1
:106DE000DB03DB0E9A401300274AD367A126274B0B
:106DF00001689C46264FF600CA59CB5801240293DD
:106E00008B5965460393A2236442DB00CB584C5157
:106E1000CC510168A220C0008C510C50511C06D0EE
:106E2000A0210220C132FF329200C9055050029ABF
:106E3000013207D0A0210220029AC905C132FF32D7
:106E4000920050505A1C06D0A0220221C133FF33B9
:106E50009B00D2059950039B013307D0A022022149
:106E6000039BD205C133FF339B0099501C22019B29
:106E70005A43034B9B180022DA765A6005B0F0BDE6
:106E8000C02900208402020004E100E01405000093
:106E90000C0500001C23F7B5067917005E43334A42
:106EA0009619B57D1122002D5DD1B1600121B58209
:106EB000B77502680679FC32156202687343916007
:106EC00001680A00FC321562284AD3189A8A9F6822
:106ED000BA5C944664469A8A013292B29A82244AF3
:106EE0008C50596801922A0000293CD19A7D009269
:106EF0008022520019009D8A009C1431A5421DD2A7
:106F0000016802E09D8A954204D00D00FC352D6A8F
:106F1000002DF7D01D009C8A14359442EAD00A0057
:106F20000024FC3214622A88BA5C944664462A889B
:106F3000013292B22A80019A8C50D9E780230988C5
:106F40005B000F22994208D003681900FC310A6ADD
:106F5000002AFCD00122DA6000221C235E43034B8E
:106F60009C190023A3751000FEBDC046C029002057
:106F70001C0500001C2302795A43034B9B18987D83
:106F8000431E9841C0B27047C0290020C12330B5CC
:106F90004D4C9B00E25885B04C4D92054CD5AA6AE9
:106FA000002A49D000238122AB62C22392009B00B9
:106FB000E250474B9A7E002A01D1013262600222E0
:106FC00069460A709021C900625868466250694655
:106FD0000392DA7D0A72DA6801920022DA751A7673
:106FE00006CB90472B6A002B0FD00022384B988A93
:106FF000997D2A6288425BD29A8A9968895C9A8ACA
:10700000013292B29A82334BE150AB6C002B11D01B
:107010000023AB642E4B9A7E002A01D0012222600D
:10702000DA7D002A06D00022587EDA75C0B2D9680F
:10703000FFF71CFE05B030BDE3585B07D2D5EB6807
:10704000002BCFD0A322224BD200D97D002914D10E
:10705000E960A2585A7ED97D9142C3D11A7E002A96
:1070600016D0DA751A69D968DA600022587E1A7665
:10707000C0B25A76FFF7FAFDB4E70021E960597E05
:10708000D868A25842545A7E0132D2B25A76E1E709
:107090009A7E002A01D1013262608121C2228900D8
:1070A0009200A1500022587EDA75C0B2D968E1E79B
:1070B0000029AAD0684601729968027001919A75F8
:1070C00006CB9047A1E7C04600200040FC200040CE
:1070D000C02900201C050000F7B56B46DD1D00230C
:1070E0000F00060028002B7001F0EEF9114AB41CC5
:1070F00013683B6097685168136879180131581C10
:10710000C91AA14211D20024A14209D029260A4954
:107110003B40023389029B003143D3181060596011
:10712000287801F0EFF92000FEBD36181660012422
:10713000F6E7C046DC290020C3ED020010B50120AF
:1071400000F002FC10BD0000FF22054B9A600022F7
:107150001A605A608222D2009850024A99507047B1
:10716000DC2900201404000070B50600002000F0A7
:10717000EBFB041E09D100F023FC050000F024FC09
:10718000320001002800FFF7DFFF200070BD000083
:10719000F7B50C4C06000F00002001A9A568FFF709
:1071A0009BFF00280CD00721019B0E402B40F600CE
:1071B00006390233BF0231439B003943E31859605B
:1071C000F7BDC046DC290020F0B5114E85B00400A3
:1071D0000F00012003A90192B568FFF77DFF002889
:1071E00014D00723039A1C40E4003A331C431300D5
:1071F0002B4002330132BF029B001540F318274396
:1072000002355F60AD00019B7619736005B0F0BD7B
:10721000DC290020F0B5154E85B005000F000220D6
:1072200003A900920193B468FFF756FF00281BD012
:107230000723039A1D40ED007A331D4313002340BA
:107240000233BF029B00F3182F435F60531C23409F
:10725000023302329B0000991440F3180234596043
:10726000A400019B3619736005B0F0BDDC29002035
:10727000F0B5194E85B005000F00032003A9009258
:107280000193B468FFF728FF002822D00723039A50
:107290001D40ED00BA331D43130023400233BF02EB
:1072A0009B00F3182F435F60531C23400233009967
:1072B0009B00F3185960931C2340023303329B0058
:1072C00001991440F31802345960A4000A9B36193E
:1072D000736005B0F0BDC046DC290020F0B51D4E3E
:1072E00085B005000F00042003A900920193B46843
:1072F000FFF7F2FE00282AD007231D400223039A3D
:10730000FF33ED001D43130023400233BF029B00F7
:10731000F3182F435F60531C2340023300999B00F6
:10732000F3185960931C2340023301999B00F31812
:107330005960D31C2340023304329B000A99144045
:10734000F31802345960A4000B9B3619736005B022
:10735000F0BDC046DC290020F0B5244D85B0060004
:107360000F00062003A900920193AC68FFF7B4FE5A
:10737000002838D007231E408223F600FF331E4327
:10738000039BBF021A00224002329200AA18374320
:1073900057605A1C2240023200999200AA1851608C
:1073A0009A1C2240023201999200AA185160DA1CFC
:1073B000224002320A999200AA1851601A1D2240F6
:1073C00002320B999200AA1851605A1D06332240CE
:1073D0001C400232023492000C99A4000D9BAA18A2
:1073E0002D1951606B6005B0F0BDC046DC2900204E
:1073F000F0B585B00090D81C1E4C80100191013072
:1074000003A916001D00A768FFF766FE002825D017
:1074100007230221009A1A40D3001943039BAA05AF
:1074200011431A003A40981C023201333B4092004B
:10743000A218023351609B00019AE3185A60A368B6
:10744000039038405F1C3F1A03308000BF002018B3
:10745000AF4205D32A00310004F06EFA05B0F0BD4A
:107460003A00310004F068FA2000EA1B92B2F119E8
:107470000C30F1E7DC290020034B58681B68C01A68
:1074800043425841C0B27047DC290020F0B58FB0AC
:10749000FFF7F2FF03000020834200D07FE00322C9
:1074A000544E7768B368791C04933B4002339B00C9
:1074B000F3185D682B0013403ED0022B00D070E023
:1074C0004B1C0593049B059A1940023189007118E1
:1074D0004B680693AB0D07932B049B0D9C46049BB6
:1074E000934301339B00AA0D9A4232D9002B00D15D
:1074F0007AE00499059ADCB2AB0D0A40191B3300FF
:1075000003329200B218C9B20C3302930092394B85
:10751000394A039101949C5800216346A806069AB3
:10752000400FA047AB0D984226D1C11C059B89088E
:10753000CC18304B5C602CE0AF0D2D04AD0D7F19E5
:10754000049B7F183B4002339B00F318791C5D6855
:10755000B0E70021AB0D0193049A059BA8061340E8
:1075600003339B00F3180093234B03910291F458CB
:10757000400F6346069AD4E7204B80051D40049BCC
:10758000000C3B401F001B4B0237BF000543DF19B7
:107590007D60FFF771FF030001205840C0B20FB0BB
:1075A000F0BD0024AB0AAF0505933F0F08AB0819E7
:1075B000BC420CD3CC198221A806C900009775588B
:1075C000400F059A0021A8470028B2D1E1E7A200A8
:1075D0009446049A013410400230064A8000101884
:1075E000624640689850E2E76A46147F320019000C
:1075F0000C328AE7DC290020140400003F00FFFF62
:107600000378012B01D1014A13707047F62D002039
:1076100070B506000D001400002817D004220C4994
:10762000280004F089F980212368281D0433236091
:107630003368084A490004F089F90023984203DBC3
:107640002368181820600123180070BD2060FAE735
:10765000F4ED0200F9ED0200F0B51C000023584FD4
:10766000CBB03800079116000993FFF783FC051E85
:1076700002D000204BB0F0BD099A0AAB99180798C8
:1076800009AAFFF7C5FF0028F3D0509B062B16D898
:10769000180003F09DFE04333F4C5B6C7F0030000C
:1076A00004F0A8F9050009982B18FF2B05D80AABA0
:1076B00018182A00310004F03FF9002DD9DB099B8E
:1076C0005D1980232C1D09955B009C42D1D80AAB23
:1076D000581904223B4904F02FF93B4D22000AA916
:1076E0002800099404F028F9E2B229003800FFF7D5
:1076F000D1FB030058425841C0B2BBE78021099832
:107700000AAB4900091A32001818236804F01EF960
:107710000500D2E7802109980AAB4900091A181818
:10772000636832000093236804F010F9F0E78021C9
:1077300009980AAB4900091A1818A3683200019386
:1077400063680093236804F001F9E1E78021099858
:107750000AAB4900091A1818E36832000293A368BB
:10776000019363680093236804F0F0F8D0E7802168
:1077700009980AAB4900091A1818236932000393C3
:10778000E3680293A368019363680093236804F09D
:10779000DDF8BDE7802109980AAB4900091A1818DD
:1077A00063693200049323690393E3680293A36837
:1077B000019363680093236804F0C8F8A8E7C04603
:1077C00020210020F4ED0200F72D0020F0B51C0070
:1077D0000023C9B007930B0016005A1E93410A22DA
:1077E0005B421A4055480D000292FFF7C3FB002888
:1077F00075D1002C19D1079A08AB9918280007AA4F
:10780000FFF706FF00286AD0300004F0F3F8050007
:10781000C22800D9C225079A08AB981831002A005F
:1078200004F08AF8079B5D190795519A2027944622
:107830004F9B63440493079B029908AAD2183133E3
:107840005B1808A9CB180193029BD3180393039BE1
:107850009A4247D11D00019B01330093019B1133D4
:107860000593049BA34240D8009B2F70013B6F708F
:10787000AF701F70009B033501330093009A059B86
:107880009342EED10D23019A07981374033B53746E
:10789000039B433030331F70029B0422C01808AB97
:1078A00007902749181804F047F8079B254E1D1D1F
:1078B0002A0008A93000079504F03EF8EAB21F4DEF
:1078C00031002800FFF7E6FA002808D12800FFF76A
:1078D00051FB002803D1049B07909C42ABD32000AE
:1078E00049B0F0BD17700132B1E74F9BA34220D9D8
:1078F0004E9B1E5D3111CAB213003733092900DCDB
:10790000073B2B700F2333401A003732092B01D865
:1079100030331A006A70AF7003F0EEFF68228019EE
:107920004378934300D12E26009B0134013B1E7007
:10793000A0E74F9B509AE31AD65CDBE7202100209A
:10794000F4ED0200F72D0020F0B5184E89B0337821
:107950000500002B04D0164B00201B78AB4222D030
:107960006A46144B6C4683CB83C283CB83C203CB62
:1079700003C20F23104F009301330193083B03937D
:10798000380002330293FFF713FA0022954200D128
:107990000A4A21003800FFF777F9002803D10123B4
:1079A0003370034B1D7009B0F0BDC046F52D0020AB
:1079B000F42D0020D4ED02002021002001760200E9
:1079C000004870475976020000487047CD770200A2
:1079D00070B500240125174B1B78A34200D870BD59
:1079E0002900154AE3001668144AF618307813681F
:1079F00081400B421AD08B43136001F0FBFE29003B
:107A000032780F4B91401B680B40010091408B4234
:107A10000CD17368002B09D0717801394E42714145
:107A2000091A484241411000C9B298470134E4B2F2
:107A3000D1E7C046F72E0020242F0020202F002061
:107A40001C2F0020F8B5124E0700300000F0F8FBA4
:107A5000002817D10124BC400E4D2B68234214D1BD
:107A6000380001F0C7FE0C4B1A6800280BD02243E7
:107A70001A602B6800221C43084B300019682C60E8
:107A800000F092FBF8BDA243F2E7A3432B60F9E7B5
:107A9000FC2E0020202F00201C2F0020F82E00207C
:107AA00073B505000C0016000720042A1DD901F04B
:107AB00087FD002815D0164B164A1D60164B1C700A
:107AC000164B013C1E60002303261360144AE4B2E7
:107AD0001360FF2C0AD1134A0021134800F04CFB1D
:107AE00003E001F03FFD0028E5D076BD002201A9AA
:107AF000E300EB180E708A70CA709A7818784A7092
:107B00000A4A01F0CFFD013CE4B20028E1D0ECE7E5
:107B1000242F00201C2F0020F72E0020F82E0020FC
:107B2000202F0020D179020000EE0200457A0200E9
:107B300010B50024074B1B789C4201D3002010BDD8
:107B4000054BE2001B680121D05C01F011FE0134FD
:107B5000F0E7C046F72E0020242F00201FB500219B
:107B600001AA906003481180516000F005F805B04B
:107B700000BDC0460140000010B509490120FFF7D3
:107B800007FBFFF7DBFAFFF781FC0028FBD1BFF30F
:107B90004F8F044A044BDA60BFF34F8FC046FDE7B6
:107BA00004EE02000400FA0500ED00E030B50949DA
:107BB0004C788A78631CDBB29A4200D100230D789E
:107BC00000229D4204D00370182060434A681218B6
:107BD000100030BD2C2F0020F0B5002785B002AB7F
:107BE000DD1D0090280001912F7000F06DFC02ABAC
:107BF0009E1D3000FFF7DAFF0424B84208D06B4620
:107C00003C001B790370009B32784360064B5A702E
:107C1000287800F077FC002C03D18022034B52031C
:107C20005A60200005B0F0BD2C2F0020FCE100E0E0
:107C3000084B09491A682F23C046C046C046C046B3
:107C4000C046C046C046C0468A4200D0C046013B3E
:107C5000F2D17047382100200024F40080220C4B20
:107C6000920270B5DA678023D2220125094C5B02AB
:107C70009200A350403AA3506560FFF7D9FFA5607A
:107C80000024054B1C60FFF7D3FF044B1C7070BD34
:107C900004E100E000100140442F0020352F0020B7
:107CA00070B50024234B5C649C64DC641C655C60E0
:107CB0009C60214B1B68A34232D0204A20498D583A
:107CC000204A1268AD1A2D022D0A1A68AA4214D849
:107CD000AD1AA4181A7CDE69002A0CD000221A748E
:107CE000194A1268002A1ED09969586990470028DD
:107CF00001D0FFF733FF002E13D1144B144A19782B
:107D000013788B4204D10133DBB2022B0FD01370F6
:107D10001378104A9B009C5080220F4B52035A60EC
:107D200070BD3300D1E75A6998699047E3E70023B3
:107D3000EDE7C046FC100140482F0020040500007C
:107D400000100140442F0020282F0020402F002049
:107D5000412F0020382F0020FCE100E0F0B5C3499E
:107D6000C34A0B68C3488BB002931478037800228F
:107D70009C4200D1B7E00133DBB2022B00D1B0E06E
:107D800003700378BC4A9B009A58029B9B181B0205
:107D90001B0A0B6001230193B84B00201978009156
:107DA000B749096803915978099159680491009974
:107DB0009B788C4601210593AC4B07901B6806907D
:107DC0000893B04B1F78039B099CA44500D08CE01E
:107DD0000699002901D0AB490F700799002902D0FC
:107DE000A249089C0C60A649002800D00B60019BAA
:107DF000002B00D0A1E0039A0B6800249B1A5A1EA6
:107E00009341DBB20193002635009D4B1B68039321
:107E10009C4B039A1B780693944B1B680293002C8F
:107E200000D0B3E0009B9C4500D0D0E0002D02D0F4
:107E30006146924B1970924B002E00D01A601B685D
:107E4000039A9A4202D1019A002A45D0002B00D110
:107E500008E11B688C4A8D4C0393A558029B8C4EFD
:107E6000EB1A1B021B0A0333009333780192002B99
:107E700012D18023C13A5B02FF3AA350403AA3508B
:107E8000C02180220127834B920249005A501A6078
:107E90002760FFF7CDFE3770039B009A934200D214
:107EA0001300A821029AC9009B181B021B0A6350E9
:107EB000019AA258521B1202120A5D1B2D020332B4
:107EC0002D0AAA4208D9019BE3586350FFF7B0FE80
:107ED0008022714B92025A6000226A4B1A700BB0DA
:107EE000F0BD02704DE7019256E7654618246C43D9
:107EF000049D2C1965460135EDB2AC46059DAC4597
:107F000001D10025AC462578022D0AD0032D00D0E2
:107F10005AE7002B00D157E700201874DB690800EE
:107F2000F7E765681E001C00002C00D14CE7A54255
:107F300000D1B5E02600E469F6E70B6800210C00EB
:107F400008000E00002B05D1002900D15BE74C4A48
:107F5000136058E71D68954206D9002901D04849A9
:107F60000B60AA1A1A604EE7521B4019DD681E60AA
:107F7000DF69002D07D0DC611C0002999D600918A3
:107F80000902090A59603B000199DBE72300E46913
:107F9000596802980791081A40490002000A9F6830
:107FA00088423DD838181860002159609960013125
:107FB00019740021D9618A4206D018681168884274
:107FC00044D8081A1060DA611A00012627E7182140
:107FD000009B5943049B5918009B0133DBB200936B
:107FE0000098059B834201D10023009301250B7863
:107FF000AB4200D016E74B681D7C002D00D011E786
:1080000088685860C86898600869D860496999614B
:108010000699002902D05D600D00B9E70125B7E798
:1080200002990798091A0902090AB94202D27F1A6D
:108030001F60B9E700211960B6E7C01BCF6907913F
:10804000002F0DD11860DF61CB61E8E611000792C7
:108050000F688742F1D33F1A0F600F000799F1E7CD
:108060003900F5E7FFF7FAFD36E7C046442F002058
:10807000412F0020402F0020382F00202C2F0020DF
:10808000482F0020342F002004050000001001407C
:10809000352F002000E100E0FCE100E0FEFF7F0062
:1080A000B5420AD1DB690800002B06D108480F0051
:1080B000816008000791089306912C68ED69F561CD
:1080C000002D00D180E62E6834192C607CE6C04675
:1080D00000100140F7B5032401900E0015001F00A9
:1080E00014400720002C32D1002A30D0FFF7B6FD13
:1080F000174B80201F60174BC0225D60C525FF21F4
:108100001C705C709E70144B40031C60134B52003B
:108110001C70134BAD001C70124B98505A598A4377
:108120001100C0220A435A51A122186001990E4839
:10813000D2008150043D5A590C491140C02212020C
:108140000A435A510A4BC25820000A4B1A60FEBD1E
:10815000282F00202C2F0020482F0020402F002007
:10816000412F002000E100E000100140FF00FFFF70
:1081700004050000442F002010B50A4B5C6808235A
:10818000002C0CD0013B002A09D0002807D0006841
:108190000133047C002C02D1230041744261180099
:1081A00010BDC0462C2F0020F0B5214F87B07B6852
:1081B0000500019103920824002B35D0002833D00C
:1081C000013C042930D943690134002B2CD0427C76
:1081D00000230291012A00D0029304AAD61D300088
:1081E000337000F071F904AB981DFFF7DFFC042435
:1081F000002810D00123002403700E4A0E4B456066
:10820000D3588360019BC360029B0361039B43615E
:1082100004AB9B797B70307800F074F9002C03D1AB
:108220008022064B52035A60200007B0F0BDC046C2
:108230002C2F00200010014004050000FCE100E0AC
:1082400010B5094B5A680823002A0AD0002808D024
:108250004269002A05D0002302210374FFF7BCFC09
:108260000300180010BDC0462C2F0020030010B5DD
:10827000DA6808001268002A04D0DA68DB685168FE
:108280001B68984710BD0023C0B288724B727047BC
:10829000F0B5057AC368EDB29B68EA009B185C797B
:1082A00085B001A964084C701C684C601C798C7006
:1082B00001249F795E79274229D0264227D1C768B9
:1082C0002D193F7BBD4222DAC5680832AD687708B8
:1082D000AD186D79E540AF4219D1C3689B689A1813
:1082E00013688B601379CB70537923401D006B4268
:1082F0006B4102330B70037A92791B192240DBB277
:1083000052010372103001F00BFD05B0F0BD0125E4
:1083100000222E400E708A60CA709A792A4052015B
:10832000F0E773B504000E006B46DD1D0023280046
:108330002B7000F0C9F8002E02D1E368002B15D194
:108340006379A179DBB200228B420AD021689A00BE
:108350008A1801332179DBB21268994200D20023D6
:108360006371E260E668731E9E41F6B2287800F001
:10837000C9F8002E0AD0002320002372FFF788FFDF
:10838000011E03D02000FFF771FFCDE773BD10B5CC
:108390000C00017800290DD1237AE2680133127BA9
:1083A000DBB29A4207D923722000FFF771FF011E4A
:1083B00001D110BD03212000FFF758FF012120004B
:1083C000FFF7AFFFF5E70000F7B5060010360192A2
:1083D00004001F00094A0300300001F0E7FB051EFE
:1083E0000AD1300001F08CFC6B461B796571276067
:1083F000A57123716572E5602800FEBD8F830200C0
:10840000F7B56B460400DE1D0023300033700F000B
:1084100000F05AF8A3792279DBB29A4203D162794B
:108420001125002A10D062791125013A93420BD010
:1084300021689A008A18176001332279DBB29A42C8
:1084400000D200230025A371307800F05BF8002DE6
:1084500003D129002000FFF764FF2800FEBD0000C3
:10846000F0B504001E00002387B0019202AA10009C
:108470000F00137000F028F8657AEDB2002D01D1DD
:108480000123637202AB187800F03CF81120002D34
:1084900012D16A460B4B1279029302AB19002000ED
:1084A000039404971A73FFF7ABFF002804D1637A93
:1084B000002B03D1A07AC0B207B0F0BD002EF6D0D9
:1084C000B047F4E78782020070B5EFF3108672B60A
:1084D000094B0122596800290BD1084C5A60E26F00
:1084E000074D2A401A60E5670170002E00D162B680
:1084F00070BD0270F9E7C0462038002004E100E0BA
:10850000FC06FFBC10B5084A5368002B0BD00028AE
:1085100009D1EFF3108372B6044914680C605060FF
:10852000002B00D162B610BD2038002000E100E031
:1085300070B505000024054BE358002B01D028003E
:1085400098470434202CF6D170BDC046582F002027
:108550000A6810B50001134C002A10D05388033369
:108560009B00D318802220184068D2000E4C80183F
:10857000834202D21A68013205D1002010BD2318AF
:108580005B680833EEE79A88A24202D01A88002A74
:1085900004D15A88033292009B18E9E70B6001204E
:1085A000ECE7C0464C300020FFFF000010B50D4C3A
:1085B0000D4963880D481B01C9188B89002B06D112
:1085C0000122496800F0A4FC0423237010BD052398
:1085D00007492370033B8B8001220023096800F0C8
:1085E00097FCF3E7C42F00204C300020B422002079
:1085F0006C300020002307B504490093044A02337D
:108600000968044800F03EFC0EBDC0466C300020F6
:108610002CEE0200B4220020002307B501000093D5
:10862000024A0233024800F02DFC0EBD24EE020087
:10863000B4220020002307B501000093044A01334F
:10864000044800F01FFC031E00D00E2318000EBDCE
:1086500020EE0200B422002013B50324084B094881
:10866000998842681B688900591853880470002053
:10867000033300909BB2044800F004FC16BDC046D2
:108680006C300020C42F0020B422002010B5064B0F
:10869000191D5888FFF75CFF002802D0FFF7DCFFA8
:1086A00010BDFFF783FFFBE7C42F002037B54368F9
:1086B00005000C00002B2BD0224A11688B4227D3D7
:1086C0005268934224D803221A4021D11E490089BE
:1086D000098988421CD129689868814218D11B48B1
