:020000022000DC
:102C00000080002061B60200A1B60200A3B6020057
:102C100000000000000000000000000000000000B4
:102C2000000000000000000000000000A5B6020047
:102C30000000000000000000A7B60200A9B60200D4
:102C4000BD980200ABB60200C97502002DA40200B7
:102C5000ABB6020000000000459E02008D9A020003
:102C6000ABB60200ABB60200ABB60200ABB60200D8
:102C7000ABB60200ABB60200ABB60200ABB60200C8
:102C8000ABB60200DD820200ABB60200ABB60200BA
:102C900099830200ABB6020039B90200ABB602005C
:102CA000ABB60200ABB6020000000000000000005E
:102CB0000000000000000000000000000000000014
:102CC00010B5064C2378002B07D1054B002B02D002
:102CD000044800E000BF0123237010BDC022002083
:102CE00000000000D0FA0200084B10B5002B03D002
:102CF0000749084800E000BF07480368002B00D1DF
:102D000010BD064B002BFBD09847F9E700000000F0
:102D1000C4220020D0FA0200AC22002000000000F3
:102D2000164B002B00D1144B9D46402292029A1A5A
:102D3000924600218B460F461348144A121A00F09F
:102D400065F80F4B002B00D098470E4B002B00D09E
:102D500098470020002104000D000D48002802D0F3
:102D60000C4800E000BF00F02DF82000290000F022
:102D700059F800F011F8C04600000800008000205B
:102D80000000000000000000C02200204C3900209C
:102D90000000000000000000084B10B50400002BEC
:102DA00002D0002100E000BF054B1868836A002BA9
:102DB00000D09847200000F031F8C0460000000025
:102DC00078C8020070B500260C4D0D4C641BA41091
:102DD000A64209D1002609F043FD0A4D0A4C641BA6
:102DE000A410A64205D170BDB300EB589847013638
:102DF000EEE7B300EB5898470136F2E7A422002033
:102E0000A4220020A4220020A8220020030082186F
:102E1000934200D1704719700133F9E7FEE7C046CD
:102E200048DF7047F8B5002004F0BCFC39490400C5
:102E3000032004F0CBFC3849032004F0C7FC3749D9
:102E4000032004F0C3FC002C02D0200005F0A4F9FC
:102E5000002002F037FB324F3868092803D00923DD
:102E60003B6002F02FFB2F4E3068102803D0102358
:102E7000336002F007FD2C4D2868042803D004239A
:102E80002B6002F0C9FD294B18680B2804D00B23D6
:102E9000264A136003F016FA254B18680E2804D052
:102EA0000E23234A136003F02DFE224B18680628D8
:102EB00004D006231F4A136003F0ACFB1E4C2068AD
:102EC000062803D00623236004F00CF83B68092B86
:102ED000C1D13368102BBED12B68042BBBD1134B4F
:102EE0001B680B2BB7D1124B1B680E2BB3D1114BA8
:102EF0001B68062BAFD12368062BACD104F0E4FD90
:102F00000028A8D1FFF78CFF0028A4D005F044F9D1
:102F1000A1E7C0467CC80200CFC80200E9C8020091
:102F2000602000207420002088200020A0200020A5
:102F3000E8200020CC200020FC200020A0DF7047EB
:102F4000A6DF704763DF704730B5AE4989B0032014
:102F500004F03CFC01220120AB4B5242AB4C1A80E6
:102F6000AB49AC4B220088700B80FFF7E7FF0028CD
:102F700001D005F011F9A849102204A808F0FAFFC1
:102F8000A64D04A82900FFF7DDFF002801D005F0B9
:102F900003F9A34A2B7821880392A24AA2480292FD
:102FA0000222019203320092A04A04F007F900289D
:102FB00001D005F0F1F89E4A2B78218803929D4AB2
:102FC0009D48029202220192921800929B4A04F0BC
:102FD000F5F8002801D005F0DFF8994A2B78218810
:102FE0000392984A9848029207220192023A00926C
:102FF000964A04F0E3F8002801D005F0CDF8944A91
:103000002B7821880392934A9348029210220192CE
:10301000073A0092914A04F0D1F8002801D005F057
:10302000BBF88F4A2B78218803928E4A8E480292F1
:103030000C220192073A00928C4A04F0BFF8002853
:1030400001D005F0A9F88A4A2B7821880392894A91
:10305000894802920122019203320092874A04F0C9
:10306000ADF8002801D005F097F8854A2B78218823
:103070000392844A84480292102201920B3A0092F1
:10308000824A04F09BF8002801D005F085F8804AB8
:103090002B78218803927F4A7F4802921022019266
:1030A0000B3A00927D4A04F089F8002801D005F01F
:1030B00073F87B4A2B78218803927A4A7A480292E5
:1030C00004220192033A0092784A04F077F800282B
:1030D00001D005F061F8764A2B7821880392754A71
:1030E000754802920122019204320092734A04F060
:1030F00065F8002801D005F04FF8714A2B78218837
:103100000392704A704802920422019200926F4A20
:1031100004F054F8002801D005F03EF86C4A2B78F2
:10312000218803926B4A6C480292012201920B3271
:1031300000926A4A04F042F8002801D005F02CF809
:10314000674A2B7821880392664A674802920122D7
:10315000019204320092654A04F030F8002801D050
:1031600005F01AF8624A2B7821880392614A624876
:10317000029202220192013A0092604A04F01EF883
:10318000002801D005F008F85D4A2B7821880392C9
:103190005C4A5D48029210220192073A00925B4A13
:1031A00004F00CF8002801D004F0F6FF584A2B7800
:1031B00021880392574A58480292102201920B3AF2
:1031C0000092564A03F0FAFF002801D004F0E4FF11
:1031D000534A21882B780392524A53480292102274
:1031E00001920B3A0092514A03F0E8FF041E01D00D
:1031F00004F0D2FF4E49032004F0E8FA200009B0A1
:1032000030BDC0466ACF02004C200020EC230020D5
:10321000EE23002000FFFFFF0DC90200F223002073
:103220001C230020A023002094CF020001FF0000F7
:103230004C230020D6230020A3CF020002FF000071
:1032400044230020CF230020ADCF020003FF000065
:1032500054230020D8230020B4CF020004FF000034
:1032600024230020A2230020C9CF020005FF000074
:10327000F422002068230020E4CF020006FF0000B3
:103280000C23002080230020F5CF020007FF000060
:1032900034230020AF23002009D0020008FF0000E3
:1032A000FC2200206C2300201DD0020009FF00003A
:1032B0002C230020AE2300202CD002000AFF0000A7
:1032C0005C230020E823002041D002000BFF000017
:1032D000DC220020642300204BD002000CFF000001
:1032E000E4220020652300205ED002000DFF0000D4
:1032F000EC220020662300206AD002000EFF0000AE
:10330000042300207023002072D002000FFF000071
:10331000142300209023002085D0020010FF00001D
:103320003C230020BF2300209ED0020011FF00009C
:10333000B7D00200F0B510251627114E8BB006ACA1
:1033400000900191029269462A00300003936F4475
:1033500008F010FE2A00002120003D80FFF756FDF6
:10336000084B21001B88A76023800123A370002342
:10337000A380054BE6601888FFF7E2FD0BB0F0BDB7
:10338000D8230020542300204C200020F0B587B023
:103390006B4601270C4D02AC287010220021200042
:1033A0009E1DDF80FFF732FD084B21001B88A770B0
:1033B00023800023A380064BA6601888E560FFF7F2
:1033C000BFFD07B0F0BDC04664230020DC22002012
:1033D0004C20002070B503880500112B17D002D8AF
:1033E000102B09D070BD502B1BD0532BFAD1824922
:1033F000042004F0EBF9F5E78288804B8049042033
:103400001A8004F0E3F903227E4B1A60EAE70122F6
:103410007A4B52427C4904201A8004F0D7F90422E6
:10342000F2E77A49042004F0D1F9794AEB8812884E
:10343000AC1D9A4211D1227B7649042004F0E2F9B6
:10344000FF20FFF7A3FF744803887F2B01D97F2358
:10345000038002F095FA0522D6E7704A12889A4254
:1034600011D1227B6E49042004F0CCF9FF20FFF734
:103470008DFF6C4803887F2B01D97F23038002F0E6
:103480007FFA0622C0E7684A12889A4209D1227B55
:103490006649042004F0B6F9654802F071FA072283
:1034A000B2E7644A1188994205D1227B624904201F
:1034B00004F0A8F996E792889A4202D1227B5F49EC
:1034C000F5E75F4A12889A4206D1227B5D490420C3
:1034D00004F098F90B2297E75B4A12889A4209D1C7
:1034E000227B5A49042004F08DF9594802F048FA29
:1034F000082289E7574A12889A4202D1227B56490C
:10350000D5E7564A12889A4202D1227B5449CEE727
:10351000544A12889A4206D1227B5349042004F06F
:1035200071F90A2270E7514A12889A4206D1227B29
:103530004F49042004F066F9092265E74D4A1288D4
:103540009A423BD1227B4C49042004F05BF9237B57
:10355000022B16D10125494B1B782B4211D048492B
:10356000032004F033F98020000203F0A9FC80203E
:10357000400203F0ABFCC020800203F0ADFC414BE5
:103580001D60237B062B00D02CE701243B4B1B78CE
:10359000234200D126E73C49032004F017F980209C
:1035A000000203F08DFC8020400203F08FFCC0205D
:1035B000800203F091FC334B1C6013E7334A1288FE
:1035C0009A4202D1227B324971E7324A12889A42EA
:1035D00002D1227B30496AE7304A12889A4202D1EE
:1035E000227B2F4963E72F4A12889A4200D0F9E6DE
:1035F000227B2D495BE7C04643CF02004C200020D0
:103600001DC902007420002048C9020076C90200CA
:103610001C230020A3C90200A02300204C2300206B
:10362000F4C90200D62300204423002040CA02002F
:10363000CF2300205423002089CA0200E0CA0200E0
:103640002423002036CB0200F422002093CB02007A
:10365000682300200C230020E6CB02003423002046
:103660003CCC02002C23002092CC02005C230020E2
:10367000E9CC0200DC22002035CD020065230020C9
:103680008ACD0200FC200020BBCD0200E4220020F5
:10369000EACD02000423002038CE020014230020CB
:1036A0008DCE02003C230020E8CE0200F0B51025AC
:1036B0001627114E8BB006AC00900191029269461C
:1036C0002A00300003936F4408F054FC2A000021C4
:1036D00020003D80FFF79AFB084B21001B88A76064
:1036E00023800123A3700023A380054BE660188884
:1036F000FFF726FC0BB0F0BD702300200423002050
:103700004C20002010B504000C22024908F032FCC5
:10371000200010BDA22300207FB51025094E040013
:103720002A003100684608F025FC7F22F37B6946B9
:1037300013406A462000D3732A0008F01BFC2000C7
:1037400004B070BD802300207FB51025094E040011
:103750002A003100684608F00DFC7F22F37B6946A1
:1037600013406A462000D3732A0008F003FC2000AF
:1037700004B070BDAF2300207FB51025094E0400B2
:103780002A003100684608F0F5FB7F22F37B69468A
:1037900013406A462000D3732A0008F0EBFB200098
:1037A00004B070BDD8230020014B18887047C04674
:1037B000A0230020014B18887047C046D623002064
:1037C000014B18687047C046E8230020014B187869
:1037D0007047C04665230020014B18787047C046EB
:1037E000AE2300207FB51025094E04002A003100C9
:1037F000684608F0BFFB7F22F37B694613406A46A8
:103800002000D3732A0008F0B5FB200004B070BD7F
:10381000902300207FB51025094E04002A003100B6
:10382000684608F0A7FB7F22F37B694613406A468F
:103830002000D3732A0008F09DFB200004B070BD67
:10384000BF2300201FB501900291039201A90C2211
:10385000024808F08FFB05B000BDC046A22300203F
:10386000014B18607047C0466C230020014B188044
:103870007047C04666230020014B18807047C04641
:10388000A023002007B50722009001910248694655
:1038900008F070FB07BDC046CF230020014B187015
:1038A0007047C046AE2300201FB5029203935A0012
:1038B0006B46520E009001910348DA73694610225C
:1038C00008F058FB05B000BD802300201FB5029210
:1038D00003935A006B46520E009001910348DA732D
:1038E0006946102208F046FB05B000BDAF2300205A
:1038F0001FB5029203935A006B46520E009001913D
:103900000348DA736946102208F034FB05B000BDA5
:10391000D8230020F0B5038885B004001D2B61D1A9
:103920000622037C134093425CD1027A2E49042084
:1039300003F068FFA17BA37A0391617B627A029115
:10394000217B04200191E17A27000091274904F0AE
:1039500021F80F222649A256042003F053FF227CAF
:1039600024495207920F042003F04CFF22490420FF
:1039700003F02CFF214E237C1137DB083A00310085
:10398000042004F053F81E4D1E223900280008F0D0
:10399000F1FABA797B7912021A431A49042003F02A
:1039A00031FFBA7E7B7E12021A431749042003F0CE
:1039B00029FF3A7FFB7E12021A431449042003F0C8
:1039C00021FF1349042003F001FF220010231A32C3
:1039D0003100042004F02AF8280002F09BF80222AB
:1039E0000C4B1A6005B0F0BDDDD00200FFD0020024
:1039F00020D1020036D1020050D1020063D1020072
:103A0000F323002071D102008DD10200A4D1020065
:103A1000BBD102008820002078DF70477ADF704732
:103A20007CDF70477047000000487047F424002096
:103A300010B50449044807F011FE002801D004F035
:103A4000ABFB10BD253A0200E424002070B59AB00B
:103A50000BAC3C2200212000FFF7D8F90223237091
:103A60000433E370104B012663618023626A03AD67
:103A7000DB00A67026820021138028002022FFF799
:103A8000C5F9962300215B002B61EE706961074B3D
:103A900000912A00200007F03BFA002801D004F032
:103AA0007BFB1AB070BDC0464E200020713C020066
:103AB000112330B585B001AD2B701A4B1A4C1B6821
:103AC0001A4A1B499BB2200008F090FA200008F027
:103AD000AFFA210082B22800FFF7A2FF002801D030
:103AE00004F05AFB0020FFF797FF002801D004F0F4
:103AF00053FB02AC082200212000FFF787F92023A6
:103B00002380183363800023A3809133FF33200088
:103B1000E380FFF783FF002801D004F03DFB05B0F0
:103B200030BDC046A4000010F4240020D8D102000B
:103B3000CED102007FB5184904220631684608F04C
:103B400019FA0023D0221549684607F0ABFE002879
:103B500001D004F021FB01AA0121002007F0FCFEA6
:103B6000002801D004F018FB01A807F00DFF002881
:103B700001D004F011FB0A4807F0CAFE002801D06A
:103B800004F00AFB074807F0CDFE002801D004F03E
:103B900003FB07B000BDC046CED1020014240020B4
:103BA000AB3C0200D93C020076DF7047A8DF7047CB
:103BB00067DF70471FB503880400112B27D004D896
:103BC000022B2ED0102B13D01FBD512B2FD0552BD5
:103BD00025D03A2BF8D12149042003F0F7FDA08825
:103BE0001321FFF7E1FF0028EED004F0D5FAEBE750
:103BF00003201B4903F0EAFD072006F0D3FD00284F
:103C000001D004F0C9FAA288164B1A80DCE7027AC8
:103C10001549032003F0F6FD01225242F4E713494F
:103C2000DAE7104B00211888FFF7C2FFDBE7837942
:103C3000002BC9D0827B043A022AC5D8022B0AD1B4
:103C40006A461370C1236A465B009380A088694668
:103C5000FFF7ACFFC7E70123F2E7C0466DD20200D1
:103C600033D202000225002049D202008FD2020086
:103C700010B500280CD0032809D1074903F0A6FD90
:103C8000022006F08FFD002801D004F085FA10BD57
:103C900003F0A8F9FBE7C04616D20200038810B56E
:103CA000112B01D007F006FB10BD10B5040007F082
:103CB0005DFC200007F004FC200006F03DFE200023
:103CC000FFF778FF2000FFF785FB2000FFF7E6FFF6
:103CD0002000FFF71FFE10BD10B5040005F082FCA8
:103CE000200007F01DFB10BD10B50E2802D00F28D4
:103CF00008D010BD0949032003F068FD0120FFF73B
:103D000045FBF6E70649032003F060FD0422054B5E
:103D10001A60054B033A1A60EBE7C046E1D1020096
:103D200000D20200FC20002060200020802310B57B
:103D3000DB02984200D184E008D880239B0298429D
:103D400014D0C0239B02984252D010BDA023DB02A6
:103D5000984255D0C023DB029842F6D10329F4D112
:103D600002F0D6FC01F02EFC464A06E0012907D1FC
:103D700001F012FE01F026FC434A444B1A60E4E7CE
:103D8000042905D101F008FE01F01CFC404AF4E7CB
:103D9000072905D101F000FE01F014FC3D4AECE7D3
:103DA000062905D101F0F8FD01F00CFC3A4AE4E7E0
:103DB000082905D101F0F0FD01F004FC374ADCE7E9
:103DC000092905D101F0E8FD01F0FCFB344AD4E7F4
:103DD0000A2905D101F0E0FD01F0F4FB314ACCE7FE
:103DE0000B29B2D101F0D8FD01F0ECFB2E4AC4E75B
:103DF0000229AAD101F09AFE01F0E4FB2B4ABCE7AC
:103E0000012905D102F008FF01F0DCFB284AB4E7E4
:103E1000052905D102F000FF01F0D4FB254AACE7EB
:103E20000C2905D102F0F8FE01F0CCFB224AA4E7F0
:103E3000092900D089E702F0EFFE01F0C3FB1F4A19
:103E40009BE7082905D102F0BBFA01F0BBFB1C4A35
:103E500093E7062905D102F0B3FA01F0B3FB194A42
:103E60008BE7052905D102F0ABFA01F0ABFB164A4E
:103E700083E7072900D068E702F0A2FA01F0A2FB6D
:103E8000124A7AE7030006000100020060200020C9
:103E90000400020007000200060002000800020001
:103EA000090002000A0002000B00020002000300E9
:103EB00001000500050005000C00050009000500D3
:103EC00008000400060004000500040007000400C8
:103ED00011DF704713DF70470368002B08D00749D4
:103EE0000A004B72190A9172190C1B0ED1721373CE
:103EF0000279034B1A600923037170475220002096
:103F0000602000200368002B08D007490A004B728C
:103F1000190A9172190C1B0ED17213730279034B9B
:103F20001A6009230371704752200020602000208E
:103F30000368002B08D007490A004B72190A9172D6
:103F4000190C1B0ED17213730279034B1A600923EB
:103F500003717047522000206020002010B503201C
:103F6000024903F033FC002010BDC04678D60200A1
:103F700010B50320034903F029FC0222024B002064
:103F80001A6010BD3AD602007420002010B5044912
:103F9000032003F01BFCFE20FFF7F8F9002010BD02
:103FA00006D8020010B50C49032003F00FFC0B4C9F
:103FB0000B4BE0222360052392000A490320A360F3
:103FC000A28003F01FFC200002F01AFE0722064B1D
:103FD00000201A6010BDC046EFD802000425002062
:103FE000A435002031D90200E82000207FB518490F
:103FF000032003F0EBFB5A235B22164C5242237042
:10400000E370154B62701B68A2701B88134E2371FE
:104010001B0A637180235B42A3718333E37168469B
:104020003460FFF76FFB20000C226946083007F070
:10403000A1FF0B483368002503601423856083804B
:1040400002F0DEFD07222800064B1A6004B070BDA6
:1040500046D8020010250020C8250020CC250020CD
:1040600004250020E820002010B50949032003F0B2
:10407000ADFB0848084B0024036014238460838050
:1040800002F0BEFD0322054B20001A6010BDC046A1
:10409000C9D702000425002010250020E8200020B8
:1040A00010B50F49032003F091FB02F097F90D4979
:1040B0000200032003F0A6FB02F090F92030C0B20A
:1040C000FFF764F902F08AF9011E03D18022064845
:1040D000FEF79CFE0522054B00201A6010BDC0466D
:1040E0003CD402007DD40200D125002060200020B5
:1040F00010B50549032003F069FB02F009FB0088B5
:10410000FFF7B4FB002010BDA4D9020010B5817ADE
:10411000437A09021943C37A094A1B041943037BF2
:1041200008481B060B438021136006230902137104
:1041300004F058FB044A002013680133136010BDDB
:10414000A0250020A8250020A0350020F0B5584962
:1041500087B0032003F03AFB01F0E8FC0400827909
:10416000437912021A435349042003F04BFBA27E09
:10417000637E12021A435049042003F043FB227F5E
:10418000E37E12021A434D49042003F03BFB4C49E5
:10419000042003F01BFB22001023093249490420AC
:1041A00003F044FC00250726474B1B681B88AB42E5
:1041B00037D802F013F9022800D06FE002A8FFF709
:1041C000ABFAFFF7F1FA0121C308DBB20193072331
:1041D0000C0003409C40FF2300229C46013C3B4FC7
:1041E000E4B2531CDB006546834200DD250002ABD0
:1041F000BE5C9B5C0132B3431D406B426B415B4232
:104200001940019BD2B29342EBD2002906D030492B
:10421000032003F0DBFA04222E4B1A60002007B0C3
:10422000F0BD63792C4A9C46330067466B43985C2B
:10423000D318A1795A7809021202394302439142F4
:1042400029D1627EA17E94466746DA789878090281
:1042500012023943024391421DD11979227F5B79C1
:10426000E07E12021B0202430B439A4213D12B0041
:1042700001203340984003001449EA08885C034356
:104280008B54164AAB001168154A032099502A0036
:10429000144903F0B7FA0135ADB285E702F09EF894
:1042A000012800D18AE702A8FFF74EFA89E7C04645
:1042B000ACD40200EAD4020015D502003BD50200BE
:1042C00061D5020063D10200C825002051260020DC
:1042D000B0D5020060200020A4350020A0350020C9
:1042E0006426002083D5020010B50549032003F0A1
:1042F0006DFAFFF771FA02F077F8002010BDC046A2
:10430000FADD0200F0B5002585B03749032003F03F
:104310005DFA364C3649236803205A8803F072FA56
:10432000236834499A88032003F06CFA23683249E1
:10433000DA88032003F066FA236830491A890320DB
:1043400003F060FA23682E499A7A032003F05AFAA0
:10435000FFF730FA2A0021682A4E0B880390029357
:10436000029893B2019383420BD3002D2BD00320EC
:10437000254903F02BFAFA20FFF708F8002005B0D2
:10438000F0BD072353439C5DF318A44660465C7858
:104390008F8824020443A74212D1DC789878CF8812
:1043A00024020443A7420BD11C795B790F891B02BD
:1043B00023439F4204D1019B0398984200D00125DA
:1043C0000132D2B2CCE707224B880E485343043166
:1043D000C01807F0CFFDFF20FEF7D8FF0B490320E0
:1043E00003F0F4F9CAE7C046A3DE0200C8250020A6
:1043F000DFDE020009DF020034DF02005ADF0200C4
:1044000080DF0200A4350020B2DF0200EBDF0200F3
:1044100010B51349032003F0D9F9FFF7CBF9114B7D
:104420008000C058FFF71CFAFFF7C4F90722504379
:104430000D4BC15C1B185A78987812020A4300048D
:104440000243D8785979000610431A7909020A43C1
:10445000997909041143FFF715FA002010BDC046F1
:1044600010E0020064260020A435002010B50749A2
:10447000032003F0ABF9FFF7A3F9054B0200186026
:104480000449032003F0BEF9002010BD4FE00200F4
:10449000A03500208EE0020010B50849032003F08B
:1044A00095F901F079FA064B022218600020054BBD
:1044B0001A60054B1860054B186010BDFFD502004F
:1044C000C825002074200020A0200020E820002023
:1044D000F0B5D1499DB0032003F078F901F05CFA02
:1044E0000478012C39D1CD49032003F06FF9E02283
:1044F00000219200CA48FEF789FC0021C94C0C2219
:10450000206801800B30FEF781FC22681300D07A0E
:10451000127BD97B12020243587B1C7D00040243AC
:10452000987B2402000610431A7C12020A43597C2D
:1045300009040A43997C09061143DA7C14435A7D25
:10454000120414439A7D12062243FFF77BF90B22D3
:10455000B54B1A6000201DB0F0BD022C04D1B34948
:10456000032003F033F9F2E7032C1CD1B0492000FB
:1045700003F02CF903F0A8FA0028FBD10123D8207E
:10458000AC4A5B42D367AC4A4002D367FFF7A2FC58
:10459000FFF79EFCBFF34F8FA84AA94BDA60BFF329
:1045A0004F8FC046FDE7042C00D027E1FFF702F94A
:1045B0000700FFF7F9F83A000090A249032003F042
:1045C00021F9009BFCB207259F4211D3FB20CEE0CE
:1045D00028002B00661C734360432A000818C91882
:1045E00007F0C8FC984BB200D258A400E250F4B2D5
:1045F000009B8B49581E8442EADB00236543924AA4
:104600004B55A4004D19A3506B70AB70EB702B7120
:104610006B71844B80B21B681880FFF72DF910A8CE
:10462000FFF792F8109B14A80493119B0593129B1B
:104630000293139B0A93FFF76FF8149B18A8069335
:10464000159B0793169B0B93179B0C93FFF794F8FE
:10465000189B0893199B09931A9B0D931B9B0E9310
:1046600001233F2F00D985E01E00BE40013EF21716
:104670009446FF18BB406546049F5C42274005995D
:10468000E3177A08049F1940C807374002433800EF
:10469000059F0F932F404B08390012184B41029988
:1046A0000492C9070B43029A05930A9B5208DB0741
:1046B0001A43069F0A9B274007995B0800920193C3
:1046C0007A08E317069F1940C807374002433800AD
:1046D000079F4B082F40390012184B410B99069247
:1046E000C9070B4307930B9A0C9B5208DB071A432D
:1046F0000C9B02925B080393089B0F9D1C40620871
:10470000089C099B3440200064461D40E9076B0863
:10471000099D0A432C40210012184B410D99089223
:10472000C9070B4309930E9B0D9ADB0754081C43E2
:104730000E9B5D08029E039F169617970799029A93
:104740000698179BFFF7B0F8009E019F12961397EB
:104750000599009A0498139BFFF7B8F81A941B95D3
:104760000898099922001B9BFFF7C2F8FF20FEF76B
:104770000DFEEFE63F221E003A4096400132934084
:104780000A9C5B42DA1714400F920299029A013E8A
:1047900019403240E5074808610814000A9AF717E3
:1047A0003A40284315000B9A001969411A40944673
:1047B000009001910F9A0C991140624654080B9A8F
:1047C000C8073240044310000C9A4D083A401100CB
:1047D00024184D410D9A0F9913400E9A58080D9BBD
:1047E0001140029403953340CC0720431C000E9BDC
:1047F00049083B401D0024184D419BE7052C00D083
:10480000A8E61249032002F0E1FF0122104B1A70C2
:10481000104B1C609EE6C046AFD60200F5D60200E3
:10482000A4350020C8250020E820002020D7020061
:1048300052D7020004E100E008E100E00400FA05BC
:1048400000ED00E073D70200642600209CD7020030
:10485000D02500206020002010B502F06BFC164A25
:104860000021164803F0A6FF154A0021154803F061
:10487000A1FF154A0021154803F09CFFE02200210A
:1048800092001348FEF7C2FA8022002192001148DC
:10489000FEF7BCFA802200210F48FEF7B7FA182075
:1048A000FEF7FCFF002002220C4B18600C4B186036
:1048B0000C4B1A6010BDC046D93E020034D4020031
:1048C000053F020030D40200313F020038D402001C
:1048D000A435002064260020D1250020CC20002013
:1048E000FC2000206020002070B53449032002F035
:1048F0006DFF334C142322003249042003F096F854
:104900006278237812021A43A3782F4E1B041A43AD
:10491000E37834601B0613432C4A93424BD1E023C7
:10492000E579A2792D029B0015439D4243D162791E
:10493000237912021A432649032002F063FF3268EA
:10494000537911791B020B43224909680B80507976
:10495000137900021843FEF78FFF33685A7A187AEA
:1049600012020243987A197B00040243D87A5C7CD5
:10497000000610435A7B240212020A43997B090461
:104980000A43D97B090611431A7C14439A7C12040A
:104990001443DA7C12062243FEF754FF0E480F4BF5
:1049A000858003600523836002F02AF903220C4B03
:1049B00000201A6070BD03220A4BF9E781D802007B
:1049C0001025002063D10200CC2500205AA5A55A4D
:1049D000C2D80200C825002004250020A4350020EC
:1049E000E820002060200020002213B50D4B0E4966
:1049F00003201A6002F0EAFE0C49032002F0E6FEF2
:104A000002F064FB6B46DC1D200002F073FBFFF735
:104A100091F82378002B03D00549032002F0D6FE3D
:104A2000002016BDA03500207CC8020044DE020034
:104A300089DE0200F0B58DB00B9316AB1B880A928D
:104A40000493DB08DBB205930723049A0991134012
:104A50000122110099400B000024013BDBB20890B9
:104A6000069302940394079212AB1F5D08AB1E5D80
:104A700004993500179BBD43621C1D55D200FF23CE
:104A80008A4200DD069B1D4028D02A001B490420D5
:104A9000009402F00BFF3B0032001949042002F0A1
:104AA000D7FE0026E700FFB2079B1D4212D00298F6
:104AB00022000130C3B2B8190293C3B20393114963
:104AC0003300042002F0C4FE039B029A0E49042026
:104AD00002F0BEFE01366D08082EE5D10134059BBB
:104AE000E4B2A342C0D20020029B834204D0039BC5
:104AF0001802029BC01880B20DB0F0BDBBE00200EE
:104B000014E102006AE10200A6E10200F0B585B0FE
:104B10000292039307220EAB1C880123224093408C
:104B200000220191013BE1080090C9B2DBB20AAE5C
:104B3000FF27551CE800BC46A04200DD9C466F469E
:104B4000B05CBA5C824310006246104004D1EAB205
:104B50009142EDD205B0F0BD0120FBE7F0B587B082
:104B60000492042205930CAB1C8801270023944671
:104B7000E408114D02900391E4B2DE00F6B2A342C4
:104B800017D8002002AAD25C019201993218014183
:104B9000D2B2394004D0A95C0131C9B2032906D888
:104BA0000130A9540828F0D10133DBB2E5E76146B2
:104BB000F6E707B0F0BDC046D1250020F0B50023D0
:104BC000072501268B4200D3F0BD074AD25C032A99
:104BD00007D91A0034002A409440DF08C25DA2437E
:104BE000C2550133DBB2EDE7D1250020F0B587B027
:104BF00005930CAB1D880391ED08EBB200930023E5
:104C0000049219001A0002900098DE00F6B2834266
:104C100013D8002402A8C05C01900198012520410E
:104C20003719FFB2284202D03A004919C9B20134FB
:104C3000082CF2D10133DBB2E6E70020814202D03A
:104C40001202511888B207B0F0BD0000F0B57549E6
:104C5000A5B0032002F0BAFD734803F00FFE012255
:104C6000724B734904201A6002F0B0FD714E10239C
:104C700032007149042002F0D9FE01F0AFFB08AD0B
:104C8000022800D08BE00CA8FEF746FD002414AFEC
:104C90003800FEF741FDE35D18AF38000793FEF7DB
:104CA000A1FDE35D079A13402B550134102CEED182
:104CB000FEF77AFD070010AC102200212000FEF75D
:104CC000A5F804351022310068460594049707F0D2
:104CD00051F90ECD0898FFF7ADFE10223100050006
:104CE0006846049707F046F90C980D990E9A0F9BA9
:104CF000FFF70CFF002800D06CE001F06FFB011EF5
:104D000000D06BE080224D48FEF780F80420EFB21F
:104D10002A004B4902F076FD78427841C0B200F09B
:104D2000A5FD002F32D047490320043402F04EFD88
:104D30000ECC1098FEF7BAFCFEF748FDC30725D548
:104D40004149012F5FD107232D0AADB25D433F4B8F
:104D50005D19AA79092A55D80C273D49032002F08C
:104D600051FDAB793B4C7B43185902F0A9F8AB7964
:104D70007B43E318586802F0A9F8AB795F43E41964
:104D8000A06802F0A9F80122334B1A60300000F04D
:104D9000F7FD0C220020314B1A6025B0F0BD01F068
:104DA0001DFB012800D16EE70CA8FEF7CDFC002406
:104DB0001CAF3800FEF7C8FCE35D20AF3800079356
:104DC000FEF728FDE35D079A13402B550134102CA4
:104DD000EED16DE70822224B1A608EE70097A26899
:104DE000E36810986168FFF7B9FE39002000FFF70B
:104DF000E5FE009710986168A268E368FFF7F6FE89
:104E0000050083E71749032002F0E0FC8020000240
:104E100002F056F88020400202F058F8C0208002CC
:104E2000AFE7C046D2DB02007825002088200020B2
:104E300017DC02005126002063D10200D12500209A
:104E400031DC02005FDC0200ADDC0200A435002092
:104E50000EDD0200FCE10200FC2000207420002096
:104E6000A020002046DD02001FB501F0B7FA02289D
:104E700046D16846FEF750FC6B4600201B78834203
:104E80003CD16B465B78834238D16B469B7883423A
:104E900034D16B46DB78834230D16B461B79834239
:104EA0002CD16B465B79834228D16B469B79834238
:104EB00024D16B46DB79834220D16B461B7A834237
:104EC0001CD16B465B7A834218D16B469B7A834236
:104ED00014D16B46DB7A834210D16B461B7B834235
:104EE0000CD16B465B7B834208D16B469B7B834234
:104EF00004D16B46D87B43425841C0B205B000BDD7
:104F000001F06CFA0128B4D06846FEF71DFCB3E747
:104F1000F0B55B4987B00400032002F057FCFFF7AF
:104F2000A3FF002800D189E05649032002F04EFC7F
:104F30000422554B1A6003AD2800FEF7E3FB6B8992
:104F40006F88EE88019301F049FA012800D07EE0D5
:104F5000002F00D075E03C27192500F08DFC4B4B4D
:104F60001A78002A03D000223C270F251A70FA264F
:104F7000B60033006B43DA17D1035A0C1143FA22FF
:104F8000D8030023520080185941FA227E43920030
:104F9000002306F0C5FEF217730CD103FA22194361
:104FA000002301905200F00380185941FA22002397
:104FB000920006F0B5FE06002B00019A3449042049
:104FC00002F046FC3B0032003249042002F040FC73
:104FD000314F380003F052FC304D280003F04EFCF6
:104FE000A17A637A09021943E37A2D4A1B04194313
:104FF000237B38001B060B431360042301991371B4
:1050000003F0F0FBA17A637A09021943E37A254A97
:105010001B041943237B28001B060B431360052345
:105020003100137103F0DEFB002319001E4A99546E
:105030000133102BFBD1002007B0F0BD1B4B1860D3
:1050400079E71B49032002F0C1FB2D8885E701F0B9
:10505000C5F902280AD1019B002B00D17BE7154935
:10506000013002F0B3FB2D89019F76E7002E00D1BD
:1050700071E71149032002F0A9FB3700AD886CE706
:1050800023DA02006ADA020060200020D025002026
:105090005ADB020095DB0200782500204025002025
:1050A000702500203825002051260020882000206F
:1050B000A9DA0200E1DA020022DB0200F0B555496C
:1050C00087B00400032002F081FBFFF7CDFE00282B
:1050D00000D17AE05049032002F078FB4F4803AD3D
:1050E00003F0CCFB4E4803F0C9FB2800FEF70AFB97
:1050F0006B896F88EE88019301F070F9012800D068
:105100006CE0002F64D13C2719230093FA25009B03
:10511000AD006B43DE175A0CF1031143FA22D8039A
:105120000023520080185941FA227D439200002347
:1051300006F0F6FDEA176B0CD103FA22194300239F
:1051400006005200E80380185941FA220023920019
:1051500006F0E6FD0500009B32003249042002F013
:1051600077FB3B002A003049042002F071FBA17A52
:10517000637A09021943E37A2C4A1B041943237BFF
:1051800026481B060B43136004233100137103F000
:1051900029FBA17A637A09021943E37A244A1B04A2
:1051A0001943237B1E481B060B431360052329006C
:1051B000137103F017FB002319001E4A99540133A1
:1051C000102BFBD1002007B0F0BD1B4B186085E70A
:1051D0001A49032002F0FAFA2B8896E701F0FEF84C
:1051E00002280BD1019B002B00D18CE71449013020
:1051F00002F0ECFA2B89019F009387E7002E00D183
:1052000081E71049032002F0E1FAAB8837000093F0
:105210007CE7C046AADD02006ADA02007825002099
:10522000402500205ADB020095DB020068250020A3
:10523000302500205126002088200020A9DA020015
:10524000E1DA020022DB020010B52A490400032043
:1052500002F0BCFAFFF708FE002847D026490320D9
:1052600002F0B4FAA17A637A09021943E37A234A75
:105270001B041943237B22481B060B43C8211360E0
:1052800004230903137103F0ADFAA17A637A0902CA
:105290001943E37A1B4A1B041943237B1A481B0654
:1052A0000B43F021136005234903137103F09AFAAD
:1052B000A17A637A09021943E37A144A1B04194359
:1052C000237B13481B060B4380211360062309022E
:1052D000137103F087FA00231A000E495A54013360
:1052E000102BFBD10C4B00201A6010BD0B4B18602B
:1052F000B8E7C04678D602006ADA020060250020CE
:105300007825002028250020402500209825002011
:10531000A82500205126002074200020882000208D
:10532000F0B5404E87B03100032002F04FFA3E49FD
:10533000032002F04BFA3100032002F047FAFEF797
:1053400073FB3A490200032002F05CFA96223849C6
:105350005200032002F056FADC2236499200032064
:1053600002F050FAA0223449032002F04BFA334BEA
:1053700003AD1B6832491A88032002F043FA280063
:10538000FEF7C0F9EB886C880193002C47D02F887A
:105390003A002C49032002F035FA22002A49032062
:1053A00002F030FA019B002B01D01C00AF883A00BC
:1053B0002649032002F026FA22002549032002F0A4
:1053C00021FA05222349032002F01CFA0522224972
:1053D000032002F017FA214A2149032002F012FAB1
:1053E000204A2149032002F00DFAF8221F499200B9
:1053F000032002F007FA1E4A1E49032002F002FAB7
:105400001D4A1E49032002F0FDF93100032002F07D
:10541000DDF93100032002F0D9F907B0F0BD3C24DA
:105420001927B5E774E20200BCE2020005E30200BE
:1054300021E302005DE3020092E30200C8250020A0
:10544000C5E30200E4E3020011E4020040E40200CC
:105450006DE402009CE40200E2E40200C9260000C0
:105460002AE50200BAE800005AE5020085E50200DC
:10547000C1070000B3E5020045170000DEE50200A9
:1054800010B50320034902F0A1F9FFF749FF0020FE
:1054900010BDC046E4D9020010B50749032002F050
:1054A00095F904201223054A054902F0BFFAFFF7D7
:1054B00037FF002010BDC04662D90200A43500208D
:1054C00063D10200F0B53B4C010AA170010CA27936
:1054D000E170010E2171617912020A43E179030042
:1054E00009040A43217A85B0090611430F000A0016
:1054F0001937FF372578607003970398824207D1E8
:1055000000952D4A2D49032002F0D0F901253DE0F8
:105510005078561A84466746907800023843D77808
:105520003F04074310790006384383423FD1107887
:10553000A8423CD18020A17A627A09021143E27A22
:10554000400212041143227B12060A431900FEF79F
:10555000EDFBA279637912021A43E37920001B0460
:105560001A43237A1B0613439B199A79597912021D
:105570001143DA791B7A12040A431B061343984736
:10558000051E06D00E49042002F020F9280005B0BF
:10559000F0BDA279637912021A43E3791B041A431E
:1055A000237A1B0613439B195B7A2370EEE70A32BA
:1055B000A3E7C04652200020CAD20200D9D202007E
:1055C000B1D20200044A13005072020A9A72020C0D
:1055D000000EDA72187370475220002010B50320B5
:1055E000024902F0F3F8002010BDC046AFE7020008
:1055F00010B50320024902F0E9F8002010BDC046B2
:10560000F1E7020010B50320024902F0DFF80020A4
:1056100010BDC046F2E9020010B50320024902F0B5
:10562000D5F8002010BDC046EAE6020010B5032000
:10563000024902F0CBF8002010BDC04622E702006C
:1056400010B50320024902F0C1F8002010BDC04689
:10565000C1E6020010B50849032002F0B7F8074977
:10566000074B0A004B72190A9172190C1B0E00208D
:10567000D172137310BDC04698E60200642000206A
:105680002439002010B51549032002F09FF8144A70
:10569000144C937A517A1B020B43D17A201D0904D2
:1056A0000B43117B07220906194306F063FCA2880D
:1056B0000D49042002F0A6F8E2880C49042002F00B
:1056C000A1F822890A49042002F09CF8A27A09492B
:1056D000042002F097F8002010BDC046A8E80200A0
:1056E0006420002024390020D6E80200FDE80200F2
:1056F0001FE9020041E9020010B50C49032002F045
:1057000065F80B4904208A7A4B7A12021A43CB7A45
:105710001B041A430B7B07491B0613431A88064BCD
:105720005A8002F06FF8002010BDC0466FE90200F9
:1057300064200020A0E902002439002010B50C49A3
:10574000032002F043F80B4904208A7A4B7A1202B4
:105750001A43CB7A1B041A430B7B07491B061343DE
:105760001A88064B1A8002F04DF8002010BDC04682
:105770004EE702006420002084E702002439002064
:1057800010B50320034902F021F801F069FC002064
:1057900010BDC0462DE8020010B50C49032002F0F0
:1057A00015F8FEF785F9FEF751F9FEF741F901F01A
:1057B00060FC01F067FC0320054902F007F801F0E6
:1057C00060FC0122034B00201A6010BD60E802005B
:1057D0008CE802007420002030B5214985B00320F8
:1057E00001F0F4FF1F4D1022AB7A6C7A1B022343A9
:1057F000EC7A6846240423432C7B24061C432100B6
:1058000006F0B8FB2B78042B1BD1E47B7B331C40C8
:1058100000F0E4FD022817D180231C436B46DC73A3
:10582000039B00980199029AFDF784FD0E4B1B78AB
:10583000002B06D100F0D2FD02280AD10420FDF78A
:10584000A5FD002005B030BD00F0C8FD0128E5D160
:10585000E2E700F0C3FD0128F0D00320EFE7C046E7
:10586000C6E902006420002064280020014B187063
:105870007047C04664280020014B18787047C04626
:1058800064280020F0B53A4C010AA170010CA279FD
:10589000E170010E2171617912020A43E17903007E
:1058A00009040A43217A85B0090611430F000A0052
:1058B0008C372578607003970398824207D1009552
:1058C0002C4A2D49032001F0F1FF01253DE05078DD
:1058D000561A84466746907800023843D7783F04CA
:1058E000074310790006384383423FD11078A8421D
:1058F0003CD18020A17A627A09021143E27A8002C7
:1059000012041143227B12060A431900FEF70EFA15
:10591000A279637912021A43E37920001B041A4327
:10592000237A1B0613439B199A7959791202114362
:10593000DA791B7A12040A431B0613439847051EA3
:1059400006D00E49042001F041FF280005B0F0BD4B
:10595000A279637912021A43E3791B041A43237A6A
:105960001B0613439B195B7A2370EEE70A32A3E709
:105970006420002005E60200D9D20200B1D2020064
:10598000044A13005072020A9A72020C000EDA7274
:105990001873704764200020054A937A507A1B02DE
:1059A0000343D07A00040343107B0006184370477A
:1059B0006420002010B50320024901F007FF0020F9
:1059C00010BDC04659EA020010B50549032001F098
:1059D000FDFE0320034901F0F9FE002010BDC04682
:1059E00011EB020053EB020010B50320034901F054
:1059F000EDFE01F0DDFB002010BDC046D3EA020041
:105A000010B50320034901F0E1FE01F0C1FB0020C5
:105A100010BDC04694EA0200F0B53A4C010AA170EC
:105A2000010CA279E170010E2171617912020A4321
:105A3000E179030009040A43217A85B0090611437C
:105A40000F000A0028372578607003970398824278
:105A500007D100952C4A2D49032001F027FF01258D
:105A60003DE05078561A84466746907800023843E5
:105A7000D7783F04074310790006384383423FD16B
:105A80001078A8423CD1C020A17A627A0902114361
:105A9000E27A800212041143227B12060A431900A3
:105AA000FEF744F9A279637912021A43E3792000E0
:105AB0001B041A43237A1B0613439B199A795979BD
:105AC00012021143DA791B7A12040A431B061343AC
:105AD0009847051E06D00E49042001F077FE2800E5
:105AE00005B0F0BDA279637912021A43E3791B0471
:105AF0001A43237A1B0613439B195B7A2370EEE744
:105B00000A32A3E77820002023EA0200D9D202005B
:105B1000B1D20200044A13005072020A9A72020CB7
:105B2000000EDA721873704778200020054A937AC5
:105B3000507A1B020343D07A00040343107B000613
:105B400018437047782000200368002B08D00749CD
:105B50000A004B72190A9172190C1B0ED172137341
:105B60000279034B1A600B230371704790200020C9
:105B7000A02000200368002B08D007490A004B72C0
:105B8000190A9172190C1B0ED17213730279034B0F
:105B90001A600B230371704790200020A020002082
:105BA0000368002B08D007490A004B72190A91724A
:105BB000190C1B0ED17213730279034B1A600B235D
:105BC0000371704790200020A02000200368002B64
:105BD00008D007490A004B72190A9172190C1B0E62
:105BE000D17213730279034B1A600B230371704750
:105BF00090200020A020002010B50649032001F0CD
:105C0000E5FD0122044B032004491A7001F0DEFD7A
:105C1000002010BD6CED020066280020AEED0200F1
:105C200010B50649032001F0D1FD0222044B0320E8
:105C300004491A7001F0CAFD002010BDE9EC020011
:105C40006628002031ED020010B50549032001F05F
:105C5000BDFD0320034901F0B9FD002010BDC04681
:105C6000E2EF020030F0020010B50549032001F018
:105C7000ADFD0320034901F0A9FD002010BDC04681
:105C8000ACEC020030F0020010B5002407490320FC
:105C900001F09CFD064802F0F1FD064B0649032089
:105CA0001C7001F093FD200010BDC04677F102008A
:105CB000782800206628002030F0020070B505002A
:105CC0000F49032001F082FD0E4C200002F0D6FDAA
:105CD000A97A6B7A09021943EB7A0B4A1B04194320
:105CE0002B7B20001B060B43F02113600723890345
:105CF000137102F077FD0122044B00201A7070BD71
:105D0000E0ED02007828002070280020662800209E
:105D10000122064B10B5064906481A7002F08EFEA5
:105D2000002801D002F038FA10BDC0466A290020D0
:105D300028F20200A420002070B5154905000320B8
:105D400001F044FD134C14492288032001F05AFD50
:105D50002388012B15D9A97A6B7A09021943EB7AAA
:105D60000E4A1B0419432B7B0D481B060B43802155
:105D7000136004234902137102F034FD00202080D7
:105D800070BD084802F07AFD0322074B1A60F5E760
:105D900062F0020040290020A2F00200C828002082
:105DA000D0280020A0280020A020002070B50400EA
:105DB0002249032001F00AFD214802F05FFD214D38
:105DC000280002F05BFDA17A637A09021943E37AA5
:105DD0001D4A1B041943237B28001B060B43A021EB
:105DE000136006230903137102F0FCFC174D280011
:105DF00002F044FDA17A637A09021943E37A144A56
:105E00001B041943237B28001B060B43F02113605E
:105E100007238903137102F0E5FC01220D4B1A7070
:105E2000FDF7D4FC830702D50520FDF7AFFA0A4938
:105E3000032001F0CBFC002070BDC0469EEF0200A5
:105E4000D028002008290020F028002078280020F1
:105E50006828002066280020AEED020010B5041E60
:105E600005D002000849042001F0CCFC10BD074910
:105E7000042001F0ABFC064B06491A78042001F01F
:105E8000C1FC054B1C70F1E7BBF10200EEF1020012
:105E9000282900200DF202006A290020094B0A4936
:105EA0001A68FA239B00C046C046C046C046C0469A
:105EB000C046C046C0468A4200D0C046013BF2D12F
:105EC0007047C046342100200024F400F0B5414959
:105ED0008FB0032001F07AFC002102AC3E4B10226F
:105EE00020001970FCF792FF05230293013B6360C9
:105EF000CC235B04A3600323384D23730822384B63
:105F00002100280002F07EFD002801D002F044F9B3
:105F10000D23344A1370FFF7FBFEFFF7BFFF324B30
:105F20001B78002B46D1314A12784A2A4CD12200E4
:105F30002F49C1C9C1C2C1C9C1C2C1C9C1C2C1C938
:105F4000C1C206222100280002F0A8FD2A23254A0A
:105F50001370FFF7DDFEFFF7A1FF234B1B78002B2B
:105F60002DD1224A6C4611780122224811434170FA
:105F70001F4869463030C0C8C0C4280002F08EFDFA
:105F80001D4A00211D4802F015FC1D4A00211D4834
:105F900002F010FC1C4A00211C4802F00BFC1C4AB9
:105FA00000211C4802F006FC012200201A4B1A6056
:105FB0000FB0F0BD1949032001F008FCADE7174907
:105FC000032001F003FCC6E71549032001F0FEFBA6
:105FD000D6E7C046DBF0020066280020A42000209F
:105FE00044290020652800206A2900202829002053
:105FF000A4EB02008C200020495B0200A4EC02000C
:10600000755B0200A8EC0200A15B0200A0EC02009C
:10601000CD5B02009CEC0200A02000201BF10200DE
:106020002EF1020070B52F490400032001F0CEFBD1
:106030000C232D4E3370FFF76BFEFFF72FFF2B4D18
:106040002B78002B44D12A4B1B785B073AD51623BB
:106050003370FFF75DFEFFF721FF2B78002B3CD15B
:10606000244D280002F00AFCA17A637A0902194340
:10607000E37A214A1B041943237B28001B060B43A8
:106080008021136004234902137102F0ABFB1B4D06
:10609000280002F0F3FBA17A637A09021943E37A3C
:1060A000174A1B041943237B28001B060B43A0211E
:1060B000136005238902137102F094FB114A1388BF
:1060C000013313801049032001F080FB002070BDD4
:1060D0000E49032001F07AFBAFE70C49032001F0E1
:1060E00075FBB8E7C4EE0200652800206A2900208D
:1060F00028290020D0280020C0280020A028002027
:10610000982800204029002013EF02001BF1020014
:1061100070B51649032001F059FB0C23144D2B7068
:10612000FFF7F6FDFFF7BAFE124C2378002B12D1D1
:10613000114B1B785B070CD516232B70FFF7E8FD7E
:10614000FFF7ACFE2378002B0AD10C4A13880133E9
:106150001380002070BD0A49032001F037FBE1E7FE
:106160000749032001F032FBEAE7C0464DEF020089
:10617000652800206A2900202829002040290020C5
:106180001BF1020070B520490500032001F01EFB41
:106190000C231E4E3370FFF7BBFDFFF77FFE1C4C38
:1061A0002378002B25D11B4B1B785B071FD51623AB
:1061B0003370FFF7ADFDFFF771FE2378002B1DD183
:1061C000154C200002F05AFBA97A6B7A0902194398
:1061D000EB7A124A1B0419432B7B20001B060B434E
:1061E000A021136006230903137102F0FBFA0020BB
:1061F00070BD0B49032001F0E9FACEE708490320FE
:1062000001F0E4FAD7E7C0467BEE020065280020E3
:106210006A2900202829002008290020F8280020C9
:106220001BF1020070B520490500032001F0CEFAF1
:106230000C231E4E3370FFF76BFDFFF72FFE1C4C37
:106240002378002B25D11B4B1B785B071FD516230A
:106250003370FFF75DFDFFF721FE2378002B1DD182
:10626000154C200002F00AFBA97A6B7A0902194347
:10627000EB7A124A1B0419432B7B20001B060B43AD
:10628000A021136006230903137102F0ABFA00206A
:1062900070BD0B49032001F099FACEE708490320AD
:1062A00001F094FAD7E7C0462CEE020065280020E2
:1062B0006A29002028290020082900200029002020
:1062C0001BF10200F0B53A4C010AA170010CA27951
:1062D000E170010E2171617912020A43E179030034
:1062E00009040A43217A85B0090611430F000A0008
:1062F0008C372578607003970398824207D1009508
:106300002C4A2D49032001F0D1FA01253DE05078B7
:10631000561A84466746907800023843D7783F047F
:10632000074310790006384383423FD11078A842D2
:106330003CD18020A17A627A09021143E27AC0023C
:1063400012041143227B12060A431900FDF7EEFCEA
:10635000A279637912021A43E37920001B041A43DD
:10636000237A1B0613439B199A7959791202114318
:10637000DA791B7A12040A431B0613439847051E59
:1063800006D00E49042001F021FA280005B0F0BD26
:10639000A279637912021A43E3791B041A43237A20
:1063A0001B0613439B195B7A2370EEE70A32A3E7BF
:1063B00090200020FCEB0200D9D20200B1D20200F2
:1063C000054A937A507A1B020343D07A00040343B0
:1063D000107B00061843704790200020014B18786E
:1063E0007047C046662800201722F0B5194B1A4C9A
:1063F00087B01A70587002A923000A00383361CBA5
:1064000061C2164D1B68280013600023022202F0AF
:1064100045FB2A22124B1A70FFF77AFCFFF73EFD6C
:10642000104B1B78002B10D10F4A10481178012215
:106430001143417020006C464830C0C8C0C4694652
:10644000280002F02BFB07B0F0BD0949032001F042
:10645000BDF9E3E768290020A4EB0200A420002096
:10646000652800206A290020282900208E2000208D
:106470001BF102000368002B08D007490A004B7289
:10648000190A9172190C1B0ED17213730279034B06
:106490001A60062303717047BC200020CC20002026
:1064A00010B50849032001F091F90749074B0A008C
:1064B0004B72190A9172190C1B0E0020D1721373C2
:1064C00010BDC046D5F20200BC2000206C2900207F
:1064D00010B504000E49032001F078F9A17A637A1F
:1064E00009021943E37A0B4A1B041943237B0A4828
:1064F0001B060B43F021136002234903137102F0C2
:1065000071F9172003F0DAFB03F086FA002010BDC2
:106510003DF30200782900208029002010B50400F6
:106520000D49032001F052F9A17A637A0902194357
:10653000E37A0A4A1B041943237B09481B060B43D1
:10654000F021136002234903137102F04BF903F0A9
:1065500063FA002010BDC046A4F20200702900209A
:106560008029002007B51149032001F02FF90021EF
:106570000F4A104802F01EF9032301A80E490370C8
:1065800003F01CFA002801D001F006FE0B4803F0CE
:1065900033FA01210A4803F045FA002801D001F03E
:1065A000FBFD0122074B00201A600EBD09F302001B
:1065B00075640200A0F20200C9650200D02000202C
:1065C0006C290020CC20002070B504780500002C38
:1065D00010D12B899C420ED3172003F077FB0121A9
:1065E000094803F01FFA002801D001F0D5FD03226D
:1065F000064B1A6070BD6A6863009A5E0449032006
:1066000001F000F90134E4E76C290020CC200020DF
:1066100048F20200F0B53A4C010AA170010CA279CF
:10662000E170010E2171617912020A43E1790300E0
:1066300009040A43217A85B0090611430F000A00B4
:1066400028372578607003970398824207D1009518
:106650002C4A2D49032001F029F901253DE050780D
:10666000561A84466746907800023843D7783F042C
:10667000074310790006384383423FD11078A8427F
:106680003CD1C020A17A627A09021143E27AC002A9
:1066900012041143227B12060A431900FDF746FB40
:1066A000A279637912021A43E37920001B041A438A
:1066B000237A1B0613439B199A79597912021143C5
:1066C000DA791B7A12040A431B0613439847051E06
:1066D00006D00E49042001F079F8280005B0F0BD7D
:1066E000A279637912021A43E3791B041A43237ACD
:1066F0001B0613439B195B7A2370EEE70A32A3E76C
:10670000BC2000206DF20200D9D20200B1D20200FA
:10671000054A937A507A1B020343D07A000403435C
:10672000107B000618437047BC20002028DF70470C
:106730000368002B08D007490A004B72190A9172AE
:10674000190C1B0ED17213730279034B1A600E23BE
:1067500003717047D8200020E820002010B50320E6
:10676000024901F033F8002010BDC0468EF402004B
:1067700010B50320024901F029F8002010BDC046E1
:1067800078F5020010B50320024901F01FF800203F
:1067900010BDC046A8F5020010B50320024901F063
:1067A00015F8002010BDC046EBF4020010B5032020
:1067B000024901F00BF8002010BDC0461AF5020096
:1067C00010B50320024901F001F8002010BDC046B9
:1067D00000F4020010B50949032000F0F7FF084B50
:1067E00000241868FFF7A2FF0C23064A0649074851
:1067F0001460137101F0F6FF200010BD62F4020076
:10680000D4290020A4290020CD0C0000AC290020B0
:10681000F7B5274D274A2B681268934204D3092203
:10682000254B00201A60FEBD827A447A1202224370
:10683000C47A013324042243047B9B0024061443BE
:10684000A288181F216893422ED9032309181A40E1
:1068500001A805F08FFB0121184A194B995011002E
:10686000053AFF3A170098580028FCD01548019EB9
:1068700002681660DE59002EFCD000265E5080268D
:10688000F60099590029FCD004322B6802600E4AA8
:1068900001332B6013005472220A9A72220C240EC8
:1068A000DA721C730822BBE709180422D0E7C0463D
:1068B000CC290020D0290020E82000200405000079
:1068C00000E00140A0290020D8200020F0B52A4A8D
:1068D0002A4D12682B6885B0934207D30522284BB6
:1068E0001A6000232B60002005B0F0BD827A447A44
:1068F00012022243C47A234924042243047B012048
:1069000024061443204A505001910539FF390F00E5
:106910005658002EFCD01D4E316808680390D0599F
:106920000028FCD00027019817508027FF00D0597D
:106930000028FCD0043131600133A2889B00191F6C
:106940002068934215D9032340181A4003A905F083
:1069500011FB2B680E4A01332B6013005472220A7C
:106960009A72220CDA720422240E1C73044B1A60F1
:10697000B9E740180422E9E7D0290020CC290020FB
:10698000E82000200405000000E00140A0290020CC
:10699000D820002010B5837A447A1B022343C47A9E
:1069A000154924042343047B032024061C43A288A6
:1069B00000F028FF114A13005472220A9A72220C26
:1069C000DA72220E1A7308220D4B1A600D4B1A68E8
:1069D0000D4B1B685343A26892009B180B4A13602F
:1069E000A1880B4A8B08890704D100201360094B4A
:1069F000186010BD0133F8E748F50200D8200020E8
:106A0000E8200020D8290020D4290020A029002037
:106A1000D0290020CC29002010B5837A447A1B02AB
:106A20002343C47A154924042343047B032024060A
:106A30001C43A28800F0E6FEA188114A8B08890752
:106A40001AD113600F4A002013005472220A9A725E
:106A5000220CDA72220E1A7304220B4B1A600B4BB3
:106A60001A680B4B1B685343A26892009B18094A93
:106A70001360094B186010BD0133E2E7BDF402005A
:106A8000D0290020D8200020E8200020D82900208C
:106A9000D4290020A0290020CC29002010B50D49C0
:106AA000032000F093FE80235B051A690A490B4816
:106AB0000A605B690A49013B0B605343094A0021A4
:106AC0001360094A01F076FE0122084B00201A608B
:106AD00010BDC04630F40200D8290020FCF30200AB
:106AE000D4290020A029002031670200E8200020DE
:106AF00010B50320024900F069FE002010BDC04619
:106B000000F40200F0B53A4C010AA170010CA27920
:106B1000E170010E2171617912020A43E1790300EB
:106B200009040A43217A85B0090611430F000A00BF
:106B300082372578607003970398824207D10095C9
:106B40002C4A2D49032000F0B1FE01253DE050788C
:106B5000561A84466746907800023843D7783F0437
:106B6000074310790006384383423FD11078A8428A
:106B70003CD1A020A17A627A09021143E27AC002D4
:106B800012041143227B12060A431900FDF7CEF8C6
:106B9000A279637912021A43E37920001B041A4395
:106BA000237A1B0613439B199A79597912021143D0
:106BB000DA791B7A12040A431B0613439847051E11
:106BC00006D00E49042000F001FE280005B0F0BDFB
:106BD000A279637912021A43E3791B041A43237AD8
:106BE0001B0613439B195B7A2370EEE70A32A3E777
:106BF000D82000206FF30200D9D20200B1D20200E7
:106C0000044A13005072020A9A72020C000EDA72E1
:106C100018737047D8200020054A937A507A1B02D7
:106C20000343D07A00040343107B000618437047E7
:106C3000D82000200368002B08D007490A004B72B7
:106C4000190A9172190C1B0ED17213730279034B3E
:106C50001A60062303717047EC200020FC200020FE
:106C60000368002B08D007490A004B72190A917279
:106C7000190C1B0ED17213730279034B1A60062391
:106C800003717047EC200020FC2000200368002BDB
:106C900008D007490A004B72190A9172190C1B0E91
:106CA000D17213730279034B1A6006230371704784
:106CB000EC200020FC20002010B50549032000F046
:106CC00085FD0320034900F081FD002010BDC04672
:106CD00038F7020068F7020010B5817A437A09029A
:106CE0001943C37A134A1B041943037B04001B0690
:106CF0000B431360022313710F4B1048196801F006
:106D000071FDA17A637A09021943E37A0C4A1B04E4
:106D10001943237B0B481B060B431360032313719A
:106D2000094B196801F05EFD182002F0C7FF002032
:106D300010BDC0463C2A002008210020442A002023
:106D4000E4290020EC2900200021002010B507498B
:106D5000032000F03BFD064801F090FD054801F0DE
:106D60008DFD182002F0B2FF002010BD0EF70200CA
:106D7000442A0020EC29002010B5182002F0A6FFBC
:106D8000002010BDF8B52F490400032000F01EFDBF
:106D90002D4F2121386804F04DFE2C4902000420BB
:106DA00000F030FD2A4E2121306804F043FE2949CD
:106DB0000200042000F026FD274D2121286804F060
:106DC00039FE26490200042000F01CFDA17A637AF6
:106DD00009021943E37A224A1B041943237B214801
:106DE0001B060B43136002233968137101F0FAFC90
:106DF000A17A637A09021943E37A1B4A1B041943F7
:106E0000237B1A481B060B4313600323316813715D
:106E100001F0E8FCA17A637A09021943E37A144A83
:106E20001B041943237B13481B060B4313600423E5
:106E30002968137101F0D6FC182002F03FFF0020F2
:106E4000F8BDC0465EF602000821002089F6020067
:106E500000210020B5F6020004210020E1F6020026
:106E6000342A0020442A0020DC290020EC290020BC
:106E70000C2A0020142A002010B50A49032000F033
:106E8000A5FC094A0021094801F094FC084A0021A8
:106E9000084801F08FFC084A0021084801F08AFCEC
:106EA000002010BD34F60200356C020030F60200FE
:106EB000616C020028F602008D6C02002CF60200C4
:106EC000014B18607047C04608210020014B186034
:106ED0007047C04600210020014B18607047C04633
:106EE00004210020F0B53A4C010AA170010CA279EE
:106EF000E170010E2171617912020A43E179030008
:106F000009040A43217A85B0090611430F000A00DB
:106F100046372578607003970398824207D1009521
:106F20002C4A2D49032000F0C1FC01253DE050789A
:106F3000561A84466746907800023843D7783F0453
:106F4000074310790006384383423FD11078A842A6
:106F50003CD1E020A17A627A09021143E27AC002B0
:106F600012041143227B12060A431900FCF7DEFECD
:106F7000A279637912021A43E37920001B041A43B1
:106F8000237A1B0613439B199A79597912021143EC
:106F9000DA791B7A12040A431B0613439847051E2D
:106FA00006D00E49042000F011FC280005B0F0BD09
:106FB000A279637912021A43E3791B041A43237AF4
:106FC0001B0613439B195B7A2370EEE70A32A3E793
:106FD000EC200020D7F50200D9D20200B1D2020085
:106FE0003CDF704710B5002003F0DCFB002801D027
:106FF00001F0D2F803F08EFC002801D001F0CCF8AB
:10700000FFF7EEFF002801D001F0C6F810BD76DFD3
:1070100070478ADF70478BDF704710B501F0BCF80E
:1070200010BD0000022210B5034B044903201A6072
:1070300000F0CCFB10BDC046A0200020A9F7020044
:1070400010B50378002B08D1044B3B211888FFF7BB
:10705000DEFF002801D001F09FF810BD3C39002070
:1070600010B5032004F010F8002801D001F094F8C6
:1070700010BD10B5FBF768FF002801D001F08CF8B7
:1070800010BD704710B588B001AC1C220021200053
:10709000FBF7BCFEA02292026260F02200231203E2
:1070A000A260032201932374064B20006361064B08
:1070B0002273A36104F0CCF9002801D001F06CF830
:1070C00008B010BD417002001B700200002310B513
:1070D000064A0521180001F01BFB002801D001F031
:1070E0005BF80349032000F071FB10BD642A002007
:1070F000BDF7020037B504000C4A0D49032003F028
:107100005FFB002801D001F047F86B46DD1D290028
:10711000002003F055FC002801D001F03DF82B7849
:10712000023B5A425341237037BDC046E93C02003E
:10713000CD0C000007B5002103226846FBF766FE70
:107140006946172002F064FD002801D001F024F800
:107150006946182002F05CFD002801D001F01CF8FF
:107160000422094901A804F005FF084A01A90220E8
:1071700002F0B6FD002801D001F00EF80121022036
:1071800002F014FE07BDC046A5F7020025700200FC
:1071900010B5FFF740FF0548FFF73BFF082302004B
:1071A0009A4301D000F0F8FF10BDC0460C2100202A
:1071B00010B5FFF730FF10BDA2DF7047F0B599B0F2
:1071C00007931EAB1C781FAB1B8811AF059006916F
:1071D000049200211C223800039309AEFBF716FE2F
:1071E000142200210CA8FBF711FE0AAD0322002196
:1071F0003000FBF70BFE032200212800FBF706FE00
:10720000012102230A00B3700E331A4323000B40FE
:107210008B407270327062080A40D200A00813439B
:107220000840E20880000A402409120103430C4090
:10723000134364011C4330233C701C4200D07E6128
:107240006B461B7F0BA98B706B461B8A01220B8040
:10725000102318000424AB781043053293432343D2
:10726000AB706B469B890CAA93816B469B892870F7
:107270001381209B68700C91136111A9219B0698C2
:107280005560FFF799FF0500039B049A0193059B46
:10729000044900930300200000F03EFB280019B0D1
:1072A000F0BDC046DFF702001FB501236A46137028
:1072B000034B10720191684606CB904705B000BDA4
:1072C000DC2A0020F8B51C230679424C7343E318EE
:1072D000DB7E050094460820002B7AD10868431C09
:1072E0000CD00123A1278340A020FF00C005C3517B
:1072F00003270B68C133FF339B001F504B685A1C98
:1073000006D0A0200027C133FF339B00C0051F50CB
:1073100028688F69304BC750087D4B7D2F68034329
:107320002E483B502B682E484A680F681A502D484B
:107330001F500B7D012B21D18B685A1C06D0A02039
:107340000027C133FF339B00C0051F50C868431C92
:107350000CD00123A1278340A020FF00C005C3510A
:107360000327CB68C133FF339B001F50A1202B683C
:10737000CA688F68C0001A5008301F501C2362462C
:107380007343E01842600A69E2506346002B11D053
:1073900000222B68097FFC331A622B68FC339A6445
:1073A000C1232868104A9B00C2502B68180B40B2BA
:1073B00002F09CFBA02304212A68DB00D1501C238F
:1073C000002001227343E318D87518769875DA7691
:1073D0009876F8BDDC2A0020240500006C0500002A
:1073E000140500000C05000080000200F0B50379D0
:1073F00085B00193A02300220168DB00CA50019BE5
:107400001C325A432D4B9B185B68002B0CD0C223B7
:107410002B4A01689B00CA5001220368DB03DB0E84
:107420009A401300274AD367A126274B01689C4640
:10743000264FF600CA59CB58012402938B59654652
:107440000393A2236442DB00CB584C51CC5101681A
:10745000A220C0008C510C50511C06D0A02102204B
:10746000C132FF329200C9055050029A013207D052
:10747000A0210220029AC905C132FF329200505069
:107480005A1C06D0A0220221C133FF339B00D20533
:107490009950039B013307D0A0220221039BD20500
:1074A000C133FF339B0099501C22019B5A43034B6D
:1074B0009B180022DA765A6005B0F0BDDC2A002065
:1074C0008402020004E100E0140500000C05000045
:1074D0001C23F7B5067917005E43334A9619B57D2C
:1074E0001122002D5DD1B1600121B582B77502680E
:1074F0000679FC32156202687343916001680A00E4
:10750000FC321562284AD3189A8A9F68BA5C94465E
:1075100064469A8A013292B29A82244A8C505968FF
:1075200001922A0000293CD19A7D009280225200CB
:1075300019009D8A009C1431A5421DD2016802E009
:107540009D8A954204D00D00FC352D6A002DF7D0A0
:107550001D009C8A14359442EAD00A000024FC32B3
:1075600014622A88BA5C944664462A88013292B230
:107570002A80019A8C50D9E7802309885B000F226A
:10758000994208D003681900FC310A6A002AFCD02D
:107590000122DA6000221C235E43034B9C19002366
:1075A000A3751000FEBDC046DC2A00201C050000AB
:1075B0001C2302795A43034B9B18987D431E984124
:1075C000C0B27047DC2A0020C12330B54D4C9B006F
:1075D000E25885B04C4D92054CD5AA6A002A49D094
:1075E00000238122AB62C22392009B00E250474BF2
:1075F0009A7E002A01D101326260022269460A7035
:107600009021C90062586846625069460392DA7D4B
:107610000A72DA6801920022DA751A7606CB904770
:107620002B6A002B0FD00022384B988A997D2A6252
:1076300088425BD29A8A9968895C9A8A013292B2AE
:107640009A82334BE150AB6C002B11D00023AB641A
:107650002E4B9A7E002A01D001222260DA7D002A78
:1076600006D00022587EDA75C0B2D968FFF71CFE3A
:1076700005B030BDE3585B07D2D5EB68002BCFD007
:10768000A322224BD200D97D002914D1E960A2584F
:107690005A7ED97D9142C3D11A7E002A16D0DA755E
:1076A0001A69D968DA600022587E1A76C0B25A7612
:1076B000FFF7FAFDB4E70021E960597ED868A258C7
:1076C00042545A7E0132D2B25A76E1E79A7E002ABB
:1076D00001D1013262608121C22289009200A15051
:1076E0000022587EDA75C0B2D968E1E70029AAD035
:1076F000684601729968027001919A7506CB9047AD
:10770000A1E7C04600200040FC200040DC2A002009
:107710001C050000F7B56B46DD1D00230F000600B9
:1077200028002B7001F0EEF9114AB41C13683B607D
:1077300097685168136879180131581CC91AA14219
:1077400011D20024A14209D029260A493B40023324
:1077500089029B003143D31810605960287801F0EA
:10776000EFF92000FEBD361816600124F6E7C0468A
:10777000F82A00201FF8020010B5012000F002FCDA
:1077800010BD0000FF22054B9A6000221A605A606B
:107790008222D2009850024A99507047F82A00205D
:1077A0001404000070B50600002000F0EBFB041E7E
:1077B00009D100F023FC050000F024FC3200010098
:1077C0002800FFF7DFFF200070BD0000F7B50C4C6C
:1077D00006000F00002001A9A568FFF79BFF002805
:1077E0000CD00721019B0E402B40F60006390233D6
:1077F000BF0231439B003943E3185960F7BDC046CF
:10780000F82A0020F0B5114E85B004000F000120C9
:1078100003A90192B568FFF77DFF002814D0072364
:10782000039A1C40E4003A331C4313002B400233FC
:107830000132BF029B001540F318274302355F60F9
:10784000AD00019B7619736005B0F0BDF82A0020E9
:10785000F0B5154E85B005000F00022003A9009277
:107860000193B468FFF756FF00281BD00723039A43
:107870001D40ED007A331D43130023400233BF0245
:107880009B00F3182F435F60531C234002330232E6
:107890009B0000991440F31802345960A400019B26
:1078A0003619736005B0F0BDF82A0020F0B5194E06
:1078B00085B005000F00032003A900920193B4686E
:1078C000FFF728FF002822D00723039A1D40ED0070
:1078D000BA331D43130023400233BF029B00F31849
:1078E0002F435F60531C2340023300999B00F31821
:1078F0005960931C2340023303329B0001991440CA
:10790000F31802345960A4000A9B3619736005B05D
:10791000F0BDC046F82A0020F0B51D4E85B0050028
:107920000F00042003A900920193B468FFF7F2FE50
:1079300000282AD007231D400223039AFF33ED00BD
:107940001D43130023400233BF029B00F3182F4353
:107950005F60531C2340023300999B00F318596069
:10796000931C2340023301999B00F3185960D31CE8
:107970002340023304329B000A991440F318023466
:107980005960A4000B9B3619736005B0F0BDC0466A
:10799000F82A0020F0B5244D85B006000F0006201F
:1079A00003A900920193AC68FFF7B4FE002838D019
:1079B00007231E408223F600FF331E43039BBF02B2
:1079C0001A00224002329200AA18374357605A1C0C
:1079D0002240023200999200AA1851609A1C22405B
:1079E000023201999200AA185160DA1C2240023238
:1079F0000A999200AA1851601A1D224002320B996E
:107A00009200AA1851605A1D063322401C400232CF
:107A1000023492000C99A4000D9BAA182D195160F4
:107A20006B6005B0F0BDC046F82A0020F0B585B007
:107A30000090D81C1E4C80100191013003A9160043
:107A40001D00A768FFF766FE002825D00723022146
:107A5000009A1A40D3001943039BAA0511431A0048
:107A60003A40981C023201333B409200A218023384
:107A700051609B00019AE3185A60A3680390384054
:107A80005F1C3F1A03308000BF002018AF4205D3AF
:107A90002A00310004F06EFA05B0F0BD3A00310062
:107AA00004F068FA2000EA1B92B2F1190C30F1E7F9
:107AB000F82A0020034B58681B68C01A43425841FB
:107AC000C0B27047F82A0020F0B58FB0FFF7F2FF80
:107AD00003000020834200D07FE00322544E7768E9
:107AE000B368791C04933B4002339B00F3185D6834
:107AF0002B0013403ED0022B00D070E04B1C0593AE
:107B0000049B059A19400231890071184B6806934D
:107B1000AB0D07932B049B0D9C46049B93430133B1
:107B20009B00AA0D9A4232D9002B00D17AE0049929
:107B3000059ADCB2AB0D0A40191B330003329200E8
:107B4000B218C9B20C3302930092394B394A0391EF
:107B500001949C5800216346A806069A400FA0474E
:107B6000AB0D984226D1C11C059B8908CC18304B1F
:107B70005C602CE0AF0D2D04AD0D7F19049B7F18C8
:107B80003B4002339B00F318791C5D68B0E700218D
:107B9000AB0D0193049A059BA806134003339B0089
:107BA000F3180093234B03910291F458400F63465E
:107BB000069AD4E7204B80051D40049B000C3B40F7
:107BC0001F001B4B0237BF000543DF197D60FFF725
:107BD00071FF030001205840C0B20FB0F0BD002477
:107BE000AB0AAF0505933F0F08AB0819BC420CD395
:107BF000CC198221A806C90000977558400F059A34
:107C00000021A8470028B2D1E1E7A2009446049AD7
:107C1000013410400230064A800010186246406865
:107C20009850E2E76A46147F320019000C328AE766
:107C3000F82A0020140400003F00FFFF0378012B06
:107C400001D1014A13707047122F002070B5060051
:107C50000D001400002817D004220C49280004F05D
:107C600089F980212368281D043323603368084A7A
:107C7000490004F089F90023984203DB23681818AF
:107C800020600123180070BD2060FAE750F8020060
:107C900055F80200F0B51C000023584FCBB0380057
:107CA000079116000993FFF783FC051E02D0002000
:107CB0004BB0F0BD099A0AAB9918079809AAFFF7CB
:107CC000C5FF0028F3D0509B062B16D8180003F0F0
:107CD0009DFE04333F4C5B6C7F00300004F0A8F93C
:107CE000050009982B18FF2B05D80AAB18182A0095
:107CF000310004F03FF9002DD9DB099B5D19802389
:107D00002C1D09955B009C42D1D80AAB581904225E
:107D10003B4904F02FF93B4D22000AA928000994A1
:107D200004F028F9E2B229003800FFF7D1FB030084
:107D300058425841C0B2BBE7802109980AAB4900BC
:107D4000091A32001818236804F01EF90500D2E75A
:107D5000802109980AAB4900091A18186368320093
:107D60000093236804F010F9F0E7802109980AAB2A
:107D70004900091A1818A368320001936368009338
:107D8000236804F001F9E1E7802109980AAB490072
:107D9000091A1818E36832000293A3680193636814
:107DA0000093236804F0F0F8D0E7802109980AAB2B
:107DB0004900091A1818236932000393E3680293F3
:107DC000A368019363680093236804F0DDF8BDE7BE
:107DD000802109980AAB4900091A18186369320012
:107DE000049323690393E3680293A3680193636890
:107DF0000093236804F0C8F8A8E7C0461C210020BF
:107E000050F80200132F0020F0B51C000023C9B069
:107E100007930B0016005A1E93410A225B421A4038
:107E200055480D000292FFF7C3FB002875D1002CC6
:107E300019D1079A08AB9918280007AAFFF706FF7F
:107E400000286AD0300004F0F3F80500C22800D9F9
:107E5000C225079A08AB981831002A0004F08AF866
:107E6000079B5D190795519A202794464F9B6344C1
:107E70000493079B029908AAD21831335B1808A90A
:107E8000CB180193029BD3180393039B9A4247D1CB
:107E90001D00019B01330093019B11330593049B4B
:107EA000A34240D8009B2F70013B6F70AF701F70D2
:107EB000009B033501330093009A059B9342EED15A
:107EC0000D23019A07981374033B5374039B4330AB
:107ED00030331F70029B0422C01808AB079027495B
:107EE000181804F047F8079B254E1D1D2A0008A905
:107EF0003000079504F03EF8EAB21F4D310028002B
:107F0000FFF7E6FA002808D12800FFF751FB002808
:107F100003D1049B07909C42ABD3200049B0F0BD35
:107F200017700132B1E74F9BA34220D94E9B1E5DD3
:107F30003111CAB213003733092900DC073B2B701B
:107F40000F2333401A003732092B01D830331A007F
:107F50006A70AF7003F0EEFF682280194378934394
:107F600000D12E26009B0134013B1E70A0E74F9BE1
:107F7000509AE31AD65CDBE71C21002050F802007F
:107F8000132F0020F0B5184E89B033780500002B70
:107F900004D0164B00201B78AB4222D06A46144B0B
:107FA0006C4683CB83C283CB83C203CB03C20F2334
:107FB000104F009301330193083B039338000233C1
:107FC0000293FFF713FA0022954200D10A4A2100DA
:107FD0003800FFF777F9002803D101233370034BF2
:107FE0001D7009B0F0BDC046112F0020102F0020D9
:107FF00030F802001C2100203D7C02000048704740
:10800000957C020000487047097E020070B500248C
:108010000125174B1B78A34200D870BD2900154AD3
:10802000E3001668144AF6183078136881400B4252
:108030001AD08B43136001F0FBFE290032780F4BFE
:1080400091401B680B40010091408B420CD173683A
:10805000002B09D0717801394E427141091A48420A
:1080600041411000C9B298470134E4B2D1E7C0469B
:1080700013300020403000203C30002038300020F9
:10808000F8B5124E0700300000F0F8FB002817D1B9
:108090000124BC400E4D2B68234214D1380001F05E
:1080A000C7FE0C4B1A6800280BD022431A602B68BD
:1080B00000221C43084B300019682C6000F092FB32
:1080C000F8BDA243F2E7A3432B60F9E71830002084
:1080D0003C300020383000201430002073B50500FB
:1080E0000C0016000720042A1DD901F087FD002886
:1080F00015D0164B164A1D60164B1C70164B013CD2
:108100001E60002303261360144AE4B21360FF2CA0
:108110000AD1134A0021134800F04CFB03E001F0A0
:108120003FFD0028E5D076BD002201A9E300EB1851
:108130000E708A70CA709A7818784A700A4A01F0EC
:10814000CFFD013CE4B20028E1D0ECE74030002054
:108150003830002013300020143000203C30002044
:108160000D8002005CF802008180020010B500243E
:10817000074B1B789C4201D3002010BD054BE20049
:108180001B680121D05C01F011FE0134F0E7C0460C
:1081900013300020403000201FB5002101AA90605C
:1081A00003481180516000F005F805B000BDC046DD
:1081B0000140000010B509490120FFF707FBFFF758
:1081C000DBFAFFF781FC0028FBD1BFF34F8F044A95
:1081D000044BDA60BFF34F8FC046FDE760F8020042
:1081E0000400FA0500ED00E030B509494C788A78C2
:1081F000631CDBB29A4200D100230D7800229D421D
:1082000004D00370182060434A681218100030BD73
:1082100048300020F0B5002785B002ABDD1D00908E
:10822000280001912F7000F06DFC02AB9E1D300004
:10823000FFF7DAFF0424B84208D06B463C001B79F4
:108240000370009B32784360064B5A70287800F028
:1082500077FC002C03D18022034B52035A6020008C
:1082600005B0F0BD48300020FCE100E0084B0949B2
:108270001A682F23C046C046C046C046C046C04606
:10828000C046C0468A4200D0C046013BF2D170478A
:10829000342100200024F40080220C4B920270B59F
:1082A000DA678023D2220125094C5B029200A35099
:1082B000403AA3506560FFF7D9FFA5600024054B45
:1082C0001C60FFF7D3FF044B1C7070BD04E100E09D
:1082D00000100140603000205130002070B50024B3
:1082E000234B5C649C64DC641C655C609C60214B7B
:1082F0001B68A34232D0204A20498D58204A126878
:10830000AD1A2D022D0A1A68AA4214D8AD1AA41863
:108310001A7CDE69002A0CD000221A74194A1268ED
:10832000002A1ED0996958699047002801D0FFF7AC
:1083300033FF002E13D1144B144A197813788B4253
:1083400004D10133DBB2022B0FD013701378104A23
:108350009B009C5080220F4B52035A6070BD33002B
:10836000D1E75A6998699047E3E70023EDE7C046F3
:10837000FC100140643000200405000000100140A2
:1083800060300020443000205C3000205D30002050
:1083900054300020FCE100E0F0B5C349C34A0B684B
:1083A000C3488BB002931478037800229C4200D11A
:1083B000B7E00133DBB2022B00D1B0E003700378E9
:1083C000BC4A9B009A58029B9B181B021B0A0B601D
:1083D00001230193B84B002019780091B74909682F
:1083E0000391597809915968049100999B788C46BA
:1083F00001210593AC4B07901B6806900893B04B86
:108400001F78039B099CA44500D08CE006990029A5
:1084100001D0AB490F700799002902D0A249089CEE
:108420000C60A649002800D00B60019B002B00D0F7
:10843000A1E0039A0B6800249B1A5A1E9341DBB2F9
:108440000193002635009D4B1B6803939C4B039AB8
:108450001B780693944B1B680293002C00D0B3E06A
:10846000009B9C4500D0D0E0002D02D06146924B8D
:108470001970924B002E00D01A601B68039A9A4222
:1084800002D1019A002A45D0002B00D108E11B68D7
:108490008C4A8D4C0393A558029B8C4EEB1A1B0201
:1084A0001B0A0333009333780192002B12D18023EF
:1084B000C13A5B02FF3AA350403AA350C021802248
:1084C0000127834B920249005A501A602760FFF738
:1084D000CDFE3770039B009A934200D21300A8216F
:1084E000029AC9009B181B021B0A6350019AA258EA
:1084F000521B1202120A5D1B2D0203322D0AAA42E0
:1085000008D9019BE3586350FFF7B0FE8022714BFE
:1085100092025A6000226A4B1A700BB0F0BD0270D2
:108520004DE7019256E7654618246C43049D2C19CB
:1085300065460135EDB2AC46059DAC4501D100253F
:10854000AC462578022D0AD0032D00D05AE7002B27
:1085500000D157E700201874DB690800F7E7656869
:108560001E001C00002C00D14CE7A54200D1B5E054
:108570002600E469F6E70B6800210C0008000E00F5
:10858000002B05D1002900D15BE74C4A136058E766
:108590001D68954206D9002901D048490B60AA1AE6
:1085A0001A604EE7521B4019DD681E60DF69002D1E
:1085B00007D0DC611C0002999D6009180902090AB4
:1085C00059603B000199DBE72300E4695968029890
:1085D0000791081A40490002000A9F6888423DD866
:1085E0003818186000215960996001311974002110
:1085F000D9618A4206D018681168884244D8081A9E
:108600001060DA611A00012627E71821009B594300
:10861000049B5918009B0133DBB200930098059B23
:10862000834201D10023009301250B78AB4200D097
:1086300016E74B681D7C002D00D011E78868586054
:10864000C86898600869D8604969996106990029E5
:1086500002D05D600D00B9E70125B7E702990798E0
:10866000091A0902090AB94202D27F1A1F60B9E742
:1086700000211960B6E7C01BCF690791002F0DD10B
:108680001860DF61CB61E8E6110007920F6887424E
:10869000F1D33F1A0F600F000799F1E73900F5E7B2
:1086A000FFF7FAFD36E7C046603000205D3000205D
:1086B0005C3000205430002048300020643000201E
:1086C000503000200405000000100140513000200F
:1086D00000E100E0FCE100E0FEFF7F00B5420AD1CE
