:020000022000DC
:102C000000800020A9A90200E9A90200EBA90200A6
:102C100000000000000000000000000000000000B4
:102C2000000000000000000000000000EDA902000C
:102C30000000000000000000EFA90200F1A902005E
:102C4000058C0200F3A902001169020075970200C9
:102C5000F3A90200000000008D910200D58D020052
:102C6000F3A90200F3A90200F3A90200F3A90200EC
:102C7000F3A90200F3A90200F3A90200F3A90200DC
:102C8000F3A9020025760200F3A90200F3A90200CD
:102C9000E1760200F3A9020081AC0200F3A9020070
:102CA000F3A90200F3A902000000000000000000E8
:102CB0000000000000000000000000000000000014
:102CC00010B5064C2378002B07D1054B002B02D002
:102CD000044800E000BF0123237010BDB42200208F
:102CE00000000000C8E20200084B10B5002B03D022
:102CF0000749084800E000BF07480368002B00D1DF
:102D000010BD064B002BFBD09847F9E700000000F0
:102D1000B8220020C8E20200A0220020000000002B
:102D2000164B002B00D1144B9D46402292029A1A5A
:102D3000924600218B460F461348144A121A00F09F
:102D400065F80F4B002B00D098470E4B002B00D09E
:102D500098470020002104000D000D48002802D0F3
:102D60000C4800E000BF00F02DF82000290000F022
:102D700059F800F011F8C04600000800008000205B
:102D80000000000000000000B42200204C370020AA
:102D90000000000000000000084B10B50400002BEC
:102DA00002D0002100E000BF054B1868836A002BA9
:102DB00000D09847200000F031F8C0460000000025
:102DC000C0BB020070B500260C4D0D4C641BA41056
:102DD000A64209D1002608F0E7FE0A4D0A4C641B02
:102DE000A410A64205D170BDB300EB589847013638
:102DF000EEE7B300EB5898470136F2E7982200203F
:102E000098220020982200209C2200200300821893
:102E1000934200D1704719700133F9E7FEE7C046CD
:102E200048DF7047F8B5002003F060FE3949040020
:102E3000032003F06FFE3849032003F06BFE37498F
:102E4000032003F067FE002C02D0200004F048FBB2
:102E5000002001F031FF324F3868082803D00823E2
:102E60003B6001F029FF2F4E3068102803D010235B
:102E7000336002F02BF92C4D2868042803D004237A
:102E80002B6002F0EDF9294B1868072804D00723BE
:102E9000264A136002F040FC254B18680E2804D027
:102EA0000E23234A136003F00FF8224B18680628FC
:102EB00004D006231F4A136002F08EFD1E4C2068CA
:102EC000062803D00623236003F0B0F93B68082BE3
:102ED000C1D13368102BBED12B68042BBBD1134B4F
:102EE0001B68072BB7D1124B1B680E2BB3D1114BAC
:102EF0001B68062BAFD12368062BACD103F088FFEB
:102F00000028A8D1FFF78CFF0028A4D004F0E8FA2D
:102F1000A1E7C046C4BB020017BC020031BC0200DE
:102F2000602000207420002088200020A0200020A5
:102F3000E8200020CC200020FC200020A0DF7047EB
:102F4000A6DF704763DF704730B5934989B003202F
:102F500003F0E0FD01220120904B5242904C1A8078
:102F60009049914B220088700B80FFF7E7FF002803
:102F700001D004F0B5FA8D49102204A808F09EF99A
:102F80008B4D04A82900FFF7DDFF002801D004F0D5
:102F9000A7FA884A2B7821880392874A87480292A9
:102FA0000222019203320092854A03F0ABFA002814
:102FB00001D004F095FA834A2B7821880392824A43
:102FC000824802920222019292180092804A03F0F3
:102FD00099FA002801D004F083FA7E4A2B782188E0
:102FE00003927D4A7D48029206220192013A0092A4
:102FF0007B4A03F087FA002801D004F071FA794A7D
:103000002B7821880392784A784802921022019204
:10301000073A0092764A03F075FA002801D004F0CE
:103020005FFA744A2B7821880392734A734802929C
:1030300008220192033A0092714A03F063FA0028D1
:1030400001D004F04DFA6F4A2B78218803926E4A22
:103050006E48029201220192033200926C4A03F000
:1030600051FA002801D004F03BFA6A4A2B782188F3
:103070000392694A69480292102201920B3A009227
:10308000674A03F03FFA002801D004F029FA654AA4
:103090002B7821880392644A64480292102201929C
:1030A0000B3A0092624A03F02DFA002801D004F096
:1030B00017FA604A2B78218803925F4A5F48029290
:1030C00004220192033A00925D4A03F01BFA0028A1
:1030D00001D004F005FA5B4A2B78218803925A4A02
:1030E0005A4802920122019204320092584A03F097
:1030F00009FA002801D004F0F3F9564A2B78218808
:103100000392554A55480292042201920092544A71
:1031100003F0F8F9002801D004F0E2F9514A2B78C5
:1031200021880392504A51480292012201920B32A7
:1031300000924F4A03F0E6F9002801D004F0D0F9DC
:103140004C4A2B78218803924B4A4C480292012228
:103150000192043200924A4A03F0D4F9002801D0C7
:1031600004F0BEF9474A21882B780392464A474823
:10317000029202220192013A0092454A03F0C2F9FA
:10318000041E01D004F0ACF94249032003F0C2FC54
:10319000200009B030BDC04645C102004C200020CF
:1031A000942300209623002000FFFFFF53BC020061
:1031B0009A230020002300205C2300206FC102001E
:1031C00001FF0000282300207E2300207EC1020092
:1031D00002FF0000202300207723002088C1020086
:1031E00003FF000030230020802300208FC1020055
:1031F00004FF0000082300205E230020A4C1020079
:1032000005FF0000E822002044230020BFC1020087
:1032100006FF0000F82200204C230020D0C102004D
:1032200007FF00001823002067230020E4C10200EC
:1032300008FF0000F022002048230020F8C102000F
:1032400009FF0000102300206623002007C20200AF
:103250000AFF000038230020902300201CC2020037
:103260000BFF0000D02200204023002026C20200D5
:103270000CFF0000D82200204123002039C20200A8
:103280000DFF0000E02200204223002045C2020082
:103290000EFF00004DC20200F0B510251627114E9A
:1032A0008BB006AC00900191029269462A00300072
:1032B00003936F4408F002F82A00002120003D80AB
:1032C000FFF7A4FD084B21001B88A7602380012382
:1032D000A3700023A380054BE6601888FFF730FE3B
:1032E0000BB0F0BD80230020302300204C200020B4
:1032F000F0B587B06B4601270C4D02AC2870102248
:10330000002120009E1DDF80FFF780FD084B21007B
:103310001B88A77023800023A380064BA660188813
:10332000E560FFF70DFE07B0F0BDC046402300206A
:10333000D02200204C20002070B503880500112BFE
:1033400017D002D8102B09D070BD502B1BD0532B97
:10335000FAD16249042003F0DDFBF5E78288604B77
:10336000604904201A8003F0D5FB03225E4B1A60EB
:10337000EAE701225A4B52425C4904201A8003F0CA
:10338000C9FB0422F2E75A49042003F0C3FB594A5F
:10339000EB881288AC1D9A4211D1227B5649042039
:1033A00003F0D4FBFF20FFF7A3FF544803887F2BD3
:1033B00001D97F23038001F007FF0522D6E7504A99
:1033C00012889A4211D1227B4E49042003F0BEFBA1
:1033D000FF20FFF78DFF4C4803887F2B01D97F2307
:1033E000038001F0F1FE0622C0E7484A12889A42A3
:1033F00009D1227B4649042003F0A8FB454801F08F
:10340000E3FE0722B2E7444A1188994205D1227BA4
:103410004249042003F09AFB96E792889A4202D12F
:10342000227B3F49F5E73F4A12889A4206D1227B28
:103430003D49042003F08AFB0B2297E73B4A1288A0
:103440009A4209D1227B3A49042003F07FFB394894
:1034500001F0BAFE082289E7374A12889A4202D15F
:10346000227B3649D5E7364A12889A4202D1227B1E
:103470003449CEE7344A12889A4206D1227B334936
:10348000042003F063FB0A2270E7314A12889A4253
:1034900006D1227B2F49042003F058FB092265E75F
:1034A0002D4A12889A4211D1227B2C49042003F024
:1034B0004DFB237B022B00D046E7294B1A780123D2
:1034C0001A4200D140E7274A13603DE7264A128896
:1034D0009A4200D038E7227B24499AE71EC10200B5
:1034E0004C20002063BC0200742000208EBC02002F
:1034F000BCBC020000230020E9BC02005C230020C9
:10350000282300203ABD02007E2300202023002033
:1035100086BD02007723002030230020CFBD0200AB
:1035200026BE0200082300207CBE0200E822002004
:10353000D9BE020044230020F82200202CBF020044
:103540001823002082BF020010230020D8BF0200F1
:10355000382300202FC00200D02200207BC00200B0
:1035600041230020FC200020D8220020D0C00200EF
:1035700010B504000822024907F0A0FE200010BD8B
:103580005E2300207FB51025094E04002A0031007B
:10359000684607F093FE7F22F37B694613406A4634
:1035A0002000D3732A0007F089FE200004B070BD0C
:1035B0004C2300207FB51025094E04002A0031005D
:1035C000684607F07BFE7F22F37B694613406A461C
:1035D0002000D3732A0007F071FE200004B070BDF4
:1035E000672300207FB51025094E04002A00310012
:1035F000684607F063FE7F22F37B694613406A4604
:103600002000D3732A0007F059FE200004B070BDDB
:1036100080230020014B18887047C0465C2300209F
:10362000014B18887047C0467E230020014B186864
:103630007047C04690230020014B18787047C04661
:1036400041230020014B18787047C04666230020B4
:1036500007B50822009001910248694607F02EFE46
:1036600007BDC0465E230020014B18607047C0466E
:1036700048230020014B18807047C0464223002099
:10368000014B18807047C0465C23002007B5062216
:10369000009001910248694607F010FE07BDC04640
:1036A00077230020014B18707047C0466623002026
:1036B0001FB5029203935A006B46520E009001917F
:1036C0000348DA736946102207F0F8FD05B000BD23
:1036D0004C2300201FB5029203935A006B46520EF2
:1036E000009001910348DA736946102207F0E6FD65
:1036F00005B000BD672300201FB5029203935A0056
:103700006B46520E009001910348DA73694610220D
:1037100007F0D4FD05B000BD80230020F0B503887C
:1037200085B004001D2B61D10622037C1340934217
:103730005CD1027A2E49042003F008FAA17BA37A17
:103740000391617B627A0291217B04200191E17AED
:1037500027000091274903F0C1FA0F222649A256FB
:10376000042003F0F3F9227C24495207920F04202D
:1037700003F0ECF92249042003F0CCF9214E237C1C
:103780001137DB083A003100042003F0F3FA1E4D34
:103790001E223900280007F091FDBA797B791202C8
:1037A0001A431A49042003F0D1F9BA7E7B7E120233
:1037B0001A431749042003F0C9F93A7FFB7E12022D
:1037C0001A431449042003F0C1F91349042003F0FB
:1037D000A1F9220010231A323100042003F0CAFAA2
:1037E000280001F0BBFD02220C4B1A6005B0F0BDB1
:1037F00073C2020095C20200B6C20200CCC202002F
:10380000E6C20200F9C202009B23002007C30200A7
:1038100023C302003AC3020051C3020088200020E3
:1038200078DF70477ADF70477CDF704770470000B1
:10383000004870479C24002010B50449044807F054
:10384000B1F8002801D003F04BFE10BD2D38020066
:103850008C24002070B59AB00BAC3C2200212000D3
:10386000FFF7D4FA022323700433E370104B0126D0
:1038700063618023626A03ADDB00A67026820021AB
:10388000138028002022FFF7C1FA962300215B0055
:103890002B61EE706961074B00912A00200006F051
:1038A000DBFC002801D003F01BFE1AB070BDC0463F
:1038B0004E200020793A0200112330B585B001ADC9
:1038C0002B701A4B1A4C1B681A4A1B499BB22000DA
:1038D00007F030FD200007F04FFD210082B22800E4
:1038E000FFF7A2FF002801D003F0FAFD0020FFF748
:1038F00097FF002801D003F0F3FD02AC082200215D
:103900002000FFF783FA20232380183363800023ED
:10391000A3809133FF332000E380FFF783FF00286B
:1039200001D003F0DDFD05B030BDC046A40000109D
:103930009C2400206EC3020064C302007FB51849B6
:1039400004220631684607F0B9FC0023D02215494D
:10395000684607F04BF9002801D003F0C1FD01AA29
:103960000121002007F09CF9002801D003F0B8FDE8
:1039700001A807F0ADF9002801D003F0B1FD0A4815
:1039800007F06AF9002801D003F0AAFD074807F004
:103990006DF9002801D003F0A3FD07B000BDC046BB
:1039A00064C30200BC230020B33A0200E13A0200E3
:1039B00076DF7047A8DF704767DF70471FB5038861
:1039C0000400112B27D004D8022B2ED0102B13D09B
:1039D0001FBD512B2FD0552B25D03A2BF8D1214983
:1039E000042003F097F8A0881321FFF7E1FF0028D7
:1039F000EED003F075FDEBE703201B4903F08AF8D6
:103A0000072006F073F8002801D003F069FDA288B2
:103A1000164B1A80DCE7027A1549032003F096F86A
:103A200001225242F4E71349DAE7104B00211888CB
:103A3000FFF7C2FFDBE78379002BC9D0827B043A12
:103A4000022AC5D8022B0AD16A461370C1236A46DE
:103A50005B009380A0886946FFF7ACFFC7E70123AE
:103A6000F2E7C04603C40200C9C30200AA24002032
:103A7000DFC3020025C4020010B500280CD00328C3
:103A800009D1074903F046F8022006F02FF8002874
:103A900001D003F025FD10BD02F048FCFBE7C04655
:103AA000ACC30200038810B5112B01D006F0A6FDAF
:103AB00010BD10B5040006F0FDFE200006F0A4FEC7
:103AC000200006F0DDF82000FFF778FF2000FFF768
:103AD00033FC2000FFF7E6FF2000FFF71FFE10BDBC
:103AE00010B5040004F022FF200006F0BDFD10BD5B
:103AF00010B50E2802D00F2808D010BD07490320AA
:103B000003F008F80120FFF7F3FBF6E70449032070
:103B100003F000F80422034B1A60EEE777C30200BB
:103B200096C30200FC200020C02310B59B029842DF
:103B300057D004D880239B02984210D010BDA023F8
:103B4000DB02984255D0C023DB029842F6D103290C
:103B5000F4D101F0BFFF01F02DF9324A06E001294E
:103B600007D101F03DFB01F025F92F4A2F4B1A60D8
:103B7000E4E7042905D101F033FB01F01BF92C4ADD
:103B8000F4E7072905D101F02BFB01F013F9294ACD
:103B9000ECE7062905D101F023FB01F00BF9264AD9
:103BA000E4E7082905D101F01BFB01F003F9234AE2
:103BB000DCE7092905D101F013FB01F0FBF8204AED
:103BC000D4E70A2905D101F00BFB01F0F3F81D4AF7
:103BD000CCE70B29B2D101F003FB01F0EBF81A4A54
:103BE000C4E70229AAD101F0C5FB01F0E3F8174AA6
:103BF000BCE7052905D102F0F1F901F0DBF8144A20
:103C0000B4E70C2905D102F0E9F901F0D3F8114A23
:103C1000ACE7092900D091E702F0E0F901F0CAF819
:103C20000D4AA3E703000600010002006020002007
:103C30000400020007000200060002000800020063
:103C4000090002000A0002000B000200020003004B
:103C5000050005000C0005000900050011DF704794
:103C600013DF70470368002B08D007490A004B7226
:103C7000190A9172190C1B0ED17213730279034B3E
:103C80001A60082303717047522000206020002032
:103C90000368002B08D007490A004B72190A917279
:103CA000190C1B0ED17213730279034B1A6008238F
:103CB0000371704752200020602000200368002B11
:103CC00008D007490A004B72190A9172190C1B0E91
:103CD000D17213730279034B1A6008230371704782
:103CE000522000206020002010B50320024902F07D
:103CF00011FF002010BDC04660C7020010B50320B0
:103D0000034902F007FF0222024B00201A6010BD97
:103D100022C702007420002010B50449032002F0DD
:103D2000F9FEFE20FFF7E4FA002010BD84C802006F
:103D300010B50949032002F0EDFE0848084B036066
:103D400004238360C0239B00838002F03BF9072299
:103D5000044B00201A6010BD6DC90200AC24002085
:103D600085250020E820002073B51749032002F0C4
:103D7000D1FE5A235B22154C52422370E370144B40
:103D800062701B68A2701B88002523711B0A637177
:103D90000323104EE371A57168463460FFF7E8FB1A
:103DA000200008226946083007F088FA0A4833687C
:103DB000856003601023838002F004F90722074B1B
:103DC00028001A6076BDC046C4C80200B82400208E
:103DD0006C25002070250020AC240020E820002065
:103DE00010B50549032002F095FE01F073FE00882E
:103DF000FFF740FC002010BDF1C9020010B5817A28
:103E0000437A09021943C37A094A1B041943037B05
:103E100008481B060B438021136005230902137118
:103E200003F084FE044A002013680133136010BDC0
:103E3000442500204C2500202837002010B50E49CD
:103E4000032002F067FE0D4803F0BCFE01220C4B7C
:103E50000C4904201A6002F05DFE0B4C1023220076
:103E60000A49042002F086FF200001F0ADF90C227F
:103E7000074B00201A6010BD6ECB02001C250020ED
:103E800088200020B3CB020075250020F9C2020073
:103E900074200020F0B5554987B0032002F03AFEA7
:103EA00001F068FA04008279437912021A435049FA
:103EB000042002F04BFEA27E637E12021A434D499B
:103EC000042002F043FE227FE37E12021A434A4995
:103ED000042002F03BFE4949042002F01BFE2200B0
:103EE000102309324649042002F044FF0025072729
:103EF000444B1B681B88AB4237D801F097FC002865
:103F000000D16EE002A8FFF73DFBFFF783FB012124
:103F1000C308DBB2019307230C0003409C40FF233E
:103F200000229C46013C384FE4B2531CDB0065463E
:103F3000834200DD250002ABBE5C9B5C0132B343D3
:103F40001D406B426B415B421940019BD2B29342D0
:103F5000EBD2002906D02D49032002F0DBFD03221D
:103F60002B4B1A60002007B0F0BD6379294A9C46AC
:103F7000062366466B43985CD318A1795A780902E8
:103F8000120231430243914228D1627EA17E9446BF
:103F90006646DA7898780902120231430243914268
:103FA0001CD11979227F5B79E07E12021B02024349
:103FB0000B439A4212D12800012338408340124912
:103FC000EA08885C03438B54134AAB001168134A18
:103FD000032099502A00124902F0B8FD0135ADB214
:103FE00086E702A8FFF7E6FA8FE7C04694C502000D
:103FF000D2C50200FDC5020023C6020049C6020068
:10400000F9C202006C2500207525002098C6020028
:1040100060200020852500202837002088280020E7
:104020006BC6020010B50849032002F073FDFFF7CC
:1040300009FB064B1870180001F0ECFB0422044B3E
:1040400000201A6010BDC0461DCC0200742500205F
:10405000A0200020F0B5002585B03449032002F0EF
:1040600059FD334C3349236803205A8802F06EFD12
:10407000236831499A88032002F068FD23682F499C
:10408000DA88032002F062FD23682D491A89032093
:1040900002F05CFDFFF7C4FA2A002168294E0B8864
:1040A00003900293029893B2019383420BD3002DA5
:1040B0002BD00320244902F02DFDFA20FFF718F938
:1040C000002005B0F0BD062353439C5DF318A446C1
:1040D00060465C788F8824020443A74212D1DC78C2
:1040E0009878CF8824020443A7420BD11C795B79CE
:1040F0000F891B0223439F4204D1019B03989842DE
:1041000000D001250132D2B2CCE706224B880D48FF
:1041100053430431C01807F0D1F8FF20FFF7E8F847
:104120000A49032002F0F6FCCAE7C046C6CC0200EA
:104130006C25002002CD02002CCD020057CD0200DC
:104140007DCD020085250020A3CD0200DCCD02003C
:1041500010B51149032002F0DDFCFFF761FA0F4BA7
:104160008000C058FFF780FAFFF75AFA0622504342
:104170000B4BC15C1B185A78987812020A43000452
:104180000243D8785979000610431A79090211437D
:10419000FFF77CFA002010BD01CE02008828002025
:1041A0008525002010B50749032002F0B3FCFFF776
:1041B0003DFA054B020018600449032002F0C6FCDA
:1041C000002010BD40CE0200283700207FCE020024
:1041D00010B50D49032002F09DFC01F001F8022208
:1041E00000240A4B18600A4B0A481A600A4B846084
:1041F0001C600A4B03601023838001F0E3FE03225E
:10420000074B20001A6010BDE7C602006C25002095
:1042100074200020AC240020A0200020B82400201E
:10422000E8200020F0B5BE499DB0032002F072FCEA
:1042300000F0D6FF0078012823D1BA49023002F0FD
:1042400069FCC02200219200B748FEF7DFFD002183
:10425000B64C0822206801800A30FEF7D7FD22689C
:104260001300988952890004198A1043DA890904D5
:104270001143FFF7EDF90B22AD4B1A6000201DB082
:10428000F0BD022804D1AB49013002F043FCF2E753
:1042900003281BD1A84902F03DFC02F0B9FD00281B
:1042A000FBD10123D820A54A5B42D367A44A400230
:1042B000D367FFF7D5FCFFF7D1FCBFF34F8FA14ABF
:1042C000A14BDA60BFF34F8FC046FDE70428D5D17C
:1042D000FFF7A6F90700FFF79DF93A0000909B4908
:1042E000032002F033FC009BFCB206259F4211D351
:1042F000FB20CEE028002B00661C734360432A009D
:104300000818C91806F0DAFF914BB200D258A40081
:10431000E250F4B2009B8449581E8442EADB002339
:1043200065438B4A4B55A4004D19A3506B70AB707D
:10433000EB702B716B717D4B80B21B681880FFF79F
:104340009FF910A8FFF736F9109B14A80493119B4E
:104350000593129B0293139B0A93FFF713F9149B87
:1043600018A80693159B0793169B0D93179B0E9306
:10437000FFF738F9189B0893199B09931A9B0B9325
:104380001B9B0C9301233F2F00D985E01E00BE40EC
:10439000013EF2179446FF18BB406546049F5C42FD
:1043A00027400599E3177A08049F1940C80737404A
:1043B00002433800059F0F932F404B083900121815
:1043C0004B4102990492C9070B43029A05930A9B39
:1043D0005208DB071A43069F0A9B274007995B0890
:1043E000009201937A08E317069F1940C8073740E7
:1043F00002433800079F4B082F40390012184B41E9
:104400000D990692C9070B4307930D9A0E9B52080C
:10441000DB071A430E9B02925B080393089B0F9DD8
:104420001C406208089C099B3440200064461D40E3
:10443000E9076B08099D0A432C40210012184B41E3
:104440000B990892C9070B4309930C9B0B9ADB0746
:1044500054081C430C9B5D08029E039F16961797F9
:104460000799029A0698179BFFF722F9009E019F71
:10447000129613970599009A0498139BFFF72AF94F
:104480001A941B950898099922001B9BFFF734F991
:10449000FF20FEF72DFFF1E63F221E003A40964036
:1044A000013293400A9C5B42DA1714400F92029942
:1044B000029A013E19403240E5074808610814009D
:1044C0000A9AF7173A40284315000D9A00196941D6
:1044D0001A409446009001910F9A0E99114062463D
:1044E00054080D9AC8073240044310000E9A4D0834
:1044F0003A40110024184D410B9A0F9913400C9A21
:1045000058080B9B1140029403953340CC0720437D
:104510001C000C9B49083B401D0024184D419BE7A3
:1045200097C70200DDC70200852500206C2500200A
:10453000E820002008C802003AC8020004E100E0B8
:1045400008E100E00400FA0500ED00E05BC80200AD
:1045500088280020002213B5224B234903201A602B
:1045600002F0D8FA2149032002F0D4FA01F052FFF8
:104570006B46DC1D200001F061FF01F07FFFFFF7BB
:10458000DDF92378002B03D01949032002F0C2FA89
:10459000184A0021184803F0B1FA184A00211848B7
:1045A00003F0ACFA174A0021174803F0A7FAC0221B
:1045B000002192001548FEF729FC8022002192007C
:1045C0001348FEF723FC1820FFF76CF800200122A7
:1045D000104B1860104B1860104B1860104B1A608D
:1045E00016BDC04628370020C4BB020067CC0200BD
:1045F000ACCC0200653C02008CC50200913C02007C
:1046000088C50200BD3C020090C50200852500203F
:104610008828002074200020CC200020FC200020CE
:104620006020002070B52F49032002F073FA2E4C51
:10463000102322002D49042002F09CFB627823788D
:1046400012021A43A3782A4E1B041A43E3783460FB
:104650001B061343274A934241D1C023E579A2792F
:104660002D029B0015439D4239D1627923791202B4
:104670001A432149032002F069FA3268537911790B
:104680001B020B431D4909680B8050791379000206
:104690001843FEF7F5FF33685A7A187A120202437C
:1046A000987A197B00040243D87A000610435A7B9B
:1046B00012020A43997B09040A43D97B0906114374
:1046C000FEF7C6FF0E480F4B85800360042383600E
:1046D00001F078FC03220C4B00201A6070BD02220E
:1046E0000A4BF9E7FFC80200B8240020F9C2020013
:1046F000702500205AA5A55A40C902006C2500204B
:10470000AC24002085250020E82000206020002027
:104710001FB501F08BF8002846D06846FEF732FF3F
:104720006B4600201B7883423CD16B465B7883420A
:1047300038D16B469B78834234D16B46DB78834219
:1047400030D16B461B7983422CD16B465B79834217
:1047500028D16B469B79834224D16B46DB79834217
:1047600020D16B461B7A83421CD16B465B7A834215
:1047700018D16B469B7A834214D16B46DB7A834215
:1047800010D16B461B7B83420CD16B465B7B834213
:1047900008D16B469B7B834204D16B46D87B434256
:1047A0005841C0B205B000BD6846FEF703FFB7E749
:1047B000F0B5464985B00400032002F0ABF9FFF7DD
:1047C000A7FF002800D174E04149032002F0A2F9BC
:1047D0000322404B1A6002A8FEF7CAFE02AB5D88B6
:1047E000DE8801F023F8002866D0002D00D169E0B2
:1047F00002AB1F88FA26B60033007B43DA17D103D9
:104800005A0C1143FA22D803002352008018594150
:10481000FA226E439200002306F026FCF217730C76
:10482000D103FA221943002301905200F0038018AB
:104830005941FA220023920006F016FC06003B00C4
:10484000019A2549042002F0A7F92B0032002349E0
:10485000042002F0A1F9A17A637A09021943E37AEC
:104860001F4A1B041943237B1E481B060B4313607E
:1048700003230199137103F059F9A17A637A0902AC
:104880001943E37A184A1B041943237B17481B0674
:104890000B43136004233100137103F047F9002325
:1048A0001900134A99540133102BFBD1002005B095
:1048B000F0BD104B18608EE7002E03D002AB9F882E
:1048C000350097E73C25192794E7C04670CA0200D7
:1048D000B7CA020060200020F6CA020031CB0200F5
:1048E000142500201C250020DC240020E4240020C6
:1048F0007525002088200020F0B5474985B00400C8
:10490000032002F007F9FFF703FF002800D177E04A
:104910004249032002F0FEF8414803F053F94148B0
:1049200003F050F902A8FEF723FE02AB5D88DE8893
:1049300000F07CFF002866D0002D00D169E002ABBA
:104940001F88FA26B60033007B43DA17D1035A0CCE
:104950001143FA22D8030023520080185941FA2249
:104960006E439200002306F07FFBF217730CD10315
:10497000FA221943002301905200F0038018594194
:10498000FA220023920006F06FFB06003B00019A1A
:104990002549042002F000F92B00320023490420AD
:1049A00002F0FAF8A17A637A09021943E37A204AFD
:1049B0001B041943237B1A481B060B431360032374
:1049C0000199137103F0B2F8A17A637A09021943CD
:1049D000E37A184A1B041943237B12481B060B4336
:1049E000136004233100137103F0A0F800231900B1
:1049F000114A99540133102BFBD1002005B0F0BDB2
:104A00000E4B186088E7002E03D002AB9F8835005C
:104A100097E73C25192794E7CDCB0200B7CA0200DF
:104A20001C250020E4240020F6CA020031CB02003D
:104A30000C250020D424002075250020882000208B
:104A400010B52A490400032002F064F8FFF760FE65
:104A5000002847D02649032002F05CF8A17A637A47
:104A600009021943E37A234A1B041943237B224892
:104A70001B060B43C821136003230903137103F0C2
:104A800055F8A17A637A09021943E37A1B4A1B0499
:104A90001943237B1A481B060B43F02113600423A0
:104AA0004903137103F042F8A17A637A09021943AA
:104AB000E37A144A1B041943237B13481B060B4358
:104AC0008021136005230902137103F02FF80023DE
:104AD0001A000E495A540133102BFBD10C4B002005
:104AE0001A6010BD0B4B1860B8E7C04660C70200E3
:104AF000B7CA0200042500201C250020CC24002079
:104B0000E42400203C2500204C25002075250020B1
:104B1000E820002088200020F7B53F4D0320290021
:104B200001F0F8FF3D49032001F0F4FF29000320C4
:104B300001F0F0FFFEF77CFE39490200032002F08D
:104B400005F8962237495200032001F0FFFFDC22CE
:104B500035499200032001F0F9FFA02233490320D8
:104B600001F0F4FF324B33491B6803201A8801F02F
:104B7000EDFF6846FEF7FCFC6B465C88DF88002C86
:104B800046D01E8832002C49032001F0DFFF2200AE
:104B90002A49032001F0DAFF002F02D06B463C00C7
:104BA0009E8832002649032001F0D0FF22002549CB
:104BB000032001F0CBFF05222349032001F0C6FFAB
:104BC00005222249032001F0C1FF214A2149032087
:104BD00001F0BCFF204A2149032001F0B7FFF82271
:104BE0001F499200032001F0B1FF1E4A1E49032015
:104BF00001F0ACFF1D4A1E49032001F0A7FF290068
:104C0000032001F087FF2900032001F083FFF7BD97
:104C10003C241926B6E7C046ACCE0200F4CE020012
:104C20003DCF020059CF020095CF0200CACF02004B
:104C30006C250020FDCF02001CD0020049D00200EC
:104C400078D00200A5D00200D4D002001AD1020010
:104C5000C926000062D10200BAE8000092D1020029
:104C6000BDD10200C1070000EBD1020045170000D2
:104C700016D2020010B50320034901F04BFFFFF7E5
:104C80004BFF002010BDC04631CA020010B50749D5
:104C9000032001F03FFF04201223054A054902F0DA
:104CA00069F8FFF739FF002010BDC046AFC9020008
:104CB00085250020F9C20200F0B53A4C010AA17026
:104CC000010CA279E170010E2171617912020A438F
:104CD000E179030009040A43217A85B009061143EA
:104CE0000F000A00DC372578607003970398824232
:104CF00007D100952C4A2D49032001F07BFF0125A7
:104D00003DE05078561A8446674690780002384352
:104D1000D7783F04074310790006384383423FD1D8
:104D20001078A8423CD18020A17A627A090211430E
:104D3000E27A400212041143227B12060A43190050
:104D4000FEF7F2FEA279637912021A43E37920009A
:104D50001B041A43237A1B0613439B199A7959792A
:104D600012021143DA791B7A12040A431B06134319
:104D70009847051E06D00E49042001F0CBFE2800FE
:104D800005B0F0BDA279637912021A43E3791B04DE
:104D90001A43237A1B0613439B195B7A2370EEE7B1
:104DA0000A32A3E75220002060C402006FC4020050
:104DB00047C40200044A13005072020A9A72020C9D
:104DC000000EDA72187370475220002010B50320CD
:104DD000024901F09FFE002010BDC046E7D302004B
:104DE00010B50320024901F095FE002010BDC04619
:104DF00029D4020010B50320024901F08BFE0020E7
:104E000010BDC04645D6020010B50320024901F08E
:104E100081FE002010BDC04622D3020010B5032041
:104E2000024901F077FE002010BDC0465AD30200AF
:104E300010B50320024901F06DFE002010BDC046F0
:104E4000F9D2020010B50849032001F063FE0749BA
:104E5000074B0A004B72190A9172190C1B0E0020A5
:104E6000D172137310BDC046D0D20200642000205E
:104E70002C37002010B51249032001F04BFE114AD7
:104E8000114C937A517A1B020B43D17A201D0904ED
:104E90000B43117B06220906194306F00FFAA2887C
:104EA0000A49042001F052FEE2880949042001F079
:104EB0004DFE22890749042001F048FE002010BD64
:104EC000E0D40200642000202C3700200ED5020020
:104ED00035D5020057D5020010B50C49032001F06A
:104EE00019FE0B4904208A7A4B7A12021A43CB7AB4
:104EF0001B041A430B7B07491B0613431A88064BF6
:104F00005A8001F023FE002010BDC04679D5020072
:104F100064200020AAD502002C37002010B50C49CF
:104F2000032001F0F7FD0B4904208A7A4B7A120224
:104F30001A43CB7A1B041A430B7B07491B06134306
:104F40001A88064B1A8001F001FE002010BDC046F1
:104F500086D3020064200020BCD302002C3700203E
:104F6000F0B53F498DB0032001F0D4FD3D4A04A8BF
:104F7000937A517A1B020B43D17A09040B43117BBC
:104F800010220906194306F099F900F04FFC002899
:104F90005FD008A8FEF7F6FAFEF73CFB0122C30833
:104FA000DBB2019307231100034099400B00013B42
:104FB000DBB202930023FF271C0008AE0392591CAA
:104FC000C9003D00814200DD029D04A9C95C8C46F8
:104FD0006246F15C9143294200D0039C0133019A5F
:104FE000DBB29A42EBD201252A001F4B62401A70B5
:104FF000002C09D01D49032001F08CFDFEF71CFB9D
:10500000284201D01A4B1D60164B1B78042B1DD172
:1050100004ABDD7B7F231D4004ABDD7300F006FC99
:10502000002804D080235B421D4304ABDD73049849
:105030000599069A079BFEF72FF9002C06D000F081
:10504000F5FB002809D00420FEF752F900200DB02E
:10505000F0BD08A8FEF7AEFA9EE70320F4E7C046CD
:10506000D0D5020064200020882A0020FCD5020050
:10507000FC20002010B50320034901F04BFD01F096
:1050800093F9002010BDC04665D4020010B50C494C
:10509000032001F03FFDFEF70FFCFEF7DBFBFEF700
:1050A000CBFB01F08AF901F091F90320054901F0E9
:1050B00031FD01F08AF90122034B00201A6010BD76
:1050C00098D40200C4D4020074200020F0B53A4CF9
:1050D000010AA170010CA279E170010E21716179C0
:1050E00012020A43E179030009040A43217A85B0D8
:1050F000090611430F000A008C372578607003976A
:105100000398824207D100952C4A2D49032001F0D3
:1051100071FD01253DE05078561A84466746907827
:1051200000023843D7783F0407431079000638431C
:1051300083423FD11078A8423CD18020A17A627A84
:1051400009021143E27A800212041143227B120603
:105150000A431900FEF7E8FCA279637912021A43A8
:10516000E37920001B041A43237A1B0613439B197F
:105170009A79597912021143DA791B7A12040A4397
:105180001B0613439847051E06D00E49042001F064
:10519000C1FC280005B0F0BDA279637912021A4360
:1051A000E3791B041A43237A1B0613439B195B7A8A
:1051B0002370EEE70A32A3E7642000203DD202000C
:1051C0006FC4020047C40200044A13005072020A6E
:1051D0009A72020C000EDA72187370476420002075
:1051E000054A937A507A1B020343D07A00040343A2
:1051F000107B0006184370476420002010B5032080
:10520000024901F087FC002010BDC046ACD6020068
:1052100010B50549032001F07DFC0320034901F08E
:1052200079FC002010BDC04664D70200A6D702005A
:1052300010B50320034901F06DFC01F05DF9002079
:1052400010BDC04626D7020010B50320034901F067
:1052500061FC01F041F9002010BDC046E7D6020014
:10526000F0B53A4C010AA170010CA279E170010E6F
:105270002171617912020A43E179030009040A43AA
:10528000217A85B0090611430F000A0028372578D6
:10529000607003970398824207D100952C4A2D49EC
:1052A000032001F0A7FC01253DE05078561A844602
:1052B0006746907800023843D7783F040743107957
:1052C0000006384383423FD11078A8423CD1C02029
:1052D000A17A627A09021143E27A80021204114330
:1052E000227B12060A431900FEF71EFCA27963799D
:1052F00012021A43E37920001B041A43237A1B0687
:1053000013439B199A79597912021143DA791B7A5E
:1053100012040A431B0613439847051E06D00E4984
:10532000042001F0F7FB280005B0F0BDA2796379F5
:1053300012021A43E3791B041A43237A1B06134310
:105340009B195B7A2370EEE70A32A3E778200020EE
:1053500076D602006FC4020047C40200044A13005C
:105360005072020A9A72020C000EDA7218737047B9
:1053700078200020054A937A507A1B020343D07AA2
:1053800000040343107B0006184370477820002078
:105390000368002B08D007490A004B72190A917262
:1053A000190C1B0ED17213730279034B1A60072379
:1053B0000371704790200020A020002010B503202A
:1053C000034901F0A7FB0020024B187010BDC04636
:1053D00011D902008A2A002010B50320024901F0E9
:1053E00099FB002010BDC04698D802000122064B50
:1053F00010B5064906481A7002F0C4FC002801D016
:1054000002F06EF810BDC046F22A0020A4DA0200B5
:10541000A420002010B5041E05D002000849042075
:1054200001F094FB10BD0749042001F073FB064B0B
:1054300006491A78042001F089FB054B1C70F1E73E
:1054400036DA020069DA0200B42A002088DA0200A3
:10545000F22A0020094B0A491A68FA239B00C04629
:10546000C046C046C046C046C046C046C0468A4246
:1054700000D0C046013BF2D17047C0462821002031
:105480000024F400F0B5032087B0214901F042FB6D
:105490002049214C8A7A4B7A12021A43CB7A1B0498
:1054A0001A430B7B17211B0613431C4A11701B78F0
:1054B00002A953700B00220061CA61C3184D126823
:1054C00028001A600023022202F08CFC2A22154BCD
:1054D0001A70FFF78BFFFFF7BDFF134B1E78002EEE
:1054E00011D10122114B12491B78103413434B7018
:1054F0006B46694681CC81C33300280002F072FC00
:10550000300007B0F0BD0B49032001F003FBE2E7D8
:1055100055D9020090200020F8D70200F02A002080
:10552000A4200020892A0020F22A0020B42A00208A
:105530008E2000209AD90200F0B53A498FB003209E
:1055400001F0E8FA002102AC374B1022200019705C
:10555000FDF75CFC05230293013B6360CC235B04F5
:10556000A3600323314D23730822314B210028000F
:1055700002F0ECFB002801D001F0B2FF0D232D4A10
:105580001370FFF733FFFFF765FF2B4B1B78002BE2
:1055900038D12A4A12784A2A3ED12100284A1832A4
:1055A000C1CAC1C1C1CAC1C1C1CAC1C1C1CAC1C1C7
:1055B00006222100280002F015FC2A231D4A137040
:1055C000FFF714FFFFF746FF1B4B1B78002B1ED184
:1055D0001A4A6C46117801221A4811434170184842
:1055E00069464830C0C8C0C4280002F0FBFB164A18
:1055F0000021164802F082FA01220020144B1A60A2
:105600000FB0F0BD1349032001F084FABBE7114944
:10561000032001F07FFAD5E70F49032001F07AFA61
:10562000E5E7C046ADD902008A2A0020A420002068
:10563000CC2A0020892A0020F22A0020B42A002047
:10564000F8D702008C2000209153020094D8020069
:10565000A02000209AD90200EDD9020070B5264999
:105660000500032001F056FA0C23244E3370FFF797
:10567000BDFEFFF7EFFE224C2378002B32D1214BE9
:105680001B785B072CD516233370FFF7AFFEFFF7AF
:10569000E1FE2378002B2AD11B4C200002F092FA65
:1056A000A97A6B7A09021943EB7A184A1B04194349
:1056B0002B7B20001B060B43A02113600323C90290
:1056C000137102F033FAFDF7B7FF114C830705D5CC
:1056D0002378002B02D10520FDF70AFE0123237059
:1056E000002070BD0B49032001F014FAC1E70949FD
:1056F000032001F00FFACAE7D5D80200892A00205A
:10570000F22A0020B42A0020942A00208C2A0020AB
:105710008A2A00209AD90200F0B53A4C010AA170F9
:10572000010CA279E170010E2171617912020A4324
:10573000E179030009040A43217A85B0090611437F
:105740000F000A0032372578607003970398824271
:1057500007D100952C4A2D49032001F04BFA012571
:105760003DE05078561A84466746907800023843E8
:10577000D7783F04074310790006384383423FD16E
:105780001078A8423CD18020A17A627A09021143A4
:10579000E27AC00212041143227B12060A43190066
:1057A000FEF7C2F9A279637912021A43E379200065
:1057B0001B041A43237A1B0613439B199A795979C0
:1057C00012021143DA791B7A12040A431B061343AF
:1057D0009847051E06D00E49042001F09BF92800C9
:1057E00005B0F0BDA279637912021A43E3791B0474
:1057F0001A43237A1B0613439B195B7A2370EEE747
:105800000A32A3E79020002050D802006FC40200A3
:1058100047C40200044A13005072020A9A72020C32
:10582000000EDA721873704790200020014B187830
:105830007047C0468A2A00200368002B08D0074919
:105840000A004B72190A9172190C1B0ED172137354
:105850000279034B1A60062303717047BC200020B5
:10586000CC20002010B50849032001F053F9074966
:10587000074B0A004B72190A9172190C1B0E00207B
:10588000D172137310BDC04651DB0200BC20002052
:10589000F42A002010B504000E49032001F03AF963
:1058A000A17A637A09021943E37A0B4A1B0419436C
:1058B000237B0A481B060B43F02113600223490394
:1058C000137102F033F9172003F09CFB03F048FA40
:1058D000002010BDB9DB0200002B0020082B0020A7
:1058E00010B504000D49032001F014F9A17A637A80
:1058F00009021943E37A0A4A1B041943237B094826
:105900001B060B43F021136002234903137102F0BD
:105910000DF903F025FA002010BDC04620DB02007F
:10592000F82A0020082B002007B51149032001F0B8
:10593000F1F800210F4A104802F0E0F8032301A813
:105940000E49037003F0DEF9002801D001F0C8FD14
:105950000B4803F0F5F901210A4803F007FA002883
:1059600001D001F0BDFD0122074B00201A600EBDE1
:1059700085DB0200395802001CDB02008D59020051
:10598000D0200020F42A0020CC20002070B504781C
:105990000500002C10D12B899C420ED3172003F058
:1059A00039FB0121094803F0E1F9002801D001F099
:1059B00097FD0322064B1A6070BD6A6863009A5E09
:1059C0000449032001F0C2F80134E4E7F42A00207E
:1059D000CC200020C4DA0200F0B53A4C010AA170D4
:1059E000010CA279E170010E2171617912020A4362
:1059F000E179030009040A43217A85B009061143BD
:105A00000F000A00283725786070039703988242B8
:105A100007D100952C4A2D49032001F0EBF8012510
:105A20003DE05078561A8446674690780002384325
:105A3000D7783F04074310790006384383423FD1AB
:105A40001078A8423CD1C020A17A627A09021143A1
:105A5000E27AC00212041143227B12060A431900A3
:105A6000FEF762F8A279637912021A43E379200003
:105A70001B041A43237A1B0613439B199A795979FD
:105A800012021143DA791B7A12040A431B061343EC
:105A90009847051E06D00E49042001F03BF8280067
:105AA00005B0F0BDA279637912021A43E3791B04B1
:105AB0001A43237A1B0613439B195B7A2370EEE784
:105AC0000A32A3E7BC200020E9DA02006FC402001A
:105AD00047C40200054A937A507A1B020343D07AE6
:105AE00000040343107B000618437047BC200020CD
:105AF00028DF70470368002B08D007490A004B7263
:105B0000190A9172190C1B0ED17213730279034B8F
:105B10001A600E2303717047D8200020E82000206F
:105B200010B50320024900F0F5FF002010BDC0466B
:105B30000ADD020010B50320024900F0EBFF00204F
:105B400010BDC046F4DD020010B50320024900F08C
:105B5000E1FF002010BDC04624DE020010B5032086
:105B6000024900F0D7FF002010BDC04667DD0200EB
:105B700010B50320024900F0CDFF002010BDC04643
:105B800096DD020010B50320024900F0C3FF00209B
:105B900010BDC0467CDC020010B50949032000F0AE
:105BA000B9FF084B00241868FFF7A2FF0C23064A30
:105BB000064907481460137101F0B8FF200010BDBA
:105BC000DEDC02005C2B00202C2B0020CD0C000022
:105BD000342B0020F7B5274D274A2B6812689342D3
:105BE00004D30922254B00201A60FEBD827A447A34
:105BF00012022243C47A013324042243047B9B0013
:105C000024061443A288181F216893422ED9032327
:105C100009181A4001A805F051FB0121184A194B37
:105C200099501100053AFF3A170098580028FCD007
:105C30001548019E02681660DE59002EFCD0002631
:105C40005E508026F60099590029FCD004322B685A
:105C500002600E4A01332B6013005472220A9A72BA
:105C6000220C240EDA721C730822BBE709180422E6
:105C7000D0E7C046542B0020582B0020E8200020FD
:105C80000405000000E00140282B0020D82000205F
:105C9000F0B52A4A2A4D12682B6885B0934207D383
:105CA0000522284B1A6000232B60002005B0F0BDB0
:105CB000827A447A12022243C47A2349240422437A
:105CC000047B012024061443204A505001910539D9
:105CD000FF390F005658002EFCD01D4E3168086861
:105CE0000390D0590028FCD0002701981750802736
:105CF000FF00D0590028FCD0043131600133A28864
:105D00009B00191F2068934215D9032340181A409D
:105D100003A905F0D3FA2B680E4A01332B60130058
:105D20005472220A9A72220CDA720422240E1C7314
:105D3000044B1A60B9E740180422E9E7582B002009
:105D4000542B0020E82000200405000000E0014062
:105D5000282B0020D820002010B5837A447A1B021B
:105D60002343C47A154924042343047B03202406D7
:105D70001C43A28800F0EAFE114A13005472220A62
:105D80009A72220CDA72220E1A7308220D4B1A60D4
:105D90000D4B1A680D4B1B685343A26892009B1869
:105DA0000B4A1360A1880B4A8B08890704D1002095
:105DB0001360094B186010BD0133F8E7C4DD020021
:105DC000D8200020E8200020602B00205C2B002041
:105DD000282B0020582B0020542B002010B5837A4C
:105DE000447A1B022343C47A154924042343047BC9
:105DF000032024061C43A28800F0A8FEA188114AB3
:105E00008B0889071AD113600F4A002013005472BF
:105E1000220A9A72220CDA72220E1A7304220B4B97
:105E20001A600B4B1A680B4B1B685343A268920015
:105E30009B18094A1360094B186010BD0133E2E753
:105E400039DD0200582B0020D8200020E820002057
:105E5000602B00205C2B0020282B0020542B0020DE
:105E600010B50D49032000F055FE80235B051A692B
:105E70000A490B480A605B690A49013B0B605343BE
:105E8000094A00211360094A01F038FE0122084B3B
:105E900000201A6010BDC046ACDC0200602B002060
:105EA00078DC02005C2B0020282B0020F55A020031
:105EB000E820002010B50320024900F02BFE00204E
:105EC00010BDC0467CDC0200F0B53A4C010AA1705E
:105ED000010CA279E170010E2171617912020A436D
:105EE000E179030009040A43217A85B009061143C8
:105EF0000F000A008237257860700397039882426A
:105F000007D100952C4A2D49032000F073FE01258E
:105F10003DE05078561A8446674690780002384330
:105F2000D7783F04074310790006384383423FD1B6
:105F30001078A8423CD1A020A17A627A09021143CC
:105F4000E27AC00212041143227B12060A431900AE
:105F5000FDF7EAFDA279637912021A43E379200082
:105F60001B041A43237A1B0613439B199A79597908
:105F700012021143DA791B7A12040A431B061343F7
:105F80009847051E06D00E49042000F0C3FD2800E6
:105F900005B0F0BDA279637912021A43E3791B04BC
:105FA0001A43237A1B0613439B195B7A2370EEE78F
:105FB0000A32A3E7D8200020EBDB02006FC4020006
:105FC00047C40200044A13005072020A9A72020C7B
:105FD000000EDA7218737047D8200020054A937AB1
:105FE000507A1B020343D07A00040343107B00065F
:105FF00018437047D82000200368002B08D00749B9
:106000000A004B72190A9172190C1B0ED17213738C
:106010000279034B1A60062303717047EC200020BD
:10602000FC2000200368002B08D007490A004B72AF
:10603000190A9172190C1B0ED17213730279034B5A
:106040001A60062303717047EC200020FC2000201A
:106050000368002B08D007490A004B72190A917295
:10606000190C1B0ED17213730279034B1A600623AD
:1060700003717047EC200020FC20002010B505497A
:10608000032000F047FD0320034900F043FD0020FA
:1060900010BDC0462FDF02005FDF020010B5817A1D
:1060A000437A09021943C37A134A1B041943037B39
:1060B00004001B060B4380211360022309020F48D2
:1060C000137101F033FDA17A637A09021943E37A6F
:1060D0000B4A1B041943237B0A481B060B438021F0
:1060E000136003234902137101F020FD182002F010
:1060F00089FF002010BDC046C42B0020CC2B0020FF
:106100006C2B0020742B002010B5040020490320C4
:1061100000F000FDA17A637A09021943E37A1D4A6F
:106120001B041943237B1C481B060B43802113606F
:1061300002230902137101F0F9FCA17A637A0902C2
:106140001943E37A154A1B041943237B14481B06A1
:106150000B438021136003234902137101F0E6FC15
:10616000A17A637A09021943E37A0E4A1B041943A0
:10617000237B0D481B060B43C021136004238902B7
:10618000137101F0D3FC182002F03CFF002010BD79
:10619000DADE0200BC2B0020CC2B0020642B002078
:1061A000742B0020942B00209C2B002010B5074955
:1061B000032000F0AFFC064801F004FD054801F0A3
:1061C00001FD182002F026FF002010BD05DF0200AF
:1061D000CC2B0020742B002010B5182002F01AFFE1
:1061E000002010BD10B50A49032000F093FC094AB5
:1061F0000021094801F082FC084A0021084801F00A
:106200007DFC084A0021084801F078FC002010BD00
:10621000B0DE0200F95F0200ACDE02002560020081
:10622000A4DE020051600200A8DE0200F0B53A4C84
:10623000010AA170010CA279E170010E217161794E
:1062400012020A43E179030009040A43217A85B066
:10625000090611430F000A0046372578607003973E
:106260000398824207D100952C4A2D49032000F063
:10627000C1FC01253DE05078561A84466746907867
:1062800000023843D7783F040743107900063843AB
:1062900083423FD11078A8423CD1E020A17A627AB3
:1062A00009021143E27AC00212041143227B120652
:1062B0000A431900FDF738FCA279637912021A43E8
:1062C000E37920001B041A43237A1B0613439B190E
:1062D0009A79597912021143DA791B7A12040A4326
:1062E0001B0613439847051E06D00E49042000F0F4
:1062F00011FC280005B0F0BDA279637912021A439F
:10630000E3791B041A43237A1B0613439B195B7A18
:106310002370EEE70A32A3E7EC20002053DE0200F0
:106320006FC4020047C402003CDF704710B5002074
:1063300003F0DCFB002801D001F0D2F803F08EFC62
:10634000002801D001F0CCF8FFF7EEFF002801D0C3
:1063500001F0C6F810BD76DF70478ADF70478BDF2B
:10636000704710B501F0BCF810BD0000022210B556
:10637000034B044903201A6000F0CCFB10BDC0465B
:10638000A0200020A0DF020010B50378002B08D168
:10639000044B3B211888FFF7DEFF002801D001F0F5
:1063A0009FF810BD3E37002010B5032004F010F810
:1063B000002801D001F094F810BD10B5FCF7C4FD21
:1063C000002801D001F08CF810BD704710B588B0DE
:1063D00001AC1C2200212000FCF718FDA022920233
:1063E0006260F02200231203A2600322019323744F
:1063F000064B20006361064B2273A36104F0CCF9C5
:10640000002801D001F06CF808B010BD89630200CB
:1064100063630200002310B5064A0521180001F04D
:106420001BFB002801D001F05BF80349032000F0BA
:1064300071FB10BDEC2B0020B4DF020037B5040067
:106440000C4A0D49032003F05FFB002801D001F046
:1064500047F86B46DD1D2900002003F055FC00289D
:1064600001D001F03DF82B78023B5A425341237092
:1064700037BDC046F13A0200CD0C000007B500213F
:1064800003226846FCF7C2FC6946172002F064FD4F
:10649000002801D001F024F86946182002F05CFDC4
:1064A000002801D001F01CF80422094901A804F0D9
:1064B00005FF084A01A9022002F0B6FD002801D01C
:1064C00001F00EF80121022002F014FE07BDC046C3
:1064D0009CDF02006D63020010B5FFF740FF054826
:1064E000FFF73BFF082302009A4301D000F0F8FFBA
:1064F00010BDC0460021002010B5FFF730FF10BDD1
:10650000A2DF7047F0B599B007931EAB1C781FABA4
:106510001B8811AF05900691049200211C223800BF
:10652000039309AEFCF772FC142200210CA8FCF7BF
:106530006DFC0AAD032200213000FCF767FC03224A
:1065400000212800FCF762FC012102230A00B3703D
:106550000E331A4323000B408B4072703270620876
:106560000A40D200A00813430840E20880000A4015
:106570002409120103430C40134364011C433023DC
:106580003C701C4200D07E616B461B7F0BA98B7058
:106590006B461B8A01220B80102318000424AB7861
:1065A0001043053293432343AB706B469B890CAA7F
:1065B00093816B469B8928701381209B68700C9196
:1065C000136111A9219B06985560FFF799FF0500FB
:1065D000039B049A0193059B044900930300200048
:1065E00000F03EFB280019B0F0BDC046D6DF020027
:1065F0001FB501236A461370034B10720191684660
:1066000006CB904705B000BD642C0020F8B51C23D4
:106610000679424C7343E318DB7E0500944608205C
:10662000002B7AD10868431C0CD00123A12783409A
:10663000A020FF00C005C35103270B68C133FF33FF
:106640009B001F504B685A1C06D0A0200027C13366
:10665000FF339B00C0051F5028688F69304BC7501F
:10666000087D4B7D2F6803432E483B502B682E48F6
:106670004A680F681A502D481F500B7D012B21D1FD
:106680008B685A1C06D0A0200027C133FF339B0023
:10669000C0051F50C868431C0CD00123A1278340AC
:1066A000A020FF00C005C3510327CB68C133FF33CF
:1066B0009B001F50A1202B68CA688F68C0001A5029
:1066C00008301F501C2362467343E01842600A6979
:1066D000E2506346002B11D000222B68097FFC3367
:1066E0001A622B68FC339A64C1232868104A9B0005
:1066F000C2502B68180B40B202F09CFBA02304216F
:106700002A68DB00D1501C23002001227343E318C8
:10671000D87518769875DA769876F8BD642C0020CE
:10672000240500006C050000140500000C050000A5
:1067300080000200F0B5037985B00193A023002208
:106740000168DB00CA50019B1C325A432D4B9B1839
:106750005B68002B0CD0C2232B4A01689B00CA50F7
:1067600001220368DB03DB0E9A401300274AD3673C
:10677000A126274B01689C46264FF600CA59CB58E4
:10678000012402938B5965460393A2236442DB00E4
:10679000CB584C51CC510168A220C0008C510C50F8
:1067A000511C06D0A0210220C132FF329200C9053F
:1067B0005050029A013207D0A0210220029AC90546
:1067C000C132FF32920050505A1C06D0A022022142
:1067D000C133FF339B00D2059950039B013307D08F
:1067E000A0220221039BD205C133FF339B009950A5
:1067F0001C22019B5A43034B9B180022DA765A60F5
:1068000005B0F0BD642C00208402020004E100E029
:10681000140500000C0500001C23F7B506791700CD
:106820005E43334A9619B57D1122002D5DD1B160CA
:106830000121B582B77502680679FC3215620268DB
:106840007343916001680A00FC321562284AD3182C
:106850009A8A9F68BA5C944664469A8A013292B2D8
:106860009A82244A8C50596801922A0000293CD10E
:106870009A7D00928022520019009D8A009C14315A
:10688000A5421DD2016802E09D8A954204D00D0008
:10689000FC352D6A002DF7D01D009C8A14359442DA
:1068A000EAD00A000024FC3214622A88BA5C9446BA
:1068B00064462A88013292B22A80019A8C50D9E724
:1068C000802309885B000F22994208D003681900D1
:1068D000FC310A6A002AFCD00122DA6000221C2363
:1068E0005E43034B9C190023A3751000FEBDC046F8
:1068F000642C00201C0500001C2302795A43034B22
:106900009B18987D431E9841C0B27047642C0020AC
:10691000C12330B54D4C9B00E25885B04C4D9205DB
:106920004CD5AA6A002A49D000238122AB62C22337
:1069300092009B00E250474B9A7E002A01D101321F
:106940006260022269460A709021C9006258684656
:10695000625069460392DA7D0A72DA680192002277
:10696000DA751A7606CB90472B6A002B0FD00022DF
:10697000384B988A997D2A6288425BD29A8A9968B4
:10698000895C9A8A013292B29A82334BE150AB6CA5
:10699000002B11D00023AB642E4B9A7E002A01D02D
:1069A00001222260DA7D002A06D00022587EDA75A4
:1069B000C0B2D968FFF71CFE05B030BDE3585B07D5
:1069C000D2D5EB68002BCFD0A322224BD200D97DA9
:1069D000002914D1E960A2585A7ED97D9142C3D1D1
:1069E0001A7E002A16D0DA751A69D968DA60002290
:1069F000587E1A76C0B25A76FFF7FAFDB4E7002146
:106A0000E960597ED868A25842545A7E0132D2B207
:106A10005A76E1E79A7E002A01D101326260812133
:106A2000C22289009200A1500022587EDA75C0B2BD
:106A3000D968E1E70029AAD0684601729968027016
:106A400001919A7506CB9047A1E7C046002000400F
:106A5000FC200040642C00201C050000F7B56B46AC
:106A6000DD1D00230F00060028002B7001F0EEF959
:106A7000114AB41C13683B60976851681368791811
:106A80000131581CC91AA14211D20024A14209D0D7
:106A900029260A493B40023389029B003143D3181F
:106AA00010605960287801F0EFF92000FEBD36181B
:106AB00016600124F6E7C046802C002016E0020094
:106AC00010B5012000F002FC10BD0000FF22054BB4
:106AD0009A6000221A605A608222D2009850024ABC
:106AE00099507047802C00201404000070B50600F7
:106AF000002000F0EBFB041E09D100F023FC050090
:106B000000F024FC320001002800FFF7DFFF200026
:106B100070BD0000F7B50C4C06000F00002001A965
:106B2000A568FFF79BFF00280CD00721019B0E40B2
:106B30002B40F60006390233BF0231439B00394334
:106B4000E3185960F7BDC046802C0020F0B5114E07
:106B500085B004000F00012003A90192B568FFF77A
:106B60007DFF002814D00723039A1C40E4003A3329
:106B70001C4313002B4002330132BF029B0015401F
:106B8000F318274302355F60AD00019B76197360EF
:106B900005B0F0BD802C0020F0B5154E85B0050085
:106BA0000F00022003A900920193B468FFF756FF7B
:106BB00000281BD00723039A1D40ED007A331D43A4
:106BC000130023400233BF029B00F3182F435F6082
:106BD000531C2340023302329B0000991440F318E7
:106BE00002345960A400019B3619736005B0F0BDF2
:106BF000802C0020F0B5194E85B005000F00032051
:106C000003A900920193B468FFF728FF002822D05F
:106C10000723039A1D40ED00BA331D4313002340A0
:106C20000233BF029B00F3182F435F60531C2340C5
:106C3000023300999B00F3185960931C23400233E0
:106C400003329B0001991440F31802345960A400E8
:106C50000A9B3619736005B0F0BDC046802C002039
:106C6000F0B51D4E85B005000F00042003A9009269
:106C70000193B468FFF7F2FE00282AD007231D40D5
:106C80000223039AFF33ED001D4313002340023318
:106C9000BF029B00F3182F435F60531C2340023355
:106CA00000999B00F3185960931C2340023301990B
:106CB0009B00F3185960D31C2340023304329B001D
:106CC0000A991440F31802345960A4000B9B36193A
:106CD000736005B0F0BDC046802C0020F0B5244D97
:106CE00085B006000F00062003A900920193AC684E
:106CF000FFF7B4FE002838D007231E408223F60099
:106D0000FF331E43039BBF021A002240023292004F
:106D1000AA18374357605A1C224002320099920049
:106D2000AA1851609A1C2240023201999200AA18B6
:106D30005160DA1C224002320A999200AA1851606E
:106D40001A1D224002320B999200AA1851605A1D56
:106D5000063322401C400232023492000C99A400F7
:106D60000D9BAA182D1951606B6005B0F0BDC0468F
:106D7000802C0020F0B585B00090D81C1E4C8010EF
:106D80000191013003A916001D00A768FFF766FEF8
:106D9000002825D007230221009A1A40D300194366
:106DA000039BAA0511431A003A40981C0232013392
:106DB0003B409200A218023351609B00019AE318F5
:106DC0005A60A368039038405F1C3F1A033080006C
:106DD000BF002018AF4205D32A00310004F06EFA3C
:106DE00005B0F0BD3A00310004F068FA2000EA1B5B
:106DF00092B2F1190C30F1E7802C0020034B586857
:106E00001B68C01A43425841C0B27047802C002012
:106E1000F0B58FB0FFF7F2FF03000020834200D0EF
:106E20007FE00322544E7768B368791C04933B409B
:106E300002339B00F3185D682B0013403ED0022BF9
:106E400000D070E04B1C0593049B059A1940023159
:106E5000890071184B680693AB0D07932B049B0DAB
:106E60009C46049B934301339B00AA0D9A4232D95E
:106E7000002B00D17AE00499059ADCB2AB0D0A40F0
:106E8000191B330003329200B218C9B20C330293BB
:106E90000092394B394A039101949C580021634672
:106EA000A806069A400FA047AB0D984226D1C11CF8
:106EB000059B8908CC18304B5C602CE0AF0D2D048D
:106EC000AD0D7F19049B7F183B4002339B00F318E4
:106ED000791C5D68B0E70021AB0D0193049A059B16
:106EE000A806134003339B00F3180093234B039130
:106EF0000291F458400F6346069AD4E7204B800570
:106F00001D40049B000C3B401F001B4B0237BF0081
:106F10000543DF197D60FFF771FF03000120584032
:106F2000C0B20FB0F0BD0024AB0AAF0505933F0F10
:106F300008AB0819BC420CD3CC198221A806C900A1
:106F400000977558400F059A0021A8470028B2D134
:106F5000E1E7A2009446049A013410400230064A48
:106F600080001018624640689850E2E76A46147F35
:106F7000320019000C328AE7802C00201404000033
:106F80003F00FFFF0378012B01D1014A13707047C6
:106F90009A30002070B506000D001400002817D0AC
:106FA00004220C49280004F089F980212368281D57
:106FB000043323603368084A490004F089F9002348
:106FC000984203DB2368181820600123180070BD65
:106FD0002060FAE748E002004DE00200F0B51C0036
:106FE0000023584FCBB03800079116000993FFF7E4
:106FF00083FC051E02D000204BB0F0BD099A0AABFD
:107000009918079809AAFFF7C5FF0028F3D0509BED
:10701000062B16D8180003F09DFE04333F4C5B6C22
:107020007F00300004F0A8F9050009982B18FF2B09
:1070300005D80AAB18182A00310004F03FF9002DDA
:10704000D9DB099B5D1980232C1D09955B009C42AF
:10705000D1D80AAB581904223B4904F02FF93B4D13
:1070600022000AA92800099404F028F9E2B22900B4
:107070003800FFF7D1FB030058425841C0B2BBE7CC
:10708000802109980AAB4900091A320018182368B0
:1070900004F01EF90500D2E7802109980AAB4900E7
:1070A000091A1818636832000093236804F010F975
:1070B000F0E7802109980AAB4900091A1818A3685B
:1070C0003200019363680093236804F001F9E1E75B
:1070D000802109980AAB4900091A1818E3683200A0
:1070E0000293A368019363680093236804F0F0F8A7
:1070F000D0E7802109980AAB4900091A18182369BA
:1071000032000393E3680293A368019363680093DA
:10711000236804F0DDF8BDE7802109980AAB490037
:10712000091A181863693200049323690393E3680A
:107130000293A368019363680093236804F0C8F87E
:10714000A8E7C0461021002048E002009B30002044
:10715000F0B51C000023C9B007930B0016005A1E9F
:1071600093410A225B421A4055480D000292FFF7F4
:10717000C3FB002875D1002C19D1079A08AB9918C8
:10718000280007AAFFF706FF00286AD0300004F0A5
:10719000F3F80500C22800D9C225079A08AB981851
:1071A00031002A0004F08AF8079B5D190795519A6F
:1071B000202794464F9B63440493079B029908AA97
:1071C000D21831335B1808A9CB180193029BD3184E
:1071D0000393039B9A4247D11D00019B0133009307
:1071E000019B11330593049BA34240D8009B2F7051
:1071F000013B6F70AF701F70009B0335013300932C
:10720000009A059B9342EED10D23019A07981374BF
:10721000033B5374039B433030331F70029B0422A3
:10722000C01808AB07902749181804F047F8079BC7
:10723000254E1D1D2A0008A93000079504F03EF8D0
:10724000EAB21F4D31002800FFF7E6FA002808D106
:107250002800FFF751FB002803D1049B07909C42B4
:10726000ABD3200049B0F0BD17700132B1E74F9B9E
:10727000A34220D94E9B1E5D3111CAB21300373391
:10728000092900DC073B2B700F2333401A003732EB
:10729000092B01D830331A006A70AF7003F0EEFF8B
:1072A000682280194378934300D12E26009B013435
:1072B000013B1E70A0E74F9B509AE31AD65CDBE7B8
:1072C0001021002048E002009B300020F0B5184E4D
:1072D00089B033780500002B04D0164B00201B78B2
:1072E000AB4222D06A46144B6C4683CB83C283CB1D
:1072F00083C203CB03C20F23104F009301330193CA
:10730000083B0393380002330293FFF713FA00227D
:10731000954200D10A4A21003800FFF777F900288A
:1073200003D101233370034B1D7009B0F0BDC0467B
:10733000993000209830002028E002001021002021
:10734000856F020000487047DD6F020000487047FB
:107350005171020070B500240125174B1B78A34220
:1073600000D870BD2900154AE3001668144AF618C3
:107370003078136881400B421AD08B43136001F0C0
:10738000FBFE290032780F4B91401B680B40010037
:1073900091408B420CD17368002B09D07178013970
:1073A0004E427141091A484241411000C9B2984702
:1073B0000134E4B2D1E7C0469B310020C83100203F
:1073C000C4310020C0310020F8B5124E0700300053
:1073D00000F0F8FB002817D10124BC400E4D2B68AB
:1073E000234214D1380001F0C7FE0C4B1A68002864
:1073F0000BD022431A602B6800221C43084B30003C
:1074000019682C6000F092FBF8BDA243F2E7A34399
:107410002B60F9E7A0310020C4310020C0310020EA
:107420009C31002073B505000C0016000720042ACB
:107430001DD901F087FD002815D0164B164A1D6096
:10744000164B1C70164B013C1E6000230326136074
:10745000144AE4B21360FF2C0AD1134A00211348E6
:1074600000F04CFB03E001F03FFD0028E5D076BDC5
:10747000002201A9E300EB180E708A70CA709A7896
:1074800018784A700A4A01F0CFFD013CE4B20028A6
:10749000E1D0ECE7C8310020C03100209B31002052
:1074A0009C310020C43100205573020054E00200DA
:1074B000C973020010B50024074B1B789C4201D30E
:1074C000002010BD054BE2001B680121D05C01F0DB
:1074D00011FE0134F0E7C0469B310020C831002086
:1074E0001FB5002101AA906003481180516000F08F
:1074F00005F805B000BDC0460140000010B50949BF
:107500000120FFF707FBFFF7DBFAFFF781FC0028FC
:10751000FBD1BFF34F8F044A044BDA60BFF34F8FA8
:10752000C046FDE758E002000400FA0500ED00E067
:1075300030B509494C788A78631CDBB29A4200D195
:1075400000230D7800229D4204D003701820604370
:107550004A681218100030BDD0310020F0B5002765
:1075600085B002ABDD1D0090280001912F7000F066
:107570006DFC02AB9E1D3000FFF7DAFF0424B84219
:1075800008D06B463C001B790370009B3278436047
:10759000064B5A70287800F077FC002C03D180222B
:1075A000034B52035A60200005B0F0BDD0310020DB
:1075B000FCE100E0084B09491A682F23C046C04689
:1075C000C046C046C046C046C046C0468A4200D0FB
:1075D000C046013BF2D17047282100200024F4006E
:1075E00080220C4B920270B5DA678023D2220125EB
:1075F000094C5B029200A350403AA3506560FFF72C
:10760000D9FFA5600024054B1C60FFF7D3FF044B96
:107610001C7070BD04E100E000100140E831002062
:10762000D931002070B50024234B5C649C64DC6479
:107630001C655C609C60214B1B68A34232D0204AD1
:1076400020498D58204A1268AD1A2D022D0A1A6859
:10765000AA4214D8AD1AA4181A7CDE69002A0CD0EC
:1076600000221A74194A1268002A1ED099695869B2
:107670009047002801D0FFF733FF002E13D1144BA1
:10768000144A197813788B4204D10133DBB2022BF0
:107690000FD013701378104A9B009C5080220F4B20
:1076A00052035A6070BD3300D1E75A699869904718
:1076B000E3E70023EDE7C046FC100140EC31002079
:1076C0000405000000100140E8310020CC3100200A
:1076D000E4310020E5310020DC310020FCE100E055
:1076E000F0B5C349C34A0B68C3488BB00293147802
:1076F000037800229C4200D1B7E00133DBB2022BB9
:1077000000D1B0E003700378BC4A9B009A58029BFA
:107710009B181B021B0A0B6001230193B84B00202E
:1077200019780091B7490968039159780991596806
:10773000049100999B788C4601210593AC4B0790EE
:107740001B6806900893B04B1F78039B099CA445C7
:1077500000D08CE00699002901D0AB490F70079941
:10776000002902D0A249089C0C60A649002800D03C
:107770000B60019B002B00D0A1E0039A0B68002452
:107780009B1A5A1E9341DBB20193002635009D4B94
:107790001B6803939C4B039A1B780693944B1B68BE
:1077A0000293002C00D0B3E0009B9C4500D0D0E0B9
:1077B000002D02D06146924B1970924B002E00D0E2
:1077C0001A601B68039A9A4202D1019A002A45D096
:1077D000002B00D108E11B688C4A8D4C0393A558FF
:1077E000029B8C4EEB1A1B021B0A03330093337867
:1077F0000192002B12D18023C13A5B02FF3AA350C1
:10780000403AA350C02180220127834B92024900B5
:107810005A501A602760FFF7CDFE3770039B009A1D
:10782000934200D21300A821029AC9009B181B02A0
:107830001B0A6350019AA258521B1202120A5D1BC6
:107840002D0203322D0AAA4208D9019BE358635046
:10785000FFF7B0FE8022714B92025A6000226A4B01
:107860001A700BB0F0BD02704DE7019256E7654605
:1078700018246C43049D2C1965460135EDB2AC46C5
:10788000059DAC4501D10025AC462578022D0AD0D6
:10789000032D00D05AE7002B00D157E700201874C1
:1078A000DB690800F7E765681E001C00002C00D1AA
:1078B0004CE7A54200D1B5E02600E469F6E70B6885
:1078C00000210C0008000E00002B05D1002900D17A
:1078D0005BE74C4A136058E71D68954206D90029BA
:1078E00001D048490B60AA1A1A604EE7521B401992
:1078F000DD681E60DF69002D07D0DC611C00029985
:107900009D6009180902090A59603B000199DBE7EB
:107910002300E469596802980791081A4049000257
:10792000000A9F6888423DD83818186000215960C5
:107930009960013119740021D9618A4206D0186812
:107940001168884244D8081A1060DA611A000126CA
:1079500027E71821009B5943049B5918009B0133CA
:10796000DBB200930098059B834201D10023009372
:1079700001250B78AB4200D016E74B681D7C002D2B
:1079800000D011E788685860C86898600869D860B6
:10799000496999610699002902D05D600D00B9E737
:1079A0000125B7E702990798091A0902090AB9429D
:1079B00002D27F1A1F60B9E700211960B6E7C01B29
:1079C000CF690791002F0DD11860DF61CB61E8E628
:1079D000110007920F688742F1D33F1A0F600F0022
:1079E0000799F1E73900F5E7FFF7FAFD36E7C046FA
:1079F000E8310020E5310020E4310020DC310020B6
:107A0000D0310020EC310020D831002004050000E6
:107A100000100140D931002000E100E0FCE100E06D
:107A2000FEFF7F00B5420AD1DB690800002B06D1BA
:107A300008480F00816008000791089306912C68A0
:107A4000ED69F561002D00D180E62E6834192C60B7
:107A50007CE6C04600100140F7B5032401900E00FB
:107A600015001F0014400720002C32D1002A30D00E
:107A7000FFF7B6FD174B80201F60174BC0225D60DB
:107A8000C525FF211C705C709E70144B40031C6068
:107A9000134B52001C70134BAD001C70124B9850CE
:107AA0005A598A431100C0220A435A51A122186030
:107AB00001990E48D2008150043D5A590C49114099
:107AC000C02212020A435A510A4BC25820000A4BE4
:107AD0001A60FEBDCC310020D0310020EC310020F6
:107AE000E4310020E531002000E100E00010014019
:107AF000FF00FFFF04050000E831002010B50A4B2D
:107B00005C680823002C0CD0013B002A09D0002817
:107B100007D000680133047C002C02D1230041749B
:107B20004261180010BDC046D0310020F0B5214F91
:107B300087B07B680500019103920824002B35D0A3
:107B4000002833D0013C042930D943690134002B8B
:107B50002CD0427C00230291012A00D0029304AA77
:107B6000D61D3000337000F071F904AB981DFFF79B
:107B7000DFFC0424002810D00123002403700E4AE7
:107B80000E4B4560D3588360019BC360029B036129
:107B9000039B436104AB9B797B70307800F074F9F0
:107BA000002C03D18022064B52035A60200007B0FC
:107BB000F0BDC046D0310020001001400405000097
:107BC000FCE100E010B5094B5A680823002A0AD0EE
:107BD000002808D04269002A05D00023022103743E
:107BE000FFF7BCFC0300180010BDC046D0310020D8
:107BF000030010B5DA6808001268002A04D0DA68B9
:107C0000DB6851681B68984710BD0023C0B28872BA
:107C10004B727047F0B5057AC368EDB29B68EA0015
:107C20009B185C7985B001A964084C701C684C6095
:107C30001C798C7001249F795E79274229D02642D5
:107C400027D1C7682D193F7BBD4222DAC5680832AB
:107C5000AD687708AD186D79E540AF4219D1C368BA
:107C60009B689A1813688B601379CB705379234003
:107C70001D006B426B4102330B70037A92791B1922
:107C80002240DBB252010372103001F00BFD05B04F
:107C9000F0BD012500222E400E708A60CA709A79CC
:107CA0002A405201F0E773B504000E006B46DD1D5B
:107CB000002328002B7000F0C9F8002E02D1E368E1
:107CC000002B15D16379A179DBB200228B420AD057
:107CD00021689A008A1801332179DBB2126899422F
:107CE00000D200236371E260E668731E9E41F6B223
:107CF000287800F0C9F8002E0AD000232000237253
:107D0000FFF788FF011E03D02000FFF771FFCDE7CA
:107D100073BD10B50C00017800290DD1237AE268FB
:107D20000133127BDBB29A4207D923722000FFF79E
:107D300071FF011E01D110BD03212000FFF758FF84
:107D400001212000FFF7AFFFF5E70000F7B50600BF
:107D50001036019204001F00094A0300300001F0B0
:107D6000E7FB051E0AD1300001F08CFC6B461B7945
:107D700065712760A57123716572E5602800FEBDFD
:107D8000137D0200F7B56B460400DE1D00233000B2
:107D900033700F0000F05AF8A3792279DBB29A42CF
:107DA00003D162791125002A10D062791125013A98
:107DB00093420BD021689A008A1817600133227908
:107DC000DBB29A4200D200230025A371307800F084
:107DD0005BF8002D03D129002000FFF764FF280085
:107DE000FEBD0000F0B504001E00002387B0019224
:107DF00002AA10000F00137000F028F8657AEDB2A7
:107E0000002D01D10123637202AB187800F03CF819
:107E10001120002D12D16A460B4B1279029302AB4E
:107E200019002000039404971A73FFF7ABFF002892
:107E300004D1637A002B03D1A07AC0B207B0F0BDA1
:107E4000002EF6D0B047F4E70B7C020070B5EFF3DC
:107E5000108672B6094B0122596800290BD1084CD3
:107E60005A60E26F074D2A401A60E5670170002EE4
:107E700000D162B670BD0270F9E7C04640370020FD
:107E800004E100E0FC06FFBC10B5084A5368002B73
:107E90000BD0002809D1EFF3108372B6044914689F
:107EA0000C605060002B00D162B610BD403700203E
:107EB00000E100E070B505000024054BE358002BFD
:107EC00001D0280098470434202CF6D170BDC0465C
:107ED000FC3100200A6810B50001134C002A10D0B4
:107EE000538803339B00D318802220184068D200A7
:107EF0000E4C8018834202D21A68013205D100204C
:107F000010BD23185B680833EEE79A88A24202D0BE
:107F10001A88002A04D15A88033292009B18E9E794
:107F20000B600120ECE7C046F0320020FFFF0000AC
:107F300010B50D4C0D4963880D481B01C9188B897C
:107F4000002B06D10122496800F0A4FC0423237011
:107F500010BD052307492370033B8B8001220023BA
:107F6000096800F097FCF3E768320020F032002047
:107F7000A422002010330020002307B504490093F9
:107F8000044A02330968044800F03EFC0EBDC046B6
:107F90001033002080E00200A4220020002307B557
:107FA00001000093024A0233024800F02DFC0EBD8E
:107FB00078E00200A4220020002307B5010000930E
:107FC000044A0133044800F01FFC031E00D00E23B6
:107FD00018000EBD74E00200A422002013B5032493
:107FE000084B0948998842681B68890059185388CA
:107FF00004700020033300909BB2044800F004FC9E
:1080000016BDC0461033002068320020A422002094
:1080100010B5064B191D5888FFF75CFF002802D0E9
:10802000FFF7DCFF10BDFFF783FFFBE7683200209E
:1080300037B5436805000C00002B2BD0224A11688D
:108040008B4227D35268934224D803221A4021D16D
:108050001E490089098988421CD129689868814293
:1080600018D11B4841688B4204D98025ED0049197D
:108070008B4209D342690A25934207D98021C9005E
:108080005218934202D201220025228068426841A0
:10809000C0B23EBD0023238023880020012BF8D8E6
:1080A0000190208801A9FFF715FF002802D123883D
:1080B0000133F0E7019B29689A688A42F1D16B602D
:1080C000024B1B892B81E4E7A422002068320020A8
:1080D000F0320020F8B5060002201C001B4B0F00F8
:1080E0001B781500034204D00330002A01D0002C75
:1080F0000FD1F8BD164A1B019B5C002B06D1A0884E
:108100002100FFF7E7FE002808D12060A388013393
:10811000A380A388012BEDD90A20EAE72368002E6B
:1081200003D0998832889142E9D1002F08D19B6809
:1081300000202B6023686B60064B1B892B81D8E7DE
:1081400019883A889142DAD1F1E7C04664320020BA
:10815000F0320020683200201C23F0B51C00AD4D29
:1081600007002E6F8BB07443605D0138052800D97D
:108170004DE102F0F9FD0600790079003D013D0175
:10818000AE01002F26D00124A34A1378A343137015
:108190001C2272439F4B0694D15C0239012908D8F6
:1081A0009B189A7D9D4B196C89181964596C8A1A11
:1081B0005A641C237343974C185D05AB013805289E
:1081C00000D926E202F0D0FD0602090215024002A3
:1081D000490253022D19287903281DD802F0BAFD4F
:1081E0000C02232E8E4D2B78022B0AD02B7C022BD7
:1081F00000D044E2012405E0FFF7BEFE01232B710D
:1082000007E0002424012B195868FFF7C7FE00235C
:108210002B55002800D186E001217F4A0E241378D7
:108220008B431370B4E77F4C0023012221687E4802
:1082300000F030FB0223A3800023E0E7794C2068A4
:10824000FFF7ACFE794B27685A88754B12019C46A4
:108250009B1859685F60A78821601F8102236146CF
:10826000A38000235354CAE77343EB185A8A02923F
:1082700002996B4A0801002F0DD0D98813181A896A
:10828000C81C801803225242511A5A891881521868
:108290005A8101247CE7121811895768187C8900DB
:1082A0007F18062800D9A1E002F054FD2C803F572A
:1082B0001D9304005E4C1C227243564B9B18D888B9
:1082C000029B574A1B01D3181A89C11C8918032223
:1082D000198152425989121A52185A81544B9C42A0
:1082E00000D1EBE054E70023524805A943601C335A
:1082F0007343EB189B690360FFF79AFE002801D1D6
:108300000A2445E70023221DAA18009339000133EF
:10831000454800F079FA1C2202237243AD182B74F1
:108320000E240028C7D10BB0F0BD22000023390075
:108330000C32AA18083100933B48013300F064FA6C
:108340001C231A007243AA18917D0122002900D033
:1083500002327343ED182A74E2E7304A536C002B63
:1083600000D194E10724106C013B411C21401534DD
:10837000744311642749C0000C19A18A5364890011
:10838000791800271518AB8800978258264800F006
:108390003BFAA38AAA889B18A382A37D013BDBB288
:1083A000A375BB42BCD101232374B9E7220000238B
:1083B0000832AA18391D00931B48013300F024FA33
:1083C0001C227243AB5CAD18033B591E8B41053335
:1083D000A5E7184B5868FFF7EFFD04001C200623A3
:1083E00070432D182B74002C9DD064E70F2462E796
:1083F000002F00D04DE71C237343EB1802931B7929
:108400000393012B43D0002B16D0022B56D00F2400
:10841000BEE6C04678320020643200201C320020C4
:10842000F032002010330020A42200206832002007
:108430001D1D0000F031002039000A270C2205A87C
:10844000FAF7E4FC029B05A8DB680A240393059372
:1084500002ABFF183900FFF7EBFD00280ED006989D
:10846000029A8388D38003881381FFF7A5FD3A8899
:10847000884B12019B18012204009A731C200223CE
:1084800070432D182B71002C00D14CE726E7A01D5E
:108490002818814B05AA3900FFF71CFE041E10D1D5
:1084A0000698FFF789FD7C4B04009A88794B1201EE
:1084B0009B186A46127B9A730A28E4D1002306931C
:1084C00077E6082239007448FAF7A0FC0A2CF5D0A8
:1084D00004E7002F00D0DCE6704B1A7B002A0AD09C
:1084E0001F7318780138062891D802F029FC3953F7
:1084F0005C5F90626C0018780728F2D802F020FCCC
:1085000004F1F1151F2E2E131A89624901321A81C6
:10851000002208785A801A73424242419A72097CBA
:108520004A424A41DA72012207E05D4958688A8866
:108530004088033212188A8002221A70D1E75988C3
:108540005748544A09015218046851685460016040
:1085500081881181022282800432EEE70722ECE753
:108560009A7A002A08D000224A499A728A89002AF7
:1085700002D1897B00290CD1DA7A002A0ED00022A0
:10858000DA72444A918B002908D1927F002A05D0E3
:1085900001225A80FFF73CFD040074E700221A70A4
:1085A0005A805A608AE7FFF719FDF5E7FFF7C0FC2C
:1085B000F2E706221A705A88364B12019B18586847
:1085C000FFF7ECFCE8E707221A7000225A60FFF779
:1085D000D3FCE1E700221A701BE001221A701B3263
:1085E0005643A61932899A81B288DA81F2689A6074
:1085F0000FE002221A701A325643A61932899A8164
:10860000B288DA81F2689A60327C063A5042504170
:1086100018741800FFF74EFC1C22206F00215043F5
:108620002018FAF7F3FB626F002A06D00321236FAC
:10863000013A01330B4023676267636F002B18D048
:108640000020FFF789FD6EE603221A7019325643A7
:10865000A619F2889A813289C7E704221A70183263
:108660005643A619F2889A810022DA81D1E70522C1
:10867000B1E704210B4A13788B43137053E60223AE
:10868000084A11780B4301218B43137016E71B68CE
:10869000FFDEC046F0320020183300206832002090
:1086A000103300206432002010B50800FFF754FD9D
:1086B00010BD29DF704728DF70470000094B5A6E54
:1086C000013A5A66002A04D1022007490A788243F7
:1086D0000A701A6E0132042A01D01A66704700220D
