:020000022000DC
:102C000000800020F5E6020035E7020037E7020009
:102C100000000000000000000000000000000000B4
:102C200000000000000000000000000039E7020082
:102C300000000000000000003BE702003DE702004A
:102C400049C802003FE70200EDA50200C1D402001E
:102C50003FE7020000000000D9CE020019CA0200BE
:102C60003FE702003FE702003FE702003FE70200C4
:102C70003FE702003FE702003FE702003FE70200B4
:102C80003FE7020069B202003FE702003FE70200AF
:102C900025B302003FE70200CDE902003FE7020052
:102CA0003FE702003FE702000000000000000000D4
:102CB0000000000000000000000000000000000014
:102CC00010B5064C2378002B07D1054B002B02D002
:102CD000044800E000BF0123237010BDD82200206B
:102CE0000000000088410300084B10B5002B03D002
:102CF0000749084800E000BF07480368002B00D1DF
:102D000010BD064B002BFBD09847F9E700000000F0
:102D1000DC22002088410300C422002000000000C3
:102D2000164B002B00D1144B9D46402292029A1A5A
:102D3000924600218B460F461348144A121A00F09F
:102D400065F80F4B002B00D098470E4B002B00D09E
:102D500098470020002104000D000D48002802D0F3
:102D60000C4800E000BF00F02DF82000290000F022
:102D700059F800F011F8C04600000800008000205B
:102D80000000000000000000D8220020083B0020C6
:102D90000000000000000000084B10B50400002BEC
:102DA00002D0002100E000BF054B1868836A002BA9
:102DB00000D09847200000F031F8C0460000000025
:102DC0002009030070B500260C4D0D4C641BA410A7
:102DD000A64209D100260DF097FD0A4D0A4C641B4E
:102DE000A410A64205D170BDB300EB589847013638
:102DF000EEE7B300EB5898470136F2E7BC2200201B
:102E0000BC220020BC220020C02200200300821827
:102E1000934200D1704719700133F9E7FEE7C046CD
:102E200048DF7047F7B5002007F0CEFC8549040065
:102E3000032007F0DDFC8449032007F0D9FC834917
:102E4000032007F0D5FC002C02D0200008F06AF91E
:102E500000207F4B0B2118707E4B7F4A18707F4BF0
:102E60001827187004231360536093607C4A10265F
:102E700010707C4A7C4C1160516091607B4A033138
:102E800010707B4A7B4D1160516091607A4A2760D7
:102E9000107006226760A7602E606E60AE60774992
:102EA0000A604A608A607649087076490A604A601A
:102EB0008A60754A1070754A13605360936004F01D
:102EC00063FB00970196624B1B789A00A058182864
:102ED0000AD00099013BDBB2A150022B00D900239C
:102EE0005B4A137004F050FB5A4B1B789A00A858A9
:102EF00010280AD00199013BDBB2A950022B00D95E
:102F00000023544A137004F057FD544B524A1B7867
:102F10009900885804280AD00426013BDBB28E5061
:102F2000022B00D900234D4A137004F047FE4C4A8F
:102F30004C4913789E0070580B2809D00B27013B91
:102F4000DBB27750022B00D90023137005F0BEFBD3
:102F5000464A474913789E0070580E2809D00E271C
:102F6000013BDBB27750022B00D90023137006F02F
:102F7000E3F9414A414913789E007058062809D068
:102F80000627013BDBB27750022B00D900231370D8
:102F900005F0F2FD3A4A3B4913789E007058062826
:102FA00009D00627013BDBB27750022B00D9002362
:102FB000137006F03FFC344A344913789E00705871
:102FC000042809D00427013BDBB27750022B00D93B
:102FD0000023137006F022FE04F086FB002800D0C8
:102FE00071E704F0A5FD002800D06CE704F0A2FE14
:102FF000002800D067E705F019FC002800D062E740
:1030000006F056FA002800D05DE705F065FE0028BE
:1030100000D058E706F0BEFC002800D053E706F0C9
:103020009FFE002800D04EE707F014FD002800D0D6
:1030300049E7FFF7F5FE002800D144E708F072F8F1
:1030400041E7C04624090300770903009109030002
:103050004825002049290020B03A00204A290020B4
:103060004D290020BC3A002000370020902A002083
:10307000D43A0020A43A0020582A0020C83A002060
:10308000CC2A0020E03A0020582B0020EC3A002007
:10309000A0DF7047A6DF704763DF704730B5AE49E9
:1030A00089B0032007F0A4FB01220120AB4B524260
:1030B000AB4C1A80AB49AC4B220088700B80FFF7F9
:1030C000E7FF002801D008F02DF8A849102204A835
:1030D0000CF0A4FFA64D04A82900FFF7DDFF00288F
:1030E00001D008F01FF8A34A2B7821880392A24A46
:1030F000A24802920222019203320092A04A07F0F3
:103100007DF8002801D008F00DF89E4A2B78218820
:1031100003929D4A9D4802920222019292180092C7
:103120009B4A07F06BF8002801D007F0FBFF994A93
:103130002B7821880392984A98480292072201929C
:10314000023A0092964A07F059F8002801D007F099
:10315000E9FF944A2B7821880392934A934802927C
:1031600010220192073A0092914A07F047F800288E
:1031700001D007F0D7FF8F4A2B78218803928E4A1F
:103180008E4802920C220192073A00928C4A07F074
:1031900035F8002801D007F0C5FF8A4A2B7821882E
:1031A0000392894A894802920122019203320092D5
:1031B000874A07F023F8002801D007F0B3FF854ABB
:1031C0002B7821880392844A84480292102201922B
:1031D0000B3A0092824A07F011F8002801D007F05C
:1031E000A1FF804A2B78218803927F4A7F48029270
:1031F000102201920B3A00927D4A06F0FFFF002850
:1032000001D007F08FFF7B4A2B78218803927A4AFE
:103210007A48029204220192033A0092784A06F018
:10322000EDFF002801D007F07DFF764A2B7821883A
:103230000392754A7548029201220192043200926B
:10324000734A06F0DBFF002801D007F06BFF714ADC
:103250002B7821880392704A7048029204220192CE
:1032600000926F4A06F0CAFF002801D007F05AFF0B
:103270006C4A2B78218803926B4A6C480292012297
:1032800001920B3200926A4A06F0B8FF002801D082
:1032900007F048FF674A2B7821880392664A6748FF
:1032A00002920122019204320092654A06F0A6FFC2
:1032B000002801D007F036FF624A2B78218803925C
:1032C000614A6248029202220192013A0092604AE7
:1032D00006F094FF002801D007F024FF5D4A2B7808
:1032E000218803925C4A5D48029210220192073ABB
:1032F00000925B4A06F082FF002801D007F012FF1F
:10330000584A2B7821880392574A58480292102233
:1033100001920B3A0092564A06F070FF002801D045
:1033200007F000FF534A21882B780392524A5348F2
:103330000292102201920B3A0092514A06F05EFF6F
:10334000041E01D007F0EEFE4E49032007F050FAAC
:10335000200009B030BDC046E20A03004C20002026
:10336000042400200624002000FFFFFFB50903000D
:103370000A24002034230020B82300200C0B030073
:1033800001FF000064230020EE2300201B0B03003C
:1033900002FF00005C230020E7230020250B030030
:1033A00003FF00006C230020F02300202C0B0300FF
:1033B00004FF00003C230020BA230020410B03003F
:1033C00005FF00000C230020802300205C0B03007D
:1033D00006FF000024230020982300206D0B03002B
:1033E00007FF00004C230020C7230020810B0300AF
:1033F00008FF00001423002084230020950B030005
:1034000009FF000044230020C6230020A40B030072
:103410000AFF00007423002000240020B90B0300E1
:103420000BFF0000F42200207C230020C30B0300CC
:103430000CFF0000FC2200207D230020D60B03009F
:103440000DFF0000042300207E230020E20B030078
:103450000EFF00001C23002088230020EA0B03003D
:103460000FFF00002C230020A8230020FD0B0300E9
:1034700010FF000054230020D7230020160C030067
:1034800011FF00002F0C0300F0B510251627114E78
:103490008BB006AC00900191029269462A00300080
:1034A00003936F440CF0BAFD2A00002120003D80F8
:1034B000FFF7ACFC084B21001B88A7602380012389
:1034C000A3700023A380054BE6601888FFF7E2FD98
:1034D0000BB0F0BDF02300206C2300204C20002016
:1034E000F0B587B06B4601270C4D02AC2870102256
:1034F000002120009E1DDF80FFF788FC084B210083
:103500001B88A77023800023A380064BA660188821
:10351000E560FFF7BFFD07B0F0BDC0467C2300208B
:10352000F42200204C200020F0B5038885B0112B38
:103530002BD0502B3ED0102B14D1BD4E8288BD4BCA
:103540003078BD4C1A8082001359102B1AD03721C5
:10355000BA4A0191012807D934390091B8490120AC
:1035600007F0ECF905B0F0BD032500952368B549D7
:10357000022007F0E3F933780133DBB233709B00AC
:103580001D51EFE703231351ECE70122A84EA94B8D
:1035900030785242A84C1A8082001359102B07D061
:1035A0004521A64A019141390128D6D80425DCE7F6
:1035B0000423E8E7A44AC38812889A421BD1FF205B
:1035C000FFF78EFFA14803887F2B01D97F2303805B
:1035D00004F094FA964E984C307882001359102BD0
:1035E00007D05A21954A0191052555390128B4D8AB
:1035F000BBE70523C7E7964A12889A421CD1FF20F1
:10360000FFF76EFF934803887F2B01D97F23038048
:1036100004F074FA864E884C307882001359102BCF
:1036200008D06521854A019106255F39012800D916
:1036300093E79AE70623A6E7874A12889A4214D1AD
:10364000864804F05BFA7A4E7B4C3078820013593E
:10365000102B08D06D21794A019107256639012880
:1036600000D97AE781E707238DE77D4A11889942DF
:1036700000D177E792889A4200D173E7794A12889D
:103680009A4211D16A4E6C4C307882001359102B3B
:1036900008D07A21694A01910B256F39012800D998
:1036A0005BE762E70B236EE76F4A12889A4214D1F8
:1036B0006E4804F023FA5E4E5F4C30788200135956
:1036C000102B08D081215D4A019108257939012804
:1036D00000D942E749E7082355E7654A12889A422C
:1036E00000D13FE7634A12889A4200D13AE7624A22
:1036F00012889A4211D14E4E4F4C307882001359A5
:10370000102B08D091214D4A01910A2587390128B3
:1037100000D922E729E70A2335E7584A12889A4256
:1037200011D1434E444C307882001359102B08D0ED
:103730009721424A019109258E39012800D90CE7C9
:1037400013E709231FE74E4A12889A4200D009E77F
:10375000831D03931F7B022F25D10124494B1B7826
:10376000234220D04849032007F042F8802000027D
:1037700006F04EF88020400206F050F8C02080028B
:1037800006F052F8414E424D307882005359062BD4
:103790004AD0A321294A01910094A04238D928494E
:1037A000200007F0CBF8039B1B7B062B00D0D9E64B
:1037B0000124344B1B78234200D1D3E63549032042
:1037C00007F016F88020000206F022F88020400260
:1037D00006F024F8C020800206F026F82B4E2C4D6F
:1037E000307882005359062B20D0AB21134A019127
:1037F0000094A04200D9B1E62B681249022007F0DC
:103800009DF833780133DBB233709B005C51A9E63D
:103810002B680C49380007F091F833780133DBB29C
:1038200033709B005C51BEE75451BCE7545199E69C
:10383000492900204C200020A43A0020C50903009B
:10384000E6090300380A030034230020B8230020CF
:1038500064230020EE2300205C230020E7230020C7
:103860006C2300203C2300200C2300208023002018
:10387000242300204C230020442300207423002014
:10388000F42200207D230020820A0300CC2A00209D
:10389000E03A0020B30A0300F0B510251627114EB8
:1038A0008BB006AC00900191029269462A0030006C
:1038B00003936F440CF0B2FB2A00002120003D80EE
:1038C000FFF7A4FA084B21001B88A760238001237F
:1038D000A3700023A380054BE6601888FFF7DAFB8E
:1038E0000BB0F0BD882300201C2300204C200020BA
:1038F00010B504000C2202490CF090FB200010BD12
:10390000BA2300207FB51025094E04002A0031009B
:1039100068460CF083FB7F22F37B694613406A46BE
:103920002000D3732A000CF079FB200004B070BD96
:10393000982300207FB51025094E04002A0031008D
:1039400068460CF06BFB7F22F37B694613406A46A6
:103950002000D3732A000CF061FB200004B070BD7E
:10396000C72300207FB51025094E04002A0031002E
:1039700068460CF053FB7F22F37B694613406A468E
:103980002000D3732A000CF049FB200004B070BD66
:10399000F0230020014B18887047C046B823002050
:1039A000014B18887047C046EE230020014B186871
:1039B0007047C04600240020014B18787047C0466D
:1039C0007D230020014B18787047C046C623002095
:1039D0007FB51025094E04002A00310068460CF01E
:1039E0001DFB7F22F37B694613406A462000D37398
:1039F0002A000CF013FB200004B070BDA8230020A7
:103A00007FB51025094E04002A00310068460CF0ED
:103A100005FB7F22F37B694613406A462000D3737F
:103A20002A000CF0FBFA200004B070BDD723002060
:103A30001FB501900291039201A90C2202480CF0DB
:103A4000EDFA05B000BDC046BA230020014B186056
:103A50007047C04684230020014B18807047C04641
:103A60007E230020014B18807047C046B8230020F9
:103A700007B5072200900191024869460CF0CEFA82
:103A800007BDC046E7230020014B18707047C046B1
:103A9000C62300201FB5029203935A006B46520EB4
:103AA000009001910348DA73694610220CF0B6FACF
:103AB00005B000BD982300201FB5029203935A0061
:103AC0006B46520E009001910348DA73694610224A
:103AD0000CF0A4FA05B000BDC72300201FB5029268
:103AE00003935A006B46520E009001910348DA731B
:103AF000694610220CF092FA05B000BDF0230020B8
:103B000073B503881D2B20D10622037C13409342FA
:103B10001BD10100164C1832113120000CF07EFA36
:103B2000200004F0EDF8134E134C30788200135946
:103B3000042B19D03921114A0191012806D93739AE
:103B4000009101200E4906F0F9FE73BD0225009593
:103B500023680C49280006F0F1FE33780133DBB20C
:103B60003370AB401D51F0E702231351EDE7C0461F
:103B70000B2400204A290020B03A0020550C0300F5
:103B8000E6090300380A030078DF70477ADF7047E0
:103B90007CDF704770470000004870470C2500200C
:103BA00010B5044904480AF0A3FD002801D007F02D
:103BB000B9FA10BD953B0200FC24002070B59AB004
:103BC0000BAC3C2200212000FFF720F902232370D8
:103BD0000433E370104B012663618023626A03ADF6
:103BE000DB00A67026820021138028002022FFF728
:103BF0000DF9962300215B002B61EE706961074B84
:103C000000912A0020000AF0CDF9002801D007F029
:103C100089FA1AB070BDC0464E200020CD3D02008A
:103C2000112330B585B001AD2B701A4B1A4C1B68AF
:103C30001A4A1B499BB220000CF02CFA20000CF011
:103C40004BFA210082B22800FFF7A2FF002801D022
:103C500007F068FA0020FFF797FF002801D007F06F
:103C600061FA02AC082200212000FFF7CFF82023E0
:103C70002380183363800023A3809133FF33200017
:103C8000E380FFF783FF002801D007F04BFA05B06F
:103C900030BDC046A40000100C250020800C03009D
:103CA000760C03007FB518490422063168460CF0F3
:103CB000B5F90023D022154968460AF03DFE0028D8
:103CC00001D007F02FFA01AA012100200AF08EFE90
:103CD000002801D007F026FA01A80AF09FFE00286C
:103CE00001D007F01FFA0A480AF05CFE002801D054
:103CF00007F018FA07480AF05FFE002801D007F025
:103D000011FA07B000BDC046760C03002C24002039
:103D1000073E0200353E020076DF7047A8DF70479D
:103D200067DF70471FB503880400112B23D004D828
:103D3000022B28D0102B0FD01FBD512B29D0552B73
:103D400001D03A2BF8D1A0881321FFF7E5FF002816
:103D5000F2D007F0E7F9EFE70320194906F048FD34
:103D6000072009F069FD002801D007F0DBF9A288DF
:103D7000144B1A80E0E7027A1349032006F054FD41
:103D800001225242F4E70F4B00211888FFF7C8FFC9
:103D9000DDE78379002BCFD0827B043A022ACBD88F
:103DA000022B0AD16A461370C1236A465B009380D6
:103DB000A0886946FFF7B2FFC9E70123F2E7C046D2
:103DC000E90C03001A250020FF0C030010B50028A1
:103DD0000CD0032809D1074906F00AFD022009F09A
:103DE0002BFD002801D007F09DF910BD06F042F828
:103DF000FBE7C046CC0C0300038810B5112B01D0A3
:103E00000AF0A2FA10BD10B504000AF0F9FB200078
:103E10000AF0A0FB200009F0D9FD2000FFF782FF87
:103E20002000FFF781FB2000FFF7E6FF2000FFF7EF
:103E300067FE10BD10B5040008F09AFB20000AF0E0
:103E4000B9FA10BD73B50E2802D00F281CD073BD6F
:103E500003201F4906F0CCFC1E4E1F4C3078820018
:103E60001359182B0DD08221490001911B4AFB39AF
:103E7000092501281DD900910120194906F05EFD90
:103E8000E5E709231351E2E70320164906F0B0FCE9
:103E9000104E114C307882001359182B16D0852102
:103EA00049000E4A0191012802D90139FF39E2E7A0
:103EB0000A25009523680C49022006F03FFD33785F
:103EC0000133DBB233709B001D51C0E70A23D9E7F1
:103ED000890C030048250020003700209F0C0300B8
:103EE000E6090300B60C0300380A03008023F7B587
:103EF000DB02984200D102E109D880239B0298425C
:103F000026D0C0239B02984200D1B0E0F7BDC02369
:103F1000DB02984200D1E0E0E023DB02984200D1CE
:103F20003DE1A023DB029842F0D1012900D0B0E0AE
:103F300005F0B0FA03F0CCFBC54FC64D3878C64E3D
:103F400082005359182B00D1F6E0C44A282110E012
:103F5000012918D103F0DEFD03F0BAFBBC4FBD4DC3
:103F60003878BF4E82005359182B00D1E4E0192154
:103F7000BA4A01910096012800D8D1E0B949012040
:103F800006F0DCFCC2E704291ED103F0C3FD03F0F8
:103F90009FFBAF4EAF4C3078B34D82001359182BB6
:103FA00000D10EE11A21AD4A019100950128E5D812
:103FB0002368AE49022006F0C1FC33780133DBB23E
:103FC00033709B001D51A1E7072900D0FBE003F0EF
:103FD000A1FD03F07DFB9E4E9E4C3078A44D8200E7
:103FE0001359182B00D1ECE09C4A1B21DCE703F0AD
:103FF00091FD03F06DFB964E964C30789D4D8200FE
:104000001359182B00D1DCE0944A1C21CCE703F0B3
:1040100081FD03F05DFB8E4E8E4C3078964D820014
:104020001359182B00D1CCE08C4A1D21BCE703F0BA
:1040300071FD03F04DFB864E864C30788F4D82002B
:104040001359182B00D1BCE0844A1E21ACE703F0C1
:1040500061FD03F03DFB7E4E7E4C3078884D820042
:104060001359182B00D1ACE07C4A1F219CE7022990
:1040700000D04BE703F050FE03F02AFB744F754D60
:104080003878804E82005359182B55D0734A24211A
:104090006FE705290FD105F0FDF903F019FB6C4E10
:1040A0006C4C3078784D82001359182B00D188E081
:1040B0006A4A292178E70C2900D0A2E005F0EAF944
:1040C00003F006FB624E634C3078704D820013594A
:1040D000182B76D0614A2A2166E7032900D015E71C
:1040E00004F0ECFD03F0F4FA594E5A4C3078684D68
:1040F00082001359182B64D0584A2F2154E7012904
:104100001CD104F085FB03F0E3FA514F514D387890
:10411000604E82005359182B0ED0504A342128E7A4
:104120002B685249022006F009FC3B780133DBB2D0
:104130003B709B005E51E9E65651E7E608290ED137
:1041400004F066FB03F0C4FA414E424C3078524D05
:1041500082001359182B34D0404A352124E7062910
:1041600061D104F055FB03F0B3FA394E394C307885
:104170004A4D82001359182B23D0384A362113E7B1
:1041800004F046FB03F0A4FA314E324C3078444D33
:1041900082001359182B14D0304A372104E7042920
:1041A00000D0B3E605F0E8FB03F092FA284E294C64
:1041B00030783C4D82001359182B02D0274A3D21FC
:1041C000F2E61551A2E6062900D110E7082900D130
:1041D0001DE7092900D12AE70A2900D137E70B2971
:1041E00000D093E603F096FC03F072FA184E194CD7
:1041F00030782D4D82001359182BE2D0174A202118
:10420000D2E6092900D081E605F044F903F060FA0E
:104210000F4E104C3078254D82001359182BD0D0FA
:104220000E4A2B21C0E60529AAD0072900D06DE649
:1042300004F0EEFA03F04CFA054E064C30781C4DB3
:1042400082001359182BBCD0044A3821ACE6C04672
:10425000482500200037002001000500230D030041
:1042600001000200E609030004000200380A03000E
:104270000700020006000200080002000900020018
:104280000A00020002000300050005000C00050002
:1042900003000600010004000800040006000400FA
:1042A00005000400040007000B00020009000500DF
:1042B00007000400BFF34F8F034A044BDA60BFF3DB
:1042C0004F8FC046FDE7C0460400FA0500ED00E050
:1042D00011DF704713DF704710B50320024906F065
:1042E00087FA002010BDC0469416030010B50320C5
:1042F000024906F07DFA002010BDC046C922030025
:1043000010B50320024906F073FA002010BDC04624
:104310008622030010B50320034906F069FA012242
:10432000024B00201A7010BDA61A03001C250020A5
:1043300010B50449032006F05BFAFE20FFF7D0F821
:10434000002010BD77140300F7B503680400002BAC
:1043500008D016490A004B72190A9172190C1B0EEB
:10436000D1721373124E134D37782179BA00535915
:10437000182B19D0AA20104A01900091012F06D9BC
:104380000E49A93806F0DAFA18232371F7BD2B6815
:104390000B49022006F0D2FA33780133DBB23370D6
:1043A00022799B005A51EFE75151EDE75820002048
:1043B000482500200037002084100300E609030090
:1043C000380A0300F7B503680400002B08D016492B
:1043D0000A004B72190A9172190C1B0ED1721373D9
:1043E000124E134D37782179BA005359182B19D032
:1043F000A920104A01900091012F06D90E49A83832
:1044000006F09CFA18232371F7BD2B680B49022094
:1044100006F094FA33780133DBB2337022799B00D3
:104420005A51EFE75151EDE7582000204825002070
:104430000037002084100300E6090300380A030057
:10444000F7B503680400002B08D016490A004B7228
:10445000190A9172190C1B0ED1721373124E134D5F
:1044600037782179BA005359182B19D0A820104A4F
:1044700001900091012F06D90E49A73806F05EFA87
:1044800018232371F7BD2B680B49022006F056FA5A
:1044900033780133DBB2337022799B005A51EFE756
:1044A0005151EDE75820002048250020003700201A
:1044B00084100300E6090300380A0300F7B5036817
:1044C0000400002B08D016490A004B72190A917299
:1044D000190C1B0ED1721373124E134D37782179BC
:1044E000BA005359182B19D0AD20104A01900091F1
:1044F000012F06D90E49AC3806F020FA1823237193
:10450000F7BD2B680B49022006F018FA3378013307
:10451000DBB2337022799B005A51EFE75151EDE73E
:104520005820002048250020003700208410030078
:10453000E6090300380A0300F7B503680400002BFE
:1045400008D016490A004B72190A9172190C1B0EF9
:10455000D1721373124E134D37782179BA00535923
:10456000182B19D0AC20104A01900091012F06D9C8
:104570000E49AB3806F0E2F918232371F7BD2B681A
:104580000B49022006F0DAF933780133DBB23370DD
:1045900022799B005A51EFE75151EDE75820002056
:1045A000482500200037002084100300E60903009E
:1045B000380A0300F7B503680400002B08D0164939
:1045C0000A004B72190A9172190C1B0ED1721373E7
:1045D000124E134D37782179BA005359182B19D040
:1045E000AB20104A01900091012F06D90E49AA383C
:1045F00006F0A4F918232371F7BD2B680B4902209C
:1046000006F09CF933780133DBB2337022799B00DA
:104610005A51EFE75151EDE758200020482500207E
:104620000037002084100300E6090300380A030065
:10463000F7B504001D49032006F0DAF81C4E1D4DA5
:10464000307882005359062B2CD01B491B4A01910C
:10465000012819D9042101200091194906F06EF9A9
:10466000A17A637A09021943E37A164A1B041943B3
:10467000237B15481B060B4313600C23134913714E
:1046800007F076F80020FEBD042700972B6810493C
:10469000022006F053F933780133DBB233709B000C
:1046A0005F51DDE704235351DAE7C046CB12030024
:1046B000CC2A0020E03A0020D2070000841003003A
:1046C000E60903008C2500209C250020CD0C00006D
:1046D000380A030010B504000D49032006F088F8DD
:1046E0000120FEF7FDFEA17A637A09021943E37AFD
:1046F000084A1B041943237B07481B060B4313601E
:104700000B230649137107F033F8002010BDC04693
:10471000451203004C2500205C250020CD0C000034
:1047200010B5817A437A09021943C37A094A1B04F6
:104730001943037B08481B060B43802113600723A2
:104740000902137107F014F8044A002013680133BA
:10475000136010BD742600207C260020FC3600204B
:104760000D49032010B506F043F80C49032006F06C
:104770003FF806F06FF90028FBD10123D820084A42
:104780005B42D367074A4002D367FFF7A3FDFFF7F9
:104790009FFDFFF78FFDC046DF250300262603009F
:1047A00004E100E008E100E010B50549032006F04F
:1047B0001FF804F083FA0088FFF74EF9002010BDBF
:1047C0001516030073B52849032006F011F804F00C
:1047D00075FA0400438802882449032006F04AF849
:1047E0006388234A13802188224A603BFF3B118063
:1047F000302B26D82049032005F0FAFF23881F4AD2
:104800009A18712A1DD81E4A12889B1A0A2B18DD85
:104810001C49032005F0ECFF1B4806F0F5FF1B4E7A
:104820001B4C307882001359182B1AD019491A4A98
:104830000191012807D9132101200091174906F0A1
:104840007DF8002076BD13250095236814490220C9
:1048500006F074F833780133DBB233709B001D51DE
:10486000EFE713231351ECE7941F0300DE1F03004F
:10487000A6260020A42600200D2003007BFCFFFFBD
:104880001E250020302003004C2600204825002053
:10489000003700207C04000084100300E6090300B8
:1048A000380A0300F0B5564989B0032005F0A0FF8F
:1048B00003F032FA002405000726524B1B681B88C0
:1048C000A34246D803F0C6FF04AC022800D07DE026
:1048D0002000FFF717F8FFF75DF80122C308DBB2ED
:1048E000039307231500FF2103409D408C460023BE
:1048F000013DEDB2591CC9006646814200DD2E0023
:104900004149CF5CE15C0133B94331404E424E41F5
:1049100003997642DBB232409942EBD2002A15D09D
:1049200003203A4905F064FF394E3A4C3078820052
:104930001359182B61D03849384A019101284ED9B2
:10494000052101200091364905F0F8FF002009B04B
:10495000F0BD6B79334A9C46330067466343985CED
:10496000D318A9795A7809021202394302439142B5
:1049700029D16A7EA97E94466746DA78987809023A
:1049800012023943024391421DD119792A7F5B7982
:10499000E87E12021B0202430B439A4213D123000A
:1049A00001203340984003001749E208885C034324
:1049B0008B541D4AA30011681C4A03209950220001
:1049C0001B4905F031FF0134A4B276E703F042FF42
:1049D000012800D17CE72000FEF7ACFF7BE705252E
:1049E000009523681349022005F0A8FF33780133AE
:1049F000DBB233709B001D51A8E705231351A5E7D7
:104A0000121103009C260020382700207D1103008E
:104A10004825002000370020DD0600008410030038
:104A2000E60903000C370020FC3600204827002050
:104A300050110300380A030010B50549032005F0A2
:104A4000D7FEFEF7BFFF03F00BFF002010BDC046EE
:104A500095270300F0B5002585B03749032005F000
:104A6000C7FE364C3649236803205A8805F0DCFE21
:104A7000236834499A88032005F0D6FE236832491A
:104A8000DA88032005F0D0FE236830491A89032014
:104A900005F0CAFE23682E499A7A032005F0C4FE69
:104AA000FEF77EFF2A0021682A4E0B8803900293AE
:104AB000029893B2019383420BD3002D2BD0032095
:104AC000254905F095FEFA20FEF70AFD002005B005
:104AD000F0BD072353439C5DF318A44660465C7801
:104AE0008F8824020443A74212D1DC789878CF88BB
:104AF00024020443A7420BD11C795B790F891B0266
:104B000023439F4204D1019B0398984200D0012582
:104B10000132D2B2CCE707224B880E48534304310E
:104B2000C0180BF07BFAFF20FEF7DAFC0B490320DC
:104B300005F05EFECAE7C0463E2803009C26002022
:104B40007A280300A4280300CF280300F5280300D7
:104B50001B2903000C3700204D2903008629030080
:104B600010B51349032005F043FEFEF719FF114B62
:104B70008000C058FEF76AFFFEF712FF072250437D
:104B80000D4BC15C1B185A78987812020A43000436
:104B90000243D8785979000610431A7909020A436A
:104BA000997909041143FEF763FF002010BDC04648
:104BB000AB290300482700200C37002010B50A4914
:104BC000032005F015FEFEF7F1FE084C206003F00F
:104BD00041FE2030C0B2FEF783FC22680449032066
:104BE00005F022FE002010BDEA290300FC3600205B
:104BF000292A0300F0B5E3499FB0032005F0F8FD32
:104C000002F088FF0478012C56D1DF49032005F01B
:104C1000EFFDE02200219200DC48FEF7F7F80021CA
:104C2000DB4D0C22286801800B30FEF7EFF82A6874
:104C30001300D07A127BD97B12020243587B1D7D70
:104C400000040243987B2D02000610431A7C1202D6
:104C50000A43597C09040A43997C09061143DA7C0A
:104C600015435A7D120415439A7D12062A43FEF716
:104C7000DFFEC84EC84D3078820053590E2B3BD012
:104C8000C649C74A0191012806D90B21012000918C
:104C9000C44905F053FE0CE00B2400942B68C24974
:104CA000022005F04BFE33780133DBB233709B00FA
:104CB0005C5100201FB0F0BD022C20D10320BB4965
:104CC00005F096FDB34EB44D3078820053590E2B4B
:104CD00012D0B749B24A01910128D6D80B270097C4
:104CE0002B68B149200005F029FE33780133DBB28F
:104CF00033709B005F51DCE70B235351D9E7032C42
:104D000015D1AC49200005F073FD05F0A3FE002885
:104D1000FBD10123D820A84A5B42D367A74A4002AF
:104D2000D367FFF7D7FAFFF7D3FAFFF7C3FA042CDC
:104D300000D049E1FEF734FE0700FEF72BFE3A00F3
:104D400002909F49032005F06FFD029BFCB20725EE
:104D50009F4211D3FB20CEE028002B00661C73433A
:104D600060432A000818C9180BF058F9954BB20097
:104D7000D258A400E250F4B2029B8449581E8442E7
:104D8000EADB002365438F4A4B55A4004D19A3501D
:104D90006B70AB70EB702B716B717D4B80B21B68CD
:104DA0001880FEF75FFE12A8FEF7C4FD129B16A83E
:104DB0000693139B0793149B0493159B1093FEF784
:104DC000A1FD169B1AA80A93179B0B93189B0C9393
:104DD000199B0D93FEF7C6FD1A9B08931B9B099325
:104DE0001C9B0E931D9B0F9301233F2F00D985E041
:104DF0001E00BE40013EF2179446FF18BB406546B8
:104E0000069F5C4227400799E3177A08069F1940DE
:104E1000C807374002433800079F11932F404B08C3
:104E2000390012184B4104990692C9070B43049AA2
:104E30000793109B5208DB071A430A9F109B2740D9
:104E40000B995B08029203937A08E3170A9F1940B3
:104E5000C8073740024338000B9F4B082F403900EA
:104E600012184B410C990A92C9070B430B930C9AE9
:104E70000D9B5208DB071A430D9B04925B080593B8
:104E8000089B119D1C406208089C099B344020002F
:104E900064461D40E9076B08099D0A432C40210028
:104EA00012184B410E990892C9070B4309930F9BA7
:104EB0000E9ADB0754081C430F9B5D08049E059F58
:104EC000189619970B99049A0A98199BFEF7E2FD18
:104ED000029E039F149615970799029A0698159BB0
:104EE000FEF7EAFD1C941D950898099922001D9B68
:104EF000FEF7F4FDFF20FEF7F3FADAE63F221E008C
:104F00003A40964001329340109C5B42DA171440BD
:104F100011920499049A013E19403240E50748086D
:104F200061081400109AF7173A40284315000C9AAC
:104F3000001969411A40944602900391119A0D9903
:104F40001140624654080C9AC807324004431000CE
:104F50000D9A4D083A40110024184D410E9A1199AE
:104F600013400F9A58080E9B114004940595334046
:104F7000CC0720431C000F9B49083B401D00241810
:104F80004D419BE741130300871303000C370020BA
:104F90009C260020902A0020D43A0020F30500002F
:104FA00084100300E6090300380A0300B21303006B
:104FB000F70500002626030004E100E008E100E018
:104FC000E413030048270020052C00D071E60320DD
:104FD000134905F00DFC0120124E134B3578134C8C
:104FE000AA0018701359182B16D01149114A0191B3
:104FF000854203D9062100910F494AE6062500950E
:1050000023680E49022005F099FC33780133DBB2A6
:1050100033709B001D514CE60623135149E6C046F0
:105020000D14030048250020A8260020003700208A
:105030005606000084100300E6090300380A030046
:1050400073B53F49032005F0D3FB02F063FD3D4BF0
:105050003D4E186030783D4C82001359102B4AD0D9
:105060003B493C4A0191012837D902210120009196
:10507000394905F063FCD4235B0300938022A0230D
:10508000B4209B0212028003022103F007FB334E7F
:10509000334C3078820013590B2B3DD031492D4AC7
:1050A000019101282AD90021012000912A4905F007
:1050B00045FC2D4E2D4C3078820013590E2B3CD0E0
:1050C0002B49244A0191012829D90021012000916E
:1050D000214905F033FC002076BD022500952368A8
:1050E0002449280005F02AFC33780133DBB2337001
:1050F000AB401D51BFE702231351BCE700250095CB
:1051000023681C49022005F019FC33780133DBB217
:1051100033709B001D51CCE700231351C9E70025D4
:10512000009523681349022005F008FC3378013309
:10513000DBB233709B001D51CDE700231351CAE74A
:10514000CC1103009C26002049290020A43A00200D
:105150007D05000084100300E60903004D290020AE
:10516000BC3A002084050000902A0020D43A002098
:1051700086050000380A030070B50B2486B06C4425
:1051800007F086FE200004F07FFF04F0F3FF237891
:10519000002B03D05249032005F02AFB514A00217D
:1051A000514806F0CDFA514A0021514806F0C8FA9C
:1051B000504A0021504806F0C3FAE0220021920034
:1051C0004E48FDF723FE8022002192004C48FDF757
:1051D0001DFE802200214B48FDF718FE1820FEF727
:1051E00053FC192203AB1A8001325A800E329A8086
:1051F000A032DA80A53A1A8124325A810398059A9E
:105200000499FEF715FC404E404C3078820013594B
:10521000062B3FD03E493F4A019101282CD900215D
:10522000012000913C4905F089FB3C4E3C4C307814
:1052300082001359062B3ED03A49364A0191012883
:105240002BD9002101200091334905F077FB364E20
:10525000364C307882001359182B3DD034492D4AF2
:10526000019101282AD90321012000912A4905F042
:1052700065FB002006B070BD0025009523682D4910
:10528000022005F05BFB33780133DBB233709B0007
:105290001D51CAE700231351C7E700250095236875
:1052A0002449022005F04AFB33780133DBB2337026
:1052B0009B001D51CBE700231351C8E70325009540
:1052C00023681C49022005F039FB33780133DBB237
:1052D00033709B001D51CCE703231351C9E7C0462F
:1052E000DF2703004144020078100300C543020099
:1052F0007410030049430200801003000C370020A3
:1053000048270020B8260020582A0020C83A00204C
:105310002B05000084100300E6090300CC2A0020BE
:10532000E03A00202C05000048250020003700202E
:105330002D050000380A030010B50320034905F0CD
:1053400057FA03F0E3FC002010BDC046F21A030038
:1053500010B50749032005F04BFA03F0D7FC0120F4
:1053600004F012FD002004F06BFD002010BDC046CB
:105370001E21030010B504000F49032005F038FA80
:10538000012004F001FD012004F05AFDA17A637AA6
:1053900009021943E37A094A1B041943237B08488D
:1053A0001B060B43A02113600E238902137106F024
:1053B000DFF9002010BDC046DD2003004426002098
:1053C0004C26002070B52849032005F011FA274E1D
:1053D00027493288032005F027FA264D26492A88D6
:1053E000032005F021FA254C25492288032005F0E9
:1053F0001BFA03F08BFC5E223388FF3293420BD8FA
:105400000320204905F0F4F9022004F0BDFC02203D
:1054100004F016FD002070BDC8225200934205D949
:105420000320194905F0E4F90320EEE72B88174A19
:10543000934205D80320164905F0DAF90420E4E781
:10544000144A1549934204D822889B1A0A2B05DC7A
:105450001249032005F0CCF90520D6E710490320B6
:1054600005F0C6F9D6E7C046361B0300A626002085
:105470007A1B0300A4260020A71B03001E25002082
:10548000D31B0300FE1B03003D1C0300830300002D
:105490007B1C0300F7030000B91C0300F61C03008B
:1054A0003A1D030010B504000F49032005F0A0F9D0
:1054B000012004F069FC052004F0C2FCA17A637AA3
:1054C00009021943E37A094A1B041943237B08485C
:1054D0001B060B43A02113600E238902137106F0F3
:1054E00047F9002010BDC0469C2003003C26002048
:1054F0004C26002073B54249032005F079F903F0EA
:10550000DDFB0500438802883E49032005F0B2F91F
:105510002A883D4B3D4E1A806B883D4C1A009B3AC1
:10552000FF3A202A13D83B49032005F061F92B8864
:10553000394A9A18C92A2AD80320384905F058F957
:1055400030788200A358182B51D1132313E0CC22BA
:105550005200934211D80320314905F049F9052042
:1055600004F012FC002004F06BFC31788A00A35890
:10557000182B21D11423A35029E0BC22FF329342DF
:10558000F3D90320274905F033F90620E8E7264A36
:10559000934205D80320254905F02AF90720DFE7C3
:1055A000234A9342E1D92349032005F021F9012040
:1055B00004F0EAFB0220D6E71F48204A01900129A7
:1055C00007D91421009101201D4905F0B7F90020E9
:1055D00076BD1425009523681A49022005F0AEF91E
:1055E00033780133DBB233709B00E550EFE71649A7
:1055F000124A0191012801D91321E3E71325E9E7B4
:105600003A1E0300DE1F03001E250020482500204F
:10561000003700200D200300DFFCFFFF30200300D7
:10562000841E0300CC1E03001F030000131F030091
:10563000EB030000541F0300450400008410030026
:10564000E6090300380A03004704000073B52C493B
:10565000032005F0CDF82B4806F0D6F82A490320A0
:1056600005F0C6F8042004F08FFB002004F0E8FBEE
:10567000264E274C307882001359042B2BD0254915
:10568000254A0191012818D901202449009005F0EC
:1056900055F9234E234C307882001359182B2BD008
:1056A00021491D4A0191012818D916210120009194
:1056B0001A4905F043F9002076BD012500952368BD
:1056C0001A49022005F03AF933785B19DBB23370DE
:1056D0009B001D51DDE701231351DAE716250095E4
:1056E00023681249022005F029F933780133DBB22F
:1056F00033709B001D51DEE716231351DBE7C046D4
:10570000472603004C260020902603004A2900204B
:10571000B03A00200D04000084100300E6090300E5
:1057200048250020003700200E040000380A03003E
:1057300073B52749032005F05BF8FF2003F090F8CC
:10574000244B254E1D78254C002D19D003202449CB
:1057500005F04EF830788200A358182B0DD021495F
:10576000214A01910F250F21012821D90091012003
:105770001E4905F0E3F8002076BD0F23A350FAE799
:105780001B49032005F034F8022004F0FDFA28003C
:1057900004F056FB30788200A358182B15D0E9216D
:1057A0008900114A0191012801D91621DEE7162549
:1057B000009523680F49022005F0C0F833780133C3
:1057C000DBB233709B00E550D5E71623D6E7C04621
:1057D0002F2503001C25002048250020003700202D
:1057E000732503009F03000084100300E6090300F3
:1057F000A2250300380A0300F7B549490600032033
:1058000004F0F6FF474C042322004749032005F02B
:10581000D3F86278237812021A43A378434D1B040D
:105820001A43E378424C1B061343424A934251D138
:105830004149032004F0DCFFB17A737A090219436D
:10584000F37A3E4A1B041943337B3D481B060B4346
:10585000F02113600E23C902137105F089FF394F3F
:10586000394E387882009359042B2DD03749384A65
:105870000191012819D9002101200091354905F035
:105880005DF828788200A358182B20D0F9218900D0
:1058900001912F4A10211026012832D900910120B0
:1058A0002C4905F04BF80020FEBD0023009333681F
:1058B0002949022005F042F800223B780133DBB28F
:1058C0003B709B009A51DCE700239351D9E71023EA
:1058D000A350E8E72149032004F08AFF032004F0E5
:1058E00053FA002004F0ACFA28788200A358182B51
:1058F00014D01B49164A0191012801D91621CDE780
:105900001626009623681449022005F017F82B7814
:105910000133DBB22B709B00E650C4E71623D7E7B8
:10592000FF230300302500204624030048250020E3
:10593000003700200013AABB5324030034260020A4
:105940004C2600204A290020B03A0020E303000042
:1059500084100300E6090300380A030077240300DB
:10596000E903000073B53249032004F041FF3149D7
:10597000032004F03DFF012004F006FAFA211E2066
:10598000890004F007FA04F0F5FB2B4803F040FF10
:105990008020C00103F042FFA020400203F044FF3A
:1059A000264E274C307882001359062B2CD02549DF
:1059B000254A0191012819D900210120009123498C
:1059C00004F0BCFF224E234C3078820013590B2B7D
:1059D0002BD021491C4A0191012818D9002101200E
:1059E00000911A4904F0AAFF002076BD0025009519
:1059F00023681A49022004F0A1FF33780133DBB297
:105A000033709B001D51DDE700231351DAE70025B9
:105A1000009523681149022004F090FF3378013388
:105A2000DBB233709B001D51DEE700231351DBE72F
:105A30002B27030073270300CD0C0000CC2A002085
:105A4000E03A00207B03000084100300E609030015
:105A50004D290020BC3A00207E030000380A0300D4
:105A6000F7B526490400032004F0C2FE24490320B0
:105A700004F0BEFE072004F087F90220012104F0A3
:105A800089F9204E204D307882005359042B32D0B2
:105A90001E491F4A019101281FD9002101200091B0
:105AA0001C4904F04BFF1C4A00211C4805F048FE2D
:105AB000A17A637A09021943E37A194A1B0419434C
:105AC000237B18481B060B43802113600E234902D9
:105AD000137105F04DFE0020FEBD002700972B68D6
:105AE0001149022004F02AFF33780133DBB233700E
:105AF0009B005F51D7E700235351D4E7CA26030028
:105B000009270300582B0020EC3A00205F03000017
:105B100084100300E6090300BD4402007C1003006A
:105B20002C2600204C260020380A030073B51C499F
:105B3000032004F05DFE1B4C1B4BE0222360052379
:105B400092001A490320A360A28004F06DFE200099
:105B500003F094FC164E174C3078820013590E2B2C
:105B60001AD01549154A0191012807D907210120AA
:105B70000091134904F0E2FE002076BD0725009550
:105B800023681049022004F0D9FE33780133DBB2D8
:105B900033709B001D51EFE707231351ECE7C0461C
:105BA00060150300242500200C370020A2150300F7
:105BB000902A0020D43A00203B0800008410030003
:105BC000E6090300380A030070B5294986B00320AE
:105BD00004F00EFE5A235B22264C52422370E370DF
:105BE000254B62701B68A2701B88244D23711B0A11
:105BF000637180235B42A3718333E37102A82C603D
:105C0000FDF776FE20000C2202A908300AF006FA01
:105C10001B482B680360002383601433838003F0E8
:105C20002DFC184E184C3078820013590E2B1BD0C7
:105C30001649174A0191012808D90721012000912E
:105C4000144904F07BFE002006B070BD07250095C6
:105C500023681149022004F071FE33780133DBB26E
:105C600033709B001D51EEE707231351EBE7C0464D
:105C7000B7140300302500209C260020A026002019
:105C800024250020902A0020D43A00202D0800006E
:105C900084100300E6090300380A030073B50320EB
:105CA000144904F0A5FD144E144C307882001359A9
:105CB000102B1BD0B821C900114A0191012807D926
:105CC0000221012000910F4904F038FE002076BD2A
:105CD0000225009523680C49280004F02FFE337834
:105CE0000133DBB23370AB401D51EFE70223135198
:105CF000ECE7C0460712030049290020A43A00201F
:105D000084100300E6090300380A030073B519493B
:105D1000032004F06DFD1848184B036000238360D6
:105D20001433838003F0AAFB154E164C30788200A2
:105D300013590E2B1AD01449144A0191012807D97E
:105D4000032101200091124904F0F8FD002076BDE6
:105D50000325009523680F49022004F0EFFD3378F6
:105D60000133DBB233709B001D51EFE70323135166
:105D7000ECE7C0463A14030024250020302500201B
:105D8000902A0020D43A00209605000084100300D9
:105D9000E6090300380A030073B50320134904F031
:105DA00027FD134E134C307882001359182B1AD04C
:105DB0001149124A0191012807D9022101200091BD
:105DC0000F4904F0BBFD002076BD02250095236835
:105DD0000C49280004F0B2FD33780133DBB2337094
:105DE000AB401D51EFE702231351ECE7841203008F
:105DF000482500200037002004050000841003001F
:105E0000E6090300380A030073B51B49032004F0B8
:105E1000EFFC1A49032004F0EBFC1948194B03600E
:105E2000002383600433838003F028FB164E174C55
:105E30003078820013590E2B1AD01549154A01915A
:105E4000012807D9032101200091134904F076FDB0
:105E5000002076BD0325009523681049022004F038
:105E60006DFD33780133DBB233709B001D51EFE7DA
:105E700003231351ECE7C046B4240300FC240300C1
:105E80002425002030250020902A0020D43A00202C
:105E9000CE03000084100300E6090300380A030063
:105EA00073B51B49032004F0A3FC1A49032004F036
:105EB0009FFC1948194B03600023836004338380DF
:105EC00003F0DCFA164E174C3078820013590E2B73
:105ED0001AD01549154A0191012807D90721012037
:105EE0000091134904F02AFD002076BD0725009596
:105EF00023681049022004F021FD33780133DBB21E
:105F000033709B001D51EFE707231351ECE7C046A8
:105F100086230300CE2303002425002054200020E4
:105F2000902A0020D43A0020C1030000841003000E
:105F3000E6090300380A030073B51749032004F08B
:105F400057FC0320154904F053FC154E154C3078CE
:105F5000820013590E2B1BD0ED218900124A0191AA
:105F6000012807D90B2101200091104904F0E6FC1B
:105F7000002076BD0B25009523680D49022004F012
:105F8000DDFC33780133DBB233709B001D51EFE74A
:105F90000B231351ECE7C0460E23030055230300E7
:105FA000902A0020D43A002084100300E609030060
:105FB000380A030073B50320144904F019FC144E89
:105FC000144C3078820013590E2B1BD0EB21890022
:105FD000114A0191012807D90021012000910F49A0
:105FE00004F0ACFC002076BD0025009523680C4928
:105FF000022004F0A3FC33780133DBB233709B0042
:106000001D51EFE700231351ECE7C0465C1A030073
:10601000902A0020D43A002084100300E6090300EF
:10602000380A030073B5234A136801331360022B47
:1060300024DD214E214C307882001359182B1AD0C0
:106040001F49204A0191012807D90D210120009103
:106050001D4904F073FC002076BD0D2500952368D2
:106060001A49022004F06AFC33780133DBB2337042
:106070009B001D51EFE70D231351ECE7A223A02253
:10608000DB00D205D3581B06E5D4817A437A090296
:106090001943C37A0E4A1B041943037B0D481B06A0
:1060A0000B438021136001230902137105F060FB8B
:1060B000D1E7C046B4260020482500200037002044
:1060C0004903000084100300E6090300380A0300B6
:1060D000842500209C25002010B50B49032004F0E6
:1060E00087FB04F0B7FC0028FBD10123D820074A26
:1060F0005B42D367064A4002D367FEF7EBF8FEF730
:10610000E7F8FEF7D7F8C0462626030004E100E0D2
:1061100008E100E010B5174CA0222368D205013336
:106120002360A223DB00D3581B061DD4817A437A57
:1061300009021943C37A104A1B041943037B0F4811
:106140001B060B4313600C230D49137105F010FB64
:1061500023681D2B0CDD01220A4B1A700A4B1B7899
:10616000002B05D0FFF7B8FF0023064A2360137009
:10617000002010BDB0260020942500209C25002082
:10618000CD0C0000212500202025002010B5174C43
:10619000A0222368D20501332360A223DB00D35859
:1061A0005B061DD4817A437A09021943C37A104AE7
:1061B0001B041943037B0F481B060B4313600B237F
:1061C0000D49137105F0D4FA23681D2B0CDD012253
:1061D0000A4B1A700A4B1B78002B05D0FFF77CFF87
:1061E0000023064A23601370002010BDAC26002057
:1061F000542500205C250020CD0C00002025002027
:106200002125002073B51F49032004F0F1FA02F0A4
:1062100021FB1D490200032004F006FB02F01AFBDB
:106220002030C0B2FDF75CF902F014FB011E03D16F
:1062300080221648FCF7EAFD154E164C3078820095
:106240001359182B1AD01449144A0191012807D95F
:10625000062101200091124904F070FB002076BD58
:106260000625009523680F49022004F067FB337868
:106270000133DBB233709B001D51EFE7062313514E
:10628000ECE7C046A2100300E3100300B82600208C
:106290004825002000370020BE07000084100300BE
:1062A000E6090300380A030073B52149032004F00E
:1062B0009FFA02F003FD0400438802881D49032071
:1062C00004F0D8FA63881C4A138021881B4A9B3B40
:1062D000FF3B1180202B18D81949032004F088FABD
:1062E000184805F091FA184E184C3078820013596E
:1062F000182B1AD01649174A0191012807D91321E2
:1063000001200091144904F019FB002076BD1325EB
:10631000009523681149022004F010FB3378013303
:10632000DBB233709B001D51EFE713231351ECE7F1
:1063300052200300DE1F0300A6260020A426002012
:106340000D2003004C2600204825002000370020A7
:10635000C704000084100300E6090300380A0300A4
:1063600073B53D49032004F043FA01F0D5FC040065
:106370008279437912021A433849032004F054FA0F
:10638000A27E637E12021A433549032004F04CFAC0
:10639000227FE37E12021A433249032004F044FABA
:1063A000A37E627E1B021343227FE17E12020A4318
:1063B0001B049B182C4A93422AD12C49032004F039
:1063C00017FA2B4805F020FA2A4E2B4C3078820021
:1063D0001359042B2CD08021C900284A019101288F
:1063E00018D901202649009004F0A8FA254E264C21
:1063F000307882001359182B2BD024491F4A019161
:10640000012818D91221012000911D4904F096FAA3
:10641000002076BD0125009523681D49022004F067
:106420008DFA33785B19DBB233709B001D51DDE7C9
:1064300001231351DAE7122500952368144902203D
:1064400004F07CFA33780133DBB233709B001D51CA
:10645000DEE712231351DBE7A2210300EA21030048
:1064600014220300392203000013AABB5E2203009A
:106470004C2600204A290020B03A00208410030056
:10648000E609030048250020003700200104000031
:10649000380A030073B54949032004F0A9F9484BB1
:1064A000484D59781A78090211439A782B601204E2
:1064B0001143DA7812060A4343498A425FD1E02247
:1064C000DC799979240292000C43944257D15A798D
:1064D000197912020A4303203C4904F0A5F92A68FD
:1064E000537911791B020B43394909680B805079A4
:1064F000137900021843FDF7B5FA2B685A7A187A17
:1065000012020243987A197B00040243D87A5D7C18
:10651000000610435A7B2D0212020A43997B09049C
:106520000A43D97B090611431A7C15439A7C12044D
:106530001543DA7C12062A43FDF77AFA2548264BE2
:10654000848003600523836002F098FF234E244C6F
:106550003078820013590E2B0ED0B521C90001915D
:10656000204A03210325012818D9009101201E4942
:1065700004F0E4F9002076BD03231351FAE71B4E23
:106580001B4C307882001359182B14D01949154A26
:106590000191012801D90421E7E70425009523682A
:1065A0001549022004F0CAF933780133DBB23370A5
:1065B0009B001D51DEE70423DFE7C046F214030011
:1065C00030250020A02600205AA5A55A3315030027
:1065D0009C260020242500200C370020902A002033
:1065E000D43A002084100300E60903004825002067
:1065F00000370020AA050000380A030073B51D49C2
:10660000032004F0F5F81C49032004F0F1F81820E9
:1066100002F026F9F0238022A0209B0300931202AF
:10662000164B8002012102F039F8154E154C3078D6
:1066300082001359062B19D01349144A01910128DD
:1066400006D901201249009004F078F9002076BDA7
:106650000125009523680F49022004F06FF9337873
:106660005B19DBB233709B001D51EFE7012313511F
:10667000ECE7C046ED190300341A0300CD8C00008E
:10668000CC2A0020E03A00208D0300008410030093
:10669000E6090300380A030010B51949032004F085
:1066A000A7F8184C18492288032004F0BDF8174BAE
:1066B00017491A88032004F0B7F8164B16491A88B0
:1066C000032004F0B1F802F021FBCC2322885B0008
:1066D0009A420BD81149032004F08AF8072003F0EE
:1066E00053FB022003F0ACFB002010BD0C4903203B
:1066F00004F07EF8012003F047FB0420F2E7C046D7
:10670000651D0300A62600207A1B0300A426002096
:10671000A71B03001E250020D31B0300A91D030097
:10672000F21D030073B51649032004F061F88020C0
:10673000000202F0E5FA134E134C30788200135930
:10674000062B1AD01149124A0191012807D90021BC
:10675000012000910F4904F0F1F8002076BD0025DA
:10676000009523680C49022004F0E8F833780133DF
:10677000DBB233709B001D51EFE700231351ECE7B0
:106780005F210300582A0020C83A002016040000A8
:1067900084100300E6090300380A030070B50025E1
:1067A0001B4B1C49040003201D6004F021F81A490A
:1067B000032004F01DF803F053FC03F085FCFDF703
:1067C00071FA164A2900164804F0BAFF154A290042
:1067D000154804F0B5FFA223A022DB00D205D35850
:1067E0001B0612D4A17A637A09021943E37A0F4A8D
:1067F0001B041943237B0E481B060B4380211360A7
:1068000001230902137104F0B3FF002070BDC046DC
:10681000FC36002024090300F9270300B5450200D7
:106820006C10030039450200701003007C25002025
:106830009C250020F0B58BB008920122099314AB7F
:106840001F880791FB08DBB20293072311003B402E
:1068500099400B00013BDBB2039300231D001C0099
:1068600006AE0690019604922821FF2006AA52182F
:106870000199D25CC95C84469143159AD1545A1C43
:10688000D200BA4201DD039A94466246114014D008
:1068900008208446DA00D2B29444604602AEF07317
:1068A000F07B84460498014202D014000135EDB219
:1068B0000132D2B249086245F4D10133029ADBB207
:1068C0009A42D1D20020854202D024026519A8B292
:1068D0000BB0F0BDF0B585B00292039307220EAB6A
:1068E0001C8801232240934000220191013BE108D2
:1068F0000090C9B2DBB20AAEFF27551CE800BC46C7
:10690000A04200DD9C466F46B05CBA5C824310003A
:106910006246104004D1EAB29142EDD205B0F0BD1A
:106920000120FBE7F0B587B00492032205930CAB7E
:106930001C88012700239446E408114D029003911E
:10694000E4B2DE00F6B2A34217D8002002AAD25C5D
:106950000192019932180141D2B2394004D0A95CA8
:106960000131C9B2022906D80130A9540828F0D152
:106970000133DBB2E5E76146F6E707B0F0BDC0469C
:10698000B8260020F0B50023072501268B4200D34E
:10699000F0BD074AD25C022A07D91A0034002A4007
:1069A0009440DF08C25DA243C2550133DBB2EDE77C
:1069B000B8260020F0B587B005930CAB1D88039175
:1069C000ED08EBB200930023049219001A00029024
:1069D0000098DE00F6B2834213D8002402A8C05CFF
:1069E00001900198012520413719FFB2284202D0B9
:1069F0003A004919C9B20134082CF2D10133DBB293
:106A0000E6E70020814202D01202511888B207B096
:106A1000F0BD0000F0B5B049A3B0032003F0E8FEDC
:106A2000AE4804F0F1FEAE4EAE4C30788200135901
:106A3000042B00D1C9E0DD21C900AB4A0191012836
:106A400000D8B4E00120A949009003F077FF01F0DD
:106A500001FF06AD022800D0BAE00AA8FCF752FFF9
:106A6000002412AE300016AFFCF74CFF3800A65DD4
:106A7000FCF7AEFFE35D33402B550134102CF0D111
:106A8000FCF788FF06000EAC102200212000FCF766
:106A9000BDF9974F102239006846043505940496D5
:106AA00009F0BCFA0ECD0698FFF7C4FE102239009B
:106AB00005006846049609F0B1FA0A980B990C9AF9
:106AC0000D9BFFF707FF002800D09AE001F0C2FEFF
:106AD000011E00D0BCE080228648FCF797F9ECB29A
:106AE00060426041C0B200F05BFF002C45D082499B
:106AF000032003F07DFE119B0E980F99109AFCF76E
:106B0000CBFEFCF759FFC30737D57C49012C00D0D9
:106B1000B2E007232D0AADB25D43794B5D19AA7926
:106B2000092A00D9A7E00C267649032003F07CFE51
:106B3000AB79754C7343185902F06AFEAB79734315
:106B4000E318586802F06AFEAB795E43A419A068A6
:106B500002F06AFE6D4E6E4C307882001359062B9F
:106B600000D1A5E06B49604A0191012800D891E06D
:106B700001205E49009003F0E1FE5D4800F0BEFF99
:106B8000654E664C307882001359102B00D1A0E07E
:106B90006349554A0191012800D88CE00C2101205D
:106BA0000091524903F0CAFE002023B0F0BD012538
:106BB000009523685B49022003F0C0FE33785B191F
:106BC000DBB233709B001D5141E7012313513EE7B7
:106BD00001F040FE012800D13FE70AA8FCF7AAFE19
:106BE00000241AAE30001EAFFCF7A4FE3800A65DEC
:106BF000FCF706FFE35D33402B550134102CF0D138
:106C00003EE7494B494F18788200D3590B2B1CD0D3
:106C10004749354A0191012806D9082101200091F0
:106C2000324903F08BFE51E7082300933B683D494E
:106C3000022003F083FE3C4B3B4A1B780133DBB25E
:106C4000137008229B00DA5140E70823D3513DE737
:106C500000966168A268E3680E98FFF763FE200063
:106C60003100FFF78FFE043400960E980ECCFFF72C
:106C7000A1FE050033E72F49032003F0B9FD802072
:106C8000000202F0C5FD8020400202F0C7FDC020D6
:106C900080025DE70125009523682249022003F068
:106CA0004DFE33785B19DBB233709B001D5164E7F6
:106CB0000123135161E70C2500952368194902202F
:106CC00003F03CFE33780133DBB233709B001D517F
:106CD0006AE70C23135167E70D1803000C26002008
:106CE0004A290020B03A002084100300E60903007E
:106CF00038270020B826002052180300A0180300EF
:106D00000C37002001190300582A0300CC2A002068
:106D1000E03A00202F07000049290020A43A002073
:106D200036070000380A03004D290020BC3A002035
:106D300002070000391903001FB501F08BFD02287E
:106D400046D16846FCF7DEFD6B4600201B78834287
:106D50003CD16B465B78834238D16B469B7883424B
:106D600034D16B46DB78834230D16B461B7983424A
:106D70002CD16B465B79834228D16B469B79834249
:106D800024D16B46DB79834220D16B461B7A834248
:106D90001CD16B465B7A834218D16B469B7A834247
:106DA00014D16B46DB7A834210D16B461B7B834246
:106DB0000CD16B465B7B834208D16B469B7B834245
:106DC00004D16B46D87B43425841C0B205B000BDE8
:106DD00001F040FD0128B4D06846FCF7ABFDB3E7F5
:106DE000F0B5724989B00500032003F001FDFFF7FB
:106DF000A3FF041E00D19DE003206D4903F0F8FCC1
:106E00006C4E6D4C307882001359182B00D18EE0F7
:106E10006A496B4A0191012806D905210091694907
:106E2000012003F08BFD0CE00527009723686649DD
:106E3000022003F083FD33780133DBB233709B0013
:106E40001F5105AC2000FCF753FD63896788E68875
:106E5000039301F0FFFC012800D08DE0002F00D04B
:106E600084E03C27192400F0A1FD584B1A78002A31
:106E700003D000223C270F241A70554804F0C4FCAC
:106E8000544804F0C1FCAA7A6B7A12021A43EB7AD6
:106E9000514E1B041A432B7B1B06134333600523FF
:106EA0003371FA239B005C43E217630CD10319434F
:106EB000FA23E003FA2200245B00C018614192002B
:106EC000002307F06FFF32000100414804F050FC3E
:106ED000AA7A6B7A12021A43EB7A404C1B041A43CB
:106EE0002B7B1B061343236006232371FA239B008D
:106EF0007B43DD175A0CE9031143FA22D803002320
:106F0000520080185941FA220023920007F04AFFEC
:106F1000220001002F4804F02BFC00231900304A06
:106F200099540133102BFBD1002009B0F0BD05238B
:106F3000135186E72B4F2C4E387882009359042B3F
:106F400012D02A491E4A01910094012800D966E70F
:106F500033681D49022003F0F1FC3B780133DBB2BA
:106F60003B709B009C516CE794516AE720490320D9
:106F700003F03EFC248876E701F06CFC02280AD17D
:106F8000039B002B00D16CE71A49013003F030FC61
:106F90002489039F67E7002E00D162E7164903208A
:106FA00003F026FC3700A4885DE7C046D616030030
:106FB0001D1703004825002000370020450700006A
:106FC00084100300E6090300380A0300A826002005
:106FD0000C260020D425002004260020CC250020EB
:106FE000382700204A290020B03A00204707000037
:106FF0005C17030094170300D5170300F0B55C4934
:1070000089B00400032003F0F3FBFFF795FE051E93
:1070100000D16DE05749032003F0EAFB564805AD67
:1070200004F0F2FB554804F0EFFB2800FCF760FC8D
:107030006B896F88EE88039301F00CFC012800D067
:107040007CE0002F00D073E03C271923A17A627AFC
:1070500009021143E27AFA2512041143227B484EB9
:1070600012060A4332600522AD006B433271DA1713
:10707000D1035A0C1143FA22D8030023520080187E
:107080005941FA220023920007F08CFE32000100E1
:10709000394804F06DFBA27A637A12021A43E37A4C
:1070A000384E1B041A43237B7D431B061343336076
:1070B0000623EA173371D1036B0C1943FA2300241A
:1070C000FA225B00E803C01861419200002307F038
:1070D00069FE32000100294804F04AFB0023190030
:1070E000294A99540133102BFBD1002009B0F0BD7F
:1070F000264F274E387882009359042B16D0254905
:10710000254A01910095012804D92449012003F062
:1071100015FC83E733682249022003F00FFC3B781B
:107120000133DBB23B709B009D5177E7955175E7CA
:107130001C49032003F05CFB2B8887E701F08AFBE6
:1071400002280AD1039B002B00D17DE716490130AC
:1071500003F04EFB2B89039F78E7002E00D173E7E5
:107160001249032003F044FB3700AB886EE7C046AA
:107170009D1903001D1703000C260020D4250020B4
:10718000FC250020C4250020382700204A290020A3
:10719000B03A00207D06000084100300E6090300D9
:1071A000380A03005C17030094170300D517030087
:1071B000F0B5724989B00400032003F019FBFFF712
:1071C000BBFD051E00D18BE06D49032003F010FBD1
:1071D00005AD2800FCF78CFB6B896F88EE88039364
:1071E00001F038FB012800D0A1E0002F00D098E08A
:1071F0003C271923A17A627A09021143E27AFA251F
:1072000012041143227B5F4E12060A4332600522AC
:10721000AD006B433271DA17D1035A0C1143FA22D5
:10722000D8030023520080185941FA22002392000B
:1072300007F0B8FD32000100534804F099FAA27A31
:10724000637A12021A43E37A504E1B041A43237BDB
:107250007D431B06134333600623EA173371D103C2
:107260006B0CFA22194300235200E803801859419D
:10727000FA220023920007F095FD320001004448F5
:1072800004F076FAA17A637A09021943E37A414A53
:107290001B041943237B40481B060B4380211360CA
:1072A00007230902137104F063FA00231C003B4A10
:1072B0009C540133102BFBD1394E3A4D307882006B
:1072C0005359102B58D03849384A0191009401285D
:1072D00046D93749012003F031FB002009B0F0BD49
:1072E000344F354E387882009359042B17D0A7219C
:1072F000C9002E4A01910095012804D92C4901208A
:1073000003F01CFB64E733682C49022003F016FBF2
:107310003B780133DBB23B709B009D5158E79551A0
:1073200056E72749032003F063FA2B8862E701F050
:1073300091FA02280AD1039B002B00D158E721497A
:10734000013003F055FA2B89039F53E7002E00D13B
:107350004EE71D49032003F04BFA3700AB8849E79D
:107360002B681649022003F0E9FA33780133DBB2C7
:1073700033709B005C51B0E75451AEE70A13030031
:107380001D170300F42500200C260020BC2500203A
:10739000D42500206C2600207C26002038270020E1
:1073A00049290020A43A002074050000841003003D
:1073B000E60903004A290020B03A0020380A0300F9
:1073C0005C17030094170300D5170300F0B5494F6D
:1073D00087B03900032003F00BFA4749032003F07C
:1073E00007FA3900032003F003FAFCF7D5FB434901
:1073F0000200032003F018FA9622414952000320AC
:1074000003F012FADC223F499200032003F00CFA49
:10741000A0223D49032003F007FA3C4B03AD1B6853
:107420003B491A88032003F0FFF92800FCF760FAB3
:10743000EB886C8800936B890193002C56D02E88C2
:1074400032003449032003F0EFF9220032490320CF
:1074500003F0EAF9019B002B01D01C002E893200B9
:107460002E49032003F0E0F922002D49032003F008
:10747000DBF9009B002B01D01C00AE8832002949AB
:10748000032003F0D1F922002749032003F0CCF9AF
:1074900005222649032003F0C7F9052224490320C9
:1074A00003F0C2F9234A2449032003F0BDF9234A1B
:1074B0002349032003F0B8F9F8222249920003205F
:1074C00003F0B2F9204A2149032003F0ADF9204A24
:1074D0002049032003F0A8F93900032003F088F9BC
:1074E0003900032003F084F907B0F0BD3C241926CD
:1074F000A6E7C046D02A0300182B0300612B030027
:107500007D2B0300B92B0300EE2B03009C260020EB
:10751000212C0300402C03006D2C03009C2C030045
:10752000D22C03000A2D0300372D0300662D030023
:10753000AC2D0300C9260000F42D0300BAE80000BA
:10754000242E03004F2E0300C10700007D2E0300F0
:1075500045170000A82E030010B50320034903F0CF
:1075600047F9FFF733FF002010BDC0465516030052
:1075700010B50320034903F03BF9FFF727FF002074
:1075800010BDC046D3150300F0B54B4C010AA170E5
:10759000010CA279E170010E2171617912020A4396
:1075A000E17985B009040A43217A030009061143F1
:1075B000424A25788A1803920A0060700398904224
:1075C00007D100953E4A3F49022003F081F9012589
:1075D0005FE05078561A8446674690780002384338
:1075E000D7783F040743107900063843834246D1D9
:1075F0001078A84241D18020A17A627A0902114311
:10760000E27A400212041143227B12060A43190057
:10761000FCF76CFCA279637912021A43E3791B042C
:107620001A43237A1B0613439B199A795D79120238
:107630002A43DD792D042A431D7A2D06154320D1D6
:10764000A278637812021A43E3781F491B041A4395
:10765000237903201B061343194A03F00BF9A2797F
:10766000637912021A43E3791B041A43237A1B0637
:1076700013439B195B7A23700BE01628BBD00A32A8
:107680009CE72000A847051E06D01049012003F002
:10769000AFF8280005B0F0BDA279637912021A4351
:1076A000E3791B041A43237A1B0613439B195B7A65
:1076B000162BE0D1EDE7C046582000208A020000DA
:1076C000430D03009C0D0300520D0300830D0300C6
:1076D000044A13005072020A9A72020C000EDA7207
:1076E0001873704758200020074B08491A78002368
:1076F00098004058182805D10133DBB29A42F7D2DE
:10770000002070470120FCE74825002000370020BA
:1077100010B50320024903F06BF8002010BDC046ED
:107720004E30030010B50320024903F061F8002039
:1077300010BDC0469030030010B50320024903F08D
:1077400057F8002010BDC046E731030010B50320F4
:10775000024903F04DF8002010BDC046B42F0300CD
:1077600010B50320024903F043F8002010BDC046C5
:10777000EC2F030010B50320024903F039F8002074
:1077800010BDC0468B2F030010B50849032003F03D
:107790002FF80749074B0A004B72190A9172190C0E
:1077A0001B0E0020D172137310BDC046622F030060
:1077B000652000208C3A002010B50B49032003F00F
:1077C00017F80A4A0A48937A517A1B020B43D17A76
:1077D000043009040B43117B07220906194308F002
:1077E0001DFC002010BDC0465C3103006520002058
:1077F0008C3A002010B50A49032002F0F9FF09492C
:1078000000208A7A4B7A12021A43CB7A1B041A435D
:107810000B7B1B0613431A88034B5A8010BDC046CE
:107820008A310300652000208C3A002010B50A49F7
:10783000032002F0DDFF094900208A7A4B7A120208
:107840001A43CB7A1B041A430B7B1B0613431A887B
:10785000034B1A8010BDC04618300300652000207D
:107860008C3A002010B50320034902F0C1FF02F05A
:10787000C1FB002010BDC046CC30030073B51C49CD
:10788000032002F0B5FFFCF7CBF9FCF797F9FCF702
:1078900087F902F0B8FB02F0BFFB0320154902F0A4
:1078A000A7FF02F0B8FB144E144C30788200135935
:1078B000102B19D0D021124A0191012806D901209C
:1078C0001049009003F03AF8002076BD012500959C
:1078D00023680D49022003F031F833785B19DBB2DD
:1078E00033709B001D51EFE701231351ECE7C046B5
:1078F000FF3003002B31030049290020A43A002067
:1079000047310300E6090300380A030030B5214976
:1079100085B0032002F06CFF1F4D1022AB7A6C7A09
:107920001B022343EC7A6846240423432C7B240661
:107930001C43210008F072FB2B78042B1BD1E47B45
:107940007B331C4000F086FF022817D180231C43A4
:107950006B46DC73039B00980199029AFBF794FD38
:107960000E4B1B78002B06D100F074FF02280AD1C1
:107970000420FBF7B5FD002005B030BD00F06AFF24
:107980000128E5D1E2E700F065FF0128F0D00320EF
:10799000EFE7C046BB3103006520002048290020E6
:1079A000014B18707047C04648290020014B1878D9
:1079B0007047C04648290020F0B54B4C010AA17021
:1079C000010CA279E170010E2171617912020A4362
:1079D000E179030009040A43217A85B009061143BD
:1079E0000F000A008C372578607003970398904247
:1079F00007D100953D4A3E49022002F069FF01256A
:107A00005FE05078561A8446674690780002384303
:107A1000D7783F040743107900063843834246D1A4
:107A20001078A84241D18020A17A627A09021143DC
:107A3000E27A800212041143227B12060A431900E3
:107A4000FCF754FAA279637912021A43E3791B0412
:107A50001A43237A1B0613439B199A795D79120204
:107A60002A43DD792D042A431D7A2D06154320D1A2
:107A7000A278637812021A43E3781E491B041A4362
:107A8000237903201B061343184A02F0F3FEA27960
:107A9000637912021A43E3791B041A43237A1B0603
:107AA00013439B195B7A23700BE00728BBD00A3283
:107AB0009CE72000A847051E06D00F49012002F0D0
:107AC00097FE280005B0F0BDA279637912021A432F
:107AD000E3791B041A43237A1B0613439B195B7A31
:107AE000072BE0D1EDE7C04665200020CF2E030034
:107AF0009C0D0300520D0300830D0300044A130084
:107B00005072020A9A72020C000EDA7218737047F1
:107B100065200020054A937A507A1B020343D07AED
:107B200000040343107B00061843704765200020C3
:107B3000074B08491A78002398004058102805D1AF
:107B40000133DBB29A42F7D2002070470120FCE7F4
:107B500049290020A43A002010B50320024902F070
:107B600047FE002010BDC0464E32030010B5054947
:107B7000032002F03DFE0320034902F039FE0020FD
:107B800010BDC046063303004833030010B5032080
:107B9000034902F02DFE02F02BFB002010BDC04671
:107BA000C832030010B50320034902F021FE02F0A1
:107BB0000FFB002010BDC04689320300F0B54B4CCE
:107BC000010AA170010CA279E170010E21716179A5
:107BD00012020A43E179030009040A43217A85B0BD
:107BE000090611430F000A002837257860700397B3
:107BF0000398904207D100953D4A3E49022002F089
:107C000067FE01255FE05078561A844667469078F3
:107C100000023843D7783F04074310790006384301
:107C2000834246D11078A84241D1C020A17A627A1D
:107C300009021143E27A800212041143227B1206E8
:107C40000A431900FCF752F9A279637912021A4328
:107C5000E3791B041A43237A1B0613439B199A7971
:107C60005D7912022A43DD792D042A431D7A2D06FF
:107C7000154320D1A278637812021A43E3781E4993
:107C80001B041A43237903201B061343184A02F0EE
:107C9000F1FDA279637912021A43E3791B041A43B6
:107CA000237A1B0613439B195B7A23700BE004288D
:107CB000BBD00A329CE72000A847051E06D00F491A
:107CC000012002F095FD280005B0F0BDA27963798E
:107CD00012021A43E3791B041A43237A1B06134347
:107CE0009B195B7A042BE0D1EDE7C046722000209F
:107CF000183203009C0D0300520D0300830D030096
:107D0000044A13005072020A9A72020C000EDA72D0
:107D10001873704772200020054A937A507A1B022C
:107D20000343D07A00040343107B000618437047D6
:107D300072200020074B08491A7800239800405809
:107D4000042805D10133DBB29A42F7D200207047F4
:107D50000120FCE74A290020B03A0020002801D188
:107D6000014B18707047C046522A002010B50649D2
:107D7000032002F03DFD0122044B032004491A7048
:107D800002F036FD002010BD603503004C290020B4
:107D9000A235030010B50649032002F029FD022296
:107DA000044B032004491A7002F022FD002010BD8C
:107DB000DD3403004C2900202535030010B50549AA
:107DC000032002F015FD0320034902F011FD0020FD
:107DD00010BDC0469E360300EC36030010B50549C1
:107DE000032002F005FD0320034902F001FD0020FD
:107DF00010BDC046A0340300EC36030010B50024CB
:107E00000749032002F0F4FC064803F0FDFC064B92
:107E1000064903201C7002F0EBFC200010BDC04698
:107E2000B1380300602900204C290020EC36030003
:107E300070B505000F49032002F0DAFC0E4C20005B
:107E400003F0E2FCA97A6B7A09021943EB7A0B4A38
:107E50001B0419432B7B20001B060B4313600723D5
:107E60001371074B196803F083FC0122054B0020B6
:107E70001A7070BDD43503006029002058290020F5
:107E8000842000204C2900200122064B10B5064911
:107E900006481A7003F098FD002801D003F042F95B
:107EA00010BDC046522A0020F8380300A020002050
:107EB00070B504002249032002F09AFC214803F027
:107EC000A3FC214D280003F09FFCA17A637A0902EC
:107ED0001943E37A1D4A1B041943237B28001B0620
:107EE0000B43136006231371194B196803F040FC10
:107EF000184D280003F088FCA17A637A090219431F
:107F0000E37A154A1B041943237B28001B060B4305
:107F1000136007231371114B196803F029FC012228
:107F20000F4B1A70FBF748FD830702D50520FBF7BE
:107F3000D7FA0C49032002F05BFC002070BDC0465C
:107F40005A360300B8290020F0290020D829002043
:107F50008C2000206029002050290020842000204F
:107F60004C290020A2350300F7B52749040003205F
:107F700002F03EFC254D26492A88032002F054FCDD
:107F8000244B2A881B689A4215D3A17A637A090286
:107F90001943E37A204A1B041943237B1F481B061D
:107FA0000B431360042313711D4B196803F0E0FBAE
:107FB00000202880FEBD1B4803F026FC1A4E1B4CF7
:107FC0003078820013590B2B1BD0A421FF31184AA3
:107FD0000191012807D9A139FF39009101201549E4
:107FE00002F0ACFCE4E70327009723681249022063
:107FF00002F0A4FC33780133DBB233709B001F51D5
:10800000D6E703231351D3E71E370300282A0020A5
:108010005E370300B8200020B0290020B8290020D6
:10802000BC200020882900204D290020BC3A0020D7
:1080300097370300E6090300380A0300F7B5036821
:108040000400002B08D016490A004B72190A9172DD
:10805000190C1B0ED1721373124E134D3778217900
:10806000BA0053590B2B19D0AD20104A0190009142
:10807000012F06D90E49AC3802F060FC0B232371A6
:10808000F7BD2B680B49022002F058FC337801330E
:10809000DBB2337022799B005A51EFE75151EDE783
:1080A000902000204D290020BC3A00209737030083
:1080B000E6090300380A0300F7B503680400002B43
:1080C00008D016490A004B72190A9172190C1B0E3E
:1080D000D1721373124E134D37782179BA00535968
:1080E0000B2B19D0AC20104A01900091012F06D91A
:1080F0000E49AB3802F022FC0B232371F7BD2B682D
:108100000B49022002F01AFC33780133DBB23370E2
:1081100022799B005A51EFE75151EDE79020002062
:108120004D290020BC3A002097370300E6090300E0
:10813000380A0300F7B503680400002B08D016497D
:108140000A004B72190A9172190C1B0ED17213732B
:10815000124E134D37782179BA0053590B2B19D091
:10816000AB20104A01900091012F06D90E49AA3880
:1081700002F0E4FB0B232371F7BD2B680B490220AF
:1081800002F0DCFB33780133DBB2337022799B00E1
:108190005A51EFE75151EDE7902000204D29002082
:1081A000BC3A002097370300E6090300380A0300B1
:1081B000F7B503680400002B08D016490A004B727B
:1081C000190A9172190C1B0ED1721373124E134DB2
:1081D00037782179BA0053590B2B19D0AA20104AAD
:1081E00001900091012F06D90E49A93802F0A6FB93
:1081F0000B232371F7BD2B680B49022002F09EFB75
:1082000033780133DBB2337022799B005A51EFE7A8
:108210005151EDE7902000204D290020BC3A00206C
:1082200097370300E6090300380A0300094B0A499F
:108230001A68FA239B00C046C046C046C046C046E6
:10824000C046C046C0468A4200D0C046013BF2D17B
:108250007047C0464C2100200024F400F0B5554979
:1082600091B0032002F0C4FA002104AC524B10225A
:1082700020001970FAF7CAFD05230493013B6360DF
:10828000CC235B04A36003234C4D237308224C4B87
:108290002100280003F07CFB002801D002F042FFFF
:1082A0000D23484F3B70FFF7EFFDFFF7BFFF464B35
:1082B0001B78002B07D1454B1B782A2B08D04A2B63
:1082C00061D1434905E04349032002F091FAECE70C
:1082D0004149032002F08CFA2300404A43CA43C3B9
:1082E00043CA43C343CA43C343CA43C3002306220A
:1082F0002100280003F098FB2A233B70FFF7C4FD00
:10830000FFF794FF304B1B78002B37D12F4A3448AE
:10831000117801221143417002A90C002F4830301E
:10832000C0C8C0C4280003F07FFB2E4A00212E489D
:1083300003F006FA2D4A00212D4803F001FA2D4AD8
:1083400000212D4803F0FCF92C4A00212C4803F0B1
:10835000F7F92C4E2C4C3078820013590B2B25D07A
:10836000AD214900294A0191012811D9012028494C
:10837000009002F0E3FA002011B0F0BD154903208F
:1083800002F036FABCE72349032002F031FACCE7C9
:108390000125009523682049022002F0CFFA3378A6
:1083A0005B19DBB233709B001D51E4E701231351CD
:1083B000E1E7C046B63703004C290020A02000208A
:1083C0002C2A00204B290020522A0020102A0020AD
:1083D00039380300F63703000938030098330300E7
:1083E0007F200020B1810200983403003581020013
:1083F0009C340300B9800200943403003D800200E5
:10840000903403004D290020BC3A00209737030028
:10841000E609030068380300380A03000C2370B52E
:108420002C4E04003370FFF72FFDFFF7FFFE2A4D9F
:108430002B78002B44D1294B1B785B073AD51623A8
:108440003370FFF721FDFFF7F1FE2B78002B3CD1B5
:10845000234D280003F0D8F9A17A637A0902194361
:10846000E37A204A1B041943237B28001B060B4395
:108470001360042313711C4B196803F079F91B4D29
:10848000280003F0C1F9A17A637A09021943E37A5B
:10849000174A1B041943237B28001B060B43136058
:1084A00005231371134B196803F062F9124A1388FC
:1084B000013313801149032002F09AF9002070BDA6
:1084C0000F49032002F094F9AFE70D49032002F0B1
:1084D0008FF9B8E74B290020522A0020102A0020EB
:1084E000B8290020A8290020BC20002088290020CD
:1084F0008029002088200020282A00202036030020
:10850000F63703000C2370B5134D2B70FFF7BCFC3E
:10851000FFF78CFE114C2378002B12D1104B1B78E7
:108520005B070CD516232B70FFF7AEFCFFF77EFE22
:108530002378002B0AD10B4A1388013313800020C3
:1085400070BD0949032002F053F9E1E70649032011
:1085500002F04EF9EAE7C0464B290020522A0020DB
:10856000102A0020282A0020F63703000C2370B5BB
:108570001D4E05003370FFF787FCFFF757FE1B4CBD
:108580002378002B25D11A4B1B785B071FD51623A8
:108590003370FFF779FCFFF749FE2378002B1DD1DC
:1085A000144C200003F030F9A97A6B7A09021943C0
:1085B000EB7A114A1B0419432B7B20001B060B434B
:1085C0001360062313710D4B196803F0D1F80020D6
:1085D00070BD0B49032002F00BF9CEE708490320D8
:1085E00002F006F9D7E7C0464B290020522A0020A6
:1085F000102A0020F0290020E02900208C200020F3
:10860000F63703000C2370B51D4E05003370FFF7DD
:108610003BFCFFF70BFE1B4C2378002B25D11A4B9C
:108620001B785B071FD516233370FFF72DFCFFF770
:10863000FDFD2378002B1DD1144C200003F0E4F83D
:10864000A97A6B7A09021943EB7A114A1B04194380
:108650002B7B20001B060B431360062313710D4B6D
:10866000196803F085F8002070BD0B49032002F063
:10867000BFF8CEE70849032002F0BAF8D7E7C046B2
:108680004B290020522A0020102A0020F029002027
:10869000E82900208C200020F637030010B5064C96
:1086A00020600648016006490A60064A1360064BCE
:1086B000029A1A6010BDC0468C200020B82000200D
:1086C000BC2000208820002084200020F0B54B4CE6
:1086D000010AA170010CA279E170010E217161798A
