:020000022000DC
:102C00000080002001E7020041E7020043E70200E4
:102C100000000000000000000000000000000000B4
:102C200000000000000000000000000045E7020076
:102C3000000000000000000047E7020049E7020032
:102C400055C802004BE70200F9A50200CDD40200EE
:102C50004BE7020000000000E5CE020025CA02009A
:102C60004BE702004BE702004BE702004BE7020094
:102C70004BE702004BE702004BE702004BE7020084
:102C80004BE7020075B202004BE702004BE702007F
:102C900031B302004BE70200D9E902004BE7020022
:102CA0004BE702004BE702000000000000000000BC
:102CB0000000000000000000000000000000000014
:102CC00010B5064C2378002B07D1054B002B02D002
:102CD000044800E000BF0123237010BDD82200206B
:102CE0000000000094410300084B10B5002B03D0F6
:102CF0000749084800E000BF07480368002B00D1DF
:102D000010BD064B002BFBD09847F9E700000000F0
:102D1000DC22002094410300C422002000000000B7
:102D2000164B002B00D1144B9D46402292029A1A5A
:102D3000924600218B460F461348144A121A00F09F
:102D400065F80F4B002B00D098470E4B002B00D09E
:102D500098470020002104000D000D48002802D0F3
:102D60000C4800E000BF00F02DF82000290000F022
:102D700059F800F011F8C04600000800008000205B
:102D80000000000000000000D8220020083B0020C6
:102D90000000000000000000084B10B50400002BEC
:102DA00002D0002100E000BF054B1868836A002BA9
:102DB00000D09847200000F031F8C0460000000025
:102DC0002C09030070B500260C4D0D4C641BA4109B
:102DD000A64209D100260DF09DFD0A4D0A4C641B48
:102DE000A410A64205D170BDB300EB589847013638
:102DF000EEE7B300EB5898470136F2E7BC2200201B
:102E0000BC220020BC220020C02200200300821827
:102E1000934200D1704719700133F9E7FEE7C046CD
:102E200048DF7047F7B5002007F0D4FC854904005F
:102E3000032007F0E3FC8449032007F0DFFC83490B
:102E4000032007F0DBFC002C02D0200008F070F912
:102E500000207F4B0B2118707E4B7F4A18707F4BF0
:102E60001827187004231360536093607C4A10265F
:102E700010707C4A7C4C1160516091607B4A033138
:102E800010707B4A7B4D1160516091607A4A2760D7
:102E9000107006226760A7602E606E60AE60774992
:102EA0000A604A608A607649087076490A604A601A
:102EB0008A60754A1070754A13605360936004F01D
:102EC0006BFB00970196624B1B789A00A05818285C
:102ED0000AD00099013BDBB2A150022B00D900239C
:102EE0005B4A137004F058FB5A4B1B789A00A858A1
:102EF00010280AD00199013BDBB2A950022B00D95E
:102F00000023544A137004F05FFD544B524A1B785F
:102F10009900885804280AD00426013BDBB28E5061
:102F2000022B00D900234D4A137004F04FFE4C4A87
:102F30004C4913789E0070580B2809D00B27013B91
:102F4000DBB27750022B00D90023137005F0C4FBCD
:102F5000464A474913789E0070580E2809D00E271C
:102F6000013BDBB27750022B00D90023137006F02F
:102F7000E9F9414A414913789E007058062809D062
:102F80000627013BDBB27750022B00D900231370D8
:102F900005F0F8FD3A4A3B4913789E007058062820
:102FA00009D00627013BDBB27750022B00D9002362
:102FB000137006F045FC344A344913789E0070586B
:102FC000042809D00427013BDBB27750022B00D93B
:102FD0000023137006F028FE04F08EFB002800D0BA
:102FE00071E704F0ADFD002800D06CE704F0AAFE04
:102FF000002800D067E705F01FFC002800D062E73A
:1030000006F05CFA002800D05DE705F06BFE0028B2
:1030100000D058E706F0C4FC002800D053E706F0C3
:10302000A5FE002800D04EE707F01AFD002800D0CA
:1030300049E7FFF7F5FE002800D144E708F078F8EB
:1030400041E7C04630090300830903009D090300DE
:103050004825002049290020B03A00204A290020B4
:103060004D290020BC3A002000370020902A002083
:10307000D43A0020A43A0020582A0020C83A002060
:10308000CC2A0020E03A0020582B0020EC3A002007
:10309000A0DF7047A6DF704763DF704730B5AE49E9
:1030A00089B0032007F0AAFB01220120AB4B52425A
:1030B000AB4C1A80AB49AC4B220088700B80FFF7F9
:1030C000E7FF002801D008F033F8A849102204A82F
:1030D0000CF0AAFFA64D04A82900FFF7DDFF002889
:1030E00001D008F025F8A34A2B7821880392A24A40
:1030F000A24802920222019203320092A04A07F0F3
:1031000083F8002801D008F013F89E4A2B78218814
:1031100003929D4A9D4802920222019292180092C7
:103120009B4A07F071F8002801D008F001F8994A8D
:103130002B7821880392984A98480292072201929C
:10314000023A0092964A07F05FF8002801D007F093
:10315000EFFF944A2B7821880392934A9348029276
:1031600010220192073A0092914A07F04DF8002888
:1031700001D007F0DDFF8F4A2B78218803928E4A19
:103180008E4802920C220192073A00928C4A07F074
:103190003BF8002801D007F0CBFF8A4A2B78218822
:1031A0000392894A894802920122019203320092D5
:1031B000874A07F029F8002801D007F0B9FF854AAF
:1031C0002B7821880392844A84480292102201922B
:1031D0000B3A0092824A07F017F8002801D007F056
:1031E000A7FF804A2B78218803927F4A7F4802926A
:1031F000102201920B3A00927D4A07F005F8002850
:1032000001D007F095FF7B4A2B78218803927A4AF8
:103210007A48029204220192033A0092784A06F018
:10322000F3FF002801D007F083FF764A2B7821882E
:103230000392754A7548029201220192043200926B
:10324000734A06F0E1FF002801D007F071FF714AD0
:103250002B7821880392704A7048029204220192CE
:1032600000926F4A06F0D0FF002801D007F060FFFF
:103270006C4A2B78218803926B4A6C480292012297
:1032800001920B3200926A4A06F0BEFF002801D07C
:1032900007F04EFF674A2B7821880392664A6748F9
:1032A00002920122019204320092654A06F0ACFFBC
:1032B000002801D007F03CFF624A2B782188039256
:1032C000614A6248029202220192013A0092604AE7
:1032D00006F09AFF002801D007F02AFF5D4A2B78FC
:1032E000218803925C4A5D48029210220192073ABB
:1032F00000925B4A06F088FF002801D007F018FF13
:10330000584A2B7821880392574A58480292102233
:1033100001920B3A0092564A06F076FF002801D03F
:1033200007F006FF534A21882B780392524A5348EC
:103330000292102201920B3A0092514A06F064FF69
:10334000041E01D007F0F4FE4E49032007F056FAA0
:10335000200009B030BDC046EE0A03004C2000201A
:10336000042400200624002000FFFFFFC109030001
:103370000A24002034230020B8230020180B030067
:1033800001FF000064230020EE230020270B030030
:1033900002FF00005C230020E7230020310B030024
:1033A00003FF00006C230020F0230020380B0300F3
:1033B00004FF00003C230020BA2300204D0B030033
:1033C00005FF00000C23002080230020680B030071
:1033D00006FF00002423002098230020790B03001F
:1033E00007FF00004C230020C72300208D0B0300A3
:1033F00008FF00001423002084230020A10B0300F9
:1034000009FF000044230020C6230020B00B030066
:103410000AFF00007423002000240020C50B0300D5
:103420000BFF0000F42200207C230020CF0B0300C0
:103430000CFF0000FC2200207D230020E20B030093
:103440000DFF0000042300207E230020EE0B03006C
:103450000EFF00001C23002088230020F60B030031
:103460000FFF00002C230020A8230020090C0300DC
:1034700010FF000054230020D7230020220C03005B
:1034800011FF00003B0C0300F0B510251627114E6C
:103490008BB006AC00900191029269462A00300080
:1034A00003936F440CF0C0FD2A00002120003D80F2
:1034B000FFF7ACFC084B21001B88A7602380012389
:1034C000A3700023A380054BE6601888FFF7E2FD98
:1034D0000BB0F0BDF02300206C2300204C20002016
:1034E000F0B587B06B4601270C4D02AC2870102256
:1034F000002120009E1DDF80FFF788FC084B210083
:103500001B88A77023800023A380064BA660188821
:10351000E560FFF7BFFD07B0F0BDC0467C2300208B
:10352000F42200204C200020F0B5038885B0112B38
:103530002BD0502B3ED0102B14D1BD4E8288BD4BCA
:103540003078BD4C1A8082001359102B1AD03721C5
:10355000BA4A0191012807D934390091B8490120AC
:1035600007F0F2F905B0F0BD032500952368B549D1
:10357000022007F0E9F933780133DBB233709B00A6
:103580001D51EFE703231351ECE70122A84EA94B8D
:1035900030785242A84C1A8082001359102B07D061
:1035A0004521A64A019141390128D6D80425DCE7F6
:1035B0000423E8E7A44AC38812889A421BD1FF205B
:1035C000FFF78EFFA14803887F2B01D97F2303805B
:1035D00004F09CFA964E984C307882001359102BC8
:1035E00007D05A21954A0191052555390128B4D8AB
:1035F000BBE70523C7E7964A12889A421CD1FF20F1
:10360000FFF76EFF934803887F2B01D97F23038048
:1036100004F07CFA864E884C307882001359102BC7
:1036200008D06521854A019106255F39012800D916
:1036300093E79AE70623A6E7874A12889A4214D1AD
:10364000864804F063FA7A4E7B4C30788200135936
:10365000102B08D06D21794A019107256639012880
:1036600000D97AE781E707238DE77D4A11889942DF
:1036700000D177E792889A4200D173E7794A12889D
:103680009A4211D16A4E6C4C307882001359102B3B
:1036900008D07A21694A01910B256F39012800D998
:1036A0005BE762E70B236EE76F4A12889A4214D1F8
:1036B0006E4804F02BFA5E4E5F4C3078820013594E
:1036C000102B08D081215D4A019108257939012804
:1036D00000D942E749E7082355E7654A12889A422C
:1036E00000D13FE7634A12889A4200D13AE7624A22
:1036F00012889A4211D14E4E4F4C307882001359A5
:10370000102B08D091214D4A01910A2587390128B3
:1037100000D922E729E70A2335E7584A12889A4256
:1037200011D1434E444C307882001359102B08D0ED
:103730009721424A019109258E39012800D90CE7C9
:1037400013E709231FE74E4A12889A4200D009E77F
:10375000831D03931F7B022F25D10124494B1B7826
:10376000234220D04849032007F048F88020000277
:1037700006F054F88020400206F056F8C02080027F
:1037800006F058F8414E424D307882005359062BCE
:103790004AD0A321294A01910094A04238D928494E
:1037A000200007F0D1F8039B1B7B062B00D0D9E645
:1037B0000124344B1B78234200D1D3E63549032042
:1037C00007F01CF88020000206F028F88020400254
:1037D00006F02AF8C020800206F02CF82B4E2C4D63
:1037E000307882005359062B20D0AB21134A019127
:1037F0000094A04200D9B1E62B681249022007F0DC
:10380000A3F833780133DBB233709B005C51A9E637
:103810002B680C49380007F097F833780133DBB296
:1038200033709B005C51BEE75451BCE7545199E69C
:10383000492900204C200020A43A0020D10903008F
:10384000F2090300440A030034230020B8230020B7
:1038500064230020EE2300205C230020E7230020C7
:103860006C2300203C2300200C2300208023002018
:10387000242300204C230020442300207423002014
:10388000F42200207D2300208E0A0300CC2A002091
:10389000E03A0020BF0A0300F0B510251627114EAC
:1038A0008BB006AC00900191029269462A0030006C
:1038B00003936F440CF0B8FB2A00002120003D80E8
:1038C000FFF7A4FA084B21001B88A760238001237F
:1038D000A3700023A380054BE6601888FFF7DAFB8E
:1038E0000BB0F0BD882300201C2300204C200020BA
:1038F00010B504000C2202490CF096FB200010BD0C
:10390000BA2300207FB51025094E04002A0031009B
:1039100068460CF089FB7F22F37B694613406A46B8
:103920002000D3732A000CF07FFB200004B070BD90
:10393000982300207FB51025094E04002A0031008D
:1039400068460CF071FB7F22F37B694613406A46A0
:103950002000D3732A000CF067FB200004B070BD78
:10396000C72300207FB51025094E04002A0031002E
:1039700068460CF059FB7F22F37B694613406A4688
:103980002000D3732A000CF04FFB200004B070BD60
:10399000F0230020014B18887047C046B823002050
:1039A000014B18887047C046EE230020014B186871
:1039B0007047C04600240020014B18787047C0466D
:1039C0007D230020014B18787047C046C623002095
:1039D0007FB51025094E04002A00310068460CF01E
:1039E00023FB7F22F37B694613406A462000D37392
:1039F0002A000CF019FB200004B070BDA8230020A1
:103A00007FB51025094E04002A00310068460CF0ED
:103A10000BFB7F22F37B694613406A462000D37379
:103A20002A000CF001FB200004B070BDD723002059
:103A30001FB501900291039201A90C2202480CF0DB
:103A4000F3FA05B000BDC046BA230020014B186050
:103A50007047C04684230020014B18807047C04641
:103A60007E230020014B18807047C046B8230020F9
:103A700007B5072200900191024869460CF0D4FA7C
:103A800007BDC046E7230020014B18707047C046B1
:103A9000C62300201FB5029203935A006B46520EB4
:103AA000009001910348DA73694610220CF0BCFAC9
:103AB00005B000BD982300201FB5029203935A0061
:103AC0006B46520E009001910348DA73694610224A
:103AD0000CF0AAFA05B000BDC72300201FB5029262
:103AE00003935A006B46520E009001910348DA731B
:103AF000694610220CF098FA05B000BDF0230020B2
:103B0000014B18707047C0467D23002073B50388B1
:103B10001D2B20D10622037C134093421BD10100B0
:103B2000164C1832113120000CF07EFA200004F0FF
:103B3000EFF8134E134C307882001359042B19D030
:103B40003921114A0191012806D937390091012004
:103B50000E4906F0F9FE73BD0225009523680C4955
:103B6000280006F0F1FE33780133DBB23370AB404E
:103B70001D51F0E702231351EDE7C0460B2400204E
:103B80004A290020B03A0020610C0300F20903002A
:103B9000440A030078DF70477ADF70477CDF7047A4
:103BA00070470000004870470C25002010B50449FC
:103BB00004480AF0A3FD002801D007F0B9FA10BDAF
:103BC000A13B0200FC24002070B59AB00BAC3C2253
:103BD00000212000FFF71AF9022323700433E37059
:103BE000104B012663618023626A03ADDB00A6707F
:103BF00026820021138028002022FFF707F9962350
:103C000000215B002B61EE706961074B00912A0077
:103C100020000AF0CDF9002801D007F089FA1AB087
:103C200070BDC0464E200020D93D0200112330B5A2
:103C300085B001AD2B701A4B1A4C1B681A4A1B49F0
:103C40009BB220000CF02CFA20000CF04BFA210063
:103C500082B22800FFF7A2FF002801D007F068FA1F
:103C60000020FFF797FF002801D007F061FA02ACAF
:103C7000082200212000FFF7C9F8202323801833F1
:103C800063800023A3809133FF332000E380FFF79C
:103C900083FF002801D007F04BFA05B030BDC046C5
:103CA000A40000100C2500208C0C0300820C0300E3
:103CB0007FB518490422063168460CF0B5F9002397
:103CC000D022154968460AF03DFE002801D007F0D1
:103CD0002FFA01AA012100200AF08EFE002801D04F
:103CE00007F026FA01A80AF09FFE002801D007F08D
:103CF0001FFA0A480AF05CFE002801D007F018FA03
:103D000007480AF05FFE002801D007F011FA07B05B
:103D100000BDC046820C03002C240020133E02008C
:103D2000413E020076DF7047A8DF704767DF7047CB
:103D30001FB503880400112B23D004D8022B28D0F0
:103D4000102B0FD01FBD512B29D0552B01D03A2B52
:103D5000F8D1A0881321FFF7E5FF0028F2D007F083
:103D6000E7F9EFE70320194906F048FD072009F0BD
:103D700069FD002801D007F0DBF9A288144B1A80F6
:103D8000E0E7027A1349032006F054FD0122524273
:103D9000F4E70F4B00211888FFF7C8FFDDE78379B0
:103DA000002BCFD0827B043A022ACBD8022B0AD137
:103DB0006A461370C1236A465B009380A0886946F7
:103DC000FFF7B2FFC9E70123F2E7C046F50C030095
:103DD0001A2500200B0D030010B500280CD0032875
:103DE00009D1074906F00AFD022009F02BFD002841
:103DF00001D007F09DF910BD06F042F8FBE7C04680
:103E0000D80C0300038810B5112B01D00AF0A2FAD8
:103E100010BD10B504000AF0F9FB20000AF0A0FB69
:103E2000200009F0D9FD2000FFF782FF2000FFF7F6
:103E30007BFB2000FFF7E6FF2000FFF767FE10BDC9
:103E400010B5040008F09AFB20000AF0B9FA10BD82
:103E500073B50E2802D00F281CD073BD03201F4954
:103E600006F0CCFC1E4E1F4C307882001359182BE4
:103E70000DD08221490001911B4AFB3909250128F7
:103E80001DD900910120194906F05EFDE5E70923DF
:103E90001351E2E70320164906F0B0FC104E114C16
:103EA000307882001359182B16D0852149000E4A0C
:103EB0000191012802D90139FF39E2E70A2500956D
:103EC00023680C49022006F03FFD33780133DBB252
:103ED00033709B001D51C0E70A23D9E7950C0300FE
:103EE0004825002000370020AB0C0300F209030036
:103EF000C20C0300440A03008023F7B5DB0298429A
:103F000000D102E109D880239B02984226D0C02329
:103F10009B02984200D1B0E0F7BDC023DB0298427B
:103F200000D1E0E0E023DB02984200D13DE1A02394
:103F3000DB029842F0D1012900D0B0E005F0B0FAE0
:103F400003F0CEFBC54FC64D3878C64E820053599C
:103F5000182B00D1F6E0C44A282110E0012918D11D
:103F600003F0E0FD03F0BCFBBC4FBD4D3878BF4E05
:103F700082005359182B00D1E4E01921BA4A01916B
:103F80000096012800D8D1E0B949012006F0DCFCF8
:103F9000C2E704291ED103F0C5FD03F0A1FBAF4E1B
:103FA000AF4C3078B34D82001359182B00D10EE17D
:103FB0001A21AD4A019100950128E5D82368AE4940
:103FC000022006F0C1FC33780133DBB233709B0072
:103FD0001D51A1E7072900D0FBE003F0A3FD03F08A
:103FE0007FFB9E4E9E4C3078A44D82001359182BB7
:103FF00000D1ECE09C4A1B21DCE703F093FD03F0C9
:104000006FFB964E964C30789D4D82001359182BBD
:1040100000D1DCE0944A1C21CCE703F083FD03F0DF
:104020005FFB8E4E8E4C3078964D82001359182BC4
:1040300000D1CCE08C4A1D21BCE703F073FD03F0F6
:104040004FFB864E864C30788F4D82001359182BCB
:1040500000D1BCE0844A1E21ACE703F063FD03F00D
:104060003FFB7E4E7E4C3078884D82001359182BD2
:1040700000D1ACE07C4A1F219CE7022900D04BE72D
:1040800003F052FE03F02CFB744F754D3878804ED0
:1040900082005359182B55D0734A24216FE7052904
:1040A0000FD105F0FDF903F01BFB6C4E6C4C307822
:1040B000784D82001359182B00D188E06A4A2921D3
:1040C00078E70C2900D0A2E005F0EAF903F008FB3C
:1040D000624E634C3078704D82001359182B76D0A5
:1040E000614A2A2166E7032900D015E704F0ECFDB8
:1040F00003F0F6FA594E5A4C3078684D8200135945
:10410000182B64D0584A2F2154E701291CD104F000
:1041100085FB03F0E5FA514F514D3878604E82002F
:104120005359182B0ED0504A342128E72B68524996
:10413000022006F009FC3B780133DBB23B709B00A8
:104140005E51E9E65651E7E608290ED104F066FB18
:1041500003F0C6FA414E424C3078524D820013595A
:10416000182B34D0404A352124E7062961D104F0C8
:1041700055FB03F0B5FA394E394C30784A4D820080
:104180001359182B23D0384A362113E704F046FB85
:1041900003F0A6FA314E324C3078444D8200135968
:1041A000182B14D0304A372104E7042900D0B3E695
:1041B00005F0E8FB03F094FA284E294C30783C4D8A
:1041C00082001359182B02D0274A3D21F2E61551DF
:1041D000A2E6062900D110E7082900D11DE7092928
:1041E00000D12AE70A2900D137E70B2900D093E64E
:1041F00003F098FC03F074FA184E194C30782D4DEA
:1042000082001359182BE2D0174A2021D2E609293F
:1042100000D081E605F044F903F062FA0F4E104C2D
:104220003078254D82001359182BD0D00E4A2B21FF
:10423000C0E60529AAD0072900D06DE604F0EEFA01
:1042400003F04EFA054E064C30781C4D820013598F
:10425000182BBCD0044A3821ACE6C04648250020C3
:1042600000370020010005002F0D030001000200AF
:10427000F209030004000200440A030007000200E0
:104280000600020008000200090002000A00020005
:1042900002000300050005000C00050003000600F5
:1042A00001000400080004000600040005000400EA
:1042B000040007000B0002000900050007000400CD
:1042C000BFF34F8F034A044BDA60BFF34F8FC046F2
:1042D000FDE7C0460400FA0500ED00E011DF70477D
:1042E00013DF704710B50320024906F087FA00205B
:1042F00010BDC046A016030010B50320024906F009
:104300007DFA002010BDC046D522030010B5032061
:10431000024906F073FA002010BDC0469222030045
:1043200010B50320034906F069FA0122024B002070
:104330001A7010BDB21A03001C25002010B50449E4
:10434000032006F05BFAFE20FFF7CAF8002010BD3C
:1043500083140300F7B503680400002B08D0164946
:104360000A004B72190A9172190C1B0ED172137349
:10437000124E134D37782179BA005359182B19D0A2
:10438000AA20104A01900091012F06D90E49A938A0
:1043900006F0DAFA18232371F7BD2B680B490220C7
:1043A00006F0D2FA33780133DBB2337022799B0006
:1043B0005A51EFE75151EDE75820002048250020E1
:1043C0000037002090100300F2090300440A0300A4
:1043D000F7B503680400002B08D016490A004B7299
:1043E000190A9172190C1B0ED1721373124E134DD0
:1043F00037782179BA005359182B19D0A920104ABF
:1044000001900091012F06D90E49A83806F09CFAB8
:1044100018232371F7BD2B680B49022006F094FA8C
:1044200033780133DBB2337022799B005A51EFE7C6
:104430005151EDE75820002048250020003700208A
:1044400090100300F2090300440A0300F7B5036863
:104450000400002B08D016490A004B72190A917209
:10446000190C1B0ED1721373124E134D377821792C
:10447000BA005359182B19D0A820104A0190009166
:10448000012F06D90E49A73806F05EFA18232371CA
:10449000F7BD2B680B49022006F056FA337801333A
:1044A000DBB2337022799B005A51EFE75151EDE7AF
:1044B00058200020482500200037002090100300DD
:1044C000F2090300440A0300F7B503680400002B57
:1044D00008D016490A004B72190A9172190C1B0E6A
:1044E000D1721373124E134D37782179BA00535994
:1044F000182B19D0AD20104A01900091012F06D938
:104500000E49AC3806F020FA18232371F7BD2B684A
:104510000B49022006F018FA33780133DBB233700E
:1045200022799B005A51EFE75151EDE758200020C6
:10453000482500200037002090100300F2090300F6
:10454000440A0300F7B503680400002B08D016499D
:104550000A004B72190A9172190C1B0ED172137357
:10456000124E134D37782179BA005359182B19D0B0
:10457000AC20104A01900091012F06D90E49AB38AA
:1045800006F0E2F918232371F7BD2B680B490220CE
:1045900006F0DAF933780133DBB2337022799B000D
:1045A0005A51EFE75151EDE75820002048250020EF
:1045B0000037002090100300F2090300440A0300B2
:1045C000F7B503680400002B08D016490A004B72A7
:1045D000190A9172190C1B0ED1721373124E134DDE
:1045E00037782179BA005359182B19D0AB20104ACB
:1045F00001900091012F06D90E49AA3806F0A4F9BE
:1046000018232371F7BD2B680B49022006F09CF993
:1046100033780133DBB2337022799B005A51EFE7D4
:104620005151EDE758200020482500200037002098
:1046300090100300F2090300440A0300F7B50400D8
:104640001D49032006F0DAF81C4E1D4D307882001B
:104650005359062B2CD01B491B4A0191012819D90B
:10466000042101200091194906F06EF9A17A637ABC
:1046700009021943E37A164A1B041943237B1548A0
:104680001B060B4313600C231349137107F076F8D4
:104690000020FEBD042700972B681049022006F079
:1046A00053F933780133DBB233709B005F51DDE7A0
:1046B00004235351DAE7C046D7120300CC2A002066
:1046C000E03A0020D307000090100300F209030035
:1046D0008C2500209C250020CD0C0000440A0300FE
:1046E00010B504000D49032006F088F80120FEF7FC
:1046F000F7FEA17A637A09021943E37A084A1B0498
:104700001943237B07481B060B4313600B23064901
:10471000137107F033F8002010BDC046511203009A
:104720004C2500205C250020CD0C000010B5817ABE
:10473000437A09021943C37A094A1B041943037BCC
:1047400008481B060B4380211360072309021371DD
:1047500007F014F8044A002013680133136010BDF9
:10476000742600207C260020FC3600200D49032002
:1047700010B506F043F80C49032006F03FF806F0A8
:104780006FF90028FBD10123D820084A5B42D36788
:10479000074A4002D367FFF7A3FDFFF79FFDFFF72E
:1047A0008FFDC046EB2503003226030004E100E044
:1047B00008E100E010B50549032006F01FF804F0F9
:1047C00083FA0088FFF748F9002010BD2116030086
:1047D00073B52849032006F011F804F075FA0400B7
:1047E000438802882449032006F04AF86388234A54
:1047F00013802188224A603BFF3B1180302B26D852
:104800002049032005F0FAFF23881F4A9A18712ACD
:104810001DD81E4A12889B1A0A2B18DD1C4903203A
:1048200005F0ECFF1B4806F0F5FF1B4E1B4C3078E3
:1048300082001359182B1AD019491A4A01910128DC
:1048400007D9132101200091174906F07DF80020B7
:1048500076BD1325009523681449022006F074F8EC
:1048600033780133DBB233709B001D51EFE7132324
:104870001351ECE7A01F0300EA1F0300A626002047
:10488000A4260020192003007BFCFFFF1E2500202A
:104890003C2003004C260020482500200037002043
:1048A0007C04000090100300F2090300440A030096
:1048B000F0B5564989B0032005F0A0FF03F034FAA3
:1048C000002405000726524B1B681B88A34246D8CC
:1048D00003F0C6FF04AC022800D07DE02000FFF703
:1048E00011F8FFF757F80122C308DBB2039307233F
:1048F0001500FF2103409D408C460023013DEDB291
:10490000591CC9006646814200DD2E004149CF5C3A
:10491000E15C0133B94331404E424E410399764246
:10492000DBB232409942EBD2002A15D003203A493B
:1049300005F064FF394E3A4C307882001359182B39
:1049400061D03849384A019101284ED9052101200A
:104950000091364905F0F8FF002009B0F0BD6B79F1
:10496000334A9C46330067466343985CD318A97961
:104970005A780902120239430243914229D16A7ED0
:10498000A97E94466746DA7898780902120239437C
:10499000024391421DD119792A7F5B79E87E120288
:1049A0001B0202430B439A4213D1230001203340E0
:1049B000984003001749E208885C03438B541D4A62
:1049C000A30011681C4A0320995022001B4905F0DE
:1049D00031FF0134A4B276E703F042FF012800D191
:1049E0007CE72000FEF7A6FF7BE7052500952368FE
:1049F0001349022005F0A8FF33780133DBB233708E
:104A00009B001D51A8E705231351A5E71E110300C4
:104A10009C2600203827002089110300482500200B
:104A200000370020DE06000090100300F2090300AA
:104A30000C370020FC360020482700205C110300C2
:104A4000440A030010B50549032005F0D7FEFEF720
:104A5000B9FF03F00BFF002010BDC046A1270300E3
:104A6000F0B5002585B03749032005F0C7FE364C68
:104A70003649236803205A8805F0DCFE2368344950
:104A80009A88032005F0D6FE23683249DA8803208D
:104A900005F0D0FE236830491A89032005F0CAFECC
:104AA00023682E499A7A032005F0C4FEFEF778FFAA
:104AB0002A0021682A4E0B8803900293029893B231
:104AC000019383420BD3002D2BD00320254905F001
:104AD00095FEFA20FEF704FD002005B0F0BD072387
:104AE00053439C5DF318A44660465C788F8824028B
:104AF0000443A74212D1DC789878CF88240204437B
:104B0000A7420BD11C795B790F891B0223439F427B
:104B100004D1019B0398984200D001250132D2B202
:104B2000CCE707224B880E4853430431C0180BF0E2
:104B30007BFAFF20FEF7D4FC0B49032005F05EFE54
:104B4000CAE7C0464A2803009C26002086280300A6
:104B5000B0280300DB2803000129030027290300F4
:104B60000C370020592903009229030010B513497E
:104B7000032005F043FEFEF713FF114B8000C058E1
:104B8000FEF764FFFEF70CFF072250430D4BC15C9C
:104B90001B185A78987812020A4300040243D87806
:104BA0005979000610431A7909020A4399790904D0
:104BB0001143FEF75DFF002010BDC046B72903007A
:104BC000482700200C37002010B50A49032005F0C3
:104BD00015FEFEF7EBFE084C206003F041FE20308E
:104BE000C0B2FEF77DFC22680449032005F022FED6
:104BF000002010BDF6290300FC360020352A0300F2
:104C0000F0B5E4499FB0032005F0F8FD02F08AFFFB
:104C10000478012C56D1E049032005F0EFFDE02295
:104C200000219200DD48FEF7F1F80021DC4D0C2256
:104C3000286801800B30FEF7E9F82A681300D07A63
:104C4000127BD97B12020243587B1D7D0004024374
:104C5000987B2D02000610431A7C12020A43597CED
:104C600009040A43997C09061143DA7C15435A7DED
:104C7000120415439A7D12062A43FEF7D9FEC94E47
:104C8000C94D3078820053590E2B3CD0C749C84AD1
:104C90000191012806D90B2101200091C54905F099
:104CA00053FE0CE00B2400942B68C349022005F04E
:104CB0004BFE33780133DBB233709B005C51002034
:104CC0001FB0F0BD022C21D10320BC4905F096FD98
:104CD000B44EB54D3078820053590E2B13D0BF21FE
:104CE000C900B34A01910128D5D80B2700972B683A
:104CF000B149200005F028FE33780133DBB2337070
:104D00009B005F51DBE70B235351D8E7032C15D1F0
:104D1000AB49200005F072FD05F0A2FE0028FBD192
:104D20000123D820A74A5B42D367A74A4002D36732
:104D3000FFF7D6FAFFF7D2FAFFF7C2FA042C00D039
:104D400048E1FEF72DFE0700FEF724FE3A00029030
:104D50009E49032005F06EFD029BFCB207259F4291
:104D600011D3FB20CEE028002B00661C7343604368
:104D70002A000818C9180BF057F9954BB200D25801
:104D8000A400E250F4B2029B8449581E8442EADB3C
:104D9000002365438E4A4B55A4004D19A3506B70F8
:104DA000AB70EB702B716B717D4B80B21B68188000
:104DB000FEF758FE12A8FEF7BDFD129B16A806933B
:104DC000139B0793149B0493159B1093FEF79AFD76
:104DD000169B1AA80A93179B0B93189B0C93199B6D
:104DE0000D93FEF7BFFD1A9B08931B9B09931C9B19
:104DF0000E931D9B0F9301233F2F00D985E01E00CA
:104E0000BE40013EF2179446FF18BB406546069F20
:104E10005C4227400799E3177A08069F1940C807A4
:104E2000374002433800079F11932F404B08390049
:104E300012184B4104990692C9070B43049A079331
:104E4000109B5208DB071A430A9F109B27400B99BF
:104E50005B08029203937A08E3170A9F1940C80778
:104E60003740024338000B9F4B082F40390012187F
:104E70004B410C990A92C9070B430B930C9A0D9B5B
:104E80005208DB071A430D9B04925B080593089BAD
:104E9000119D1C406208089C099B34402000644618
:104EA0001D40E9076B08099D0A432C402100121898
:104EB0004B410E990892C9070B4309930F9B0E9A19
:104EC000DB0754081C430F9B5D08049E059F189642
:104ED00019970B99049A0A98199BFEF7DBFD029E1D
:104EE000039F149615970799029A0698159BFEF74B
:104EF000E3FD1C941D950898099922001D9BFEF75F
:104F0000EDFDFF20FEF7ECFAD9E63F221E003A4005
:104F1000964001329340109C5B42DA171440119284
:104F20000499049A013E19403240E5074808610897
:104F30001400109AF7173A40284315000C9A0019EC
:104F400069411A40944602900391119A0D991140BB
:104F5000624654080C9AC8073240044310000D9A68
:104F60004D083A40110024184D410E9A11991340F2
:104F70000F9A58080E9B1140049405953340CC07B6
:104F800020431C000F9B49083B401D0024184D4145
:104F90009BE7C0464D130300931303000C3700201A
:104FA0009C260020902A0020D43A0020F40500001E
:104FB00090100300F2090300440A0300BE1303002B
:104FC0003226030004E100E008E100E0F0130300F2
:104FD00048270020052C00D071E60320134905F076
:104FE0000DFC0120124E134B3578134CAA0018709B
:104FF0001359182B16D01149114A0191854203D932
:10500000062100910F494AE60625009523680E49BE
:10501000022005F099FC33780133DBB233709B003A
:105020001D514CE60623135149E6C04619140300EE
:1050300048250020A8260020003700205706000041
:1050400090100300F2090300440A030073B53F49BE
:10505000032005F0D3FB02F065FD3D4B3D4E18608B
:1050600030783D4C82001359102B4AD03B493C4AC2
:105070000191012837D9022101200091394905F019
:1050800063FCD4235B0300938022A023B4209B0203
:1050900052028003022103F007FB334E334C307879
:1050A000820013590B2B3DD031492D4A0191012823
:1050B0002AD90021012000912A4905F045FC2D4EF6
:1050C0002D4C3078820013590E2B3CD02B49244AAA
:1050D0000191012829D9002101200091214905F0E1
:1050E00033FC002076BD0225009523682449280062
:1050F00005F02AFC33780133DBB23370AB401D512D
:10510000BFE702231351BCE70025009523681C4923
:10511000022005F019FC33780133DBB233709B00B9
:105120001D51CCE700231351C9E7002500952368E2
:105130001349022005F008FC33780133DBB23370E9
:105140009B001D51CDE700231351CAE7D81103007E
:105150009C26002049290020A43A00207E0500005A
:1051600090100300F20903004D290020BC3A0020F2
:1051700085050000902A0020D43A00208705000011
:10518000440A030070B50B2486B06C4407F086FE19
:10519000200004F07FFF04F0F3FF2378002B03D0FE
:1051A0005349032005F02AFB524A0021524806F0D9
:1051B000CDFA524A0021524806F0C8FA514A00215D
:1051C000514806F0C3FAE022002192004F48FDF753
:1051D0001DFE8022002192004D48FDF717FE80221F
:1051E00000214C48FDF712FE1220FEF74DFC032073
:1051F000FEF786FC192203AB1A8001325A800E3268
:105200009A80A032DA80A53A1A8124325A81039812
:10521000059A0499FEF70CFC3F4E404C3078820012
:105220001359062B3FD03E493E4A019101282CD903
:105230000021012000913C4905F086FB3B4E3C4C8F
:10524000307882001359062B3ED03A49354A0191F5
:1052500001282BD9002101200091334905F074FB6E
:10526000354E364C307882001359182B3DD03449D6
:105270002C4A019101282AD90321012000912A49B1
:1052800005F062FB002006B070BD00250095236884
:105290002C49022005F058FB33780133DBB2337020
:1052A0009B001D51CAE700231351C7E70025009555
:1052B00023682449022005F047FB33780133DBB231
:1052C00033709B001D51CBE700231351C8E7032522
:1052D000009523681B49022005F036FB3378013323
:1052E000DBB233709B001D51CCE703231351C9E798
:1052F000EB2703004D44020084100300D143020059
:1053000080100300554302008C1003000C3700206E
:1053100048270020B8260020582A0020C83A00203C
:105320002C05000090100300F2090300CC2A002095
:10533000E03A00202D05000048250020003700201D
:105340002E050000440A030010B50320034905F0B0
:1053500055FA03F0E1FC002010BDC046FE1A030020
:1053600010B50749032005F049FA03F0D5FC0120E8
:1053700004F010FD002004F069FD002010BDC046BF
:105380002A21030010B504000F49032005F036FA66
:10539000012004F0FFFC012004F058FDA17A637A9B
:1053A00009021943E37A094A1B041943237B08487D
:1053B0001B060B43A02113600E238902137106F014
:1053C000DDF9002010BDC046E9200300442600207E
:1053D0004C26002070B52849032005F00FFA274E0F
:1053E00027493288032005F025FA264D26492A88C8
:1053F000032005F01FFA254C25492288032005F0DB
:1054000019FA03F089FC5E223388FF3293420BD8ED
:105410000320204905F0F2F9022004F0BBFC022031
:1054200004F014FD002070BDC8225200934205D93B
:105430000320194905F0E2F90320EEE72B88174A0B
:10544000934205D80320164905F0D8F90420E4E773
:10545000144A1549934204D822889B1A0A2B05DC6A
:105460001249032005F0CAF90520D6E710490320A8
:1054700005F0C4F9D6E7C046421B0300A62600206B
:10548000861B0300A4260020B31B03001E2500205A
:10549000DF1B03000A1C0300491C030083030000F8
:1054A000871C0300F7030000C51C0300021D030056
:1054B000461D030010B504000F49032005F09EF9B6
:1054C000012004F067FC052004F0C0FCA17A637A97
:1054D00009021943E37A094A1B041943237B08484C
:1054E0001B060B43A02113600E238902137106F0E3
:1054F00045F9002010BDC046A82003003C2600202E
:105500004C26002073B54249032005F077F903F0DB
:10551000DBFB0500438802883E49032005F0B0F913
:105520002A883D4B3D4E1A806B883D4C1A009B3AB1
:10553000FF3A202A13D83B49032005F05FF92B8856
:10554000394A9A18C92A2AD80320384905F056F949
:1055500030788200A358182B51D1132313E0CC22AA
:105560005200934211D80320314905F047F9052034
:1055700004F010FC002004F069FC31788A00A35884
:10558000182B21D11423A35029E0BC22FF329342CF
:10559000F3D90320274905F031F90620E8E7264A28
:1055A000934205D80320254905F028F90720DFE7B5
:1055B000234A9342E1D92349032005F01FF9012032
:1055C00004F0E8FB0220D6E71F48204A0190012999
:1055D00007D91421009101201D4905F0B5F90020DB
:1055E00076BD1425009523681A49022005F0ACF910
:1055F00033780133DBB233709B00E550EFE7164997
:10560000124A0191012801D91321E3E71325E9E7A3
:10561000461E0300EA1F03001E2500204825002027
:105620000037002019200300DFFCFFFF3C200300AF
:10563000901E0300D81E03001F0300001F1F03005D
:10564000EB030000601F03004504000090100300FE
:10565000F2090300440A03004704000073B52C4913
:10566000032005F0CBF82B4806F0D4F82A49032094
:1056700005F0C4F8042004F08DFB002004F0E6FBE4
:10568000264E274C307882001359042B2BD0254905
:10569000254A0191012818D901202449009005F0DC
:1056A00053F9234E234C307882001359182B2BD0FA
:1056B00021491D4A0191012818D916210120009184
:1056C0001A4905F041F9002076BD012500952368AF
:1056D0001A49022005F038F933785B19DBB23370D0
:1056E0009B001D51DDE701231351DAE716250095D4
:1056F00023681249022005F027F933780133DBB221
:1057000033709B001D51DEE716231351DBE7C046C3
:10571000532603004C2600209C2603004A29002023
:10572000B03A00200D04000090100300F2090300BD
:1057300048250020003700200E040000440A030022
:1057400073B52749032005F059F8FF2003F08EF8C0
:10575000244B254E1D78254C002D19D003202449BB
:1057600005F04CF830788200A358182B0DD0214951
:10577000214A01910F250F21012821D900910120F3
:105780001E4905F0E1F8002076BD0F23A350FAE78B
:105790001B49032005F032F8022004F0FBFA280030
:1057A00004F054FB30788200A358182B15D0E9215F
:1057B0008900114A0191012801D91621DEE7162539
:1057C000009523680F49022005F0BEF833780133B5
:1057D000DBB233709B00E550D5E71623D6E7C04611
:1057E0003B2503001C250020482500200037002011
:1057F0007F2503009F03000090100300F2090300BF
:10580000AE250300440A0300F7B54949060003200A
:1058100004F0F4FF474C042322004749032005F01D
:10582000D1F86278237812021A43A378434D1B04FF
:105830001A43E378424C1B061343424A934251D128
:105840004149032004F0DAFFB17A737A090219435F
:10585000F37A3E4A1B041943337B3D481B060B4336
:10586000F02113600E23C902137105F087FF394F31
:10587000394E387882009359042B2DD03749384A55
:105880000191012819D9002101200091354905F025
:105890005BF828788200A358182B20D0F9218900C2
:1058A00001912F4A10211026012832D900910120A0
:1058B0002C4905F049F80020FEBD00230093336811
:1058C0002949022005F040F800223B780133DBB281
:1058D0003B709B009A51DCE700239351D9E71023DA
:1058E000A350E8E72149032004F088FF032004F0D7
:1058F00051FA002004F0AAFA28788200A358182B45
:1059000014D01B49164A0191012801D91621CDE76F
:105910001626009623681449022005F015F82B7806
:105920000133DBB22B709B00E650C4E71623D7E7A8
:105930000B240300302500205224030048250020BA
:10594000003700200013AABB5F2403003426002088
:105950004C2600204A290020B03A0020E303000032
:1059600090100300F2090300440A0300832403009B
:10597000E903000073B53249032004F03FFF3149C9
:10598000032004F03BFF012004F004FAFA211E205A
:10599000890004F005FA04F0F3FB2B4803F03EFF06
:1059A0008020C00103F040FFA020400203F042FF2E
:1059B000264E274C307882001359062B2CD02549CF
:1059C000254A0191012819D900210120009123497C
:1059D00004F0BAFF224E234C3078820013590B2B6F
:1059E0002BD021491C4A0191012818D900210120FE
:1059F00000911A4904F0A8FF002076BD002500950B
:105A000023681A49022004F09FFF33780133DBB288
:105A100033709B001D51DDE700231351DAE70025A9
:105A2000009523681149022004F08EFF337801337A
:105A3000DBB233709B001D51DEE700231351DBE71F
:105A4000372703007F27030033130000CC2A0020F0
:105A5000E03A00207B03000090100300F2090300ED
:105A60004D290020BC3A00207E030000440A0300B8
:105A7000F7B526490400032004F0C0FE24490320A2
:105A800004F0BCFE072004F085F90220012104F097
:105A900087F9204E204D307882005359042B32D0A4
:105AA0001E491F4A019101281FD9002101200091A0
:105AB0001C4904F049FF1C4A00211C4805F046FE21
:105AC000A17A637A09021943E37A194A1B0419433C
:105AD000237B18481B060B43802113600E234902C9
:105AE000137105F04BFE0020FEBD002700972B68C8
:105AF0001149022004F028FF33780133DBB2337000
:105B00009B005F51D7E700235351D4E7D62603000B
:105B100015270300582B0020EC3A00205F030000FB
:105B200090100300F2090300C9440200881003002A
:105B30002C2600204C260020440A030073B51C4983
:105B4000032004F05BFE1B4C1B4BE022236005236B
:105B500092001A490320A360A28004F06BFE20008B
:105B600003F092FC164E174C3078820013590E2B1E
:105B70001AD01549154A0191012807D9072101209A
:105B80000091134904F0E0FE002076BD0725009542
:105B900023681049022004F0D7FE33780133DBB2CA
:105BA00033709B001D51EFE707231351ECE7C0460C
:105BB0006C150300242500200C370020AE150300CF
:105BC000902A0020D43A00203C08000090100300E6
:105BD000F2090300440A030070B5294986B0032086
:105BE00004F00CFE5A235B22264C52422370E370D1
:105BF000254B62701B68A2701B88244D23711B0A01
:105C0000637180235B42A3718333E37102A82C602C
:105C1000FDF76EFE20000C2202A908300AF004FAFB
:105C20001B482B680360002383601433838003F0D8
:105C30002BFC184E184C3078820013590E2B1BD0B9
:105C40001649174A0191012808D90721012000911E
:105C5000144904F079FE002006B070BD07250095B8
:105C600023681149022004F06FFE33780133DBB260
:105C700033709B001D51EEE707231351EBE7C0463D
:105C8000C3140300302500209C260020A0260020FD
:105C900024250020902A0020D43A00202E0800005D
:105CA00090100300F2090300440A030073B50320B7
:105CB000134904F0A3FD134E134C3078820013599E
:105CC000102B1AD01149124A0191012807D902213B
:105CD000012000910F4904F037FE002076BD022517
:105CE000009523680C49280004F02EFE3378013318
:105CF000DBB23370AB401D51EFE702231351ECE7E9
:105D00001312030049290020A43A0020C105000015
:105D100090100300F2090300440A030073B5194907
:105D2000032004F06BFD1848184B036000238360C8
:105D30001433838003F0A8FB154E164C3078820094
:105D400013590E2B1AD01449144A0191012807D96E
:105D5000032101200091124904F0F6FD002076BDD8
:105D60000325009523680F49022004F0EDFD3378E8
:105D70000133DBB233709B001D51EFE70323135156
:105D8000ECE7C046461403002425002030250020FF
:105D9000902A0020D43A00209705000090100300BC
:105DA000F2090300440A030073B50320134904F009
:105DB00025FD134E134C307882001359182B1AD03E
:105DC0001149124A0191012807D9022101200091AD
:105DD0000F4904F0B9FD002076BD02250095236827
:105DE0000C49280004F0B0FD33780133DBB2337086
:105DF000AB401D51EFE702231351ECE79012030073
:105E00004825002000370020040500009010030002
:105E1000F2090300440A030073B51B49032004F090
:105E2000EDFC1A49032004F0E9FC1948194B036002
:105E3000002383600433838003F026FB164E174C47
:105E40003078820013590E2B1AD01549154A01914A
:105E5000012807D9032101200091134904F074FDA2
:105E6000002076BD0325009523681049022004F028
:105E70006BFD33780133DBB233709B001D51EFE7CC
:105E800003231351ECE7C046C02403000825030098
:105E90002425002030250020902A0020D43A00201C
:105EA000CE03000090100300F2090300440A03002F
:105EB00073B51B49032004F0A1FC1A49032004F028
:105EC0009DFC1948194B03600023836004338380D1
:105ED00003F0DAFA164E174C3078820013590E2B65
:105EE0001AD01549154A0191012807D90721012027
:105EF0000091134904F028FD002076BD0725009588
:105F000023681049022004F01FFD33780133DBB20F
:105F100033709B001D51EFE707231351ECE7C04698
:105F200092230300DA2303002425002054200020BC
:105F3000902A0020D43A0020C103000090100300F2
:105F4000F2090300440A030073B51749032004F063
:105F500055FC0320154904F051FC154E154C3078C2
:105F6000820013590E2B1BD0ED218900124A01919A
:105F7000012807D90B2101200091104904F0E4FC0D
:105F8000002076BD0B25009523680D49022004F002
:105F9000DBFC33780133DBB233709B001D51EFE73C
:105FA0000B231351ECE7C0461A23030061230300BF
:105FB000902A0020D43A002090100300F209030038
:105FC000440A030073B50320144904F017FC144E6F
:105FD000144C3078820013590E2B1BD0EB21890012
:105FE000114A0191012807D90021012000910F4990
:105FF00004F0AAFC002076BD0025009523680C491A
:10600000022004F0A1FC33780133DBB233709B0033
:106010001D51EFE700231351ECE7C046681A030057
:10602000902A0020D43A002090100300F2090300C7
:10603000440A030073B5234A136801331360022B2B
:1060400024DD214E214C307882001359182B1AD0B0
:106050001F49204A0191012807D90D2101200091F3
:106060001D4904F071FC002076BD0D2500952368C4
:106070001A49022004F068FC33780133DBB2337034
:106080009B001D51EFE70D231351ECE7A223A02243
:10609000DB00D205D3581B06E5D4817A437A090286
:1060A0001943C37A0E4A1B041943037B0D481B0690
:1060B0000B438021136001230902137105F05EFB7D
:1060C000D1E7C046B4260020482500200037002034
:1060D0004903000090100300F2090300440A030082
:1060E000842500209C25002010B50B49032004F0D6
:1060F00085FB04F0B5FC0028FBD10123D820074A1A
:106100005B42D367064A4002D367FEF7E9F8FEF721
:10611000E5F8FEF7D5F8C0463226030004E100E0BA
:1061200008E100E010B5174CA0222368D205013326
:106130002360A223DB00D3581B061DD4817A437A47
:1061400009021943C37A104A1B041943037B0F4801
:106150001B060B4313600C230D49137105F00EFB56
:1061600023681D2B0CDD01220A4B1A700A4B1B7889
:10617000002B05D0FFF7B8FF0023064A23601370F9
:10618000002010BDB0260020942500209C25002072
:10619000CD0C0000212500202025002010B5174C33
:1061A000A0222368D20501332360A223DB00D35849
:1061B0005B061DD4817A437A09021943C37A104AD7
:1061C0001B041943037B0F481B060B4313600B236F
:1061D0000D49137105F0D2FA23681D2B0CDD012245
:1061E0000A4B1A700A4B1B78002B05D0FFF77CFF77
:1061F0000023064A23601370002010BDAC26002047
:10620000542500205C250020CD0C00002025002016
:106210002125002073B51F49032004F0EFFA02F096
:106220001FFB1D490200032004F004FB02F018FBD1
:106230002030C0B2FDF754F902F012FB011E03D169
:1062400080221648FCF7E2FD154E164C307882008D
:106250001359182B1AD01449144A0191012807D94F
:10626000062101200091124904F06EFB002076BD4A
:106270000625009523680F49022004F065FB33785A
:106280000133DBB233709B001D51EFE7062313513E
:10629000ECE7C046AE100300EF100300B826002064
:1062A0004825002000370020BF07000090100300A1
:1062B000F2090300440A030073B52149032004F0E6
:1062C0009DFA02F001FD0400438802881D49032065
:1062D00004F0D6FA63881C4A138021881B4A9B3B32
:1062E000FF3B1180202B18D81949032004F086FAAF
:1062F000184805F08FFA184E184C30788200135960
:10630000182B1AD01649174A0191012807D91321D1
:1063100001200091144904F017FB002076BD1325DD
:10632000009523681149022004F00EFB33780133F5
:10633000DBB233709B001D51EFE713231351ECE7E1
:106340005E200300EA1F0300A6260020A4260020EA
:10635000192003004C26002048250020003700208B
:10636000C704000090100300F2090300440A030070
:1063700073B53D49032004F041FA01F0D5FC040057
:106380008279437912021A433849032004F052FA01
:10639000A27E637E12021A433549032004F04AFAB2
:1063A000227FE37E12021A433249032004F042FAAC
:1063B000A37E627E1B021343227FE17E12020A4308
:1063C0001B049B182C4A93422AD12C49032004F029
:1063D00015FA2B4805F01EFA2A4E2B4C3078820015
:1063E0001359042B2CD08021C900284A019101287F
:1063F00018D901202649009004F0A6FA254E264C13
:10640000307882001359182B2BD024491F4A019150
:10641000012818D91221012000911D4904F094FA95
:10642000002076BD0125009523681D49022004F057
:106430008BFA33785B19DBB233709B001D51DDE7BB
:1064400001231351DAE7122500952368144902202D
:1064500004F07AFA33780133DBB233709B001D51BC
:10646000DEE712231351DBE7AE210300F621030020
:1064700020220300452203000013AABB6A22030066
:106480004C2600204A290020B03A0020901003003A
:10649000F209030048250020003700200104000015
:1064A000440A030073B54849032004F0A7F9474B99
:1064B000474D59781A78090211439A782B601204D3
:1064C0001143DA7812060A4342498A425ED1E02239
:1064D000DC799979240292000C43944256D15A797E
:1064E000197912020A4303203B4904F0A3F92A68F0
:1064F000537911791B020B43384909680B80507995
:10650000137900021843FDF7ADFA2B685A7A187A0E
:1065100012020243987A197B00040243D87A5D7C08
:10652000000610435A7B2D0212020A43997B09048C
:106530000A43D97B090611431A7C15439A7C12043D
:106540001543DA7C12062A43FDF772FA2448254BDC
:10655000848003600523836002F096FF224E234C63
:106560003078820013590E2B0DD02149214A019118
:1065700003250321012818D9009101201E4904F0A8
:10658000E3F9002076BD03231351FAE71B4E1C4CA0
:10659000307882001359182B14D01A49154A0191EA
:1065A000012801D90421E7E704250095236816494D
:1065B000022004F0C9F933780133DBB233709B0059
:1065C0001D51DEE70423DFE7FE1403003025002021
:1065D000A02600205AA5A55A3F1503009C2600209E
:1065E000242500200C370020902A0020D43A0020D7
:1065F000A905000090100300F209030048250020BF
:1066000000370020AB050000440A030073B51D49A4
:10661000032004F0F3F81C49032004F0EFF81520E0
:1066200002F024F9F0238022A0209B0300931202A1
:10663000164B8002012102F037F8154E154C3078C8
:1066400082001359062B19D01349144A01910128CD
:1066500006D901201249009004F076F9002076BD99
:106660000125009523680F49022004F06DF9337865
:106670005B19DBB233709B001D51EFE7012313510F
:10668000ECE7C046F9190300401A0300CD8C000066
:10669000CC2A0020E03A00208D0300009010030077
:1066A000F2090300440A030010B51949032004F05D
:1066B000A5F8184C18492288032004F0BBF8174BA2
:1066C00017491A88032004F0B5F8164B16491A88A2
:1066D000032004F0AFF802F01FFBCC2322885B00FC
:1066E0009A420BD81149032004F088F8072003F0E0
:1066F00051FB022003F0AAFB002010BD0C4903202F
:1067000004F07CF8012003F045FB0420F2E7C046CA
:10671000711D0300A6260020861B0300A42600206E
:10672000B31B03001E250020DF1B0300B51D030063
:10673000FE1D030073B51649032004F05FF88020A6
:10674000000202F0E3FA134E134C30788200135922
:10675000062B1AD01149124A0191012807D90021AC
:10676000012000910F4904F0EFF8002076BD0025CC
:10677000009523680C49022004F0E6F833780133D1
:10678000DBB233709B001D51EFE700231351ECE7A0
:106790006B210300582A0020C83A0020160400008C
:1067A00090100300F2090300440A030070B50025AD
:1067B0001B4B1C49040003201D6004F01FF81A49FC
:1067C000032004F01BF803F051FC03F083FCFDF7F9
:1067D0006FFA164A2900164804F0B8FF154A290036
:1067E000154804F0B3FFA223A022DB00D205D35842
:1067F0001B0612D4A17A637A09021943E37A0F4A7D
:106800001B041943237B0E481B060B438021136096
:1068100001230902137104F0B1FF002070BDC046CE
:10682000FC3600203009030005280300C1450200A2
:1068300078100300454502007C1003007C250020F1
:106840009C250020F0B58BB008920122099314AB6F
:106850001F880791FB08DBB20293072311003B401E
:1068600099400B00013BDBB2039300231D001C0089
:1068700006AE0690019604922821FF2006AA52181F
:106880000199D25CC95C84469143159AD1545A1C33
:10689000D200BA4201DD039A94466246114014D0F8
:1068A00008208446DA00D2B29444604602AEF07307
:1068B000F07B84460498014202D014000135EDB209
:1068C0000132D2B249086245F4D10133029ADBB2F7
:1068D0009A42D1D20020854202D024026519A8B282
:1068E0000BB0F0BDF0B585B00292039307220EAB5A
:1068F0001C8801232240934000220191013BE108C2
:106900000090C9B2DBB20AAEFF27551CE800BC46B6
:10691000A04200DD9C466F46B05CBA5C824310002A
:106920006246104004D1EAB29142EDD205B0F0BD0A
:106930000120FBE7F0B587B00492032205930CAB6E
:106940001C88012700239446E408114D029003910E
:10695000E4B2DE00F6B2A34217D8002002AAD25C4D
:106960000192019932180141D2B2394004D0A95C98
:106970000131C9B2022906D80130A9540828F0D142
:106980000133DBB2E5E76146F6E707B0F0BDC0468C
:10699000B8260020F0B50023072501268B4200D33E
:1069A000F0BD074AD25C022A07D91A0034002A40F7
:1069B0009440DF08C25DA243C2550133DBB2EDE76C
:1069C000B8260020F0B587B005930CAB1D88039165
:1069D000ED08EBB200930023049219001A00029014
:1069E0000098DE00F6B2834213D8002402A8C05CEF
:1069F00001900198012520413719FFB2284202D0A9
:106A00003A004919C9B20134082CF2D10133DBB282
:106A1000E6E70020814202D01202511888B207B086
:106A2000F0BD0000F0B5B049A3B0032003F0E6FECE
:106A3000AE4804F0EFFEAE4EAE4C307882001359F3
:106A4000042B00D1C9E0AC49AC4A0191012800D81F
:106A5000B5E00120AA49009003F076FF01F000FFA5
:106A600006AD022800D0BBE00AA8FCF74BFF0024CB
:106A700012AE300016AFFCF745FF3800A65DFCF7FC
:106A8000A7FFE35D33402B550134102CF0D1FCF708
:106A900081FF06000EAC102200212000FCF7B6F9A1
:106AA000984F10223900684604350594049609F081
:106AB000BBFA0ECD0698FFF7C5FE1022390005007F
:106AC0006846049609F0B0FA0A980B990C9A0D9B47
:106AD000FFF708FF002800D09BE001F0C1FE011E77
:106AE00000D0BDE080228848FCF790F9ECB260420B
:106AF0006041C0B200F05CFF002C46D08349032007
:106B000003F07CFE119B0E980F99109AFCF7C4FEBF
:106B1000FCF752FFC30738D57D49012C00D0B3E004
:106B200007232D0AADB25D437A4B5D19AA79092A74
:106B300000D9A8E00C267849032003F07BFEAB794E
:106B4000764C7343185902F069FEAB797343E3182E
:106B5000586802F069FEAB795E43A419A06802F0A0
:106B600069FE6F4E6F4C307882001359062B00D1AE
:106B7000A6E0E621C900614A0191012800D891E010
:106B800001205F49009003F0DFFE5E4800F0BEFF89
:106B9000654E664C307882001359102B00D1A0E06E
:106BA0006349564A0191012800D88CE00C2101204C
:106BB0000091534903F0C8FE002023B0F0BD012529
:106BC000009523685B49022003F0BEFE33785B1911
:106BD000DBB233709B001D5140E7012313513DE7A9
:106BE00001F03EFE012800D13EE70AA8FCF7A2FE14
:106BF00000241AAE30001EAFFCF79CFE3800A65DE4
:106C0000FCF7FEFEE35D33402B550134102CF0D130
:106C10003DE7494B494F18788200D3590B2B1CD0C4
:106C20004749364A0191012806D9082101200091DF
:106C3000334903F089FE50E7082300933B683D4940
:106C4000022003F081FE3C4B3B4A1B780133DBB250
:106C5000137008229B00DA513FE70823D3513CE729
:106C600000966168A268E3680E98FFF763FE200053
:106C70003100FFF78FFE043400960E980ECCFFF71C
:106C8000A1FE050032E72F49032003F0B7FD802065
:106C9000000202F0C3FD8020400202F0C5FDC020CA
:106CA00080025CE70125009523682249022003F059
:106CB0004BFE33785B19DBB233709B001D5164E7E8
:106CC0000123135161E70C2500952368194902201F
:106CD00003F03AFE33780133DBB233709B001D5171
:106CE0006AE70C23135167E7191803000C260020EC
:106CF0004A290020B03A0020E90600009010030065
:106D0000F209030038270020B82600205E1803008F
:106D1000AC1803000C3700200D190300642A03008F
:106D2000CC2A0020E03A002049290020A43A002083
:106D300037070000440A03004D290020BC3A002018
:106D400003070000451903001FB501F089FD022863
:106D500046D16846FCF7D6FD6B4600201B7883427F
:106D60003CD16B465B78834238D16B469B7883423B
:106D700034D16B46DB78834230D16B461B7983423A
:106D80002CD16B465B79834228D16B469B79834239
:106D900024D16B46DB79834220D16B461B7A834238
:106DA0001CD16B465B7A834218D16B469B7A834237
:106DB00014D16B46DB7A834210D16B461B7B834236
:106DC0000CD16B465B7B834208D16B469B7B834235
:106DD00004D16B46D87B43425841C0B205B000BDD8
:106DE00001F03EFD0128B4D06846FCF7A3FDB3E7EF
:106DF000F0B5724989B00500032003F0FFFCFFF7EE
:106E0000A3FF041E00D19DE003206D4903F0F6FCB2
:106E10006C4E6D4C307882001359182B00D18EE0E7
:106E20006A496B4A0191012806D9052100916949F7
:106E3000012003F089FD0CE00527009723686649CF
:106E4000022003F081FD33780133DBB233709B0005
:106E50001F5105AC2000FCF74BFD63896788E6886D
:106E6000039301F0FDFC012800D08EE0002F00D03C
:106E700085E03C27192400F0A1FD584B1A78002A20
:106E800003D000223C270F241A70554804F0C2FC9E
:106E9000544804F0BFFCAA7A6B7A12021A43EB7AC8
:106EA000514E1B041A432B7B1B06134333600523EF
:106EB0003371FA239B005C43E217630CD10319433F
:106EC000FA23E003FA2200245B00C018614192001B
:106ED000002307F06DFF32000100414804F04EFC32
:106EE000AA7A6B7A12021A43EB7A404C1B041A43BB
:106EF0002B7B1B061343236006232371FA239B007D
:106F00007B43DD175A0CE9031143FA22D80300230F
:106F1000520080185941FA220023920007F048FFDE
:106F2000220001002F4804F029FC00231900304AF8
:106F300099540133102BFBD1002009B0F0BD05237B
:106F4000135186E72B4F2C4E387882009359042B2F
:106F500013D0E921C9001E4A01910094012800D9EB
:106F600065E733681C49022003F0EEFC3B780133EF
:106F7000DBB23B709B009C516BE7945169E71F4962
:106F8000032003F03BFC248875E701F069FC02282C
:106F90000AD1039B002B00D16BE71949013003F0A4
:106FA0002DFC2489039F66E7002E00D161E7154977
:106FB000032003F023FC3700A4885CE7E2160300FB
:106FC000291703004825002000370020460700004D
:106FD00090100300F2090300440A0300A8260020D1
:106FE0000C260020D425002004260020CC250020DB
:106FF000382700204A290020B03A002068170300F3
:10700000A0170300E1170300F0B55C4989B0040044
:10701000032003F0F3FBFFF797FE051E00D16DE0A0
:107020005749032003F0EAFB564805AD04F0F2FB94
:10703000554804F0EFFB2800FCF75AFC6B896F8879
:10704000EE88039301F00CFC012800D07CE0002FB7
:1070500000D073E03C271923A17A627A0902114318
:10706000E27AFA2512041143227B484E12060A43A3
:1070700032600522AD006B433271DA17D1035A0C2E
:107080001143FA22D8030023520080185941FA22F2
:107090000023920007F08CFE32000100394804F012
:1070A0006DFBA27A637A12021A43E37A384E1B040C
:1070B0001A43237B7D431B06134333600623EA17E1
:1070C0003371D1036B0C1943FA230024FA225B00BD
:1070D000E803C01861419200002307F069FE320006
:1070E0000100294804F04AFB00231900294A995459
:1070F0000133102BFBD1002009B0F0BD264F274EE5
:10710000387882009359042B16D02549254A0191DD
:107110000095012804D92449012003F015FC83E7D8
:1071200033682249022003F00FFC3B780133DBB2C5
:107130003B709B009D5177E7955175E71C490320F3
:1071400003F05CFB2B8887E701F08AFB02280AD159
:10715000039B002B00D17DE71649013003F04EFB65
:107160002B89039F78E7002E00D173E71249032093
:1071700003F044FB3700AB886EE7C046A919030053
:10718000291703000C260020D4250020FC25002010
:10719000C4250020382700204A290020B03A0020CA
:1071A0007E06000090100300F2090300440A030069
:1071B00068170300A0170300E1170300F0B5724938
:1071C00089B00400032003F019FBFFF7BDFD051E85
:1071D00000D18BE06D49032003F010FB05AD2800C2
:1071E000FCF786FB6B896F88EE88039301F038FB10
:1071F000012800D0A0E0002F00D097E03C27192301
:10720000A17A627A09021143E27AFA251204114343
:10721000227B5F4E12060A4332600522AD006B43AB
:107220003271DA17D1035A0C1143FA22D803002322
:10723000520080185941FA220023920007F0B8FD4D
:1072400032000100534804F099FAA27A637A1202DC
:107250001A43E37A504E1B041A43237B7D431B06DB
:10726000134333600623EA173371D1036B0CFA2200
:10727000194300235200E80380185941FA220023E1
:10728000920007F095FD32000100444804F076FAC0
:10729000A17A637A09021943E37A414A1B0419432C
:1072A000237B40481B060B43802113600723090200
:1072B000137104F063FA00231C003B4A9C54013311
:1072C000102BFBD1394E3A4D307882005359102B98
:1072D00057D03849384A01910094012845D9374997
:1072E000012003F031FB002009B0F0BD344F354ED2
:1072F000387882009359042B16D033492E4A0191D5
:107300000095012804D92D49012003F01DFB65E7F4
:1073100033682E49022003F017FB3B780133DBB2C0
:107320003B709B009D5159E7955157E72849032031
:1073300003F064FA2B8863E701F092FA02280AD17D
:10734000039B002B00D159E72249013003F056FA84
:107350002B89039F54E7002E00D14FE71E490320DD
:1073600003F04CFA3700AB884AE72B681749022034
:1073700003F0EAFA33780133DBB233709B005C51DF
:10738000B1E75451AFE7C0461613030029170300B5
:10739000F42500200C260020BC250020D425002048
:1073A0006C2600207C260020382700204929002058
:1073B000A43A00207505000090100300F2090300B4
:1073C0004A290020B03A002039050000440A030091
:1073D00068170300A0170300E1170300F0B5494F39
:1073E00087B03900032003F009FA4749032003F06E
:1073F00005FA3900032003F001FAFCF7D3FB4349F7
:107400000200032003F016FA96224149520003209D
:1074100003F010FADC223F499200032003F00AFA3D
:10742000A0223D49032003F005FA3C4B03AD1B6845
:107430003B491A88032003F0FDF92800FCF758FAAD
:10744000EB886C8800936B890193002C56D02E88B2
:1074500032003449032003F0EDF9220032490320C1
:1074600003F0E8F9019B002B01D01C002E893200AB
:107470002E49032003F0DEF922002D49032003F0FA
:10748000D9F9009B002B01D01C00AE88320029499D
:10749000032003F0CFF922002749032003F0CAF9A3
:1074A00005222649032003F0C5F9052224490320BB
:1074B00003F0C0F9234A2449032003F0BBF9234A0F
:1074C0002349032003F0B6F9F82222499200032051
:1074D00003F0B0F9204A2149032003F0ABF9204A18
:1074E0002049032003F0A6F93900032003F086F9B0
:1074F0003900032003F082F907B0F0BD3C241926BF
:10750000A6E7C046DC2A0300242B03006D2B0300F2
:10751000892B0300C52B0300FA2B03009C260020B7
:107520002D2C03004C2C0300792C0300A82C030005
:10753000DE2C0300162D0300432D0300722D0300E3
:10754000B82D0300C9260000002E0300BAE8000091
:10755000302E03005B2E0300C1070000892E0300BC
:1075600045170000B42E030010B50320034903F0B3
:1075700045F9FFF733FF002010BDC0466116030038
:1075800010B50320034903F039F9FFF727FF002066
:1075900010BDC046DF150300F0B54B4C010AA170C9
:1075A000010CA279E170010E2171617912020A4386
:1075B000E17985B009040A43217A030009061143E1
:1075C000424A25788A1803920A0060700398904214
:1075D00007D100953E4A3F49022003F07FF901257B
:1075E0005FE05078561A8446674690780002384328
:1075F000D7783F040743107900063843834246D1C9
:107600001078A84241D18020A17A627A0902114300
:10761000E27A400212041143227B12060A43190047
:10762000FCF76AFCA279637912021A43E3791B041E
:107630001A43237A1B0613439B199A795D79120228
:107640002A43DD792D042A431D7A2D06154320D1C6
:10765000A278637812021A43E3781F491B041A4385
:10766000237903201B061343194A03F009F9A27971
:10767000637912021A43E3791B041A43237A1B0627
:1076800013439B195B7A23700BE01628BBD00A3298
:107690009CE72000A847051E06D01049012003F0F2
:1076A000ADF8280005B0F0BDA279637912021A4343
:1076B000E3791B041A43237A1B0613439B195B7A55
:1076C000162BE0D1EDE7C046582000208A020000CA
:1076D0004F0D0300A80D03005E0D03008F0D030086
:1076E000044A13005072020A9A72020C000EDA72F7
:1076F0001873704758200020074B08491A78002358
:1077000098004058182805D10133DBB29A42F7D2CD
:10771000002070470120FCE74825002000370020AA
:1077200010B50320024903F069F8002010BDC046DF
:107730005A30030010B50320024903F05FF800201F
:1077400010BDC0469C30030010B50320024903F071
:1077500055F8002010BDC046F331030010B50320DA
:10776000024903F04BF8002010BDC046C02F0300B3
:1077700010B50320024903F041F8002010BDC046B7
:10778000F82F030010B50320024903F037F800205A
:1077900010BDC046972F030010B50849032003F021
:1077A0002DF80749074B0A004B72190A9172190C00
:1077B0001B0E0020D172137310BDC0466E2F030044
:1077C000652000208C3A002010B50B49032003F0FF
:1077D00015F80A4A0A48937A517A1B020B43D17A68
:1077E000043009040B43117B07220906194308F0F2
:1077F0001BFC002010BDC04668310300652000203E
:107800008C3A002010B50A49032002F0F7FF09491D
:1078100000208A7A4B7A12021A43CB7A1B041A434D
:107820000B7B1B0613431A88034B5A8010BDC046BE
:1078300096310300652000208C3A002010B50A49DB
:10784000032002F0DBFF094900208A7A4B7A1202FA
:107850001A43CB7A1B041A430B7B1B0613431A886B
:10786000034B1A8010BDC046243003006520002061
:107870008C3A002010B50320034902F0BFFF02F04C
:10788000BFFB002010BDC046D830030073B51C49B3
:10789000032002F0B3FFFCF7C9F9FCF795F9FCF7F8
:1078A00085F902F0B6FB02F0BDFB0320154902F09A
:1078B000A5FF02F0B6FB144E144C30788200135929
:1078C000102B19D0D021124A0191012806D901208C
:1078D0001049009003F038F8002076BD012500958E
:1078E00023680D49022003F02FF833785B19DBB2CF
:1078F00033709B001D51EFE701231351ECE7C046A5
:107900000B3103003731030049290020A43A00203D
:1079100053310300F2090300440A030030B5214942
:1079200085B0032002F06AFF1F4D1022AB7A6C7AFB
:107930001B022343EC7A6846240423432C7B240651
:107940001C43210008F070FB2B78042B1BD1E47B37
:107950007B331C4000F084FF022817D180231C4396
:107960006B46DC73039B00980199029AFBF78CFD30
:107970000E4B1B78002B06D100F072FF02280AD1B3
:107980000420FBF7ADFD002005B030BD00F068FF1E
:107990000128E5D1E2E700F063FF0128F0D00320E1
:1079A000EFE7C046C73103006520002048290020CA
:1079B000014B18707047C04648290020014B1878C9
:1079C0007047C04648290020F0B54B4C010AA17011
:1079D000010CA279E170010E2171617912020A4352
:1079E000E179030009040A43217A85B009061143AD
:1079F0000F000A008C372578607003970398904237
:107A000007D100953D4A3E49022002F067FF01255B
:107A10005FE05078561A84466746907800023843F3
:107A2000D7783F040743107900063843834246D194
:107A30001078A84241D18020A17A627A09021143CC
:107A4000E27A800212041143227B12060A431900D3
:107A5000FCF752FAA279637912021A43E3791B0404
:107A60001A43237A1B0613439B199A795D791202F4
:107A70002A43DD792D042A431D7A2D06154320D192
:107A8000A278637812021A43E3781E491B041A4352
:107A9000237903201B061343184A02F0F1FEA27952
:107AA000637912021A43E3791B041A43237A1B06F3
:107AB00013439B195B7A23700BE00728BBD00A3273
:107AC0009CE72000A847051E06D00F49012002F0C0
:107AD00095FE280005B0F0BDA279637912021A4321
:107AE000E3791B041A43237A1B0613439B195B7A21
:107AF000072BE0D1EDE7C04665200020DB2E030018
:107B0000A80D03005E0D03008F0D0300044A13004F
:107B10005072020A9A72020C000EDA7218737047E1
:107B200065200020054A937A507A1B020343D07ADD
:107B300000040343107B00061843704765200020B3
:107B4000074B08491A78002398004058102805D19F
:107B50000133DBB29A42F7D2002070470120FCE7E4
:107B600049290020A43A002010B50320024902F060
:107B700045FE002010BDC0465A32030010B505492D
:107B8000032002F03BFE0320034902F037FE0020F1
:107B900010BDC046123303005433030010B5032058
:107BA000034902F02BFE02F029FB002010BDC04665
:107BB000D432030010B50320034902F01FFE02F087
:107BC0000DFB002010BDC04695320300F0B54B4CB4
:107BD000010AA170010CA279E170010E2171617995
:107BE00012020A43E179030009040A43217A85B0AD
:107BF000090611430F000A002837257860700397A3
:107C00000398904207D100953D4A3E49022002F078
:107C100065FE01255FE05078561A844667469078E5
:107C200000023843D7783F040743107900063843F1
:107C3000834246D11078A84241D1C020A17A627A0D
:107C400009021143E27A800212041143227B1206D8
:107C50000A431900FCF750F9A279637912021A431A
:107C6000E3791B041A43237A1B0613439B199A7961
:107C70005D7912022A43DD792D042A431D7A2D06EF
:107C8000154320D1A278637812021A43E3781E4983
:107C90001B041A43237903201B061343184A02F0DE
:107CA000EFFDA279637912021A43E3791B041A43A8
:107CB000237A1B0613439B195B7A23700BE004287D
:107CC000BBD00A329CE72000A847051E06D00F490A
:107CD000012002F093FD280005B0F0BDA279637980
:107CE00012021A43E3791B041A43237A1B06134337
:107CF0009B195B7A042BE0D1EDE7C046722000208F
:107D000024320300A80D03005E0D03008F0D030055
:107D1000044A13005072020A9A72020C000EDA72C0
:107D20001873704772200020054A937A507A1B021C
:107D30000343D07A00040343107B000618437047C6
:107D400072200020074B08491A78002398004058F9
:107D5000042805D10133DBB29A42F7D200207047E4
:107D60000120FCE74A290020B03A0020002801D178
:107D7000014B18707047C046522A002010B50649C2
:107D8000032002F03BFD0122044B032004491A703A
:107D900002F034FD002010BD6C3503004C2900209A
:107DA000AE35030010B50649032002F027FD02227C
:107DB000044B032004491A7002F020FD002010BD7E
:107DC000E93403004C2900203135030010B5054982
:107DD000032002F013FD0320034902F00FFD0020F1
:107DE00010BDC046AA360300F836030010B5054999
:107DF000032002F003FD0320034902F0FFFC0020F2
:107E000010BDC046AC340300F836030010B50024A2
:107E10000749032002F0F2FC064803F0FBFC064B86
:107E2000064903201C7002F0E9FC200010BDC0468A
:107E3000BD380300602900204C290020F8360300DB
:107E400070B505000F49032002F0D8FC0E4C20004D
:107E500003F0E0FCA97A6B7A09021943EB7A0B4A2A
:107E60001B0419432B7B20001B060B4313600723C5
:107E70001371074B196803F081FC0122054B0020A8
:107E80001A7070BDE03503006029002058290020D9
:107E9000842000204C2900200122064B10B5064901
:107EA00006481A7003F096FD002801D003F040F94F
:107EB00010BDC046522A002004390300A020002033
:107EC00070B504002249032002F098FC214803F019
:107ED000A1FC214D280003F09DFCA17A637A0902E0
:107EE0001943E37A1D4A1B041943237B28001B0610
:107EF0000B43136006231371194B196803F03EFC02
:107F0000184D280003F086FCA17A637A0902194310
:107F1000E37A154A1B041943237B28001B060B43F5
:107F2000136007231371114B196803F027FC01221A
:107F30000F4B1A70FBF740FD830702D50520FBF7B6
:107F4000CFFA0C49032002F059FC002070BDC04656
:107F500066360300B8290020F0290020D829002027
:107F60008C2000206029002050290020842000203F
:107F70004C290020AE350300F7B527490400032043
:107F800002F03CFC254D26492A88032002F052FCD1
:107F9000244B2A881B689A4215D3A17A637A090276
:107FA0001943E37A204A1B041943237B1F481B060D
:107FB0000B431360042313711D4B196803F0DEFBA0
:107FC00000202880FEBD1B4803F024FC1A4E1B4CE9
:107FD0003078820013590B2B1BD0D1214900184A4D
:107FE0000191012807D9A039FF39009101201549D5
:107FF00002F0AAFCE4E70327009723681249022055
:1080000002F0A2FC33780133DBB233709B001F51C6
:10801000D6E703231351D3E72A370300282A002089
:108020006A370300B8200020B0290020B8290020BA
:10803000BC200020882900204D290020BC3A0020C7
:10804000A3370300F2090300440A0300F7B50368ED
:108050000400002B08D016490A004B72190A9172CD
:10806000190C1B0ED1721373124E134D37782179F0
:10807000BA0053590B2B19D0AD20104A0190009132
:10808000012F06D90E49AC3802F05EFC0B23237198
:10809000F7BD2B680B49022002F056FC3378013300
:1080A000DBB2337022799B005A51EFE75151EDE773
:1080B000902000204D290020BC3A0020A337030067
:1080C000F2090300440A0300F7B503680400002B1B
:1080D00008D016490A004B72190A9172190C1B0E2E
:1080E000D1721373124E134D37782179BA00535958
:1080F0000B2B19D0AC20104A01900091012F06D90A
:108100000E49AB3802F020FC0B232371F7BD2B681E
:108110000B49022002F018FC33780133DBB23370D4
:1081200022799B005A51EFE75151EDE79020002052
:108130004D290020BC3A0020A3370300F2090300B8
:10814000440A0300F7B503680400002B08D0164961
:108150000A004B72190A9172190C1B0ED17213731B
:10816000124E134D37782179BA0053590B2B19D081
:10817000AB20104A01900091012F06D90E49AA3870
:1081800002F0E2FB0B232371F7BD2B680B490220A1
:1081900002F0DAFB33780133DBB2337022799B00D3
:1081A0005A51EFE75151EDE7902000204D29002072
:1081B000BC3A0020A3370300F2090300440A03007D
:1081C000F7B503680400002B08D016490A004B726B
:1081D000190A9172190C1B0ED1721373124E134DA2
:1081E00037782179BA0053590B2B19D0AA20104A9D
:1081F00001900091012F06D90E49A93802F0A4FB85
:108200000B232371F7BD2B680B49022002F09CFB66
:1082100033780133DBB2337022799B005A51EFE798
:108220005151EDE7902000204D290020BC3A00205C
:10823000A3370300F2090300440A0300094B0A496B
:108240001A68FA239B00C046C046C046C046C046D6
:10825000C046C046C0468A4200D0C046013BF2D16B
:108260007047C0464C2100200024F400F0B554496A
:1082700091B0032002F0C2FA002104AC514B10224D
:1082800020001970FAF7C2FD05230493013B6360D7
:10829000CC235B04A36003234B4D237308224B4B79
:1082A0002100280003F07AFB002801D002F040FFF3
:1082B0000D23474F3B70FFF7EFFDFFF7BFFF454B27
:1082C0001B78002B0BD1444B1B784A2B0CD0434915
:1082D0002A2B0AD04249032002F090FA31E04149AA
:1082E000032002F08BFAE8E73F49032002F086FA08
:1082F00023003E4A43CA43C343CA43C343CA43C39A
:1083000043CA43C3002306222100280003F092FB46
:108310002A233B70FFF7C0FDFFF790FF2D4B1B7822
:10832000002B37D12C4A3248117801221143417079
:1083300002A90C002D483030C0C8C0C4280003F08A
:1083400079FB2C4A00212C4803F000FA2B4A00212B
:108350002B4803F0FBF92B4A00212B4803F0F6F9D8
:108360002A4A00212A4803F0F1F92A4E2A4C307893
:10837000820013590B2B20D05A21FF31274A01913B
:1083800001280CD901202649009002F0DDFA0020D6
:1083900011B0F0BD1349032002F030FABCE701250B
:1083A000009523681F49022002F0CEFA33785B194A
:1083B000DBB233709B001D51E9E701231351E6E75F
:1083C000C23703004C290020A02000202C2A0020C6
:1083D0004B290020522A0020102A002015380300C3
:1083E000743803000238030045380300A433030047
:1083F0007F200020C1810200A434030045810200D7
:10840000A8340300C9800200A03403004D8002009C
:108410009C3403004D290020BC3A0020A337030000
:10842000F2090300440A03000C2370B52C4E04002B
:108430003370FFF731FDFFF701FF2A4D2B78002B3A
:1084400044D1294B1B785B073AD516233370FFF7CD
:1084500023FDFFF7F3FE2B78002B3CD1234D2800A2
:1084600003F0D8F9A17A637A09021943E37A204A22
:108470001B041943237B28001B060B4313600423B2
:1084800013711C4B196803F079F91B4D280003F098
:10849000C1F9A17A637A09021943E37A174A1B04E6
:1084A0001943237B28001B060B431360052313711C
:1084B000134B196803F062F9124A138801331380D1
:1084C0001149032002F09AF9002070BD0F490320E2
:1084D00002F094F9AFE70D49032002F08FF9B8E7F5
:1084E0004B290020522A0020102A0020B829002001
:1084F000A8290020BC2000208829002080290020F5
:1085000088200020282A00202C360300023803008F
:108510000C2370B5134D2B70FFF7BEFCFFF78EFEDA
:10852000114C2378002B12D1104B1B785B070CD514
:1085300016232B70FFF7B0FCFFF780FE2378002B8B
:108540000AD10B4A138801331380002070BD0949FA
:10855000032002F053F9E1E70649032002F04EF947
:10856000EAE7C0464B290020522A0020102A0020AA
:10857000282A0020023803000C2370B51D4E050088
:108580003370FFF789FCFFF759FE1B4C2378002B53
:1085900025D11A4B1B785B071FD516233370FFF7C5
:1085A0007BFCFFF74BFE2378002B1DD1144C2000E1
:1085B00003F030F9A97A6B7A09021943EB7A114A70
:1085C0001B0419432B7B20001B060B43136006235F
:1085D00013710D4B196803F0D1F8002070BD0B49E1
:1085E000032002F00BF9CEE70849032002F006F958
:1085F000D7E7C0464B290020522A0020102A00202D
:10860000F0290020E02900208C20002002380300FF
:108610000C2370B51D4E05003370FFF73DFCFFF7CE
:108620000DFE1B4C2378002B25D11A4B1B785B07C2
:108630001FD516233370FFF72FFCFFF7FFFD2378BC
:10864000002B1DD1144C200003F0E4F8A97A6B7ABA
:1086500009021943EB7A114A1B0419432B7B2000B2
:108660001B060B431360062313710D4B196803F0AF
:1086700085F8002070BD0B49032002F0BFF8CEE75B
:108680000849032002F0BAF8D7E7C0464B2900207A
:10869000522A0020102A0020F0290020E82900207A
:1086A0008C2000200238030010B5064C20600648DC
:1086B000016006490A60064A1360064B029A1A6076
:1086C00010BDC0468C200020B8200020BC20002017
:1086D0008820002084200020F0B54B4C010AA170B6
